{
	"Dinsey/dinsey.sol": {
		"Dinsey": {
			"abi": [
				{
					"inputs": [],
					"stateMutability": "nonpayable",
					"type": "constructor"
				},
				{
					"inputs": [
						{
							"internalType": "address",
							"name": "",
							"type": "address"
						}
					],
					"name": "Clientes",
					"outputs": [
						{
							"internalType": "uint256",
							"name": "tokens_comprados",
							"type": "uint256"
						}
					],
					"stateMutability": "view",
					"type": "function"
				},
				{
					"inputs": [
						{
							"internalType": "uint256",
							"name": "_numToken",
							"type": "uint256"
						}
					],
					"name": "CompraToken",
					"outputs": [],
					"stateMutability": "payable",
					"type": "function"
				},
				{
					"inputs": [
						{
							"internalType": "uint256",
							"name": "_numTokens",
							"type": "uint256"
						}
					],
					"name": "GeneraToken",
					"outputs": [],
					"stateMutability": "nonpayable",
					"type": "function"
				},
				{
					"inputs": [],
					"name": "MisToken",
					"outputs": [
						{
							"internalType": "uint256",
							"name": "",
							"type": "uint256"
						}
					],
					"stateMutability": "view",
					"type": "function"
				},
				{
					"inputs": [],
					"name": "balanceOf",
					"outputs": [
						{
							"internalType": "uint256",
							"name": "",
							"type": "uint256"
						}
					],
					"stateMutability": "view",
					"type": "function"
				},
				{
					"inputs": [],
					"name": "owner",
					"outputs": [
						{
							"internalType": "address payable",
							"name": "",
							"type": "address"
						}
					],
					"stateMutability": "view",
					"type": "function"
				}
			],
			"devdoc": {
				"kind": "dev",
				"methods": {},
				"version": 1
			},
			"evm": {
				"assembly": "    /* \"Dinsey/dinsey.sol\":126:2710  contract Dinsey{\r... */\n  mstore(0x40, 0x80)\n    /* \"Dinsey/dinsey.sol\":361:469  constructor () public {\r... */\n  callvalue\n  dup1\n  iszero\n  tag_1\n  jumpi\n  0x00\n  dup1\n  revert\ntag_1:\n  pop\n    /* \"Dinsey/dinsey.sol\":417:422  10000 */\n  0x2710\n    /* \"Dinsey/dinsey.sol\":402:423  new ERC20Basic(10000) */\n  mload(0x40)\n  tag_4\n  swap1\n  tag_5\n  jump\t// in\ntag_4:\n  tag_6\n  swap2\n  swap1\n  tag_7\n  jump\t// in\ntag_6:\n  mload(0x40)\n  dup1\n  swap2\n  sub\n  swap1\n  0x00\n  create\n  dup1\n  iszero\n  dup1\n  iszero\n  tag_8\n  jumpi\n  returndatasize\n  0x00\n  dup1\n  returndatacopy\n  revert(0x00, returndatasize)\ntag_8:\n  pop\n    /* \"Dinsey/dinsey.sol\":394:399  token */\n  0x00\n  dup1\n    /* \"Dinsey/dinsey.sol\":394:423  token = new ERC20Basic(10000) */\n  0x0100\n  exp\n  dup2\n  sload\n  dup2\n  0xffffffffffffffffffffffffffffffffffffffff\n  mul\n  not\n  and\n  swap1\n  dup4\n  0xffffffffffffffffffffffffffffffffffffffff\n  and\n  mul\n  or\n  swap1\n  sstore\n  pop\n    /* \"Dinsey/dinsey.sol\":450:460  msg.sender */\n  caller\n    /* \"Dinsey/dinsey.sol\":434:439  owner */\n  0x01\n  0x00\n    /* \"Dinsey/dinsey.sol\":434:461  owner = payable(msg.sender) */\n  0x0100\n  exp\n  dup2\n  sload\n  dup2\n  0xffffffffffffffffffffffffffffffffffffffff\n  mul\n  not\n  and\n  swap1\n  dup4\n  0xffffffffffffffffffffffffffffffffffffffff\n  and\n  mul\n  or\n  swap1\n  sstore\n  pop\n    /* \"Dinsey/dinsey.sol\":126:2710  contract Dinsey{\r... */\n  jump(tag_9)\ntag_5:\n  dataSize(sub_1)\n  dup1\n  dataOffset(sub_1)\n  dup4\n  codecopy\n  add\n  swap1\n  jump\t// out\n    /* \"#utility.yul\":7:162   */\ntag_11:\n    /* \"#utility.yul\":106:155   */\n  tag_13\n    /* \"#utility.yul\":149:154   */\n  dup2\n    /* \"#utility.yul\":106:155   */\n  tag_14\n  jump\t// in\ntag_13:\n    /* \"#utility.yul\":101:104   */\n  dup3\n    /* \"#utility.yul\":94:156   */\n  mstore\n    /* \"#utility.yul\":7:162   */\n  pop\n  pop\n  jump\t// out\n    /* \"#utility.yul\":168:414   */\ntag_7:\n    /* \"#utility.yul\":273:277   */\n  0x00\n    /* \"#utility.yul\":311:313   */\n  0x20\n    /* \"#utility.yul\":300:309   */\n  dup3\n    /* \"#utility.yul\":296:314   */\n  add\n    /* \"#utility.yul\":288:314   */\n  swap1\n  pop\n    /* \"#utility.yul\":324:407   */\n  tag_16\n    /* \"#utility.yul\":404:405   */\n  0x00\n    /* \"#utility.yul\":393:402   */\n  dup4\n    /* \"#utility.yul\":389:406   */\n  add\n    /* \"#utility.yul\":380:386   */\n  dup5\n    /* \"#utility.yul\":324:407   */\n  tag_11\n  jump\t// in\ntag_16:\n    /* \"#utility.yul\":168:414   */\n  swap3\n  swap2\n  pop\n  pop\n  jump\t// out\n    /* \"#utility.yul\":420:497   */\ntag_17:\n    /* \"#utility.yul\":457:464   */\n  0x00\n    /* \"#utility.yul\":486:491   */\n  dup2\n    /* \"#utility.yul\":475:491   */\n  swap1\n  pop\n    /* \"#utility.yul\":420:497   */\n  swap2\n  swap1\n  pop\n  jump\t// out\n    /* \"#utility.yul\":503:628   */\ntag_14:\n    /* \"#utility.yul\":565:574   */\n  0x00\n    /* \"#utility.yul\":598:622   */\n  tag_20\n    /* \"#utility.yul\":616:621   */\n  dup3\n    /* \"#utility.yul\":598:622   */\n  tag_17\n  jump\t// in\ntag_20:\n    /* \"#utility.yul\":585:622   */\n  swap1\n  pop\n    /* \"#utility.yul\":503:628   */\n  swap2\n  swap1\n  pop\n  jump\t// out\n    /* \"Dinsey/dinsey.sol\":126:2710  contract Dinsey{\r... */\ntag_9:\n  dataSize(sub_0)\n  dup1\n  dataOffset(sub_0)\n  0x00\n  codecopy\n  0x00\n  return\nstop\n\nsub_0: assembly {\n        /* \"Dinsey/dinsey.sol\":126:2710  contract Dinsey{\r... */\n      mstore(0x40, 0x80)\n      jumpi(tag_1, lt(calldatasize, 0x04))\n      shr(0xe0, calldataload(0x00))\n      dup1\n      0x48ba0838\n      eq\n      tag_2\n      jumpi\n      dup1\n      0x722713f7\n      eq\n      tag_3\n      jumpi\n      dup1\n      0x8da5cb5b\n      eq\n      tag_4\n      jumpi\n      dup1\n      0xba2d17fe\n      eq\n      tag_5\n      jumpi\n      dup1\n      0xce6dd8c4\n      eq\n      tag_6\n      jumpi\n      dup1\n      0xce8f2f38\n      eq\n      tag_7\n      jumpi\n    tag_1:\n      0x00\n      dup1\n      revert\n        /* \"Dinsey/dinsey.sol\":1090:1976  function CompraToken(uint _numToken) public payable{\r... */\n    tag_2:\n      tag_8\n      0x04\n      dup1\n      calldatasize\n      sub\n      dup2\n      add\n      swap1\n      tag_9\n      swap2\n      swap1\n      tag_10\n      jump\t// in\n    tag_9:\n      tag_11\n      jump\t// in\n    tag_8:\n      stop\n        /* \"Dinsey/dinsey.sol\":2030:2133  function balanceOf() public view returns (uint){\r... */\n    tag_3:\n      callvalue\n      dup1\n      iszero\n      tag_12\n      jumpi\n      0x00\n      dup1\n      revert\n    tag_12:\n      pop\n      tag_13\n      tag_14\n      jump\t// in\n    tag_13:\n      mload(0x40)\n      tag_15\n      swap2\n      swap1\n      tag_16\n      jump\t// in\n    tag_15:\n      mload(0x40)\n      dup1\n      swap2\n      sub\n      swap1\n      return\n        /* \"Dinsey/dinsey.sol\":324:352  address payable public owner */\n    tag_4:\n      callvalue\n      dup1\n      iszero\n      tag_17\n      jumpi\n      0x00\n      dup1\n      revert\n    tag_17:\n      pop\n      tag_18\n      tag_19\n      jump\t// in\n    tag_18:\n      mload(0x40)\n      tag_20\n      swap2\n      swap1\n      tag_21\n      jump\t// in\n    tag_20:\n      mload(0x40)\n      dup1\n      swap2\n      sub\n      swap1\n      return\n        /* \"Dinsey/dinsey.sol\":2356:2479  function GeneraToken(uint _numTokens) public Unicamente(msg.sender){\r... */\n    tag_5:\n      callvalue\n      dup1\n      iszero\n      tag_22\n      jumpi\n      0x00\n      dup1\n      revert\n    tag_22:\n      pop\n      tag_23\n      0x04\n      dup1\n      calldatasize\n      sub\n      dup2\n      add\n      swap1\n      tag_24\n      swap2\n      swap1\n      tag_10\n      jump\t// in\n    tag_24:\n      tag_25\n      jump\t// in\n    tag_23:\n      stop\n        /* \"Dinsey/dinsey.sol\":2210:2308  function MisToken() public view returns(uint){\r... */\n    tag_6:\n      callvalue\n      dup1\n      iszero\n      tag_26\n      jumpi\n      0x00\n      dup1\n      revert\n    tag_26:\n      pop\n      tag_27\n      tag_28\n      jump\t// in\n    tag_27:\n      mload(0x40)\n      tag_29\n      swap2\n      swap1\n      tag_16\n      jump\t// in\n    tag_29:\n      mload(0x40)\n      dup1\n      swap2\n      sub\n      swap1\n      return\n        /* \"Dinsey/dinsey.sol\":693:737  mapping (address => cliente) public Clientes */\n    tag_7:\n      callvalue\n      dup1\n      iszero\n      tag_30\n      jumpi\n      0x00\n      dup1\n      revert\n    tag_30:\n      pop\n      tag_31\n      0x04\n      dup1\n      calldatasize\n      sub\n      dup2\n      add\n      swap1\n      tag_32\n      swap2\n      swap1\n      tag_33\n      jump\t// in\n    tag_32:\n      tag_34\n      jump\t// in\n    tag_31:\n      mload(0x40)\n      tag_35\n      swap2\n      swap1\n      tag_16\n      jump\t// in\n    tag_35:\n      mload(0x40)\n      dup1\n      swap2\n      sub\n      swap1\n      return\n        /* \"Dinsey/dinsey.sol\":1090:1976  function CompraToken(uint _numToken) public payable{\r... */\n    tag_11:\n        /* \"Dinsey/dinsey.sol\":1197:1207  uint coste */\n      0x00\n        /* \"Dinsey/dinsey.sol\":1210:1232  PrecioToken(_numToken) */\n      tag_37\n        /* \"Dinsey/dinsey.sol\":1222:1231  _numToken */\n      dup3\n        /* \"Dinsey/dinsey.sol\":1210:1221  PrecioToken */\n      tag_38\n        /* \"Dinsey/dinsey.sol\":1210:1232  PrecioToken(_numToken) */\n      jump\t// in\n    tag_37:\n        /* \"Dinsey/dinsey.sol\":1197:1232  uint coste = PrecioToken(_numToken) */\n      swap1\n      pop\n        /* \"Dinsey/dinsey.sol\":1332:1337  coste */\n      dup1\n        /* \"Dinsey/dinsey.sol\":1319:1328  msg.value */\n      callvalue\n        /* \"Dinsey/dinsey.sol\":1319:1337  msg.value >= coste */\n      lt\n      iszero\n        /* \"Dinsey/dinsey.sol\":1310:1384  require (msg.value >= coste, \"Compra menos Tokens o paga con mas ethers.\") */\n      tag_39\n      jumpi\n      mload(0x40)\n      0x08c379a000000000000000000000000000000000000000000000000000000000\n      dup2\n      mstore\n      0x04\n      add\n      tag_40\n      swap1\n      tag_41\n      jump\t// in\n    tag_40:\n      mload(0x40)\n      dup1\n      swap2\n      sub\n      swap1\n      revert\n    tag_39:\n        /* \"Dinsey/dinsey.sol\":1444:1460  uint returnValue */\n      0x00\n        /* \"Dinsey/dinsey.sol\":1475:1480  coste */\n      dup2\n        /* \"Dinsey/dinsey.sol\":1463:1472  msg.value */\n      callvalue\n        /* \"Dinsey/dinsey.sol\":1463:1480  msg.value - coste */\n      tag_42\n      swap2\n      swap1\n      tag_43\n      jump\t// in\n    tag_42:\n        /* \"Dinsey/dinsey.sol\":1444:1480  uint returnValue = msg.value - coste */\n      swap1\n      pop\n        /* \"Dinsey/dinsey.sol\":1558:1568  msg.sender */\n      caller\n        /* \"Dinsey/dinsey.sol\":1550:1578  payable(msg.sender).transfer */\n      0xffffffffffffffffffffffffffffffffffffffff\n      and\n        /* \"Dinsey/dinsey.sol\":1550:1591  payable(msg.sender).transfer(returnValue) */\n      0x08fc\n        /* \"Dinsey/dinsey.sol\":1579:1590  returnValue */\n      dup3\n        /* \"Dinsey/dinsey.sol\":1550:1591  payable(msg.sender).transfer(returnValue) */\n      swap1\n      dup2\n      iszero\n      mul\n      swap1\n      mload(0x40)\n      0x00\n      mload(0x40)\n      dup1\n      dup4\n      sub\n      dup2\n      dup6\n      dup9\n      dup9\n      call\n      swap4\n      pop\n      pop\n      pop\n      pop\n      iszero\n      dup1\n      iszero\n      tag_45\n      jumpi\n      returndatasize\n      0x00\n      dup1\n      returndatacopy\n      revert(0x00, returndatasize)\n    tag_45:\n      pop\n        /* \"Dinsey/dinsey.sol\":1655:1667  uint Balance */\n      0x00\n        /* \"Dinsey/dinsey.sol\":1670:1681  balanceOf() */\n      tag_46\n        /* \"Dinsey/dinsey.sol\":1670:1679  balanceOf */\n      tag_14\n        /* \"Dinsey/dinsey.sol\":1670:1681  balanceOf() */\n      jump\t// in\n    tag_46:\n        /* \"Dinsey/dinsey.sol\":1655:1681  uint Balance = balanceOf() */\n      swap1\n      pop\n        /* \"Dinsey/dinsey.sol\":1713:1720  Balance */\n      dup1\n        /* \"Dinsey/dinsey.sol\":1700:1709  _numToken */\n      dup5\n        /* \"Dinsey/dinsey.sol\":1700:1720  _numToken <= Balance */\n      gt\n      iszero\n        /* \"Dinsey/dinsey.sol\":1692:1757  require(_numToken <= Balance, \"Compra un numero menor de Tokens\") */\n      tag_47\n      jumpi\n      mload(0x40)\n      0x08c379a000000000000000000000000000000000000000000000000000000000\n      dup2\n      mstore\n      0x04\n      add\n      tag_48\n      swap1\n      tag_49\n      jump\t// in\n    tag_48:\n      mload(0x40)\n      dup1\n      swap2\n      sub\n      swap1\n      revert\n    tag_47:\n        /* \"Dinsey/dinsey.sol\":1825:1830  token */\n      0x00\n      dup1\n      sload\n      swap1\n      0x0100\n      exp\n      swap1\n      div\n      0xffffffffffffffffffffffffffffffffffffffff\n      and\n        /* \"Dinsey/dinsey.sol\":1825:1839  token.transfer */\n      0xffffffffffffffffffffffffffffffffffffffff\n      and\n      0xa9059cbb\n        /* \"Dinsey/dinsey.sol\":1840:1850  msg.sender */\n      caller\n        /* \"Dinsey/dinsey.sol\":1852:1861  _numToken */\n      dup7\n        /* \"Dinsey/dinsey.sol\":1825:1862  token.transfer(msg.sender, _numToken) */\n      mload(0x40)\n      dup4\n      0xffffffff\n      and\n      0xe0\n      shl\n      dup2\n      mstore\n      0x04\n      add\n      tag_50\n      swap3\n      swap2\n      swap1\n      tag_51\n      jump\t// in\n    tag_50:\n      0x20\n      mload(0x40)\n      dup1\n      dup4\n      sub\n      dup2\n      0x00\n      dup8\n      dup1\n      extcodesize\n      iszero\n      dup1\n      iszero\n      tag_52\n      jumpi\n      0x00\n      dup1\n      revert\n    tag_52:\n      pop\n      gas\n      call\n      iszero\n      dup1\n      iszero\n      tag_54\n      jumpi\n      returndatasize\n      0x00\n      dup1\n      returndatacopy\n      revert(0x00, returndatasize)\n    tag_54:\n      pop\n      pop\n      pop\n      pop\n      mload(0x40)\n      returndatasize\n      not(0x1f)\n      0x1f\n      dup3\n      add\n      and\n      dup3\n      add\n      dup1\n      0x40\n      mstore\n      pop\n      dup2\n      add\n      swap1\n      tag_55\n      swap2\n      swap1\n      tag_56\n      jump\t// in\n    tag_55:\n      pop\n        /* \"Dinsey/dinsey.sol\":1959:1968  _numToken */\n      dup4\n        /* \"Dinsey/dinsey.sol\":1919:1927  Clientes */\n      0x02\n        /* \"Dinsey/dinsey.sol\":1919:1939  Clientes[msg.sender] */\n      0x00\n        /* \"Dinsey/dinsey.sol\":1928:1938  msg.sender */\n      caller\n        /* \"Dinsey/dinsey.sol\":1919:1939  Clientes[msg.sender] */\n      0xffffffffffffffffffffffffffffffffffffffff\n      and\n      0xffffffffffffffffffffffffffffffffffffffff\n      and\n      dup2\n      mstore\n      0x20\n      add\n      swap1\n      dup2\n      mstore\n      0x20\n      add\n      0x00\n      keccak256\n        /* \"Dinsey/dinsey.sol\":1919:1956  Clientes[msg.sender].tokens_comprados */\n      0x00\n      add\n        /* \"Dinsey/dinsey.sol\":1919:1968  Clientes[msg.sender].tokens_comprados = _numToken */\n      dup2\n      swap1\n      sstore\n      pop\n        /* \"Dinsey/dinsey.sol\":1141:1976  {\r... */\n      pop\n      pop\n      pop\n        /* \"Dinsey/dinsey.sol\":1090:1976  function CompraToken(uint _numToken) public payable{\r... */\n      pop\n      jump\t// out\n        /* \"Dinsey/dinsey.sol\":2030:2133  function balanceOf() public view returns (uint){\r... */\n    tag_14:\n        /* \"Dinsey/dinsey.sol\":2072:2076  uint */\n      0x00\n        /* \"Dinsey/dinsey.sol\":2095:2100  token */\n      dup1\n      0x00\n      swap1\n      sload\n      swap1\n      0x0100\n      exp\n      swap1\n      div\n      0xffffffffffffffffffffffffffffffffffffffff\n      and\n        /* \"Dinsey/dinsey.sol\":2095:2110  token.balanceOf */\n      0xffffffffffffffffffffffffffffffffffffffff\n      and\n      0x70a08231\n        /* \"Dinsey/dinsey.sol\":2119:2123  this */\n      address\n        /* \"Dinsey/dinsey.sol\":2095:2125  token.balanceOf(address(this)) */\n      mload(0x40)\n      dup3\n      0xffffffff\n      and\n      0xe0\n      shl\n      dup2\n      mstore\n      0x04\n      add\n      tag_58\n      swap2\n      swap1\n      tag_59\n      jump\t// in\n    tag_58:\n      0x20\n      mload(0x40)\n      dup1\n      dup4\n      sub\n      dup2\n      dup7\n      dup1\n      extcodesize\n      iszero\n      dup1\n      iszero\n      tag_60\n      jumpi\n      0x00\n      dup1\n      revert\n    tag_60:\n      pop\n      gas\n      staticcall\n      iszero\n      dup1\n      iszero\n      tag_62\n      jumpi\n      returndatasize\n      0x00\n      dup1\n      returndatacopy\n      revert(0x00, returndatasize)\n    tag_62:\n      pop\n      pop\n      pop\n      pop\n      mload(0x40)\n      returndatasize\n      not(0x1f)\n      0x1f\n      dup3\n      add\n      and\n      dup3\n      add\n      dup1\n      0x40\n      mstore\n      pop\n      dup2\n      add\n      swap1\n      tag_63\n      swap2\n      swap1\n      tag_64\n      jump\t// in\n    tag_63:\n        /* \"Dinsey/dinsey.sol\":2088:2125  return token.balanceOf(address(this)) */\n      swap1\n      pop\n        /* \"Dinsey/dinsey.sol\":2030:2133  function balanceOf() public view returns (uint){\r... */\n      swap1\n      jump\t// out\n        /* \"Dinsey/dinsey.sol\":324:352  address payable public owner */\n    tag_19:\n      0x01\n      0x00\n      swap1\n      sload\n      swap1\n      0x0100\n      exp\n      swap1\n      div\n      0xffffffffffffffffffffffffffffffffffffffff\n      and\n      dup2\n      jump\t// out\n        /* \"Dinsey/dinsey.sol\":2356:2479  function GeneraToken(uint _numTokens) public Unicamente(msg.sender){\r... */\n    tag_25:\n        /* \"Dinsey/dinsey.sol\":2412:2422  msg.sender */\n      caller\n        /* \"Dinsey/dinsey.sol\":2630:2635  owner */\n      0x01\n      0x00\n      swap1\n      sload\n      swap1\n      0x0100\n      exp\n      swap1\n      div\n      0xffffffffffffffffffffffffffffffffffffffff\n      and\n        /* \"Dinsey/dinsey.sol\":2616:2635  _direccion == owner */\n      0xffffffffffffffffffffffffffffffffffffffff\n      and\n        /* \"Dinsey/dinsey.sol\":2616:2626  _direccion */\n      dup2\n        /* \"Dinsey/dinsey.sol\":2616:2635  _direccion == owner */\n      0xffffffffffffffffffffffffffffffffffffffff\n      and\n      eq\n        /* \"Dinsey/dinsey.sol\":2608:2685  require(_direccion == owner, \"No tienes permisos para ejecutar esta funcion\") */\n      tag_66\n      jumpi\n      mload(0x40)\n      0x08c379a000000000000000000000000000000000000000000000000000000000\n      dup2\n      mstore\n      0x04\n      add\n      tag_67\n      swap1\n      tag_68\n      jump\t// in\n    tag_67:\n      mload(0x40)\n      dup1\n      swap2\n      sub\n      swap1\n      revert\n    tag_66:\n        /* \"Dinsey/dinsey.sol\":2434:2439  token */\n      0x00\n      dup1\n      sload\n      swap1\n      0x0100\n      exp\n      swap1\n      div\n      0xffffffffffffffffffffffffffffffffffffffff\n      and\n        /* \"Dinsey/dinsey.sol\":2434:2459  token.increaseTotalSupply */\n      0xffffffffffffffffffffffffffffffffffffffff\n      and\n      0x1d43cc98\n        /* \"Dinsey/dinsey.sol\":2460:2470  _numTokens */\n      dup4\n        /* \"Dinsey/dinsey.sol\":2434:2471  token.increaseTotalSupply(_numTokens) */\n      mload(0x40)\n      dup3\n      0xffffffff\n      and\n      0xe0\n      shl\n      dup2\n      mstore\n      0x04\n      add\n      tag_70\n      swap2\n      swap1\n      tag_16\n      jump\t// in\n    tag_70:\n      0x00\n      mload(0x40)\n      dup1\n      dup4\n      sub\n      dup2\n      0x00\n      dup8\n      dup1\n      extcodesize\n      iszero\n      dup1\n      iszero\n      tag_71\n      jumpi\n      0x00\n      dup1\n      revert\n    tag_71:\n      pop\n      gas\n      call\n      iszero\n      dup1\n      iszero\n      tag_73\n      jumpi\n      returndatasize\n      0x00\n      dup1\n      returndatacopy\n      revert(0x00, returndatasize)\n    tag_73:\n      pop\n      pop\n      pop\n      pop\n        /* \"Dinsey/dinsey.sol\":2356:2479  function GeneraToken(uint _numTokens) public Unicamente(msg.sender){\r... */\n      pop\n      pop\n      jump\t// out\n        /* \"Dinsey/dinsey.sol\":2210:2308  function MisToken() public view returns(uint){\r... */\n    tag_28:\n        /* \"Dinsey/dinsey.sol\":2250:2254  uint */\n      0x00\n        /* \"Dinsey/dinsey.sol\":2273:2278  token */\n      dup1\n      0x00\n      swap1\n      sload\n      swap1\n      0x0100\n      exp\n      swap1\n      div\n      0xffffffffffffffffffffffffffffffffffffffff\n      and\n        /* \"Dinsey/dinsey.sol\":2273:2288  token.balanceOf */\n      0xffffffffffffffffffffffffffffffffffffffff\n      and\n      0x70a08231\n        /* \"Dinsey/dinsey.sol\":2289:2299  msg.sender */\n      caller\n        /* \"Dinsey/dinsey.sol\":2273:2300  token.balanceOf(msg.sender) */\n      mload(0x40)\n      dup3\n      0xffffffff\n      and\n      0xe0\n      shl\n      dup2\n      mstore\n      0x04\n      add\n      tag_75\n      swap2\n      swap1\n      tag_59\n      jump\t// in\n    tag_75:\n      0x20\n      mload(0x40)\n      dup1\n      dup4\n      sub\n      dup2\n      dup7\n      dup1\n      extcodesize\n      iszero\n      dup1\n      iszero\n      tag_76\n      jumpi\n      0x00\n      dup1\n      revert\n    tag_76:\n      pop\n      gas\n      staticcall\n      iszero\n      dup1\n      iszero\n      tag_78\n      jumpi\n      returndatasize\n      0x00\n      dup1\n      returndatacopy\n      revert(0x00, returndatasize)\n    tag_78:\n      pop\n      pop\n      pop\n      pop\n      mload(0x40)\n      returndatasize\n      not(0x1f)\n      0x1f\n      dup3\n      add\n      and\n      dup3\n      add\n      dup1\n      0x40\n      mstore\n      pop\n      dup2\n      add\n      swap1\n      tag_79\n      swap2\n      swap1\n      tag_64\n      jump\t// in\n    tag_79:\n        /* \"Dinsey/dinsey.sol\":2266:2300  return token.balanceOf(msg.sender) */\n      swap1\n      pop\n        /* \"Dinsey/dinsey.sol\":2210:2308  function MisToken() public view returns(uint){\r... */\n      swap1\n      jump\t// out\n        /* \"Dinsey/dinsey.sol\":693:737  mapping (address => cliente) public Clientes */\n    tag_34:\n      mstore(0x20, 0x02)\n      dup1\n      0x00\n      mstore\n      keccak256(0x00, 0x40)\n      0x00\n      swap2\n      pop\n      swap1\n      pop\n      dup1\n      0x00\n      add\n      sload\n      swap1\n      pop\n      dup2\n      jump\t// out\n        /* \"Dinsey/dinsey.sol\":868:1047  function PrecioToken(uint _numToken) internal pure returns(uint){\r... */\n    tag_38:\n        /* \"Dinsey/dinsey.sol\":927:931  uint */\n      0x00\n        /* \"Dinsey/dinsey.sol\":1031:1038  1 ether */\n      0x0de0b6b3a7640000\n        /* \"Dinsey/dinsey.sol\":1018:1027  _numToken */\n      dup3\n        /* \"Dinsey/dinsey.sol\":1018:1039  _numToken * (1 ether) */\n      tag_81\n      swap2\n      swap1\n      tag_82\n      jump\t// in\n    tag_81:\n        /* \"Dinsey/dinsey.sol\":1011:1039  return _numToken * (1 ether) */\n      swap1\n      pop\n        /* \"Dinsey/dinsey.sol\":868:1047  function PrecioToken(uint _numToken) internal pure returns(uint){\r... */\n      swap2\n      swap1\n      pop\n      jump\t// out\n        /* \"#utility.yul\":7:146   */\n    tag_84:\n        /* \"#utility.yul\":53:58   */\n      0x00\n        /* \"#utility.yul\":91:97   */\n      dup2\n        /* \"#utility.yul\":78:98   */\n      calldataload\n        /* \"#utility.yul\":69:98   */\n      swap1\n      pop\n        /* \"#utility.yul\":107:140   */\n      tag_86\n        /* \"#utility.yul\":134:139   */\n      dup2\n        /* \"#utility.yul\":107:140   */\n      tag_87\n      jump\t// in\n    tag_86:\n        /* \"#utility.yul\":7:146   */\n      swap3\n      swap2\n      pop\n      pop\n      jump\t// out\n        /* \"#utility.yul\":152:289   */\n    tag_88:\n        /* \"#utility.yul\":206:211   */\n      0x00\n        /* \"#utility.yul\":237:243   */\n      dup2\n        /* \"#utility.yul\":231:244   */\n      mload\n        /* \"#utility.yul\":222:244   */\n      swap1\n      pop\n        /* \"#utility.yul\":253:283   */\n      tag_90\n        /* \"#utility.yul\":277:282   */\n      dup2\n        /* \"#utility.yul\":253:283   */\n      tag_91\n      jump\t// in\n    tag_90:\n        /* \"#utility.yul\":152:289   */\n      swap3\n      swap2\n      pop\n      pop\n      jump\t// out\n        /* \"#utility.yul\":295:434   */\n    tag_92:\n        /* \"#utility.yul\":341:346   */\n      0x00\n        /* \"#utility.yul\":379:385   */\n      dup2\n        /* \"#utility.yul\":366:386   */\n      calldataload\n        /* \"#utility.yul\":357:386   */\n      swap1\n      pop\n        /* \"#utility.yul\":395:428   */\n      tag_94\n        /* \"#utility.yul\":422:427   */\n      dup2\n        /* \"#utility.yul\":395:428   */\n      tag_95\n      jump\t// in\n    tag_94:\n        /* \"#utility.yul\":295:434   */\n      swap3\n      swap2\n      pop\n      pop\n      jump\t// out\n        /* \"#utility.yul\":440:583   */\n    tag_96:\n        /* \"#utility.yul\":497:502   */\n      0x00\n        /* \"#utility.yul\":528:534   */\n      dup2\n        /* \"#utility.yul\":522:535   */\n      mload\n        /* \"#utility.yul\":513:535   */\n      swap1\n      pop\n        /* \"#utility.yul\":544:577   */\n      tag_98\n        /* \"#utility.yul\":571:576   */\n      dup2\n        /* \"#utility.yul\":544:577   */\n      tag_95\n      jump\t// in\n    tag_98:\n        /* \"#utility.yul\":440:583   */\n      swap3\n      swap2\n      pop\n      pop\n      jump\t// out\n        /* \"#utility.yul\":589:918   */\n    tag_33:\n        /* \"#utility.yul\":648:654   */\n      0x00\n        /* \"#utility.yul\":697:699   */\n      0x20\n        /* \"#utility.yul\":685:694   */\n      dup3\n        /* \"#utility.yul\":676:683   */\n      dup5\n        /* \"#utility.yul\":672:695   */\n      sub\n        /* \"#utility.yul\":668:700   */\n      slt\n        /* \"#utility.yul\":665:784   */\n      iszero\n      tag_100\n      jumpi\n        /* \"#utility.yul\":703:782   */\n      tag_101\n      tag_102\n      jump\t// in\n    tag_101:\n        /* \"#utility.yul\":665:784   */\n    tag_100:\n        /* \"#utility.yul\":823:824   */\n      0x00\n        /* \"#utility.yul\":848:901   */\n      tag_103\n        /* \"#utility.yul\":893:900   */\n      dup5\n        /* \"#utility.yul\":884:890   */\n      dup3\n        /* \"#utility.yul\":873:882   */\n      dup6\n        /* \"#utility.yul\":869:891   */\n      add\n        /* \"#utility.yul\":848:901   */\n      tag_84\n      jump\t// in\n    tag_103:\n        /* \"#utility.yul\":838:901   */\n      swap2\n      pop\n        /* \"#utility.yul\":794:911   */\n      pop\n        /* \"#utility.yul\":589:918   */\n      swap3\n      swap2\n      pop\n      pop\n      jump\t// out\n        /* \"#utility.yul\":924:1269   */\n    tag_56:\n        /* \"#utility.yul\":991:997   */\n      0x00\n        /* \"#utility.yul\":1040:1042   */\n      0x20\n        /* \"#utility.yul\":1028:1037   */\n      dup3\n        /* \"#utility.yul\":1019:1026   */\n      dup5\n        /* \"#utility.yul\":1015:1038   */\n      sub\n        /* \"#utility.yul\":1011:1043   */\n      slt\n        /* \"#utility.yul\":1008:1127   */\n      iszero\n      tag_105\n      jumpi\n        /* \"#utility.yul\":1046:1125   */\n      tag_106\n      tag_102\n      jump\t// in\n    tag_106:\n        /* \"#utility.yul\":1008:1127   */\n    tag_105:\n        /* \"#utility.yul\":1166:1167   */\n      0x00\n        /* \"#utility.yul\":1191:1252   */\n      tag_107\n        /* \"#utility.yul\":1244:1251   */\n      dup5\n        /* \"#utility.yul\":1235:1241   */\n      dup3\n        /* \"#utility.yul\":1224:1233   */\n      dup6\n        /* \"#utility.yul\":1220:1242   */\n      add\n        /* \"#utility.yul\":1191:1252   */\n      tag_88\n      jump\t// in\n    tag_107:\n        /* \"#utility.yul\":1181:1252   */\n      swap2\n      pop\n        /* \"#utility.yul\":1137:1262   */\n      pop\n        /* \"#utility.yul\":924:1269   */\n      swap3\n      swap2\n      pop\n      pop\n      jump\t// out\n        /* \"#utility.yul\":1275:1604   */\n    tag_10:\n        /* \"#utility.yul\":1334:1340   */\n      0x00\n        /* \"#utility.yul\":1383:1385   */\n      0x20\n        /* \"#utility.yul\":1371:1380   */\n      dup3\n        /* \"#utility.yul\":1362:1369   */\n      dup5\n        /* \"#utility.yul\":1358:1381   */\n      sub\n        /* \"#utility.yul\":1354:1386   */\n      slt\n        /* \"#utility.yul\":1351:1470   */\n      iszero\n      tag_109\n      jumpi\n        /* \"#utility.yul\":1389:1468   */\n      tag_110\n      tag_102\n      jump\t// in\n    tag_110:\n        /* \"#utility.yul\":1351:1470   */\n    tag_109:\n        /* \"#utility.yul\":1509:1510   */\n      0x00\n        /* \"#utility.yul\":1534:1587   */\n      tag_111\n        /* \"#utility.yul\":1579:1586   */\n      dup5\n        /* \"#utility.yul\":1570:1576   */\n      dup3\n        /* \"#utility.yul\":1559:1568   */\n      dup6\n        /* \"#utility.yul\":1555:1577   */\n      add\n        /* \"#utility.yul\":1534:1587   */\n      tag_92\n      jump\t// in\n    tag_111:\n        /* \"#utility.yul\":1524:1587   */\n      swap2\n      pop\n        /* \"#utility.yul\":1480:1597   */\n      pop\n        /* \"#utility.yul\":1275:1604   */\n      swap3\n      swap2\n      pop\n      pop\n      jump\t// out\n        /* \"#utility.yul\":1610:1961   */\n    tag_64:\n        /* \"#utility.yul\":1680:1686   */\n      0x00\n        /* \"#utility.yul\":1729:1731   */\n      0x20\n        /* \"#utility.yul\":1717:1726   */\n      dup3\n        /* \"#utility.yul\":1708:1715   */\n      dup5\n        /* \"#utility.yul\":1704:1727   */\n      sub\n        /* \"#utility.yul\":1700:1732   */\n      slt\n        /* \"#utility.yul\":1697:1816   */\n      iszero\n      tag_113\n      jumpi\n        /* \"#utility.yul\":1735:1814   */\n      tag_114\n      tag_102\n      jump\t// in\n    tag_114:\n        /* \"#utility.yul\":1697:1816   */\n    tag_113:\n        /* \"#utility.yul\":1855:1856   */\n      0x00\n        /* \"#utility.yul\":1880:1944   */\n      tag_115\n        /* \"#utility.yul\":1936:1943   */\n      dup5\n        /* \"#utility.yul\":1927:1933   */\n      dup3\n        /* \"#utility.yul\":1916:1925   */\n      dup6\n        /* \"#utility.yul\":1912:1934   */\n      add\n        /* \"#utility.yul\":1880:1944   */\n      tag_96\n      jump\t// in\n    tag_115:\n        /* \"#utility.yul\":1870:1944   */\n      swap2\n      pop\n        /* \"#utility.yul\":1826:1954   */\n      pop\n        /* \"#utility.yul\":1610:1961   */\n      swap3\n      swap2\n      pop\n      pop\n      jump\t// out\n        /* \"#utility.yul\":1967:2109   */\n    tag_116:\n        /* \"#utility.yul\":2070:2102   */\n      tag_118\n        /* \"#utility.yul\":2096:2101   */\n      dup2\n        /* \"#utility.yul\":2070:2102   */\n      tag_119\n      jump\t// in\n    tag_118:\n        /* \"#utility.yul\":2065:2068   */\n      dup3\n        /* \"#utility.yul\":2058:2103   */\n      mstore\n        /* \"#utility.yul\":1967:2109   */\n      pop\n      pop\n      jump\t// out\n        /* \"#utility.yul\":2115:2233   */\n    tag_120:\n        /* \"#utility.yul\":2202:2226   */\n      tag_122\n        /* \"#utility.yul\":2220:2225   */\n      dup2\n        /* \"#utility.yul\":2202:2226   */\n      tag_123\n      jump\t// in\n    tag_122:\n        /* \"#utility.yul\":2197:2200   */\n      dup3\n        /* \"#utility.yul\":2190:2227   */\n      mstore\n        /* \"#utility.yul\":2115:2233   */\n      pop\n      pop\n      jump\t// out\n        /* \"#utility.yul\":2239:2605   */\n    tag_124:\n        /* \"#utility.yul\":2381:2384   */\n      0x00\n        /* \"#utility.yul\":2402:2469   */\n      tag_126\n        /* \"#utility.yul\":2466:2468   */\n      0x2d\n        /* \"#utility.yul\":2461:2464   */\n      dup4\n        /* \"#utility.yul\":2402:2469   */\n      tag_127\n      jump\t// in\n    tag_126:\n        /* \"#utility.yul\":2395:2469   */\n      swap2\n      pop\n        /* \"#utility.yul\":2478:2571   */\n      tag_128\n        /* \"#utility.yul\":2567:2570   */\n      dup3\n        /* \"#utility.yul\":2478:2571   */\n      tag_129\n      jump\t// in\n    tag_128:\n        /* \"#utility.yul\":2596:2598   */\n      0x40\n        /* \"#utility.yul\":2591:2594   */\n      dup3\n        /* \"#utility.yul\":2587:2599   */\n      add\n        /* \"#utility.yul\":2580:2599   */\n      swap1\n      pop\n        /* \"#utility.yul\":2239:2605   */\n      swap2\n      swap1\n      pop\n      jump\t// out\n        /* \"#utility.yul\":2611:2977   */\n    tag_130:\n        /* \"#utility.yul\":2753:2756   */\n      0x00\n        /* \"#utility.yul\":2774:2841   */\n      tag_132\n        /* \"#utility.yul\":2838:2840   */\n      0x2a\n        /* \"#utility.yul\":2833:2836   */\n      dup4\n        /* \"#utility.yul\":2774:2841   */\n      tag_127\n      jump\t// in\n    tag_132:\n        /* \"#utility.yul\":2767:2841   */\n      swap2\n      pop\n        /* \"#utility.yul\":2850:2943   */\n      tag_133\n        /* \"#utility.yul\":2939:2942   */\n      dup3\n        /* \"#utility.yul\":2850:2943   */\n      tag_134\n      jump\t// in\n    tag_133:\n        /* \"#utility.yul\":2968:2970   */\n      0x40\n        /* \"#utility.yul\":2963:2966   */\n      dup3\n        /* \"#utility.yul\":2959:2971   */\n      add\n        /* \"#utility.yul\":2952:2971   */\n      swap1\n      pop\n        /* \"#utility.yul\":2611:2977   */\n      swap2\n      swap1\n      pop\n      jump\t// out\n        /* \"#utility.yul\":2983:3349   */\n    tag_135:\n        /* \"#utility.yul\":3125:3128   */\n      0x00\n        /* \"#utility.yul\":3146:3213   */\n      tag_137\n        /* \"#utility.yul\":3210:3212   */\n      0x20\n        /* \"#utility.yul\":3205:3208   */\n      dup4\n        /* \"#utility.yul\":3146:3213   */\n      tag_127\n      jump\t// in\n    tag_137:\n        /* \"#utility.yul\":3139:3213   */\n      swap2\n      pop\n        /* \"#utility.yul\":3222:3315   */\n      tag_138\n        /* \"#utility.yul\":3311:3314   */\n      dup3\n        /* \"#utility.yul\":3222:3315   */\n      tag_139\n      jump\t// in\n    tag_138:\n        /* \"#utility.yul\":3340:3342   */\n      0x20\n        /* \"#utility.yul\":3335:3338   */\n      dup3\n        /* \"#utility.yul\":3331:3343   */\n      add\n        /* \"#utility.yul\":3324:3343   */\n      swap1\n      pop\n        /* \"#utility.yul\":2983:3349   */\n      swap2\n      swap1\n      pop\n      jump\t// out\n        /* \"#utility.yul\":3355:3473   */\n    tag_140:\n        /* \"#utility.yul\":3442:3466   */\n      tag_142\n        /* \"#utility.yul\":3460:3465   */\n      dup2\n        /* \"#utility.yul\":3442:3466   */\n      tag_143\n      jump\t// in\n    tag_142:\n        /* \"#utility.yul\":3437:3440   */\n      dup3\n        /* \"#utility.yul\":3430:3467   */\n      mstore\n        /* \"#utility.yul\":3355:3473   */\n      pop\n      pop\n      jump\t// out\n        /* \"#utility.yul\":3479:3701   */\n    tag_59:\n        /* \"#utility.yul\":3572:3576   */\n      0x00\n        /* \"#utility.yul\":3610:3612   */\n      0x20\n        /* \"#utility.yul\":3599:3608   */\n      dup3\n        /* \"#utility.yul\":3595:3613   */\n      add\n        /* \"#utility.yul\":3587:3613   */\n      swap1\n      pop\n        /* \"#utility.yul\":3623:3694   */\n      tag_145\n        /* \"#utility.yul\":3691:3692   */\n      0x00\n        /* \"#utility.yul\":3680:3689   */\n      dup4\n        /* \"#utility.yul\":3676:3693   */\n      add\n        /* \"#utility.yul\":3667:3673   */\n      dup5\n        /* \"#utility.yul\":3623:3694   */\n      tag_120\n      jump\t// in\n    tag_145:\n        /* \"#utility.yul\":3479:3701   */\n      swap3\n      swap2\n      pop\n      pop\n      jump\t// out\n        /* \"#utility.yul\":3707:3961   */\n    tag_21:\n        /* \"#utility.yul\":3816:3820   */\n      0x00\n        /* \"#utility.yul\":3854:3856   */\n      0x20\n        /* \"#utility.yul\":3843:3852   */\n      dup3\n        /* \"#utility.yul\":3839:3857   */\n      add\n        /* \"#utility.yul\":3831:3857   */\n      swap1\n      pop\n        /* \"#utility.yul\":3867:3954   */\n      tag_147\n        /* \"#utility.yul\":3951:3952   */\n      0x00\n        /* \"#utility.yul\":3940:3949   */\n      dup4\n        /* \"#utility.yul\":3936:3953   */\n      add\n        /* \"#utility.yul\":3927:3933   */\n      dup5\n        /* \"#utility.yul\":3867:3954   */\n      tag_116\n      jump\t// in\n    tag_147:\n        /* \"#utility.yul\":3707:3961   */\n      swap3\n      swap2\n      pop\n      pop\n      jump\t// out\n        /* \"#utility.yul\":3967:4299   */\n    tag_51:\n        /* \"#utility.yul\":4088:4092   */\n      0x00\n        /* \"#utility.yul\":4126:4128   */\n      0x40\n        /* \"#utility.yul\":4115:4124   */\n      dup3\n        /* \"#utility.yul\":4111:4129   */\n      add\n        /* \"#utility.yul\":4103:4129   */\n      swap1\n      pop\n        /* \"#utility.yul\":4139:4210   */\n      tag_149\n        /* \"#utility.yul\":4207:4208   */\n      0x00\n        /* \"#utility.yul\":4196:4205   */\n      dup4\n        /* \"#utility.yul\":4192:4209   */\n      add\n        /* \"#utility.yul\":4183:4189   */\n      dup6\n        /* \"#utility.yul\":4139:4210   */\n      tag_120\n      jump\t// in\n    tag_149:\n        /* \"#utility.yul\":4220:4292   */\n      tag_150\n        /* \"#utility.yul\":4288:4290   */\n      0x20\n        /* \"#utility.yul\":4277:4286   */\n      dup4\n        /* \"#utility.yul\":4273:4291   */\n      add\n        /* \"#utility.yul\":4264:4270   */\n      dup5\n        /* \"#utility.yul\":4220:4292   */\n      tag_140\n      jump\t// in\n    tag_150:\n        /* \"#utility.yul\":3967:4299   */\n      swap4\n      swap3\n      pop\n      pop\n      pop\n      jump\t// out\n        /* \"#utility.yul\":4305:4724   */\n    tag_68:\n        /* \"#utility.yul\":4471:4475   */\n      0x00\n        /* \"#utility.yul\":4509:4511   */\n      0x20\n        /* \"#utility.yul\":4498:4507   */\n      dup3\n        /* \"#utility.yul\":4494:4512   */\n      add\n        /* \"#utility.yul\":4486:4512   */\n      swap1\n      pop\n        /* \"#utility.yul\":4558:4567   */\n      dup2\n        /* \"#utility.yul\":4552:4556   */\n      dup2\n        /* \"#utility.yul\":4548:4568   */\n      sub\n        /* \"#utility.yul\":4544:4545   */\n      0x00\n        /* \"#utility.yul\":4533:4542   */\n      dup4\n        /* \"#utility.yul\":4529:4546   */\n      add\n        /* \"#utility.yul\":4522:4569   */\n      mstore\n        /* \"#utility.yul\":4586:4717   */\n      tag_152\n        /* \"#utility.yul\":4712:4716   */\n      dup2\n        /* \"#utility.yul\":4586:4717   */\n      tag_124\n      jump\t// in\n    tag_152:\n        /* \"#utility.yul\":4578:4717   */\n      swap1\n      pop\n        /* \"#utility.yul\":4305:4724   */\n      swap2\n      swap1\n      pop\n      jump\t// out\n        /* \"#utility.yul\":4730:5149   */\n    tag_41:\n        /* \"#utility.yul\":4896:4900   */\n      0x00\n        /* \"#utility.yul\":4934:4936   */\n      0x20\n        /* \"#utility.yul\":4923:4932   */\n      dup3\n        /* \"#utility.yul\":4919:4937   */\n      add\n        /* \"#utility.yul\":4911:4937   */\n      swap1\n      pop\n        /* \"#utility.yul\":4983:4992   */\n      dup2\n        /* \"#utility.yul\":4977:4981   */\n      dup2\n        /* \"#utility.yul\":4973:4993   */\n      sub\n        /* \"#utility.yul\":4969:4970   */\n      0x00\n        /* \"#utility.yul\":4958:4967   */\n      dup4\n        /* \"#utility.yul\":4954:4971   */\n      add\n        /* \"#utility.yul\":4947:4994   */\n      mstore\n        /* \"#utility.yul\":5011:5142   */\n      tag_154\n        /* \"#utility.yul\":5137:5141   */\n      dup2\n        /* \"#utility.yul\":5011:5142   */\n      tag_130\n      jump\t// in\n    tag_154:\n        /* \"#utility.yul\":5003:5142   */\n      swap1\n      pop\n        /* \"#utility.yul\":4730:5149   */\n      swap2\n      swap1\n      pop\n      jump\t// out\n        /* \"#utility.yul\":5155:5574   */\n    tag_49:\n        /* \"#utility.yul\":5321:5325   */\n      0x00\n        /* \"#utility.yul\":5359:5361   */\n      0x20\n        /* \"#utility.yul\":5348:5357   */\n      dup3\n        /* \"#utility.yul\":5344:5362   */\n      add\n        /* \"#utility.yul\":5336:5362   */\n      swap1\n      pop\n        /* \"#utility.yul\":5408:5417   */\n      dup2\n        /* \"#utility.yul\":5402:5406   */\n      dup2\n        /* \"#utility.yul\":5398:5418   */\n      sub\n        /* \"#utility.yul\":5394:5395   */\n      0x00\n        /* \"#utility.yul\":5383:5392   */\n      dup4\n        /* \"#utility.yul\":5379:5396   */\n      add\n        /* \"#utility.yul\":5372:5419   */\n      mstore\n        /* \"#utility.yul\":5436:5567   */\n      tag_156\n        /* \"#utility.yul\":5562:5566   */\n      dup2\n        /* \"#utility.yul\":5436:5567   */\n      tag_135\n      jump\t// in\n    tag_156:\n        /* \"#utility.yul\":5428:5567   */\n      swap1\n      pop\n        /* \"#utility.yul\":5155:5574   */\n      swap2\n      swap1\n      pop\n      jump\t// out\n        /* \"#utility.yul\":5580:5802   */\n    tag_16:\n        /* \"#utility.yul\":5673:5677   */\n      0x00\n        /* \"#utility.yul\":5711:5713   */\n      0x20\n        /* \"#utility.yul\":5700:5709   */\n      dup3\n        /* \"#utility.yul\":5696:5714   */\n      add\n        /* \"#utility.yul\":5688:5714   */\n      swap1\n      pop\n        /* \"#utility.yul\":5724:5795   */\n      tag_158\n        /* \"#utility.yul\":5792:5793   */\n      0x00\n        /* \"#utility.yul\":5781:5790   */\n      dup4\n        /* \"#utility.yul\":5777:5794   */\n      add\n        /* \"#utility.yul\":5768:5774   */\n      dup5\n        /* \"#utility.yul\":5724:5795   */\n      tag_140\n      jump\t// in\n    tag_158:\n        /* \"#utility.yul\":5580:5802   */\n      swap3\n      swap2\n      pop\n      pop\n      jump\t// out\n        /* \"#utility.yul\":5889:6058   */\n    tag_127:\n        /* \"#utility.yul\":5973:5984   */\n      0x00\n        /* \"#utility.yul\":6007:6013   */\n      dup3\n        /* \"#utility.yul\":6002:6005   */\n      dup3\n        /* \"#utility.yul\":5995:6014   */\n      mstore\n        /* \"#utility.yul\":6047:6051   */\n      0x20\n        /* \"#utility.yul\":6042:6045   */\n      dup3\n        /* \"#utility.yul\":6038:6052   */\n      add\n        /* \"#utility.yul\":6023:6052   */\n      swap1\n      pop\n        /* \"#utility.yul\":5889:6058   */\n      swap3\n      swap2\n      pop\n      pop\n      jump\t// out\n        /* \"#utility.yul\":6064:6412   */\n    tag_82:\n        /* \"#utility.yul\":6104:6111   */\n      0x00\n        /* \"#utility.yul\":6127:6147   */\n      tag_163\n        /* \"#utility.yul\":6145:6146   */\n      dup3\n        /* \"#utility.yul\":6127:6147   */\n      tag_143\n      jump\t// in\n    tag_163:\n        /* \"#utility.yul\":6122:6147   */\n      swap2\n      pop\n        /* \"#utility.yul\":6161:6181   */\n      tag_164\n        /* \"#utility.yul\":6179:6180   */\n      dup4\n        /* \"#utility.yul\":6161:6181   */\n      tag_143\n      jump\t// in\n    tag_164:\n        /* \"#utility.yul\":6156:6181   */\n      swap3\n      pop\n        /* \"#utility.yul\":6349:6350   */\n      dup2\n        /* \"#utility.yul\":6281:6347   */\n      0xffffffffffffffffffffffffffffffffffffffffffffffffffffffffffffffff\n        /* \"#utility.yul\":6277:6351   */\n      div\n        /* \"#utility.yul\":6274:6275   */\n      dup4\n        /* \"#utility.yul\":6271:6352   */\n      gt\n        /* \"#utility.yul\":6266:6267   */\n      dup3\n        /* \"#utility.yul\":6259:6268   */\n      iszero\n        /* \"#utility.yul\":6252:6269   */\n      iszero\n        /* \"#utility.yul\":6248:6353   */\n      and\n        /* \"#utility.yul\":6245:6376   */\n      iszero\n      tag_165\n      jumpi\n        /* \"#utility.yul\":6356:6374   */\n      tag_166\n      tag_167\n      jump\t// in\n    tag_166:\n        /* \"#utility.yul\":6245:6376   */\n    tag_165:\n        /* \"#utility.yul\":6404:6405   */\n      dup3\n        /* \"#utility.yul\":6401:6402   */\n      dup3\n        /* \"#utility.yul\":6397:6406   */\n      mul\n        /* \"#utility.yul\":6386:6406   */\n      swap1\n      pop\n        /* \"#utility.yul\":6064:6412   */\n      swap3\n      swap2\n      pop\n      pop\n      jump\t// out\n        /* \"#utility.yul\":6418:6609   */\n    tag_43:\n        /* \"#utility.yul\":6458:6462   */\n      0x00\n        /* \"#utility.yul\":6478:6498   */\n      tag_169\n        /* \"#utility.yul\":6496:6497   */\n      dup3\n        /* \"#utility.yul\":6478:6498   */\n      tag_143\n      jump\t// in\n    tag_169:\n        /* \"#utility.yul\":6473:6498   */\n      swap2\n      pop\n        /* \"#utility.yul\":6512:6532   */\n      tag_170\n        /* \"#utility.yul\":6530:6531   */\n      dup4\n        /* \"#utility.yul\":6512:6532   */\n      tag_143\n      jump\t// in\n    tag_170:\n        /* \"#utility.yul\":6507:6532   */\n      swap3\n      pop\n        /* \"#utility.yul\":6551:6552   */\n      dup3\n        /* \"#utility.yul\":6548:6549   */\n      dup3\n        /* \"#utility.yul\":6545:6553   */\n      lt\n        /* \"#utility.yul\":6542:6576   */\n      iszero\n      tag_171\n      jumpi\n        /* \"#utility.yul\":6556:6574   */\n      tag_172\n      tag_167\n      jump\t// in\n    tag_172:\n        /* \"#utility.yul\":6542:6576   */\n    tag_171:\n        /* \"#utility.yul\":6601:6602   */\n      dup3\n        /* \"#utility.yul\":6598:6599   */\n      dup3\n        /* \"#utility.yul\":6594:6603   */\n      sub\n        /* \"#utility.yul\":6586:6603   */\n      swap1\n      pop\n        /* \"#utility.yul\":6418:6609   */\n      swap3\n      swap2\n      pop\n      pop\n      jump\t// out\n        /* \"#utility.yul\":6615:6711   */\n    tag_123:\n        /* \"#utility.yul\":6652:6659   */\n      0x00\n        /* \"#utility.yul\":6681:6705   */\n      tag_174\n        /* \"#utility.yul\":6699:6704   */\n      dup3\n        /* \"#utility.yul\":6681:6705   */\n      tag_175\n      jump\t// in\n    tag_174:\n        /* \"#utility.yul\":6670:6705   */\n      swap1\n      pop\n        /* \"#utility.yul\":6615:6711   */\n      swap2\n      swap1\n      pop\n      jump\t// out\n        /* \"#utility.yul\":6717:6821   */\n    tag_119:\n        /* \"#utility.yul\":6762:6769   */\n      0x00\n        /* \"#utility.yul\":6791:6815   */\n      tag_177\n        /* \"#utility.yul\":6809:6814   */\n      dup3\n        /* \"#utility.yul\":6791:6815   */\n      tag_175\n      jump\t// in\n    tag_177:\n        /* \"#utility.yul\":6780:6815   */\n      swap1\n      pop\n        /* \"#utility.yul\":6717:6821   */\n      swap2\n      swap1\n      pop\n      jump\t// out\n        /* \"#utility.yul\":6827:6917   */\n    tag_178:\n        /* \"#utility.yul\":6861:6868   */\n      0x00\n        /* \"#utility.yul\":6904:6909   */\n      dup2\n        /* \"#utility.yul\":6897:6910   */\n      iszero\n        /* \"#utility.yul\":6890:6911   */\n      iszero\n        /* \"#utility.yul\":6879:6911   */\n      swap1\n      pop\n        /* \"#utility.yul\":6827:6917   */\n      swap2\n      swap1\n      pop\n      jump\t// out\n        /* \"#utility.yul\":6923:7049   */\n    tag_175:\n        /* \"#utility.yul\":6960:6967   */\n      0x00\n        /* \"#utility.yul\":7000:7042   */\n      0xffffffffffffffffffffffffffffffffffffffff\n        /* \"#utility.yul\":6993:6998   */\n      dup3\n        /* \"#utility.yul\":6989:7043   */\n      and\n        /* \"#utility.yul\":6978:7043   */\n      swap1\n      pop\n        /* \"#utility.yul\":6923:7049   */\n      swap2\n      swap1\n      pop\n      jump\t// out\n        /* \"#utility.yul\":7055:7132   */\n    tag_143:\n        /* \"#utility.yul\":7092:7099   */\n      0x00\n        /* \"#utility.yul\":7121:7126   */\n      dup2\n        /* \"#utility.yul\":7110:7126   */\n      swap1\n      pop\n        /* \"#utility.yul\":7055:7132   */\n      swap2\n      swap1\n      pop\n      jump\t// out\n        /* \"#utility.yul\":7138:7318   */\n    tag_167:\n        /* \"#utility.yul\":7186:7263   */\n      0x4e487b7100000000000000000000000000000000000000000000000000000000\n        /* \"#utility.yul\":7183:7184   */\n      0x00\n        /* \"#utility.yul\":7176:7264   */\n      mstore\n        /* \"#utility.yul\":7283:7287   */\n      0x11\n        /* \"#utility.yul\":7280:7281   */\n      0x04\n        /* \"#utility.yul\":7273:7288   */\n      mstore\n        /* \"#utility.yul\":7307:7311   */\n      0x24\n        /* \"#utility.yul\":7304:7305   */\n      0x00\n        /* \"#utility.yul\":7297:7312   */\n      revert\n        /* \"#utility.yul\":7447:7564   */\n    tag_102:\n        /* \"#utility.yul\":7556:7557   */\n      0x00\n        /* \"#utility.yul\":7553:7554   */\n      dup1\n        /* \"#utility.yul\":7546:7558   */\n      revert\n        /* \"#utility.yul\":7570:7802   */\n    tag_129:\n        /* \"#utility.yul\":7710:7744   */\n      0x4e6f207469656e6573207065726d69736f73207061726120656a656375746172\n        /* \"#utility.yul\":7706:7707   */\n      0x00\n        /* \"#utility.yul\":7698:7704   */\n      dup3\n        /* \"#utility.yul\":7694:7708   */\n      add\n        /* \"#utility.yul\":7687:7745   */\n      mstore\n        /* \"#utility.yul\":7779:7794   */\n      0x20657374612066756e63696f6e00000000000000000000000000000000000000\n        /* \"#utility.yul\":7774:7776   */\n      0x20\n        /* \"#utility.yul\":7766:7772   */\n      dup3\n        /* \"#utility.yul\":7762:7777   */\n      add\n        /* \"#utility.yul\":7755:7795   */\n      mstore\n        /* \"#utility.yul\":7570:7802   */\n      pop\n      jump\t// out\n        /* \"#utility.yul\":7808:8037   */\n    tag_134:\n        /* \"#utility.yul\":7948:7982   */\n      0x436f6d707261206d656e6f7320546f6b656e73206f207061676120636f6e206d\n        /* \"#utility.yul\":7944:7945   */\n      0x00\n        /* \"#utility.yul\":7936:7942   */\n      dup3\n        /* \"#utility.yul\":7932:7946   */\n      add\n        /* \"#utility.yul\":7925:7983   */\n      mstore\n        /* \"#utility.yul\":8017:8029   */\n      0x6173206574686572732e00000000000000000000000000000000000000000000\n        /* \"#utility.yul\":8012:8014   */\n      0x20\n        /* \"#utility.yul\":8004:8010   */\n      dup3\n        /* \"#utility.yul\":8000:8015   */\n      add\n        /* \"#utility.yul\":7993:8030   */\n      mstore\n        /* \"#utility.yul\":7808:8037   */\n      pop\n      jump\t// out\n        /* \"#utility.yul\":8043:8225   */\n    tag_139:\n        /* \"#utility.yul\":8183:8217   */\n      0x436f6d70726120756e206e756d65726f206d656e6f7220646520546f6b656e73\n        /* \"#utility.yul\":8179:8180   */\n      0x00\n        /* \"#utility.yul\":8171:8177   */\n      dup3\n        /* \"#utility.yul\":8167:8181   */\n      add\n        /* \"#utility.yul\":8160:8218   */\n      mstore\n        /* \"#utility.yul\":8043:8225   */\n      pop\n      jump\t// out\n        /* \"#utility.yul\":8231:8353   */\n    tag_87:\n        /* \"#utility.yul\":8304:8328   */\n      tag_190\n        /* \"#utility.yul\":8322:8327   */\n      dup2\n        /* \"#utility.yul\":8304:8328   */\n      tag_123\n      jump\t// in\n    tag_190:\n        /* \"#utility.yul\":8297:8302   */\n      dup2\n        /* \"#utility.yul\":8294:8329   */\n      eq\n        /* \"#utility.yul\":8284:8347   */\n      tag_191\n      jumpi\n        /* \"#utility.yul\":8343:8344   */\n      0x00\n        /* \"#utility.yul\":8340:8341   */\n      dup1\n        /* \"#utility.yul\":8333:8345   */\n      revert\n        /* \"#utility.yul\":8284:8347   */\n    tag_191:\n        /* \"#utility.yul\":8231:8353   */\n      pop\n      jump\t// out\n        /* \"#utility.yul\":8359:8475   */\n    tag_91:\n        /* \"#utility.yul\":8429:8450   */\n      tag_193\n        /* \"#utility.yul\":8444:8449   */\n      dup2\n        /* \"#utility.yul\":8429:8450   */\n      tag_178\n      jump\t// in\n    tag_193:\n        /* \"#utility.yul\":8422:8427   */\n      dup2\n        /* \"#utility.yul\":8419:8451   */\n      eq\n        /* \"#utility.yul\":8409:8469   */\n      tag_194\n      jumpi\n        /* \"#utility.yul\":8465:8466   */\n      0x00\n        /* \"#utility.yul\":8462:8463   */\n      dup1\n        /* \"#utility.yul\":8455:8467   */\n      revert\n        /* \"#utility.yul\":8409:8469   */\n    tag_194:\n        /* \"#utility.yul\":8359:8475   */\n      pop\n      jump\t// out\n        /* \"#utility.yul\":8481:8603   */\n    tag_95:\n        /* \"#utility.yul\":8554:8578   */\n      tag_196\n        /* \"#utility.yul\":8572:8577   */\n      dup2\n        /* \"#utility.yul\":8554:8578   */\n      tag_143\n      jump\t// in\n    tag_196:\n        /* \"#utility.yul\":8547:8552   */\n      dup2\n        /* \"#utility.yul\":8544:8579   */\n      eq\n        /* \"#utility.yul\":8534:8597   */\n      tag_197\n      jumpi\n        /* \"#utility.yul\":8593:8594   */\n      0x00\n        /* \"#utility.yul\":8590:8591   */\n      dup1\n        /* \"#utility.yul\":8583:8595   */\n      revert\n        /* \"#utility.yul\":8534:8597   */\n    tag_197:\n        /* \"#utility.yul\":8481:8603   */\n      pop\n      jump\t// out\n\n    auxdata: 0xa2646970667358221220e491d292aec157de4bda4b44b32c4d2f3ad4bd62544f72198eeafeaa6a7c110664736f6c63430008070033\n}\n\nsub_1: assembly {\n        /* \"Dinsey/ERC20.sol\":1767:4072  contract ERC20Basic is IERC20{\r... */\n      mstore(0x40, 0x80)\n        /* \"Dinsey/ERC20.sol\":2284:2419  constructor (uint256 initialSupply) public{\r... */\n      callvalue\n      dup1\n      iszero\n      tag_1\n      jumpi\n      0x00\n      dup1\n      revert\n    tag_1:\n      pop\n      mload(0x40)\n      sub(codesize, bytecodeSize)\n      dup1\n      bytecodeSize\n      dup4\n      codecopy\n      dup2\n      dup2\n      add\n      0x40\n      mstore\n      dup2\n      add\n      swap1\n      tag_2\n      swap2\n      swap1\n      tag_3\n      jump\t// in\n    tag_2:\n        /* \"Dinsey/ERC20.sol\":2352:2365  initialSupply */\n      dup1\n        /* \"Dinsey/ERC20.sol\":2337:2349  totalSupply_ */\n      0x02\n        /* \"Dinsey/ERC20.sol\":2337:2365  totalSupply_ = initialSupply */\n      dup2\n      swap1\n      sstore\n      pop\n        /* \"Dinsey/ERC20.sol\":2399:2411  totalSupply_ */\n      sload(0x02)\n        /* \"Dinsey/ERC20.sol\":2376:2384  balances */\n      0x00\n        /* \"Dinsey/ERC20.sol\":2376:2396  balances[msg.sender] */\n      dup1\n        /* \"Dinsey/ERC20.sol\":2385:2395  msg.sender */\n      caller\n        /* \"Dinsey/ERC20.sol\":2376:2396  balances[msg.sender] */\n      0xffffffffffffffffffffffffffffffffffffffff\n      and\n      0xffffffffffffffffffffffffffffffffffffffff\n      and\n      dup2\n      mstore\n      0x20\n      add\n      swap1\n      dup2\n      mstore\n      0x20\n      add\n      0x00\n      keccak256\n        /* \"Dinsey/ERC20.sol\":2376:2411  balances[msg.sender] = totalSupply_ */\n      dup2\n      swap1\n      sstore\n      pop\n        /* \"Dinsey/ERC20.sol\":2284:2419  constructor (uint256 initialSupply) public{\r... */\n      pop\n        /* \"Dinsey/ERC20.sol\":1767:4072  contract ERC20Basic is IERC20{\r... */\n      jump(tag_6)\n        /* \"#utility.yul\":7:150   */\n    tag_8:\n        /* \"#utility.yul\":64:69   */\n      0x00\n        /* \"#utility.yul\":95:101   */\n      dup2\n        /* \"#utility.yul\":89:102   */\n      mload\n        /* \"#utility.yul\":80:102   */\n      swap1\n      pop\n        /* \"#utility.yul\":111:144   */\n      tag_10\n        /* \"#utility.yul\":138:143   */\n      dup2\n        /* \"#utility.yul\":111:144   */\n      tag_11\n      jump\t// in\n    tag_10:\n        /* \"#utility.yul\":7:150   */\n      swap3\n      swap2\n      pop\n      pop\n      jump\t// out\n        /* \"#utility.yul\":156:507   */\n    tag_3:\n        /* \"#utility.yul\":226:232   */\n      0x00\n        /* \"#utility.yul\":275:277   */\n      0x20\n        /* \"#utility.yul\":263:272   */\n      dup3\n        /* \"#utility.yul\":254:261   */\n      dup5\n        /* \"#utility.yul\":250:273   */\n      sub\n        /* \"#utility.yul\":246:278   */\n      slt\n        /* \"#utility.yul\":243:362   */\n      iszero\n      tag_13\n      jumpi\n        /* \"#utility.yul\":281:360   */\n      tag_14\n      tag_15\n      jump\t// in\n    tag_14:\n        /* \"#utility.yul\":243:362   */\n    tag_13:\n        /* \"#utility.yul\":401:402   */\n      0x00\n        /* \"#utility.yul\":426:490   */\n      tag_16\n        /* \"#utility.yul\":482:489   */\n      dup5\n        /* \"#utility.yul\":473:479   */\n      dup3\n        /* \"#utility.yul\":462:471   */\n      dup6\n        /* \"#utility.yul\":458:480   */\n      add\n        /* \"#utility.yul\":426:490   */\n      tag_8\n      jump\t// in\n    tag_16:\n        /* \"#utility.yul\":416:490   */\n      swap2\n      pop\n        /* \"#utility.yul\":372:500   */\n      pop\n        /* \"#utility.yul\":156:507   */\n      swap3\n      swap2\n      pop\n      pop\n      jump\t// out\n        /* \"#utility.yul\":594:671   */\n    tag_19:\n        /* \"#utility.yul\":631:638   */\n      0x00\n        /* \"#utility.yul\":660:665   */\n      dup2\n        /* \"#utility.yul\":649:665   */\n      swap1\n      pop\n        /* \"#utility.yul\":594:671   */\n      swap2\n      swap1\n      pop\n      jump\t// out\n        /* \"#utility.yul\":800:917   */\n    tag_15:\n        /* \"#utility.yul\":909:910   */\n      0x00\n        /* \"#utility.yul\":906:907   */\n      dup1\n        /* \"#utility.yul\":899:911   */\n      revert\n        /* \"#utility.yul\":923:1045   */\n    tag_11:\n        /* \"#utility.yul\":996:1020   */\n      tag_25\n        /* \"#utility.yul\":1014:1019   */\n      dup2\n        /* \"#utility.yul\":996:1020   */\n      tag_19\n      jump\t// in\n    tag_25:\n        /* \"#utility.yul\":989:994   */\n      dup2\n        /* \"#utility.yul\":986:1021   */\n      eq\n        /* \"#utility.yul\":976:1039   */\n      tag_26\n      jumpi\n        /* \"#utility.yul\":1035:1036   */\n      0x00\n        /* \"#utility.yul\":1032:1033   */\n      dup1\n        /* \"#utility.yul\":1025:1037   */\n      revert\n        /* \"#utility.yul\":976:1039   */\n    tag_26:\n        /* \"#utility.yul\":923:1045   */\n      pop\n      jump\t// out\n        /* \"Dinsey/ERC20.sol\":1767:4072  contract ERC20Basic is IERC20{\r... */\n    tag_6:\n      dataSize(sub_0)\n      dup1\n      dataOffset(sub_0)\n      0x00\n      codecopy\n      0x00\n      return\n    stop\n\n    sub_0: assembly {\n            /* \"Dinsey/ERC20.sol\":1767:4072  contract ERC20Basic is IERC20{\r... */\n          mstore(0x40, 0x80)\n          callvalue\n          dup1\n          iszero\n          tag_1\n          jumpi\n          0x00\n          dup1\n          revert\n        tag_1:\n          pop\n          jumpi(tag_2, lt(calldatasize, 0x04))\n          shr(0xe0, calldataload(0x00))\n          dup1\n          0x313ce567\n          gt\n          tag_13\n          jumpi\n          dup1\n          0x313ce567\n          eq\n          tag_8\n          jumpi\n          dup1\n          0x70a08231\n          eq\n          tag_9\n          jumpi\n          dup1\n          0x95d89b41\n          eq\n          tag_10\n          jumpi\n          dup1\n          0xa9059cbb\n          eq\n          tag_11\n          jumpi\n          dup1\n          0xdd62ed3e\n          eq\n          tag_12\n          jumpi\n          jump(tag_2)\n        tag_13:\n          dup1\n          0x06fdde03\n          eq\n          tag_3\n          jumpi\n          dup1\n          0x095ea7b3\n          eq\n          tag_4\n          jumpi\n          dup1\n          0x18160ddd\n          eq\n          tag_5\n          jumpi\n          dup1\n          0x1d43cc98\n          eq\n          tag_6\n          jumpi\n          dup1\n          0x23b872dd\n          eq\n          tag_7\n          jumpi\n        tag_2:\n          0x00\n          dup1\n          revert\n            /* \"Dinsey/ERC20.sol\":1805:1854  string public constant name = \"ERC20BlockchainAZ\" */\n        tag_3:\n          tag_14\n          tag_15\n          jump\t// in\n        tag_14:\n          mload(0x40)\n          tag_16\n          swap2\n          swap1\n          tag_17\n          jump\t// in\n        tag_16:\n          mload(0x40)\n          dup1\n          swap2\n          sub\n          swap1\n          return\n            /* \"Dinsey/ERC20.sol\":3347:3571  function approve(address delegate, uint256 numTokens) public override returns(bool){\r... */\n        tag_4:\n          tag_18\n          0x04\n          dup1\n          calldatasize\n          sub\n          dup2\n          add\n          swap1\n          tag_19\n          swap2\n          swap1\n          tag_20\n          jump\t// in\n        tag_19:\n          tag_21\n          jump\t// in\n        tag_18:\n          mload(0x40)\n          tag_22\n          swap2\n          swap1\n          tag_23\n          jump\t// in\n        tag_22:\n          mload(0x40)\n          dup1\n          swap2\n          sub\n          swap1\n          return\n            /* \"Dinsey/ERC20.sol\":2427:2525  function totalSupply() public override view returns(uint256){\r... */\n        tag_5:\n          tag_24\n          tag_25\n          jump\t// in\n        tag_24:\n          mload(0x40)\n          tag_26\n          swap2\n          swap1\n          tag_27\n          jump\t// in\n        tag_26:\n          mload(0x40)\n          dup1\n          swap2\n          sub\n          swap1\n          return\n            /* \"Dinsey/ERC20.sol\":2533:2691  function increaseTotalSupply(uint newTokensAmount) public {\r... */\n        tag_6:\n          tag_28\n          0x04\n          dup1\n          calldatasize\n          sub\n          dup2\n          add\n          swap1\n          tag_29\n          swap2\n          swap1\n          tag_30\n          jump\t// in\n        tag_29:\n          tag_31\n          jump\t// in\n        tag_28:\n          stop\n            /* \"Dinsey/ERC20.sol\":3579:4067  function transferFrom(address owner, address buyer, uint256 numTokens) public override returns(bool){\r... */\n        tag_7:\n          tag_32\n          0x04\n          dup1\n          calldatasize\n          sub\n          dup2\n          add\n          swap1\n          tag_33\n          swap2\n          swap1\n          tag_34\n          jump\t// in\n        tag_33:\n          tag_35\n          jump\t// in\n        tag_32:\n          mload(0x40)\n          tag_36\n          swap2\n          swap1\n          tag_23\n          jump\t// in\n        tag_36:\n          mload(0x40)\n          dup1\n          swap2\n          sub\n          swap1\n          return\n            /* \"Dinsey/ERC20.sol\":1905:1939  uint8 public constant decimals = 2 */\n        tag_8:\n          tag_37\n          tag_38\n          jump\t// in\n        tag_37:\n          mload(0x40)\n          tag_39\n          swap2\n          swap1\n          tag_40\n          jump\t// in\n        tag_39:\n          mload(0x40)\n          dup1\n          swap2\n          sub\n          swap1\n          return\n            /* \"Dinsey/ERC20.sol\":2699:2821  function balanceOf(address tokenOwner) public override view returns(uint256){\r... */\n        tag_9:\n          tag_41\n          0x04\n          dup1\n          calldatasize\n          sub\n          dup2\n          add\n          swap1\n          tag_42\n          swap2\n          swap1\n          tag_43\n          jump\t// in\n        tag_42:\n          tag_44\n          jump\t// in\n        tag_41:\n          mload(0x40)\n          tag_45\n          swap2\n          swap1\n          tag_27\n          jump\t// in\n        tag_45:\n          mload(0x40)\n          dup1\n          swap2\n          sub\n          swap1\n          return\n            /* \"Dinsey/ERC20.sol\":1861:1898  string public constant symbol = \"ERC\" */\n        tag_10:\n          tag_46\n          tag_47\n          jump\t// in\n        tag_46:\n          mload(0x40)\n          tag_48\n          swap2\n          swap1\n          tag_17\n          jump\t// in\n        tag_48:\n          mload(0x40)\n          dup1\n          swap2\n          sub\n          swap1\n          return\n            /* \"Dinsey/ERC20.sol\":2976:3339  function transfer( address recipient, uint256 numTokens) public override returns(bool){\r... */\n        tag_11:\n          tag_49\n          0x04\n          dup1\n          calldatasize\n          sub\n          dup2\n          add\n          swap1\n          tag_50\n          swap2\n          swap1\n          tag_20\n          jump\t// in\n        tag_50:\n          tag_51\n          jump\t// in\n        tag_49:\n          mload(0x40)\n          tag_52\n          swap2\n          swap1\n          tag_23\n          jump\t// in\n        tag_52:\n          mload(0x40)\n          dup1\n          swap2\n          sub\n          swap1\n          return\n            /* \"Dinsey/ERC20.sol\":2829:2968  function allowance(address owner, address delegate) public override view returns(uint256){\r... */\n        tag_12:\n          tag_53\n          0x04\n          dup1\n          calldatasize\n          sub\n          dup2\n          add\n          swap1\n          tag_54\n          swap2\n          swap1\n          tag_55\n          jump\t// in\n        tag_54:\n          tag_56\n          jump\t// in\n        tag_53:\n          mload(0x40)\n          tag_57\n          swap2\n          swap1\n          tag_27\n          jump\t// in\n        tag_57:\n          mload(0x40)\n          dup1\n          swap2\n          sub\n          swap1\n          return\n            /* \"Dinsey/ERC20.sol\":1805:1854  string public constant name = \"ERC20BlockchainAZ\" */\n        tag_15:\n          mload(0x40)\n          dup1\n          0x40\n          add\n          0x40\n          mstore\n          dup1\n          0x11\n          dup2\n          mstore\n          0x20\n          add\n          0x4552433230426c6f636b636861696e415a000000000000000000000000000000\n          dup2\n          mstore\n          pop\n          dup2\n          jump\t// out\n            /* \"Dinsey/ERC20.sol\":3347:3571  function approve(address delegate, uint256 numTokens) public override returns(bool){\r... */\n        tag_21:\n            /* \"Dinsey/ERC20.sol\":3425:3429  bool */\n          0x00\n            /* \"Dinsey/ERC20.sol\":3473:3482  numTokens */\n          dup2\n            /* \"Dinsey/ERC20.sol\":3441:3448  allowed */\n          0x01\n            /* \"Dinsey/ERC20.sol\":3441:3460  allowed[msg.sender] */\n          0x00\n            /* \"Dinsey/ERC20.sol\":3449:3459  msg.sender */\n          caller\n            /* \"Dinsey/ERC20.sol\":3441:3460  allowed[msg.sender] */\n          0xffffffffffffffffffffffffffffffffffffffff\n          and\n          0xffffffffffffffffffffffffffffffffffffffff\n          and\n          dup2\n          mstore\n          0x20\n          add\n          swap1\n          dup2\n          mstore\n          0x20\n          add\n          0x00\n          keccak256\n            /* \"Dinsey/ERC20.sol\":3441:3470  allowed[msg.sender][delegate] */\n          0x00\n            /* \"Dinsey/ERC20.sol\":3461:3469  delegate */\n          dup6\n            /* \"Dinsey/ERC20.sol\":3441:3470  allowed[msg.sender][delegate] */\n          0xffffffffffffffffffffffffffffffffffffffff\n          and\n          0xffffffffffffffffffffffffffffffffffffffff\n          and\n          dup2\n          mstore\n          0x20\n          add\n          swap1\n          dup2\n          mstore\n          0x20\n          add\n          0x00\n          keccak256\n            /* \"Dinsey/ERC20.sol\":3441:3482  allowed[msg.sender][delegate] = numTokens */\n          dup2\n          swap1\n          sstore\n          pop\n            /* \"Dinsey/ERC20.sol\":3519:3527  delegate */\n          dup3\n            /* \"Dinsey/ERC20.sol\":3498:3539  Approval(msg.sender, delegate, numTokens) */\n          0xffffffffffffffffffffffffffffffffffffffff\n          and\n            /* \"Dinsey/ERC20.sol\":3507:3517  msg.sender */\n          caller\n            /* \"Dinsey/ERC20.sol\":3498:3539  Approval(msg.sender, delegate, numTokens) */\n          0xffffffffffffffffffffffffffffffffffffffff\n          and\n          0x8c5be1e5ebec7d5bd14f71427d1e84f3dd0314c0f7b2291e5b200ac8c7c3b925\n            /* \"Dinsey/ERC20.sol\":3529:3538  numTokens */\n          dup5\n            /* \"Dinsey/ERC20.sol\":3498:3539  Approval(msg.sender, delegate, numTokens) */\n          mload(0x40)\n          tag_59\n          swap2\n          swap1\n          tag_27\n          jump\t// in\n        tag_59:\n          mload(0x40)\n          dup1\n          swap2\n          sub\n          swap1\n          log3\n            /* \"Dinsey/ERC20.sol\":3559:3563  true */\n          0x01\n            /* \"Dinsey/ERC20.sol\":3552:3563  return true */\n          swap1\n          pop\n            /* \"Dinsey/ERC20.sol\":3347:3571  function approve(address delegate, uint256 numTokens) public override returns(bool){\r... */\n          swap3\n          swap2\n          pop\n          pop\n          jump\t// out\n            /* \"Dinsey/ERC20.sol\":2427:2525  function totalSupply() public override view returns(uint256){\r... */\n        tag_25:\n            /* \"Dinsey/ERC20.sol\":2479:2486  uint256 */\n          0x00\n            /* \"Dinsey/ERC20.sol\":2505:2517  totalSupply_ */\n          sload(0x02)\n            /* \"Dinsey/ERC20.sol\":2498:2517  return totalSupply_ */\n          swap1\n          pop\n            /* \"Dinsey/ERC20.sol\":2427:2525  function totalSupply() public override view returns(uint256){\r... */\n          swap1\n          jump\t// out\n            /* \"Dinsey/ERC20.sol\":2533:2691  function increaseTotalSupply(uint newTokensAmount) public {\r... */\n        tag_31:\n            /* \"Dinsey/ERC20.sol\":2618:2633  newTokensAmount */\n          dup1\n            /* \"Dinsey/ERC20.sol\":2602:2614  totalSupply_ */\n          0x02\n          0x00\n            /* \"Dinsey/ERC20.sol\":2602:2633  totalSupply_ += newTokensAmount */\n          dup3\n          dup3\n          sload\n          tag_62\n          swap2\n          swap1\n          tag_63\n          jump\t// in\n        tag_62:\n          swap3\n          pop\n          pop\n          dup2\n          swap1\n          sstore\n          pop\n            /* \"Dinsey/ERC20.sol\":2668:2683  newTokensAmount */\n          dup1\n            /* \"Dinsey/ERC20.sol\":2644:2652  balances */\n          0x00\n            /* \"Dinsey/ERC20.sol\":2644:2664  balances[msg.sender] */\n          dup1\n            /* \"Dinsey/ERC20.sol\":2653:2663  msg.sender */\n          caller\n            /* \"Dinsey/ERC20.sol\":2644:2664  balances[msg.sender] */\n          0xffffffffffffffffffffffffffffffffffffffff\n          and\n          0xffffffffffffffffffffffffffffffffffffffff\n          and\n          dup2\n          mstore\n          0x20\n          add\n          swap1\n          dup2\n          mstore\n          0x20\n          add\n          0x00\n          keccak256\n          0x00\n            /* \"Dinsey/ERC20.sol\":2644:2683  balances[msg.sender] += newTokensAmount */\n          dup3\n          dup3\n          sload\n          tag_64\n          swap2\n          swap1\n          tag_63\n          jump\t// in\n        tag_64:\n          swap3\n          pop\n          pop\n          dup2\n          swap1\n          sstore\n          pop\n            /* \"Dinsey/ERC20.sol\":2533:2691  function increaseTotalSupply(uint newTokensAmount) public {\r... */\n          pop\n          jump\t// out\n            /* \"Dinsey/ERC20.sol\":3579:4067  function transferFrom(address owner, address buyer, uint256 numTokens) public override returns(bool){\r... */\n        tag_35:\n            /* \"Dinsey/ERC20.sol\":3674:3678  bool */\n          0x00\n            /* \"Dinsey/ERC20.sol\":3712:3720  balances */\n          dup1\n            /* \"Dinsey/ERC20.sol\":3712:3727  balances[owner] */\n          0x00\n            /* \"Dinsey/ERC20.sol\":3721:3726  owner */\n          dup6\n            /* \"Dinsey/ERC20.sol\":3712:3727  balances[owner] */\n          0xffffffffffffffffffffffffffffffffffffffff\n          and\n          0xffffffffffffffffffffffffffffffffffffffff\n          and\n          dup2\n          mstore\n          0x20\n          add\n          swap1\n          dup2\n          mstore\n          0x20\n          add\n          0x00\n          keccak256\n          sload\n            /* \"Dinsey/ERC20.sol\":3699:3708  numTokens */\n          dup3\n            /* \"Dinsey/ERC20.sol\":3699:3727  numTokens <= balances[owner] */\n          gt\n          iszero\n            /* \"Dinsey/ERC20.sol\":3690:3728  require( numTokens <= balances[owner]) */\n          tag_66\n          jumpi\n          0x00\n          dup1\n          revert\n        tag_66:\n            /* \"Dinsey/ERC20.sol\":3760:3767  allowed */\n          0x01\n            /* \"Dinsey/ERC20.sol\":3760:3774  allowed[owner] */\n          0x00\n            /* \"Dinsey/ERC20.sol\":3768:3773  owner */\n          dup6\n            /* \"Dinsey/ERC20.sol\":3760:3774  allowed[owner] */\n          0xffffffffffffffffffffffffffffffffffffffff\n          and\n          0xffffffffffffffffffffffffffffffffffffffff\n          and\n          dup2\n          mstore\n          0x20\n          add\n          swap1\n          dup2\n          mstore\n          0x20\n          add\n          0x00\n          keccak256\n            /* \"Dinsey/ERC20.sol\":3760:3786  allowed[owner][msg.sender] */\n          0x00\n            /* \"Dinsey/ERC20.sol\":3775:3785  msg.sender */\n          caller\n            /* \"Dinsey/ERC20.sol\":3760:3786  allowed[owner][msg.sender] */\n          0xffffffffffffffffffffffffffffffffffffffff\n          and\n          0xffffffffffffffffffffffffffffffffffffffff\n          and\n          dup2\n          mstore\n          0x20\n          add\n          swap1\n          dup2\n          mstore\n          0x20\n          add\n          0x00\n          keccak256\n          sload\n            /* \"Dinsey/ERC20.sol\":3747:3756  numTokens */\n          dup3\n            /* \"Dinsey/ERC20.sol\":3747:3786  numTokens <= allowed[owner][msg.sender] */\n          gt\n          iszero\n            /* \"Dinsey/ERC20.sol\":3739:3787  require(numTokens <= allowed[owner][msg.sender]) */\n          tag_67\n          jumpi\n          0x00\n          dup1\n          revert\n        tag_67:\n            /* \"Dinsey/ERC20.sol\":3818:3848  balances[owner].sub(numTokens) */\n          tag_68\n            /* \"Dinsey/ERC20.sol\":3838:3847  numTokens */\n          dup3\n            /* \"Dinsey/ERC20.sol\":3818:3826  balances */\n          0x00\n            /* \"Dinsey/ERC20.sol\":3818:3833  balances[owner] */\n          dup1\n            /* \"Dinsey/ERC20.sol\":3827:3832  owner */\n          dup8\n            /* \"Dinsey/ERC20.sol\":3818:3833  balances[owner] */\n          0xffffffffffffffffffffffffffffffffffffffff\n          and\n          0xffffffffffffffffffffffffffffffffffffffff\n          and\n          dup2\n          mstore\n          0x20\n          add\n          swap1\n          dup2\n          mstore\n          0x20\n          add\n          0x00\n          keccak256\n          sload\n            /* \"Dinsey/ERC20.sol\":3818:3837  balances[owner].sub */\n          tag_69\n          swap1\n            /* \"Dinsey/ERC20.sol\":3818:3848  balances[owner].sub(numTokens) */\n          swap2\n          swap1\n          0xffffffff\n          and\n          jump\t// in\n        tag_68:\n            /* \"Dinsey/ERC20.sol\":3800:3808  balances */\n          0x00\n            /* \"Dinsey/ERC20.sol\":3800:3815  balances[owner] */\n          dup1\n            /* \"Dinsey/ERC20.sol\":3809:3814  owner */\n          dup7\n            /* \"Dinsey/ERC20.sol\":3800:3815  balances[owner] */\n          0xffffffffffffffffffffffffffffffffffffffff\n          and\n          0xffffffffffffffffffffffffffffffffffffffff\n          and\n          dup2\n          mstore\n          0x20\n          add\n          swap1\n          dup2\n          mstore\n          0x20\n          add\n          0x00\n          keccak256\n            /* \"Dinsey/ERC20.sol\":3800:3848  balances[owner] = balances[owner].sub(numTokens) */\n          dup2\n          swap1\n          sstore\n          pop\n            /* \"Dinsey/ERC20.sol\":3888:3929  allowed[owner][msg.sender].sub(numTokens) */\n          tag_70\n            /* \"Dinsey/ERC20.sol\":3919:3928  numTokens */\n          dup3\n            /* \"Dinsey/ERC20.sol\":3888:3895  allowed */\n          0x01\n            /* \"Dinsey/ERC20.sol\":3888:3902  allowed[owner] */\n          0x00\n            /* \"Dinsey/ERC20.sol\":3896:3901  owner */\n          dup8\n            /* \"Dinsey/ERC20.sol\":3888:3902  allowed[owner] */\n          0xffffffffffffffffffffffffffffffffffffffff\n          and\n          0xffffffffffffffffffffffffffffffffffffffff\n          and\n          dup2\n          mstore\n          0x20\n          add\n          swap1\n          dup2\n          mstore\n          0x20\n          add\n          0x00\n          keccak256\n            /* \"Dinsey/ERC20.sol\":3888:3914  allowed[owner][msg.sender] */\n          0x00\n            /* \"Dinsey/ERC20.sol\":3903:3913  msg.sender */\n          caller\n            /* \"Dinsey/ERC20.sol\":3888:3914  allowed[owner][msg.sender] */\n          0xffffffffffffffffffffffffffffffffffffffff\n          and\n          0xffffffffffffffffffffffffffffffffffffffff\n          and\n          dup2\n          mstore\n          0x20\n          add\n          swap1\n          dup2\n          mstore\n          0x20\n          add\n          0x00\n          keccak256\n          sload\n            /* \"Dinsey/ERC20.sol\":3888:3918  allowed[owner][msg.sender].sub */\n          tag_69\n          swap1\n            /* \"Dinsey/ERC20.sol\":3888:3929  allowed[owner][msg.sender].sub(numTokens) */\n          swap2\n          swap1\n          0xffffffff\n          and\n          jump\t// in\n        tag_70:\n            /* \"Dinsey/ERC20.sol\":3859:3866  allowed */\n          0x01\n            /* \"Dinsey/ERC20.sol\":3859:3873  allowed[owner] */\n          0x00\n            /* \"Dinsey/ERC20.sol\":3867:3872  owner */\n          dup7\n            /* \"Dinsey/ERC20.sol\":3859:3873  allowed[owner] */\n          0xffffffffffffffffffffffffffffffffffffffff\n          and\n          0xffffffffffffffffffffffffffffffffffffffff\n          and\n          dup2\n          mstore\n          0x20\n          add\n          swap1\n          dup2\n          mstore\n          0x20\n          add\n          0x00\n          keccak256\n            /* \"Dinsey/ERC20.sol\":3859:3885  allowed[owner][msg.sender] */\n          0x00\n            /* \"Dinsey/ERC20.sol\":3874:3884  msg.sender */\n          caller\n            /* \"Dinsey/ERC20.sol\":3859:3885  allowed[owner][msg.sender] */\n          0xffffffffffffffffffffffffffffffffffffffff\n          and\n          0xffffffffffffffffffffffffffffffffffffffff\n          and\n          dup2\n          mstore\n          0x20\n          add\n          swap1\n          dup2\n          mstore\n          0x20\n          add\n          0x00\n          keccak256\n            /* \"Dinsey/ERC20.sol\":3859:3929  allowed[owner][msg.sender] = allowed[owner][msg.sender].sub(numTokens) */\n          dup2\n          swap1\n          sstore\n          pop\n            /* \"Dinsey/ERC20.sol\":3958:3988  balances[buyer].add(numTokens) */\n          tag_71\n            /* \"Dinsey/ERC20.sol\":3978:3987  numTokens */\n          dup3\n            /* \"Dinsey/ERC20.sol\":3958:3966  balances */\n          0x00\n            /* \"Dinsey/ERC20.sol\":3958:3973  balances[buyer] */\n          dup1\n            /* \"Dinsey/ERC20.sol\":3967:3972  buyer */\n          dup7\n            /* \"Dinsey/ERC20.sol\":3958:3973  balances[buyer] */\n          0xffffffffffffffffffffffffffffffffffffffff\n          and\n          0xffffffffffffffffffffffffffffffffffffffff\n          and\n          dup2\n          mstore\n          0x20\n          add\n          swap1\n          dup2\n          mstore\n          0x20\n          add\n          0x00\n          keccak256\n          sload\n            /* \"Dinsey/ERC20.sol\":3958:3977  balances[buyer].add */\n          tag_72\n          swap1\n            /* \"Dinsey/ERC20.sol\":3958:3988  balances[buyer].add(numTokens) */\n          swap2\n          swap1\n          0xffffffff\n          and\n          jump\t// in\n        tag_71:\n            /* \"Dinsey/ERC20.sol\":3940:3948  balances */\n          0x00\n            /* \"Dinsey/ERC20.sol\":3940:3955  balances[buyer] */\n          dup1\n            /* \"Dinsey/ERC20.sol\":3949:3954  buyer */\n          dup6\n            /* \"Dinsey/ERC20.sol\":3940:3955  balances[buyer] */\n          0xffffffffffffffffffffffffffffffffffffffff\n          and\n          0xffffffffffffffffffffffffffffffffffffffff\n          and\n          dup2\n          mstore\n          0x20\n          add\n          swap1\n          dup2\n          mstore\n          0x20\n          add\n          0x00\n          keccak256\n            /* \"Dinsey/ERC20.sol\":3940:3988  balances[buyer] = balances[buyer].add(numTokens) */\n          dup2\n          swap1\n          sstore\n          pop\n            /* \"Dinsey/ERC20.sol\":4020:4025  buyer */\n          dup3\n            /* \"Dinsey/ERC20.sol\":4004:4037  Transfer(owner, buyer, numTokens) */\n          0xffffffffffffffffffffffffffffffffffffffff\n          and\n            /* \"Dinsey/ERC20.sol\":4013:4018  owner */\n          dup5\n            /* \"Dinsey/ERC20.sol\":4004:4037  Transfer(owner, buyer, numTokens) */\n          0xffffffffffffffffffffffffffffffffffffffff\n          and\n          0xddf252ad1be2c89b69c2b068fc378daa952ba7f163c4a11628f55a4df523b3ef\n            /* \"Dinsey/ERC20.sol\":4027:4036  numTokens */\n          dup5\n            /* \"Dinsey/ERC20.sol\":4004:4037  Transfer(owner, buyer, numTokens) */\n          mload(0x40)\n          tag_73\n          swap2\n          swap1\n          tag_27\n          jump\t// in\n        tag_73:\n          mload(0x40)\n          dup1\n          swap2\n          sub\n          swap1\n          log3\n            /* \"Dinsey/ERC20.sol\":4055:4059  true */\n          0x01\n            /* \"Dinsey/ERC20.sol\":4048:4059  return true */\n          swap1\n          pop\n            /* \"Dinsey/ERC20.sol\":3579:4067  function transferFrom(address owner, address buyer, uint256 numTokens) public override returns(bool){\r... */\n          swap4\n          swap3\n          pop\n          pop\n          pop\n          jump\t// out\n            /* \"Dinsey/ERC20.sol\":1905:1939  uint8 public constant decimals = 2 */\n        tag_38:\n            /* \"Dinsey/ERC20.sol\":1938:1939  2 */\n          0x02\n            /* \"Dinsey/ERC20.sol\":1905:1939  uint8 public constant decimals = 2 */\n          dup2\n          jump\t// out\n            /* \"Dinsey/ERC20.sol\":2699:2821  function balanceOf(address tokenOwner) public override view returns(uint256){\r... */\n        tag_44:\n            /* \"Dinsey/ERC20.sol\":2767:2774  uint256 */\n          0x00\n            /* \"Dinsey/ERC20.sol\":2793:2801  balances */\n          dup1\n            /* \"Dinsey/ERC20.sol\":2793:2813  balances[tokenOwner] */\n          0x00\n            /* \"Dinsey/ERC20.sol\":2802:2812  tokenOwner */\n          dup4\n            /* \"Dinsey/ERC20.sol\":2793:2813  balances[tokenOwner] */\n          0xffffffffffffffffffffffffffffffffffffffff\n          and\n          0xffffffffffffffffffffffffffffffffffffffff\n          and\n          dup2\n          mstore\n          0x20\n          add\n          swap1\n          dup2\n          mstore\n          0x20\n          add\n          0x00\n          keccak256\n          sload\n            /* \"Dinsey/ERC20.sol\":2786:2813  return balances[tokenOwner] */\n          swap1\n          pop\n            /* \"Dinsey/ERC20.sol\":2699:2821  function balanceOf(address tokenOwner) public override view returns(uint256){\r... */\n          swap2\n          swap1\n          pop\n          jump\t// out\n            /* \"Dinsey/ERC20.sol\":1861:1898  string public constant symbol = \"ERC\" */\n        tag_47:\n          mload(0x40)\n          dup1\n          0x40\n          add\n          0x40\n          mstore\n          dup1\n          0x03\n          dup2\n          mstore\n          0x20\n          add\n          0x4552430000000000000000000000000000000000000000000000000000000000\n          dup2\n          mstore\n          pop\n          dup2\n          jump\t// out\n            /* \"Dinsey/ERC20.sol\":2976:3339  function transfer( address recipient, uint256 numTokens) public override returns(bool){\r... */\n        tag_51:\n            /* \"Dinsey/ERC20.sol\":3057:3061  bool */\n          0x00\n            /* \"Dinsey/ERC20.sol\":3094:3102  balances */\n          dup1\n            /* \"Dinsey/ERC20.sol\":3094:3114  balances[msg.sender] */\n          0x00\n            /* \"Dinsey/ERC20.sol\":3103:3113  msg.sender */\n          caller\n            /* \"Dinsey/ERC20.sol\":3094:3114  balances[msg.sender] */\n          0xffffffffffffffffffffffffffffffffffffffff\n          and\n          0xffffffffffffffffffffffffffffffffffffffff\n          and\n          dup2\n          mstore\n          0x20\n          add\n          swap1\n          dup2\n          mstore\n          0x20\n          add\n          0x00\n          keccak256\n          sload\n            /* \"Dinsey/ERC20.sol\":3081:3090  numTokens */\n          dup3\n            /* \"Dinsey/ERC20.sol\":3081:3114  numTokens <= balances[msg.sender] */\n          gt\n          iszero\n            /* \"Dinsey/ERC20.sol\":3073:3115  require(numTokens <= balances[msg.sender]) */\n          tag_76\n          jumpi\n          0x00\n          dup1\n          revert\n        tag_76:\n            /* \"Dinsey/ERC20.sol\":3149:3184  balances[msg.sender].sub(numTokens) */\n          tag_77\n            /* \"Dinsey/ERC20.sol\":3174:3183  numTokens */\n          dup3\n            /* \"Dinsey/ERC20.sol\":3149:3157  balances */\n          0x00\n            /* \"Dinsey/ERC20.sol\":3149:3169  balances[msg.sender] */\n          dup1\n            /* \"Dinsey/ERC20.sol\":3158:3168  msg.sender */\n          caller\n            /* \"Dinsey/ERC20.sol\":3149:3169  balances[msg.sender] */\n          0xffffffffffffffffffffffffffffffffffffffff\n          and\n          0xffffffffffffffffffffffffffffffffffffffff\n          and\n          dup2\n          mstore\n          0x20\n          add\n          swap1\n          dup2\n          mstore\n          0x20\n          add\n          0x00\n          keccak256\n          sload\n            /* \"Dinsey/ERC20.sol\":3149:3173  balances[msg.sender].sub */\n          tag_69\n          swap1\n            /* \"Dinsey/ERC20.sol\":3149:3184  balances[msg.sender].sub(numTokens) */\n          swap2\n          swap1\n          0xffffffff\n          and\n          jump\t// in\n        tag_77:\n            /* \"Dinsey/ERC20.sol\":3126:3134  balances */\n          0x00\n            /* \"Dinsey/ERC20.sol\":3126:3146  balances[msg.sender] */\n          dup1\n            /* \"Dinsey/ERC20.sol\":3135:3145  msg.sender */\n          caller\n            /* \"Dinsey/ERC20.sol\":3126:3146  balances[msg.sender] */\n          0xffffffffffffffffffffffffffffffffffffffff\n          and\n          0xffffffffffffffffffffffffffffffffffffffff\n          and\n          dup2\n          mstore\n          0x20\n          add\n          swap1\n          dup2\n          mstore\n          0x20\n          add\n          0x00\n          keccak256\n            /* \"Dinsey/ERC20.sol\":3126:3184  balances[msg.sender] = balances[msg.sender].sub(numTokens) */\n          dup2\n          swap1\n          sstore\n          pop\n            /* \"Dinsey/ERC20.sol\":3217:3251  balances[recipient].add(numTokens) */\n          tag_78\n            /* \"Dinsey/ERC20.sol\":3241:3250  numTokens */\n          dup3\n            /* \"Dinsey/ERC20.sol\":3217:3225  balances */\n          0x00\n            /* \"Dinsey/ERC20.sol\":3217:3236  balances[recipient] */\n          dup1\n            /* \"Dinsey/ERC20.sol\":3226:3235  recipient */\n          dup7\n            /* \"Dinsey/ERC20.sol\":3217:3236  balances[recipient] */\n          0xffffffffffffffffffffffffffffffffffffffff\n          and\n          0xffffffffffffffffffffffffffffffffffffffff\n          and\n          dup2\n          mstore\n          0x20\n          add\n          swap1\n          dup2\n          mstore\n          0x20\n          add\n          0x00\n          keccak256\n          sload\n            /* \"Dinsey/ERC20.sol\":3217:3240  balances[recipient].add */\n          tag_72\n          swap1\n            /* \"Dinsey/ERC20.sol\":3217:3251  balances[recipient].add(numTokens) */\n          swap2\n          swap1\n          0xffffffff\n          and\n          jump\t// in\n        tag_78:\n            /* \"Dinsey/ERC20.sol\":3195:3203  balances */\n          0x00\n            /* \"Dinsey/ERC20.sol\":3195:3214  balances[recipient] */\n          dup1\n            /* \"Dinsey/ERC20.sol\":3204:3213  recipient */\n          dup6\n            /* \"Dinsey/ERC20.sol\":3195:3214  balances[recipient] */\n          0xffffffffffffffffffffffffffffffffffffffff\n          and\n          0xffffffffffffffffffffffffffffffffffffffff\n          and\n          dup2\n          mstore\n          0x20\n          add\n          swap1\n          dup2\n          mstore\n          0x20\n          add\n          0x00\n          keccak256\n            /* \"Dinsey/ERC20.sol\":3195:3251  balances[recipient] = balances[recipient].add(numTokens) */\n          dup2\n          swap1\n          sstore\n          pop\n            /* \"Dinsey/ERC20.sol\":3288:3297  recipient */\n          dup3\n            /* \"Dinsey/ERC20.sol\":3267:3309  Transfer(msg.sender, recipient, numTokens) */\n          0xffffffffffffffffffffffffffffffffffffffff\n          and\n            /* \"Dinsey/ERC20.sol\":3276:3286  msg.sender */\n          caller\n            /* \"Dinsey/ERC20.sol\":3267:3309  Transfer(msg.sender, recipient, numTokens) */\n          0xffffffffffffffffffffffffffffffffffffffff\n          and\n          0xddf252ad1be2c89b69c2b068fc378daa952ba7f163c4a11628f55a4df523b3ef\n            /* \"Dinsey/ERC20.sol\":3299:3308  numTokens */\n          dup5\n            /* \"Dinsey/ERC20.sol\":3267:3309  Transfer(msg.sender, recipient, numTokens) */\n          mload(0x40)\n          tag_79\n          swap2\n          swap1\n          tag_27\n          jump\t// in\n        tag_79:\n          mload(0x40)\n          dup1\n          swap2\n          sub\n          swap1\n          log3\n            /* \"Dinsey/ERC20.sol\":3327:3331  true */\n          0x01\n            /* \"Dinsey/ERC20.sol\":3320:3331  return true */\n          swap1\n          pop\n            /* \"Dinsey/ERC20.sol\":2976:3339  function transfer( address recipient, uint256 numTokens) public override returns(bool){\r... */\n          swap3\n          swap2\n          pop\n          pop\n          jump\t// out\n            /* \"Dinsey/ERC20.sol\":2829:2968  function allowance(address owner, address delegate) public override view returns(uint256){\r... */\n        tag_56:\n            /* \"Dinsey/ERC20.sol\":2910:2917  uint256 */\n          0x00\n            /* \"Dinsey/ERC20.sol\":2936:2943  allowed */\n          0x01\n            /* \"Dinsey/ERC20.sol\":2936:2950  allowed[owner] */\n          0x00\n            /* \"Dinsey/ERC20.sol\":2944:2949  owner */\n          dup5\n            /* \"Dinsey/ERC20.sol\":2936:2950  allowed[owner] */\n          0xffffffffffffffffffffffffffffffffffffffff\n          and\n          0xffffffffffffffffffffffffffffffffffffffff\n          and\n          dup2\n          mstore\n          0x20\n          add\n          swap1\n          dup2\n          mstore\n          0x20\n          add\n          0x00\n          keccak256\n            /* \"Dinsey/ERC20.sol\":2936:2960  allowed[owner][delegate] */\n          0x00\n            /* \"Dinsey/ERC20.sol\":2951:2959  delegate */\n          dup4\n            /* \"Dinsey/ERC20.sol\":2936:2960  allowed[owner][delegate] */\n          0xffffffffffffffffffffffffffffffffffffffff\n          and\n          0xffffffffffffffffffffffffffffffffffffffff\n          and\n          dup2\n          mstore\n          0x20\n          add\n          swap1\n          dup2\n          mstore\n          0x20\n          add\n          0x00\n          keccak256\n          sload\n            /* \"Dinsey/ERC20.sol\":2929:2960  return allowed[owner][delegate] */\n          swap1\n          pop\n            /* \"Dinsey/ERC20.sol\":2829:2968  function allowance(address owner, address delegate) public override view returns(uint256){\r... */\n          swap3\n          swap2\n          pop\n          pop\n          jump\t// out\n            /* \"Dinsey/SafeMath.sol\":318:437  function sub(uint256 a, uint256 b) internal pure returns (uint256) {\r... */\n        tag_69:\n            /* \"Dinsey/SafeMath.sol\":376:383  uint256 */\n          0x00\n            /* \"Dinsey/SafeMath.sol\":406:407  a */\n          dup3\n            /* \"Dinsey/SafeMath.sol\":401:402  b */\n          dup3\n            /* \"Dinsey/SafeMath.sol\":401:407  b <= a */\n          gt\n          iszero\n            /* \"Dinsey/SafeMath.sol\":394:408  assert(b <= a) */\n          tag_82\n          jumpi\n          tag_83\n          tag_84\n          jump\t// in\n        tag_83:\n        tag_82:\n            /* \"Dinsey/SafeMath.sol\":428:429  b */\n          dup2\n            /* \"Dinsey/SafeMath.sol\":424:425  a */\n          dup4\n            /* \"Dinsey/SafeMath.sol\":424:429  a - b */\n          tag_85\n          swap2\n          swap1\n          tag_86\n          jump\t// in\n        tag_85:\n            /* \"Dinsey/SafeMath.sol\":417:429  return a - b */\n          swap1\n          pop\n            /* \"Dinsey/SafeMath.sol\":318:437  function sub(uint256 a, uint256 b) internal pure returns (uint256) {\r... */\n          swap3\n          swap2\n          pop\n          pop\n          jump\t// out\n            /* \"Dinsey/SafeMath.sol\":463:604  function add(uint256 a, uint256 b) internal pure returns (uint256) {\r... */\n        tag_72:\n            /* \"Dinsey/SafeMath.sol\":521:528  uint256 */\n          0x00\n            /* \"Dinsey/SafeMath.sol\":539:548  uint256 c */\n          dup1\n            /* \"Dinsey/SafeMath.sol\":555:556  b */\n          dup3\n            /* \"Dinsey/SafeMath.sol\":551:552  a */\n          dup5\n            /* \"Dinsey/SafeMath.sol\":551:556  a + b */\n          tag_88\n          swap2\n          swap1\n          tag_63\n          jump\t// in\n        tag_88:\n            /* \"Dinsey/SafeMath.sol\":539:556  uint256 c = a + b */\n          swap1\n          pop\n            /* \"Dinsey/SafeMath.sol\":577:578  a */\n          dup4\n            /* \"Dinsey/SafeMath.sol\":572:573  c */\n          dup2\n            /* \"Dinsey/SafeMath.sol\":572:578  c >= a */\n          lt\n          iszero\n            /* \"Dinsey/SafeMath.sol\":565:579  assert(c >= a) */\n          tag_89\n          jumpi\n          tag_90\n          tag_84\n          jump\t// in\n        tag_90:\n        tag_89:\n            /* \"Dinsey/SafeMath.sol\":595:596  c */\n          dup1\n            /* \"Dinsey/SafeMath.sol\":588:596  return c */\n          swap2\n          pop\n          pop\n            /* \"Dinsey/SafeMath.sol\":463:604  function add(uint256 a, uint256 b) internal pure returns (uint256) {\r... */\n          swap3\n          swap2\n          pop\n          pop\n          jump\t// out\n            /* \"#utility.yul\":7:146   */\n        tag_92:\n            /* \"#utility.yul\":53:58   */\n          0x00\n            /* \"#utility.yul\":91:97   */\n          dup2\n            /* \"#utility.yul\":78:98   */\n          calldataload\n            /* \"#utility.yul\":69:98   */\n          swap1\n          pop\n            /* \"#utility.yul\":107:140   */\n          tag_94\n            /* \"#utility.yul\":134:139   */\n          dup2\n            /* \"#utility.yul\":107:140   */\n          tag_95\n          jump\t// in\n        tag_94:\n            /* \"#utility.yul\":7:146   */\n          swap3\n          swap2\n          pop\n          pop\n          jump\t// out\n            /* \"#utility.yul\":152:291   */\n        tag_96:\n            /* \"#utility.yul\":198:203   */\n          0x00\n            /* \"#utility.yul\":236:242   */\n          dup2\n            /* \"#utility.yul\":223:243   */\n          calldataload\n            /* \"#utility.yul\":214:243   */\n          swap1\n          pop\n            /* \"#utility.yul\":252:285   */\n          tag_98\n            /* \"#utility.yul\":279:284   */\n          dup2\n            /* \"#utility.yul\":252:285   */\n          tag_99\n          jump\t// in\n        tag_98:\n            /* \"#utility.yul\":152:291   */\n          swap3\n          swap2\n          pop\n          pop\n          jump\t// out\n            /* \"#utility.yul\":297:626   */\n        tag_43:\n            /* \"#utility.yul\":356:362   */\n          0x00\n            /* \"#utility.yul\":405:407   */\n          0x20\n            /* \"#utility.yul\":393:402   */\n          dup3\n            /* \"#utility.yul\":384:391   */\n          dup5\n            /* \"#utility.yul\":380:403   */\n          sub\n            /* \"#utility.yul\":376:408   */\n          slt\n            /* \"#utility.yul\":373:492   */\n          iszero\n          tag_101\n          jumpi\n            /* \"#utility.yul\":411:490   */\n          tag_102\n          tag_103\n          jump\t// in\n        tag_102:\n            /* \"#utility.yul\":373:492   */\n        tag_101:\n            /* \"#utility.yul\":531:532   */\n          0x00\n            /* \"#utility.yul\":556:609   */\n          tag_104\n            /* \"#utility.yul\":601:608   */\n          dup5\n            /* \"#utility.yul\":592:598   */\n          dup3\n            /* \"#utility.yul\":581:590   */\n          dup6\n            /* \"#utility.yul\":577:599   */\n          add\n            /* \"#utility.yul\":556:609   */\n          tag_92\n          jump\t// in\n        tag_104:\n            /* \"#utility.yul\":546:609   */\n          swap2\n          pop\n            /* \"#utility.yul\":502:619   */\n          pop\n            /* \"#utility.yul\":297:626   */\n          swap3\n          swap2\n          pop\n          pop\n          jump\t// out\n            /* \"#utility.yul\":632:1106   */\n        tag_55:\n            /* \"#utility.yul\":700:706   */\n          0x00\n            /* \"#utility.yul\":708:714   */\n          dup1\n            /* \"#utility.yul\":757:759   */\n          0x40\n            /* \"#utility.yul\":745:754   */\n          dup4\n            /* \"#utility.yul\":736:743   */\n          dup6\n            /* \"#utility.yul\":732:755   */\n          sub\n            /* \"#utility.yul\":728:760   */\n          slt\n            /* \"#utility.yul\":725:844   */\n          iszero\n          tag_106\n          jumpi\n            /* \"#utility.yul\":763:842   */\n          tag_107\n          tag_103\n          jump\t// in\n        tag_107:\n            /* \"#utility.yul\":725:844   */\n        tag_106:\n            /* \"#utility.yul\":883:884   */\n          0x00\n            /* \"#utility.yul\":908:961   */\n          tag_108\n            /* \"#utility.yul\":953:960   */\n          dup6\n            /* \"#utility.yul\":944:950   */\n          dup3\n            /* \"#utility.yul\":933:942   */\n          dup7\n            /* \"#utility.yul\":929:951   */\n          add\n            /* \"#utility.yul\":908:961   */\n          tag_92\n          jump\t// in\n        tag_108:\n            /* \"#utility.yul\":898:961   */\n          swap3\n          pop\n            /* \"#utility.yul\":854:971   */\n          pop\n            /* \"#utility.yul\":1010:1012   */\n          0x20\n            /* \"#utility.yul\":1036:1089   */\n          tag_109\n            /* \"#utility.yul\":1081:1088   */\n          dup6\n            /* \"#utility.yul\":1072:1078   */\n          dup3\n            /* \"#utility.yul\":1061:1070   */\n          dup7\n            /* \"#utility.yul\":1057:1079   */\n          add\n            /* \"#utility.yul\":1036:1089   */\n          tag_92\n          jump\t// in\n        tag_109:\n            /* \"#utility.yul\":1026:1089   */\n          swap2\n          pop\n            /* \"#utility.yul\":981:1099   */\n          pop\n            /* \"#utility.yul\":632:1106   */\n          swap3\n          pop\n          swap3\n          swap1\n          pop\n          jump\t// out\n            /* \"#utility.yul\":1112:1731   */\n        tag_34:\n            /* \"#utility.yul\":1189:1195   */\n          0x00\n            /* \"#utility.yul\":1197:1203   */\n          dup1\n            /* \"#utility.yul\":1205:1211   */\n          0x00\n            /* \"#utility.yul\":1254:1256   */\n          0x60\n            /* \"#utility.yul\":1242:1251   */\n          dup5\n            /* \"#utility.yul\":1233:1240   */\n          dup7\n            /* \"#utility.yul\":1229:1252   */\n          sub\n            /* \"#utility.yul\":1225:1257   */\n          slt\n            /* \"#utility.yul\":1222:1341   */\n          iszero\n          tag_111\n          jumpi\n            /* \"#utility.yul\":1260:1339   */\n          tag_112\n          tag_103\n          jump\t// in\n        tag_112:\n            /* \"#utility.yul\":1222:1341   */\n        tag_111:\n            /* \"#utility.yul\":1380:1381   */\n          0x00\n            /* \"#utility.yul\":1405:1458   */\n          tag_113\n            /* \"#utility.yul\":1450:1457   */\n          dup7\n            /* \"#utility.yul\":1441:1447   */\n          dup3\n            /* \"#utility.yul\":1430:1439   */\n          dup8\n            /* \"#utility.yul\":1426:1448   */\n          add\n            /* \"#utility.yul\":1405:1458   */\n          tag_92\n          jump\t// in\n        tag_113:\n            /* \"#utility.yul\":1395:1458   */\n          swap4\n          pop\n            /* \"#utility.yul\":1351:1468   */\n          pop\n            /* \"#utility.yul\":1507:1509   */\n          0x20\n            /* \"#utility.yul\":1533:1586   */\n          tag_114\n            /* \"#utility.yul\":1578:1585   */\n          dup7\n            /* \"#utility.yul\":1569:1575   */\n          dup3\n            /* \"#utility.yul\":1558:1567   */\n          dup8\n            /* \"#utility.yul\":1554:1576   */\n          add\n            /* \"#utility.yul\":1533:1586   */\n          tag_92\n          jump\t// in\n        tag_114:\n            /* \"#utility.yul\":1523:1586   */\n          swap3\n          pop\n            /* \"#utility.yul\":1478:1596   */\n          pop\n            /* \"#utility.yul\":1635:1637   */\n          0x40\n            /* \"#utility.yul\":1661:1714   */\n          tag_115\n            /* \"#utility.yul\":1706:1713   */\n          dup7\n            /* \"#utility.yul\":1697:1703   */\n          dup3\n            /* \"#utility.yul\":1686:1695   */\n          dup8\n            /* \"#utility.yul\":1682:1704   */\n          add\n            /* \"#utility.yul\":1661:1714   */\n          tag_96\n          jump\t// in\n        tag_115:\n            /* \"#utility.yul\":1651:1714   */\n          swap2\n          pop\n            /* \"#utility.yul\":1606:1724   */\n          pop\n            /* \"#utility.yul\":1112:1731   */\n          swap3\n          pop\n          swap3\n          pop\n          swap3\n          jump\t// out\n            /* \"#utility.yul\":1737:2211   */\n        tag_20:\n            /* \"#utility.yul\":1805:1811   */\n          0x00\n            /* \"#utility.yul\":1813:1819   */\n          dup1\n            /* \"#utility.yul\":1862:1864   */\n          0x40\n            /* \"#utility.yul\":1850:1859   */\n          dup4\n            /* \"#utility.yul\":1841:1848   */\n          dup6\n            /* \"#utility.yul\":1837:1860   */\n          sub\n            /* \"#utility.yul\":1833:1865   */\n          slt\n            /* \"#utility.yul\":1830:1949   */\n          iszero\n          tag_117\n          jumpi\n            /* \"#utility.yul\":1868:1947   */\n          tag_118\n          tag_103\n          jump\t// in\n        tag_118:\n            /* \"#utility.yul\":1830:1949   */\n        tag_117:\n            /* \"#utility.yul\":1988:1989   */\n          0x00\n            /* \"#utility.yul\":2013:2066   */\n          tag_119\n            /* \"#utility.yul\":2058:2065   */\n          dup6\n            /* \"#utility.yul\":2049:2055   */\n          dup3\n            /* \"#utility.yul\":2038:2047   */\n          dup7\n            /* \"#utility.yul\":2034:2056   */\n          add\n            /* \"#utility.yul\":2013:2066   */\n          tag_92\n          jump\t// in\n        tag_119:\n            /* \"#utility.yul\":2003:2066   */\n          swap3\n          pop\n            /* \"#utility.yul\":1959:2076   */\n          pop\n            /* \"#utility.yul\":2115:2117   */\n          0x20\n            /* \"#utility.yul\":2141:2194   */\n          tag_120\n            /* \"#utility.yul\":2186:2193   */\n          dup6\n            /* \"#utility.yul\":2177:2183   */\n          dup3\n            /* \"#utility.yul\":2166:2175   */\n          dup7\n            /* \"#utility.yul\":2162:2184   */\n          add\n            /* \"#utility.yul\":2141:2194   */\n          tag_96\n          jump\t// in\n        tag_120:\n            /* \"#utility.yul\":2131:2194   */\n          swap2\n          pop\n            /* \"#utility.yul\":2086:2204   */\n          pop\n            /* \"#utility.yul\":1737:2211   */\n          swap3\n          pop\n          swap3\n          swap1\n          pop\n          jump\t// out\n            /* \"#utility.yul\":2217:2546   */\n        tag_30:\n            /* \"#utility.yul\":2276:2282   */\n          0x00\n            /* \"#utility.yul\":2325:2327   */\n          0x20\n            /* \"#utility.yul\":2313:2322   */\n          dup3\n            /* \"#utility.yul\":2304:2311   */\n          dup5\n            /* \"#utility.yul\":2300:2323   */\n          sub\n            /* \"#utility.yul\":2296:2328   */\n          slt\n            /* \"#utility.yul\":2293:2412   */\n          iszero\n          tag_122\n          jumpi\n            /* \"#utility.yul\":2331:2410   */\n          tag_123\n          tag_103\n          jump\t// in\n        tag_123:\n            /* \"#utility.yul\":2293:2412   */\n        tag_122:\n            /* \"#utility.yul\":2451:2452   */\n          0x00\n            /* \"#utility.yul\":2476:2529   */\n          tag_124\n            /* \"#utility.yul\":2521:2528   */\n          dup5\n            /* \"#utility.yul\":2512:2518   */\n          dup3\n            /* \"#utility.yul\":2501:2510   */\n          dup6\n            /* \"#utility.yul\":2497:2519   */\n          add\n            /* \"#utility.yul\":2476:2529   */\n          tag_96\n          jump\t// in\n        tag_124:\n            /* \"#utility.yul\":2466:2529   */\n          swap2\n          pop\n            /* \"#utility.yul\":2422:2539   */\n          pop\n            /* \"#utility.yul\":2217:2546   */\n          swap3\n          swap2\n          pop\n          pop\n          jump\t// out\n            /* \"#utility.yul\":2552:2661   */\n        tag_125:\n            /* \"#utility.yul\":2633:2654   */\n          tag_127\n            /* \"#utility.yul\":2648:2653   */\n          dup2\n            /* \"#utility.yul\":2633:2654   */\n          tag_128\n          jump\t// in\n        tag_127:\n            /* \"#utility.yul\":2628:2631   */\n          dup3\n            /* \"#utility.yul\":2621:2655   */\n          mstore\n            /* \"#utility.yul\":2552:2661   */\n          pop\n          pop\n          jump\t// out\n            /* \"#utility.yul\":2667:3031   */\n        tag_129:\n            /* \"#utility.yul\":2755:2758   */\n          0x00\n            /* \"#utility.yul\":2783:2822   */\n          tag_131\n            /* \"#utility.yul\":2816:2821   */\n          dup3\n            /* \"#utility.yul\":2783:2822   */\n          tag_132\n          jump\t// in\n        tag_131:\n            /* \"#utility.yul\":2838:2909   */\n          tag_133\n            /* \"#utility.yul\":2902:2908   */\n          dup2\n            /* \"#utility.yul\":2897:2900   */\n          dup6\n            /* \"#utility.yul\":2838:2909   */\n          tag_134\n          jump\t// in\n        tag_133:\n            /* \"#utility.yul\":2831:2909   */\n          swap4\n          pop\n            /* \"#utility.yul\":2918:2970   */\n          tag_135\n            /* \"#utility.yul\":2963:2969   */\n          dup2\n            /* \"#utility.yul\":2958:2961   */\n          dup6\n            /* \"#utility.yul\":2951:2955   */\n          0x20\n            /* \"#utility.yul\":2944:2949   */\n          dup7\n            /* \"#utility.yul\":2940:2956   */\n          add\n            /* \"#utility.yul\":2918:2970   */\n          tag_136\n          jump\t// in\n        tag_135:\n            /* \"#utility.yul\":2995:3024   */\n          tag_137\n            /* \"#utility.yul\":3017:3023   */\n          dup2\n            /* \"#utility.yul\":2995:3024   */\n          tag_138\n          jump\t// in\n        tag_137:\n            /* \"#utility.yul\":2990:2993   */\n          dup5\n            /* \"#utility.yul\":2986:3025   */\n          add\n            /* \"#utility.yul\":2979:3025   */\n          swap2\n          pop\n            /* \"#utility.yul\":2759:3031   */\n          pop\n            /* \"#utility.yul\":2667:3031   */\n          swap3\n          swap2\n          pop\n          pop\n          jump\t// out\n            /* \"#utility.yul\":3037:3155   */\n        tag_139:\n            /* \"#utility.yul\":3124:3148   */\n          tag_141\n            /* \"#utility.yul\":3142:3147   */\n          dup2\n            /* \"#utility.yul\":3124:3148   */\n          tag_142\n          jump\t// in\n        tag_141:\n            /* \"#utility.yul\":3119:3122   */\n          dup3\n            /* \"#utility.yul\":3112:3149   */\n          mstore\n            /* \"#utility.yul\":3037:3155   */\n          pop\n          pop\n          jump\t// out\n            /* \"#utility.yul\":3161:3273   */\n        tag_143:\n            /* \"#utility.yul\":3244:3266   */\n          tag_145\n            /* \"#utility.yul\":3260:3265   */\n          dup2\n            /* \"#utility.yul\":3244:3266   */\n          tag_146\n          jump\t// in\n        tag_145:\n            /* \"#utility.yul\":3239:3242   */\n          dup3\n            /* \"#utility.yul\":3232:3267   */\n          mstore\n            /* \"#utility.yul\":3161:3273   */\n          pop\n          pop\n          jump\t// out\n            /* \"#utility.yul\":3279:3489   */\n        tag_23:\n            /* \"#utility.yul\":3366:3370   */\n          0x00\n            /* \"#utility.yul\":3404:3406   */\n          0x20\n            /* \"#utility.yul\":3393:3402   */\n          dup3\n            /* \"#utility.yul\":3389:3407   */\n          add\n            /* \"#utility.yul\":3381:3407   */\n          swap1\n          pop\n            /* \"#utility.yul\":3417:3482   */\n          tag_148\n            /* \"#utility.yul\":3479:3480   */\n          0x00\n            /* \"#utility.yul\":3468:3477   */\n          dup4\n            /* \"#utility.yul\":3464:3481   */\n          add\n            /* \"#utility.yul\":3455:3461   */\n          dup5\n            /* \"#utility.yul\":3417:3482   */\n          tag_125\n          jump\t// in\n        tag_148:\n            /* \"#utility.yul\":3279:3489   */\n          swap3\n          swap2\n          pop\n          pop\n          jump\t// out\n            /* \"#utility.yul\":3495:3808   */\n        tag_17:\n            /* \"#utility.yul\":3608:3612   */\n          0x00\n            /* \"#utility.yul\":3646:3648   */\n          0x20\n            /* \"#utility.yul\":3635:3644   */\n          dup3\n            /* \"#utility.yul\":3631:3649   */\n          add\n            /* \"#utility.yul\":3623:3649   */\n          swap1\n          pop\n            /* \"#utility.yul\":3695:3704   */\n          dup2\n            /* \"#utility.yul\":3689:3693   */\n          dup2\n            /* \"#utility.yul\":3685:3705   */\n          sub\n            /* \"#utility.yul\":3681:3682   */\n          0x00\n            /* \"#utility.yul\":3670:3679   */\n          dup4\n            /* \"#utility.yul\":3666:3683   */\n          add\n            /* \"#utility.yul\":3659:3706   */\n          mstore\n            /* \"#utility.yul\":3723:3801   */\n          tag_150\n            /* \"#utility.yul\":3796:3800   */\n          dup2\n            /* \"#utility.yul\":3787:3793   */\n          dup5\n            /* \"#utility.yul\":3723:3801   */\n          tag_129\n          jump\t// in\n        tag_150:\n            /* \"#utility.yul\":3715:3801   */\n          swap1\n          pop\n            /* \"#utility.yul\":3495:3808   */\n          swap3\n          swap2\n          pop\n          pop\n          jump\t// out\n            /* \"#utility.yul\":3814:4036   */\n        tag_27:\n            /* \"#utility.yul\":3907:3911   */\n          0x00\n            /* \"#utility.yul\":3945:3947   */\n          0x20\n            /* \"#utility.yul\":3934:3943   */\n          dup3\n            /* \"#utility.yul\":3930:3948   */\n          add\n            /* \"#utility.yul\":3922:3948   */\n          swap1\n          pop\n            /* \"#utility.yul\":3958:4029   */\n          tag_152\n            /* \"#utility.yul\":4026:4027   */\n          0x00\n            /* \"#utility.yul\":4015:4024   */\n          dup4\n            /* \"#utility.yul\":4011:4028   */\n          add\n            /* \"#utility.yul\":4002:4008   */\n          dup5\n            /* \"#utility.yul\":3958:4029   */\n          tag_139\n          jump\t// in\n        tag_152:\n            /* \"#utility.yul\":3814:4036   */\n          swap3\n          swap2\n          pop\n          pop\n          jump\t// out\n            /* \"#utility.yul\":4042:4256   */\n        tag_40:\n            /* \"#utility.yul\":4131:4135   */\n          0x00\n            /* \"#utility.yul\":4169:4171   */\n          0x20\n            /* \"#utility.yul\":4158:4167   */\n          dup3\n            /* \"#utility.yul\":4154:4172   */\n          add\n            /* \"#utility.yul\":4146:4172   */\n          swap1\n          pop\n            /* \"#utility.yul\":4182:4249   */\n          tag_154\n            /* \"#utility.yul\":4246:4247   */\n          0x00\n            /* \"#utility.yul\":4235:4244   */\n          dup4\n            /* \"#utility.yul\":4231:4248   */\n          add\n            /* \"#utility.yul\":4222:4228   */\n          dup5\n            /* \"#utility.yul\":4182:4249   */\n          tag_143\n          jump\t// in\n        tag_154:\n            /* \"#utility.yul\":4042:4256   */\n          swap3\n          swap2\n          pop\n          pop\n          jump\t// out\n            /* \"#utility.yul\":4343:4442   */\n        tag_132:\n            /* \"#utility.yul\":4395:4401   */\n          0x00\n            /* \"#utility.yul\":4429:4434   */\n          dup2\n            /* \"#utility.yul\":4423:4435   */\n          mload\n            /* \"#utility.yul\":4413:4435   */\n          swap1\n          pop\n            /* \"#utility.yul\":4343:4442   */\n          swap2\n          swap1\n          pop\n          jump\t// out\n            /* \"#utility.yul\":4448:4617   */\n        tag_134:\n            /* \"#utility.yul\":4532:4543   */\n          0x00\n            /* \"#utility.yul\":4566:4572   */\n          dup3\n            /* \"#utility.yul\":4561:4564   */\n          dup3\n            /* \"#utility.yul\":4554:4573   */\n          mstore\n            /* \"#utility.yul\":4606:4610   */\n          0x20\n            /* \"#utility.yul\":4601:4604   */\n          dup3\n            /* \"#utility.yul\":4597:4611   */\n          add\n            /* \"#utility.yul\":4582:4611   */\n          swap1\n          pop\n            /* \"#utility.yul\":4448:4617   */\n          swap3\n          swap2\n          pop\n          pop\n          jump\t// out\n            /* \"#utility.yul\":4623:4928   */\n        tag_63:\n            /* \"#utility.yul\":4663:4666   */\n          0x00\n            /* \"#utility.yul\":4682:4702   */\n          tag_160\n            /* \"#utility.yul\":4700:4701   */\n          dup3\n            /* \"#utility.yul\":4682:4702   */\n          tag_142\n          jump\t// in\n        tag_160:\n            /* \"#utility.yul\":4677:4702   */\n          swap2\n          pop\n            /* \"#utility.yul\":4716:4736   */\n          tag_161\n            /* \"#utility.yul\":4734:4735   */\n          dup4\n            /* \"#utility.yul\":4716:4736   */\n          tag_142\n          jump\t// in\n        tag_161:\n            /* \"#utility.yul\":4711:4736   */\n          swap3\n          pop\n            /* \"#utility.yul\":4870:4871   */\n          dup3\n            /* \"#utility.yul\":4802:4868   */\n          0xffffffffffffffffffffffffffffffffffffffffffffffffffffffffffffffff\n            /* \"#utility.yul\":4798:4872   */\n          sub\n            /* \"#utility.yul\":4795:4796   */\n          dup3\n            /* \"#utility.yul\":4792:4873   */\n          gt\n            /* \"#utility.yul\":4789:4896   */\n          iszero\n          tag_162\n          jumpi\n            /* \"#utility.yul\":4876:4894   */\n          tag_163\n          tag_164\n          jump\t// in\n        tag_163:\n            /* \"#utility.yul\":4789:4896   */\n        tag_162:\n            /* \"#utility.yul\":4920:4921   */\n          dup3\n            /* \"#utility.yul\":4917:4918   */\n          dup3\n            /* \"#utility.yul\":4913:4922   */\n          add\n            /* \"#utility.yul\":4906:4922   */\n          swap1\n          pop\n            /* \"#utility.yul\":4623:4928   */\n          swap3\n          swap2\n          pop\n          pop\n          jump\t// out\n            /* \"#utility.yul\":4934:5125   */\n        tag_86:\n            /* \"#utility.yul\":4974:4978   */\n          0x00\n            /* \"#utility.yul\":4994:5014   */\n          tag_166\n            /* \"#utility.yul\":5012:5013   */\n          dup3\n            /* \"#utility.yul\":4994:5014   */\n          tag_142\n          jump\t// in\n        tag_166:\n            /* \"#utility.yul\":4989:5014   */\n          swap2\n          pop\n            /* \"#utility.yul\":5028:5048   */\n          tag_167\n            /* \"#utility.yul\":5046:5047   */\n          dup4\n            /* \"#utility.yul\":5028:5048   */\n          tag_142\n          jump\t// in\n        tag_167:\n            /* \"#utility.yul\":5023:5048   */\n          swap3\n          pop\n            /* \"#utility.yul\":5067:5068   */\n          dup3\n            /* \"#utility.yul\":5064:5065   */\n          dup3\n            /* \"#utility.yul\":5061:5069   */\n          lt\n            /* \"#utility.yul\":5058:5092   */\n          iszero\n          tag_168\n          jumpi\n            /* \"#utility.yul\":5072:5090   */\n          tag_169\n          tag_164\n          jump\t// in\n        tag_169:\n            /* \"#utility.yul\":5058:5092   */\n        tag_168:\n            /* \"#utility.yul\":5117:5118   */\n          dup3\n            /* \"#utility.yul\":5114:5115   */\n          dup3\n            /* \"#utility.yul\":5110:5119   */\n          sub\n            /* \"#utility.yul\":5102:5119   */\n          swap1\n          pop\n            /* \"#utility.yul\":4934:5125   */\n          swap3\n          swap2\n          pop\n          pop\n          jump\t// out\n            /* \"#utility.yul\":5131:5227   */\n        tag_170:\n            /* \"#utility.yul\":5168:5175   */\n          0x00\n            /* \"#utility.yul\":5197:5221   */\n          tag_172\n            /* \"#utility.yul\":5215:5220   */\n          dup3\n            /* \"#utility.yul\":5197:5221   */\n          tag_173\n          jump\t// in\n        tag_172:\n            /* \"#utility.yul\":5186:5221   */\n          swap1\n          pop\n            /* \"#utility.yul\":5131:5227   */\n          swap2\n          swap1\n          pop\n          jump\t// out\n            /* \"#utility.yul\":5233:5323   */\n        tag_128:\n            /* \"#utility.yul\":5267:5274   */\n          0x00\n            /* \"#utility.yul\":5310:5315   */\n          dup2\n            /* \"#utility.yul\":5303:5316   */\n          iszero\n            /* \"#utility.yul\":5296:5317   */\n          iszero\n            /* \"#utility.yul\":5285:5317   */\n          swap1\n          pop\n            /* \"#utility.yul\":5233:5323   */\n          swap2\n          swap1\n          pop\n          jump\t// out\n            /* \"#utility.yul\":5329:5455   */\n        tag_173:\n            /* \"#utility.yul\":5366:5373   */\n          0x00\n            /* \"#utility.yul\":5406:5448   */\n          0xffffffffffffffffffffffffffffffffffffffff\n            /* \"#utility.yul\":5399:5404   */\n          dup3\n            /* \"#utility.yul\":5395:5449   */\n          and\n            /* \"#utility.yul\":5384:5449   */\n          swap1\n          pop\n            /* \"#utility.yul\":5329:5455   */\n          swap2\n          swap1\n          pop\n          jump\t// out\n            /* \"#utility.yul\":5461:5538   */\n        tag_142:\n            /* \"#utility.yul\":5498:5505   */\n          0x00\n            /* \"#utility.yul\":5527:5532   */\n          dup2\n            /* \"#utility.yul\":5516:5532   */\n          swap1\n          pop\n            /* \"#utility.yul\":5461:5538   */\n          swap2\n          swap1\n          pop\n          jump\t// out\n            /* \"#utility.yul\":5544:5630   */\n        tag_146:\n            /* \"#utility.yul\":5579:5586   */\n          0x00\n            /* \"#utility.yul\":5619:5623   */\n          0xff\n            /* \"#utility.yul\":5612:5617   */\n          dup3\n            /* \"#utility.yul\":5608:5624   */\n          and\n            /* \"#utility.yul\":5597:5624   */\n          swap1\n          pop\n            /* \"#utility.yul\":5544:5630   */\n          swap2\n          swap1\n          pop\n          jump\t// out\n            /* \"#utility.yul\":5636:5943   */\n        tag_136:\n            /* \"#utility.yul\":5704:5705   */\n          0x00\n            /* \"#utility.yul\":5714:5827   */\n        tag_179:\n            /* \"#utility.yul\":5728:5734   */\n          dup4\n            /* \"#utility.yul\":5725:5726   */\n          dup2\n            /* \"#utility.yul\":5722:5735   */\n          lt\n            /* \"#utility.yul\":5714:5827   */\n          iszero\n          tag_181\n          jumpi\n            /* \"#utility.yul\":5813:5814   */\n          dup1\n            /* \"#utility.yul\":5808:5811   */\n          dup3\n            /* \"#utility.yul\":5804:5815   */\n          add\n            /* \"#utility.yul\":5798:5816   */\n          mload\n            /* \"#utility.yul\":5794:5795   */\n          dup2\n            /* \"#utility.yul\":5789:5792   */\n          dup5\n            /* \"#utility.yul\":5785:5796   */\n          add\n            /* \"#utility.yul\":5778:5817   */\n          mstore\n            /* \"#utility.yul\":5750:5752   */\n          0x20\n            /* \"#utility.yul\":5747:5748   */\n          dup2\n            /* \"#utility.yul\":5743:5753   */\n          add\n            /* \"#utility.yul\":5738:5753   */\n          swap1\n          pop\n            /* \"#utility.yul\":5714:5827   */\n          jump(tag_179)\n        tag_181:\n            /* \"#utility.yul\":5845:5851   */\n          dup4\n            /* \"#utility.yul\":5842:5843   */\n          dup2\n            /* \"#utility.yul\":5839:5852   */\n          gt\n            /* \"#utility.yul\":5836:5937   */\n          iszero\n          tag_182\n          jumpi\n            /* \"#utility.yul\":5925:5926   */\n          0x00\n            /* \"#utility.yul\":5916:5922   */\n          dup5\n            /* \"#utility.yul\":5911:5914   */\n          dup5\n            /* \"#utility.yul\":5907:5923   */\n          add\n            /* \"#utility.yul\":5900:5927   */\n          mstore\n            /* \"#utility.yul\":5836:5937   */\n        tag_182:\n            /* \"#utility.yul\":5685:5943   */\n          pop\n            /* \"#utility.yul\":5636:5943   */\n          pop\n          pop\n          pop\n          jump\t// out\n            /* \"#utility.yul\":5949:6129   */\n        tag_84:\n            /* \"#utility.yul\":5997:6074   */\n          0x4e487b7100000000000000000000000000000000000000000000000000000000\n            /* \"#utility.yul\":5994:5995   */\n          0x00\n            /* \"#utility.yul\":5987:6075   */\n          mstore\n            /* \"#utility.yul\":6094:6098   */\n          0x01\n            /* \"#utility.yul\":6091:6092   */\n          0x04\n            /* \"#utility.yul\":6084:6099   */\n          mstore\n            /* \"#utility.yul\":6118:6122   */\n          0x24\n            /* \"#utility.yul\":6115:6116   */\n          0x00\n            /* \"#utility.yul\":6108:6123   */\n          revert\n            /* \"#utility.yul\":6135:6315   */\n        tag_164:\n            /* \"#utility.yul\":6183:6260   */\n          0x4e487b7100000000000000000000000000000000000000000000000000000000\n            /* \"#utility.yul\":6180:6181   */\n          0x00\n            /* \"#utility.yul\":6173:6261   */\n          mstore\n            /* \"#utility.yul\":6280:6284   */\n          0x11\n            /* \"#utility.yul\":6277:6278   */\n          0x04\n            /* \"#utility.yul\":6270:6285   */\n          mstore\n            /* \"#utility.yul\":6304:6308   */\n          0x24\n            /* \"#utility.yul\":6301:6302   */\n          0x00\n            /* \"#utility.yul\":6294:6309   */\n          revert\n            /* \"#utility.yul\":6444:6561   */\n        tag_103:\n            /* \"#utility.yul\":6553:6554   */\n          0x00\n            /* \"#utility.yul\":6550:6551   */\n          dup1\n            /* \"#utility.yul\":6543:6555   */\n          revert\n            /* \"#utility.yul\":6567:6669   */\n        tag_138:\n            /* \"#utility.yul\":6608:6614   */\n          0x00\n            /* \"#utility.yul\":6659:6661   */\n          0x1f\n            /* \"#utility.yul\":6655:6662   */\n          not\n            /* \"#utility.yul\":6650:6652   */\n          0x1f\n            /* \"#utility.yul\":6643:6648   */\n          dup4\n            /* \"#utility.yul\":6639:6653   */\n          add\n            /* \"#utility.yul\":6635:6663   */\n          and\n            /* \"#utility.yul\":6625:6663   */\n          swap1\n          pop\n            /* \"#utility.yul\":6567:6669   */\n          swap2\n          swap1\n          pop\n          jump\t// out\n            /* \"#utility.yul\":6675:6797   */\n        tag_95:\n            /* \"#utility.yul\":6748:6772   */\n          tag_190\n            /* \"#utility.yul\":6766:6771   */\n          dup2\n            /* \"#utility.yul\":6748:6772   */\n          tag_170\n          jump\t// in\n        tag_190:\n            /* \"#utility.yul\":6741:6746   */\n          dup2\n            /* \"#utility.yul\":6738:6773   */\n          eq\n            /* \"#utility.yul\":6728:6791   */\n          tag_191\n          jumpi\n            /* \"#utility.yul\":6787:6788   */\n          0x00\n            /* \"#utility.yul\":6784:6785   */\n          dup1\n            /* \"#utility.yul\":6777:6789   */\n          revert\n            /* \"#utility.yul\":6728:6791   */\n        tag_191:\n            /* \"#utility.yul\":6675:6797   */\n          pop\n          jump\t// out\n            /* \"#utility.yul\":6803:6925   */\n        tag_99:\n            /* \"#utility.yul\":6876:6900   */\n          tag_193\n            /* \"#utility.yul\":6894:6899   */\n          dup2\n            /* \"#utility.yul\":6876:6900   */\n          tag_142\n          jump\t// in\n        tag_193:\n            /* \"#utility.yul\":6869:6874   */\n          dup2\n            /* \"#utility.yul\":6866:6901   */\n          eq\n            /* \"#utility.yul\":6856:6919   */\n          tag_194\n          jumpi\n            /* \"#utility.yul\":6915:6916   */\n          0x00\n            /* \"#utility.yul\":6912:6913   */\n          dup1\n            /* \"#utility.yul\":6905:6917   */\n          revert\n            /* \"#utility.yul\":6856:6919   */\n        tag_194:\n            /* \"#utility.yul\":6803:6925   */\n          pop\n          jump\t// out\n\n        auxdata: 0xa264697066735822122038b3b629220f7bb9b58abd7142da7e1995c26e1fa1ce23bece24cce293b055dc64736f6c63430008070033\n    }\n}\n",
				"bytecode": {
					"linkReferences": {},
					"object": "608060405234801561001057600080fd5b50612710604051610020906100cc565b61002a91906100e8565b604051809103906000f080158015610046573d6000803e3d6000fd5b506000806101000a81548173ffffffffffffffffffffffffffffffffffffffff021916908373ffffffffffffffffffffffffffffffffffffffff16021790555033600160006101000a81548173ffffffffffffffffffffffffffffffffffffffff021916908373ffffffffffffffffffffffffffffffffffffffff16021790555061011f565b610fbb80610c4683390190565b6100e28161010d565b82525050565b60006020820190506100fd60008301846100d9565b92915050565b6000819050919050565b600061011882610103565b9050919050565b610b188061012e6000396000f3fe6080604052600436106100555760003560e01c806348ba08381461005a578063722713f7146100765780638da5cb5b146100a1578063ba2d17fe146100cc578063ce6dd8c4146100f5578063ce8f2f3814610120575b600080fd5b610074600480360381019061006f91906106df565b61015d565b005b34801561008257600080fd5b5061008b61034e565b604051610098919061088e565b60405180910390f35b3480156100ad57600080fd5b506100b66103ff565b6040516100c391906107ea565b60405180910390f35b3480156100d857600080fd5b506100f360048036038101906100ee91906106df565b610425565b005b34801561010157600080fd5b5061010a610545565b604051610117919061088e565b60405180910390f35b34801561012c57600080fd5b5061014760048036038101906101429190610685565b6105f6565b604051610154919061088e565b60405180910390f35b600061016882610614565b9050803410156101ad576040517f08c379a00000000000000000000000000000000000000000000000000000000081526004016101a49061084e565b60405180910390fd5b600081346101bb9190610914565b90503373ffffffffffffffffffffffffffffffffffffffff166108fc829081150290604051600060405180830381858888f19350505050158015610203573d6000803e3d6000fd5b50600061020e61034e565b905080841115610253576040517f08c379a000000000000000000000000000000000000000000000000000000000815260040161024a9061086e565b60405180910390fd5b60008054906101000a900473ffffffffffffffffffffffffffffffffffffffff1673ffffffffffffffffffffffffffffffffffffffff1663a9059cbb33866040518363ffffffff1660e01b81526004016102ae929190610805565b602060405180830381600087803b1580156102c857600080fd5b505af11580156102dc573d6000803e3d6000fd5b505050506040513d601f19601f8201168201806040525081019061030091906106b2565b5083600260003373ffffffffffffffffffffffffffffffffffffffff1673ffffffffffffffffffffffffffffffffffffffff1681526020019081526020016000206000018190555050505050565b60008060009054906101000a900473ffffffffffffffffffffffffffffffffffffffff1673ffffffffffffffffffffffffffffffffffffffff166370a08231306040518263ffffffff1660e01b81526004016103aa91906107cf565b60206040518083038186803b1580156103c257600080fd5b505afa1580156103d6573d6000803e3d6000fd5b505050506040513d601f19601f820116820180604052508101906103fa919061070c565b905090565b600160009054906101000a900473ffffffffffffffffffffffffffffffffffffffff1681565b33600160009054906101000a900473ffffffffffffffffffffffffffffffffffffffff1673ffffffffffffffffffffffffffffffffffffffff168173ffffffffffffffffffffffffffffffffffffffff16146104b6576040517f08c379a00000000000000000000000000000000000000000000000000000000081526004016104ad9061082e565b60405180910390fd5b60008054906101000a900473ffffffffffffffffffffffffffffffffffffffff1673ffffffffffffffffffffffffffffffffffffffff16631d43cc98836040518263ffffffff1660e01b815260040161050f919061088e565b600060405180830381600087803b15801561052957600080fd5b505af115801561053d573d6000803e3d6000fd5b505050505050565b60008060009054906101000a900473ffffffffffffffffffffffffffffffffffffffff1673ffffffffffffffffffffffffffffffffffffffff166370a08231336040518263ffffffff1660e01b81526004016105a191906107cf565b60206040518083038186803b1580156105b957600080fd5b505afa1580156105cd573d6000803e3d6000fd5b505050506040513d601f19601f820116820180604052508101906105f1919061070c565b905090565b60026020528060005260406000206000915090508060000154905081565b6000670de0b6b3a76400008261062a91906108ba565b9050919050565b60008135905061064081610a9d565b92915050565b60008151905061065581610ab4565b92915050565b60008135905061066a81610acb565b92915050565b60008151905061067f81610acb565b92915050565b60006020828403121561069b5761069a6109d1565b5b60006106a984828501610631565b91505092915050565b6000602082840312156106c8576106c76109d1565b5b60006106d684828501610646565b91505092915050565b6000602082840312156106f5576106f46109d1565b5b60006107038482850161065b565b91505092915050565b600060208284031215610722576107216109d1565b5b600061073084828501610670565b91505092915050565b6107428161095a565b82525050565b61075181610948565b82525050565b6000610764602d836108a9565b915061076f826109d6565b604082019050919050565b6000610787602a836108a9565b915061079282610a25565b604082019050919050565b60006107aa6020836108a9565b91506107b582610a74565b602082019050919050565b6107c981610998565b82525050565b60006020820190506107e46000830184610748565b92915050565b60006020820190506107ff6000830184610739565b92915050565b600060408201905061081a6000830185610748565b61082760208301846107c0565b9392505050565b6000602082019050818103600083015261084781610757565b9050919050565b600060208201905081810360008301526108678161077a565b9050919050565b600060208201905081810360008301526108878161079d565b9050919050565b60006020820190506108a360008301846107c0565b92915050565b600082825260208201905092915050565b60006108c582610998565b91506108d083610998565b9250817fffffffffffffffffffffffffffffffffffffffffffffffffffffffffffffffff0483118215151615610909576109086109a2565b5b828202905092915050565b600061091f82610998565b915061092a83610998565b92508282101561093d5761093c6109a2565b5b828203905092915050565b600061095382610978565b9050919050565b600061096582610978565b9050919050565b60008115159050919050565b600073ffffffffffffffffffffffffffffffffffffffff82169050919050565b6000819050919050565b7f4e487b7100000000000000000000000000000000000000000000000000000000600052601160045260246000fd5b600080fd5b7f4e6f207469656e6573207065726d69736f73207061726120656a65637574617260008201527f20657374612066756e63696f6e00000000000000000000000000000000000000602082015250565b7f436f6d707261206d656e6f7320546f6b656e73206f207061676120636f6e206d60008201527f6173206574686572732e00000000000000000000000000000000000000000000602082015250565b7f436f6d70726120756e206e756d65726f206d656e6f7220646520546f6b656e73600082015250565b610aa681610948565b8114610ab157600080fd5b50565b610abd8161096c565b8114610ac857600080fd5b50565b610ad481610998565b8114610adf57600080fd5b5056fea2646970667358221220e491d292aec157de4bda4b44b32c4d2f3ad4bd62544f72198eeafeaa6a7c110664736f6c63430008070033608060405234801561001057600080fd5b50604051610fbb380380610fbb83398181016040528101906100329190610099565b806002819055506002546000803373ffffffffffffffffffffffffffffffffffffffff1673ffffffffffffffffffffffffffffffffffffffff16815260200190815260200160002081905550506100ec565b600081519050610093816100d5565b92915050565b6000602082840312156100af576100ae6100d0565b5b60006100bd84828501610084565b91505092915050565b6000819050919050565b600080fd5b6100de816100c6565b81146100e957600080fd5b50565b610ec0806100fb6000396000f3fe608060405234801561001057600080fd5b506004361061009e5760003560e01c8063313ce56711610066578063313ce5671461015b57806370a082311461017957806395d89b41146101a9578063a9059cbb146101c7578063dd62ed3e146101f75761009e565b806306fdde03146100a3578063095ea7b3146100c157806318160ddd146100f15780631d43cc981461010f57806323b872dd1461012b575b600080fd5b6100ab610227565b6040516100b89190610c62565b60405180910390f35b6100db60048036038101906100d69190610b74565b610260565b6040516100e89190610c47565b60405180910390f35b6100f9610352565b6040516101069190610c84565b60405180910390f35b61012960048036038101906101249190610bb4565b61035c565b005b61014560048036038101906101409190610b21565b6103cd565b6040516101529190610c47565b60405180910390f35b610163610748565b6040516101709190610c9f565b60405180910390f35b610193600480360381019061018e9190610ab4565b61074d565b6040516101a09190610c84565b60405180910390f35b6101b1610795565b6040516101be9190610c62565b60405180910390f35b6101e160048036038101906101dc9190610b74565b6107ce565b6040516101ee9190610c47565b60405180910390f35b610211600480360381019061020c9190610ae1565b6109b0565b60405161021e9190610c84565b60405180910390f35b6040518060400160405280601181526020017f4552433230426c6f636b636861696e415a00000000000000000000000000000081525081565b600081600160003373ffffffffffffffffffffffffffffffffffffffff1673ffffffffffffffffffffffffffffffffffffffff16815260200190815260200160002060008573ffffffffffffffffffffffffffffffffffffffff1673ffffffffffffffffffffffffffffffffffffffff168152602001908152602001600020819055508273ffffffffffffffffffffffffffffffffffffffff163373ffffffffffffffffffffffffffffffffffffffff167f8c5be1e5ebec7d5bd14f71427d1e84f3dd0314c0f7b2291e5b200ac8c7c3b925846040516103409190610c84565b60405180910390a36001905092915050565b6000600254905090565b806002600082825461036e9190610cd6565b92505081905550806000803373ffffffffffffffffffffffffffffffffffffffff1673ffffffffffffffffffffffffffffffffffffffff16815260200190815260200160002060008282546103c39190610cd6565b9250508190555050565b60008060008573ffffffffffffffffffffffffffffffffffffffff1673ffffffffffffffffffffffffffffffffffffffff1681526020019081526020016000205482111561041a57600080fd5b600160008573ffffffffffffffffffffffffffffffffffffffff1673ffffffffffffffffffffffffffffffffffffffff16815260200190815260200160002060003373ffffffffffffffffffffffffffffffffffffffff1673ffffffffffffffffffffffffffffffffffffffff168152602001908152602001600020548211156104a357600080fd5b6104f4826000808773ffffffffffffffffffffffffffffffffffffffff1673ffffffffffffffffffffffffffffffffffffffff16815260200190815260200160002054610a3790919063ffffffff16565b6000808673ffffffffffffffffffffffffffffffffffffffff1673ffffffffffffffffffffffffffffffffffffffff168152602001908152602001600020819055506105c582600160008773ffffffffffffffffffffffffffffffffffffffff1673ffffffffffffffffffffffffffffffffffffffff16815260200190815260200160002060003373ffffffffffffffffffffffffffffffffffffffff1673ffffffffffffffffffffffffffffffffffffffff16815260200190815260200160002054610a3790919063ffffffff16565b600160008673ffffffffffffffffffffffffffffffffffffffff1673ffffffffffffffffffffffffffffffffffffffff16815260200190815260200160002060003373ffffffffffffffffffffffffffffffffffffffff1673ffffffffffffffffffffffffffffffffffffffff16815260200190815260200160002081905550610696826000808673ffffffffffffffffffffffffffffffffffffffff1673ffffffffffffffffffffffffffffffffffffffff16815260200190815260200160002054610a5e90919063ffffffff16565b6000808573ffffffffffffffffffffffffffffffffffffffff1673ffffffffffffffffffffffffffffffffffffffff168152602001908152602001600020819055508273ffffffffffffffffffffffffffffffffffffffff168473ffffffffffffffffffffffffffffffffffffffff167fddf252ad1be2c89b69c2b068fc378daa952ba7f163c4a11628f55a4df523b3ef846040516107359190610c84565b60405180910390a3600190509392505050565b600281565b60008060008373ffffffffffffffffffffffffffffffffffffffff1673ffffffffffffffffffffffffffffffffffffffff168152602001908152602001600020549050919050565b6040518060400160405280600381526020017f455243000000000000000000000000000000000000000000000000000000000081525081565b60008060003373ffffffffffffffffffffffffffffffffffffffff1673ffffffffffffffffffffffffffffffffffffffff1681526020019081526020016000205482111561081b57600080fd5b61086c826000803373ffffffffffffffffffffffffffffffffffffffff1673ffffffffffffffffffffffffffffffffffffffff16815260200190815260200160002054610a3790919063ffffffff16565b6000803373ffffffffffffffffffffffffffffffffffffffff1673ffffffffffffffffffffffffffffffffffffffff168152602001908152602001600020819055506108ff826000808673ffffffffffffffffffffffffffffffffffffffff1673ffffffffffffffffffffffffffffffffffffffff16815260200190815260200160002054610a5e90919063ffffffff16565b6000808573ffffffffffffffffffffffffffffffffffffffff1673ffffffffffffffffffffffffffffffffffffffff168152602001908152602001600020819055508273ffffffffffffffffffffffffffffffffffffffff163373ffffffffffffffffffffffffffffffffffffffff167fddf252ad1be2c89b69c2b068fc378daa952ba7f163c4a11628f55a4df523b3ef8460405161099e9190610c84565b60405180910390a36001905092915050565b6000600160008473ffffffffffffffffffffffffffffffffffffffff1673ffffffffffffffffffffffffffffffffffffffff16815260200190815260200160002060008373ffffffffffffffffffffffffffffffffffffffff1673ffffffffffffffffffffffffffffffffffffffff16815260200190815260200160002054905092915050565b600082821115610a4a57610a49610de8565b5b8183610a569190610d2c565b905092915050565b6000808284610a6d9190610cd6565b905083811015610a8057610a7f610de8565b5b8091505092915050565b600081359050610a9981610e5c565b92915050565b600081359050610aae81610e73565b92915050565b600060208284031215610aca57610ac9610e46565b5b6000610ad884828501610a8a565b91505092915050565b60008060408385031215610af857610af7610e46565b5b6000610b0685828601610a8a565b9250506020610b1785828601610a8a565b9150509250929050565b600080600060608486031215610b3a57610b39610e46565b5b6000610b4886828701610a8a565b9350506020610b5986828701610a8a565b9250506040610b6a86828701610a9f565b9150509250925092565b60008060408385031215610b8b57610b8a610e46565b5b6000610b9985828601610a8a565b9250506020610baa85828601610a9f565b9150509250929050565b600060208284031215610bca57610bc9610e46565b5b6000610bd884828501610a9f565b91505092915050565b610bea81610d72565b82525050565b6000610bfb82610cba565b610c058185610cc5565b9350610c15818560208601610db5565b610c1e81610e4b565b840191505092915050565b610c3281610d9e565b82525050565b610c4181610da8565b82525050565b6000602082019050610c5c6000830184610be1565b92915050565b60006020820190508181036000830152610c7c8184610bf0565b905092915050565b6000602082019050610c996000830184610c29565b92915050565b6000602082019050610cb46000830184610c38565b92915050565b600081519050919050565b600082825260208201905092915050565b6000610ce182610d9e565b9150610cec83610d9e565b9250827fffffffffffffffffffffffffffffffffffffffffffffffffffffffffffffffff03821115610d2157610d20610e17565b5b828201905092915050565b6000610d3782610d9e565b9150610d4283610d9e565b925082821015610d5557610d54610e17565b5b828203905092915050565b6000610d6b82610d7e565b9050919050565b60008115159050919050565b600073ffffffffffffffffffffffffffffffffffffffff82169050919050565b6000819050919050565b600060ff82169050919050565b60005b83811015610dd3578082015181840152602081019050610db8565b83811115610de2576000848401525b50505050565b7f4e487b7100000000000000000000000000000000000000000000000000000000600052600160045260246000fd5b7f4e487b7100000000000000000000000000000000000000000000000000000000600052601160045260246000fd5b600080fd5b6000601f19601f8301169050919050565b610e6581610d60565b8114610e7057600080fd5b50565b610e7c81610d9e565b8114610e8757600080fd5b5056fea264697066735822122038b3b629220f7bb9b58abd7142da7e1995c26e1fa1ce23bece24cce293b055dc64736f6c63430008070033",
					"opcodes": "PUSH1 0x80 PUSH1 0x40 MSTORE CALLVALUE DUP1 ISZERO PUSH2 0x10 JUMPI PUSH1 0x0 DUP1 REVERT JUMPDEST POP PUSH2 0x2710 PUSH1 0x40 MLOAD PUSH2 0x20 SWAP1 PUSH2 0xCC JUMP JUMPDEST PUSH2 0x2A SWAP2 SWAP1 PUSH2 0xE8 JUMP JUMPDEST PUSH1 0x40 MLOAD DUP1 SWAP2 SUB SWAP1 PUSH1 0x0 CREATE DUP1 ISZERO DUP1 ISZERO PUSH2 0x46 JUMPI RETURNDATASIZE PUSH1 0x0 DUP1 RETURNDATACOPY RETURNDATASIZE PUSH1 0x0 REVERT JUMPDEST POP PUSH1 0x0 DUP1 PUSH2 0x100 EXP DUP2 SLOAD DUP2 PUSH20 0xFFFFFFFFFFFFFFFFFFFFFFFFFFFFFFFFFFFFFFFF MUL NOT AND SWAP1 DUP4 PUSH20 0xFFFFFFFFFFFFFFFFFFFFFFFFFFFFFFFFFFFFFFFF AND MUL OR SWAP1 SSTORE POP CALLER PUSH1 0x1 PUSH1 0x0 PUSH2 0x100 EXP DUP2 SLOAD DUP2 PUSH20 0xFFFFFFFFFFFFFFFFFFFFFFFFFFFFFFFFFFFFFFFF MUL NOT AND SWAP1 DUP4 PUSH20 0xFFFFFFFFFFFFFFFFFFFFFFFFFFFFFFFFFFFFFFFF AND MUL OR SWAP1 SSTORE POP PUSH2 0x11F JUMP JUMPDEST PUSH2 0xFBB DUP1 PUSH2 0xC46 DUP4 CODECOPY ADD SWAP1 JUMP JUMPDEST PUSH2 0xE2 DUP2 PUSH2 0x10D JUMP JUMPDEST DUP3 MSTORE POP POP JUMP JUMPDEST PUSH1 0x0 PUSH1 0x20 DUP3 ADD SWAP1 POP PUSH2 0xFD PUSH1 0x0 DUP4 ADD DUP5 PUSH2 0xD9 JUMP JUMPDEST SWAP3 SWAP2 POP POP JUMP JUMPDEST PUSH1 0x0 DUP2 SWAP1 POP SWAP2 SWAP1 POP JUMP JUMPDEST PUSH1 0x0 PUSH2 0x118 DUP3 PUSH2 0x103 JUMP JUMPDEST SWAP1 POP SWAP2 SWAP1 POP JUMP JUMPDEST PUSH2 0xB18 DUP1 PUSH2 0x12E PUSH1 0x0 CODECOPY PUSH1 0x0 RETURN INVALID PUSH1 0x80 PUSH1 0x40 MSTORE PUSH1 0x4 CALLDATASIZE LT PUSH2 0x55 JUMPI PUSH1 0x0 CALLDATALOAD PUSH1 0xE0 SHR DUP1 PUSH4 0x48BA0838 EQ PUSH2 0x5A JUMPI DUP1 PUSH4 0x722713F7 EQ PUSH2 0x76 JUMPI DUP1 PUSH4 0x8DA5CB5B EQ PUSH2 0xA1 JUMPI DUP1 PUSH4 0xBA2D17FE EQ PUSH2 0xCC JUMPI DUP1 PUSH4 0xCE6DD8C4 EQ PUSH2 0xF5 JUMPI DUP1 PUSH4 0xCE8F2F38 EQ PUSH2 0x120 JUMPI JUMPDEST PUSH1 0x0 DUP1 REVERT JUMPDEST PUSH2 0x74 PUSH1 0x4 DUP1 CALLDATASIZE SUB DUP2 ADD SWAP1 PUSH2 0x6F SWAP2 SWAP1 PUSH2 0x6DF JUMP JUMPDEST PUSH2 0x15D JUMP JUMPDEST STOP JUMPDEST CALLVALUE DUP1 ISZERO PUSH2 0x82 JUMPI PUSH1 0x0 DUP1 REVERT JUMPDEST POP PUSH2 0x8B PUSH2 0x34E JUMP JUMPDEST PUSH1 0x40 MLOAD PUSH2 0x98 SWAP2 SWAP1 PUSH2 0x88E JUMP JUMPDEST PUSH1 0x40 MLOAD DUP1 SWAP2 SUB SWAP1 RETURN JUMPDEST CALLVALUE DUP1 ISZERO PUSH2 0xAD JUMPI PUSH1 0x0 DUP1 REVERT JUMPDEST POP PUSH2 0xB6 PUSH2 0x3FF JUMP JUMPDEST PUSH1 0x40 MLOAD PUSH2 0xC3 SWAP2 SWAP1 PUSH2 0x7EA JUMP JUMPDEST PUSH1 0x40 MLOAD DUP1 SWAP2 SUB SWAP1 RETURN JUMPDEST CALLVALUE DUP1 ISZERO PUSH2 0xD8 JUMPI PUSH1 0x0 DUP1 REVERT JUMPDEST POP PUSH2 0xF3 PUSH1 0x4 DUP1 CALLDATASIZE SUB DUP2 ADD SWAP1 PUSH2 0xEE SWAP2 SWAP1 PUSH2 0x6DF JUMP JUMPDEST PUSH2 0x425 JUMP JUMPDEST STOP JUMPDEST CALLVALUE DUP1 ISZERO PUSH2 0x101 JUMPI PUSH1 0x0 DUP1 REVERT JUMPDEST POP PUSH2 0x10A PUSH2 0x545 JUMP JUMPDEST PUSH1 0x40 MLOAD PUSH2 0x117 SWAP2 SWAP1 PUSH2 0x88E JUMP JUMPDEST PUSH1 0x40 MLOAD DUP1 SWAP2 SUB SWAP1 RETURN JUMPDEST CALLVALUE DUP1 ISZERO PUSH2 0x12C JUMPI PUSH1 0x0 DUP1 REVERT JUMPDEST POP PUSH2 0x147 PUSH1 0x4 DUP1 CALLDATASIZE SUB DUP2 ADD SWAP1 PUSH2 0x142 SWAP2 SWAP1 PUSH2 0x685 JUMP JUMPDEST PUSH2 0x5F6 JUMP JUMPDEST PUSH1 0x40 MLOAD PUSH2 0x154 SWAP2 SWAP1 PUSH2 0x88E JUMP JUMPDEST PUSH1 0x40 MLOAD DUP1 SWAP2 SUB SWAP1 RETURN JUMPDEST PUSH1 0x0 PUSH2 0x168 DUP3 PUSH2 0x614 JUMP JUMPDEST SWAP1 POP DUP1 CALLVALUE LT ISZERO PUSH2 0x1AD JUMPI PUSH1 0x40 MLOAD PUSH32 0x8C379A000000000000000000000000000000000000000000000000000000000 DUP2 MSTORE PUSH1 0x4 ADD PUSH2 0x1A4 SWAP1 PUSH2 0x84E JUMP JUMPDEST PUSH1 0x40 MLOAD DUP1 SWAP2 SUB SWAP1 REVERT JUMPDEST PUSH1 0x0 DUP2 CALLVALUE PUSH2 0x1BB SWAP2 SWAP1 PUSH2 0x914 JUMP JUMPDEST SWAP1 POP CALLER PUSH20 0xFFFFFFFFFFFFFFFFFFFFFFFFFFFFFFFFFFFFFFFF AND PUSH2 0x8FC DUP3 SWAP1 DUP2 ISZERO MUL SWAP1 PUSH1 0x40 MLOAD PUSH1 0x0 PUSH1 0x40 MLOAD DUP1 DUP4 SUB DUP2 DUP6 DUP9 DUP9 CALL SWAP4 POP POP POP POP ISZERO DUP1 ISZERO PUSH2 0x203 JUMPI RETURNDATASIZE PUSH1 0x0 DUP1 RETURNDATACOPY RETURNDATASIZE PUSH1 0x0 REVERT JUMPDEST POP PUSH1 0x0 PUSH2 0x20E PUSH2 0x34E JUMP JUMPDEST SWAP1 POP DUP1 DUP5 GT ISZERO PUSH2 0x253 JUMPI PUSH1 0x40 MLOAD PUSH32 0x8C379A000000000000000000000000000000000000000000000000000000000 DUP2 MSTORE PUSH1 0x4 ADD PUSH2 0x24A SWAP1 PUSH2 0x86E JUMP JUMPDEST PUSH1 0x40 MLOAD DUP1 SWAP2 SUB SWAP1 REVERT JUMPDEST PUSH1 0x0 DUP1 SLOAD SWAP1 PUSH2 0x100 EXP SWAP1 DIV PUSH20 0xFFFFFFFFFFFFFFFFFFFFFFFFFFFFFFFFFFFFFFFF AND PUSH20 0xFFFFFFFFFFFFFFFFFFFFFFFFFFFFFFFFFFFFFFFF AND PUSH4 0xA9059CBB CALLER DUP7 PUSH1 0x40 MLOAD DUP4 PUSH4 0xFFFFFFFF AND PUSH1 0xE0 SHL DUP2 MSTORE PUSH1 0x4 ADD PUSH2 0x2AE SWAP3 SWAP2 SWAP1 PUSH2 0x805 JUMP JUMPDEST PUSH1 0x20 PUSH1 0x40 MLOAD DUP1 DUP4 SUB DUP2 PUSH1 0x0 DUP8 DUP1 EXTCODESIZE ISZERO DUP1 ISZERO PUSH2 0x2C8 JUMPI PUSH1 0x0 DUP1 REVERT JUMPDEST POP GAS CALL ISZERO DUP1 ISZERO PUSH2 0x2DC JUMPI RETURNDATASIZE PUSH1 0x0 DUP1 RETURNDATACOPY RETURNDATASIZE PUSH1 0x0 REVERT JUMPDEST POP POP POP POP PUSH1 0x40 MLOAD RETURNDATASIZE PUSH1 0x1F NOT PUSH1 0x1F DUP3 ADD AND DUP3 ADD DUP1 PUSH1 0x40 MSTORE POP DUP2 ADD SWAP1 PUSH2 0x300 SWAP2 SWAP1 PUSH2 0x6B2 JUMP JUMPDEST POP DUP4 PUSH1 0x2 PUSH1 0x0 CALLER PUSH20 0xFFFFFFFFFFFFFFFFFFFFFFFFFFFFFFFFFFFFFFFF AND PUSH20 0xFFFFFFFFFFFFFFFFFFFFFFFFFFFFFFFFFFFFFFFF AND DUP2 MSTORE PUSH1 0x20 ADD SWAP1 DUP2 MSTORE PUSH1 0x20 ADD PUSH1 0x0 KECCAK256 PUSH1 0x0 ADD DUP2 SWAP1 SSTORE POP POP POP POP POP JUMP JUMPDEST PUSH1 0x0 DUP1 PUSH1 0x0 SWAP1 SLOAD SWAP1 PUSH2 0x100 EXP SWAP1 DIV PUSH20 0xFFFFFFFFFFFFFFFFFFFFFFFFFFFFFFFFFFFFFFFF AND PUSH20 0xFFFFFFFFFFFFFFFFFFFFFFFFFFFFFFFFFFFFFFFF AND PUSH4 0x70A08231 ADDRESS PUSH1 0x40 MLOAD DUP3 PUSH4 0xFFFFFFFF AND PUSH1 0xE0 SHL DUP2 MSTORE PUSH1 0x4 ADD PUSH2 0x3AA SWAP2 SWAP1 PUSH2 0x7CF JUMP JUMPDEST PUSH1 0x20 PUSH1 0x40 MLOAD DUP1 DUP4 SUB DUP2 DUP7 DUP1 EXTCODESIZE ISZERO DUP1 ISZERO PUSH2 0x3C2 JUMPI PUSH1 0x0 DUP1 REVERT JUMPDEST POP GAS STATICCALL ISZERO DUP1 ISZERO PUSH2 0x3D6 JUMPI RETURNDATASIZE PUSH1 0x0 DUP1 RETURNDATACOPY RETURNDATASIZE PUSH1 0x0 REVERT JUMPDEST POP POP POP POP PUSH1 0x40 MLOAD RETURNDATASIZE PUSH1 0x1F NOT PUSH1 0x1F DUP3 ADD AND DUP3 ADD DUP1 PUSH1 0x40 MSTORE POP DUP2 ADD SWAP1 PUSH2 0x3FA SWAP2 SWAP1 PUSH2 0x70C JUMP JUMPDEST SWAP1 POP SWAP1 JUMP JUMPDEST PUSH1 0x1 PUSH1 0x0 SWAP1 SLOAD SWAP1 PUSH2 0x100 EXP SWAP1 DIV PUSH20 0xFFFFFFFFFFFFFFFFFFFFFFFFFFFFFFFFFFFFFFFF AND DUP2 JUMP JUMPDEST CALLER PUSH1 0x1 PUSH1 0x0 SWAP1 SLOAD SWAP1 PUSH2 0x100 EXP SWAP1 DIV PUSH20 0xFFFFFFFFFFFFFFFFFFFFFFFFFFFFFFFFFFFFFFFF AND PUSH20 0xFFFFFFFFFFFFFFFFFFFFFFFFFFFFFFFFFFFFFFFF AND DUP2 PUSH20 0xFFFFFFFFFFFFFFFFFFFFFFFFFFFFFFFFFFFFFFFF AND EQ PUSH2 0x4B6 JUMPI PUSH1 0x40 MLOAD PUSH32 0x8C379A000000000000000000000000000000000000000000000000000000000 DUP2 MSTORE PUSH1 0x4 ADD PUSH2 0x4AD SWAP1 PUSH2 0x82E JUMP JUMPDEST PUSH1 0x40 MLOAD DUP1 SWAP2 SUB SWAP1 REVERT JUMPDEST PUSH1 0x0 DUP1 SLOAD SWAP1 PUSH2 0x100 EXP SWAP1 DIV PUSH20 0xFFFFFFFFFFFFFFFFFFFFFFFFFFFFFFFFFFFFFFFF AND PUSH20 0xFFFFFFFFFFFFFFFFFFFFFFFFFFFFFFFFFFFFFFFF AND PUSH4 0x1D43CC98 DUP4 PUSH1 0x40 MLOAD DUP3 PUSH4 0xFFFFFFFF AND PUSH1 0xE0 SHL DUP2 MSTORE PUSH1 0x4 ADD PUSH2 0x50F SWAP2 SWAP1 PUSH2 0x88E JUMP JUMPDEST PUSH1 0x0 PUSH1 0x40 MLOAD DUP1 DUP4 SUB DUP2 PUSH1 0x0 DUP8 DUP1 EXTCODESIZE ISZERO DUP1 ISZERO PUSH2 0x529 JUMPI PUSH1 0x0 DUP1 REVERT JUMPDEST POP GAS CALL ISZERO DUP1 ISZERO PUSH2 0x53D JUMPI RETURNDATASIZE PUSH1 0x0 DUP1 RETURNDATACOPY RETURNDATASIZE PUSH1 0x0 REVERT JUMPDEST POP POP POP POP POP POP JUMP JUMPDEST PUSH1 0x0 DUP1 PUSH1 0x0 SWAP1 SLOAD SWAP1 PUSH2 0x100 EXP SWAP1 DIV PUSH20 0xFFFFFFFFFFFFFFFFFFFFFFFFFFFFFFFFFFFFFFFF AND PUSH20 0xFFFFFFFFFFFFFFFFFFFFFFFFFFFFFFFFFFFFFFFF AND PUSH4 0x70A08231 CALLER PUSH1 0x40 MLOAD DUP3 PUSH4 0xFFFFFFFF AND PUSH1 0xE0 SHL DUP2 MSTORE PUSH1 0x4 ADD PUSH2 0x5A1 SWAP2 SWAP1 PUSH2 0x7CF JUMP JUMPDEST PUSH1 0x20 PUSH1 0x40 MLOAD DUP1 DUP4 SUB DUP2 DUP7 DUP1 EXTCODESIZE ISZERO DUP1 ISZERO PUSH2 0x5B9 JUMPI PUSH1 0x0 DUP1 REVERT JUMPDEST POP GAS STATICCALL ISZERO DUP1 ISZERO PUSH2 0x5CD JUMPI RETURNDATASIZE PUSH1 0x0 DUP1 RETURNDATACOPY RETURNDATASIZE PUSH1 0x0 REVERT JUMPDEST POP POP POP POP PUSH1 0x40 MLOAD RETURNDATASIZE PUSH1 0x1F NOT PUSH1 0x1F DUP3 ADD AND DUP3 ADD DUP1 PUSH1 0x40 MSTORE POP DUP2 ADD SWAP1 PUSH2 0x5F1 SWAP2 SWAP1 PUSH2 0x70C JUMP JUMPDEST SWAP1 POP SWAP1 JUMP JUMPDEST PUSH1 0x2 PUSH1 0x20 MSTORE DUP1 PUSH1 0x0 MSTORE PUSH1 0x40 PUSH1 0x0 KECCAK256 PUSH1 0x0 SWAP2 POP SWAP1 POP DUP1 PUSH1 0x0 ADD SLOAD SWAP1 POP DUP2 JUMP JUMPDEST PUSH1 0x0 PUSH8 0xDE0B6B3A7640000 DUP3 PUSH2 0x62A SWAP2 SWAP1 PUSH2 0x8BA JUMP JUMPDEST SWAP1 POP SWAP2 SWAP1 POP JUMP JUMPDEST PUSH1 0x0 DUP2 CALLDATALOAD SWAP1 POP PUSH2 0x640 DUP2 PUSH2 0xA9D JUMP JUMPDEST SWAP3 SWAP2 POP POP JUMP JUMPDEST PUSH1 0x0 DUP2 MLOAD SWAP1 POP PUSH2 0x655 DUP2 PUSH2 0xAB4 JUMP JUMPDEST SWAP3 SWAP2 POP POP JUMP JUMPDEST PUSH1 0x0 DUP2 CALLDATALOAD SWAP1 POP PUSH2 0x66A DUP2 PUSH2 0xACB JUMP JUMPDEST SWAP3 SWAP2 POP POP JUMP JUMPDEST PUSH1 0x0 DUP2 MLOAD SWAP1 POP PUSH2 0x67F DUP2 PUSH2 0xACB JUMP JUMPDEST SWAP3 SWAP2 POP POP JUMP JUMPDEST PUSH1 0x0 PUSH1 0x20 DUP3 DUP5 SUB SLT ISZERO PUSH2 0x69B JUMPI PUSH2 0x69A PUSH2 0x9D1 JUMP JUMPDEST JUMPDEST PUSH1 0x0 PUSH2 0x6A9 DUP5 DUP3 DUP6 ADD PUSH2 0x631 JUMP JUMPDEST SWAP2 POP POP SWAP3 SWAP2 POP POP JUMP JUMPDEST PUSH1 0x0 PUSH1 0x20 DUP3 DUP5 SUB SLT ISZERO PUSH2 0x6C8 JUMPI PUSH2 0x6C7 PUSH2 0x9D1 JUMP JUMPDEST JUMPDEST PUSH1 0x0 PUSH2 0x6D6 DUP5 DUP3 DUP6 ADD PUSH2 0x646 JUMP JUMPDEST SWAP2 POP POP SWAP3 SWAP2 POP POP JUMP JUMPDEST PUSH1 0x0 PUSH1 0x20 DUP3 DUP5 SUB SLT ISZERO PUSH2 0x6F5 JUMPI PUSH2 0x6F4 PUSH2 0x9D1 JUMP JUMPDEST JUMPDEST PUSH1 0x0 PUSH2 0x703 DUP5 DUP3 DUP6 ADD PUSH2 0x65B JUMP JUMPDEST SWAP2 POP POP SWAP3 SWAP2 POP POP JUMP JUMPDEST PUSH1 0x0 PUSH1 0x20 DUP3 DUP5 SUB SLT ISZERO PUSH2 0x722 JUMPI PUSH2 0x721 PUSH2 0x9D1 JUMP JUMPDEST JUMPDEST PUSH1 0x0 PUSH2 0x730 DUP5 DUP3 DUP6 ADD PUSH2 0x670 JUMP JUMPDEST SWAP2 POP POP SWAP3 SWAP2 POP POP JUMP JUMPDEST PUSH2 0x742 DUP2 PUSH2 0x95A JUMP JUMPDEST DUP3 MSTORE POP POP JUMP JUMPDEST PUSH2 0x751 DUP2 PUSH2 0x948 JUMP JUMPDEST DUP3 MSTORE POP POP JUMP JUMPDEST PUSH1 0x0 PUSH2 0x764 PUSH1 0x2D DUP4 PUSH2 0x8A9 JUMP JUMPDEST SWAP2 POP PUSH2 0x76F DUP3 PUSH2 0x9D6 JUMP JUMPDEST PUSH1 0x40 DUP3 ADD SWAP1 POP SWAP2 SWAP1 POP JUMP JUMPDEST PUSH1 0x0 PUSH2 0x787 PUSH1 0x2A DUP4 PUSH2 0x8A9 JUMP JUMPDEST SWAP2 POP PUSH2 0x792 DUP3 PUSH2 0xA25 JUMP JUMPDEST PUSH1 0x40 DUP3 ADD SWAP1 POP SWAP2 SWAP1 POP JUMP JUMPDEST PUSH1 0x0 PUSH2 0x7AA PUSH1 0x20 DUP4 PUSH2 0x8A9 JUMP JUMPDEST SWAP2 POP PUSH2 0x7B5 DUP3 PUSH2 0xA74 JUMP JUMPDEST PUSH1 0x20 DUP3 ADD SWAP1 POP SWAP2 SWAP1 POP JUMP JUMPDEST PUSH2 0x7C9 DUP2 PUSH2 0x998 JUMP JUMPDEST DUP3 MSTORE POP POP JUMP JUMPDEST PUSH1 0x0 PUSH1 0x20 DUP3 ADD SWAP1 POP PUSH2 0x7E4 PUSH1 0x0 DUP4 ADD DUP5 PUSH2 0x748 JUMP JUMPDEST SWAP3 SWAP2 POP POP JUMP JUMPDEST PUSH1 0x0 PUSH1 0x20 DUP3 ADD SWAP1 POP PUSH2 0x7FF PUSH1 0x0 DUP4 ADD DUP5 PUSH2 0x739 JUMP JUMPDEST SWAP3 SWAP2 POP POP JUMP JUMPDEST PUSH1 0x0 PUSH1 0x40 DUP3 ADD SWAP1 POP PUSH2 0x81A PUSH1 0x0 DUP4 ADD DUP6 PUSH2 0x748 JUMP JUMPDEST PUSH2 0x827 PUSH1 0x20 DUP4 ADD DUP5 PUSH2 0x7C0 JUMP JUMPDEST SWAP4 SWAP3 POP POP POP JUMP JUMPDEST PUSH1 0x0 PUSH1 0x20 DUP3 ADD SWAP1 POP DUP2 DUP2 SUB PUSH1 0x0 DUP4 ADD MSTORE PUSH2 0x847 DUP2 PUSH2 0x757 JUMP JUMPDEST SWAP1 POP SWAP2 SWAP1 POP JUMP JUMPDEST PUSH1 0x0 PUSH1 0x20 DUP3 ADD SWAP1 POP DUP2 DUP2 SUB PUSH1 0x0 DUP4 ADD MSTORE PUSH2 0x867 DUP2 PUSH2 0x77A JUMP JUMPDEST SWAP1 POP SWAP2 SWAP1 POP JUMP JUMPDEST PUSH1 0x0 PUSH1 0x20 DUP3 ADD SWAP1 POP DUP2 DUP2 SUB PUSH1 0x0 DUP4 ADD MSTORE PUSH2 0x887 DUP2 PUSH2 0x79D JUMP JUMPDEST SWAP1 POP SWAP2 SWAP1 POP JUMP JUMPDEST PUSH1 0x0 PUSH1 0x20 DUP3 ADD SWAP1 POP PUSH2 0x8A3 PUSH1 0x0 DUP4 ADD DUP5 PUSH2 0x7C0 JUMP JUMPDEST SWAP3 SWAP2 POP POP JUMP JUMPDEST PUSH1 0x0 DUP3 DUP3 MSTORE PUSH1 0x20 DUP3 ADD SWAP1 POP SWAP3 SWAP2 POP POP JUMP JUMPDEST PUSH1 0x0 PUSH2 0x8C5 DUP3 PUSH2 0x998 JUMP JUMPDEST SWAP2 POP PUSH2 0x8D0 DUP4 PUSH2 0x998 JUMP JUMPDEST SWAP3 POP DUP2 PUSH32 0xFFFFFFFFFFFFFFFFFFFFFFFFFFFFFFFFFFFFFFFFFFFFFFFFFFFFFFFFFFFFFFFF DIV DUP4 GT DUP3 ISZERO ISZERO AND ISZERO PUSH2 0x909 JUMPI PUSH2 0x908 PUSH2 0x9A2 JUMP JUMPDEST JUMPDEST DUP3 DUP3 MUL SWAP1 POP SWAP3 SWAP2 POP POP JUMP JUMPDEST PUSH1 0x0 PUSH2 0x91F DUP3 PUSH2 0x998 JUMP JUMPDEST SWAP2 POP PUSH2 0x92A DUP4 PUSH2 0x998 JUMP JUMPDEST SWAP3 POP DUP3 DUP3 LT ISZERO PUSH2 0x93D JUMPI PUSH2 0x93C PUSH2 0x9A2 JUMP JUMPDEST JUMPDEST DUP3 DUP3 SUB SWAP1 POP SWAP3 SWAP2 POP POP JUMP JUMPDEST PUSH1 0x0 PUSH2 0x953 DUP3 PUSH2 0x978 JUMP JUMPDEST SWAP1 POP SWAP2 SWAP1 POP JUMP JUMPDEST PUSH1 0x0 PUSH2 0x965 DUP3 PUSH2 0x978 JUMP JUMPDEST SWAP1 POP SWAP2 SWAP1 POP JUMP JUMPDEST PUSH1 0x0 DUP2 ISZERO ISZERO SWAP1 POP SWAP2 SWAP1 POP JUMP JUMPDEST PUSH1 0x0 PUSH20 0xFFFFFFFFFFFFFFFFFFFFFFFFFFFFFFFFFFFFFFFF DUP3 AND SWAP1 POP SWAP2 SWAP1 POP JUMP JUMPDEST PUSH1 0x0 DUP2 SWAP1 POP SWAP2 SWAP1 POP JUMP JUMPDEST PUSH32 0x4E487B7100000000000000000000000000000000000000000000000000000000 PUSH1 0x0 MSTORE PUSH1 0x11 PUSH1 0x4 MSTORE PUSH1 0x24 PUSH1 0x0 REVERT JUMPDEST PUSH1 0x0 DUP1 REVERT JUMPDEST PUSH32 0x4E6F207469656E6573207065726D69736F73207061726120656A656375746172 PUSH1 0x0 DUP3 ADD MSTORE PUSH32 0x20657374612066756E63696F6E00000000000000000000000000000000000000 PUSH1 0x20 DUP3 ADD MSTORE POP JUMP JUMPDEST PUSH32 0x436F6D707261206D656E6F7320546F6B656E73206F207061676120636F6E206D PUSH1 0x0 DUP3 ADD MSTORE PUSH32 0x6173206574686572732E00000000000000000000000000000000000000000000 PUSH1 0x20 DUP3 ADD MSTORE POP JUMP JUMPDEST PUSH32 0x436F6D70726120756E206E756D65726F206D656E6F7220646520546F6B656E73 PUSH1 0x0 DUP3 ADD MSTORE POP JUMP JUMPDEST PUSH2 0xAA6 DUP2 PUSH2 0x948 JUMP JUMPDEST DUP2 EQ PUSH2 0xAB1 JUMPI PUSH1 0x0 DUP1 REVERT JUMPDEST POP JUMP JUMPDEST PUSH2 0xABD DUP2 PUSH2 0x96C JUMP JUMPDEST DUP2 EQ PUSH2 0xAC8 JUMPI PUSH1 0x0 DUP1 REVERT JUMPDEST POP JUMP JUMPDEST PUSH2 0xAD4 DUP2 PUSH2 0x998 JUMP JUMPDEST DUP2 EQ PUSH2 0xADF JUMPI PUSH1 0x0 DUP1 REVERT JUMPDEST POP JUMP INVALID LOG2 PUSH5 0x6970667358 0x22 SLT KECCAK256 0xE4 SWAP2 0xD2 SWAP3 0xAE 0xC1 JUMPI 0xDE 0x4B 0xDA 0x4B DIFFICULTY 0xB3 0x2C 0x4D 0x2F GASPRICE 0xD4 0xBD PUSH3 0x544F72 NOT DUP15 0xEA INVALID 0xAA PUSH11 0x7C110664736F6C63430008 SMOD STOP CALLER PUSH1 0x80 PUSH1 0x40 MSTORE CALLVALUE DUP1 ISZERO PUSH2 0x10 JUMPI PUSH1 0x0 DUP1 REVERT JUMPDEST POP PUSH1 0x40 MLOAD PUSH2 0xFBB CODESIZE SUB DUP1 PUSH2 0xFBB DUP4 CODECOPY DUP2 DUP2 ADD PUSH1 0x40 MSTORE DUP2 ADD SWAP1 PUSH2 0x32 SWAP2 SWAP1 PUSH2 0x99 JUMP JUMPDEST DUP1 PUSH1 0x2 DUP2 SWAP1 SSTORE POP PUSH1 0x2 SLOAD PUSH1 0x0 DUP1 CALLER PUSH20 0xFFFFFFFFFFFFFFFFFFFFFFFFFFFFFFFFFFFFFFFF AND PUSH20 0xFFFFFFFFFFFFFFFFFFFFFFFFFFFFFFFFFFFFFFFF AND DUP2 MSTORE PUSH1 0x20 ADD SWAP1 DUP2 MSTORE PUSH1 0x20 ADD PUSH1 0x0 KECCAK256 DUP2 SWAP1 SSTORE POP POP PUSH2 0xEC JUMP JUMPDEST PUSH1 0x0 DUP2 MLOAD SWAP1 POP PUSH2 0x93 DUP2 PUSH2 0xD5 JUMP JUMPDEST SWAP3 SWAP2 POP POP JUMP JUMPDEST PUSH1 0x0 PUSH1 0x20 DUP3 DUP5 SUB SLT ISZERO PUSH2 0xAF JUMPI PUSH2 0xAE PUSH2 0xD0 JUMP JUMPDEST JUMPDEST PUSH1 0x0 PUSH2 0xBD DUP5 DUP3 DUP6 ADD PUSH2 0x84 JUMP JUMPDEST SWAP2 POP POP SWAP3 SWAP2 POP POP JUMP JUMPDEST PUSH1 0x0 DUP2 SWAP1 POP SWAP2 SWAP1 POP JUMP JUMPDEST PUSH1 0x0 DUP1 REVERT JUMPDEST PUSH2 0xDE DUP2 PUSH2 0xC6 JUMP JUMPDEST DUP2 EQ PUSH2 0xE9 JUMPI PUSH1 0x0 DUP1 REVERT JUMPDEST POP JUMP JUMPDEST PUSH2 0xEC0 DUP1 PUSH2 0xFB PUSH1 0x0 CODECOPY PUSH1 0x0 RETURN INVALID PUSH1 0x80 PUSH1 0x40 MSTORE CALLVALUE DUP1 ISZERO PUSH2 0x10 JUMPI PUSH1 0x0 DUP1 REVERT JUMPDEST POP PUSH1 0x4 CALLDATASIZE LT PUSH2 0x9E JUMPI PUSH1 0x0 CALLDATALOAD PUSH1 0xE0 SHR DUP1 PUSH4 0x313CE567 GT PUSH2 0x66 JUMPI DUP1 PUSH4 0x313CE567 EQ PUSH2 0x15B JUMPI DUP1 PUSH4 0x70A08231 EQ PUSH2 0x179 JUMPI DUP1 PUSH4 0x95D89B41 EQ PUSH2 0x1A9 JUMPI DUP1 PUSH4 0xA9059CBB EQ PUSH2 0x1C7 JUMPI DUP1 PUSH4 0xDD62ED3E EQ PUSH2 0x1F7 JUMPI PUSH2 0x9E JUMP JUMPDEST DUP1 PUSH4 0x6FDDE03 EQ PUSH2 0xA3 JUMPI DUP1 PUSH4 0x95EA7B3 EQ PUSH2 0xC1 JUMPI DUP1 PUSH4 0x18160DDD EQ PUSH2 0xF1 JUMPI DUP1 PUSH4 0x1D43CC98 EQ PUSH2 0x10F JUMPI DUP1 PUSH4 0x23B872DD EQ PUSH2 0x12B JUMPI JUMPDEST PUSH1 0x0 DUP1 REVERT JUMPDEST PUSH2 0xAB PUSH2 0x227 JUMP JUMPDEST PUSH1 0x40 MLOAD PUSH2 0xB8 SWAP2 SWAP1 PUSH2 0xC62 JUMP JUMPDEST PUSH1 0x40 MLOAD DUP1 SWAP2 SUB SWAP1 RETURN JUMPDEST PUSH2 0xDB PUSH1 0x4 DUP1 CALLDATASIZE SUB DUP2 ADD SWAP1 PUSH2 0xD6 SWAP2 SWAP1 PUSH2 0xB74 JUMP JUMPDEST PUSH2 0x260 JUMP JUMPDEST PUSH1 0x40 MLOAD PUSH2 0xE8 SWAP2 SWAP1 PUSH2 0xC47 JUMP JUMPDEST PUSH1 0x40 MLOAD DUP1 SWAP2 SUB SWAP1 RETURN JUMPDEST PUSH2 0xF9 PUSH2 0x352 JUMP JUMPDEST PUSH1 0x40 MLOAD PUSH2 0x106 SWAP2 SWAP1 PUSH2 0xC84 JUMP JUMPDEST PUSH1 0x40 MLOAD DUP1 SWAP2 SUB SWAP1 RETURN JUMPDEST PUSH2 0x129 PUSH1 0x4 DUP1 CALLDATASIZE SUB DUP2 ADD SWAP1 PUSH2 0x124 SWAP2 SWAP1 PUSH2 0xBB4 JUMP JUMPDEST PUSH2 0x35C JUMP JUMPDEST STOP JUMPDEST PUSH2 0x145 PUSH1 0x4 DUP1 CALLDATASIZE SUB DUP2 ADD SWAP1 PUSH2 0x140 SWAP2 SWAP1 PUSH2 0xB21 JUMP JUMPDEST PUSH2 0x3CD JUMP JUMPDEST PUSH1 0x40 MLOAD PUSH2 0x152 SWAP2 SWAP1 PUSH2 0xC47 JUMP JUMPDEST PUSH1 0x40 MLOAD DUP1 SWAP2 SUB SWAP1 RETURN JUMPDEST PUSH2 0x163 PUSH2 0x748 JUMP JUMPDEST PUSH1 0x40 MLOAD PUSH2 0x170 SWAP2 SWAP1 PUSH2 0xC9F JUMP JUMPDEST PUSH1 0x40 MLOAD DUP1 SWAP2 SUB SWAP1 RETURN JUMPDEST PUSH2 0x193 PUSH1 0x4 DUP1 CALLDATASIZE SUB DUP2 ADD SWAP1 PUSH2 0x18E SWAP2 SWAP1 PUSH2 0xAB4 JUMP JUMPDEST PUSH2 0x74D JUMP JUMPDEST PUSH1 0x40 MLOAD PUSH2 0x1A0 SWAP2 SWAP1 PUSH2 0xC84 JUMP JUMPDEST PUSH1 0x40 MLOAD DUP1 SWAP2 SUB SWAP1 RETURN JUMPDEST PUSH2 0x1B1 PUSH2 0x795 JUMP JUMPDEST PUSH1 0x40 MLOAD PUSH2 0x1BE SWAP2 SWAP1 PUSH2 0xC62 JUMP JUMPDEST PUSH1 0x40 MLOAD DUP1 SWAP2 SUB SWAP1 RETURN JUMPDEST PUSH2 0x1E1 PUSH1 0x4 DUP1 CALLDATASIZE SUB DUP2 ADD SWAP1 PUSH2 0x1DC SWAP2 SWAP1 PUSH2 0xB74 JUMP JUMPDEST PUSH2 0x7CE JUMP JUMPDEST PUSH1 0x40 MLOAD PUSH2 0x1EE SWAP2 SWAP1 PUSH2 0xC47 JUMP JUMPDEST PUSH1 0x40 MLOAD DUP1 SWAP2 SUB SWAP1 RETURN JUMPDEST PUSH2 0x211 PUSH1 0x4 DUP1 CALLDATASIZE SUB DUP2 ADD SWAP1 PUSH2 0x20C SWAP2 SWAP1 PUSH2 0xAE1 JUMP JUMPDEST PUSH2 0x9B0 JUMP JUMPDEST PUSH1 0x40 MLOAD PUSH2 0x21E SWAP2 SWAP1 PUSH2 0xC84 JUMP JUMPDEST PUSH1 0x40 MLOAD DUP1 SWAP2 SUB SWAP1 RETURN JUMPDEST PUSH1 0x40 MLOAD DUP1 PUSH1 0x40 ADD PUSH1 0x40 MSTORE DUP1 PUSH1 0x11 DUP2 MSTORE PUSH1 0x20 ADD PUSH32 0x4552433230426C6F636B636861696E415A000000000000000000000000000000 DUP2 MSTORE POP DUP2 JUMP JUMPDEST PUSH1 0x0 DUP2 PUSH1 0x1 PUSH1 0x0 CALLER PUSH20 0xFFFFFFFFFFFFFFFFFFFFFFFFFFFFFFFFFFFFFFFF AND PUSH20 0xFFFFFFFFFFFFFFFFFFFFFFFFFFFFFFFFFFFFFFFF AND DUP2 MSTORE PUSH1 0x20 ADD SWAP1 DUP2 MSTORE PUSH1 0x20 ADD PUSH1 0x0 KECCAK256 PUSH1 0x0 DUP6 PUSH20 0xFFFFFFFFFFFFFFFFFFFFFFFFFFFFFFFFFFFFFFFF AND PUSH20 0xFFFFFFFFFFFFFFFFFFFFFFFFFFFFFFFFFFFFFFFF AND DUP2 MSTORE PUSH1 0x20 ADD SWAP1 DUP2 MSTORE PUSH1 0x20 ADD PUSH1 0x0 KECCAK256 DUP2 SWAP1 SSTORE POP DUP3 PUSH20 0xFFFFFFFFFFFFFFFFFFFFFFFFFFFFFFFFFFFFFFFF AND CALLER PUSH20 0xFFFFFFFFFFFFFFFFFFFFFFFFFFFFFFFFFFFFFFFF AND PUSH32 0x8C5BE1E5EBEC7D5BD14F71427D1E84F3DD0314C0F7B2291E5B200AC8C7C3B925 DUP5 PUSH1 0x40 MLOAD PUSH2 0x340 SWAP2 SWAP1 PUSH2 0xC84 JUMP JUMPDEST PUSH1 0x40 MLOAD DUP1 SWAP2 SUB SWAP1 LOG3 PUSH1 0x1 SWAP1 POP SWAP3 SWAP2 POP POP JUMP JUMPDEST PUSH1 0x0 PUSH1 0x2 SLOAD SWAP1 POP SWAP1 JUMP JUMPDEST DUP1 PUSH1 0x2 PUSH1 0x0 DUP3 DUP3 SLOAD PUSH2 0x36E SWAP2 SWAP1 PUSH2 0xCD6 JUMP JUMPDEST SWAP3 POP POP DUP2 SWAP1 SSTORE POP DUP1 PUSH1 0x0 DUP1 CALLER PUSH20 0xFFFFFFFFFFFFFFFFFFFFFFFFFFFFFFFFFFFFFFFF AND PUSH20 0xFFFFFFFFFFFFFFFFFFFFFFFFFFFFFFFFFFFFFFFF AND DUP2 MSTORE PUSH1 0x20 ADD SWAP1 DUP2 MSTORE PUSH1 0x20 ADD PUSH1 0x0 KECCAK256 PUSH1 0x0 DUP3 DUP3 SLOAD PUSH2 0x3C3 SWAP2 SWAP1 PUSH2 0xCD6 JUMP JUMPDEST SWAP3 POP POP DUP2 SWAP1 SSTORE POP POP JUMP JUMPDEST PUSH1 0x0 DUP1 PUSH1 0x0 DUP6 PUSH20 0xFFFFFFFFFFFFFFFFFFFFFFFFFFFFFFFFFFFFFFFF AND PUSH20 0xFFFFFFFFFFFFFFFFFFFFFFFFFFFFFFFFFFFFFFFF AND DUP2 MSTORE PUSH1 0x20 ADD SWAP1 DUP2 MSTORE PUSH1 0x20 ADD PUSH1 0x0 KECCAK256 SLOAD DUP3 GT ISZERO PUSH2 0x41A JUMPI PUSH1 0x0 DUP1 REVERT JUMPDEST PUSH1 0x1 PUSH1 0x0 DUP6 PUSH20 0xFFFFFFFFFFFFFFFFFFFFFFFFFFFFFFFFFFFFFFFF AND PUSH20 0xFFFFFFFFFFFFFFFFFFFFFFFFFFFFFFFFFFFFFFFF AND DUP2 MSTORE PUSH1 0x20 ADD SWAP1 DUP2 MSTORE PUSH1 0x20 ADD PUSH1 0x0 KECCAK256 PUSH1 0x0 CALLER PUSH20 0xFFFFFFFFFFFFFFFFFFFFFFFFFFFFFFFFFFFFFFFF AND PUSH20 0xFFFFFFFFFFFFFFFFFFFFFFFFFFFFFFFFFFFFFFFF AND DUP2 MSTORE PUSH1 0x20 ADD SWAP1 DUP2 MSTORE PUSH1 0x20 ADD PUSH1 0x0 KECCAK256 SLOAD DUP3 GT ISZERO PUSH2 0x4A3 JUMPI PUSH1 0x0 DUP1 REVERT JUMPDEST PUSH2 0x4F4 DUP3 PUSH1 0x0 DUP1 DUP8 PUSH20 0xFFFFFFFFFFFFFFFFFFFFFFFFFFFFFFFFFFFFFFFF AND PUSH20 0xFFFFFFFFFFFFFFFFFFFFFFFFFFFFFFFFFFFFFFFF AND DUP2 MSTORE PUSH1 0x20 ADD SWAP1 DUP2 MSTORE PUSH1 0x20 ADD PUSH1 0x0 KECCAK256 SLOAD PUSH2 0xA37 SWAP1 SWAP2 SWAP1 PUSH4 0xFFFFFFFF AND JUMP JUMPDEST PUSH1 0x0 DUP1 DUP7 PUSH20 0xFFFFFFFFFFFFFFFFFFFFFFFFFFFFFFFFFFFFFFFF AND PUSH20 0xFFFFFFFFFFFFFFFFFFFFFFFFFFFFFFFFFFFFFFFF AND DUP2 MSTORE PUSH1 0x20 ADD SWAP1 DUP2 MSTORE PUSH1 0x20 ADD PUSH1 0x0 KECCAK256 DUP2 SWAP1 SSTORE POP PUSH2 0x5C5 DUP3 PUSH1 0x1 PUSH1 0x0 DUP8 PUSH20 0xFFFFFFFFFFFFFFFFFFFFFFFFFFFFFFFFFFFFFFFF AND PUSH20 0xFFFFFFFFFFFFFFFFFFFFFFFFFFFFFFFFFFFFFFFF AND DUP2 MSTORE PUSH1 0x20 ADD SWAP1 DUP2 MSTORE PUSH1 0x20 ADD PUSH1 0x0 KECCAK256 PUSH1 0x0 CALLER PUSH20 0xFFFFFFFFFFFFFFFFFFFFFFFFFFFFFFFFFFFFFFFF AND PUSH20 0xFFFFFFFFFFFFFFFFFFFFFFFFFFFFFFFFFFFFFFFF AND DUP2 MSTORE PUSH1 0x20 ADD SWAP1 DUP2 MSTORE PUSH1 0x20 ADD PUSH1 0x0 KECCAK256 SLOAD PUSH2 0xA37 SWAP1 SWAP2 SWAP1 PUSH4 0xFFFFFFFF AND JUMP JUMPDEST PUSH1 0x1 PUSH1 0x0 DUP7 PUSH20 0xFFFFFFFFFFFFFFFFFFFFFFFFFFFFFFFFFFFFFFFF AND PUSH20 0xFFFFFFFFFFFFFFFFFFFFFFFFFFFFFFFFFFFFFFFF AND DUP2 MSTORE PUSH1 0x20 ADD SWAP1 DUP2 MSTORE PUSH1 0x20 ADD PUSH1 0x0 KECCAK256 PUSH1 0x0 CALLER PUSH20 0xFFFFFFFFFFFFFFFFFFFFFFFFFFFFFFFFFFFFFFFF AND PUSH20 0xFFFFFFFFFFFFFFFFFFFFFFFFFFFFFFFFFFFFFFFF AND DUP2 MSTORE PUSH1 0x20 ADD SWAP1 DUP2 MSTORE PUSH1 0x20 ADD PUSH1 0x0 KECCAK256 DUP2 SWAP1 SSTORE POP PUSH2 0x696 DUP3 PUSH1 0x0 DUP1 DUP7 PUSH20 0xFFFFFFFFFFFFFFFFFFFFFFFFFFFFFFFFFFFFFFFF AND PUSH20 0xFFFFFFFFFFFFFFFFFFFFFFFFFFFFFFFFFFFFFFFF AND DUP2 MSTORE PUSH1 0x20 ADD SWAP1 DUP2 MSTORE PUSH1 0x20 ADD PUSH1 0x0 KECCAK256 SLOAD PUSH2 0xA5E SWAP1 SWAP2 SWAP1 PUSH4 0xFFFFFFFF AND JUMP JUMPDEST PUSH1 0x0 DUP1 DUP6 PUSH20 0xFFFFFFFFFFFFFFFFFFFFFFFFFFFFFFFFFFFFFFFF AND PUSH20 0xFFFFFFFFFFFFFFFFFFFFFFFFFFFFFFFFFFFFFFFF AND DUP2 MSTORE PUSH1 0x20 ADD SWAP1 DUP2 MSTORE PUSH1 0x20 ADD PUSH1 0x0 KECCAK256 DUP2 SWAP1 SSTORE POP DUP3 PUSH20 0xFFFFFFFFFFFFFFFFFFFFFFFFFFFFFFFFFFFFFFFF AND DUP5 PUSH20 0xFFFFFFFFFFFFFFFFFFFFFFFFFFFFFFFFFFFFFFFF AND PUSH32 0xDDF252AD1BE2C89B69C2B068FC378DAA952BA7F163C4A11628F55A4DF523B3EF DUP5 PUSH1 0x40 MLOAD PUSH2 0x735 SWAP2 SWAP1 PUSH2 0xC84 JUMP JUMPDEST PUSH1 0x40 MLOAD DUP1 SWAP2 SUB SWAP1 LOG3 PUSH1 0x1 SWAP1 POP SWAP4 SWAP3 POP POP POP JUMP JUMPDEST PUSH1 0x2 DUP2 JUMP JUMPDEST PUSH1 0x0 DUP1 PUSH1 0x0 DUP4 PUSH20 0xFFFFFFFFFFFFFFFFFFFFFFFFFFFFFFFFFFFFFFFF AND PUSH20 0xFFFFFFFFFFFFFFFFFFFFFFFFFFFFFFFFFFFFFFFF AND DUP2 MSTORE PUSH1 0x20 ADD SWAP1 DUP2 MSTORE PUSH1 0x20 ADD PUSH1 0x0 KECCAK256 SLOAD SWAP1 POP SWAP2 SWAP1 POP JUMP JUMPDEST PUSH1 0x40 MLOAD DUP1 PUSH1 0x40 ADD PUSH1 0x40 MSTORE DUP1 PUSH1 0x3 DUP2 MSTORE PUSH1 0x20 ADD PUSH32 0x4552430000000000000000000000000000000000000000000000000000000000 DUP2 MSTORE POP DUP2 JUMP JUMPDEST PUSH1 0x0 DUP1 PUSH1 0x0 CALLER PUSH20 0xFFFFFFFFFFFFFFFFFFFFFFFFFFFFFFFFFFFFFFFF AND PUSH20 0xFFFFFFFFFFFFFFFFFFFFFFFFFFFFFFFFFFFFFFFF AND DUP2 MSTORE PUSH1 0x20 ADD SWAP1 DUP2 MSTORE PUSH1 0x20 ADD PUSH1 0x0 KECCAK256 SLOAD DUP3 GT ISZERO PUSH2 0x81B JUMPI PUSH1 0x0 DUP1 REVERT JUMPDEST PUSH2 0x86C DUP3 PUSH1 0x0 DUP1 CALLER PUSH20 0xFFFFFFFFFFFFFFFFFFFFFFFFFFFFFFFFFFFFFFFF AND PUSH20 0xFFFFFFFFFFFFFFFFFFFFFFFFFFFFFFFFFFFFFFFF AND DUP2 MSTORE PUSH1 0x20 ADD SWAP1 DUP2 MSTORE PUSH1 0x20 ADD PUSH1 0x0 KECCAK256 SLOAD PUSH2 0xA37 SWAP1 SWAP2 SWAP1 PUSH4 0xFFFFFFFF AND JUMP JUMPDEST PUSH1 0x0 DUP1 CALLER PUSH20 0xFFFFFFFFFFFFFFFFFFFFFFFFFFFFFFFFFFFFFFFF AND PUSH20 0xFFFFFFFFFFFFFFFFFFFFFFFFFFFFFFFFFFFFFFFF AND DUP2 MSTORE PUSH1 0x20 ADD SWAP1 DUP2 MSTORE PUSH1 0x20 ADD PUSH1 0x0 KECCAK256 DUP2 SWAP1 SSTORE POP PUSH2 0x8FF DUP3 PUSH1 0x0 DUP1 DUP7 PUSH20 0xFFFFFFFFFFFFFFFFFFFFFFFFFFFFFFFFFFFFFFFF AND PUSH20 0xFFFFFFFFFFFFFFFFFFFFFFFFFFFFFFFFFFFFFFFF AND DUP2 MSTORE PUSH1 0x20 ADD SWAP1 DUP2 MSTORE PUSH1 0x20 ADD PUSH1 0x0 KECCAK256 SLOAD PUSH2 0xA5E SWAP1 SWAP2 SWAP1 PUSH4 0xFFFFFFFF AND JUMP JUMPDEST PUSH1 0x0 DUP1 DUP6 PUSH20 0xFFFFFFFFFFFFFFFFFFFFFFFFFFFFFFFFFFFFFFFF AND PUSH20 0xFFFFFFFFFFFFFFFFFFFFFFFFFFFFFFFFFFFFFFFF AND DUP2 MSTORE PUSH1 0x20 ADD SWAP1 DUP2 MSTORE PUSH1 0x20 ADD PUSH1 0x0 KECCAK256 DUP2 SWAP1 SSTORE POP DUP3 PUSH20 0xFFFFFFFFFFFFFFFFFFFFFFFFFFFFFFFFFFFFFFFF AND CALLER PUSH20 0xFFFFFFFFFFFFFFFFFFFFFFFFFFFFFFFFFFFFFFFF AND PUSH32 0xDDF252AD1BE2C89B69C2B068FC378DAA952BA7F163C4A11628F55A4DF523B3EF DUP5 PUSH1 0x40 MLOAD PUSH2 0x99E SWAP2 SWAP1 PUSH2 0xC84 JUMP JUMPDEST PUSH1 0x40 MLOAD DUP1 SWAP2 SUB SWAP1 LOG3 PUSH1 0x1 SWAP1 POP SWAP3 SWAP2 POP POP JUMP JUMPDEST PUSH1 0x0 PUSH1 0x1 PUSH1 0x0 DUP5 PUSH20 0xFFFFFFFFFFFFFFFFFFFFFFFFFFFFFFFFFFFFFFFF AND PUSH20 0xFFFFFFFFFFFFFFFFFFFFFFFFFFFFFFFFFFFFFFFF AND DUP2 MSTORE PUSH1 0x20 ADD SWAP1 DUP2 MSTORE PUSH1 0x20 ADD PUSH1 0x0 KECCAK256 PUSH1 0x0 DUP4 PUSH20 0xFFFFFFFFFFFFFFFFFFFFFFFFFFFFFFFFFFFFFFFF AND PUSH20 0xFFFFFFFFFFFFFFFFFFFFFFFFFFFFFFFFFFFFFFFF AND DUP2 MSTORE PUSH1 0x20 ADD SWAP1 DUP2 MSTORE PUSH1 0x20 ADD PUSH1 0x0 KECCAK256 SLOAD SWAP1 POP SWAP3 SWAP2 POP POP JUMP JUMPDEST PUSH1 0x0 DUP3 DUP3 GT ISZERO PUSH2 0xA4A JUMPI PUSH2 0xA49 PUSH2 0xDE8 JUMP JUMPDEST JUMPDEST DUP2 DUP4 PUSH2 0xA56 SWAP2 SWAP1 PUSH2 0xD2C JUMP JUMPDEST SWAP1 POP SWAP3 SWAP2 POP POP JUMP JUMPDEST PUSH1 0x0 DUP1 DUP3 DUP5 PUSH2 0xA6D SWAP2 SWAP1 PUSH2 0xCD6 JUMP JUMPDEST SWAP1 POP DUP4 DUP2 LT ISZERO PUSH2 0xA80 JUMPI PUSH2 0xA7F PUSH2 0xDE8 JUMP JUMPDEST JUMPDEST DUP1 SWAP2 POP POP SWAP3 SWAP2 POP POP JUMP JUMPDEST PUSH1 0x0 DUP2 CALLDATALOAD SWAP1 POP PUSH2 0xA99 DUP2 PUSH2 0xE5C JUMP JUMPDEST SWAP3 SWAP2 POP POP JUMP JUMPDEST PUSH1 0x0 DUP2 CALLDATALOAD SWAP1 POP PUSH2 0xAAE DUP2 PUSH2 0xE73 JUMP JUMPDEST SWAP3 SWAP2 POP POP JUMP JUMPDEST PUSH1 0x0 PUSH1 0x20 DUP3 DUP5 SUB SLT ISZERO PUSH2 0xACA JUMPI PUSH2 0xAC9 PUSH2 0xE46 JUMP JUMPDEST JUMPDEST PUSH1 0x0 PUSH2 0xAD8 DUP5 DUP3 DUP6 ADD PUSH2 0xA8A JUMP JUMPDEST SWAP2 POP POP SWAP3 SWAP2 POP POP JUMP JUMPDEST PUSH1 0x0 DUP1 PUSH1 0x40 DUP4 DUP6 SUB SLT ISZERO PUSH2 0xAF8 JUMPI PUSH2 0xAF7 PUSH2 0xE46 JUMP JUMPDEST JUMPDEST PUSH1 0x0 PUSH2 0xB06 DUP6 DUP3 DUP7 ADD PUSH2 0xA8A JUMP JUMPDEST SWAP3 POP POP PUSH1 0x20 PUSH2 0xB17 DUP6 DUP3 DUP7 ADD PUSH2 0xA8A JUMP JUMPDEST SWAP2 POP POP SWAP3 POP SWAP3 SWAP1 POP JUMP JUMPDEST PUSH1 0x0 DUP1 PUSH1 0x0 PUSH1 0x60 DUP5 DUP7 SUB SLT ISZERO PUSH2 0xB3A JUMPI PUSH2 0xB39 PUSH2 0xE46 JUMP JUMPDEST JUMPDEST PUSH1 0x0 PUSH2 0xB48 DUP7 DUP3 DUP8 ADD PUSH2 0xA8A JUMP JUMPDEST SWAP4 POP POP PUSH1 0x20 PUSH2 0xB59 DUP7 DUP3 DUP8 ADD PUSH2 0xA8A JUMP JUMPDEST SWAP3 POP POP PUSH1 0x40 PUSH2 0xB6A DUP7 DUP3 DUP8 ADD PUSH2 0xA9F JUMP JUMPDEST SWAP2 POP POP SWAP3 POP SWAP3 POP SWAP3 JUMP JUMPDEST PUSH1 0x0 DUP1 PUSH1 0x40 DUP4 DUP6 SUB SLT ISZERO PUSH2 0xB8B JUMPI PUSH2 0xB8A PUSH2 0xE46 JUMP JUMPDEST JUMPDEST PUSH1 0x0 PUSH2 0xB99 DUP6 DUP3 DUP7 ADD PUSH2 0xA8A JUMP JUMPDEST SWAP3 POP POP PUSH1 0x20 PUSH2 0xBAA DUP6 DUP3 DUP7 ADD PUSH2 0xA9F JUMP JUMPDEST SWAP2 POP POP SWAP3 POP SWAP3 SWAP1 POP JUMP JUMPDEST PUSH1 0x0 PUSH1 0x20 DUP3 DUP5 SUB SLT ISZERO PUSH2 0xBCA JUMPI PUSH2 0xBC9 PUSH2 0xE46 JUMP JUMPDEST JUMPDEST PUSH1 0x0 PUSH2 0xBD8 DUP5 DUP3 DUP6 ADD PUSH2 0xA9F JUMP JUMPDEST SWAP2 POP POP SWAP3 SWAP2 POP POP JUMP JUMPDEST PUSH2 0xBEA DUP2 PUSH2 0xD72 JUMP JUMPDEST DUP3 MSTORE POP POP JUMP JUMPDEST PUSH1 0x0 PUSH2 0xBFB DUP3 PUSH2 0xCBA JUMP JUMPDEST PUSH2 0xC05 DUP2 DUP6 PUSH2 0xCC5 JUMP JUMPDEST SWAP4 POP PUSH2 0xC15 DUP2 DUP6 PUSH1 0x20 DUP7 ADD PUSH2 0xDB5 JUMP JUMPDEST PUSH2 0xC1E DUP2 PUSH2 0xE4B JUMP JUMPDEST DUP5 ADD SWAP2 POP POP SWAP3 SWAP2 POP POP JUMP JUMPDEST PUSH2 0xC32 DUP2 PUSH2 0xD9E JUMP JUMPDEST DUP3 MSTORE POP POP JUMP JUMPDEST PUSH2 0xC41 DUP2 PUSH2 0xDA8 JUMP JUMPDEST DUP3 MSTORE POP POP JUMP JUMPDEST PUSH1 0x0 PUSH1 0x20 DUP3 ADD SWAP1 POP PUSH2 0xC5C PUSH1 0x0 DUP4 ADD DUP5 PUSH2 0xBE1 JUMP JUMPDEST SWAP3 SWAP2 POP POP JUMP JUMPDEST PUSH1 0x0 PUSH1 0x20 DUP3 ADD SWAP1 POP DUP2 DUP2 SUB PUSH1 0x0 DUP4 ADD MSTORE PUSH2 0xC7C DUP2 DUP5 PUSH2 0xBF0 JUMP JUMPDEST SWAP1 POP SWAP3 SWAP2 POP POP JUMP JUMPDEST PUSH1 0x0 PUSH1 0x20 DUP3 ADD SWAP1 POP PUSH2 0xC99 PUSH1 0x0 DUP4 ADD DUP5 PUSH2 0xC29 JUMP JUMPDEST SWAP3 SWAP2 POP POP JUMP JUMPDEST PUSH1 0x0 PUSH1 0x20 DUP3 ADD SWAP1 POP PUSH2 0xCB4 PUSH1 0x0 DUP4 ADD DUP5 PUSH2 0xC38 JUMP JUMPDEST SWAP3 SWAP2 POP POP JUMP JUMPDEST PUSH1 0x0 DUP2 MLOAD SWAP1 POP SWAP2 SWAP1 POP JUMP JUMPDEST PUSH1 0x0 DUP3 DUP3 MSTORE PUSH1 0x20 DUP3 ADD SWAP1 POP SWAP3 SWAP2 POP POP JUMP JUMPDEST PUSH1 0x0 PUSH2 0xCE1 DUP3 PUSH2 0xD9E JUMP JUMPDEST SWAP2 POP PUSH2 0xCEC DUP4 PUSH2 0xD9E JUMP JUMPDEST SWAP3 POP DUP3 PUSH32 0xFFFFFFFFFFFFFFFFFFFFFFFFFFFFFFFFFFFFFFFFFFFFFFFFFFFFFFFFFFFFFFFF SUB DUP3 GT ISZERO PUSH2 0xD21 JUMPI PUSH2 0xD20 PUSH2 0xE17 JUMP JUMPDEST JUMPDEST DUP3 DUP3 ADD SWAP1 POP SWAP3 SWAP2 POP POP JUMP JUMPDEST PUSH1 0x0 PUSH2 0xD37 DUP3 PUSH2 0xD9E JUMP JUMPDEST SWAP2 POP PUSH2 0xD42 DUP4 PUSH2 0xD9E JUMP JUMPDEST SWAP3 POP DUP3 DUP3 LT ISZERO PUSH2 0xD55 JUMPI PUSH2 0xD54 PUSH2 0xE17 JUMP JUMPDEST JUMPDEST DUP3 DUP3 SUB SWAP1 POP SWAP3 SWAP2 POP POP JUMP JUMPDEST PUSH1 0x0 PUSH2 0xD6B DUP3 PUSH2 0xD7E JUMP JUMPDEST SWAP1 POP SWAP2 SWAP1 POP JUMP JUMPDEST PUSH1 0x0 DUP2 ISZERO ISZERO SWAP1 POP SWAP2 SWAP1 POP JUMP JUMPDEST PUSH1 0x0 PUSH20 0xFFFFFFFFFFFFFFFFFFFFFFFFFFFFFFFFFFFFFFFF DUP3 AND SWAP1 POP SWAP2 SWAP1 POP JUMP JUMPDEST PUSH1 0x0 DUP2 SWAP1 POP SWAP2 SWAP1 POP JUMP JUMPDEST PUSH1 0x0 PUSH1 0xFF DUP3 AND SWAP1 POP SWAP2 SWAP1 POP JUMP JUMPDEST PUSH1 0x0 JUMPDEST DUP4 DUP2 LT ISZERO PUSH2 0xDD3 JUMPI DUP1 DUP3 ADD MLOAD DUP2 DUP5 ADD MSTORE PUSH1 0x20 DUP2 ADD SWAP1 POP PUSH2 0xDB8 JUMP JUMPDEST DUP4 DUP2 GT ISZERO PUSH2 0xDE2 JUMPI PUSH1 0x0 DUP5 DUP5 ADD MSTORE JUMPDEST POP POP POP POP JUMP JUMPDEST PUSH32 0x4E487B7100000000000000000000000000000000000000000000000000000000 PUSH1 0x0 MSTORE PUSH1 0x1 PUSH1 0x4 MSTORE PUSH1 0x24 PUSH1 0x0 REVERT JUMPDEST PUSH32 0x4E487B7100000000000000000000000000000000000000000000000000000000 PUSH1 0x0 MSTORE PUSH1 0x11 PUSH1 0x4 MSTORE PUSH1 0x24 PUSH1 0x0 REVERT JUMPDEST PUSH1 0x0 DUP1 REVERT JUMPDEST PUSH1 0x0 PUSH1 0x1F NOT PUSH1 0x1F DUP4 ADD AND SWAP1 POP SWAP2 SWAP1 POP JUMP JUMPDEST PUSH2 0xE65 DUP2 PUSH2 0xD60 JUMP JUMPDEST DUP2 EQ PUSH2 0xE70 JUMPI PUSH1 0x0 DUP1 REVERT JUMPDEST POP JUMP JUMPDEST PUSH2 0xE7C DUP2 PUSH2 0xD9E JUMP JUMPDEST DUP2 EQ PUSH2 0xE87 JUMPI PUSH1 0x0 DUP1 REVERT JUMPDEST POP JUMP INVALID LOG2 PUSH5 0x6970667358 0x22 SLT KECCAK256 CODESIZE 0xB3 0xB6 0x29 0x22 0xF PUSH28 0xB9B58ABD7142DA7E1995C26E1FA1CE23BECE24CCE293B055DC64736F PUSH13 0x63430008070033000000000000 "
				},
				"gasEstimates": {
					"creation": {
						"codeDepositCost": "568000",
						"executionCost": "infinite",
						"totalCost": "infinite"
					},
					"external": {
						"Clientes(address)": "2916",
						"CompraToken(uint256)": "infinite",
						"GeneraToken(uint256)": "infinite",
						"MisToken()": "infinite",
						"balanceOf()": "infinite",
						"owner()": "2536"
					},
					"internal": {
						"PrecioToken(uint256)": "infinite"
					}
				},
				"methodIdentifiers": {
					"Clientes(address)": "ce8f2f38",
					"CompraToken(uint256)": "48ba0838",
					"GeneraToken(uint256)": "ba2d17fe",
					"MisToken()": "ce6dd8c4",
					"balanceOf()": "722713f7",
					"owner()": "8da5cb5b"
				}
			},
			"storageLayout": {
				"storage": [
					{
						"astId": 420,
						"contract": "Dinsey/dinsey.sol:Dinsey",
						"label": "token",
						"offset": 0,
						"slot": "0",
						"type": "t_contract(ERC20Basic)331"
					},
					{
						"astId": 422,
						"contract": "Dinsey/dinsey.sol:Dinsey",
						"label": "owner",
						"offset": 0,
						"slot": "1",
						"type": "t_address_payable"
					},
					{
						"astId": 453,
						"contract": "Dinsey/dinsey.sol:Dinsey",
						"label": "Clientes",
						"offset": 0,
						"slot": "2",
						"type": "t_mapping(t_address,t_struct(cliente)448_storage)"
					}
				],
				"types": {
					"t_address": {
						"encoding": "inplace",
						"label": "address",
						"numberOfBytes": "20"
					},
					"t_address_payable": {
						"encoding": "inplace",
						"label": "address payable",
						"numberOfBytes": "20"
					},
					"t_array(t_string_storage)dyn_storage": {
						"base": "t_string_storage",
						"encoding": "dynamic_array",
						"label": "string[]",
						"numberOfBytes": "32"
					},
					"t_contract(ERC20Basic)331": {
						"encoding": "inplace",
						"label": "contract ERC20Basic",
						"numberOfBytes": "20"
					},
					"t_mapping(t_address,t_struct(cliente)448_storage)": {
						"encoding": "mapping",
						"key": "t_address",
						"label": "mapping(address => struct Dinsey.cliente)",
						"numberOfBytes": "32",
						"value": "t_struct(cliente)448_storage"
					},
					"t_string_storage": {
						"encoding": "bytes",
						"label": "string",
						"numberOfBytes": "32"
					},
					"t_struct(cliente)448_storage": {
						"encoding": "inplace",
						"label": "struct Dinsey.cliente",
						"members": [
							{
								"astId": 444,
								"contract": "Dinsey/dinsey.sol:Dinsey",
								"label": "tokens_comprados",
								"offset": 0,
								"slot": "0",
								"type": "t_uint256"
							},
							{
								"astId": 447,
								"contract": "Dinsey/dinsey.sol:Dinsey",
								"label": "atracciones_disfrutadas",
								"offset": 0,
								"slot": "1",
								"type": "t_array(t_string_storage)dyn_storage"
							}
						],
						"numberOfBytes": "64"
					},
					"t_uint256": {
						"encoding": "inplace",
						"label": "uint256",
						"numberOfBytes": "32"
					}
				}
			},
			"userdoc": {
				"kind": "user",
				"methods": {},
				"version": 1
			}
		}
	}
}