{
	"Dinsey/dinsey.sol": {
		"Dinsey": {
			"abi": [
				{
					"inputs": [],
					"stateMutability": "nonpayable",
					"type": "constructor"
				},
				{
					"anonymous": false,
					"inputs": [
						{
							"indexed": false,
							"internalType": "string",
							"name": "",
							"type": "string"
						}
					],
					"name": "baja_atraccion",
					"type": "event"
				},
				{
					"anonymous": false,
					"inputs": [
						{
							"indexed": false,
							"internalType": "string",
							"name": "",
							"type": "string"
						}
					],
					"name": "disfruta_attracciones",
					"type": "event"
				},
				{
					"anonymous": false,
					"inputs": [
						{
							"indexed": false,
							"internalType": "string",
							"name": "",
							"type": "string"
						},
						{
							"indexed": false,
							"internalType": "uint256",
							"name": "",
							"type": "uint256"
						}
					],
					"name": "nueva_atraccion",
					"type": "event"
				},
				{
					"inputs": [
						{
							"internalType": "string",
							"name": "_nombreAtraccion",
							"type": "string"
						}
					],
					"name": "BajaAtraccion",
					"outputs": [],
					"stateMutability": "nonpayable",
					"type": "function"
				},
				{
					"inputs": [
						{
							"internalType": "address",
							"name": "",
							"type": "address"
						}
					],
					"name": "Clientes",
					"outputs": [
						{
							"internalType": "uint256",
							"name": "tokens_comprados",
							"type": "uint256"
						}
					],
					"stateMutability": "view",
					"type": "function"
				},
				{
					"inputs": [
						{
							"internalType": "uint256",
							"name": "_numToken",
							"type": "uint256"
						}
					],
					"name": "CompraToken",
					"outputs": [],
					"stateMutability": "payable",
					"type": "function"
				},
				{
					"inputs": [
						{
							"internalType": "uint256",
							"name": "_numTokens",
							"type": "uint256"
						}
					],
					"name": "GeneraToken",
					"outputs": [],
					"stateMutability": "nonpayable",
					"type": "function"
				},
				{
					"inputs": [
						{
							"internalType": "string",
							"name": "",
							"type": "string"
						}
					],
					"name": "MappingAtracciones",
					"outputs": [
						{
							"internalType": "string",
							"name": "nombre_atraccion",
							"type": "string"
						},
						{
							"internalType": "uint256",
							"name": "precio_atraccion",
							"type": "uint256"
						},
						{
							"internalType": "bool",
							"name": "estado_atraccion",
							"type": "bool"
						}
					],
					"stateMutability": "view",
					"type": "function"
				},
				{
					"inputs": [],
					"name": "MisToken",
					"outputs": [
						{
							"internalType": "uint256",
							"name": "",
							"type": "uint256"
						}
					],
					"stateMutability": "view",
					"type": "function"
				},
				{
					"inputs": [
						{
							"internalType": "string",
							"name": "_nombreAtraccion",
							"type": "string"
						},
						{
							"internalType": "uint256",
							"name": "_precio",
							"type": "uint256"
						}
					],
					"name": "NuevaAtraccion",
					"outputs": [],
					"stateMutability": "nonpayable",
					"type": "function"
				},
				{
					"inputs": [],
					"name": "balanceOf",
					"outputs": [
						{
							"internalType": "uint256",
							"name": "",
							"type": "uint256"
						}
					],
					"stateMutability": "view",
					"type": "function"
				},
				{
					"inputs": [],
					"name": "owner",
					"outputs": [
						{
							"internalType": "address payable",
							"name": "",
							"type": "address"
						}
					],
					"stateMutability": "view",
					"type": "function"
				}
			],
			"devdoc": {
				"kind": "dev",
				"methods": {},
				"version": 1
			},
			"evm": {
				"assembly": "    /* \"Dinsey/dinsey.sol\":126:4479  contract Dinsey{\r... */\n  mstore(0x40, 0x80)\n    /* \"Dinsey/dinsey.sol\":361:469  constructor () public {\r... */\n  callvalue\n  dup1\n  iszero\n  tag_1\n  jumpi\n  0x00\n  dup1\n  revert\ntag_1:\n  pop\n    /* \"Dinsey/dinsey.sol\":417:422  10000 */\n  0x2710\n    /* \"Dinsey/dinsey.sol\":402:423  new ERC20Basic(10000) */\n  mload(0x40)\n  tag_4\n  swap1\n  tag_5\n  jump\t// in\ntag_4:\n  tag_6\n  swap2\n  swap1\n  tag_7\n  jump\t// in\ntag_6:\n  mload(0x40)\n  dup1\n  swap2\n  sub\n  swap1\n  0x00\n  create\n  dup1\n  iszero\n  dup1\n  iszero\n  tag_8\n  jumpi\n  returndatasize\n  0x00\n  dup1\n  returndatacopy\n  revert(0x00, returndatasize)\ntag_8:\n  pop\n    /* \"Dinsey/dinsey.sol\":394:399  token */\n  0x00\n  dup1\n    /* \"Dinsey/dinsey.sol\":394:423  token = new ERC20Basic(10000) */\n  0x0100\n  exp\n  dup2\n  sload\n  dup2\n  0xffffffffffffffffffffffffffffffffffffffff\n  mul\n  not\n  and\n  swap1\n  dup4\n  0xffffffffffffffffffffffffffffffffffffffff\n  and\n  mul\n  or\n  swap1\n  sstore\n  pop\n    /* \"Dinsey/dinsey.sol\":450:460  msg.sender */\n  caller\n    /* \"Dinsey/dinsey.sol\":434:439  owner */\n  0x01\n  0x00\n    /* \"Dinsey/dinsey.sol\":434:461  owner = payable(msg.sender) */\n  0x0100\n  exp\n  dup2\n  sload\n  dup2\n  0xffffffffffffffffffffffffffffffffffffffff\n  mul\n  not\n  and\n  swap1\n  dup4\n  0xffffffffffffffffffffffffffffffffffffffff\n  and\n  mul\n  or\n  swap1\n  sstore\n  pop\n    /* \"Dinsey/dinsey.sol\":126:4479  contract Dinsey{\r... */\n  jump(tag_9)\ntag_5:\n  dataSize(sub_1)\n  dup1\n  dataOffset(sub_1)\n  dup4\n  codecopy\n  add\n  swap1\n  jump\t// out\n    /* \"#utility.yul\":7:162   */\ntag_11:\n    /* \"#utility.yul\":106:155   */\n  tag_13\n    /* \"#utility.yul\":149:154   */\n  dup2\n    /* \"#utility.yul\":106:155   */\n  tag_14\n  jump\t// in\ntag_13:\n    /* \"#utility.yul\":101:104   */\n  dup3\n    /* \"#utility.yul\":94:156   */\n  mstore\n    /* \"#utility.yul\":7:162   */\n  pop\n  pop\n  jump\t// out\n    /* \"#utility.yul\":168:414   */\ntag_7:\n    /* \"#utility.yul\":273:277   */\n  0x00\n    /* \"#utility.yul\":311:313   */\n  0x20\n    /* \"#utility.yul\":300:309   */\n  dup3\n    /* \"#utility.yul\":296:314   */\n  add\n    /* \"#utility.yul\":288:314   */\n  swap1\n  pop\n    /* \"#utility.yul\":324:407   */\n  tag_16\n    /* \"#utility.yul\":404:405   */\n  0x00\n    /* \"#utility.yul\":393:402   */\n  dup4\n    /* \"#utility.yul\":389:406   */\n  add\n    /* \"#utility.yul\":380:386   */\n  dup5\n    /* \"#utility.yul\":324:407   */\n  tag_11\n  jump\t// in\ntag_16:\n    /* \"#utility.yul\":168:414   */\n  swap3\n  swap2\n  pop\n  pop\n  jump\t// out\n    /* \"#utility.yul\":420:497   */\ntag_17:\n    /* \"#utility.yul\":457:464   */\n  0x00\n    /* \"#utility.yul\":486:491   */\n  dup2\n    /* \"#utility.yul\":475:491   */\n  swap1\n  pop\n    /* \"#utility.yul\":420:497   */\n  swap2\n  swap1\n  pop\n  jump\t// out\n    /* \"#utility.yul\":503:628   */\ntag_14:\n    /* \"#utility.yul\":565:574   */\n  0x00\n    /* \"#utility.yul\":598:622   */\n  tag_20\n    /* \"#utility.yul\":616:621   */\n  dup3\n    /* \"#utility.yul\":598:622   */\n  tag_17\n  jump\t// in\ntag_20:\n    /* \"#utility.yul\":585:622   */\n  swap1\n  pop\n    /* \"#utility.yul\":503:628   */\n  swap2\n  swap1\n  pop\n  jump\t// out\n    /* \"Dinsey/dinsey.sol\":126:4479  contract Dinsey{\r... */\ntag_9:\n  dataSize(sub_0)\n  dup1\n  dataOffset(sub_0)\n  0x00\n  codecopy\n  0x00\n  return\nstop\n\nsub_0: assembly {\n        /* \"Dinsey/dinsey.sol\":126:4479  contract Dinsey{\r... */\n      mstore(0x40, 0x80)\n      jumpi(tag_1, lt(calldatasize, 0x04))\n      shr(0xe0, calldataload(0x00))\n      dup1\n      0xba2d17fe\n      gt\n      tag_11\n      jumpi\n      dup1\n      0xba2d17fe\n      eq\n      tag_6\n      jumpi\n      dup1\n      0xc66dca40\n      eq\n      tag_7\n      jumpi\n      dup1\n      0xce6dd8c4\n      eq\n      tag_8\n      jumpi\n      dup1\n      0xce8f2f38\n      eq\n      tag_9\n      jumpi\n      dup1\n      0xd00df296\n      eq\n      tag_10\n      jumpi\n      jump(tag_1)\n    tag_11:\n      dup1\n      0x2076b56c\n      eq\n      tag_2\n      jumpi\n      dup1\n      0x48ba0838\n      eq\n      tag_3\n      jumpi\n      dup1\n      0x722713f7\n      eq\n      tag_4\n      jumpi\n      dup1\n      0x8da5cb5b\n      eq\n      tag_5\n      jumpi\n    tag_1:\n      0x00\n      dup1\n      revert\n        /* \"Dinsey/dinsey.sol\":3575:4038  function NuevaAtraccion(string memory _nombreAtraccion, uint _precio) public Unicamente(msg.sender){\r... */\n    tag_2:\n      callvalue\n      dup1\n      iszero\n      tag_12\n      jumpi\n      0x00\n      dup1\n      revert\n    tag_12:\n      pop\n      tag_13\n      0x04\n      dup1\n      calldatasize\n      sub\n      dup2\n      add\n      swap1\n      tag_14\n      swap2\n      swap1\n      tag_15\n      jump\t// in\n    tag_14:\n      tag_16\n      jump\t// in\n    tag_13:\n      stop\n        /* \"Dinsey/dinsey.sol\":1090:1977  function CompraToken(uint _numToken) public payable{\r... */\n    tag_3:\n      tag_17\n      0x04\n      dup1\n      calldatasize\n      sub\n      dup2\n      add\n      swap1\n      tag_18\n      swap2\n      swap1\n      tag_19\n      jump\t// in\n    tag_18:\n      tag_20\n      jump\t// in\n    tag_17:\n      stop\n        /* \"Dinsey/dinsey.sol\":2031:2134  function balanceOf() public view returns (uint){\r... */\n    tag_4:\n      callvalue\n      dup1\n      iszero\n      tag_21\n      jumpi\n      0x00\n      dup1\n      revert\n    tag_21:\n      pop\n      tag_22\n      tag_23\n      jump\t// in\n    tag_22:\n      mload(0x40)\n      tag_24\n      swap2\n      swap1\n      tag_25\n      jump\t// in\n    tag_24:\n      mload(0x40)\n      dup1\n      swap2\n      sub\n      swap1\n      return\n        /* \"Dinsey/dinsey.sol\":324:352  address payable public owner */\n    tag_5:\n      callvalue\n      dup1\n      iszero\n      tag_26\n      jumpi\n      0x00\n      dup1\n      revert\n    tag_26:\n      pop\n      tag_27\n      tag_28\n      jump\t// in\n    tag_27:\n      mload(0x40)\n      tag_29\n      swap2\n      swap1\n      tag_30\n      jump\t// in\n    tag_29:\n      mload(0x40)\n      dup1\n      swap2\n      sub\n      swap1\n      return\n        /* \"Dinsey/dinsey.sol\":2357:2480  function GeneraToken(uint _numTokens) public Unicamente(msg.sender){\r... */\n    tag_6:\n      callvalue\n      dup1\n      iszero\n      tag_31\n      jumpi\n      0x00\n      dup1\n      revert\n    tag_31:\n      pop\n      tag_32\n      0x04\n      dup1\n      calldatasize\n      sub\n      dup2\n      add\n      swap1\n      tag_33\n      swap2\n      swap1\n      tag_19\n      jump\t// in\n    tag_33:\n      tag_34\n      jump\t// in\n    tag_32:\n      stop\n        /* \"Dinsey/dinsey.sol\":4160:4474  function BajaAtraccion(string memory _nombreAtraccion) public Unicamente(msg.sender){\r... */\n    tag_7:\n      callvalue\n      dup1\n      iszero\n      tag_35\n      jumpi\n      0x00\n      dup1\n      revert\n    tag_35:\n      pop\n      tag_36\n      0x04\n      dup1\n      calldatasize\n      sub\n      dup2\n      add\n      swap1\n      tag_37\n      swap2\n      swap1\n      tag_38\n      jump\t// in\n    tag_37:\n      tag_39\n      jump\t// in\n    tag_36:\n      stop\n        /* \"Dinsey/dinsey.sol\":2211:2309  function MisToken() public view returns(uint){\r... */\n    tag_8:\n      callvalue\n      dup1\n      iszero\n      tag_40\n      jumpi\n      0x00\n      dup1\n      revert\n    tag_40:\n      pop\n      tag_41\n      tag_42\n      jump\t// in\n    tag_41:\n      mload(0x40)\n      tag_43\n      swap2\n      swap1\n      tag_25\n      jump\t// in\n    tag_43:\n      mload(0x40)\n      dup1\n      swap2\n      sub\n      swap1\n      return\n        /* \"Dinsey/dinsey.sol\":693:737  mapping (address => cliente) public Clientes */\n    tag_9:\n      callvalue\n      dup1\n      iszero\n      tag_44\n      jumpi\n      0x00\n      dup1\n      revert\n    tag_44:\n      pop\n      tag_45\n      0x04\n      dup1\n      calldatasize\n      sub\n      dup2\n      add\n      swap1\n      tag_46\n      swap2\n      swap1\n      tag_47\n      jump\t// in\n    tag_46:\n      tag_48\n      jump\t// in\n    tag_45:\n      mload(0x40)\n      tag_49\n      swap2\n      swap1\n      tag_25\n      jump\t// in\n    tag_49:\n      mload(0x40)\n      dup1\n      swap2\n      sub\n      swap1\n      return\n        /* \"Dinsey/dinsey.sol\":3193:3248  mapping (string => atraccion) public MappingAtracciones */\n    tag_10:\n      callvalue\n      dup1\n      iszero\n      tag_50\n      jumpi\n      0x00\n      dup1\n      revert\n    tag_50:\n      pop\n      tag_51\n      0x04\n      dup1\n      calldatasize\n      sub\n      dup2\n      add\n      swap1\n      tag_52\n      swap2\n      swap1\n      tag_38\n      jump\t// in\n    tag_52:\n      tag_53\n      jump\t// in\n    tag_51:\n      mload(0x40)\n      tag_54\n      swap4\n      swap3\n      swap2\n      swap1\n      tag_55\n      jump\t// in\n    tag_54:\n      mload(0x40)\n      dup1\n      swap2\n      sub\n      swap1\n      return\n        /* \"Dinsey/dinsey.sol\":3575:4038  function NuevaAtraccion(string memory _nombreAtraccion, uint _precio) public Unicamente(msg.sender){\r... */\n    tag_16:\n        /* \"Dinsey/dinsey.sol\":3663:3673  msg.sender */\n      caller\n        /* \"Dinsey/dinsey.sol\":2631:2636  owner */\n      0x01\n      0x00\n      swap1\n      sload\n      swap1\n      0x0100\n      exp\n      swap1\n      div\n      0xffffffffffffffffffffffffffffffffffffffff\n      and\n        /* \"Dinsey/dinsey.sol\":2617:2636  _direccion == owner */\n      0xffffffffffffffffffffffffffffffffffffffff\n      and\n        /* \"Dinsey/dinsey.sol\":2617:2627  _direccion */\n      dup2\n        /* \"Dinsey/dinsey.sol\":2617:2636  _direccion == owner */\n      0xffffffffffffffffffffffffffffffffffffffff\n      and\n      eq\n        /* \"Dinsey/dinsey.sol\":2609:2686  require(_direccion == owner, \"No tienes permisos para ejecutar esta funcion\") */\n      tag_57\n      jumpi\n      mload(0x40)\n      0x08c379a000000000000000000000000000000000000000000000000000000000\n      dup2\n      mstore\n      0x04\n      add\n      tag_58\n      swap1\n      tag_59\n      jump\t// in\n    tag_58:\n      mload(0x40)\n      dup1\n      swap2\n      sub\n      swap1\n      revert\n    tag_57:\n        /* \"Dinsey/dinsey.sol\":3772:3814  atraccion(_nombreAtraccion, _precio, true) */\n      mload(0x40)\n      dup1\n      0x60\n      add\n      0x40\n      mstore\n      dup1\n        /* \"Dinsey/dinsey.sol\":3782:3798  _nombreAtraccion */\n      dup5\n        /* \"Dinsey/dinsey.sol\":3772:3814  atraccion(_nombreAtraccion, _precio, true) */\n      dup2\n      mstore\n      0x20\n      add\n        /* \"Dinsey/dinsey.sol\":3800:3807  _precio */\n      dup4\n        /* \"Dinsey/dinsey.sol\":3772:3814  atraccion(_nombreAtraccion, _precio, true) */\n      dup2\n      mstore\n      0x20\n      add\n        /* \"Dinsey/dinsey.sol\":3809:3813  true */\n      0x01\n        /* \"Dinsey/dinsey.sol\":3772:3814  atraccion(_nombreAtraccion, _precio, true) */\n      iszero\n      iszero\n      dup2\n      mstore\n      pop\n        /* \"Dinsey/dinsey.sol\":3733:3751  MappingAtracciones */\n      0x03\n        /* \"Dinsey/dinsey.sol\":3752:3768  _nombreAtraccion */\n      dup5\n        /* \"Dinsey/dinsey.sol\":3733:3769  MappingAtracciones[_nombreAtraccion] */\n      mload(0x40)\n      tag_61\n      swap2\n      swap1\n      tag_62\n      jump\t// in\n    tag_61:\n      swap1\n      dup2\n      mstore\n      0x20\n      add\n      mload(0x40)\n      dup1\n      swap2\n      sub\n      swap1\n      keccak256\n        /* \"Dinsey/dinsey.sol\":3733:3814  MappingAtracciones[_nombreAtraccion] = atraccion(_nombreAtraccion, _precio, true) */\n      0x00\n      dup3\n      add\n      mload\n      dup2\n      0x00\n      add\n      swap1\n      dup1\n      mload\n      swap1\n      0x20\n      add\n      swap1\n      tag_63\n      swap3\n      swap2\n      swap1\n      tag_64\n      jump\t// in\n    tag_63:\n      pop\n      0x20\n      dup3\n      add\n      mload\n      dup2\n      0x01\n      add\n      sstore\n      0x40\n      dup3\n      add\n      mload\n      dup2\n      0x02\n      add\n      exp(0x0100, 0x00)\n      dup2\n      sload\n      dup2\n      0xff\n      mul\n      not\n      and\n      swap1\n      dup4\n      iszero\n      iszero\n      mul\n      or\n      swap1\n      sstore\n      pop\n      swap1\n      pop\n      pop\n        /* \"Dinsey/dinsey.sol\":3884:3895  Atracciones */\n      0x04\n        /* \"Dinsey/dinsey.sol\":3901:3917  _nombreAtraccion */\n      dup4\n        /* \"Dinsey/dinsey.sol\":3884:3918  Atracciones.push(_nombreAtraccion) */\n      swap1\n      dup1\n      0x01\n      dup2\n      sload\n      add\n      dup1\n      dup3\n      sstore\n      dup1\n      swap2\n      pop\n      pop\n      0x01\n      swap1\n      sub\n      swap1\n      0x00\n      mstore\n      keccak256(0x00, 0x20)\n      add\n      0x00\n      swap1\n      swap2\n      swap1\n      swap2\n      swap1\n      swap2\n      pop\n      swap1\n      dup1\n      mload\n      swap1\n      0x20\n      add\n      swap1\n      tag_66\n      swap3\n      swap2\n      swap1\n      tag_64\n      jump\t// in\n    tag_66:\n      pop\n        /* \"Dinsey/dinsey.sol\":3988:4030  nueva_atraccion(_nombreAtraccion, _precio) */\n      0xfc9ecd7a6c2ca96d38526a0b9cc22f2474ff8e596dd348edaab06be905ebe378\n        /* \"Dinsey/dinsey.sol\":4004:4020  _nombreAtraccion */\n      dup4\n        /* \"Dinsey/dinsey.sol\":4022:4029  _precio */\n      dup4\n        /* \"Dinsey/dinsey.sol\":3988:4030  nueva_atraccion(_nombreAtraccion, _precio) */\n      mload(0x40)\n      tag_67\n      swap3\n      swap2\n      swap1\n      tag_68\n      jump\t// in\n    tag_67:\n      mload(0x40)\n      dup1\n      swap2\n      sub\n      swap1\n      log1\n        /* \"Dinsey/dinsey.sol\":3575:4038  function NuevaAtraccion(string memory _nombreAtraccion, uint _precio) public Unicamente(msg.sender){\r... */\n      pop\n      pop\n      pop\n      jump\t// out\n        /* \"Dinsey/dinsey.sol\":1090:1977  function CompraToken(uint _numToken) public payable{\r... */\n    tag_20:\n        /* \"Dinsey/dinsey.sol\":1197:1207  uint coste */\n      0x00\n        /* \"Dinsey/dinsey.sol\":1210:1232  PrecioToken(_numToken) */\n      tag_70\n        /* \"Dinsey/dinsey.sol\":1222:1231  _numToken */\n      dup3\n        /* \"Dinsey/dinsey.sol\":1210:1221  PrecioToken */\n      tag_71\n        /* \"Dinsey/dinsey.sol\":1210:1232  PrecioToken(_numToken) */\n      jump\t// in\n    tag_70:\n        /* \"Dinsey/dinsey.sol\":1197:1232  uint coste = PrecioToken(_numToken) */\n      swap1\n      pop\n        /* \"Dinsey/dinsey.sol\":1332:1337  coste */\n      dup1\n        /* \"Dinsey/dinsey.sol\":1319:1328  msg.value */\n      callvalue\n        /* \"Dinsey/dinsey.sol\":1319:1337  msg.value >= coste */\n      lt\n      iszero\n        /* \"Dinsey/dinsey.sol\":1310:1384  require (msg.value >= coste, \"Compra menos Tokens o paga con mas ethers.\") */\n      tag_72\n      jumpi\n      mload(0x40)\n      0x08c379a000000000000000000000000000000000000000000000000000000000\n      dup2\n      mstore\n      0x04\n      add\n      tag_73\n      swap1\n      tag_74\n      jump\t// in\n    tag_73:\n      mload(0x40)\n      dup1\n      swap2\n      sub\n      swap1\n      revert\n    tag_72:\n        /* \"Dinsey/dinsey.sol\":1444:1460  uint returnValue */\n      0x00\n        /* \"Dinsey/dinsey.sol\":1475:1480  coste */\n      dup2\n        /* \"Dinsey/dinsey.sol\":1463:1472  msg.value */\n      callvalue\n        /* \"Dinsey/dinsey.sol\":1463:1480  msg.value - coste */\n      tag_75\n      swap2\n      swap1\n      tag_76\n      jump\t// in\n    tag_75:\n        /* \"Dinsey/dinsey.sol\":1444:1480  uint returnValue = msg.value - coste */\n      swap1\n      pop\n        /* \"Dinsey/dinsey.sol\":1558:1568  msg.sender */\n      caller\n        /* \"Dinsey/dinsey.sol\":1550:1578  payable(msg.sender).transfer */\n      0xffffffffffffffffffffffffffffffffffffffff\n      and\n        /* \"Dinsey/dinsey.sol\":1550:1591  payable(msg.sender).transfer(returnValue) */\n      0x08fc\n        /* \"Dinsey/dinsey.sol\":1579:1590  returnValue */\n      dup3\n        /* \"Dinsey/dinsey.sol\":1550:1591  payable(msg.sender).transfer(returnValue) */\n      swap1\n      dup2\n      iszero\n      mul\n      swap1\n      mload(0x40)\n      0x00\n      mload(0x40)\n      dup1\n      dup4\n      sub\n      dup2\n      dup6\n      dup9\n      dup9\n      call\n      swap4\n      pop\n      pop\n      pop\n      pop\n      iszero\n      dup1\n      iszero\n      tag_78\n      jumpi\n      returndatasize\n      0x00\n      dup1\n      returndatacopy\n      revert(0x00, returndatasize)\n    tag_78:\n      pop\n        /* \"Dinsey/dinsey.sol\":1655:1667  uint Balance */\n      0x00\n        /* \"Dinsey/dinsey.sol\":1670:1681  balanceOf() */\n      tag_79\n        /* \"Dinsey/dinsey.sol\":1670:1679  balanceOf */\n      tag_23\n        /* \"Dinsey/dinsey.sol\":1670:1681  balanceOf() */\n      jump\t// in\n    tag_79:\n        /* \"Dinsey/dinsey.sol\":1655:1681  uint Balance = balanceOf() */\n      swap1\n      pop\n        /* \"Dinsey/dinsey.sol\":1713:1720  Balance */\n      dup1\n        /* \"Dinsey/dinsey.sol\":1700:1709  _numToken */\n      dup5\n        /* \"Dinsey/dinsey.sol\":1700:1720  _numToken <= Balance */\n      gt\n      iszero\n        /* \"Dinsey/dinsey.sol\":1692:1757  require(_numToken <= Balance, \"Compra un numero menor de Tokens\") */\n      tag_80\n      jumpi\n      mload(0x40)\n      0x08c379a000000000000000000000000000000000000000000000000000000000\n      dup2\n      mstore\n      0x04\n      add\n      tag_81\n      swap1\n      tag_82\n      jump\t// in\n    tag_81:\n      mload(0x40)\n      dup1\n      swap2\n      sub\n      swap1\n      revert\n    tag_80:\n        /* \"Dinsey/dinsey.sol\":1825:1830  token */\n      0x00\n      dup1\n      sload\n      swap1\n      0x0100\n      exp\n      swap1\n      div\n      0xffffffffffffffffffffffffffffffffffffffff\n      and\n        /* \"Dinsey/dinsey.sol\":1825:1839  token.transfer */\n      0xffffffffffffffffffffffffffffffffffffffff\n      and\n      0xa9059cbb\n        /* \"Dinsey/dinsey.sol\":1840:1850  msg.sender */\n      caller\n        /* \"Dinsey/dinsey.sol\":1852:1861  _numToken */\n      dup7\n        /* \"Dinsey/dinsey.sol\":1825:1862  token.transfer(msg.sender, _numToken) */\n      mload(0x40)\n      dup4\n      0xffffffff\n      and\n      0xe0\n      shl\n      dup2\n      mstore\n      0x04\n      add\n      tag_83\n      swap3\n      swap2\n      swap1\n      tag_84\n      jump\t// in\n    tag_83:\n      0x20\n      mload(0x40)\n      dup1\n      dup4\n      sub\n      dup2\n      0x00\n      dup8\n      dup1\n      extcodesize\n      iszero\n      dup1\n      iszero\n      tag_85\n      jumpi\n      0x00\n      dup1\n      revert\n    tag_85:\n      pop\n      gas\n      call\n      iszero\n      dup1\n      iszero\n      tag_87\n      jumpi\n      returndatasize\n      0x00\n      dup1\n      returndatacopy\n      revert(0x00, returndatasize)\n    tag_87:\n      pop\n      pop\n      pop\n      pop\n      mload(0x40)\n      returndatasize\n      not(0x1f)\n      0x1f\n      dup3\n      add\n      and\n      dup3\n      add\n      dup1\n      0x40\n      mstore\n      pop\n      dup2\n      add\n      swap1\n      tag_88\n      swap2\n      swap1\n      tag_89\n      jump\t// in\n    tag_88:\n      pop\n        /* \"Dinsey/dinsey.sol\":1960:1969  _numToken */\n      dup4\n        /* \"Dinsey/dinsey.sol\":1919:1927  Clientes */\n      0x02\n        /* \"Dinsey/dinsey.sol\":1919:1939  Clientes[msg.sender] */\n      0x00\n        /* \"Dinsey/dinsey.sol\":1928:1938  msg.sender */\n      caller\n        /* \"Dinsey/dinsey.sol\":1919:1939  Clientes[msg.sender] */\n      0xffffffffffffffffffffffffffffffffffffffff\n      and\n      0xffffffffffffffffffffffffffffffffffffffff\n      and\n      dup2\n      mstore\n      0x20\n      add\n      swap1\n      dup2\n      mstore\n      0x20\n      add\n      0x00\n      keccak256\n        /* \"Dinsey/dinsey.sol\":1919:1956  Clientes[msg.sender].tokens_comprados */\n      0x00\n      add\n      0x00\n        /* \"Dinsey/dinsey.sol\":1919:1969  Clientes[msg.sender].tokens_comprados += _numToken */\n      dup3\n      dup3\n      sload\n      tag_90\n      swap2\n      swap1\n      tag_91\n      jump\t// in\n    tag_90:\n      swap3\n      pop\n      pop\n      dup2\n      swap1\n      sstore\n      pop\n        /* \"Dinsey/dinsey.sol\":1141:1977  {\r... */\n      pop\n      pop\n      pop\n        /* \"Dinsey/dinsey.sol\":1090:1977  function CompraToken(uint _numToken) public payable{\r... */\n      pop\n      jump\t// out\n        /* \"Dinsey/dinsey.sol\":2031:2134  function balanceOf() public view returns (uint){\r... */\n    tag_23:\n        /* \"Dinsey/dinsey.sol\":2073:2077  uint */\n      0x00\n        /* \"Dinsey/dinsey.sol\":2096:2101  token */\n      dup1\n      0x00\n      swap1\n      sload\n      swap1\n      0x0100\n      exp\n      swap1\n      div\n      0xffffffffffffffffffffffffffffffffffffffff\n      and\n        /* \"Dinsey/dinsey.sol\":2096:2111  token.balanceOf */\n      0xffffffffffffffffffffffffffffffffffffffff\n      and\n      0x70a08231\n        /* \"Dinsey/dinsey.sol\":2120:2124  this */\n      address\n        /* \"Dinsey/dinsey.sol\":2096:2126  token.balanceOf(address(this)) */\n      mload(0x40)\n      dup3\n      0xffffffff\n      and\n      0xe0\n      shl\n      dup2\n      mstore\n      0x04\n      add\n      tag_93\n      swap2\n      swap1\n      tag_94\n      jump\t// in\n    tag_93:\n      0x20\n      mload(0x40)\n      dup1\n      dup4\n      sub\n      dup2\n      dup7\n      dup1\n      extcodesize\n      iszero\n      dup1\n      iszero\n      tag_95\n      jumpi\n      0x00\n      dup1\n      revert\n    tag_95:\n      pop\n      gas\n      staticcall\n      iszero\n      dup1\n      iszero\n      tag_97\n      jumpi\n      returndatasize\n      0x00\n      dup1\n      returndatacopy\n      revert(0x00, returndatasize)\n    tag_97:\n      pop\n      pop\n      pop\n      pop\n      mload(0x40)\n      returndatasize\n      not(0x1f)\n      0x1f\n      dup3\n      add\n      and\n      dup3\n      add\n      dup1\n      0x40\n      mstore\n      pop\n      dup2\n      add\n      swap1\n      tag_98\n      swap2\n      swap1\n      tag_99\n      jump\t// in\n    tag_98:\n        /* \"Dinsey/dinsey.sol\":2089:2126  return token.balanceOf(address(this)) */\n      swap1\n      pop\n        /* \"Dinsey/dinsey.sol\":2031:2134  function balanceOf() public view returns (uint){\r... */\n      swap1\n      jump\t// out\n        /* \"Dinsey/dinsey.sol\":324:352  address payable public owner */\n    tag_28:\n      0x01\n      0x00\n      swap1\n      sload\n      swap1\n      0x0100\n      exp\n      swap1\n      div\n      0xffffffffffffffffffffffffffffffffffffffff\n      and\n      dup2\n      jump\t// out\n        /* \"Dinsey/dinsey.sol\":2357:2480  function GeneraToken(uint _numTokens) public Unicamente(msg.sender){\r... */\n    tag_34:\n        /* \"Dinsey/dinsey.sol\":2413:2423  msg.sender */\n      caller\n        /* \"Dinsey/dinsey.sol\":2631:2636  owner */\n      0x01\n      0x00\n      swap1\n      sload\n      swap1\n      0x0100\n      exp\n      swap1\n      div\n      0xffffffffffffffffffffffffffffffffffffffff\n      and\n        /* \"Dinsey/dinsey.sol\":2617:2636  _direccion == owner */\n      0xffffffffffffffffffffffffffffffffffffffff\n      and\n        /* \"Dinsey/dinsey.sol\":2617:2627  _direccion */\n      dup2\n        /* \"Dinsey/dinsey.sol\":2617:2636  _direccion == owner */\n      0xffffffffffffffffffffffffffffffffffffffff\n      and\n      eq\n        /* \"Dinsey/dinsey.sol\":2609:2686  require(_direccion == owner, \"No tienes permisos para ejecutar esta funcion\") */\n      tag_101\n      jumpi\n      mload(0x40)\n      0x08c379a000000000000000000000000000000000000000000000000000000000\n      dup2\n      mstore\n      0x04\n      add\n      tag_102\n      swap1\n      tag_59\n      jump\t// in\n    tag_102:\n      mload(0x40)\n      dup1\n      swap2\n      sub\n      swap1\n      revert\n    tag_101:\n        /* \"Dinsey/dinsey.sol\":2435:2440  token */\n      0x00\n      dup1\n      sload\n      swap1\n      0x0100\n      exp\n      swap1\n      div\n      0xffffffffffffffffffffffffffffffffffffffff\n      and\n        /* \"Dinsey/dinsey.sol\":2435:2460  token.increaseTotalSupply */\n      0xffffffffffffffffffffffffffffffffffffffff\n      and\n      0x1d43cc98\n        /* \"Dinsey/dinsey.sol\":2461:2471  _numTokens */\n      dup4\n        /* \"Dinsey/dinsey.sol\":2435:2472  token.increaseTotalSupply(_numTokens) */\n      mload(0x40)\n      dup3\n      0xffffffff\n      and\n      0xe0\n      shl\n      dup2\n      mstore\n      0x04\n      add\n      tag_104\n      swap2\n      swap1\n      tag_25\n      jump\t// in\n    tag_104:\n      0x00\n      mload(0x40)\n      dup1\n      dup4\n      sub\n      dup2\n      0x00\n      dup8\n      dup1\n      extcodesize\n      iszero\n      dup1\n      iszero\n      tag_105\n      jumpi\n      0x00\n      dup1\n      revert\n    tag_105:\n      pop\n      gas\n      call\n      iszero\n      dup1\n      iszero\n      tag_107\n      jumpi\n      returndatasize\n      0x00\n      dup1\n      returndatacopy\n      revert(0x00, returndatasize)\n    tag_107:\n      pop\n      pop\n      pop\n      pop\n        /* \"Dinsey/dinsey.sol\":2357:2480  function GeneraToken(uint _numTokens) public Unicamente(msg.sender){\r... */\n      pop\n      pop\n      jump\t// out\n        /* \"Dinsey/dinsey.sol\":4160:4474  function BajaAtraccion(string memory _nombreAtraccion) public Unicamente(msg.sender){\r... */\n    tag_39:\n        /* \"Dinsey/dinsey.sol\":4233:4243  msg.sender */\n      caller\n        /* \"Dinsey/dinsey.sol\":2631:2636  owner */\n      0x01\n      0x00\n      swap1\n      sload\n      swap1\n      0x0100\n      exp\n      swap1\n      div\n      0xffffffffffffffffffffffffffffffffffffffff\n      and\n        /* \"Dinsey/dinsey.sol\":2617:2636  _direccion == owner */\n      0xffffffffffffffffffffffffffffffffffffffff\n      and\n        /* \"Dinsey/dinsey.sol\":2617:2627  _direccion */\n      dup2\n        /* \"Dinsey/dinsey.sol\":2617:2636  _direccion == owner */\n      0xffffffffffffffffffffffffffffffffffffffff\n      and\n      eq\n        /* \"Dinsey/dinsey.sol\":2609:2686  require(_direccion == owner, \"No tienes permisos para ejecutar esta funcion\") */\n      tag_109\n      jumpi\n      mload(0x40)\n      0x08c379a000000000000000000000000000000000000000000000000000000000\n      dup2\n      mstore\n      0x04\n      add\n      tag_110\n      swap1\n      tag_59\n      jump\t// in\n    tag_110:\n      mload(0x40)\n      dup1\n      swap2\n      sub\n      swap1\n      revert\n    tag_109:\n        /* \"Dinsey/dinsey.sol\":4362:4367  false */\n      0x00\n        /* \"Dinsey/dinsey.sol\":4306:4324  MappingAtracciones */\n      0x03\n        /* \"Dinsey/dinsey.sol\":4325:4341  _nombreAtraccion */\n      dup4\n        /* \"Dinsey/dinsey.sol\":4306:4342  MappingAtracciones[_nombreAtraccion] */\n      mload(0x40)\n      tag_112\n      swap2\n      swap1\n      tag_62\n      jump\t// in\n    tag_112:\n      swap1\n      dup2\n      mstore\n      0x20\n      add\n      mload(0x40)\n      dup1\n      swap2\n      sub\n      swap1\n      keccak256\n        /* \"Dinsey/dinsey.sol\":4306:4359  MappingAtracciones[_nombreAtraccion].estado_atraccion */\n      0x02\n      add\n      0x00\n        /* \"Dinsey/dinsey.sol\":4306:4367  MappingAtracciones[_nombreAtraccion].estado_atraccion = false */\n      0x0100\n      exp\n      dup2\n      sload\n      dup2\n      0xff\n      mul\n      not\n      and\n      swap1\n      dup4\n      iszero\n      iszero\n      mul\n      or\n      swap1\n      sstore\n      pop\n        /* \"Dinsey/dinsey.sol\":4434:4466  baja_atraccion(_nombreAtraccion) */\n      0x24ba6c881728980191398db8dcfd8ed4f6aeb1c08df349d63f3b85075f3e86dd\n        /* \"Dinsey/dinsey.sol\":4449:4465  _nombreAtraccion */\n      dup3\n        /* \"Dinsey/dinsey.sol\":4434:4466  baja_atraccion(_nombreAtraccion) */\n      mload(0x40)\n      tag_113\n      swap2\n      swap1\n      tag_114\n      jump\t// in\n    tag_113:\n      mload(0x40)\n      dup1\n      swap2\n      sub\n      swap1\n      log1\n        /* \"Dinsey/dinsey.sol\":4160:4474  function BajaAtraccion(string memory _nombreAtraccion) public Unicamente(msg.sender){\r... */\n      pop\n      pop\n      jump\t// out\n        /* \"Dinsey/dinsey.sol\":2211:2309  function MisToken() public view returns(uint){\r... */\n    tag_42:\n        /* \"Dinsey/dinsey.sol\":2251:2255  uint */\n      0x00\n        /* \"Dinsey/dinsey.sol\":2274:2279  token */\n      dup1\n      0x00\n      swap1\n      sload\n      swap1\n      0x0100\n      exp\n      swap1\n      div\n      0xffffffffffffffffffffffffffffffffffffffff\n      and\n        /* \"Dinsey/dinsey.sol\":2274:2289  token.balanceOf */\n      0xffffffffffffffffffffffffffffffffffffffff\n      and\n      0x70a08231\n        /* \"Dinsey/dinsey.sol\":2290:2300  msg.sender */\n      caller\n        /* \"Dinsey/dinsey.sol\":2274:2301  token.balanceOf(msg.sender) */\n      mload(0x40)\n      dup3\n      0xffffffff\n      and\n      0xe0\n      shl\n      dup2\n      mstore\n      0x04\n      add\n      tag_116\n      swap2\n      swap1\n      tag_94\n      jump\t// in\n    tag_116:\n      0x20\n      mload(0x40)\n      dup1\n      dup4\n      sub\n      dup2\n      dup7\n      dup1\n      extcodesize\n      iszero\n      dup1\n      iszero\n      tag_117\n      jumpi\n      0x00\n      dup1\n      revert\n    tag_117:\n      pop\n      gas\n      staticcall\n      iszero\n      dup1\n      iszero\n      tag_119\n      jumpi\n      returndatasize\n      0x00\n      dup1\n      returndatacopy\n      revert(0x00, returndatasize)\n    tag_119:\n      pop\n      pop\n      pop\n      pop\n      mload(0x40)\n      returndatasize\n      not(0x1f)\n      0x1f\n      dup3\n      add\n      and\n      dup3\n      add\n      dup1\n      0x40\n      mstore\n      pop\n      dup2\n      add\n      swap1\n      tag_120\n      swap2\n      swap1\n      tag_99\n      jump\t// in\n    tag_120:\n        /* \"Dinsey/dinsey.sol\":2267:2301  return token.balanceOf(msg.sender) */\n      swap1\n      pop\n        /* \"Dinsey/dinsey.sol\":2211:2309  function MisToken() public view returns(uint){\r... */\n      swap1\n      jump\t// out\n        /* \"Dinsey/dinsey.sol\":693:737  mapping (address => cliente) public Clientes */\n    tag_48:\n      mstore(0x20, 0x02)\n      dup1\n      0x00\n      mstore\n      keccak256(0x00, 0x40)\n      0x00\n      swap2\n      pop\n      swap1\n      pop\n      dup1\n      0x00\n      add\n      sload\n      swap1\n      pop\n      dup2\n      jump\t// out\n        /* \"Dinsey/dinsey.sol\":3193:3248  mapping (string => atraccion) public MappingAtracciones */\n    tag_53:\n      0x03\n      dup2\n      dup1\n      mload\n      0x20\n      dup2\n      add\n      dup3\n      add\n      dup1\n      mload\n      dup5\n      dup3\n      mstore\n      0x20\n      dup4\n      add\n      0x20\n      dup6\n      add\n      keccak256\n      dup2\n      dup4\n      mstore\n      dup1\n      swap6\n      pop\n      pop\n      pop\n      pop\n      pop\n      pop\n      0x00\n      swap2\n      pop\n      swap1\n      pop\n      dup1\n      0x00\n      add\n      dup1\n      sload\n      tag_121\n      swap1\n      tag_122\n      jump\t// in\n    tag_121:\n      dup1\n      0x1f\n      add\n      0x20\n      dup1\n      swap2\n      div\n      mul\n      0x20\n      add\n      mload(0x40)\n      swap1\n      dup2\n      add\n      0x40\n      mstore\n      dup1\n      swap3\n      swap2\n      swap1\n      dup2\n      dup2\n      mstore\n      0x20\n      add\n      dup3\n      dup1\n      sload\n      tag_123\n      swap1\n      tag_122\n      jump\t// in\n    tag_123:\n      dup1\n      iszero\n      tag_124\n      jumpi\n      dup1\n      0x1f\n      lt\n      tag_125\n      jumpi\n      0x0100\n      dup1\n      dup4\n      sload\n      div\n      mul\n      dup4\n      mstore\n      swap2\n      0x20\n      add\n      swap2\n      jump(tag_124)\n    tag_125:\n      dup3\n      add\n      swap2\n      swap1\n      0x00\n      mstore\n      keccak256(0x00, 0x20)\n      swap1\n    tag_126:\n      dup2\n      sload\n      dup2\n      mstore\n      swap1\n      0x01\n      add\n      swap1\n      0x20\n      add\n      dup1\n      dup4\n      gt\n      tag_126\n      jumpi\n      dup3\n      swap1\n      sub\n      0x1f\n      and\n      dup3\n      add\n      swap2\n    tag_124:\n      pop\n      pop\n      pop\n      pop\n      pop\n      swap1\n      dup1\n      0x01\n      add\n      sload\n      swap1\n      dup1\n      0x02\n      add\n      0x00\n      swap1\n      sload\n      swap1\n      0x0100\n      exp\n      swap1\n      div\n      0xff\n      and\n      swap1\n      pop\n      dup4\n      jump\t// out\n        /* \"Dinsey/dinsey.sol\":868:1047  function PrecioToken(uint _numToken) internal pure returns(uint){\r... */\n    tag_71:\n        /* \"Dinsey/dinsey.sol\":927:931  uint */\n      0x00\n        /* \"Dinsey/dinsey.sol\":1031:1038  1 ether */\n      0x0de0b6b3a7640000\n        /* \"Dinsey/dinsey.sol\":1018:1027  _numToken */\n      dup3\n        /* \"Dinsey/dinsey.sol\":1018:1039  _numToken * (1 ether) */\n      tag_128\n      swap2\n      swap1\n      tag_129\n      jump\t// in\n    tag_128:\n        /* \"Dinsey/dinsey.sol\":1011:1039  return _numToken * (1 ether) */\n      swap1\n      pop\n        /* \"Dinsey/dinsey.sol\":868:1047  function PrecioToken(uint _numToken) internal pure returns(uint){\r... */\n      swap2\n      swap1\n      pop\n      jump\t// out\n    tag_64:\n      dup3\n      dup1\n      sload\n      tag_130\n      swap1\n      tag_122\n      jump\t// in\n    tag_130:\n      swap1\n      0x00\n      mstore\n      keccak256(0x00, 0x20)\n      swap1\n      0x1f\n      add\n      0x20\n      swap1\n      div\n      dup2\n      add\n      swap3\n      dup3\n      tag_132\n      jumpi\n      0x00\n      dup6\n      sstore\n      jump(tag_131)\n    tag_132:\n      dup3\n      0x1f\n      lt\n      tag_133\n      jumpi\n      dup1\n      mload\n      not(0xff)\n      and\n      dup4\n      dup1\n      add\n      or\n      dup6\n      sstore\n      jump(tag_131)\n    tag_133:\n      dup3\n      dup1\n      add\n      0x01\n      add\n      dup6\n      sstore\n      dup3\n      iszero\n      tag_131\n      jumpi\n      swap2\n      dup3\n      add\n    tag_134:\n      dup3\n      dup2\n      gt\n      iszero\n      tag_135\n      jumpi\n      dup3\n      mload\n      dup3\n      sstore\n      swap2\n      0x20\n      add\n      swap2\n      swap1\n      0x01\n      add\n      swap1\n      jump(tag_134)\n    tag_135:\n    tag_131:\n      pop\n      swap1\n      pop\n      tag_136\n      swap2\n      swap1\n      tag_137\n      jump\t// in\n    tag_136:\n      pop\n      swap1\n      jump\t// out\n    tag_137:\n    tag_138:\n      dup1\n      dup3\n      gt\n      iszero\n      tag_139\n      jumpi\n      0x00\n      dup2\n      0x00\n      swap1\n      sstore\n      pop\n      0x01\n      add\n      jump(tag_138)\n    tag_139:\n      pop\n      swap1\n      jump\t// out\n        /* \"#utility.yul\":7:419   */\n    tag_141:\n        /* \"#utility.yul\":85:90   */\n      0x00\n        /* \"#utility.yul\":110:176   */\n      tag_143\n        /* \"#utility.yul\":126:175   */\n      tag_144\n        /* \"#utility.yul\":168:174   */\n      dup5\n        /* \"#utility.yul\":126:175   */\n      tag_145\n      jump\t// in\n    tag_144:\n        /* \"#utility.yul\":110:176   */\n      tag_146\n      jump\t// in\n    tag_143:\n        /* \"#utility.yul\":101:176   */\n      swap1\n      pop\n        /* \"#utility.yul\":199:205   */\n      dup3\n        /* \"#utility.yul\":192:197   */\n      dup2\n        /* \"#utility.yul\":185:206   */\n      mstore\n        /* \"#utility.yul\":237:241   */\n      0x20\n        /* \"#utility.yul\":230:235   */\n      dup2\n        /* \"#utility.yul\":226:242   */\n      add\n        /* \"#utility.yul\":275:278   */\n      dup5\n        /* \"#utility.yul\":266:272   */\n      dup5\n        /* \"#utility.yul\":261:264   */\n      dup5\n        /* \"#utility.yul\":257:273   */\n      add\n        /* \"#utility.yul\":254:279   */\n      gt\n        /* \"#utility.yul\":251:363   */\n      iszero\n      tag_147\n      jumpi\n        /* \"#utility.yul\":282:361   */\n      tag_148\n      tag_149\n      jump\t// in\n    tag_148:\n        /* \"#utility.yul\":251:363   */\n    tag_147:\n        /* \"#utility.yul\":372:413   */\n      tag_150\n        /* \"#utility.yul\":406:412   */\n      dup5\n        /* \"#utility.yul\":401:404   */\n      dup3\n        /* \"#utility.yul\":396:399   */\n      dup6\n        /* \"#utility.yul\":372:413   */\n      tag_151\n      jump\t// in\n    tag_150:\n        /* \"#utility.yul\":91:419   */\n      pop\n        /* \"#utility.yul\":7:419   */\n      swap4\n      swap3\n      pop\n      pop\n      pop\n      jump\t// out\n        /* \"#utility.yul\":425:564   */\n    tag_152:\n        /* \"#utility.yul\":471:476   */\n      0x00\n        /* \"#utility.yul\":509:515   */\n      dup2\n        /* \"#utility.yul\":496:516   */\n      calldataload\n        /* \"#utility.yul\":487:516   */\n      swap1\n      pop\n        /* \"#utility.yul\":525:558   */\n      tag_154\n        /* \"#utility.yul\":552:557   */\n      dup2\n        /* \"#utility.yul\":525:558   */\n      tag_155\n      jump\t// in\n    tag_154:\n        /* \"#utility.yul\":425:564   */\n      swap3\n      swap2\n      pop\n      pop\n      jump\t// out\n        /* \"#utility.yul\":570:707   */\n    tag_156:\n        /* \"#utility.yul\":624:629   */\n      0x00\n        /* \"#utility.yul\":655:661   */\n      dup2\n        /* \"#utility.yul\":649:662   */\n      mload\n        /* \"#utility.yul\":640:662   */\n      swap1\n      pop\n        /* \"#utility.yul\":671:701   */\n      tag_158\n        /* \"#utility.yul\":695:700   */\n      dup2\n        /* \"#utility.yul\":671:701   */\n      tag_159\n      jump\t// in\n    tag_158:\n        /* \"#utility.yul\":570:707   */\n      swap3\n      swap2\n      pop\n      pop\n      jump\t// out\n        /* \"#utility.yul\":727:1067   */\n    tag_160:\n        /* \"#utility.yul\":783:788   */\n      0x00\n        /* \"#utility.yul\":832:835   */\n      dup3\n        /* \"#utility.yul\":825:829   */\n      0x1f\n        /* \"#utility.yul\":817:823   */\n      dup4\n        /* \"#utility.yul\":813:830   */\n      add\n        /* \"#utility.yul\":809:836   */\n      slt\n        /* \"#utility.yul\":799:921   */\n      tag_162\n      jumpi\n        /* \"#utility.yul\":840:919   */\n      tag_163\n      tag_164\n      jump\t// in\n    tag_163:\n        /* \"#utility.yul\":799:921   */\n    tag_162:\n        /* \"#utility.yul\":957:963   */\n      dup2\n        /* \"#utility.yul\":944:964   */\n      calldataload\n        /* \"#utility.yul\":982:1061   */\n      tag_165\n        /* \"#utility.yul\":1057:1060   */\n      dup5\n        /* \"#utility.yul\":1049:1055   */\n      dup3\n        /* \"#utility.yul\":1042:1046   */\n      0x20\n        /* \"#utility.yul\":1034:1040   */\n      dup7\n        /* \"#utility.yul\":1030:1047   */\n      add\n        /* \"#utility.yul\":982:1061   */\n      tag_141\n      jump\t// in\n    tag_165:\n        /* \"#utility.yul\":973:1061   */\n      swap2\n      pop\n        /* \"#utility.yul\":789:1067   */\n      pop\n        /* \"#utility.yul\":727:1067   */\n      swap3\n      swap2\n      pop\n      pop\n      jump\t// out\n        /* \"#utility.yul\":1073:1212   */\n    tag_166:\n        /* \"#utility.yul\":1119:1124   */\n      0x00\n        /* \"#utility.yul\":1157:1163   */\n      dup2\n        /* \"#utility.yul\":1144:1164   */\n      calldataload\n        /* \"#utility.yul\":1135:1164   */\n      swap1\n      pop\n        /* \"#utility.yul\":1173:1206   */\n      tag_168\n        /* \"#utility.yul\":1200:1205   */\n      dup2\n        /* \"#utility.yul\":1173:1206   */\n      tag_169\n      jump\t// in\n    tag_168:\n        /* \"#utility.yul\":1073:1212   */\n      swap3\n      swap2\n      pop\n      pop\n      jump\t// out\n        /* \"#utility.yul\":1218:1361   */\n    tag_170:\n        /* \"#utility.yul\":1275:1280   */\n      0x00\n        /* \"#utility.yul\":1306:1312   */\n      dup2\n        /* \"#utility.yul\":1300:1313   */\n      mload\n        /* \"#utility.yul\":1291:1313   */\n      swap1\n      pop\n        /* \"#utility.yul\":1322:1355   */\n      tag_172\n        /* \"#utility.yul\":1349:1354   */\n      dup2\n        /* \"#utility.yul\":1322:1355   */\n      tag_169\n      jump\t// in\n    tag_172:\n        /* \"#utility.yul\":1218:1361   */\n      swap3\n      swap2\n      pop\n      pop\n      jump\t// out\n        /* \"#utility.yul\":1367:1696   */\n    tag_47:\n        /* \"#utility.yul\":1426:1432   */\n      0x00\n        /* \"#utility.yul\":1475:1477   */\n      0x20\n        /* \"#utility.yul\":1463:1472   */\n      dup3\n        /* \"#utility.yul\":1454:1461   */\n      dup5\n        /* \"#utility.yul\":1450:1473   */\n      sub\n        /* \"#utility.yul\":1446:1478   */\n      slt\n        /* \"#utility.yul\":1443:1562   */\n      iszero\n      tag_174\n      jumpi\n        /* \"#utility.yul\":1481:1560   */\n      tag_175\n      tag_176\n      jump\t// in\n    tag_175:\n        /* \"#utility.yul\":1443:1562   */\n    tag_174:\n        /* \"#utility.yul\":1601:1602   */\n      0x00\n        /* \"#utility.yul\":1626:1679   */\n      tag_177\n        /* \"#utility.yul\":1671:1678   */\n      dup5\n        /* \"#utility.yul\":1662:1668   */\n      dup3\n        /* \"#utility.yul\":1651:1660   */\n      dup6\n        /* \"#utility.yul\":1647:1669   */\n      add\n        /* \"#utility.yul\":1626:1679   */\n      tag_152\n      jump\t// in\n    tag_177:\n        /* \"#utility.yul\":1616:1679   */\n      swap2\n      pop\n        /* \"#utility.yul\":1572:1689   */\n      pop\n        /* \"#utility.yul\":1367:1696   */\n      swap3\n      swap2\n      pop\n      pop\n      jump\t// out\n        /* \"#utility.yul\":1702:2047   */\n    tag_89:\n        /* \"#utility.yul\":1769:1775   */\n      0x00\n        /* \"#utility.yul\":1818:1820   */\n      0x20\n        /* \"#utility.yul\":1806:1815   */\n      dup3\n        /* \"#utility.yul\":1797:1804   */\n      dup5\n        /* \"#utility.yul\":1793:1816   */\n      sub\n        /* \"#utility.yul\":1789:1821   */\n      slt\n        /* \"#utility.yul\":1786:1905   */\n      iszero\n      tag_179\n      jumpi\n        /* \"#utility.yul\":1824:1903   */\n      tag_180\n      tag_176\n      jump\t// in\n    tag_180:\n        /* \"#utility.yul\":1786:1905   */\n    tag_179:\n        /* \"#utility.yul\":1944:1945   */\n      0x00\n        /* \"#utility.yul\":1969:2030   */\n      tag_181\n        /* \"#utility.yul\":2022:2029   */\n      dup5\n        /* \"#utility.yul\":2013:2019   */\n      dup3\n        /* \"#utility.yul\":2002:2011   */\n      dup6\n        /* \"#utility.yul\":1998:2020   */\n      add\n        /* \"#utility.yul\":1969:2030   */\n      tag_156\n      jump\t// in\n    tag_181:\n        /* \"#utility.yul\":1959:2030   */\n      swap2\n      pop\n        /* \"#utility.yul\":1915:2040   */\n      pop\n        /* \"#utility.yul\":1702:2047   */\n      swap3\n      swap2\n      pop\n      pop\n      jump\t// out\n        /* \"#utility.yul\":2053:2562   */\n    tag_38:\n        /* \"#utility.yul\":2122:2128   */\n      0x00\n        /* \"#utility.yul\":2171:2173   */\n      0x20\n        /* \"#utility.yul\":2159:2168   */\n      dup3\n        /* \"#utility.yul\":2150:2157   */\n      dup5\n        /* \"#utility.yul\":2146:2169   */\n      sub\n        /* \"#utility.yul\":2142:2174   */\n      slt\n        /* \"#utility.yul\":2139:2258   */\n      iszero\n      tag_183\n      jumpi\n        /* \"#utility.yul\":2177:2256   */\n      tag_184\n      tag_176\n      jump\t// in\n    tag_184:\n        /* \"#utility.yul\":2139:2258   */\n    tag_183:\n        /* \"#utility.yul\":2325:2326   */\n      0x00\n        /* \"#utility.yul\":2314:2323   */\n      dup3\n        /* \"#utility.yul\":2310:2327   */\n      add\n        /* \"#utility.yul\":2297:2328   */\n      calldataload\n        /* \"#utility.yul\":2355:2373   */\n      0xffffffffffffffff\n        /* \"#utility.yul\":2347:2353   */\n      dup2\n        /* \"#utility.yul\":2344:2374   */\n      gt\n        /* \"#utility.yul\":2341:2458   */\n      iszero\n      tag_185\n      jumpi\n        /* \"#utility.yul\":2377:2456   */\n      tag_186\n      tag_187\n      jump\t// in\n    tag_186:\n        /* \"#utility.yul\":2341:2458   */\n    tag_185:\n        /* \"#utility.yul\":2482:2545   */\n      tag_188\n        /* \"#utility.yul\":2537:2544   */\n      dup5\n        /* \"#utility.yul\":2528:2534   */\n      dup3\n        /* \"#utility.yul\":2517:2526   */\n      dup6\n        /* \"#utility.yul\":2513:2535   */\n      add\n        /* \"#utility.yul\":2482:2545   */\n      tag_160\n      jump\t// in\n    tag_188:\n        /* \"#utility.yul\":2472:2545   */\n      swap2\n      pop\n        /* \"#utility.yul\":2268:2555   */\n      pop\n        /* \"#utility.yul\":2053:2562   */\n      swap3\n      swap2\n      pop\n      pop\n      jump\t// out\n        /* \"#utility.yul\":2568:3222   */\n    tag_15:\n        /* \"#utility.yul\":2646:2652   */\n      0x00\n        /* \"#utility.yul\":2654:2660   */\n      dup1\n        /* \"#utility.yul\":2703:2705   */\n      0x40\n        /* \"#utility.yul\":2691:2700   */\n      dup4\n        /* \"#utility.yul\":2682:2689   */\n      dup6\n        /* \"#utility.yul\":2678:2701   */\n      sub\n        /* \"#utility.yul\":2674:2706   */\n      slt\n        /* \"#utility.yul\":2671:2790   */\n      iszero\n      tag_190\n      jumpi\n        /* \"#utility.yul\":2709:2788   */\n      tag_191\n      tag_176\n      jump\t// in\n    tag_191:\n        /* \"#utility.yul\":2671:2790   */\n    tag_190:\n        /* \"#utility.yul\":2857:2858   */\n      0x00\n        /* \"#utility.yul\":2846:2855   */\n      dup4\n        /* \"#utility.yul\":2842:2859   */\n      add\n        /* \"#utility.yul\":2829:2860   */\n      calldataload\n        /* \"#utility.yul\":2887:2905   */\n      0xffffffffffffffff\n        /* \"#utility.yul\":2879:2885   */\n      dup2\n        /* \"#utility.yul\":2876:2906   */\n      gt\n        /* \"#utility.yul\":2873:2990   */\n      iszero\n      tag_192\n      jumpi\n        /* \"#utility.yul\":2909:2988   */\n      tag_193\n      tag_187\n      jump\t// in\n    tag_193:\n        /* \"#utility.yul\":2873:2990   */\n    tag_192:\n        /* \"#utility.yul\":3014:3077   */\n      tag_194\n        /* \"#utility.yul\":3069:3076   */\n      dup6\n        /* \"#utility.yul\":3060:3066   */\n      dup3\n        /* \"#utility.yul\":3049:3058   */\n      dup7\n        /* \"#utility.yul\":3045:3067   */\n      add\n        /* \"#utility.yul\":3014:3077   */\n      tag_160\n      jump\t// in\n    tag_194:\n        /* \"#utility.yul\":3004:3077   */\n      swap3\n      pop\n        /* \"#utility.yul\":2800:3087   */\n      pop\n        /* \"#utility.yul\":3126:3128   */\n      0x20\n        /* \"#utility.yul\":3152:3205   */\n      tag_195\n        /* \"#utility.yul\":3197:3204   */\n      dup6\n        /* \"#utility.yul\":3188:3194   */\n      dup3\n        /* \"#utility.yul\":3177:3186   */\n      dup7\n        /* \"#utility.yul\":3173:3195   */\n      add\n        /* \"#utility.yul\":3152:3205   */\n      tag_166\n      jump\t// in\n    tag_195:\n        /* \"#utility.yul\":3142:3205   */\n      swap2\n      pop\n        /* \"#utility.yul\":3097:3215   */\n      pop\n        /* \"#utility.yul\":2568:3222   */\n      swap3\n      pop\n      swap3\n      swap1\n      pop\n      jump\t// out\n        /* \"#utility.yul\":3228:3557   */\n    tag_19:\n        /* \"#utility.yul\":3287:3293   */\n      0x00\n        /* \"#utility.yul\":3336:3338   */\n      0x20\n        /* \"#utility.yul\":3324:3333   */\n      dup3\n        /* \"#utility.yul\":3315:3322   */\n      dup5\n        /* \"#utility.yul\":3311:3334   */\n      sub\n        /* \"#utility.yul\":3307:3339   */\n      slt\n        /* \"#utility.yul\":3304:3423   */\n      iszero\n      tag_197\n      jumpi\n        /* \"#utility.yul\":3342:3421   */\n      tag_198\n      tag_176\n      jump\t// in\n    tag_198:\n        /* \"#utility.yul\":3304:3423   */\n    tag_197:\n        /* \"#utility.yul\":3462:3463   */\n      0x00\n        /* \"#utility.yul\":3487:3540   */\n      tag_199\n        /* \"#utility.yul\":3532:3539   */\n      dup5\n        /* \"#utility.yul\":3523:3529   */\n      dup3\n        /* \"#utility.yul\":3512:3521   */\n      dup6\n        /* \"#utility.yul\":3508:3530   */\n      add\n        /* \"#utility.yul\":3487:3540   */\n      tag_166\n      jump\t// in\n    tag_199:\n        /* \"#utility.yul\":3477:3540   */\n      swap2\n      pop\n        /* \"#utility.yul\":3433:3550   */\n      pop\n        /* \"#utility.yul\":3228:3557   */\n      swap3\n      swap2\n      pop\n      pop\n      jump\t// out\n        /* \"#utility.yul\":3563:3914   */\n    tag_99:\n        /* \"#utility.yul\":3633:3639   */\n      0x00\n        /* \"#utility.yul\":3682:3684   */\n      0x20\n        /* \"#utility.yul\":3670:3679   */\n      dup3\n        /* \"#utility.yul\":3661:3668   */\n      dup5\n        /* \"#utility.yul\":3657:3680   */\n      sub\n        /* \"#utility.yul\":3653:3685   */\n      slt\n        /* \"#utility.yul\":3650:3769   */\n      iszero\n      tag_201\n      jumpi\n        /* \"#utility.yul\":3688:3767   */\n      tag_202\n      tag_176\n      jump\t// in\n    tag_202:\n        /* \"#utility.yul\":3650:3769   */\n    tag_201:\n        /* \"#utility.yul\":3808:3809   */\n      0x00\n        /* \"#utility.yul\":3833:3897   */\n      tag_203\n        /* \"#utility.yul\":3889:3896   */\n      dup5\n        /* \"#utility.yul\":3880:3886   */\n      dup3\n        /* \"#utility.yul\":3869:3878   */\n      dup6\n        /* \"#utility.yul\":3865:3887   */\n      add\n        /* \"#utility.yul\":3833:3897   */\n      tag_170\n      jump\t// in\n    tag_203:\n        /* \"#utility.yul\":3823:3897   */\n      swap2\n      pop\n        /* \"#utility.yul\":3779:3907   */\n      pop\n        /* \"#utility.yul\":3563:3914   */\n      swap3\n      swap2\n      pop\n      pop\n      jump\t// out\n        /* \"#utility.yul\":3920:4062   */\n    tag_204:\n        /* \"#utility.yul\":4023:4055   */\n      tag_206\n        /* \"#utility.yul\":4049:4054   */\n      dup2\n        /* \"#utility.yul\":4023:4055   */\n      tag_207\n      jump\t// in\n    tag_206:\n        /* \"#utility.yul\":4018:4021   */\n      dup3\n        /* \"#utility.yul\":4011:4056   */\n      mstore\n        /* \"#utility.yul\":3920:4062   */\n      pop\n      pop\n      jump\t// out\n        /* \"#utility.yul\":4068:4186   */\n    tag_208:\n        /* \"#utility.yul\":4155:4179   */\n      tag_210\n        /* \"#utility.yul\":4173:4178   */\n      dup2\n        /* \"#utility.yul\":4155:4179   */\n      tag_211\n      jump\t// in\n    tag_210:\n        /* \"#utility.yul\":4150:4153   */\n      dup3\n        /* \"#utility.yul\":4143:4180   */\n      mstore\n        /* \"#utility.yul\":4068:4186   */\n      pop\n      pop\n      jump\t// out\n        /* \"#utility.yul\":4192:4301   */\n    tag_212:\n        /* \"#utility.yul\":4273:4294   */\n      tag_214\n        /* \"#utility.yul\":4288:4293   */\n      dup2\n        /* \"#utility.yul\":4273:4294   */\n      tag_215\n      jump\t// in\n    tag_214:\n        /* \"#utility.yul\":4268:4271   */\n      dup3\n        /* \"#utility.yul\":4261:4295   */\n      mstore\n        /* \"#utility.yul\":4192:4301   */\n      pop\n      pop\n      jump\t// out\n        /* \"#utility.yul\":4307:4671   */\n    tag_216:\n        /* \"#utility.yul\":4395:4398   */\n      0x00\n        /* \"#utility.yul\":4423:4462   */\n      tag_218\n        /* \"#utility.yul\":4456:4461   */\n      dup3\n        /* \"#utility.yul\":4423:4462   */\n      tag_219\n      jump\t// in\n    tag_218:\n        /* \"#utility.yul\":4478:4549   */\n      tag_220\n        /* \"#utility.yul\":4542:4548   */\n      dup2\n        /* \"#utility.yul\":4537:4540   */\n      dup6\n        /* \"#utility.yul\":4478:4549   */\n      tag_221\n      jump\t// in\n    tag_220:\n        /* \"#utility.yul\":4471:4549   */\n      swap4\n      pop\n        /* \"#utility.yul\":4558:4610   */\n      tag_222\n        /* \"#utility.yul\":4603:4609   */\n      dup2\n        /* \"#utility.yul\":4598:4601   */\n      dup6\n        /* \"#utility.yul\":4591:4595   */\n      0x20\n        /* \"#utility.yul\":4584:4589   */\n      dup7\n        /* \"#utility.yul\":4580:4596   */\n      add\n        /* \"#utility.yul\":4558:4610   */\n      tag_223\n      jump\t// in\n    tag_222:\n        /* \"#utility.yul\":4635:4664   */\n      tag_224\n        /* \"#utility.yul\":4657:4663   */\n      dup2\n        /* \"#utility.yul\":4635:4664   */\n      tag_225\n      jump\t// in\n    tag_224:\n        /* \"#utility.yul\":4630:4633   */\n      dup5\n        /* \"#utility.yul\":4626:4665   */\n      add\n        /* \"#utility.yul\":4619:4665   */\n      swap2\n      pop\n        /* \"#utility.yul\":4399:4671   */\n      pop\n        /* \"#utility.yul\":4307:4671   */\n      swap3\n      swap2\n      pop\n      pop\n      jump\t// out\n        /* \"#utility.yul\":4677:5054   */\n    tag_226:\n        /* \"#utility.yul\":4783:4786   */\n      0x00\n        /* \"#utility.yul\":4811:4850   */\n      tag_228\n        /* \"#utility.yul\":4844:4849   */\n      dup3\n        /* \"#utility.yul\":4811:4850   */\n      tag_219\n      jump\t// in\n    tag_228:\n        /* \"#utility.yul\":4866:4955   */\n      tag_229\n        /* \"#utility.yul\":4948:4954   */\n      dup2\n        /* \"#utility.yul\":4943:4946   */\n      dup6\n        /* \"#utility.yul\":4866:4955   */\n      tag_230\n      jump\t// in\n    tag_229:\n        /* \"#utility.yul\":4859:4955   */\n      swap4\n      pop\n        /* \"#utility.yul\":4964:5016   */\n      tag_231\n        /* \"#utility.yul\":5009:5015   */\n      dup2\n        /* \"#utility.yul\":5004:5007   */\n      dup6\n        /* \"#utility.yul\":4997:5001   */\n      0x20\n        /* \"#utility.yul\":4990:4995   */\n      dup7\n        /* \"#utility.yul\":4986:5002   */\n      add\n        /* \"#utility.yul\":4964:5016   */\n      tag_223\n      jump\t// in\n    tag_231:\n        /* \"#utility.yul\":5041:5047   */\n      dup1\n        /* \"#utility.yul\":5036:5039   */\n      dup5\n        /* \"#utility.yul\":5032:5048   */\n      add\n        /* \"#utility.yul\":5025:5048   */\n      swap2\n      pop\n        /* \"#utility.yul\":4787:5054   */\n      pop\n        /* \"#utility.yul\":4677:5054   */\n      swap3\n      swap2\n      pop\n      pop\n      jump\t// out\n        /* \"#utility.yul\":5060:5426   */\n    tag_232:\n        /* \"#utility.yul\":5202:5205   */\n      0x00\n        /* \"#utility.yul\":5223:5290   */\n      tag_234\n        /* \"#utility.yul\":5287:5289   */\n      0x2d\n        /* \"#utility.yul\":5282:5285   */\n      dup4\n        /* \"#utility.yul\":5223:5290   */\n      tag_221\n      jump\t// in\n    tag_234:\n        /* \"#utility.yul\":5216:5290   */\n      swap2\n      pop\n        /* \"#utility.yul\":5299:5392   */\n      tag_235\n        /* \"#utility.yul\":5388:5391   */\n      dup3\n        /* \"#utility.yul\":5299:5392   */\n      tag_236\n      jump\t// in\n    tag_235:\n        /* \"#utility.yul\":5417:5419   */\n      0x40\n        /* \"#utility.yul\":5412:5415   */\n      dup3\n        /* \"#utility.yul\":5408:5420   */\n      add\n        /* \"#utility.yul\":5401:5420   */\n      swap1\n      pop\n        /* \"#utility.yul\":5060:5426   */\n      swap2\n      swap1\n      pop\n      jump\t// out\n        /* \"#utility.yul\":5432:5798   */\n    tag_237:\n        /* \"#utility.yul\":5574:5577   */\n      0x00\n        /* \"#utility.yul\":5595:5662   */\n      tag_239\n        /* \"#utility.yul\":5659:5661   */\n      0x2a\n        /* \"#utility.yul\":5654:5657   */\n      dup4\n        /* \"#utility.yul\":5595:5662   */\n      tag_221\n      jump\t// in\n    tag_239:\n        /* \"#utility.yul\":5588:5662   */\n      swap2\n      pop\n        /* \"#utility.yul\":5671:5764   */\n      tag_240\n        /* \"#utility.yul\":5760:5763   */\n      dup3\n        /* \"#utility.yul\":5671:5764   */\n      tag_241\n      jump\t// in\n    tag_240:\n        /* \"#utility.yul\":5789:5791   */\n      0x40\n        /* \"#utility.yul\":5784:5787   */\n      dup3\n        /* \"#utility.yul\":5780:5792   */\n      add\n        /* \"#utility.yul\":5773:5792   */\n      swap1\n      pop\n        /* \"#utility.yul\":5432:5798   */\n      swap2\n      swap1\n      pop\n      jump\t// out\n        /* \"#utility.yul\":5804:6170   */\n    tag_242:\n        /* \"#utility.yul\":5946:5949   */\n      0x00\n        /* \"#utility.yul\":5967:6034   */\n      tag_244\n        /* \"#utility.yul\":6031:6033   */\n      0x20\n        /* \"#utility.yul\":6026:6029   */\n      dup4\n        /* \"#utility.yul\":5967:6034   */\n      tag_221\n      jump\t// in\n    tag_244:\n        /* \"#utility.yul\":5960:6034   */\n      swap2\n      pop\n        /* \"#utility.yul\":6043:6136   */\n      tag_245\n        /* \"#utility.yul\":6132:6135   */\n      dup3\n        /* \"#utility.yul\":6043:6136   */\n      tag_246\n      jump\t// in\n    tag_245:\n        /* \"#utility.yul\":6161:6163   */\n      0x20\n        /* \"#utility.yul\":6156:6159   */\n      dup3\n        /* \"#utility.yul\":6152:6164   */\n      add\n        /* \"#utility.yul\":6145:6164   */\n      swap1\n      pop\n        /* \"#utility.yul\":5804:6170   */\n      swap2\n      swap1\n      pop\n      jump\t// out\n        /* \"#utility.yul\":6176:6294   */\n    tag_247:\n        /* \"#utility.yul\":6263:6287   */\n      tag_249\n        /* \"#utility.yul\":6281:6286   */\n      dup2\n        /* \"#utility.yul\":6263:6287   */\n      tag_250\n      jump\t// in\n    tag_249:\n        /* \"#utility.yul\":6258:6261   */\n      dup3\n        /* \"#utility.yul\":6251:6288   */\n      mstore\n        /* \"#utility.yul\":6176:6294   */\n      pop\n      pop\n      jump\t// out\n        /* \"#utility.yul\":6300:6575   */\n    tag_62:\n        /* \"#utility.yul\":6432:6435   */\n      0x00\n        /* \"#utility.yul\":6454:6549   */\n      tag_252\n        /* \"#utility.yul\":6545:6548   */\n      dup3\n        /* \"#utility.yul\":6536:6542   */\n      dup5\n        /* \"#utility.yul\":6454:6549   */\n      tag_226\n      jump\t// in\n    tag_252:\n        /* \"#utility.yul\":6447:6549   */\n      swap2\n      pop\n        /* \"#utility.yul\":6566:6569   */\n      dup2\n        /* \"#utility.yul\":6559:6569   */\n      swap1\n      pop\n        /* \"#utility.yul\":6300:6575   */\n      swap3\n      swap2\n      pop\n      pop\n      jump\t// out\n        /* \"#utility.yul\":6581:6803   */\n    tag_94:\n        /* \"#utility.yul\":6674:6678   */\n      0x00\n        /* \"#utility.yul\":6712:6714   */\n      0x20\n        /* \"#utility.yul\":6701:6710   */\n      dup3\n        /* \"#utility.yul\":6697:6715   */\n      add\n        /* \"#utility.yul\":6689:6715   */\n      swap1\n      pop\n        /* \"#utility.yul\":6725:6796   */\n      tag_254\n        /* \"#utility.yul\":6793:6794   */\n      0x00\n        /* \"#utility.yul\":6782:6791   */\n      dup4\n        /* \"#utility.yul\":6778:6795   */\n      add\n        /* \"#utility.yul\":6769:6775   */\n      dup5\n        /* \"#utility.yul\":6725:6796   */\n      tag_208\n      jump\t// in\n    tag_254:\n        /* \"#utility.yul\":6581:6803   */\n      swap3\n      swap2\n      pop\n      pop\n      jump\t// out\n        /* \"#utility.yul\":6809:7063   */\n    tag_30:\n        /* \"#utility.yul\":6918:6922   */\n      0x00\n        /* \"#utility.yul\":6956:6958   */\n      0x20\n        /* \"#utility.yul\":6945:6954   */\n      dup3\n        /* \"#utility.yul\":6941:6959   */\n      add\n        /* \"#utility.yul\":6933:6959   */\n      swap1\n      pop\n        /* \"#utility.yul\":6969:7056   */\n      tag_256\n        /* \"#utility.yul\":7053:7054   */\n      0x00\n        /* \"#utility.yul\":7042:7051   */\n      dup4\n        /* \"#utility.yul\":7038:7055   */\n      add\n        /* \"#utility.yul\":7029:7035   */\n      dup5\n        /* \"#utility.yul\":6969:7056   */\n      tag_204\n      jump\t// in\n    tag_256:\n        /* \"#utility.yul\":6809:7063   */\n      swap3\n      swap2\n      pop\n      pop\n      jump\t// out\n        /* \"#utility.yul\":7069:7401   */\n    tag_84:\n        /* \"#utility.yul\":7190:7194   */\n      0x00\n        /* \"#utility.yul\":7228:7230   */\n      0x40\n        /* \"#utility.yul\":7217:7226   */\n      dup3\n        /* \"#utility.yul\":7213:7231   */\n      add\n        /* \"#utility.yul\":7205:7231   */\n      swap1\n      pop\n        /* \"#utility.yul\":7241:7312   */\n      tag_258\n        /* \"#utility.yul\":7309:7310   */\n      0x00\n        /* \"#utility.yul\":7298:7307   */\n      dup4\n        /* \"#utility.yul\":7294:7311   */\n      add\n        /* \"#utility.yul\":7285:7291   */\n      dup6\n        /* \"#utility.yul\":7241:7312   */\n      tag_208\n      jump\t// in\n    tag_258:\n        /* \"#utility.yul\":7322:7394   */\n      tag_259\n        /* \"#utility.yul\":7390:7392   */\n      0x20\n        /* \"#utility.yul\":7379:7388   */\n      dup4\n        /* \"#utility.yul\":7375:7393   */\n      add\n        /* \"#utility.yul\":7366:7372   */\n      dup5\n        /* \"#utility.yul\":7322:7394   */\n      tag_247\n      jump\t// in\n    tag_259:\n        /* \"#utility.yul\":7069:7401   */\n      swap4\n      swap3\n      pop\n      pop\n      pop\n      jump\t// out\n        /* \"#utility.yul\":7407:7720   */\n    tag_114:\n        /* \"#utility.yul\":7520:7524   */\n      0x00\n        /* \"#utility.yul\":7558:7560   */\n      0x20\n        /* \"#utility.yul\":7547:7556   */\n      dup3\n        /* \"#utility.yul\":7543:7561   */\n      add\n        /* \"#utility.yul\":7535:7561   */\n      swap1\n      pop\n        /* \"#utility.yul\":7607:7616   */\n      dup2\n        /* \"#utility.yul\":7601:7605   */\n      dup2\n        /* \"#utility.yul\":7597:7617   */\n      sub\n        /* \"#utility.yul\":7593:7594   */\n      0x00\n        /* \"#utility.yul\":7582:7591   */\n      dup4\n        /* \"#utility.yul\":7578:7595   */\n      add\n        /* \"#utility.yul\":7571:7618   */\n      mstore\n        /* \"#utility.yul\":7635:7713   */\n      tag_261\n        /* \"#utility.yul\":7708:7712   */\n      dup2\n        /* \"#utility.yul\":7699:7705   */\n      dup5\n        /* \"#utility.yul\":7635:7713   */\n      tag_216\n      jump\t// in\n    tag_261:\n        /* \"#utility.yul\":7627:7713   */\n      swap1\n      pop\n        /* \"#utility.yul\":7407:7720   */\n      swap3\n      swap2\n      pop\n      pop\n      jump\t// out\n        /* \"#utility.yul\":7726:8149   */\n    tag_68:\n        /* \"#utility.yul\":7867:7871   */\n      0x00\n        /* \"#utility.yul\":7905:7907   */\n      0x40\n        /* \"#utility.yul\":7894:7903   */\n      dup3\n        /* \"#utility.yul\":7890:7908   */\n      add\n        /* \"#utility.yul\":7882:7908   */\n      swap1\n      pop\n        /* \"#utility.yul\":7954:7963   */\n      dup2\n        /* \"#utility.yul\":7948:7952   */\n      dup2\n        /* \"#utility.yul\":7944:7964   */\n      sub\n        /* \"#utility.yul\":7940:7941   */\n      0x00\n        /* \"#utility.yul\":7929:7938   */\n      dup4\n        /* \"#utility.yul\":7925:7942   */\n      add\n        /* \"#utility.yul\":7918:7965   */\n      mstore\n        /* \"#utility.yul\":7982:8060   */\n      tag_263\n        /* \"#utility.yul\":8055:8059   */\n      dup2\n        /* \"#utility.yul\":8046:8052   */\n      dup6\n        /* \"#utility.yul\":7982:8060   */\n      tag_216\n      jump\t// in\n    tag_263:\n        /* \"#utility.yul\":7974:8060   */\n      swap1\n      pop\n        /* \"#utility.yul\":8070:8142   */\n      tag_264\n        /* \"#utility.yul\":8138:8140   */\n      0x20\n        /* \"#utility.yul\":8127:8136   */\n      dup4\n        /* \"#utility.yul\":8123:8141   */\n      add\n        /* \"#utility.yul\":8114:8120   */\n      dup5\n        /* \"#utility.yul\":8070:8142   */\n      tag_247\n      jump\t// in\n    tag_264:\n        /* \"#utility.yul\":7726:8149   */\n      swap4\n      swap3\n      pop\n      pop\n      pop\n      jump\t// out\n        /* \"#utility.yul\":8155:8676   */\n    tag_55:\n        /* \"#utility.yul\":8318:8322   */\n      0x00\n        /* \"#utility.yul\":8356:8358   */\n      0x60\n        /* \"#utility.yul\":8345:8354   */\n      dup3\n        /* \"#utility.yul\":8341:8359   */\n      add\n        /* \"#utility.yul\":8333:8359   */\n      swap1\n      pop\n        /* \"#utility.yul\":8405:8414   */\n      dup2\n        /* \"#utility.yul\":8399:8403   */\n      dup2\n        /* \"#utility.yul\":8395:8415   */\n      sub\n        /* \"#utility.yul\":8391:8392   */\n      0x00\n        /* \"#utility.yul\":8380:8389   */\n      dup4\n        /* \"#utility.yul\":8376:8393   */\n      add\n        /* \"#utility.yul\":8369:8416   */\n      mstore\n        /* \"#utility.yul\":8433:8511   */\n      tag_266\n        /* \"#utility.yul\":8506:8510   */\n      dup2\n        /* \"#utility.yul\":8497:8503   */\n      dup7\n        /* \"#utility.yul\":8433:8511   */\n      tag_216\n      jump\t// in\n    tag_266:\n        /* \"#utility.yul\":8425:8511   */\n      swap1\n      pop\n        /* \"#utility.yul\":8521:8593   */\n      tag_267\n        /* \"#utility.yul\":8589:8591   */\n      0x20\n        /* \"#utility.yul\":8578:8587   */\n      dup4\n        /* \"#utility.yul\":8574:8592   */\n      add\n        /* \"#utility.yul\":8565:8571   */\n      dup6\n        /* \"#utility.yul\":8521:8593   */\n      tag_247\n      jump\t// in\n    tag_267:\n        /* \"#utility.yul\":8603:8669   */\n      tag_268\n        /* \"#utility.yul\":8665:8667   */\n      0x40\n        /* \"#utility.yul\":8654:8663   */\n      dup4\n        /* \"#utility.yul\":8650:8668   */\n      add\n        /* \"#utility.yul\":8641:8647   */\n      dup5\n        /* \"#utility.yul\":8603:8669   */\n      tag_212\n      jump\t// in\n    tag_268:\n        /* \"#utility.yul\":8155:8676   */\n      swap5\n      swap4\n      pop\n      pop\n      pop\n      pop\n      jump\t// out\n        /* \"#utility.yul\":8682:9101   */\n    tag_59:\n        /* \"#utility.yul\":8848:8852   */\n      0x00\n        /* \"#utility.yul\":8886:8888   */\n      0x20\n        /* \"#utility.yul\":8875:8884   */\n      dup3\n        /* \"#utility.yul\":8871:8889   */\n      add\n        /* \"#utility.yul\":8863:8889   */\n      swap1\n      pop\n        /* \"#utility.yul\":8935:8944   */\n      dup2\n        /* \"#utility.yul\":8929:8933   */\n      dup2\n        /* \"#utility.yul\":8925:8945   */\n      sub\n        /* \"#utility.yul\":8921:8922   */\n      0x00\n        /* \"#utility.yul\":8910:8919   */\n      dup4\n        /* \"#utility.yul\":8906:8923   */\n      add\n        /* \"#utility.yul\":8899:8946   */\n      mstore\n        /* \"#utility.yul\":8963:9094   */\n      tag_270\n        /* \"#utility.yul\":9089:9093   */\n      dup2\n        /* \"#utility.yul\":8963:9094   */\n      tag_232\n      jump\t// in\n    tag_270:\n        /* \"#utility.yul\":8955:9094   */\n      swap1\n      pop\n        /* \"#utility.yul\":8682:9101   */\n      swap2\n      swap1\n      pop\n      jump\t// out\n        /* \"#utility.yul\":9107:9526   */\n    tag_74:\n        /* \"#utility.yul\":9273:9277   */\n      0x00\n        /* \"#utility.yul\":9311:9313   */\n      0x20\n        /* \"#utility.yul\":9300:9309   */\n      dup3\n        /* \"#utility.yul\":9296:9314   */\n      add\n        /* \"#utility.yul\":9288:9314   */\n      swap1\n      pop\n        /* \"#utility.yul\":9360:9369   */\n      dup2\n        /* \"#utility.yul\":9354:9358   */\n      dup2\n        /* \"#utility.yul\":9350:9370   */\n      sub\n        /* \"#utility.yul\":9346:9347   */\n      0x00\n        /* \"#utility.yul\":9335:9344   */\n      dup4\n        /* \"#utility.yul\":9331:9348   */\n      add\n        /* \"#utility.yul\":9324:9371   */\n      mstore\n        /* \"#utility.yul\":9388:9519   */\n      tag_272\n        /* \"#utility.yul\":9514:9518   */\n      dup2\n        /* \"#utility.yul\":9388:9519   */\n      tag_237\n      jump\t// in\n    tag_272:\n        /* \"#utility.yul\":9380:9519   */\n      swap1\n      pop\n        /* \"#utility.yul\":9107:9526   */\n      swap2\n      swap1\n      pop\n      jump\t// out\n        /* \"#utility.yul\":9532:9951   */\n    tag_82:\n        /* \"#utility.yul\":9698:9702   */\n      0x00\n        /* \"#utility.yul\":9736:9738   */\n      0x20\n        /* \"#utility.yul\":9725:9734   */\n      dup3\n        /* \"#utility.yul\":9721:9739   */\n      add\n        /* \"#utility.yul\":9713:9739   */\n      swap1\n      pop\n        /* \"#utility.yul\":9785:9794   */\n      dup2\n        /* \"#utility.yul\":9779:9783   */\n      dup2\n        /* \"#utility.yul\":9775:9795   */\n      sub\n        /* \"#utility.yul\":9771:9772   */\n      0x00\n        /* \"#utility.yul\":9760:9769   */\n      dup4\n        /* \"#utility.yul\":9756:9773   */\n      add\n        /* \"#utility.yul\":9749:9796   */\n      mstore\n        /* \"#utility.yul\":9813:9944   */\n      tag_274\n        /* \"#utility.yul\":9939:9943   */\n      dup2\n        /* \"#utility.yul\":9813:9944   */\n      tag_242\n      jump\t// in\n    tag_274:\n        /* \"#utility.yul\":9805:9944   */\n      swap1\n      pop\n        /* \"#utility.yul\":9532:9951   */\n      swap2\n      swap1\n      pop\n      jump\t// out\n        /* \"#utility.yul\":9957:10179   */\n    tag_25:\n        /* \"#utility.yul\":10050:10054   */\n      0x00\n        /* \"#utility.yul\":10088:10090   */\n      0x20\n        /* \"#utility.yul\":10077:10086   */\n      dup3\n        /* \"#utility.yul\":10073:10091   */\n      add\n        /* \"#utility.yul\":10065:10091   */\n      swap1\n      pop\n        /* \"#utility.yul\":10101:10172   */\n      tag_276\n        /* \"#utility.yul\":10169:10170   */\n      0x00\n        /* \"#utility.yul\":10158:10167   */\n      dup4\n        /* \"#utility.yul\":10154:10171   */\n      add\n        /* \"#utility.yul\":10145:10151   */\n      dup5\n        /* \"#utility.yul\":10101:10172   */\n      tag_247\n      jump\t// in\n    tag_276:\n        /* \"#utility.yul\":9957:10179   */\n      swap3\n      swap2\n      pop\n      pop\n      jump\t// out\n        /* \"#utility.yul\":10185:10314   */\n    tag_146:\n        /* \"#utility.yul\":10219:10225   */\n      0x00\n        /* \"#utility.yul\":10246:10266   */\n      tag_278\n      tag_279\n      jump\t// in\n    tag_278:\n        /* \"#utility.yul\":10236:10266   */\n      swap1\n      pop\n        /* \"#utility.yul\":10275:10308   */\n      tag_280\n        /* \"#utility.yul\":10303:10307   */\n      dup3\n        /* \"#utility.yul\":10295:10301   */\n      dup3\n        /* \"#utility.yul\":10275:10308   */\n      tag_281\n      jump\t// in\n    tag_280:\n        /* \"#utility.yul\":10185:10314   */\n      swap2\n      swap1\n      pop\n      jump\t// out\n        /* \"#utility.yul\":10320:10395   */\n    tag_279:\n        /* \"#utility.yul\":10353:10359   */\n      0x00\n        /* \"#utility.yul\":10386:10388   */\n      0x40\n        /* \"#utility.yul\":10380:10389   */\n      mload\n        /* \"#utility.yul\":10370:10389   */\n      swap1\n      pop\n        /* \"#utility.yul\":10320:10395   */\n      swap1\n      jump\t// out\n        /* \"#utility.yul\":10401:10709   */\n    tag_145:\n        /* \"#utility.yul\":10463:10467   */\n      0x00\n        /* \"#utility.yul\":10553:10571   */\n      0xffffffffffffffff\n        /* \"#utility.yul\":10545:10551   */\n      dup3\n        /* \"#utility.yul\":10542:10572   */\n      gt\n        /* \"#utility.yul\":10539:10595   */\n      iszero\n      tag_284\n      jumpi\n        /* \"#utility.yul\":10575:10593   */\n      tag_285\n      tag_286\n      jump\t// in\n    tag_285:\n        /* \"#utility.yul\":10539:10595   */\n    tag_284:\n        /* \"#utility.yul\":10613:10642   */\n      tag_287\n        /* \"#utility.yul\":10635:10641   */\n      dup3\n        /* \"#utility.yul\":10613:10642   */\n      tag_225\n      jump\t// in\n    tag_287:\n        /* \"#utility.yul\":10605:10642   */\n      swap1\n      pop\n        /* \"#utility.yul\":10697:10701   */\n      0x20\n        /* \"#utility.yul\":10691:10695   */\n      dup2\n        /* \"#utility.yul\":10687:10702   */\n      add\n        /* \"#utility.yul\":10679:10702   */\n      swap1\n      pop\n        /* \"#utility.yul\":10401:10709   */\n      swap2\n      swap1\n      pop\n      jump\t// out\n        /* \"#utility.yul\":10715:10814   */\n    tag_219:\n        /* \"#utility.yul\":10767:10773   */\n      0x00\n        /* \"#utility.yul\":10801:10806   */\n      dup2\n        /* \"#utility.yul\":10795:10807   */\n      mload\n        /* \"#utility.yul\":10785:10807   */\n      swap1\n      pop\n        /* \"#utility.yul\":10715:10814   */\n      swap2\n      swap1\n      pop\n      jump\t// out\n        /* \"#utility.yul\":10820:10989   */\n    tag_221:\n        /* \"#utility.yul\":10904:10915   */\n      0x00\n        /* \"#utility.yul\":10938:10944   */\n      dup3\n        /* \"#utility.yul\":10933:10936   */\n      dup3\n        /* \"#utility.yul\":10926:10945   */\n      mstore\n        /* \"#utility.yul\":10978:10982   */\n      0x20\n        /* \"#utility.yul\":10973:10976   */\n      dup3\n        /* \"#utility.yul\":10969:10983   */\n      add\n        /* \"#utility.yul\":10954:10983   */\n      swap1\n      pop\n        /* \"#utility.yul\":10820:10989   */\n      swap3\n      swap2\n      pop\n      pop\n      jump\t// out\n        /* \"#utility.yul\":10995:11143   */\n    tag_230:\n        /* \"#utility.yul\":11097:11108   */\n      0x00\n        /* \"#utility.yul\":11134:11137   */\n      dup2\n        /* \"#utility.yul\":11119:11137   */\n      swap1\n      pop\n        /* \"#utility.yul\":10995:11143   */\n      swap3\n      swap2\n      pop\n      pop\n      jump\t// out\n        /* \"#utility.yul\":11149:11454   */\n    tag_91:\n        /* \"#utility.yul\":11189:11192   */\n      0x00\n        /* \"#utility.yul\":11208:11228   */\n      tag_292\n        /* \"#utility.yul\":11226:11227   */\n      dup3\n        /* \"#utility.yul\":11208:11228   */\n      tag_250\n      jump\t// in\n    tag_292:\n        /* \"#utility.yul\":11203:11228   */\n      swap2\n      pop\n        /* \"#utility.yul\":11242:11262   */\n      tag_293\n        /* \"#utility.yul\":11260:11261   */\n      dup4\n        /* \"#utility.yul\":11242:11262   */\n      tag_250\n      jump\t// in\n    tag_293:\n        /* \"#utility.yul\":11237:11262   */\n      swap3\n      pop\n        /* \"#utility.yul\":11396:11397   */\n      dup3\n        /* \"#utility.yul\":11328:11394   */\n      0xffffffffffffffffffffffffffffffffffffffffffffffffffffffffffffffff\n        /* \"#utility.yul\":11324:11398   */\n      sub\n        /* \"#utility.yul\":11321:11322   */\n      dup3\n        /* \"#utility.yul\":11318:11399   */\n      gt\n        /* \"#utility.yul\":11315:11422   */\n      iszero\n      tag_294\n      jumpi\n        /* \"#utility.yul\":11402:11420   */\n      tag_295\n      tag_296\n      jump\t// in\n    tag_295:\n        /* \"#utility.yul\":11315:11422   */\n    tag_294:\n        /* \"#utility.yul\":11446:11447   */\n      dup3\n        /* \"#utility.yul\":11443:11444   */\n      dup3\n        /* \"#utility.yul\":11439:11448   */\n      add\n        /* \"#utility.yul\":11432:11448   */\n      swap1\n      pop\n        /* \"#utility.yul\":11149:11454   */\n      swap3\n      swap2\n      pop\n      pop\n      jump\t// out\n        /* \"#utility.yul\":11460:11808   */\n    tag_129:\n        /* \"#utility.yul\":11500:11507   */\n      0x00\n        /* \"#utility.yul\":11523:11543   */\n      tag_298\n        /* \"#utility.yul\":11541:11542   */\n      dup3\n        /* \"#utility.yul\":11523:11543   */\n      tag_250\n      jump\t// in\n    tag_298:\n        /* \"#utility.yul\":11518:11543   */\n      swap2\n      pop\n        /* \"#utility.yul\":11557:11577   */\n      tag_299\n        /* \"#utility.yul\":11575:11576   */\n      dup4\n        /* \"#utility.yul\":11557:11577   */\n      tag_250\n      jump\t// in\n    tag_299:\n        /* \"#utility.yul\":11552:11577   */\n      swap3\n      pop\n        /* \"#utility.yul\":11745:11746   */\n      dup2\n        /* \"#utility.yul\":11677:11743   */\n      0xffffffffffffffffffffffffffffffffffffffffffffffffffffffffffffffff\n        /* \"#utility.yul\":11673:11747   */\n      div\n        /* \"#utility.yul\":11670:11671   */\n      dup4\n        /* \"#utility.yul\":11667:11748   */\n      gt\n        /* \"#utility.yul\":11662:11663   */\n      dup3\n        /* \"#utility.yul\":11655:11664   */\n      iszero\n        /* \"#utility.yul\":11648:11665   */\n      iszero\n        /* \"#utility.yul\":11644:11749   */\n      and\n        /* \"#utility.yul\":11641:11772   */\n      iszero\n      tag_300\n      jumpi\n        /* \"#utility.yul\":11752:11770   */\n      tag_301\n      tag_296\n      jump\t// in\n    tag_301:\n        /* \"#utility.yul\":11641:11772   */\n    tag_300:\n        /* \"#utility.yul\":11800:11801   */\n      dup3\n        /* \"#utility.yul\":11797:11798   */\n      dup3\n        /* \"#utility.yul\":11793:11802   */\n      mul\n        /* \"#utility.yul\":11782:11802   */\n      swap1\n      pop\n        /* \"#utility.yul\":11460:11808   */\n      swap3\n      swap2\n      pop\n      pop\n      jump\t// out\n        /* \"#utility.yul\":11814:12005   */\n    tag_76:\n        /* \"#utility.yul\":11854:11858   */\n      0x00\n        /* \"#utility.yul\":11874:11894   */\n      tag_303\n        /* \"#utility.yul\":11892:11893   */\n      dup3\n        /* \"#utility.yul\":11874:11894   */\n      tag_250\n      jump\t// in\n    tag_303:\n        /* \"#utility.yul\":11869:11894   */\n      swap2\n      pop\n        /* \"#utility.yul\":11908:11928   */\n      tag_304\n        /* \"#utility.yul\":11926:11927   */\n      dup4\n        /* \"#utility.yul\":11908:11928   */\n      tag_250\n      jump\t// in\n    tag_304:\n        /* \"#utility.yul\":11903:11928   */\n      swap3\n      pop\n        /* \"#utility.yul\":11947:11948   */\n      dup3\n        /* \"#utility.yul\":11944:11945   */\n      dup3\n        /* \"#utility.yul\":11941:11949   */\n      lt\n        /* \"#utility.yul\":11938:11972   */\n      iszero\n      tag_305\n      jumpi\n        /* \"#utility.yul\":11952:11970   */\n      tag_306\n      tag_296\n      jump\t// in\n    tag_306:\n        /* \"#utility.yul\":11938:11972   */\n    tag_305:\n        /* \"#utility.yul\":11997:11998   */\n      dup3\n        /* \"#utility.yul\":11994:11995   */\n      dup3\n        /* \"#utility.yul\":11990:11999   */\n      sub\n        /* \"#utility.yul\":11982:11999   */\n      swap1\n      pop\n        /* \"#utility.yul\":11814:12005   */\n      swap3\n      swap2\n      pop\n      pop\n      jump\t// out\n        /* \"#utility.yul\":12011:12107   */\n    tag_211:\n        /* \"#utility.yul\":12048:12055   */\n      0x00\n        /* \"#utility.yul\":12077:12101   */\n      tag_308\n        /* \"#utility.yul\":12095:12100   */\n      dup3\n        /* \"#utility.yul\":12077:12101   */\n      tag_309\n      jump\t// in\n    tag_308:\n        /* \"#utility.yul\":12066:12101   */\n      swap1\n      pop\n        /* \"#utility.yul\":12011:12107   */\n      swap2\n      swap1\n      pop\n      jump\t// out\n        /* \"#utility.yul\":12113:12217   */\n    tag_207:\n        /* \"#utility.yul\":12158:12165   */\n      0x00\n        /* \"#utility.yul\":12187:12211   */\n      tag_311\n        /* \"#utility.yul\":12205:12210   */\n      dup3\n        /* \"#utility.yul\":12187:12211   */\n      tag_309\n      jump\t// in\n    tag_311:\n        /* \"#utility.yul\":12176:12211   */\n      swap1\n      pop\n        /* \"#utility.yul\":12113:12217   */\n      swap2\n      swap1\n      pop\n      jump\t// out\n        /* \"#utility.yul\":12223:12313   */\n    tag_215:\n        /* \"#utility.yul\":12257:12264   */\n      0x00\n        /* \"#utility.yul\":12300:12305   */\n      dup2\n        /* \"#utility.yul\":12293:12306   */\n      iszero\n        /* \"#utility.yul\":12286:12307   */\n      iszero\n        /* \"#utility.yul\":12275:12307   */\n      swap1\n      pop\n        /* \"#utility.yul\":12223:12313   */\n      swap2\n      swap1\n      pop\n      jump\t// out\n        /* \"#utility.yul\":12319:12445   */\n    tag_309:\n        /* \"#utility.yul\":12356:12363   */\n      0x00\n        /* \"#utility.yul\":12396:12438   */\n      0xffffffffffffffffffffffffffffffffffffffff\n        /* \"#utility.yul\":12389:12394   */\n      dup3\n        /* \"#utility.yul\":12385:12439   */\n      and\n        /* \"#utility.yul\":12374:12439   */\n      swap1\n      pop\n        /* \"#utility.yul\":12319:12445   */\n      swap2\n      swap1\n      pop\n      jump\t// out\n        /* \"#utility.yul\":12451:12528   */\n    tag_250:\n        /* \"#utility.yul\":12488:12495   */\n      0x00\n        /* \"#utility.yul\":12517:12522   */\n      dup2\n        /* \"#utility.yul\":12506:12522   */\n      swap1\n      pop\n        /* \"#utility.yul\":12451:12528   */\n      swap2\n      swap1\n      pop\n      jump\t// out\n        /* \"#utility.yul\":12534:12688   */\n    tag_151:\n        /* \"#utility.yul\":12618:12624   */\n      dup3\n        /* \"#utility.yul\":12613:12616   */\n      dup2\n        /* \"#utility.yul\":12608:12611   */\n      dup4\n        /* \"#utility.yul\":12595:12625   */\n      calldatacopy\n        /* \"#utility.yul\":12680:12681   */\n      0x00\n        /* \"#utility.yul\":12671:12677   */\n      dup4\n        /* \"#utility.yul\":12666:12669   */\n      dup4\n        /* \"#utility.yul\":12662:12678   */\n      add\n        /* \"#utility.yul\":12655:12682   */\n      mstore\n        /* \"#utility.yul\":12534:12688   */\n      pop\n      pop\n      pop\n      jump\t// out\n        /* \"#utility.yul\":12694:13001   */\n    tag_223:\n        /* \"#utility.yul\":12762:12763   */\n      0x00\n        /* \"#utility.yul\":12772:12885   */\n    tag_317:\n        /* \"#utility.yul\":12786:12792   */\n      dup4\n        /* \"#utility.yul\":12783:12784   */\n      dup2\n        /* \"#utility.yul\":12780:12793   */\n      lt\n        /* \"#utility.yul\":12772:12885   */\n      iszero\n      tag_319\n      jumpi\n        /* \"#utility.yul\":12871:12872   */\n      dup1\n        /* \"#utility.yul\":12866:12869   */\n      dup3\n        /* \"#utility.yul\":12862:12873   */\n      add\n        /* \"#utility.yul\":12856:12874   */\n      mload\n        /* \"#utility.yul\":12852:12853   */\n      dup2\n        /* \"#utility.yul\":12847:12850   */\n      dup5\n        /* \"#utility.yul\":12843:12854   */\n      add\n        /* \"#utility.yul\":12836:12875   */\n      mstore\n        /* \"#utility.yul\":12808:12810   */\n      0x20\n        /* \"#utility.yul\":12805:12806   */\n      dup2\n        /* \"#utility.yul\":12801:12811   */\n      add\n        /* \"#utility.yul\":12796:12811   */\n      swap1\n      pop\n        /* \"#utility.yul\":12772:12885   */\n      jump(tag_317)\n    tag_319:\n        /* \"#utility.yul\":12903:12909   */\n      dup4\n        /* \"#utility.yul\":12900:12901   */\n      dup2\n        /* \"#utility.yul\":12897:12910   */\n      gt\n        /* \"#utility.yul\":12894:12995   */\n      iszero\n      tag_320\n      jumpi\n        /* \"#utility.yul\":12983:12984   */\n      0x00\n        /* \"#utility.yul\":12974:12980   */\n      dup5\n        /* \"#utility.yul\":12969:12972   */\n      dup5\n        /* \"#utility.yul\":12965:12981   */\n      add\n        /* \"#utility.yul\":12958:12985   */\n      mstore\n        /* \"#utility.yul\":12894:12995   */\n    tag_320:\n        /* \"#utility.yul\":12743:13001   */\n      pop\n        /* \"#utility.yul\":12694:13001   */\n      pop\n      pop\n      pop\n      jump\t// out\n        /* \"#utility.yul\":13007:13327   */\n    tag_122:\n        /* \"#utility.yul\":13051:13057   */\n      0x00\n        /* \"#utility.yul\":13088:13089   */\n      0x02\n        /* \"#utility.yul\":13082:13086   */\n      dup3\n        /* \"#utility.yul\":13078:13090   */\n      div\n        /* \"#utility.yul\":13068:13090   */\n      swap1\n      pop\n        /* \"#utility.yul\":13135:13136   */\n      0x01\n        /* \"#utility.yul\":13129:13133   */\n      dup3\n        /* \"#utility.yul\":13125:13137   */\n      and\n        /* \"#utility.yul\":13156:13174   */\n      dup1\n        /* \"#utility.yul\":13146:13227   */\n      tag_322\n      jumpi\n        /* \"#utility.yul\":13212:13216   */\n      0x7f\n        /* \"#utility.yul\":13204:13210   */\n      dup3\n        /* \"#utility.yul\":13200:13217   */\n      and\n        /* \"#utility.yul\":13190:13217   */\n      swap2\n      pop\n        /* \"#utility.yul\":13146:13227   */\n    tag_322:\n        /* \"#utility.yul\":13274:13276   */\n      0x20\n        /* \"#utility.yul\":13266:13272   */\n      dup3\n        /* \"#utility.yul\":13263:13277   */\n      lt\n        /* \"#utility.yul\":13243:13261   */\n      dup2\n        /* \"#utility.yul\":13240:13278   */\n      eq\n        /* \"#utility.yul\":13237:13321   */\n      iszero\n      tag_323\n      jumpi\n        /* \"#utility.yul\":13293:13311   */\n      tag_324\n      tag_325\n      jump\t// in\n    tag_324:\n        /* \"#utility.yul\":13237:13321   */\n    tag_323:\n        /* \"#utility.yul\":13058:13327   */\n      pop\n        /* \"#utility.yul\":13007:13327   */\n      swap2\n      swap1\n      pop\n      jump\t// out\n        /* \"#utility.yul\":13333:13614   */\n    tag_281:\n        /* \"#utility.yul\":13416:13443   */\n      tag_327\n        /* \"#utility.yul\":13438:13442   */\n      dup3\n        /* \"#utility.yul\":13416:13443   */\n      tag_225\n      jump\t// in\n    tag_327:\n        /* \"#utility.yul\":13408:13414   */\n      dup2\n        /* \"#utility.yul\":13404:13444   */\n      add\n        /* \"#utility.yul\":13546:13552   */\n      dup2\n        /* \"#utility.yul\":13534:13544   */\n      dup2\n        /* \"#utility.yul\":13531:13553   */\n      lt\n        /* \"#utility.yul\":13510:13528   */\n      0xffffffffffffffff\n        /* \"#utility.yul\":13498:13508   */\n      dup3\n        /* \"#utility.yul\":13495:13529   */\n      gt\n        /* \"#utility.yul\":13492:13554   */\n      or\n        /* \"#utility.yul\":13489:13577   */\n      iszero\n      tag_328\n      jumpi\n        /* \"#utility.yul\":13557:13575   */\n      tag_329\n      tag_286\n      jump\t// in\n    tag_329:\n        /* \"#utility.yul\":13489:13577   */\n    tag_328:\n        /* \"#utility.yul\":13597:13607   */\n      dup1\n        /* \"#utility.yul\":13593:13595   */\n      0x40\n        /* \"#utility.yul\":13586:13608   */\n      mstore\n        /* \"#utility.yul\":13376:13614   */\n      pop\n        /* \"#utility.yul\":13333:13614   */\n      pop\n      pop\n      jump\t// out\n        /* \"#utility.yul\":13620:13800   */\n    tag_296:\n        /* \"#utility.yul\":13668:13745   */\n      0x4e487b7100000000000000000000000000000000000000000000000000000000\n        /* \"#utility.yul\":13665:13666   */\n      0x00\n        /* \"#utility.yul\":13658:13746   */\n      mstore\n        /* \"#utility.yul\":13765:13769   */\n      0x11\n        /* \"#utility.yul\":13762:13763   */\n      0x04\n        /* \"#utility.yul\":13755:13770   */\n      mstore\n        /* \"#utility.yul\":13789:13793   */\n      0x24\n        /* \"#utility.yul\":13786:13787   */\n      0x00\n        /* \"#utility.yul\":13779:13794   */\n      revert\n        /* \"#utility.yul\":13806:13986   */\n    tag_325:\n        /* \"#utility.yul\":13854:13931   */\n      0x4e487b7100000000000000000000000000000000000000000000000000000000\n        /* \"#utility.yul\":13851:13852   */\n      0x00\n        /* \"#utility.yul\":13844:13932   */\n      mstore\n        /* \"#utility.yul\":13951:13955   */\n      0x22\n        /* \"#utility.yul\":13948:13949   */\n      0x04\n        /* \"#utility.yul\":13941:13956   */\n      mstore\n        /* \"#utility.yul\":13975:13979   */\n      0x24\n        /* \"#utility.yul\":13972:13973   */\n      0x00\n        /* \"#utility.yul\":13965:13980   */\n      revert\n        /* \"#utility.yul\":13992:14172   */\n    tag_286:\n        /* \"#utility.yul\":14040:14117   */\n      0x4e487b7100000000000000000000000000000000000000000000000000000000\n        /* \"#utility.yul\":14037:14038   */\n      0x00\n        /* \"#utility.yul\":14030:14118   */\n      mstore\n        /* \"#utility.yul\":14137:14141   */\n      0x41\n        /* \"#utility.yul\":14134:14135   */\n      0x04\n        /* \"#utility.yul\":14127:14142   */\n      mstore\n        /* \"#utility.yul\":14161:14165   */\n      0x24\n        /* \"#utility.yul\":14158:14159   */\n      0x00\n        /* \"#utility.yul\":14151:14166   */\n      revert\n        /* \"#utility.yul\":14178:14295   */\n    tag_164:\n        /* \"#utility.yul\":14287:14288   */\n      0x00\n        /* \"#utility.yul\":14284:14285   */\n      dup1\n        /* \"#utility.yul\":14277:14289   */\n      revert\n        /* \"#utility.yul\":14301:14418   */\n    tag_149:\n        /* \"#utility.yul\":14410:14411   */\n      0x00\n        /* \"#utility.yul\":14407:14408   */\n      dup1\n        /* \"#utility.yul\":14400:14412   */\n      revert\n        /* \"#utility.yul\":14424:14541   */\n    tag_187:\n        /* \"#utility.yul\":14533:14534   */\n      0x00\n        /* \"#utility.yul\":14530:14531   */\n      dup1\n        /* \"#utility.yul\":14523:14535   */\n      revert\n        /* \"#utility.yul\":14547:14664   */\n    tag_176:\n        /* \"#utility.yul\":14656:14657   */\n      0x00\n        /* \"#utility.yul\":14653:14654   */\n      dup1\n        /* \"#utility.yul\":14646:14658   */\n      revert\n        /* \"#utility.yul\":14670:14772   */\n    tag_225:\n        /* \"#utility.yul\":14711:14717   */\n      0x00\n        /* \"#utility.yul\":14762:14764   */\n      0x1f\n        /* \"#utility.yul\":14758:14765   */\n      not\n        /* \"#utility.yul\":14753:14755   */\n      0x1f\n        /* \"#utility.yul\":14746:14751   */\n      dup4\n        /* \"#utility.yul\":14742:14756   */\n      add\n        /* \"#utility.yul\":14738:14766   */\n      and\n        /* \"#utility.yul\":14728:14766   */\n      swap1\n      pop\n        /* \"#utility.yul\":14670:14772   */\n      swap2\n      swap1\n      pop\n      jump\t// out\n        /* \"#utility.yul\":14778:15010   */\n    tag_236:\n        /* \"#utility.yul\":14918:14952   */\n      0x4e6f207469656e6573207065726d69736f73207061726120656a656375746172\n        /* \"#utility.yul\":14914:14915   */\n      0x00\n        /* \"#utility.yul\":14906:14912   */\n      dup3\n        /* \"#utility.yul\":14902:14916   */\n      add\n        /* \"#utility.yul\":14895:14953   */\n      mstore\n        /* \"#utility.yul\":14987:15002   */\n      0x20657374612066756e63696f6e00000000000000000000000000000000000000\n        /* \"#utility.yul\":14982:14984   */\n      0x20\n        /* \"#utility.yul\":14974:14980   */\n      dup3\n        /* \"#utility.yul\":14970:14985   */\n      add\n        /* \"#utility.yul\":14963:15003   */\n      mstore\n        /* \"#utility.yul\":14778:15010   */\n      pop\n      jump\t// out\n        /* \"#utility.yul\":15016:15245   */\n    tag_241:\n        /* \"#utility.yul\":15156:15190   */\n      0x436f6d707261206d656e6f7320546f6b656e73206f207061676120636f6e206d\n        /* \"#utility.yul\":15152:15153   */\n      0x00\n        /* \"#utility.yul\":15144:15150   */\n      dup3\n        /* \"#utility.yul\":15140:15154   */\n      add\n        /* \"#utility.yul\":15133:15191   */\n      mstore\n        /* \"#utility.yul\":15225:15237   */\n      0x6173206574686572732e00000000000000000000000000000000000000000000\n        /* \"#utility.yul\":15220:15222   */\n      0x20\n        /* \"#utility.yul\":15212:15218   */\n      dup3\n        /* \"#utility.yul\":15208:15223   */\n      add\n        /* \"#utility.yul\":15201:15238   */\n      mstore\n        /* \"#utility.yul\":15016:15245   */\n      pop\n      jump\t// out\n        /* \"#utility.yul\":15251:15433   */\n    tag_246:\n        /* \"#utility.yul\":15391:15425   */\n      0x436f6d70726120756e206e756d65726f206d656e6f7220646520546f6b656e73\n        /* \"#utility.yul\":15387:15388   */\n      0x00\n        /* \"#utility.yul\":15379:15385   */\n      dup3\n        /* \"#utility.yul\":15375:15389   */\n      add\n        /* \"#utility.yul\":15368:15426   */\n      mstore\n        /* \"#utility.yul\":15251:15433   */\n      pop\n      jump\t// out\n        /* \"#utility.yul\":15439:15561   */\n    tag_155:\n        /* \"#utility.yul\":15512:15536   */\n      tag_342\n        /* \"#utility.yul\":15530:15535   */\n      dup2\n        /* \"#utility.yul\":15512:15536   */\n      tag_211\n      jump\t// in\n    tag_342:\n        /* \"#utility.yul\":15505:15510   */\n      dup2\n        /* \"#utility.yul\":15502:15537   */\n      eq\n        /* \"#utility.yul\":15492:15555   */\n      tag_343\n      jumpi\n        /* \"#utility.yul\":15551:15552   */\n      0x00\n        /* \"#utility.yul\":15548:15549   */\n      dup1\n        /* \"#utility.yul\":15541:15553   */\n      revert\n        /* \"#utility.yul\":15492:15555   */\n    tag_343:\n        /* \"#utility.yul\":15439:15561   */\n      pop\n      jump\t// out\n        /* \"#utility.yul\":15567:15683   */\n    tag_159:\n        /* \"#utility.yul\":15637:15658   */\n      tag_345\n        /* \"#utility.yul\":15652:15657   */\n      dup2\n        /* \"#utility.yul\":15637:15658   */\n      tag_215\n      jump\t// in\n    tag_345:\n        /* \"#utility.yul\":15630:15635   */\n      dup2\n        /* \"#utility.yul\":15627:15659   */\n      eq\n        /* \"#utility.yul\":15617:15677   */\n      tag_346\n      jumpi\n        /* \"#utility.yul\":15673:15674   */\n      0x00\n        /* \"#utility.yul\":15670:15671   */\n      dup1\n        /* \"#utility.yul\":15663:15675   */\n      revert\n        /* \"#utility.yul\":15617:15677   */\n    tag_346:\n        /* \"#utility.yul\":15567:15683   */\n      pop\n      jump\t// out\n        /* \"#utility.yul\":15689:15811   */\n    tag_169:\n        /* \"#utility.yul\":15762:15786   */\n      tag_348\n        /* \"#utility.yul\":15780:15785   */\n      dup2\n        /* \"#utility.yul\":15762:15786   */\n      tag_250\n      jump\t// in\n    tag_348:\n        /* \"#utility.yul\":15755:15760   */\n      dup2\n        /* \"#utility.yul\":15752:15787   */\n      eq\n        /* \"#utility.yul\":15742:15805   */\n      tag_349\n      jumpi\n        /* \"#utility.yul\":15801:15802   */\n      0x00\n        /* \"#utility.yul\":15798:15799   */\n      dup1\n        /* \"#utility.yul\":15791:15803   */\n      revert\n        /* \"#utility.yul\":15742:15805   */\n    tag_349:\n        /* \"#utility.yul\":15689:15811   */\n      pop\n      jump\t// out\n\n    auxdata: 0xa2646970667358221220590941126976e188fed1967de47efc4243a71ccf7ca305808fc2e6f03fc8d68664736f6c63430008070033\n}\n\nsub_1: assembly {\n        /* \"Dinsey/ERC20.sol\":1767:4072  contract ERC20Basic is IERC20{\r... */\n      mstore(0x40, 0x80)\n        /* \"Dinsey/ERC20.sol\":2284:2419  constructor (uint256 initialSupply) public{\r... */\n      callvalue\n      dup1\n      iszero\n      tag_1\n      jumpi\n      0x00\n      dup1\n      revert\n    tag_1:\n      pop\n      mload(0x40)\n      sub(codesize, bytecodeSize)\n      dup1\n      bytecodeSize\n      dup4\n      codecopy\n      dup2\n      dup2\n      add\n      0x40\n      mstore\n      dup2\n      add\n      swap1\n      tag_2\n      swap2\n      swap1\n      tag_3\n      jump\t// in\n    tag_2:\n        /* \"Dinsey/ERC20.sol\":2352:2365  initialSupply */\n      dup1\n        /* \"Dinsey/ERC20.sol\":2337:2349  totalSupply_ */\n      0x02\n        /* \"Dinsey/ERC20.sol\":2337:2365  totalSupply_ = initialSupply */\n      dup2\n      swap1\n      sstore\n      pop\n        /* \"Dinsey/ERC20.sol\":2399:2411  totalSupply_ */\n      sload(0x02)\n        /* \"Dinsey/ERC20.sol\":2376:2384  balances */\n      0x00\n        /* \"Dinsey/ERC20.sol\":2376:2396  balances[msg.sender] */\n      dup1\n        /* \"Dinsey/ERC20.sol\":2385:2395  msg.sender */\n      caller\n        /* \"Dinsey/ERC20.sol\":2376:2396  balances[msg.sender] */\n      0xffffffffffffffffffffffffffffffffffffffff\n      and\n      0xffffffffffffffffffffffffffffffffffffffff\n      and\n      dup2\n      mstore\n      0x20\n      add\n      swap1\n      dup2\n      mstore\n      0x20\n      add\n      0x00\n      keccak256\n        /* \"Dinsey/ERC20.sol\":2376:2411  balances[msg.sender] = totalSupply_ */\n      dup2\n      swap1\n      sstore\n      pop\n        /* \"Dinsey/ERC20.sol\":2284:2419  constructor (uint256 initialSupply) public{\r... */\n      pop\n        /* \"Dinsey/ERC20.sol\":1767:4072  contract ERC20Basic is IERC20{\r... */\n      jump(tag_6)\n        /* \"#utility.yul\":7:150   */\n    tag_8:\n        /* \"#utility.yul\":64:69   */\n      0x00\n        /* \"#utility.yul\":95:101   */\n      dup2\n        /* \"#utility.yul\":89:102   */\n      mload\n        /* \"#utility.yul\":80:102   */\n      swap1\n      pop\n        /* \"#utility.yul\":111:144   */\n      tag_10\n        /* \"#utility.yul\":138:143   */\n      dup2\n        /* \"#utility.yul\":111:144   */\n      tag_11\n      jump\t// in\n    tag_10:\n        /* \"#utility.yul\":7:150   */\n      swap3\n      swap2\n      pop\n      pop\n      jump\t// out\n        /* \"#utility.yul\":156:507   */\n    tag_3:\n        /* \"#utility.yul\":226:232   */\n      0x00\n        /* \"#utility.yul\":275:277   */\n      0x20\n        /* \"#utility.yul\":263:272   */\n      dup3\n        /* \"#utility.yul\":254:261   */\n      dup5\n        /* \"#utility.yul\":250:273   */\n      sub\n        /* \"#utility.yul\":246:278   */\n      slt\n        /* \"#utility.yul\":243:362   */\n      iszero\n      tag_13\n      jumpi\n        /* \"#utility.yul\":281:360   */\n      tag_14\n      tag_15\n      jump\t// in\n    tag_14:\n        /* \"#utility.yul\":243:362   */\n    tag_13:\n        /* \"#utility.yul\":401:402   */\n      0x00\n        /* \"#utility.yul\":426:490   */\n      tag_16\n        /* \"#utility.yul\":482:489   */\n      dup5\n        /* \"#utility.yul\":473:479   */\n      dup3\n        /* \"#utility.yul\":462:471   */\n      dup6\n        /* \"#utility.yul\":458:480   */\n      add\n        /* \"#utility.yul\":426:490   */\n      tag_8\n      jump\t// in\n    tag_16:\n        /* \"#utility.yul\":416:490   */\n      swap2\n      pop\n        /* \"#utility.yul\":372:500   */\n      pop\n        /* \"#utility.yul\":156:507   */\n      swap3\n      swap2\n      pop\n      pop\n      jump\t// out\n        /* \"#utility.yul\":594:671   */\n    tag_19:\n        /* \"#utility.yul\":631:638   */\n      0x00\n        /* \"#utility.yul\":660:665   */\n      dup2\n        /* \"#utility.yul\":649:665   */\n      swap1\n      pop\n        /* \"#utility.yul\":594:671   */\n      swap2\n      swap1\n      pop\n      jump\t// out\n        /* \"#utility.yul\":800:917   */\n    tag_15:\n        /* \"#utility.yul\":909:910   */\n      0x00\n        /* \"#utility.yul\":906:907   */\n      dup1\n        /* \"#utility.yul\":899:911   */\n      revert\n        /* \"#utility.yul\":923:1045   */\n    tag_11:\n        /* \"#utility.yul\":996:1020   */\n      tag_25\n        /* \"#utility.yul\":1014:1019   */\n      dup2\n        /* \"#utility.yul\":996:1020   */\n      tag_19\n      jump\t// in\n    tag_25:\n        /* \"#utility.yul\":989:994   */\n      dup2\n        /* \"#utility.yul\":986:1021   */\n      eq\n        /* \"#utility.yul\":976:1039   */\n      tag_26\n      jumpi\n        /* \"#utility.yul\":1035:1036   */\n      0x00\n        /* \"#utility.yul\":1032:1033   */\n      dup1\n        /* \"#utility.yul\":1025:1037   */\n      revert\n        /* \"#utility.yul\":976:1039   */\n    tag_26:\n        /* \"#utility.yul\":923:1045   */\n      pop\n      jump\t// out\n        /* \"Dinsey/ERC20.sol\":1767:4072  contract ERC20Basic is IERC20{\r... */\n    tag_6:\n      dataSize(sub_0)\n      dup1\n      dataOffset(sub_0)\n      0x00\n      codecopy\n      0x00\n      return\n    stop\n\n    sub_0: assembly {\n            /* \"Dinsey/ERC20.sol\":1767:4072  contract ERC20Basic is IERC20{\r... */\n          mstore(0x40, 0x80)\n          callvalue\n          dup1\n          iszero\n          tag_1\n          jumpi\n          0x00\n          dup1\n          revert\n        tag_1:\n          pop\n          jumpi(tag_2, lt(calldatasize, 0x04))\n          shr(0xe0, calldataload(0x00))\n          dup1\n          0x313ce567\n          gt\n          tag_13\n          jumpi\n          dup1\n          0x313ce567\n          eq\n          tag_8\n          jumpi\n          dup1\n          0x70a08231\n          eq\n          tag_9\n          jumpi\n          dup1\n          0x95d89b41\n          eq\n          tag_10\n          jumpi\n          dup1\n          0xa9059cbb\n          eq\n          tag_11\n          jumpi\n          dup1\n          0xdd62ed3e\n          eq\n          tag_12\n          jumpi\n          jump(tag_2)\n        tag_13:\n          dup1\n          0x06fdde03\n          eq\n          tag_3\n          jumpi\n          dup1\n          0x095ea7b3\n          eq\n          tag_4\n          jumpi\n          dup1\n          0x18160ddd\n          eq\n          tag_5\n          jumpi\n          dup1\n          0x1d43cc98\n          eq\n          tag_6\n          jumpi\n          dup1\n          0x23b872dd\n          eq\n          tag_7\n          jumpi\n        tag_2:\n          0x00\n          dup1\n          revert\n            /* \"Dinsey/ERC20.sol\":1805:1854  string public constant name = \"ERC20BlockchainAZ\" */\n        tag_3:\n          tag_14\n          tag_15\n          jump\t// in\n        tag_14:\n          mload(0x40)\n          tag_16\n          swap2\n          swap1\n          tag_17\n          jump\t// in\n        tag_16:\n          mload(0x40)\n          dup1\n          swap2\n          sub\n          swap1\n          return\n            /* \"Dinsey/ERC20.sol\":3347:3571  function approve(address delegate, uint256 numTokens) public override returns(bool){\r... */\n        tag_4:\n          tag_18\n          0x04\n          dup1\n          calldatasize\n          sub\n          dup2\n          add\n          swap1\n          tag_19\n          swap2\n          swap1\n          tag_20\n          jump\t// in\n        tag_19:\n          tag_21\n          jump\t// in\n        tag_18:\n          mload(0x40)\n          tag_22\n          swap2\n          swap1\n          tag_23\n          jump\t// in\n        tag_22:\n          mload(0x40)\n          dup1\n          swap2\n          sub\n          swap1\n          return\n            /* \"Dinsey/ERC20.sol\":2427:2525  function totalSupply() public override view returns(uint256){\r... */\n        tag_5:\n          tag_24\n          tag_25\n          jump\t// in\n        tag_24:\n          mload(0x40)\n          tag_26\n          swap2\n          swap1\n          tag_27\n          jump\t// in\n        tag_26:\n          mload(0x40)\n          dup1\n          swap2\n          sub\n          swap1\n          return\n            /* \"Dinsey/ERC20.sol\":2533:2691  function increaseTotalSupply(uint newTokensAmount) public {\r... */\n        tag_6:\n          tag_28\n          0x04\n          dup1\n          calldatasize\n          sub\n          dup2\n          add\n          swap1\n          tag_29\n          swap2\n          swap1\n          tag_30\n          jump\t// in\n        tag_29:\n          tag_31\n          jump\t// in\n        tag_28:\n          stop\n            /* \"Dinsey/ERC20.sol\":3579:4067  function transferFrom(address owner, address buyer, uint256 numTokens) public override returns(bool){\r... */\n        tag_7:\n          tag_32\n          0x04\n          dup1\n          calldatasize\n          sub\n          dup2\n          add\n          swap1\n          tag_33\n          swap2\n          swap1\n          tag_34\n          jump\t// in\n        tag_33:\n          tag_35\n          jump\t// in\n        tag_32:\n          mload(0x40)\n          tag_36\n          swap2\n          swap1\n          tag_23\n          jump\t// in\n        tag_36:\n          mload(0x40)\n          dup1\n          swap2\n          sub\n          swap1\n          return\n            /* \"Dinsey/ERC20.sol\":1905:1939  uint8 public constant decimals = 2 */\n        tag_8:\n          tag_37\n          tag_38\n          jump\t// in\n        tag_37:\n          mload(0x40)\n          tag_39\n          swap2\n          swap1\n          tag_40\n          jump\t// in\n        tag_39:\n          mload(0x40)\n          dup1\n          swap2\n          sub\n          swap1\n          return\n            /* \"Dinsey/ERC20.sol\":2699:2821  function balanceOf(address tokenOwner) public override view returns(uint256){\r... */\n        tag_9:\n          tag_41\n          0x04\n          dup1\n          calldatasize\n          sub\n          dup2\n          add\n          swap1\n          tag_42\n          swap2\n          swap1\n          tag_43\n          jump\t// in\n        tag_42:\n          tag_44\n          jump\t// in\n        tag_41:\n          mload(0x40)\n          tag_45\n          swap2\n          swap1\n          tag_27\n          jump\t// in\n        tag_45:\n          mload(0x40)\n          dup1\n          swap2\n          sub\n          swap1\n          return\n            /* \"Dinsey/ERC20.sol\":1861:1898  string public constant symbol = \"ERC\" */\n        tag_10:\n          tag_46\n          tag_47\n          jump\t// in\n        tag_46:\n          mload(0x40)\n          tag_48\n          swap2\n          swap1\n          tag_17\n          jump\t// in\n        tag_48:\n          mload(0x40)\n          dup1\n          swap2\n          sub\n          swap1\n          return\n            /* \"Dinsey/ERC20.sol\":2976:3339  function transfer( address recipient, uint256 numTokens) public override returns(bool){\r... */\n        tag_11:\n          tag_49\n          0x04\n          dup1\n          calldatasize\n          sub\n          dup2\n          add\n          swap1\n          tag_50\n          swap2\n          swap1\n          tag_20\n          jump\t// in\n        tag_50:\n          tag_51\n          jump\t// in\n        tag_49:\n          mload(0x40)\n          tag_52\n          swap2\n          swap1\n          tag_23\n          jump\t// in\n        tag_52:\n          mload(0x40)\n          dup1\n          swap2\n          sub\n          swap1\n          return\n            /* \"Dinsey/ERC20.sol\":2829:2968  function allowance(address owner, address delegate) public override view returns(uint256){\r... */\n        tag_12:\n          tag_53\n          0x04\n          dup1\n          calldatasize\n          sub\n          dup2\n          add\n          swap1\n          tag_54\n          swap2\n          swap1\n          tag_55\n          jump\t// in\n        tag_54:\n          tag_56\n          jump\t// in\n        tag_53:\n          mload(0x40)\n          tag_57\n          swap2\n          swap1\n          tag_27\n          jump\t// in\n        tag_57:\n          mload(0x40)\n          dup1\n          swap2\n          sub\n          swap1\n          return\n            /* \"Dinsey/ERC20.sol\":1805:1854  string public constant name = \"ERC20BlockchainAZ\" */\n        tag_15:\n          mload(0x40)\n          dup1\n          0x40\n          add\n          0x40\n          mstore\n          dup1\n          0x11\n          dup2\n          mstore\n          0x20\n          add\n          0x4552433230426c6f636b636861696e415a000000000000000000000000000000\n          dup2\n          mstore\n          pop\n          dup2\n          jump\t// out\n            /* \"Dinsey/ERC20.sol\":3347:3571  function approve(address delegate, uint256 numTokens) public override returns(bool){\r... */\n        tag_21:\n            /* \"Dinsey/ERC20.sol\":3425:3429  bool */\n          0x00\n            /* \"Dinsey/ERC20.sol\":3473:3482  numTokens */\n          dup2\n            /* \"Dinsey/ERC20.sol\":3441:3448  allowed */\n          0x01\n            /* \"Dinsey/ERC20.sol\":3441:3460  allowed[msg.sender] */\n          0x00\n            /* \"Dinsey/ERC20.sol\":3449:3459  msg.sender */\n          caller\n            /* \"Dinsey/ERC20.sol\":3441:3460  allowed[msg.sender] */\n          0xffffffffffffffffffffffffffffffffffffffff\n          and\n          0xffffffffffffffffffffffffffffffffffffffff\n          and\n          dup2\n          mstore\n          0x20\n          add\n          swap1\n          dup2\n          mstore\n          0x20\n          add\n          0x00\n          keccak256\n            /* \"Dinsey/ERC20.sol\":3441:3470  allowed[msg.sender][delegate] */\n          0x00\n            /* \"Dinsey/ERC20.sol\":3461:3469  delegate */\n          dup6\n            /* \"Dinsey/ERC20.sol\":3441:3470  allowed[msg.sender][delegate] */\n          0xffffffffffffffffffffffffffffffffffffffff\n          and\n          0xffffffffffffffffffffffffffffffffffffffff\n          and\n          dup2\n          mstore\n          0x20\n          add\n          swap1\n          dup2\n          mstore\n          0x20\n          add\n          0x00\n          keccak256\n            /* \"Dinsey/ERC20.sol\":3441:3482  allowed[msg.sender][delegate] = numTokens */\n          dup2\n          swap1\n          sstore\n          pop\n            /* \"Dinsey/ERC20.sol\":3519:3527  delegate */\n          dup3\n            /* \"Dinsey/ERC20.sol\":3498:3539  Approval(msg.sender, delegate, numTokens) */\n          0xffffffffffffffffffffffffffffffffffffffff\n          and\n            /* \"Dinsey/ERC20.sol\":3507:3517  msg.sender */\n          caller\n            /* \"Dinsey/ERC20.sol\":3498:3539  Approval(msg.sender, delegate, numTokens) */\n          0xffffffffffffffffffffffffffffffffffffffff\n          and\n          0x8c5be1e5ebec7d5bd14f71427d1e84f3dd0314c0f7b2291e5b200ac8c7c3b925\n            /* \"Dinsey/ERC20.sol\":3529:3538  numTokens */\n          dup5\n            /* \"Dinsey/ERC20.sol\":3498:3539  Approval(msg.sender, delegate, numTokens) */\n          mload(0x40)\n          tag_59\n          swap2\n          swap1\n          tag_27\n          jump\t// in\n        tag_59:\n          mload(0x40)\n          dup1\n          swap2\n          sub\n          swap1\n          log3\n            /* \"Dinsey/ERC20.sol\":3559:3563  true */\n          0x01\n            /* \"Dinsey/ERC20.sol\":3552:3563  return true */\n          swap1\n          pop\n            /* \"Dinsey/ERC20.sol\":3347:3571  function approve(address delegate, uint256 numTokens) public override returns(bool){\r... */\n          swap3\n          swap2\n          pop\n          pop\n          jump\t// out\n            /* \"Dinsey/ERC20.sol\":2427:2525  function totalSupply() public override view returns(uint256){\r... */\n        tag_25:\n            /* \"Dinsey/ERC20.sol\":2479:2486  uint256 */\n          0x00\n            /* \"Dinsey/ERC20.sol\":2505:2517  totalSupply_ */\n          sload(0x02)\n            /* \"Dinsey/ERC20.sol\":2498:2517  return totalSupply_ */\n          swap1\n          pop\n            /* \"Dinsey/ERC20.sol\":2427:2525  function totalSupply() public override view returns(uint256){\r... */\n          swap1\n          jump\t// out\n            /* \"Dinsey/ERC20.sol\":2533:2691  function increaseTotalSupply(uint newTokensAmount) public {\r... */\n        tag_31:\n            /* \"Dinsey/ERC20.sol\":2618:2633  newTokensAmount */\n          dup1\n            /* \"Dinsey/ERC20.sol\":2602:2614  totalSupply_ */\n          0x02\n          0x00\n            /* \"Dinsey/ERC20.sol\":2602:2633  totalSupply_ += newTokensAmount */\n          dup3\n          dup3\n          sload\n          tag_62\n          swap2\n          swap1\n          tag_63\n          jump\t// in\n        tag_62:\n          swap3\n          pop\n          pop\n          dup2\n          swap1\n          sstore\n          pop\n            /* \"Dinsey/ERC20.sol\":2668:2683  newTokensAmount */\n          dup1\n            /* \"Dinsey/ERC20.sol\":2644:2652  balances */\n          0x00\n            /* \"Dinsey/ERC20.sol\":2644:2664  balances[msg.sender] */\n          dup1\n            /* \"Dinsey/ERC20.sol\":2653:2663  msg.sender */\n          caller\n            /* \"Dinsey/ERC20.sol\":2644:2664  balances[msg.sender] */\n          0xffffffffffffffffffffffffffffffffffffffff\n          and\n          0xffffffffffffffffffffffffffffffffffffffff\n          and\n          dup2\n          mstore\n          0x20\n          add\n          swap1\n          dup2\n          mstore\n          0x20\n          add\n          0x00\n          keccak256\n          0x00\n            /* \"Dinsey/ERC20.sol\":2644:2683  balances[msg.sender] += newTokensAmount */\n          dup3\n          dup3\n          sload\n          tag_64\n          swap2\n          swap1\n          tag_63\n          jump\t// in\n        tag_64:\n          swap3\n          pop\n          pop\n          dup2\n          swap1\n          sstore\n          pop\n            /* \"Dinsey/ERC20.sol\":2533:2691  function increaseTotalSupply(uint newTokensAmount) public {\r... */\n          pop\n          jump\t// out\n            /* \"Dinsey/ERC20.sol\":3579:4067  function transferFrom(address owner, address buyer, uint256 numTokens) public override returns(bool){\r... */\n        tag_35:\n            /* \"Dinsey/ERC20.sol\":3674:3678  bool */\n          0x00\n            /* \"Dinsey/ERC20.sol\":3712:3720  balances */\n          dup1\n            /* \"Dinsey/ERC20.sol\":3712:3727  balances[owner] */\n          0x00\n            /* \"Dinsey/ERC20.sol\":3721:3726  owner */\n          dup6\n            /* \"Dinsey/ERC20.sol\":3712:3727  balances[owner] */\n          0xffffffffffffffffffffffffffffffffffffffff\n          and\n          0xffffffffffffffffffffffffffffffffffffffff\n          and\n          dup2\n          mstore\n          0x20\n          add\n          swap1\n          dup2\n          mstore\n          0x20\n          add\n          0x00\n          keccak256\n          sload\n            /* \"Dinsey/ERC20.sol\":3699:3708  numTokens */\n          dup3\n            /* \"Dinsey/ERC20.sol\":3699:3727  numTokens <= balances[owner] */\n          gt\n          iszero\n            /* \"Dinsey/ERC20.sol\":3690:3728  require( numTokens <= balances[owner]) */\n          tag_66\n          jumpi\n          0x00\n          dup1\n          revert\n        tag_66:\n            /* \"Dinsey/ERC20.sol\":3760:3767  allowed */\n          0x01\n            /* \"Dinsey/ERC20.sol\":3760:3774  allowed[owner] */\n          0x00\n            /* \"Dinsey/ERC20.sol\":3768:3773  owner */\n          dup6\n            /* \"Dinsey/ERC20.sol\":3760:3774  allowed[owner] */\n          0xffffffffffffffffffffffffffffffffffffffff\n          and\n          0xffffffffffffffffffffffffffffffffffffffff\n          and\n          dup2\n          mstore\n          0x20\n          add\n          swap1\n          dup2\n          mstore\n          0x20\n          add\n          0x00\n          keccak256\n            /* \"Dinsey/ERC20.sol\":3760:3786  allowed[owner][msg.sender] */\n          0x00\n            /* \"Dinsey/ERC20.sol\":3775:3785  msg.sender */\n          caller\n            /* \"Dinsey/ERC20.sol\":3760:3786  allowed[owner][msg.sender] */\n          0xffffffffffffffffffffffffffffffffffffffff\n          and\n          0xffffffffffffffffffffffffffffffffffffffff\n          and\n          dup2\n          mstore\n          0x20\n          add\n          swap1\n          dup2\n          mstore\n          0x20\n          add\n          0x00\n          keccak256\n          sload\n            /* \"Dinsey/ERC20.sol\":3747:3756  numTokens */\n          dup3\n            /* \"Dinsey/ERC20.sol\":3747:3786  numTokens <= allowed[owner][msg.sender] */\n          gt\n          iszero\n            /* \"Dinsey/ERC20.sol\":3739:3787  require(numTokens <= allowed[owner][msg.sender]) */\n          tag_67\n          jumpi\n          0x00\n          dup1\n          revert\n        tag_67:\n            /* \"Dinsey/ERC20.sol\":3818:3848  balances[owner].sub(numTokens) */\n          tag_68\n            /* \"Dinsey/ERC20.sol\":3838:3847  numTokens */\n          dup3\n            /* \"Dinsey/ERC20.sol\":3818:3826  balances */\n          0x00\n            /* \"Dinsey/ERC20.sol\":3818:3833  balances[owner] */\n          dup1\n            /* \"Dinsey/ERC20.sol\":3827:3832  owner */\n          dup8\n            /* \"Dinsey/ERC20.sol\":3818:3833  balances[owner] */\n          0xffffffffffffffffffffffffffffffffffffffff\n          and\n          0xffffffffffffffffffffffffffffffffffffffff\n          and\n          dup2\n          mstore\n          0x20\n          add\n          swap1\n          dup2\n          mstore\n          0x20\n          add\n          0x00\n          keccak256\n          sload\n            /* \"Dinsey/ERC20.sol\":3818:3837  balances[owner].sub */\n          tag_69\n          swap1\n            /* \"Dinsey/ERC20.sol\":3818:3848  balances[owner].sub(numTokens) */\n          swap2\n          swap1\n          0xffffffff\n          and\n          jump\t// in\n        tag_68:\n            /* \"Dinsey/ERC20.sol\":3800:3808  balances */\n          0x00\n            /* \"Dinsey/ERC20.sol\":3800:3815  balances[owner] */\n          dup1\n            /* \"Dinsey/ERC20.sol\":3809:3814  owner */\n          dup7\n            /* \"Dinsey/ERC20.sol\":3800:3815  balances[owner] */\n          0xffffffffffffffffffffffffffffffffffffffff\n          and\n          0xffffffffffffffffffffffffffffffffffffffff\n          and\n          dup2\n          mstore\n          0x20\n          add\n          swap1\n          dup2\n          mstore\n          0x20\n          add\n          0x00\n          keccak256\n            /* \"Dinsey/ERC20.sol\":3800:3848  balances[owner] = balances[owner].sub(numTokens) */\n          dup2\n          swap1\n          sstore\n          pop\n            /* \"Dinsey/ERC20.sol\":3888:3929  allowed[owner][msg.sender].sub(numTokens) */\n          tag_70\n            /* \"Dinsey/ERC20.sol\":3919:3928  numTokens */\n          dup3\n            /* \"Dinsey/ERC20.sol\":3888:3895  allowed */\n          0x01\n            /* \"Dinsey/ERC20.sol\":3888:3902  allowed[owner] */\n          0x00\n            /* \"Dinsey/ERC20.sol\":3896:3901  owner */\n          dup8\n            /* \"Dinsey/ERC20.sol\":3888:3902  allowed[owner] */\n          0xffffffffffffffffffffffffffffffffffffffff\n          and\n          0xffffffffffffffffffffffffffffffffffffffff\n          and\n          dup2\n          mstore\n          0x20\n          add\n          swap1\n          dup2\n          mstore\n          0x20\n          add\n          0x00\n          keccak256\n            /* \"Dinsey/ERC20.sol\":3888:3914  allowed[owner][msg.sender] */\n          0x00\n            /* \"Dinsey/ERC20.sol\":3903:3913  msg.sender */\n          caller\n            /* \"Dinsey/ERC20.sol\":3888:3914  allowed[owner][msg.sender] */\n          0xffffffffffffffffffffffffffffffffffffffff\n          and\n          0xffffffffffffffffffffffffffffffffffffffff\n          and\n          dup2\n          mstore\n          0x20\n          add\n          swap1\n          dup2\n          mstore\n          0x20\n          add\n          0x00\n          keccak256\n          sload\n            /* \"Dinsey/ERC20.sol\":3888:3918  allowed[owner][msg.sender].sub */\n          tag_69\n          swap1\n            /* \"Dinsey/ERC20.sol\":3888:3929  allowed[owner][msg.sender].sub(numTokens) */\n          swap2\n          swap1\n          0xffffffff\n          and\n          jump\t// in\n        tag_70:\n            /* \"Dinsey/ERC20.sol\":3859:3866  allowed */\n          0x01\n            /* \"Dinsey/ERC20.sol\":3859:3873  allowed[owner] */\n          0x00\n            /* \"Dinsey/ERC20.sol\":3867:3872  owner */\n          dup7\n            /* \"Dinsey/ERC20.sol\":3859:3873  allowed[owner] */\n          0xffffffffffffffffffffffffffffffffffffffff\n          and\n          0xffffffffffffffffffffffffffffffffffffffff\n          and\n          dup2\n          mstore\n          0x20\n          add\n          swap1\n          dup2\n          mstore\n          0x20\n          add\n          0x00\n          keccak256\n            /* \"Dinsey/ERC20.sol\":3859:3885  allowed[owner][msg.sender] */\n          0x00\n            /* \"Dinsey/ERC20.sol\":3874:3884  msg.sender */\n          caller\n            /* \"Dinsey/ERC20.sol\":3859:3885  allowed[owner][msg.sender] */\n          0xffffffffffffffffffffffffffffffffffffffff\n          and\n          0xffffffffffffffffffffffffffffffffffffffff\n          and\n          dup2\n          mstore\n          0x20\n          add\n          swap1\n          dup2\n          mstore\n          0x20\n          add\n          0x00\n          keccak256\n            /* \"Dinsey/ERC20.sol\":3859:3929  allowed[owner][msg.sender] = allowed[owner][msg.sender].sub(numTokens) */\n          dup2\n          swap1\n          sstore\n          pop\n            /* \"Dinsey/ERC20.sol\":3958:3988  balances[buyer].add(numTokens) */\n          tag_71\n            /* \"Dinsey/ERC20.sol\":3978:3987  numTokens */\n          dup3\n            /* \"Dinsey/ERC20.sol\":3958:3966  balances */\n          0x00\n            /* \"Dinsey/ERC20.sol\":3958:3973  balances[buyer] */\n          dup1\n            /* \"Dinsey/ERC20.sol\":3967:3972  buyer */\n          dup7\n            /* \"Dinsey/ERC20.sol\":3958:3973  balances[buyer] */\n          0xffffffffffffffffffffffffffffffffffffffff\n          and\n          0xffffffffffffffffffffffffffffffffffffffff\n          and\n          dup2\n          mstore\n          0x20\n          add\n          swap1\n          dup2\n          mstore\n          0x20\n          add\n          0x00\n          keccak256\n          sload\n            /* \"Dinsey/ERC20.sol\":3958:3977  balances[buyer].add */\n          tag_72\n          swap1\n            /* \"Dinsey/ERC20.sol\":3958:3988  balances[buyer].add(numTokens) */\n          swap2\n          swap1\n          0xffffffff\n          and\n          jump\t// in\n        tag_71:\n            /* \"Dinsey/ERC20.sol\":3940:3948  balances */\n          0x00\n            /* \"Dinsey/ERC20.sol\":3940:3955  balances[buyer] */\n          dup1\n            /* \"Dinsey/ERC20.sol\":3949:3954  buyer */\n          dup6\n            /* \"Dinsey/ERC20.sol\":3940:3955  balances[buyer] */\n          0xffffffffffffffffffffffffffffffffffffffff\n          and\n          0xffffffffffffffffffffffffffffffffffffffff\n          and\n          dup2\n          mstore\n          0x20\n          add\n          swap1\n          dup2\n          mstore\n          0x20\n          add\n          0x00\n          keccak256\n            /* \"Dinsey/ERC20.sol\":3940:3988  balances[buyer] = balances[buyer].add(numTokens) */\n          dup2\n          swap1\n          sstore\n          pop\n            /* \"Dinsey/ERC20.sol\":4020:4025  buyer */\n          dup3\n            /* \"Dinsey/ERC20.sol\":4004:4037  Transfer(owner, buyer, numTokens) */\n          0xffffffffffffffffffffffffffffffffffffffff\n          and\n            /* \"Dinsey/ERC20.sol\":4013:4018  owner */\n          dup5\n            /* \"Dinsey/ERC20.sol\":4004:4037  Transfer(owner, buyer, numTokens) */\n          0xffffffffffffffffffffffffffffffffffffffff\n          and\n          0xddf252ad1be2c89b69c2b068fc378daa952ba7f163c4a11628f55a4df523b3ef\n            /* \"Dinsey/ERC20.sol\":4027:4036  numTokens */\n          dup5\n            /* \"Dinsey/ERC20.sol\":4004:4037  Transfer(owner, buyer, numTokens) */\n          mload(0x40)\n          tag_73\n          swap2\n          swap1\n          tag_27\n          jump\t// in\n        tag_73:\n          mload(0x40)\n          dup1\n          swap2\n          sub\n          swap1\n          log3\n            /* \"Dinsey/ERC20.sol\":4055:4059  true */\n          0x01\n            /* \"Dinsey/ERC20.sol\":4048:4059  return true */\n          swap1\n          pop\n            /* \"Dinsey/ERC20.sol\":3579:4067  function transferFrom(address owner, address buyer, uint256 numTokens) public override returns(bool){\r... */\n          swap4\n          swap3\n          pop\n          pop\n          pop\n          jump\t// out\n            /* \"Dinsey/ERC20.sol\":1905:1939  uint8 public constant decimals = 2 */\n        tag_38:\n            /* \"Dinsey/ERC20.sol\":1938:1939  2 */\n          0x02\n            /* \"Dinsey/ERC20.sol\":1905:1939  uint8 public constant decimals = 2 */\n          dup2\n          jump\t// out\n            /* \"Dinsey/ERC20.sol\":2699:2821  function balanceOf(address tokenOwner) public override view returns(uint256){\r... */\n        tag_44:\n            /* \"Dinsey/ERC20.sol\":2767:2774  uint256 */\n          0x00\n            /* \"Dinsey/ERC20.sol\":2793:2801  balances */\n          dup1\n            /* \"Dinsey/ERC20.sol\":2793:2813  balances[tokenOwner] */\n          0x00\n            /* \"Dinsey/ERC20.sol\":2802:2812  tokenOwner */\n          dup4\n            /* \"Dinsey/ERC20.sol\":2793:2813  balances[tokenOwner] */\n          0xffffffffffffffffffffffffffffffffffffffff\n          and\n          0xffffffffffffffffffffffffffffffffffffffff\n          and\n          dup2\n          mstore\n          0x20\n          add\n          swap1\n          dup2\n          mstore\n          0x20\n          add\n          0x00\n          keccak256\n          sload\n            /* \"Dinsey/ERC20.sol\":2786:2813  return balances[tokenOwner] */\n          swap1\n          pop\n            /* \"Dinsey/ERC20.sol\":2699:2821  function balanceOf(address tokenOwner) public override view returns(uint256){\r... */\n          swap2\n          swap1\n          pop\n          jump\t// out\n            /* \"Dinsey/ERC20.sol\":1861:1898  string public constant symbol = \"ERC\" */\n        tag_47:\n          mload(0x40)\n          dup1\n          0x40\n          add\n          0x40\n          mstore\n          dup1\n          0x03\n          dup2\n          mstore\n          0x20\n          add\n          0x4552430000000000000000000000000000000000000000000000000000000000\n          dup2\n          mstore\n          pop\n          dup2\n          jump\t// out\n            /* \"Dinsey/ERC20.sol\":2976:3339  function transfer( address recipient, uint256 numTokens) public override returns(bool){\r... */\n        tag_51:\n            /* \"Dinsey/ERC20.sol\":3057:3061  bool */\n          0x00\n            /* \"Dinsey/ERC20.sol\":3094:3102  balances */\n          dup1\n            /* \"Dinsey/ERC20.sol\":3094:3114  balances[msg.sender] */\n          0x00\n            /* \"Dinsey/ERC20.sol\":3103:3113  msg.sender */\n          caller\n            /* \"Dinsey/ERC20.sol\":3094:3114  balances[msg.sender] */\n          0xffffffffffffffffffffffffffffffffffffffff\n          and\n          0xffffffffffffffffffffffffffffffffffffffff\n          and\n          dup2\n          mstore\n          0x20\n          add\n          swap1\n          dup2\n          mstore\n          0x20\n          add\n          0x00\n          keccak256\n          sload\n            /* \"Dinsey/ERC20.sol\":3081:3090  numTokens */\n          dup3\n            /* \"Dinsey/ERC20.sol\":3081:3114  numTokens <= balances[msg.sender] */\n          gt\n          iszero\n            /* \"Dinsey/ERC20.sol\":3073:3115  require(numTokens <= balances[msg.sender]) */\n          tag_76\n          jumpi\n          0x00\n          dup1\n          revert\n        tag_76:\n            /* \"Dinsey/ERC20.sol\":3149:3184  balances[msg.sender].sub(numTokens) */\n          tag_77\n            /* \"Dinsey/ERC20.sol\":3174:3183  numTokens */\n          dup3\n            /* \"Dinsey/ERC20.sol\":3149:3157  balances */\n          0x00\n            /* \"Dinsey/ERC20.sol\":3149:3169  balances[msg.sender] */\n          dup1\n            /* \"Dinsey/ERC20.sol\":3158:3168  msg.sender */\n          caller\n            /* \"Dinsey/ERC20.sol\":3149:3169  balances[msg.sender] */\n          0xffffffffffffffffffffffffffffffffffffffff\n          and\n          0xffffffffffffffffffffffffffffffffffffffff\n          and\n          dup2\n          mstore\n          0x20\n          add\n          swap1\n          dup2\n          mstore\n          0x20\n          add\n          0x00\n          keccak256\n          sload\n            /* \"Dinsey/ERC20.sol\":3149:3173  balances[msg.sender].sub */\n          tag_69\n          swap1\n            /* \"Dinsey/ERC20.sol\":3149:3184  balances[msg.sender].sub(numTokens) */\n          swap2\n          swap1\n          0xffffffff\n          and\n          jump\t// in\n        tag_77:\n            /* \"Dinsey/ERC20.sol\":3126:3134  balances */\n          0x00\n            /* \"Dinsey/ERC20.sol\":3126:3146  balances[msg.sender] */\n          dup1\n            /* \"Dinsey/ERC20.sol\":3135:3145  msg.sender */\n          caller\n            /* \"Dinsey/ERC20.sol\":3126:3146  balances[msg.sender] */\n          0xffffffffffffffffffffffffffffffffffffffff\n          and\n          0xffffffffffffffffffffffffffffffffffffffff\n          and\n          dup2\n          mstore\n          0x20\n          add\n          swap1\n          dup2\n          mstore\n          0x20\n          add\n          0x00\n          keccak256\n            /* \"Dinsey/ERC20.sol\":3126:3184  balances[msg.sender] = balances[msg.sender].sub(numTokens) */\n          dup2\n          swap1\n          sstore\n          pop\n            /* \"Dinsey/ERC20.sol\":3217:3251  balances[recipient].add(numTokens) */\n          tag_78\n            /* \"Dinsey/ERC20.sol\":3241:3250  numTokens */\n          dup3\n            /* \"Dinsey/ERC20.sol\":3217:3225  balances */\n          0x00\n            /* \"Dinsey/ERC20.sol\":3217:3236  balances[recipient] */\n          dup1\n            /* \"Dinsey/ERC20.sol\":3226:3235  recipient */\n          dup7\n            /* \"Dinsey/ERC20.sol\":3217:3236  balances[recipient] */\n          0xffffffffffffffffffffffffffffffffffffffff\n          and\n          0xffffffffffffffffffffffffffffffffffffffff\n          and\n          dup2\n          mstore\n          0x20\n          add\n          swap1\n          dup2\n          mstore\n          0x20\n          add\n          0x00\n          keccak256\n          sload\n            /* \"Dinsey/ERC20.sol\":3217:3240  balances[recipient].add */\n          tag_72\n          swap1\n            /* \"Dinsey/ERC20.sol\":3217:3251  balances[recipient].add(numTokens) */\n          swap2\n          swap1\n          0xffffffff\n          and\n          jump\t// in\n        tag_78:\n            /* \"Dinsey/ERC20.sol\":3195:3203  balances */\n          0x00\n            /* \"Dinsey/ERC20.sol\":3195:3214  balances[recipient] */\n          dup1\n            /* \"Dinsey/ERC20.sol\":3204:3213  recipient */\n          dup6\n            /* \"Dinsey/ERC20.sol\":3195:3214  balances[recipient] */\n          0xffffffffffffffffffffffffffffffffffffffff\n          and\n          0xffffffffffffffffffffffffffffffffffffffff\n          and\n          dup2\n          mstore\n          0x20\n          add\n          swap1\n          dup2\n          mstore\n          0x20\n          add\n          0x00\n          keccak256\n            /* \"Dinsey/ERC20.sol\":3195:3251  balances[recipient] = balances[recipient].add(numTokens) */\n          dup2\n          swap1\n          sstore\n          pop\n            /* \"Dinsey/ERC20.sol\":3288:3297  recipient */\n          dup3\n            /* \"Dinsey/ERC20.sol\":3267:3309  Transfer(msg.sender, recipient, numTokens) */\n          0xffffffffffffffffffffffffffffffffffffffff\n          and\n            /* \"Dinsey/ERC20.sol\":3276:3286  msg.sender */\n          caller\n            /* \"Dinsey/ERC20.sol\":3267:3309  Transfer(msg.sender, recipient, numTokens) */\n          0xffffffffffffffffffffffffffffffffffffffff\n          and\n          0xddf252ad1be2c89b69c2b068fc378daa952ba7f163c4a11628f55a4df523b3ef\n            /* \"Dinsey/ERC20.sol\":3299:3308  numTokens */\n          dup5\n            /* \"Dinsey/ERC20.sol\":3267:3309  Transfer(msg.sender, recipient, numTokens) */\n          mload(0x40)\n          tag_79\n          swap2\n          swap1\n          tag_27\n          jump\t// in\n        tag_79:\n          mload(0x40)\n          dup1\n          swap2\n          sub\n          swap1\n          log3\n            /* \"Dinsey/ERC20.sol\":3327:3331  true */\n          0x01\n            /* \"Dinsey/ERC20.sol\":3320:3331  return true */\n          swap1\n          pop\n            /* \"Dinsey/ERC20.sol\":2976:3339  function transfer( address recipient, uint256 numTokens) public override returns(bool){\r... */\n          swap3\n          swap2\n          pop\n          pop\n          jump\t// out\n            /* \"Dinsey/ERC20.sol\":2829:2968  function allowance(address owner, address delegate) public override view returns(uint256){\r... */\n        tag_56:\n            /* \"Dinsey/ERC20.sol\":2910:2917  uint256 */\n          0x00\n            /* \"Dinsey/ERC20.sol\":2936:2943  allowed */\n          0x01\n            /* \"Dinsey/ERC20.sol\":2936:2950  allowed[owner] */\n          0x00\n            /* \"Dinsey/ERC20.sol\":2944:2949  owner */\n          dup5\n            /* \"Dinsey/ERC20.sol\":2936:2950  allowed[owner] */\n          0xffffffffffffffffffffffffffffffffffffffff\n          and\n          0xffffffffffffffffffffffffffffffffffffffff\n          and\n          dup2\n          mstore\n          0x20\n          add\n          swap1\n          dup2\n          mstore\n          0x20\n          add\n          0x00\n          keccak256\n            /* \"Dinsey/ERC20.sol\":2936:2960  allowed[owner][delegate] */\n          0x00\n            /* \"Dinsey/ERC20.sol\":2951:2959  delegate */\n          dup4\n            /* \"Dinsey/ERC20.sol\":2936:2960  allowed[owner][delegate] */\n          0xffffffffffffffffffffffffffffffffffffffff\n          and\n          0xffffffffffffffffffffffffffffffffffffffff\n          and\n          dup2\n          mstore\n          0x20\n          add\n          swap1\n          dup2\n          mstore\n          0x20\n          add\n          0x00\n          keccak256\n          sload\n            /* \"Dinsey/ERC20.sol\":2929:2960  return allowed[owner][delegate] */\n          swap1\n          pop\n            /* \"Dinsey/ERC20.sol\":2829:2968  function allowance(address owner, address delegate) public override view returns(uint256){\r... */\n          swap3\n          swap2\n          pop\n          pop\n          jump\t// out\n            /* \"Dinsey/SafeMath.sol\":318:437  function sub(uint256 a, uint256 b) internal pure returns (uint256) {\r... */\n        tag_69:\n            /* \"Dinsey/SafeMath.sol\":376:383  uint256 */\n          0x00\n            /* \"Dinsey/SafeMath.sol\":406:407  a */\n          dup3\n            /* \"Dinsey/SafeMath.sol\":401:402  b */\n          dup3\n            /* \"Dinsey/SafeMath.sol\":401:407  b <= a */\n          gt\n          iszero\n            /* \"Dinsey/SafeMath.sol\":394:408  assert(b <= a) */\n          tag_82\n          jumpi\n          tag_83\n          tag_84\n          jump\t// in\n        tag_83:\n        tag_82:\n            /* \"Dinsey/SafeMath.sol\":428:429  b */\n          dup2\n            /* \"Dinsey/SafeMath.sol\":424:425  a */\n          dup4\n            /* \"Dinsey/SafeMath.sol\":424:429  a - b */\n          tag_85\n          swap2\n          swap1\n          tag_86\n          jump\t// in\n        tag_85:\n            /* \"Dinsey/SafeMath.sol\":417:429  return a - b */\n          swap1\n          pop\n            /* \"Dinsey/SafeMath.sol\":318:437  function sub(uint256 a, uint256 b) internal pure returns (uint256) {\r... */\n          swap3\n          swap2\n          pop\n          pop\n          jump\t// out\n            /* \"Dinsey/SafeMath.sol\":463:604  function add(uint256 a, uint256 b) internal pure returns (uint256) {\r... */\n        tag_72:\n            /* \"Dinsey/SafeMath.sol\":521:528  uint256 */\n          0x00\n            /* \"Dinsey/SafeMath.sol\":539:548  uint256 c */\n          dup1\n            /* \"Dinsey/SafeMath.sol\":555:556  b */\n          dup3\n            /* \"Dinsey/SafeMath.sol\":551:552  a */\n          dup5\n            /* \"Dinsey/SafeMath.sol\":551:556  a + b */\n          tag_88\n          swap2\n          swap1\n          tag_63\n          jump\t// in\n        tag_88:\n            /* \"Dinsey/SafeMath.sol\":539:556  uint256 c = a + b */\n          swap1\n          pop\n            /* \"Dinsey/SafeMath.sol\":577:578  a */\n          dup4\n            /* \"Dinsey/SafeMath.sol\":572:573  c */\n          dup2\n            /* \"Dinsey/SafeMath.sol\":572:578  c >= a */\n          lt\n          iszero\n            /* \"Dinsey/SafeMath.sol\":565:579  assert(c >= a) */\n          tag_89\n          jumpi\n          tag_90\n          tag_84\n          jump\t// in\n        tag_90:\n        tag_89:\n            /* \"Dinsey/SafeMath.sol\":595:596  c */\n          dup1\n            /* \"Dinsey/SafeMath.sol\":588:596  return c */\n          swap2\n          pop\n          pop\n            /* \"Dinsey/SafeMath.sol\":463:604  function add(uint256 a, uint256 b) internal pure returns (uint256) {\r... */\n          swap3\n          swap2\n          pop\n          pop\n          jump\t// out\n            /* \"#utility.yul\":7:146   */\n        tag_92:\n            /* \"#utility.yul\":53:58   */\n          0x00\n            /* \"#utility.yul\":91:97   */\n          dup2\n            /* \"#utility.yul\":78:98   */\n          calldataload\n            /* \"#utility.yul\":69:98   */\n          swap1\n          pop\n            /* \"#utility.yul\":107:140   */\n          tag_94\n            /* \"#utility.yul\":134:139   */\n          dup2\n            /* \"#utility.yul\":107:140   */\n          tag_95\n          jump\t// in\n        tag_94:\n            /* \"#utility.yul\":7:146   */\n          swap3\n          swap2\n          pop\n          pop\n          jump\t// out\n            /* \"#utility.yul\":152:291   */\n        tag_96:\n            /* \"#utility.yul\":198:203   */\n          0x00\n            /* \"#utility.yul\":236:242   */\n          dup2\n            /* \"#utility.yul\":223:243   */\n          calldataload\n            /* \"#utility.yul\":214:243   */\n          swap1\n          pop\n            /* \"#utility.yul\":252:285   */\n          tag_98\n            /* \"#utility.yul\":279:284   */\n          dup2\n            /* \"#utility.yul\":252:285   */\n          tag_99\n          jump\t// in\n        tag_98:\n            /* \"#utility.yul\":152:291   */\n          swap3\n          swap2\n          pop\n          pop\n          jump\t// out\n            /* \"#utility.yul\":297:626   */\n        tag_43:\n            /* \"#utility.yul\":356:362   */\n          0x00\n            /* \"#utility.yul\":405:407   */\n          0x20\n            /* \"#utility.yul\":393:402   */\n          dup3\n            /* \"#utility.yul\":384:391   */\n          dup5\n            /* \"#utility.yul\":380:403   */\n          sub\n            /* \"#utility.yul\":376:408   */\n          slt\n            /* \"#utility.yul\":373:492   */\n          iszero\n          tag_101\n          jumpi\n            /* \"#utility.yul\":411:490   */\n          tag_102\n          tag_103\n          jump\t// in\n        tag_102:\n            /* \"#utility.yul\":373:492   */\n        tag_101:\n            /* \"#utility.yul\":531:532   */\n          0x00\n            /* \"#utility.yul\":556:609   */\n          tag_104\n            /* \"#utility.yul\":601:608   */\n          dup5\n            /* \"#utility.yul\":592:598   */\n          dup3\n            /* \"#utility.yul\":581:590   */\n          dup6\n            /* \"#utility.yul\":577:599   */\n          add\n            /* \"#utility.yul\":556:609   */\n          tag_92\n          jump\t// in\n        tag_104:\n            /* \"#utility.yul\":546:609   */\n          swap2\n          pop\n            /* \"#utility.yul\":502:619   */\n          pop\n            /* \"#utility.yul\":297:626   */\n          swap3\n          swap2\n          pop\n          pop\n          jump\t// out\n            /* \"#utility.yul\":632:1106   */\n        tag_55:\n            /* \"#utility.yul\":700:706   */\n          0x00\n            /* \"#utility.yul\":708:714   */\n          dup1\n            /* \"#utility.yul\":757:759   */\n          0x40\n            /* \"#utility.yul\":745:754   */\n          dup4\n            /* \"#utility.yul\":736:743   */\n          dup6\n            /* \"#utility.yul\":732:755   */\n          sub\n            /* \"#utility.yul\":728:760   */\n          slt\n            /* \"#utility.yul\":725:844   */\n          iszero\n          tag_106\n          jumpi\n            /* \"#utility.yul\":763:842   */\n          tag_107\n          tag_103\n          jump\t// in\n        tag_107:\n            /* \"#utility.yul\":725:844   */\n        tag_106:\n            /* \"#utility.yul\":883:884   */\n          0x00\n            /* \"#utility.yul\":908:961   */\n          tag_108\n            /* \"#utility.yul\":953:960   */\n          dup6\n            /* \"#utility.yul\":944:950   */\n          dup3\n            /* \"#utility.yul\":933:942   */\n          dup7\n            /* \"#utility.yul\":929:951   */\n          add\n            /* \"#utility.yul\":908:961   */\n          tag_92\n          jump\t// in\n        tag_108:\n            /* \"#utility.yul\":898:961   */\n          swap3\n          pop\n            /* \"#utility.yul\":854:971   */\n          pop\n            /* \"#utility.yul\":1010:1012   */\n          0x20\n            /* \"#utility.yul\":1036:1089   */\n          tag_109\n            /* \"#utility.yul\":1081:1088   */\n          dup6\n            /* \"#utility.yul\":1072:1078   */\n          dup3\n            /* \"#utility.yul\":1061:1070   */\n          dup7\n            /* \"#utility.yul\":1057:1079   */\n          add\n            /* \"#utility.yul\":1036:1089   */\n          tag_92\n          jump\t// in\n        tag_109:\n            /* \"#utility.yul\":1026:1089   */\n          swap2\n          pop\n            /* \"#utility.yul\":981:1099   */\n          pop\n            /* \"#utility.yul\":632:1106   */\n          swap3\n          pop\n          swap3\n          swap1\n          pop\n          jump\t// out\n            /* \"#utility.yul\":1112:1731   */\n        tag_34:\n            /* \"#utility.yul\":1189:1195   */\n          0x00\n            /* \"#utility.yul\":1197:1203   */\n          dup1\n            /* \"#utility.yul\":1205:1211   */\n          0x00\n            /* \"#utility.yul\":1254:1256   */\n          0x60\n            /* \"#utility.yul\":1242:1251   */\n          dup5\n            /* \"#utility.yul\":1233:1240   */\n          dup7\n            /* \"#utility.yul\":1229:1252   */\n          sub\n            /* \"#utility.yul\":1225:1257   */\n          slt\n            /* \"#utility.yul\":1222:1341   */\n          iszero\n          tag_111\n          jumpi\n            /* \"#utility.yul\":1260:1339   */\n          tag_112\n          tag_103\n          jump\t// in\n        tag_112:\n            /* \"#utility.yul\":1222:1341   */\n        tag_111:\n            /* \"#utility.yul\":1380:1381   */\n          0x00\n            /* \"#utility.yul\":1405:1458   */\n          tag_113\n            /* \"#utility.yul\":1450:1457   */\n          dup7\n            /* \"#utility.yul\":1441:1447   */\n          dup3\n            /* \"#utility.yul\":1430:1439   */\n          dup8\n            /* \"#utility.yul\":1426:1448   */\n          add\n            /* \"#utility.yul\":1405:1458   */\n          tag_92\n          jump\t// in\n        tag_113:\n            /* \"#utility.yul\":1395:1458   */\n          swap4\n          pop\n            /* \"#utility.yul\":1351:1468   */\n          pop\n            /* \"#utility.yul\":1507:1509   */\n          0x20\n            /* \"#utility.yul\":1533:1586   */\n          tag_114\n            /* \"#utility.yul\":1578:1585   */\n          dup7\n            /* \"#utility.yul\":1569:1575   */\n          dup3\n            /* \"#utility.yul\":1558:1567   */\n          dup8\n            /* \"#utility.yul\":1554:1576   */\n          add\n            /* \"#utility.yul\":1533:1586   */\n          tag_92\n          jump\t// in\n        tag_114:\n            /* \"#utility.yul\":1523:1586   */\n          swap3\n          pop\n            /* \"#utility.yul\":1478:1596   */\n          pop\n            /* \"#utility.yul\":1635:1637   */\n          0x40\n            /* \"#utility.yul\":1661:1714   */\n          tag_115\n            /* \"#utility.yul\":1706:1713   */\n          dup7\n            /* \"#utility.yul\":1697:1703   */\n          dup3\n            /* \"#utility.yul\":1686:1695   */\n          dup8\n            /* \"#utility.yul\":1682:1704   */\n          add\n            /* \"#utility.yul\":1661:1714   */\n          tag_96\n          jump\t// in\n        tag_115:\n            /* \"#utility.yul\":1651:1714   */\n          swap2\n          pop\n            /* \"#utility.yul\":1606:1724   */\n          pop\n            /* \"#utility.yul\":1112:1731   */\n          swap3\n          pop\n          swap3\n          pop\n          swap3\n          jump\t// out\n            /* \"#utility.yul\":1737:2211   */\n        tag_20:\n            /* \"#utility.yul\":1805:1811   */\n          0x00\n            /* \"#utility.yul\":1813:1819   */\n          dup1\n            /* \"#utility.yul\":1862:1864   */\n          0x40\n            /* \"#utility.yul\":1850:1859   */\n          dup4\n            /* \"#utility.yul\":1841:1848   */\n          dup6\n            /* \"#utility.yul\":1837:1860   */\n          sub\n            /* \"#utility.yul\":1833:1865   */\n          slt\n            /* \"#utility.yul\":1830:1949   */\n          iszero\n          tag_117\n          jumpi\n            /* \"#utility.yul\":1868:1947   */\n          tag_118\n          tag_103\n          jump\t// in\n        tag_118:\n            /* \"#utility.yul\":1830:1949   */\n        tag_117:\n            /* \"#utility.yul\":1988:1989   */\n          0x00\n            /* \"#utility.yul\":2013:2066   */\n          tag_119\n            /* \"#utility.yul\":2058:2065   */\n          dup6\n            /* \"#utility.yul\":2049:2055   */\n          dup3\n            /* \"#utility.yul\":2038:2047   */\n          dup7\n            /* \"#utility.yul\":2034:2056   */\n          add\n            /* \"#utility.yul\":2013:2066   */\n          tag_92\n          jump\t// in\n        tag_119:\n            /* \"#utility.yul\":2003:2066   */\n          swap3\n          pop\n            /* \"#utility.yul\":1959:2076   */\n          pop\n            /* \"#utility.yul\":2115:2117   */\n          0x20\n            /* \"#utility.yul\":2141:2194   */\n          tag_120\n            /* \"#utility.yul\":2186:2193   */\n          dup6\n            /* \"#utility.yul\":2177:2183   */\n          dup3\n            /* \"#utility.yul\":2166:2175   */\n          dup7\n            /* \"#utility.yul\":2162:2184   */\n          add\n            /* \"#utility.yul\":2141:2194   */\n          tag_96\n          jump\t// in\n        tag_120:\n            /* \"#utility.yul\":2131:2194   */\n          swap2\n          pop\n            /* \"#utility.yul\":2086:2204   */\n          pop\n            /* \"#utility.yul\":1737:2211   */\n          swap3\n          pop\n          swap3\n          swap1\n          pop\n          jump\t// out\n            /* \"#utility.yul\":2217:2546   */\n        tag_30:\n            /* \"#utility.yul\":2276:2282   */\n          0x00\n            /* \"#utility.yul\":2325:2327   */\n          0x20\n            /* \"#utility.yul\":2313:2322   */\n          dup3\n            /* \"#utility.yul\":2304:2311   */\n          dup5\n            /* \"#utility.yul\":2300:2323   */\n          sub\n            /* \"#utility.yul\":2296:2328   */\n          slt\n            /* \"#utility.yul\":2293:2412   */\n          iszero\n          tag_122\n          jumpi\n            /* \"#utility.yul\":2331:2410   */\n          tag_123\n          tag_103\n          jump\t// in\n        tag_123:\n            /* \"#utility.yul\":2293:2412   */\n        tag_122:\n            /* \"#utility.yul\":2451:2452   */\n          0x00\n            /* \"#utility.yul\":2476:2529   */\n          tag_124\n            /* \"#utility.yul\":2521:2528   */\n          dup5\n            /* \"#utility.yul\":2512:2518   */\n          dup3\n            /* \"#utility.yul\":2501:2510   */\n          dup6\n            /* \"#utility.yul\":2497:2519   */\n          add\n            /* \"#utility.yul\":2476:2529   */\n          tag_96\n          jump\t// in\n        tag_124:\n            /* \"#utility.yul\":2466:2529   */\n          swap2\n          pop\n            /* \"#utility.yul\":2422:2539   */\n          pop\n            /* \"#utility.yul\":2217:2546   */\n          swap3\n          swap2\n          pop\n          pop\n          jump\t// out\n            /* \"#utility.yul\":2552:2661   */\n        tag_125:\n            /* \"#utility.yul\":2633:2654   */\n          tag_127\n            /* \"#utility.yul\":2648:2653   */\n          dup2\n            /* \"#utility.yul\":2633:2654   */\n          tag_128\n          jump\t// in\n        tag_127:\n            /* \"#utility.yul\":2628:2631   */\n          dup3\n            /* \"#utility.yul\":2621:2655   */\n          mstore\n            /* \"#utility.yul\":2552:2661   */\n          pop\n          pop\n          jump\t// out\n            /* \"#utility.yul\":2667:3031   */\n        tag_129:\n            /* \"#utility.yul\":2755:2758   */\n          0x00\n            /* \"#utility.yul\":2783:2822   */\n          tag_131\n            /* \"#utility.yul\":2816:2821   */\n          dup3\n            /* \"#utility.yul\":2783:2822   */\n          tag_132\n          jump\t// in\n        tag_131:\n            /* \"#utility.yul\":2838:2909   */\n          tag_133\n            /* \"#utility.yul\":2902:2908   */\n          dup2\n            /* \"#utility.yul\":2897:2900   */\n          dup6\n            /* \"#utility.yul\":2838:2909   */\n          tag_134\n          jump\t// in\n        tag_133:\n            /* \"#utility.yul\":2831:2909   */\n          swap4\n          pop\n            /* \"#utility.yul\":2918:2970   */\n          tag_135\n            /* \"#utility.yul\":2963:2969   */\n          dup2\n            /* \"#utility.yul\":2958:2961   */\n          dup6\n            /* \"#utility.yul\":2951:2955   */\n          0x20\n            /* \"#utility.yul\":2944:2949   */\n          dup7\n            /* \"#utility.yul\":2940:2956   */\n          add\n            /* \"#utility.yul\":2918:2970   */\n          tag_136\n          jump\t// in\n        tag_135:\n            /* \"#utility.yul\":2995:3024   */\n          tag_137\n            /* \"#utility.yul\":3017:3023   */\n          dup2\n            /* \"#utility.yul\":2995:3024   */\n          tag_138\n          jump\t// in\n        tag_137:\n            /* \"#utility.yul\":2990:2993   */\n          dup5\n            /* \"#utility.yul\":2986:3025   */\n          add\n            /* \"#utility.yul\":2979:3025   */\n          swap2\n          pop\n            /* \"#utility.yul\":2759:3031   */\n          pop\n            /* \"#utility.yul\":2667:3031   */\n          swap3\n          swap2\n          pop\n          pop\n          jump\t// out\n            /* \"#utility.yul\":3037:3155   */\n        tag_139:\n            /* \"#utility.yul\":3124:3148   */\n          tag_141\n            /* \"#utility.yul\":3142:3147   */\n          dup2\n            /* \"#utility.yul\":3124:3148   */\n          tag_142\n          jump\t// in\n        tag_141:\n            /* \"#utility.yul\":3119:3122   */\n          dup3\n            /* \"#utility.yul\":3112:3149   */\n          mstore\n            /* \"#utility.yul\":3037:3155   */\n          pop\n          pop\n          jump\t// out\n            /* \"#utility.yul\":3161:3273   */\n        tag_143:\n            /* \"#utility.yul\":3244:3266   */\n          tag_145\n            /* \"#utility.yul\":3260:3265   */\n          dup2\n            /* \"#utility.yul\":3244:3266   */\n          tag_146\n          jump\t// in\n        tag_145:\n            /* \"#utility.yul\":3239:3242   */\n          dup3\n            /* \"#utility.yul\":3232:3267   */\n          mstore\n            /* \"#utility.yul\":3161:3273   */\n          pop\n          pop\n          jump\t// out\n            /* \"#utility.yul\":3279:3489   */\n        tag_23:\n            /* \"#utility.yul\":3366:3370   */\n          0x00\n            /* \"#utility.yul\":3404:3406   */\n          0x20\n            /* \"#utility.yul\":3393:3402   */\n          dup3\n            /* \"#utility.yul\":3389:3407   */\n          add\n            /* \"#utility.yul\":3381:3407   */\n          swap1\n          pop\n            /* \"#utility.yul\":3417:3482   */\n          tag_148\n            /* \"#utility.yul\":3479:3480   */\n          0x00\n            /* \"#utility.yul\":3468:3477   */\n          dup4\n            /* \"#utility.yul\":3464:3481   */\n          add\n            /* \"#utility.yul\":3455:3461   */\n          dup5\n            /* \"#utility.yul\":3417:3482   */\n          tag_125\n          jump\t// in\n        tag_148:\n            /* \"#utility.yul\":3279:3489   */\n          swap3\n          swap2\n          pop\n          pop\n          jump\t// out\n            /* \"#utility.yul\":3495:3808   */\n        tag_17:\n            /* \"#utility.yul\":3608:3612   */\n          0x00\n            /* \"#utility.yul\":3646:3648   */\n          0x20\n            /* \"#utility.yul\":3635:3644   */\n          dup3\n            /* \"#utility.yul\":3631:3649   */\n          add\n            /* \"#utility.yul\":3623:3649   */\n          swap1\n          pop\n            /* \"#utility.yul\":3695:3704   */\n          dup2\n            /* \"#utility.yul\":3689:3693   */\n          dup2\n            /* \"#utility.yul\":3685:3705   */\n          sub\n            /* \"#utility.yul\":3681:3682   */\n          0x00\n            /* \"#utility.yul\":3670:3679   */\n          dup4\n            /* \"#utility.yul\":3666:3683   */\n          add\n            /* \"#utility.yul\":3659:3706   */\n          mstore\n            /* \"#utility.yul\":3723:3801   */\n          tag_150\n            /* \"#utility.yul\":3796:3800   */\n          dup2\n            /* \"#utility.yul\":3787:3793   */\n          dup5\n            /* \"#utility.yul\":3723:3801   */\n          tag_129\n          jump\t// in\n        tag_150:\n            /* \"#utility.yul\":3715:3801   */\n          swap1\n          pop\n            /* \"#utility.yul\":3495:3808   */\n          swap3\n          swap2\n          pop\n          pop\n          jump\t// out\n            /* \"#utility.yul\":3814:4036   */\n        tag_27:\n            /* \"#utility.yul\":3907:3911   */\n          0x00\n            /* \"#utility.yul\":3945:3947   */\n          0x20\n            /* \"#utility.yul\":3934:3943   */\n          dup3\n            /* \"#utility.yul\":3930:3948   */\n          add\n            /* \"#utility.yul\":3922:3948   */\n          swap1\n          pop\n            /* \"#utility.yul\":3958:4029   */\n          tag_152\n            /* \"#utility.yul\":4026:4027   */\n          0x00\n            /* \"#utility.yul\":4015:4024   */\n          dup4\n            /* \"#utility.yul\":4011:4028   */\n          add\n            /* \"#utility.yul\":4002:4008   */\n          dup5\n            /* \"#utility.yul\":3958:4029   */\n          tag_139\n          jump\t// in\n        tag_152:\n            /* \"#utility.yul\":3814:4036   */\n          swap3\n          swap2\n          pop\n          pop\n          jump\t// out\n            /* \"#utility.yul\":4042:4256   */\n        tag_40:\n            /* \"#utility.yul\":4131:4135   */\n          0x00\n            /* \"#utility.yul\":4169:4171   */\n          0x20\n            /* \"#utility.yul\":4158:4167   */\n          dup3\n            /* \"#utility.yul\":4154:4172   */\n          add\n            /* \"#utility.yul\":4146:4172   */\n          swap1\n          pop\n            /* \"#utility.yul\":4182:4249   */\n          tag_154\n            /* \"#utility.yul\":4246:4247   */\n          0x00\n            /* \"#utility.yul\":4235:4244   */\n          dup4\n            /* \"#utility.yul\":4231:4248   */\n          add\n            /* \"#utility.yul\":4222:4228   */\n          dup5\n            /* \"#utility.yul\":4182:4249   */\n          tag_143\n          jump\t// in\n        tag_154:\n            /* \"#utility.yul\":4042:4256   */\n          swap3\n          swap2\n          pop\n          pop\n          jump\t// out\n            /* \"#utility.yul\":4343:4442   */\n        tag_132:\n            /* \"#utility.yul\":4395:4401   */\n          0x00\n            /* \"#utility.yul\":4429:4434   */\n          dup2\n            /* \"#utility.yul\":4423:4435   */\n          mload\n            /* \"#utility.yul\":4413:4435   */\n          swap1\n          pop\n            /* \"#utility.yul\":4343:4442   */\n          swap2\n          swap1\n          pop\n          jump\t// out\n            /* \"#utility.yul\":4448:4617   */\n        tag_134:\n            /* \"#utility.yul\":4532:4543   */\n          0x00\n            /* \"#utility.yul\":4566:4572   */\n          dup3\n            /* \"#utility.yul\":4561:4564   */\n          dup3\n            /* \"#utility.yul\":4554:4573   */\n          mstore\n            /* \"#utility.yul\":4606:4610   */\n          0x20\n            /* \"#utility.yul\":4601:4604   */\n          dup3\n            /* \"#utility.yul\":4597:4611   */\n          add\n            /* \"#utility.yul\":4582:4611   */\n          swap1\n          pop\n            /* \"#utility.yul\":4448:4617   */\n          swap3\n          swap2\n          pop\n          pop\n          jump\t// out\n            /* \"#utility.yul\":4623:4928   */\n        tag_63:\n            /* \"#utility.yul\":4663:4666   */\n          0x00\n            /* \"#utility.yul\":4682:4702   */\n          tag_160\n            /* \"#utility.yul\":4700:4701   */\n          dup3\n            /* \"#utility.yul\":4682:4702   */\n          tag_142\n          jump\t// in\n        tag_160:\n            /* \"#utility.yul\":4677:4702   */\n          swap2\n          pop\n            /* \"#utility.yul\":4716:4736   */\n          tag_161\n            /* \"#utility.yul\":4734:4735   */\n          dup4\n            /* \"#utility.yul\":4716:4736   */\n          tag_142\n          jump\t// in\n        tag_161:\n            /* \"#utility.yul\":4711:4736   */\n          swap3\n          pop\n            /* \"#utility.yul\":4870:4871   */\n          dup3\n            /* \"#utility.yul\":4802:4868   */\n          0xffffffffffffffffffffffffffffffffffffffffffffffffffffffffffffffff\n            /* \"#utility.yul\":4798:4872   */\n          sub\n            /* \"#utility.yul\":4795:4796   */\n          dup3\n            /* \"#utility.yul\":4792:4873   */\n          gt\n            /* \"#utility.yul\":4789:4896   */\n          iszero\n          tag_162\n          jumpi\n            /* \"#utility.yul\":4876:4894   */\n          tag_163\n          tag_164\n          jump\t// in\n        tag_163:\n            /* \"#utility.yul\":4789:4896   */\n        tag_162:\n            /* \"#utility.yul\":4920:4921   */\n          dup3\n            /* \"#utility.yul\":4917:4918   */\n          dup3\n            /* \"#utility.yul\":4913:4922   */\n          add\n            /* \"#utility.yul\":4906:4922   */\n          swap1\n          pop\n            /* \"#utility.yul\":4623:4928   */\n          swap3\n          swap2\n          pop\n          pop\n          jump\t// out\n            /* \"#utility.yul\":4934:5125   */\n        tag_86:\n            /* \"#utility.yul\":4974:4978   */\n          0x00\n            /* \"#utility.yul\":4994:5014   */\n          tag_166\n            /* \"#utility.yul\":5012:5013   */\n          dup3\n            /* \"#utility.yul\":4994:5014   */\n          tag_142\n          jump\t// in\n        tag_166:\n            /* \"#utility.yul\":4989:5014   */\n          swap2\n          pop\n            /* \"#utility.yul\":5028:5048   */\n          tag_167\n            /* \"#utility.yul\":5046:5047   */\n          dup4\n            /* \"#utility.yul\":5028:5048   */\n          tag_142\n          jump\t// in\n        tag_167:\n            /* \"#utility.yul\":5023:5048   */\n          swap3\n          pop\n            /* \"#utility.yul\":5067:5068   */\n          dup3\n            /* \"#utility.yul\":5064:5065   */\n          dup3\n            /* \"#utility.yul\":5061:5069   */\n          lt\n            /* \"#utility.yul\":5058:5092   */\n          iszero\n          tag_168\n          jumpi\n            /* \"#utility.yul\":5072:5090   */\n          tag_169\n          tag_164\n          jump\t// in\n        tag_169:\n            /* \"#utility.yul\":5058:5092   */\n        tag_168:\n            /* \"#utility.yul\":5117:5118   */\n          dup3\n            /* \"#utility.yul\":5114:5115   */\n          dup3\n            /* \"#utility.yul\":5110:5119   */\n          sub\n            /* \"#utility.yul\":5102:5119   */\n          swap1\n          pop\n            /* \"#utility.yul\":4934:5125   */\n          swap3\n          swap2\n          pop\n          pop\n          jump\t// out\n            /* \"#utility.yul\":5131:5227   */\n        tag_170:\n            /* \"#utility.yul\":5168:5175   */\n          0x00\n            /* \"#utility.yul\":5197:5221   */\n          tag_172\n            /* \"#utility.yul\":5215:5220   */\n          dup3\n            /* \"#utility.yul\":5197:5221   */\n          tag_173\n          jump\t// in\n        tag_172:\n            /* \"#utility.yul\":5186:5221   */\n          swap1\n          pop\n            /* \"#utility.yul\":5131:5227   */\n          swap2\n          swap1\n          pop\n          jump\t// out\n            /* \"#utility.yul\":5233:5323   */\n        tag_128:\n            /* \"#utility.yul\":5267:5274   */\n          0x00\n            /* \"#utility.yul\":5310:5315   */\n          dup2\n            /* \"#utility.yul\":5303:5316   */\n          iszero\n            /* \"#utility.yul\":5296:5317   */\n          iszero\n            /* \"#utility.yul\":5285:5317   */\n          swap1\n          pop\n            /* \"#utility.yul\":5233:5323   */\n          swap2\n          swap1\n          pop\n          jump\t// out\n            /* \"#utility.yul\":5329:5455   */\n        tag_173:\n            /* \"#utility.yul\":5366:5373   */\n          0x00\n            /* \"#utility.yul\":5406:5448   */\n          0xffffffffffffffffffffffffffffffffffffffff\n            /* \"#utility.yul\":5399:5404   */\n          dup3\n            /* \"#utility.yul\":5395:5449   */\n          and\n            /* \"#utility.yul\":5384:5449   */\n          swap1\n          pop\n            /* \"#utility.yul\":5329:5455   */\n          swap2\n          swap1\n          pop\n          jump\t// out\n            /* \"#utility.yul\":5461:5538   */\n        tag_142:\n            /* \"#utility.yul\":5498:5505   */\n          0x00\n            /* \"#utility.yul\":5527:5532   */\n          dup2\n            /* \"#utility.yul\":5516:5532   */\n          swap1\n          pop\n            /* \"#utility.yul\":5461:5538   */\n          swap2\n          swap1\n          pop\n          jump\t// out\n            /* \"#utility.yul\":5544:5630   */\n        tag_146:\n            /* \"#utility.yul\":5579:5586   */\n          0x00\n            /* \"#utility.yul\":5619:5623   */\n          0xff\n            /* \"#utility.yul\":5612:5617   */\n          dup3\n            /* \"#utility.yul\":5608:5624   */\n          and\n            /* \"#utility.yul\":5597:5624   */\n          swap1\n          pop\n            /* \"#utility.yul\":5544:5630   */\n          swap2\n          swap1\n          pop\n          jump\t// out\n            /* \"#utility.yul\":5636:5943   */\n        tag_136:\n            /* \"#utility.yul\":5704:5705   */\n          0x00\n            /* \"#utility.yul\":5714:5827   */\n        tag_179:\n            /* \"#utility.yul\":5728:5734   */\n          dup4\n            /* \"#utility.yul\":5725:5726   */\n          dup2\n            /* \"#utility.yul\":5722:5735   */\n          lt\n            /* \"#utility.yul\":5714:5827   */\n          iszero\n          tag_181\n          jumpi\n            /* \"#utility.yul\":5813:5814   */\n          dup1\n            /* \"#utility.yul\":5808:5811   */\n          dup3\n            /* \"#utility.yul\":5804:5815   */\n          add\n            /* \"#utility.yul\":5798:5816   */\n          mload\n            /* \"#utility.yul\":5794:5795   */\n          dup2\n            /* \"#utility.yul\":5789:5792   */\n          dup5\n            /* \"#utility.yul\":5785:5796   */\n          add\n            /* \"#utility.yul\":5778:5817   */\n          mstore\n            /* \"#utility.yul\":5750:5752   */\n          0x20\n            /* \"#utility.yul\":5747:5748   */\n          dup2\n            /* \"#utility.yul\":5743:5753   */\n          add\n            /* \"#utility.yul\":5738:5753   */\n          swap1\n          pop\n            /* \"#utility.yul\":5714:5827   */\n          jump(tag_179)\n        tag_181:\n            /* \"#utility.yul\":5845:5851   */\n          dup4\n            /* \"#utility.yul\":5842:5843   */\n          dup2\n            /* \"#utility.yul\":5839:5852   */\n          gt\n            /* \"#utility.yul\":5836:5937   */\n          iszero\n          tag_182\n          jumpi\n            /* \"#utility.yul\":5925:5926   */\n          0x00\n            /* \"#utility.yul\":5916:5922   */\n          dup5\n            /* \"#utility.yul\":5911:5914   */\n          dup5\n            /* \"#utility.yul\":5907:5923   */\n          add\n            /* \"#utility.yul\":5900:5927   */\n          mstore\n            /* \"#utility.yul\":5836:5937   */\n        tag_182:\n            /* \"#utility.yul\":5685:5943   */\n          pop\n            /* \"#utility.yul\":5636:5943   */\n          pop\n          pop\n          pop\n          jump\t// out\n            /* \"#utility.yul\":5949:6129   */\n        tag_84:\n            /* \"#utility.yul\":5997:6074   */\n          0x4e487b7100000000000000000000000000000000000000000000000000000000\n            /* \"#utility.yul\":5994:5995   */\n          0x00\n            /* \"#utility.yul\":5987:6075   */\n          mstore\n            /* \"#utility.yul\":6094:6098   */\n          0x01\n            /* \"#utility.yul\":6091:6092   */\n          0x04\n            /* \"#utility.yul\":6084:6099   */\n          mstore\n            /* \"#utility.yul\":6118:6122   */\n          0x24\n            /* \"#utility.yul\":6115:6116   */\n          0x00\n            /* \"#utility.yul\":6108:6123   */\n          revert\n            /* \"#utility.yul\":6135:6315   */\n        tag_164:\n            /* \"#utility.yul\":6183:6260   */\n          0x4e487b7100000000000000000000000000000000000000000000000000000000\n            /* \"#utility.yul\":6180:6181   */\n          0x00\n            /* \"#utility.yul\":6173:6261   */\n          mstore\n            /* \"#utility.yul\":6280:6284   */\n          0x11\n            /* \"#utility.yul\":6277:6278   */\n          0x04\n            /* \"#utility.yul\":6270:6285   */\n          mstore\n            /* \"#utility.yul\":6304:6308   */\n          0x24\n            /* \"#utility.yul\":6301:6302   */\n          0x00\n            /* \"#utility.yul\":6294:6309   */\n          revert\n            /* \"#utility.yul\":6444:6561   */\n        tag_103:\n            /* \"#utility.yul\":6553:6554   */\n          0x00\n            /* \"#utility.yul\":6550:6551   */\n          dup1\n            /* \"#utility.yul\":6543:6555   */\n          revert\n            /* \"#utility.yul\":6567:6669   */\n        tag_138:\n            /* \"#utility.yul\":6608:6614   */\n          0x00\n            /* \"#utility.yul\":6659:6661   */\n          0x1f\n            /* \"#utility.yul\":6655:6662   */\n          not\n            /* \"#utility.yul\":6650:6652   */\n          0x1f\n            /* \"#utility.yul\":6643:6648   */\n          dup4\n            /* \"#utility.yul\":6639:6653   */\n          add\n            /* \"#utility.yul\":6635:6663   */\n          and\n            /* \"#utility.yul\":6625:6663   */\n          swap1\n          pop\n            /* \"#utility.yul\":6567:6669   */\n          swap2\n          swap1\n          pop\n          jump\t// out\n            /* \"#utility.yul\":6675:6797   */\n        tag_95:\n            /* \"#utility.yul\":6748:6772   */\n          tag_190\n            /* \"#utility.yul\":6766:6771   */\n          dup2\n            /* \"#utility.yul\":6748:6772   */\n          tag_170\n          jump\t// in\n        tag_190:\n            /* \"#utility.yul\":6741:6746   */\n          dup2\n            /* \"#utility.yul\":6738:6773   */\n          eq\n            /* \"#utility.yul\":6728:6791   */\n          tag_191\n          jumpi\n            /* \"#utility.yul\":6787:6788   */\n          0x00\n            /* \"#utility.yul\":6784:6785   */\n          dup1\n            /* \"#utility.yul\":6777:6789   */\n          revert\n            /* \"#utility.yul\":6728:6791   */\n        tag_191:\n            /* \"#utility.yul\":6675:6797   */\n          pop\n          jump\t// out\n            /* \"#utility.yul\":6803:6925   */\n        tag_99:\n            /* \"#utility.yul\":6876:6900   */\n          tag_193\n            /* \"#utility.yul\":6894:6899   */\n          dup2\n            /* \"#utility.yul\":6876:6900   */\n          tag_142\n          jump\t// in\n        tag_193:\n            /* \"#utility.yul\":6869:6874   */\n          dup2\n            /* \"#utility.yul\":6866:6901   */\n          eq\n            /* \"#utility.yul\":6856:6919   */\n          tag_194\n          jumpi\n            /* \"#utility.yul\":6915:6916   */\n          0x00\n            /* \"#utility.yul\":6912:6913   */\n          dup1\n            /* \"#utility.yul\":6905:6917   */\n          revert\n            /* \"#utility.yul\":6856:6919   */\n        tag_194:\n            /* \"#utility.yul\":6803:6925   */\n          pop\n          jump\t// out\n\n        auxdata: 0xa264697066735822122038b3b629220f7bb9b58abd7142da7e1995c26e1fa1ce23bece24cce293b055dc64736f6c63430008070033\n    }\n}\n",
				"bytecode": {
					"linkReferences": {},
					"object": "60806040523480156200001157600080fd5b506127106040516200002390620000d3565b6200002f9190620000f2565b604051809103906000f0801580156200004c573d6000803e3d6000fd5b506000806101000a81548173ffffffffffffffffffffffffffffffffffffffff021916908373ffffffffffffffffffffffffffffffffffffffff16021790555033600160006101000a81548173ffffffffffffffffffffffffffffffffffffffff021916908373ffffffffffffffffffffffffffffffffffffffff1602179055506200012d565b610fbb806200155283390190565b620000ec8162000119565b82525050565b6000602082019050620001096000830184620000e1565b92915050565b6000819050919050565b600062000126826200010f565b9050919050565b611415806200013d6000396000f3fe6080604052600436106100865760003560e01c8063ba2d17fe11610059578063ba2d17fe14610126578063c66dca401461014f578063ce6dd8c414610178578063ce8f2f38146101a3578063d00df296146101e057610086565b80632076b56c1461008b57806348ba0838146100b4578063722713f7146100d05780638da5cb5b146100fb575b600080fd5b34801561009757600080fd5b506100b260048036038101906100ad9190610c7b565b61021f565b005b6100ce60048036038101906100c99190610cd7565b6103b0565b005b3480156100dc57600080fd5b506100e56105b3565b6040516100f29190610fa6565b60405180910390f35b34801561010757600080fd5b50610110610664565b60405161011d9190610e72565b60405180910390f35b34801561013257600080fd5b5061014d60048036038101906101489190610cd7565b61068a565b005b34801561015b57600080fd5b5061017660048036038101906101719190610c32565b6107aa565b005b34801561018457600080fd5b5061018d6108b0565b60405161019a9190610fa6565b60405180910390f35b3480156101af57600080fd5b506101ca60048036038101906101c59190610bd8565b610961565b6040516101d79190610fa6565b60405180910390f35b3480156101ec57600080fd5b5061020760048036038101906102029190610c32565b61097f565b60405161021693929190610f08565b60405180910390f35b33600160009054906101000a900473ffffffffffffffffffffffffffffffffffffffff1673ffffffffffffffffffffffffffffffffffffffff168173ffffffffffffffffffffffffffffffffffffffff16146102b0576040517f08c379a00000000000000000000000000000000000000000000000000000000081526004016102a790610f46565b60405180910390fd5b6040518060600160405280848152602001838152602001600115158152506003846040516102de9190610e40565b90815260200160405180910390206000820151816000019080519060200190610308929190610a71565b506020820151816001015560408201518160020160006101000a81548160ff021916908315150217905550905050600483908060018154018082558091505060019003906000526020600020016000909190919091509080519060200190610371929190610a71565b507ffc9ecd7a6c2ca96d38526a0b9cc22f2474ff8e596dd348edaab06be905ebe37883836040516103a3929190610ed8565b60405180910390a1505050565b60006103bb82610a54565b905080341015610400576040517f08c379a00000000000000000000000000000000000000000000000000000000081526004016103f790610f66565b60405180910390fd5b6000813461040e91906110ee565b90503373ffffffffffffffffffffffffffffffffffffffff166108fc829081150290604051600060405180830381858888f19350505050158015610456573d6000803e3d6000fd5b5060006104616105b3565b9050808411156104a6576040517f08c379a000000000000000000000000000000000000000000000000000000000815260040161049d90610f86565b60405180910390fd5b60008054906101000a900473ffffffffffffffffffffffffffffffffffffffff1673ffffffffffffffffffffffffffffffffffffffff1663a9059cbb33866040518363ffffffff1660e01b8152600401610501929190610e8d565b602060405180830381600087803b15801561051b57600080fd5b505af115801561052f573d6000803e3d6000fd5b505050506040513d601f19601f820116820180604052508101906105539190610c05565b5083600260003373ffffffffffffffffffffffffffffffffffffffff1673ffffffffffffffffffffffffffffffffffffffff16815260200190815260200160002060000160008282546105a6919061103e565b9250508190555050505050565b60008060009054906101000a900473ffffffffffffffffffffffffffffffffffffffff1673ffffffffffffffffffffffffffffffffffffffff166370a08231306040518263ffffffff1660e01b815260040161060f9190610e57565b60206040518083038186803b15801561062757600080fd5b505afa15801561063b573d6000803e3d6000fd5b505050506040513d601f19601f8201168201806040525081019061065f9190610d04565b905090565b600160009054906101000a900473ffffffffffffffffffffffffffffffffffffffff1681565b33600160009054906101000a900473ffffffffffffffffffffffffffffffffffffffff1673ffffffffffffffffffffffffffffffffffffffff168173ffffffffffffffffffffffffffffffffffffffff161461071b576040517f08c379a000000000000000000000000000000000000000000000000000000000815260040161071290610f46565b60405180910390fd5b60008054906101000a900473ffffffffffffffffffffffffffffffffffffffff1673ffffffffffffffffffffffffffffffffffffffff16631d43cc98836040518263ffffffff1660e01b81526004016107749190610fa6565b600060405180830381600087803b15801561078e57600080fd5b505af11580156107a2573d6000803e3d6000fd5b505050505050565b33600160009054906101000a900473ffffffffffffffffffffffffffffffffffffffff1673ffffffffffffffffffffffffffffffffffffffff168173ffffffffffffffffffffffffffffffffffffffff161461083b576040517f08c379a000000000000000000000000000000000000000000000000000000000815260040161083290610f46565b60405180910390fd5b600060038360405161084d9190610e40565b908152602001604051809103902060020160006101000a81548160ff0219169083151502179055507f24ba6c881728980191398db8dcfd8ed4f6aeb1c08df349d63f3b85075f3e86dd826040516108a49190610eb6565b60405180910390a15050565b60008060009054906101000a900473ffffffffffffffffffffffffffffffffffffffff1673ffffffffffffffffffffffffffffffffffffffff166370a08231336040518263ffffffff1660e01b815260040161090c9190610e57565b60206040518083038186803b15801561092457600080fd5b505afa158015610938573d6000803e3d6000fd5b505050506040513d601f19601f8201168201806040525081019061095c9190610d04565b905090565b60026020528060005260406000206000915090508060000154905081565b6003818051602081018201805184825260208301602085012081835280955050505050506000915090508060000180546109b8906111be565b80601f01602080910402602001604051908101604052809291908181526020018280546109e4906111be565b8015610a315780601f10610a0657610100808354040283529160200191610a31565b820191906000526020600020905b815481529060010190602001808311610a1457829003601f168201915b5050505050908060010154908060020160009054906101000a900460ff16905083565b6000670de0b6b3a764000082610a6a9190611094565b9050919050565b828054610a7d906111be565b90600052602060002090601f016020900481019282610a9f5760008555610ae6565b82601f10610ab857805160ff1916838001178555610ae6565b82800160010185558215610ae6579182015b82811115610ae5578251825591602001919060010190610aca565b5b509050610af39190610af7565b5090565b5b80821115610b10576000816000905550600101610af8565b5090565b6000610b27610b2284610fe6565b610fc1565b905082815260208101848484011115610b4357610b426112b3565b5b610b4e84828561117c565b509392505050565b600081359050610b658161139a565b92915050565b600081519050610b7a816113b1565b92915050565b600082601f830112610b9557610b946112ae565b5b8135610ba5848260208601610b14565b91505092915050565b600081359050610bbd816113c8565b92915050565b600081519050610bd2816113c8565b92915050565b600060208284031215610bee57610bed6112bd565b5b6000610bfc84828501610b56565b91505092915050565b600060208284031215610c1b57610c1a6112bd565b5b6000610c2984828501610b6b565b91505092915050565b600060208284031215610c4857610c476112bd565b5b600082013567ffffffffffffffff811115610c6657610c656112b8565b5b610c7284828501610b80565b91505092915050565b60008060408385031215610c9257610c916112bd565b5b600083013567ffffffffffffffff811115610cb057610caf6112b8565b5b610cbc85828601610b80565b9250506020610ccd85828601610bae565b9150509250929050565b600060208284031215610ced57610cec6112bd565b5b6000610cfb84828501610bae565b91505092915050565b600060208284031215610d1a57610d196112bd565b5b6000610d2884828501610bc3565b91505092915050565b610d3a81611134565b82525050565b610d4981611122565b82525050565b610d5881611146565b82525050565b6000610d6982611017565b610d738185611022565b9350610d8381856020860161118b565b610d8c816112c2565b840191505092915050565b6000610da282611017565b610dac8185611033565b9350610dbc81856020860161118b565b80840191505092915050565b6000610dd5602d83611022565b9150610de0826112d3565b604082019050919050565b6000610df8602a83611022565b9150610e0382611322565b604082019050919050565b6000610e1b602083611022565b9150610e2682611371565b602082019050919050565b610e3a81611172565b82525050565b6000610e4c8284610d97565b915081905092915050565b6000602082019050610e6c6000830184610d40565b92915050565b6000602082019050610e876000830184610d31565b92915050565b6000604082019050610ea26000830185610d40565b610eaf6020830184610e31565b9392505050565b60006020820190508181036000830152610ed08184610d5e565b905092915050565b60006040820190508181036000830152610ef28185610d5e565b9050610f016020830184610e31565b9392505050565b60006060820190508181036000830152610f228186610d5e565b9050610f316020830185610e31565b610f3e6040830184610d4f565b949350505050565b60006020820190508181036000830152610f5f81610dc8565b9050919050565b60006020820190508181036000830152610f7f81610deb565b9050919050565b60006020820190508181036000830152610f9f81610e0e565b9050919050565b6000602082019050610fbb6000830184610e31565b92915050565b6000610fcb610fdc565b9050610fd782826111f0565b919050565b6000604051905090565b600067ffffffffffffffff8211156110015761100061127f565b5b61100a826112c2565b9050602081019050919050565b600081519050919050565b600082825260208201905092915050565b600081905092915050565b600061104982611172565b915061105483611172565b9250827fffffffffffffffffffffffffffffffffffffffffffffffffffffffffffffffff0382111561108957611088611221565b5b828201905092915050565b600061109f82611172565b91506110aa83611172565b9250817fffffffffffffffffffffffffffffffffffffffffffffffffffffffffffffffff04831182151516156110e3576110e2611221565b5b828202905092915050565b60006110f982611172565b915061110483611172565b92508282101561111757611116611221565b5b828203905092915050565b600061112d82611152565b9050919050565b600061113f82611152565b9050919050565b60008115159050919050565b600073ffffffffffffffffffffffffffffffffffffffff82169050919050565b6000819050919050565b82818337600083830152505050565b60005b838110156111a957808201518184015260208101905061118e565b838111156111b8576000848401525b50505050565b600060028204905060018216806111d657607f821691505b602082108114156111ea576111e9611250565b5b50919050565b6111f9826112c2565b810181811067ffffffffffffffff821117156112185761121761127f565b5b80604052505050565b7f4e487b7100000000000000000000000000000000000000000000000000000000600052601160045260246000fd5b7f4e487b7100000000000000000000000000000000000000000000000000000000600052602260045260246000fd5b7f4e487b7100000000000000000000000000000000000000000000000000000000600052604160045260246000fd5b600080fd5b600080fd5b600080fd5b600080fd5b6000601f19601f8301169050919050565b7f4e6f207469656e6573207065726d69736f73207061726120656a65637574617260008201527f20657374612066756e63696f6e00000000000000000000000000000000000000602082015250565b7f436f6d707261206d656e6f7320546f6b656e73206f207061676120636f6e206d60008201527f6173206574686572732e00000000000000000000000000000000000000000000602082015250565b7f436f6d70726120756e206e756d65726f206d656e6f7220646520546f6b656e73600082015250565b6113a381611122565b81146113ae57600080fd5b50565b6113ba81611146565b81146113c557600080fd5b50565b6113d181611172565b81146113dc57600080fd5b5056fea2646970667358221220590941126976e188fed1967de47efc4243a71ccf7ca305808fc2e6f03fc8d68664736f6c63430008070033608060405234801561001057600080fd5b50604051610fbb380380610fbb83398181016040528101906100329190610099565b806002819055506002546000803373ffffffffffffffffffffffffffffffffffffffff1673ffffffffffffffffffffffffffffffffffffffff16815260200190815260200160002081905550506100ec565b600081519050610093816100d5565b92915050565b6000602082840312156100af576100ae6100d0565b5b60006100bd84828501610084565b91505092915050565b6000819050919050565b600080fd5b6100de816100c6565b81146100e957600080fd5b50565b610ec0806100fb6000396000f3fe608060405234801561001057600080fd5b506004361061009e5760003560e01c8063313ce56711610066578063313ce5671461015b57806370a082311461017957806395d89b41146101a9578063a9059cbb146101c7578063dd62ed3e146101f75761009e565b806306fdde03146100a3578063095ea7b3146100c157806318160ddd146100f15780631d43cc981461010f57806323b872dd1461012b575b600080fd5b6100ab610227565b6040516100b89190610c62565b60405180910390f35b6100db60048036038101906100d69190610b74565b610260565b6040516100e89190610c47565b60405180910390f35b6100f9610352565b6040516101069190610c84565b60405180910390f35b61012960048036038101906101249190610bb4565b61035c565b005b61014560048036038101906101409190610b21565b6103cd565b6040516101529190610c47565b60405180910390f35b610163610748565b6040516101709190610c9f565b60405180910390f35b610193600480360381019061018e9190610ab4565b61074d565b6040516101a09190610c84565b60405180910390f35b6101b1610795565b6040516101be9190610c62565b60405180910390f35b6101e160048036038101906101dc9190610b74565b6107ce565b6040516101ee9190610c47565b60405180910390f35b610211600480360381019061020c9190610ae1565b6109b0565b60405161021e9190610c84565b60405180910390f35b6040518060400160405280601181526020017f4552433230426c6f636b636861696e415a00000000000000000000000000000081525081565b600081600160003373ffffffffffffffffffffffffffffffffffffffff1673ffffffffffffffffffffffffffffffffffffffff16815260200190815260200160002060008573ffffffffffffffffffffffffffffffffffffffff1673ffffffffffffffffffffffffffffffffffffffff168152602001908152602001600020819055508273ffffffffffffffffffffffffffffffffffffffff163373ffffffffffffffffffffffffffffffffffffffff167f8c5be1e5ebec7d5bd14f71427d1e84f3dd0314c0f7b2291e5b200ac8c7c3b925846040516103409190610c84565b60405180910390a36001905092915050565b6000600254905090565b806002600082825461036e9190610cd6565b92505081905550806000803373ffffffffffffffffffffffffffffffffffffffff1673ffffffffffffffffffffffffffffffffffffffff16815260200190815260200160002060008282546103c39190610cd6565b9250508190555050565b60008060008573ffffffffffffffffffffffffffffffffffffffff1673ffffffffffffffffffffffffffffffffffffffff1681526020019081526020016000205482111561041a57600080fd5b600160008573ffffffffffffffffffffffffffffffffffffffff1673ffffffffffffffffffffffffffffffffffffffff16815260200190815260200160002060003373ffffffffffffffffffffffffffffffffffffffff1673ffffffffffffffffffffffffffffffffffffffff168152602001908152602001600020548211156104a357600080fd5b6104f4826000808773ffffffffffffffffffffffffffffffffffffffff1673ffffffffffffffffffffffffffffffffffffffff16815260200190815260200160002054610a3790919063ffffffff16565b6000808673ffffffffffffffffffffffffffffffffffffffff1673ffffffffffffffffffffffffffffffffffffffff168152602001908152602001600020819055506105c582600160008773ffffffffffffffffffffffffffffffffffffffff1673ffffffffffffffffffffffffffffffffffffffff16815260200190815260200160002060003373ffffffffffffffffffffffffffffffffffffffff1673ffffffffffffffffffffffffffffffffffffffff16815260200190815260200160002054610a3790919063ffffffff16565b600160008673ffffffffffffffffffffffffffffffffffffffff1673ffffffffffffffffffffffffffffffffffffffff16815260200190815260200160002060003373ffffffffffffffffffffffffffffffffffffffff1673ffffffffffffffffffffffffffffffffffffffff16815260200190815260200160002081905550610696826000808673ffffffffffffffffffffffffffffffffffffffff1673ffffffffffffffffffffffffffffffffffffffff16815260200190815260200160002054610a5e90919063ffffffff16565b6000808573ffffffffffffffffffffffffffffffffffffffff1673ffffffffffffffffffffffffffffffffffffffff168152602001908152602001600020819055508273ffffffffffffffffffffffffffffffffffffffff168473ffffffffffffffffffffffffffffffffffffffff167fddf252ad1be2c89b69c2b068fc378daa952ba7f163c4a11628f55a4df523b3ef846040516107359190610c84565b60405180910390a3600190509392505050565b600281565b60008060008373ffffffffffffffffffffffffffffffffffffffff1673ffffffffffffffffffffffffffffffffffffffff168152602001908152602001600020549050919050565b6040518060400160405280600381526020017f455243000000000000000000000000000000000000000000000000000000000081525081565b60008060003373ffffffffffffffffffffffffffffffffffffffff1673ffffffffffffffffffffffffffffffffffffffff1681526020019081526020016000205482111561081b57600080fd5b61086c826000803373ffffffffffffffffffffffffffffffffffffffff1673ffffffffffffffffffffffffffffffffffffffff16815260200190815260200160002054610a3790919063ffffffff16565b6000803373ffffffffffffffffffffffffffffffffffffffff1673ffffffffffffffffffffffffffffffffffffffff168152602001908152602001600020819055506108ff826000808673ffffffffffffffffffffffffffffffffffffffff1673ffffffffffffffffffffffffffffffffffffffff16815260200190815260200160002054610a5e90919063ffffffff16565b6000808573ffffffffffffffffffffffffffffffffffffffff1673ffffffffffffffffffffffffffffffffffffffff168152602001908152602001600020819055508273ffffffffffffffffffffffffffffffffffffffff163373ffffffffffffffffffffffffffffffffffffffff167fddf252ad1be2c89b69c2b068fc378daa952ba7f163c4a11628f55a4df523b3ef8460405161099e9190610c84565b60405180910390a36001905092915050565b6000600160008473ffffffffffffffffffffffffffffffffffffffff1673ffffffffffffffffffffffffffffffffffffffff16815260200190815260200160002060008373ffffffffffffffffffffffffffffffffffffffff1673ffffffffffffffffffffffffffffffffffffffff16815260200190815260200160002054905092915050565b600082821115610a4a57610a49610de8565b5b8183610a569190610d2c565b905092915050565b6000808284610a6d9190610cd6565b905083811015610a8057610a7f610de8565b5b8091505092915050565b600081359050610a9981610e5c565b92915050565b600081359050610aae81610e73565b92915050565b600060208284031215610aca57610ac9610e46565b5b6000610ad884828501610a8a565b91505092915050565b60008060408385031215610af857610af7610e46565b5b6000610b0685828601610a8a565b9250506020610b1785828601610a8a565b9150509250929050565b600080600060608486031215610b3a57610b39610e46565b5b6000610b4886828701610a8a565b9350506020610b5986828701610a8a565b9250506040610b6a86828701610a9f565b9150509250925092565b60008060408385031215610b8b57610b8a610e46565b5b6000610b9985828601610a8a565b9250506020610baa85828601610a9f565b9150509250929050565b600060208284031215610bca57610bc9610e46565b5b6000610bd884828501610a9f565b91505092915050565b610bea81610d72565b82525050565b6000610bfb82610cba565b610c058185610cc5565b9350610c15818560208601610db5565b610c1e81610e4b565b840191505092915050565b610c3281610d9e565b82525050565b610c4181610da8565b82525050565b6000602082019050610c5c6000830184610be1565b92915050565b60006020820190508181036000830152610c7c8184610bf0565b905092915050565b6000602082019050610c996000830184610c29565b92915050565b6000602082019050610cb46000830184610c38565b92915050565b600081519050919050565b600082825260208201905092915050565b6000610ce182610d9e565b9150610cec83610d9e565b9250827fffffffffffffffffffffffffffffffffffffffffffffffffffffffffffffffff03821115610d2157610d20610e17565b5b828201905092915050565b6000610d3782610d9e565b9150610d4283610d9e565b925082821015610d5557610d54610e17565b5b828203905092915050565b6000610d6b82610d7e565b9050919050565b60008115159050919050565b600073ffffffffffffffffffffffffffffffffffffffff82169050919050565b6000819050919050565b600060ff82169050919050565b60005b83811015610dd3578082015181840152602081019050610db8565b83811115610de2576000848401525b50505050565b7f4e487b7100000000000000000000000000000000000000000000000000000000600052600160045260246000fd5b7f4e487b7100000000000000000000000000000000000000000000000000000000600052601160045260246000fd5b600080fd5b6000601f19601f8301169050919050565b610e6581610d60565b8114610e7057600080fd5b50565b610e7c81610d9e565b8114610e8757600080fd5b5056fea264697066735822122038b3b629220f7bb9b58abd7142da7e1995c26e1fa1ce23bece24cce293b055dc64736f6c63430008070033",
					"opcodes": "PUSH1 0x80 PUSH1 0x40 MSTORE CALLVALUE DUP1 ISZERO PUSH3 0x11 JUMPI PUSH1 0x0 DUP1 REVERT JUMPDEST POP PUSH2 0x2710 PUSH1 0x40 MLOAD PUSH3 0x23 SWAP1 PUSH3 0xD3 JUMP JUMPDEST PUSH3 0x2F SWAP2 SWAP1 PUSH3 0xF2 JUMP JUMPDEST PUSH1 0x40 MLOAD DUP1 SWAP2 SUB SWAP1 PUSH1 0x0 CREATE DUP1 ISZERO DUP1 ISZERO PUSH3 0x4C JUMPI RETURNDATASIZE PUSH1 0x0 DUP1 RETURNDATACOPY RETURNDATASIZE PUSH1 0x0 REVERT JUMPDEST POP PUSH1 0x0 DUP1 PUSH2 0x100 EXP DUP2 SLOAD DUP2 PUSH20 0xFFFFFFFFFFFFFFFFFFFFFFFFFFFFFFFFFFFFFFFF MUL NOT AND SWAP1 DUP4 PUSH20 0xFFFFFFFFFFFFFFFFFFFFFFFFFFFFFFFFFFFFFFFF AND MUL OR SWAP1 SSTORE POP CALLER PUSH1 0x1 PUSH1 0x0 PUSH2 0x100 EXP DUP2 SLOAD DUP2 PUSH20 0xFFFFFFFFFFFFFFFFFFFFFFFFFFFFFFFFFFFFFFFF MUL NOT AND SWAP1 DUP4 PUSH20 0xFFFFFFFFFFFFFFFFFFFFFFFFFFFFFFFFFFFFFFFF AND MUL OR SWAP1 SSTORE POP PUSH3 0x12D JUMP JUMPDEST PUSH2 0xFBB DUP1 PUSH3 0x1552 DUP4 CODECOPY ADD SWAP1 JUMP JUMPDEST PUSH3 0xEC DUP2 PUSH3 0x119 JUMP JUMPDEST DUP3 MSTORE POP POP JUMP JUMPDEST PUSH1 0x0 PUSH1 0x20 DUP3 ADD SWAP1 POP PUSH3 0x109 PUSH1 0x0 DUP4 ADD DUP5 PUSH3 0xE1 JUMP JUMPDEST SWAP3 SWAP2 POP POP JUMP JUMPDEST PUSH1 0x0 DUP2 SWAP1 POP SWAP2 SWAP1 POP JUMP JUMPDEST PUSH1 0x0 PUSH3 0x126 DUP3 PUSH3 0x10F JUMP JUMPDEST SWAP1 POP SWAP2 SWAP1 POP JUMP JUMPDEST PUSH2 0x1415 DUP1 PUSH3 0x13D PUSH1 0x0 CODECOPY PUSH1 0x0 RETURN INVALID PUSH1 0x80 PUSH1 0x40 MSTORE PUSH1 0x4 CALLDATASIZE LT PUSH2 0x86 JUMPI PUSH1 0x0 CALLDATALOAD PUSH1 0xE0 SHR DUP1 PUSH4 0xBA2D17FE GT PUSH2 0x59 JUMPI DUP1 PUSH4 0xBA2D17FE EQ PUSH2 0x126 JUMPI DUP1 PUSH4 0xC66DCA40 EQ PUSH2 0x14F JUMPI DUP1 PUSH4 0xCE6DD8C4 EQ PUSH2 0x178 JUMPI DUP1 PUSH4 0xCE8F2F38 EQ PUSH2 0x1A3 JUMPI DUP1 PUSH4 0xD00DF296 EQ PUSH2 0x1E0 JUMPI PUSH2 0x86 JUMP JUMPDEST DUP1 PUSH4 0x2076B56C EQ PUSH2 0x8B JUMPI DUP1 PUSH4 0x48BA0838 EQ PUSH2 0xB4 JUMPI DUP1 PUSH4 0x722713F7 EQ PUSH2 0xD0 JUMPI DUP1 PUSH4 0x8DA5CB5B EQ PUSH2 0xFB JUMPI JUMPDEST PUSH1 0x0 DUP1 REVERT JUMPDEST CALLVALUE DUP1 ISZERO PUSH2 0x97 JUMPI PUSH1 0x0 DUP1 REVERT JUMPDEST POP PUSH2 0xB2 PUSH1 0x4 DUP1 CALLDATASIZE SUB DUP2 ADD SWAP1 PUSH2 0xAD SWAP2 SWAP1 PUSH2 0xC7B JUMP JUMPDEST PUSH2 0x21F JUMP JUMPDEST STOP JUMPDEST PUSH2 0xCE PUSH1 0x4 DUP1 CALLDATASIZE SUB DUP2 ADD SWAP1 PUSH2 0xC9 SWAP2 SWAP1 PUSH2 0xCD7 JUMP JUMPDEST PUSH2 0x3B0 JUMP JUMPDEST STOP JUMPDEST CALLVALUE DUP1 ISZERO PUSH2 0xDC JUMPI PUSH1 0x0 DUP1 REVERT JUMPDEST POP PUSH2 0xE5 PUSH2 0x5B3 JUMP JUMPDEST PUSH1 0x40 MLOAD PUSH2 0xF2 SWAP2 SWAP1 PUSH2 0xFA6 JUMP JUMPDEST PUSH1 0x40 MLOAD DUP1 SWAP2 SUB SWAP1 RETURN JUMPDEST CALLVALUE DUP1 ISZERO PUSH2 0x107 JUMPI PUSH1 0x0 DUP1 REVERT JUMPDEST POP PUSH2 0x110 PUSH2 0x664 JUMP JUMPDEST PUSH1 0x40 MLOAD PUSH2 0x11D SWAP2 SWAP1 PUSH2 0xE72 JUMP JUMPDEST PUSH1 0x40 MLOAD DUP1 SWAP2 SUB SWAP1 RETURN JUMPDEST CALLVALUE DUP1 ISZERO PUSH2 0x132 JUMPI PUSH1 0x0 DUP1 REVERT JUMPDEST POP PUSH2 0x14D PUSH1 0x4 DUP1 CALLDATASIZE SUB DUP2 ADD SWAP1 PUSH2 0x148 SWAP2 SWAP1 PUSH2 0xCD7 JUMP JUMPDEST PUSH2 0x68A JUMP JUMPDEST STOP JUMPDEST CALLVALUE DUP1 ISZERO PUSH2 0x15B JUMPI PUSH1 0x0 DUP1 REVERT JUMPDEST POP PUSH2 0x176 PUSH1 0x4 DUP1 CALLDATASIZE SUB DUP2 ADD SWAP1 PUSH2 0x171 SWAP2 SWAP1 PUSH2 0xC32 JUMP JUMPDEST PUSH2 0x7AA JUMP JUMPDEST STOP JUMPDEST CALLVALUE DUP1 ISZERO PUSH2 0x184 JUMPI PUSH1 0x0 DUP1 REVERT JUMPDEST POP PUSH2 0x18D PUSH2 0x8B0 JUMP JUMPDEST PUSH1 0x40 MLOAD PUSH2 0x19A SWAP2 SWAP1 PUSH2 0xFA6 JUMP JUMPDEST PUSH1 0x40 MLOAD DUP1 SWAP2 SUB SWAP1 RETURN JUMPDEST CALLVALUE DUP1 ISZERO PUSH2 0x1AF JUMPI PUSH1 0x0 DUP1 REVERT JUMPDEST POP PUSH2 0x1CA PUSH1 0x4 DUP1 CALLDATASIZE SUB DUP2 ADD SWAP1 PUSH2 0x1C5 SWAP2 SWAP1 PUSH2 0xBD8 JUMP JUMPDEST PUSH2 0x961 JUMP JUMPDEST PUSH1 0x40 MLOAD PUSH2 0x1D7 SWAP2 SWAP1 PUSH2 0xFA6 JUMP JUMPDEST PUSH1 0x40 MLOAD DUP1 SWAP2 SUB SWAP1 RETURN JUMPDEST CALLVALUE DUP1 ISZERO PUSH2 0x1EC JUMPI PUSH1 0x0 DUP1 REVERT JUMPDEST POP PUSH2 0x207 PUSH1 0x4 DUP1 CALLDATASIZE SUB DUP2 ADD SWAP1 PUSH2 0x202 SWAP2 SWAP1 PUSH2 0xC32 JUMP JUMPDEST PUSH2 0x97F JUMP JUMPDEST PUSH1 0x40 MLOAD PUSH2 0x216 SWAP4 SWAP3 SWAP2 SWAP1 PUSH2 0xF08 JUMP JUMPDEST PUSH1 0x40 MLOAD DUP1 SWAP2 SUB SWAP1 RETURN JUMPDEST CALLER PUSH1 0x1 PUSH1 0x0 SWAP1 SLOAD SWAP1 PUSH2 0x100 EXP SWAP1 DIV PUSH20 0xFFFFFFFFFFFFFFFFFFFFFFFFFFFFFFFFFFFFFFFF AND PUSH20 0xFFFFFFFFFFFFFFFFFFFFFFFFFFFFFFFFFFFFFFFF AND DUP2 PUSH20 0xFFFFFFFFFFFFFFFFFFFFFFFFFFFFFFFFFFFFFFFF AND EQ PUSH2 0x2B0 JUMPI PUSH1 0x40 MLOAD PUSH32 0x8C379A000000000000000000000000000000000000000000000000000000000 DUP2 MSTORE PUSH1 0x4 ADD PUSH2 0x2A7 SWAP1 PUSH2 0xF46 JUMP JUMPDEST PUSH1 0x40 MLOAD DUP1 SWAP2 SUB SWAP1 REVERT JUMPDEST PUSH1 0x40 MLOAD DUP1 PUSH1 0x60 ADD PUSH1 0x40 MSTORE DUP1 DUP5 DUP2 MSTORE PUSH1 0x20 ADD DUP4 DUP2 MSTORE PUSH1 0x20 ADD PUSH1 0x1 ISZERO ISZERO DUP2 MSTORE POP PUSH1 0x3 DUP5 PUSH1 0x40 MLOAD PUSH2 0x2DE SWAP2 SWAP1 PUSH2 0xE40 JUMP JUMPDEST SWAP1 DUP2 MSTORE PUSH1 0x20 ADD PUSH1 0x40 MLOAD DUP1 SWAP2 SUB SWAP1 KECCAK256 PUSH1 0x0 DUP3 ADD MLOAD DUP2 PUSH1 0x0 ADD SWAP1 DUP1 MLOAD SWAP1 PUSH1 0x20 ADD SWAP1 PUSH2 0x308 SWAP3 SWAP2 SWAP1 PUSH2 0xA71 JUMP JUMPDEST POP PUSH1 0x20 DUP3 ADD MLOAD DUP2 PUSH1 0x1 ADD SSTORE PUSH1 0x40 DUP3 ADD MLOAD DUP2 PUSH1 0x2 ADD PUSH1 0x0 PUSH2 0x100 EXP DUP2 SLOAD DUP2 PUSH1 0xFF MUL NOT AND SWAP1 DUP4 ISZERO ISZERO MUL OR SWAP1 SSTORE POP SWAP1 POP POP PUSH1 0x4 DUP4 SWAP1 DUP1 PUSH1 0x1 DUP2 SLOAD ADD DUP1 DUP3 SSTORE DUP1 SWAP2 POP POP PUSH1 0x1 SWAP1 SUB SWAP1 PUSH1 0x0 MSTORE PUSH1 0x20 PUSH1 0x0 KECCAK256 ADD PUSH1 0x0 SWAP1 SWAP2 SWAP1 SWAP2 SWAP1 SWAP2 POP SWAP1 DUP1 MLOAD SWAP1 PUSH1 0x20 ADD SWAP1 PUSH2 0x371 SWAP3 SWAP2 SWAP1 PUSH2 0xA71 JUMP JUMPDEST POP PUSH32 0xFC9ECD7A6C2CA96D38526A0B9CC22F2474FF8E596DD348EDAAB06BE905EBE378 DUP4 DUP4 PUSH1 0x40 MLOAD PUSH2 0x3A3 SWAP3 SWAP2 SWAP1 PUSH2 0xED8 JUMP JUMPDEST PUSH1 0x40 MLOAD DUP1 SWAP2 SUB SWAP1 LOG1 POP POP POP JUMP JUMPDEST PUSH1 0x0 PUSH2 0x3BB DUP3 PUSH2 0xA54 JUMP JUMPDEST SWAP1 POP DUP1 CALLVALUE LT ISZERO PUSH2 0x400 JUMPI PUSH1 0x40 MLOAD PUSH32 0x8C379A000000000000000000000000000000000000000000000000000000000 DUP2 MSTORE PUSH1 0x4 ADD PUSH2 0x3F7 SWAP1 PUSH2 0xF66 JUMP JUMPDEST PUSH1 0x40 MLOAD DUP1 SWAP2 SUB SWAP1 REVERT JUMPDEST PUSH1 0x0 DUP2 CALLVALUE PUSH2 0x40E SWAP2 SWAP1 PUSH2 0x10EE JUMP JUMPDEST SWAP1 POP CALLER PUSH20 0xFFFFFFFFFFFFFFFFFFFFFFFFFFFFFFFFFFFFFFFF AND PUSH2 0x8FC DUP3 SWAP1 DUP2 ISZERO MUL SWAP1 PUSH1 0x40 MLOAD PUSH1 0x0 PUSH1 0x40 MLOAD DUP1 DUP4 SUB DUP2 DUP6 DUP9 DUP9 CALL SWAP4 POP POP POP POP ISZERO DUP1 ISZERO PUSH2 0x456 JUMPI RETURNDATASIZE PUSH1 0x0 DUP1 RETURNDATACOPY RETURNDATASIZE PUSH1 0x0 REVERT JUMPDEST POP PUSH1 0x0 PUSH2 0x461 PUSH2 0x5B3 JUMP JUMPDEST SWAP1 POP DUP1 DUP5 GT ISZERO PUSH2 0x4A6 JUMPI PUSH1 0x40 MLOAD PUSH32 0x8C379A000000000000000000000000000000000000000000000000000000000 DUP2 MSTORE PUSH1 0x4 ADD PUSH2 0x49D SWAP1 PUSH2 0xF86 JUMP JUMPDEST PUSH1 0x40 MLOAD DUP1 SWAP2 SUB SWAP1 REVERT JUMPDEST PUSH1 0x0 DUP1 SLOAD SWAP1 PUSH2 0x100 EXP SWAP1 DIV PUSH20 0xFFFFFFFFFFFFFFFFFFFFFFFFFFFFFFFFFFFFFFFF AND PUSH20 0xFFFFFFFFFFFFFFFFFFFFFFFFFFFFFFFFFFFFFFFF AND PUSH4 0xA9059CBB CALLER DUP7 PUSH1 0x40 MLOAD DUP4 PUSH4 0xFFFFFFFF AND PUSH1 0xE0 SHL DUP2 MSTORE PUSH1 0x4 ADD PUSH2 0x501 SWAP3 SWAP2 SWAP1 PUSH2 0xE8D JUMP JUMPDEST PUSH1 0x20 PUSH1 0x40 MLOAD DUP1 DUP4 SUB DUP2 PUSH1 0x0 DUP8 DUP1 EXTCODESIZE ISZERO DUP1 ISZERO PUSH2 0x51B JUMPI PUSH1 0x0 DUP1 REVERT JUMPDEST POP GAS CALL ISZERO DUP1 ISZERO PUSH2 0x52F JUMPI RETURNDATASIZE PUSH1 0x0 DUP1 RETURNDATACOPY RETURNDATASIZE PUSH1 0x0 REVERT JUMPDEST POP POP POP POP PUSH1 0x40 MLOAD RETURNDATASIZE PUSH1 0x1F NOT PUSH1 0x1F DUP3 ADD AND DUP3 ADD DUP1 PUSH1 0x40 MSTORE POP DUP2 ADD SWAP1 PUSH2 0x553 SWAP2 SWAP1 PUSH2 0xC05 JUMP JUMPDEST POP DUP4 PUSH1 0x2 PUSH1 0x0 CALLER PUSH20 0xFFFFFFFFFFFFFFFFFFFFFFFFFFFFFFFFFFFFFFFF AND PUSH20 0xFFFFFFFFFFFFFFFFFFFFFFFFFFFFFFFFFFFFFFFF AND DUP2 MSTORE PUSH1 0x20 ADD SWAP1 DUP2 MSTORE PUSH1 0x20 ADD PUSH1 0x0 KECCAK256 PUSH1 0x0 ADD PUSH1 0x0 DUP3 DUP3 SLOAD PUSH2 0x5A6 SWAP2 SWAP1 PUSH2 0x103E JUMP JUMPDEST SWAP3 POP POP DUP2 SWAP1 SSTORE POP POP POP POP POP JUMP JUMPDEST PUSH1 0x0 DUP1 PUSH1 0x0 SWAP1 SLOAD SWAP1 PUSH2 0x100 EXP SWAP1 DIV PUSH20 0xFFFFFFFFFFFFFFFFFFFFFFFFFFFFFFFFFFFFFFFF AND PUSH20 0xFFFFFFFFFFFFFFFFFFFFFFFFFFFFFFFFFFFFFFFF AND PUSH4 0x70A08231 ADDRESS PUSH1 0x40 MLOAD DUP3 PUSH4 0xFFFFFFFF AND PUSH1 0xE0 SHL DUP2 MSTORE PUSH1 0x4 ADD PUSH2 0x60F SWAP2 SWAP1 PUSH2 0xE57 JUMP JUMPDEST PUSH1 0x20 PUSH1 0x40 MLOAD DUP1 DUP4 SUB DUP2 DUP7 DUP1 EXTCODESIZE ISZERO DUP1 ISZERO PUSH2 0x627 JUMPI PUSH1 0x0 DUP1 REVERT JUMPDEST POP GAS STATICCALL ISZERO DUP1 ISZERO PUSH2 0x63B JUMPI RETURNDATASIZE PUSH1 0x0 DUP1 RETURNDATACOPY RETURNDATASIZE PUSH1 0x0 REVERT JUMPDEST POP POP POP POP PUSH1 0x40 MLOAD RETURNDATASIZE PUSH1 0x1F NOT PUSH1 0x1F DUP3 ADD AND DUP3 ADD DUP1 PUSH1 0x40 MSTORE POP DUP2 ADD SWAP1 PUSH2 0x65F SWAP2 SWAP1 PUSH2 0xD04 JUMP JUMPDEST SWAP1 POP SWAP1 JUMP JUMPDEST PUSH1 0x1 PUSH1 0x0 SWAP1 SLOAD SWAP1 PUSH2 0x100 EXP SWAP1 DIV PUSH20 0xFFFFFFFFFFFFFFFFFFFFFFFFFFFFFFFFFFFFFFFF AND DUP2 JUMP JUMPDEST CALLER PUSH1 0x1 PUSH1 0x0 SWAP1 SLOAD SWAP1 PUSH2 0x100 EXP SWAP1 DIV PUSH20 0xFFFFFFFFFFFFFFFFFFFFFFFFFFFFFFFFFFFFFFFF AND PUSH20 0xFFFFFFFFFFFFFFFFFFFFFFFFFFFFFFFFFFFFFFFF AND DUP2 PUSH20 0xFFFFFFFFFFFFFFFFFFFFFFFFFFFFFFFFFFFFFFFF AND EQ PUSH2 0x71B JUMPI PUSH1 0x40 MLOAD PUSH32 0x8C379A000000000000000000000000000000000000000000000000000000000 DUP2 MSTORE PUSH1 0x4 ADD PUSH2 0x712 SWAP1 PUSH2 0xF46 JUMP JUMPDEST PUSH1 0x40 MLOAD DUP1 SWAP2 SUB SWAP1 REVERT JUMPDEST PUSH1 0x0 DUP1 SLOAD SWAP1 PUSH2 0x100 EXP SWAP1 DIV PUSH20 0xFFFFFFFFFFFFFFFFFFFFFFFFFFFFFFFFFFFFFFFF AND PUSH20 0xFFFFFFFFFFFFFFFFFFFFFFFFFFFFFFFFFFFFFFFF AND PUSH4 0x1D43CC98 DUP4 PUSH1 0x40 MLOAD DUP3 PUSH4 0xFFFFFFFF AND PUSH1 0xE0 SHL DUP2 MSTORE PUSH1 0x4 ADD PUSH2 0x774 SWAP2 SWAP1 PUSH2 0xFA6 JUMP JUMPDEST PUSH1 0x0 PUSH1 0x40 MLOAD DUP1 DUP4 SUB DUP2 PUSH1 0x0 DUP8 DUP1 EXTCODESIZE ISZERO DUP1 ISZERO PUSH2 0x78E JUMPI PUSH1 0x0 DUP1 REVERT JUMPDEST POP GAS CALL ISZERO DUP1 ISZERO PUSH2 0x7A2 JUMPI RETURNDATASIZE PUSH1 0x0 DUP1 RETURNDATACOPY RETURNDATASIZE PUSH1 0x0 REVERT JUMPDEST POP POP POP POP POP POP JUMP JUMPDEST CALLER PUSH1 0x1 PUSH1 0x0 SWAP1 SLOAD SWAP1 PUSH2 0x100 EXP SWAP1 DIV PUSH20 0xFFFFFFFFFFFFFFFFFFFFFFFFFFFFFFFFFFFFFFFF AND PUSH20 0xFFFFFFFFFFFFFFFFFFFFFFFFFFFFFFFFFFFFFFFF AND DUP2 PUSH20 0xFFFFFFFFFFFFFFFFFFFFFFFFFFFFFFFFFFFFFFFF AND EQ PUSH2 0x83B JUMPI PUSH1 0x40 MLOAD PUSH32 0x8C379A000000000000000000000000000000000000000000000000000000000 DUP2 MSTORE PUSH1 0x4 ADD PUSH2 0x832 SWAP1 PUSH2 0xF46 JUMP JUMPDEST PUSH1 0x40 MLOAD DUP1 SWAP2 SUB SWAP1 REVERT JUMPDEST PUSH1 0x0 PUSH1 0x3 DUP4 PUSH1 0x40 MLOAD PUSH2 0x84D SWAP2 SWAP1 PUSH2 0xE40 JUMP JUMPDEST SWAP1 DUP2 MSTORE PUSH1 0x20 ADD PUSH1 0x40 MLOAD DUP1 SWAP2 SUB SWAP1 KECCAK256 PUSH1 0x2 ADD PUSH1 0x0 PUSH2 0x100 EXP DUP2 SLOAD DUP2 PUSH1 0xFF MUL NOT AND SWAP1 DUP4 ISZERO ISZERO MUL OR SWAP1 SSTORE POP PUSH32 0x24BA6C881728980191398DB8DCFD8ED4F6AEB1C08DF349D63F3B85075F3E86DD DUP3 PUSH1 0x40 MLOAD PUSH2 0x8A4 SWAP2 SWAP1 PUSH2 0xEB6 JUMP JUMPDEST PUSH1 0x40 MLOAD DUP1 SWAP2 SUB SWAP1 LOG1 POP POP JUMP JUMPDEST PUSH1 0x0 DUP1 PUSH1 0x0 SWAP1 SLOAD SWAP1 PUSH2 0x100 EXP SWAP1 DIV PUSH20 0xFFFFFFFFFFFFFFFFFFFFFFFFFFFFFFFFFFFFFFFF AND PUSH20 0xFFFFFFFFFFFFFFFFFFFFFFFFFFFFFFFFFFFFFFFF AND PUSH4 0x70A08231 CALLER PUSH1 0x40 MLOAD DUP3 PUSH4 0xFFFFFFFF AND PUSH1 0xE0 SHL DUP2 MSTORE PUSH1 0x4 ADD PUSH2 0x90C SWAP2 SWAP1 PUSH2 0xE57 JUMP JUMPDEST PUSH1 0x20 PUSH1 0x40 MLOAD DUP1 DUP4 SUB DUP2 DUP7 DUP1 EXTCODESIZE ISZERO DUP1 ISZERO PUSH2 0x924 JUMPI PUSH1 0x0 DUP1 REVERT JUMPDEST POP GAS STATICCALL ISZERO DUP1 ISZERO PUSH2 0x938 JUMPI RETURNDATASIZE PUSH1 0x0 DUP1 RETURNDATACOPY RETURNDATASIZE PUSH1 0x0 REVERT JUMPDEST POP POP POP POP PUSH1 0x40 MLOAD RETURNDATASIZE PUSH1 0x1F NOT PUSH1 0x1F DUP3 ADD AND DUP3 ADD DUP1 PUSH1 0x40 MSTORE POP DUP2 ADD SWAP1 PUSH2 0x95C SWAP2 SWAP1 PUSH2 0xD04 JUMP JUMPDEST SWAP1 POP SWAP1 JUMP JUMPDEST PUSH1 0x2 PUSH1 0x20 MSTORE DUP1 PUSH1 0x0 MSTORE PUSH1 0x40 PUSH1 0x0 KECCAK256 PUSH1 0x0 SWAP2 POP SWAP1 POP DUP1 PUSH1 0x0 ADD SLOAD SWAP1 POP DUP2 JUMP JUMPDEST PUSH1 0x3 DUP2 DUP1 MLOAD PUSH1 0x20 DUP2 ADD DUP3 ADD DUP1 MLOAD DUP5 DUP3 MSTORE PUSH1 0x20 DUP4 ADD PUSH1 0x20 DUP6 ADD KECCAK256 DUP2 DUP4 MSTORE DUP1 SWAP6 POP POP POP POP POP POP PUSH1 0x0 SWAP2 POP SWAP1 POP DUP1 PUSH1 0x0 ADD DUP1 SLOAD PUSH2 0x9B8 SWAP1 PUSH2 0x11BE JUMP JUMPDEST DUP1 PUSH1 0x1F ADD PUSH1 0x20 DUP1 SWAP2 DIV MUL PUSH1 0x20 ADD PUSH1 0x40 MLOAD SWAP1 DUP2 ADD PUSH1 0x40 MSTORE DUP1 SWAP3 SWAP2 SWAP1 DUP2 DUP2 MSTORE PUSH1 0x20 ADD DUP3 DUP1 SLOAD PUSH2 0x9E4 SWAP1 PUSH2 0x11BE JUMP JUMPDEST DUP1 ISZERO PUSH2 0xA31 JUMPI DUP1 PUSH1 0x1F LT PUSH2 0xA06 JUMPI PUSH2 0x100 DUP1 DUP4 SLOAD DIV MUL DUP4 MSTORE SWAP2 PUSH1 0x20 ADD SWAP2 PUSH2 0xA31 JUMP JUMPDEST DUP3 ADD SWAP2 SWAP1 PUSH1 0x0 MSTORE PUSH1 0x20 PUSH1 0x0 KECCAK256 SWAP1 JUMPDEST DUP2 SLOAD DUP2 MSTORE SWAP1 PUSH1 0x1 ADD SWAP1 PUSH1 0x20 ADD DUP1 DUP4 GT PUSH2 0xA14 JUMPI DUP3 SWAP1 SUB PUSH1 0x1F AND DUP3 ADD SWAP2 JUMPDEST POP POP POP POP POP SWAP1 DUP1 PUSH1 0x1 ADD SLOAD SWAP1 DUP1 PUSH1 0x2 ADD PUSH1 0x0 SWAP1 SLOAD SWAP1 PUSH2 0x100 EXP SWAP1 DIV PUSH1 0xFF AND SWAP1 POP DUP4 JUMP JUMPDEST PUSH1 0x0 PUSH8 0xDE0B6B3A7640000 DUP3 PUSH2 0xA6A SWAP2 SWAP1 PUSH2 0x1094 JUMP JUMPDEST SWAP1 POP SWAP2 SWAP1 POP JUMP JUMPDEST DUP3 DUP1 SLOAD PUSH2 0xA7D SWAP1 PUSH2 0x11BE JUMP JUMPDEST SWAP1 PUSH1 0x0 MSTORE PUSH1 0x20 PUSH1 0x0 KECCAK256 SWAP1 PUSH1 0x1F ADD PUSH1 0x20 SWAP1 DIV DUP2 ADD SWAP3 DUP3 PUSH2 0xA9F JUMPI PUSH1 0x0 DUP6 SSTORE PUSH2 0xAE6 JUMP JUMPDEST DUP3 PUSH1 0x1F LT PUSH2 0xAB8 JUMPI DUP1 MLOAD PUSH1 0xFF NOT AND DUP4 DUP1 ADD OR DUP6 SSTORE PUSH2 0xAE6 JUMP JUMPDEST DUP3 DUP1 ADD PUSH1 0x1 ADD DUP6 SSTORE DUP3 ISZERO PUSH2 0xAE6 JUMPI SWAP2 DUP3 ADD JUMPDEST DUP3 DUP2 GT ISZERO PUSH2 0xAE5 JUMPI DUP3 MLOAD DUP3 SSTORE SWAP2 PUSH1 0x20 ADD SWAP2 SWAP1 PUSH1 0x1 ADD SWAP1 PUSH2 0xACA JUMP JUMPDEST JUMPDEST POP SWAP1 POP PUSH2 0xAF3 SWAP2 SWAP1 PUSH2 0xAF7 JUMP JUMPDEST POP SWAP1 JUMP JUMPDEST JUMPDEST DUP1 DUP3 GT ISZERO PUSH2 0xB10 JUMPI PUSH1 0x0 DUP2 PUSH1 0x0 SWAP1 SSTORE POP PUSH1 0x1 ADD PUSH2 0xAF8 JUMP JUMPDEST POP SWAP1 JUMP JUMPDEST PUSH1 0x0 PUSH2 0xB27 PUSH2 0xB22 DUP5 PUSH2 0xFE6 JUMP JUMPDEST PUSH2 0xFC1 JUMP JUMPDEST SWAP1 POP DUP3 DUP2 MSTORE PUSH1 0x20 DUP2 ADD DUP5 DUP5 DUP5 ADD GT ISZERO PUSH2 0xB43 JUMPI PUSH2 0xB42 PUSH2 0x12B3 JUMP JUMPDEST JUMPDEST PUSH2 0xB4E DUP5 DUP3 DUP6 PUSH2 0x117C JUMP JUMPDEST POP SWAP4 SWAP3 POP POP POP JUMP JUMPDEST PUSH1 0x0 DUP2 CALLDATALOAD SWAP1 POP PUSH2 0xB65 DUP2 PUSH2 0x139A JUMP JUMPDEST SWAP3 SWAP2 POP POP JUMP JUMPDEST PUSH1 0x0 DUP2 MLOAD SWAP1 POP PUSH2 0xB7A DUP2 PUSH2 0x13B1 JUMP JUMPDEST SWAP3 SWAP2 POP POP JUMP JUMPDEST PUSH1 0x0 DUP3 PUSH1 0x1F DUP4 ADD SLT PUSH2 0xB95 JUMPI PUSH2 0xB94 PUSH2 0x12AE JUMP JUMPDEST JUMPDEST DUP2 CALLDATALOAD PUSH2 0xBA5 DUP5 DUP3 PUSH1 0x20 DUP7 ADD PUSH2 0xB14 JUMP JUMPDEST SWAP2 POP POP SWAP3 SWAP2 POP POP JUMP JUMPDEST PUSH1 0x0 DUP2 CALLDATALOAD SWAP1 POP PUSH2 0xBBD DUP2 PUSH2 0x13C8 JUMP JUMPDEST SWAP3 SWAP2 POP POP JUMP JUMPDEST PUSH1 0x0 DUP2 MLOAD SWAP1 POP PUSH2 0xBD2 DUP2 PUSH2 0x13C8 JUMP JUMPDEST SWAP3 SWAP2 POP POP JUMP JUMPDEST PUSH1 0x0 PUSH1 0x20 DUP3 DUP5 SUB SLT ISZERO PUSH2 0xBEE JUMPI PUSH2 0xBED PUSH2 0x12BD JUMP JUMPDEST JUMPDEST PUSH1 0x0 PUSH2 0xBFC DUP5 DUP3 DUP6 ADD PUSH2 0xB56 JUMP JUMPDEST SWAP2 POP POP SWAP3 SWAP2 POP POP JUMP JUMPDEST PUSH1 0x0 PUSH1 0x20 DUP3 DUP5 SUB SLT ISZERO PUSH2 0xC1B JUMPI PUSH2 0xC1A PUSH2 0x12BD JUMP JUMPDEST JUMPDEST PUSH1 0x0 PUSH2 0xC29 DUP5 DUP3 DUP6 ADD PUSH2 0xB6B JUMP JUMPDEST SWAP2 POP POP SWAP3 SWAP2 POP POP JUMP JUMPDEST PUSH1 0x0 PUSH1 0x20 DUP3 DUP5 SUB SLT ISZERO PUSH2 0xC48 JUMPI PUSH2 0xC47 PUSH2 0x12BD JUMP JUMPDEST JUMPDEST PUSH1 0x0 DUP3 ADD CALLDATALOAD PUSH8 0xFFFFFFFFFFFFFFFF DUP2 GT ISZERO PUSH2 0xC66 JUMPI PUSH2 0xC65 PUSH2 0x12B8 JUMP JUMPDEST JUMPDEST PUSH2 0xC72 DUP5 DUP3 DUP6 ADD PUSH2 0xB80 JUMP JUMPDEST SWAP2 POP POP SWAP3 SWAP2 POP POP JUMP JUMPDEST PUSH1 0x0 DUP1 PUSH1 0x40 DUP4 DUP6 SUB SLT ISZERO PUSH2 0xC92 JUMPI PUSH2 0xC91 PUSH2 0x12BD JUMP JUMPDEST JUMPDEST PUSH1 0x0 DUP4 ADD CALLDATALOAD PUSH8 0xFFFFFFFFFFFFFFFF DUP2 GT ISZERO PUSH2 0xCB0 JUMPI PUSH2 0xCAF PUSH2 0x12B8 JUMP JUMPDEST JUMPDEST PUSH2 0xCBC DUP6 DUP3 DUP7 ADD PUSH2 0xB80 JUMP JUMPDEST SWAP3 POP POP PUSH1 0x20 PUSH2 0xCCD DUP6 DUP3 DUP7 ADD PUSH2 0xBAE JUMP JUMPDEST SWAP2 POP POP SWAP3 POP SWAP3 SWAP1 POP JUMP JUMPDEST PUSH1 0x0 PUSH1 0x20 DUP3 DUP5 SUB SLT ISZERO PUSH2 0xCED JUMPI PUSH2 0xCEC PUSH2 0x12BD JUMP JUMPDEST JUMPDEST PUSH1 0x0 PUSH2 0xCFB DUP5 DUP3 DUP6 ADD PUSH2 0xBAE JUMP JUMPDEST SWAP2 POP POP SWAP3 SWAP2 POP POP JUMP JUMPDEST PUSH1 0x0 PUSH1 0x20 DUP3 DUP5 SUB SLT ISZERO PUSH2 0xD1A JUMPI PUSH2 0xD19 PUSH2 0x12BD JUMP JUMPDEST JUMPDEST PUSH1 0x0 PUSH2 0xD28 DUP5 DUP3 DUP6 ADD PUSH2 0xBC3 JUMP JUMPDEST SWAP2 POP POP SWAP3 SWAP2 POP POP JUMP JUMPDEST PUSH2 0xD3A DUP2 PUSH2 0x1134 JUMP JUMPDEST DUP3 MSTORE POP POP JUMP JUMPDEST PUSH2 0xD49 DUP2 PUSH2 0x1122 JUMP JUMPDEST DUP3 MSTORE POP POP JUMP JUMPDEST PUSH2 0xD58 DUP2 PUSH2 0x1146 JUMP JUMPDEST DUP3 MSTORE POP POP JUMP JUMPDEST PUSH1 0x0 PUSH2 0xD69 DUP3 PUSH2 0x1017 JUMP JUMPDEST PUSH2 0xD73 DUP2 DUP6 PUSH2 0x1022 JUMP JUMPDEST SWAP4 POP PUSH2 0xD83 DUP2 DUP6 PUSH1 0x20 DUP7 ADD PUSH2 0x118B JUMP JUMPDEST PUSH2 0xD8C DUP2 PUSH2 0x12C2 JUMP JUMPDEST DUP5 ADD SWAP2 POP POP SWAP3 SWAP2 POP POP JUMP JUMPDEST PUSH1 0x0 PUSH2 0xDA2 DUP3 PUSH2 0x1017 JUMP JUMPDEST PUSH2 0xDAC DUP2 DUP6 PUSH2 0x1033 JUMP JUMPDEST SWAP4 POP PUSH2 0xDBC DUP2 DUP6 PUSH1 0x20 DUP7 ADD PUSH2 0x118B JUMP JUMPDEST DUP1 DUP5 ADD SWAP2 POP POP SWAP3 SWAP2 POP POP JUMP JUMPDEST PUSH1 0x0 PUSH2 0xDD5 PUSH1 0x2D DUP4 PUSH2 0x1022 JUMP JUMPDEST SWAP2 POP PUSH2 0xDE0 DUP3 PUSH2 0x12D3 JUMP JUMPDEST PUSH1 0x40 DUP3 ADD SWAP1 POP SWAP2 SWAP1 POP JUMP JUMPDEST PUSH1 0x0 PUSH2 0xDF8 PUSH1 0x2A DUP4 PUSH2 0x1022 JUMP JUMPDEST SWAP2 POP PUSH2 0xE03 DUP3 PUSH2 0x1322 JUMP JUMPDEST PUSH1 0x40 DUP3 ADD SWAP1 POP SWAP2 SWAP1 POP JUMP JUMPDEST PUSH1 0x0 PUSH2 0xE1B PUSH1 0x20 DUP4 PUSH2 0x1022 JUMP JUMPDEST SWAP2 POP PUSH2 0xE26 DUP3 PUSH2 0x1371 JUMP JUMPDEST PUSH1 0x20 DUP3 ADD SWAP1 POP SWAP2 SWAP1 POP JUMP JUMPDEST PUSH2 0xE3A DUP2 PUSH2 0x1172 JUMP JUMPDEST DUP3 MSTORE POP POP JUMP JUMPDEST PUSH1 0x0 PUSH2 0xE4C DUP3 DUP5 PUSH2 0xD97 JUMP JUMPDEST SWAP2 POP DUP2 SWAP1 POP SWAP3 SWAP2 POP POP JUMP JUMPDEST PUSH1 0x0 PUSH1 0x20 DUP3 ADD SWAP1 POP PUSH2 0xE6C PUSH1 0x0 DUP4 ADD DUP5 PUSH2 0xD40 JUMP JUMPDEST SWAP3 SWAP2 POP POP JUMP JUMPDEST PUSH1 0x0 PUSH1 0x20 DUP3 ADD SWAP1 POP PUSH2 0xE87 PUSH1 0x0 DUP4 ADD DUP5 PUSH2 0xD31 JUMP JUMPDEST SWAP3 SWAP2 POP POP JUMP JUMPDEST PUSH1 0x0 PUSH1 0x40 DUP3 ADD SWAP1 POP PUSH2 0xEA2 PUSH1 0x0 DUP4 ADD DUP6 PUSH2 0xD40 JUMP JUMPDEST PUSH2 0xEAF PUSH1 0x20 DUP4 ADD DUP5 PUSH2 0xE31 JUMP JUMPDEST SWAP4 SWAP3 POP POP POP JUMP JUMPDEST PUSH1 0x0 PUSH1 0x20 DUP3 ADD SWAP1 POP DUP2 DUP2 SUB PUSH1 0x0 DUP4 ADD MSTORE PUSH2 0xED0 DUP2 DUP5 PUSH2 0xD5E JUMP JUMPDEST SWAP1 POP SWAP3 SWAP2 POP POP JUMP JUMPDEST PUSH1 0x0 PUSH1 0x40 DUP3 ADD SWAP1 POP DUP2 DUP2 SUB PUSH1 0x0 DUP4 ADD MSTORE PUSH2 0xEF2 DUP2 DUP6 PUSH2 0xD5E JUMP JUMPDEST SWAP1 POP PUSH2 0xF01 PUSH1 0x20 DUP4 ADD DUP5 PUSH2 0xE31 JUMP JUMPDEST SWAP4 SWAP3 POP POP POP JUMP JUMPDEST PUSH1 0x0 PUSH1 0x60 DUP3 ADD SWAP1 POP DUP2 DUP2 SUB PUSH1 0x0 DUP4 ADD MSTORE PUSH2 0xF22 DUP2 DUP7 PUSH2 0xD5E JUMP JUMPDEST SWAP1 POP PUSH2 0xF31 PUSH1 0x20 DUP4 ADD DUP6 PUSH2 0xE31 JUMP JUMPDEST PUSH2 0xF3E PUSH1 0x40 DUP4 ADD DUP5 PUSH2 0xD4F JUMP JUMPDEST SWAP5 SWAP4 POP POP POP POP JUMP JUMPDEST PUSH1 0x0 PUSH1 0x20 DUP3 ADD SWAP1 POP DUP2 DUP2 SUB PUSH1 0x0 DUP4 ADD MSTORE PUSH2 0xF5F DUP2 PUSH2 0xDC8 JUMP JUMPDEST SWAP1 POP SWAP2 SWAP1 POP JUMP JUMPDEST PUSH1 0x0 PUSH1 0x20 DUP3 ADD SWAP1 POP DUP2 DUP2 SUB PUSH1 0x0 DUP4 ADD MSTORE PUSH2 0xF7F DUP2 PUSH2 0xDEB JUMP JUMPDEST SWAP1 POP SWAP2 SWAP1 POP JUMP JUMPDEST PUSH1 0x0 PUSH1 0x20 DUP3 ADD SWAP1 POP DUP2 DUP2 SUB PUSH1 0x0 DUP4 ADD MSTORE PUSH2 0xF9F DUP2 PUSH2 0xE0E JUMP JUMPDEST SWAP1 POP SWAP2 SWAP1 POP JUMP JUMPDEST PUSH1 0x0 PUSH1 0x20 DUP3 ADD SWAP1 POP PUSH2 0xFBB PUSH1 0x0 DUP4 ADD DUP5 PUSH2 0xE31 JUMP JUMPDEST SWAP3 SWAP2 POP POP JUMP JUMPDEST PUSH1 0x0 PUSH2 0xFCB PUSH2 0xFDC JUMP JUMPDEST SWAP1 POP PUSH2 0xFD7 DUP3 DUP3 PUSH2 0x11F0 JUMP JUMPDEST SWAP2 SWAP1 POP JUMP JUMPDEST PUSH1 0x0 PUSH1 0x40 MLOAD SWAP1 POP SWAP1 JUMP JUMPDEST PUSH1 0x0 PUSH8 0xFFFFFFFFFFFFFFFF DUP3 GT ISZERO PUSH2 0x1001 JUMPI PUSH2 0x1000 PUSH2 0x127F JUMP JUMPDEST JUMPDEST PUSH2 0x100A DUP3 PUSH2 0x12C2 JUMP JUMPDEST SWAP1 POP PUSH1 0x20 DUP2 ADD SWAP1 POP SWAP2 SWAP1 POP JUMP JUMPDEST PUSH1 0x0 DUP2 MLOAD SWAP1 POP SWAP2 SWAP1 POP JUMP JUMPDEST PUSH1 0x0 DUP3 DUP3 MSTORE PUSH1 0x20 DUP3 ADD SWAP1 POP SWAP3 SWAP2 POP POP JUMP JUMPDEST PUSH1 0x0 DUP2 SWAP1 POP SWAP3 SWAP2 POP POP JUMP JUMPDEST PUSH1 0x0 PUSH2 0x1049 DUP3 PUSH2 0x1172 JUMP JUMPDEST SWAP2 POP PUSH2 0x1054 DUP4 PUSH2 0x1172 JUMP JUMPDEST SWAP3 POP DUP3 PUSH32 0xFFFFFFFFFFFFFFFFFFFFFFFFFFFFFFFFFFFFFFFFFFFFFFFFFFFFFFFFFFFFFFFF SUB DUP3 GT ISZERO PUSH2 0x1089 JUMPI PUSH2 0x1088 PUSH2 0x1221 JUMP JUMPDEST JUMPDEST DUP3 DUP3 ADD SWAP1 POP SWAP3 SWAP2 POP POP JUMP JUMPDEST PUSH1 0x0 PUSH2 0x109F DUP3 PUSH2 0x1172 JUMP JUMPDEST SWAP2 POP PUSH2 0x10AA DUP4 PUSH2 0x1172 JUMP JUMPDEST SWAP3 POP DUP2 PUSH32 0xFFFFFFFFFFFFFFFFFFFFFFFFFFFFFFFFFFFFFFFFFFFFFFFFFFFFFFFFFFFFFFFF DIV DUP4 GT DUP3 ISZERO ISZERO AND ISZERO PUSH2 0x10E3 JUMPI PUSH2 0x10E2 PUSH2 0x1221 JUMP JUMPDEST JUMPDEST DUP3 DUP3 MUL SWAP1 POP SWAP3 SWAP2 POP POP JUMP JUMPDEST PUSH1 0x0 PUSH2 0x10F9 DUP3 PUSH2 0x1172 JUMP JUMPDEST SWAP2 POP PUSH2 0x1104 DUP4 PUSH2 0x1172 JUMP JUMPDEST SWAP3 POP DUP3 DUP3 LT ISZERO PUSH2 0x1117 JUMPI PUSH2 0x1116 PUSH2 0x1221 JUMP JUMPDEST JUMPDEST DUP3 DUP3 SUB SWAP1 POP SWAP3 SWAP2 POP POP JUMP JUMPDEST PUSH1 0x0 PUSH2 0x112D DUP3 PUSH2 0x1152 JUMP JUMPDEST SWAP1 POP SWAP2 SWAP1 POP JUMP JUMPDEST PUSH1 0x0 PUSH2 0x113F DUP3 PUSH2 0x1152 JUMP JUMPDEST SWAP1 POP SWAP2 SWAP1 POP JUMP JUMPDEST PUSH1 0x0 DUP2 ISZERO ISZERO SWAP1 POP SWAP2 SWAP1 POP JUMP JUMPDEST PUSH1 0x0 PUSH20 0xFFFFFFFFFFFFFFFFFFFFFFFFFFFFFFFFFFFFFFFF DUP3 AND SWAP1 POP SWAP2 SWAP1 POP JUMP JUMPDEST PUSH1 0x0 DUP2 SWAP1 POP SWAP2 SWAP1 POP JUMP JUMPDEST DUP3 DUP2 DUP4 CALLDATACOPY PUSH1 0x0 DUP4 DUP4 ADD MSTORE POP POP POP JUMP JUMPDEST PUSH1 0x0 JUMPDEST DUP4 DUP2 LT ISZERO PUSH2 0x11A9 JUMPI DUP1 DUP3 ADD MLOAD DUP2 DUP5 ADD MSTORE PUSH1 0x20 DUP2 ADD SWAP1 POP PUSH2 0x118E JUMP JUMPDEST DUP4 DUP2 GT ISZERO PUSH2 0x11B8 JUMPI PUSH1 0x0 DUP5 DUP5 ADD MSTORE JUMPDEST POP POP POP POP JUMP JUMPDEST PUSH1 0x0 PUSH1 0x2 DUP3 DIV SWAP1 POP PUSH1 0x1 DUP3 AND DUP1 PUSH2 0x11D6 JUMPI PUSH1 0x7F DUP3 AND SWAP2 POP JUMPDEST PUSH1 0x20 DUP3 LT DUP2 EQ ISZERO PUSH2 0x11EA JUMPI PUSH2 0x11E9 PUSH2 0x1250 JUMP JUMPDEST JUMPDEST POP SWAP2 SWAP1 POP JUMP JUMPDEST PUSH2 0x11F9 DUP3 PUSH2 0x12C2 JUMP JUMPDEST DUP2 ADD DUP2 DUP2 LT PUSH8 0xFFFFFFFFFFFFFFFF DUP3 GT OR ISZERO PUSH2 0x1218 JUMPI PUSH2 0x1217 PUSH2 0x127F JUMP JUMPDEST JUMPDEST DUP1 PUSH1 0x40 MSTORE POP POP POP JUMP JUMPDEST PUSH32 0x4E487B7100000000000000000000000000000000000000000000000000000000 PUSH1 0x0 MSTORE PUSH1 0x11 PUSH1 0x4 MSTORE PUSH1 0x24 PUSH1 0x0 REVERT JUMPDEST PUSH32 0x4E487B7100000000000000000000000000000000000000000000000000000000 PUSH1 0x0 MSTORE PUSH1 0x22 PUSH1 0x4 MSTORE PUSH1 0x24 PUSH1 0x0 REVERT JUMPDEST PUSH32 0x4E487B7100000000000000000000000000000000000000000000000000000000 PUSH1 0x0 MSTORE PUSH1 0x41 PUSH1 0x4 MSTORE PUSH1 0x24 PUSH1 0x0 REVERT JUMPDEST PUSH1 0x0 DUP1 REVERT JUMPDEST PUSH1 0x0 DUP1 REVERT JUMPDEST PUSH1 0x0 DUP1 REVERT JUMPDEST PUSH1 0x0 DUP1 REVERT JUMPDEST PUSH1 0x0 PUSH1 0x1F NOT PUSH1 0x1F DUP4 ADD AND SWAP1 POP SWAP2 SWAP1 POP JUMP JUMPDEST PUSH32 0x4E6F207469656E6573207065726D69736F73207061726120656A656375746172 PUSH1 0x0 DUP3 ADD MSTORE PUSH32 0x20657374612066756E63696F6E00000000000000000000000000000000000000 PUSH1 0x20 DUP3 ADD MSTORE POP JUMP JUMPDEST PUSH32 0x436F6D707261206D656E6F7320546F6B656E73206F207061676120636F6E206D PUSH1 0x0 DUP3 ADD MSTORE PUSH32 0x6173206574686572732E00000000000000000000000000000000000000000000 PUSH1 0x20 DUP3 ADD MSTORE POP JUMP JUMPDEST PUSH32 0x436F6D70726120756E206E756D65726F206D656E6F7220646520546F6B656E73 PUSH1 0x0 DUP3 ADD MSTORE POP JUMP JUMPDEST PUSH2 0x13A3 DUP2 PUSH2 0x1122 JUMP JUMPDEST DUP2 EQ PUSH2 0x13AE JUMPI PUSH1 0x0 DUP1 REVERT JUMPDEST POP JUMP JUMPDEST PUSH2 0x13BA DUP2 PUSH2 0x1146 JUMP JUMPDEST DUP2 EQ PUSH2 0x13C5 JUMPI PUSH1 0x0 DUP1 REVERT JUMPDEST POP JUMP JUMPDEST PUSH2 0x13D1 DUP2 PUSH2 0x1172 JUMP JUMPDEST DUP2 EQ PUSH2 0x13DC JUMPI PUSH1 0x0 DUP1 REVERT JUMPDEST POP JUMP INVALID LOG2 PUSH5 0x6970667358 0x22 SLT KECCAK256 MSIZE MULMOD COINBASE SLT PUSH10 0x76E188FED1967DE47EFC TIMESTAMP NUMBER 0xA7 SHR 0xCF PUSH29 0xA305808FC2E6F03FC8D68664736F6C6343000807003360806040523480 ISZERO PUSH2 0x10 JUMPI PUSH1 0x0 DUP1 REVERT JUMPDEST POP PUSH1 0x40 MLOAD PUSH2 0xFBB CODESIZE SUB DUP1 PUSH2 0xFBB DUP4 CODECOPY DUP2 DUP2 ADD PUSH1 0x40 MSTORE DUP2 ADD SWAP1 PUSH2 0x32 SWAP2 SWAP1 PUSH2 0x99 JUMP JUMPDEST DUP1 PUSH1 0x2 DUP2 SWAP1 SSTORE POP PUSH1 0x2 SLOAD PUSH1 0x0 DUP1 CALLER PUSH20 0xFFFFFFFFFFFFFFFFFFFFFFFFFFFFFFFFFFFFFFFF AND PUSH20 0xFFFFFFFFFFFFFFFFFFFFFFFFFFFFFFFFFFFFFFFF AND DUP2 MSTORE PUSH1 0x20 ADD SWAP1 DUP2 MSTORE PUSH1 0x20 ADD PUSH1 0x0 KECCAK256 DUP2 SWAP1 SSTORE POP POP PUSH2 0xEC JUMP JUMPDEST PUSH1 0x0 DUP2 MLOAD SWAP1 POP PUSH2 0x93 DUP2 PUSH2 0xD5 JUMP JUMPDEST SWAP3 SWAP2 POP POP JUMP JUMPDEST PUSH1 0x0 PUSH1 0x20 DUP3 DUP5 SUB SLT ISZERO PUSH2 0xAF JUMPI PUSH2 0xAE PUSH2 0xD0 JUMP JUMPDEST JUMPDEST PUSH1 0x0 PUSH2 0xBD DUP5 DUP3 DUP6 ADD PUSH2 0x84 JUMP JUMPDEST SWAP2 POP POP SWAP3 SWAP2 POP POP JUMP JUMPDEST PUSH1 0x0 DUP2 SWAP1 POP SWAP2 SWAP1 POP JUMP JUMPDEST PUSH1 0x0 DUP1 REVERT JUMPDEST PUSH2 0xDE DUP2 PUSH2 0xC6 JUMP JUMPDEST DUP2 EQ PUSH2 0xE9 JUMPI PUSH1 0x0 DUP1 REVERT JUMPDEST POP JUMP JUMPDEST PUSH2 0xEC0 DUP1 PUSH2 0xFB PUSH1 0x0 CODECOPY PUSH1 0x0 RETURN INVALID PUSH1 0x80 PUSH1 0x40 MSTORE CALLVALUE DUP1 ISZERO PUSH2 0x10 JUMPI PUSH1 0x0 DUP1 REVERT JUMPDEST POP PUSH1 0x4 CALLDATASIZE LT PUSH2 0x9E JUMPI PUSH1 0x0 CALLDATALOAD PUSH1 0xE0 SHR DUP1 PUSH4 0x313CE567 GT PUSH2 0x66 JUMPI DUP1 PUSH4 0x313CE567 EQ PUSH2 0x15B JUMPI DUP1 PUSH4 0x70A08231 EQ PUSH2 0x179 JUMPI DUP1 PUSH4 0x95D89B41 EQ PUSH2 0x1A9 JUMPI DUP1 PUSH4 0xA9059CBB EQ PUSH2 0x1C7 JUMPI DUP1 PUSH4 0xDD62ED3E EQ PUSH2 0x1F7 JUMPI PUSH2 0x9E JUMP JUMPDEST DUP1 PUSH4 0x6FDDE03 EQ PUSH2 0xA3 JUMPI DUP1 PUSH4 0x95EA7B3 EQ PUSH2 0xC1 JUMPI DUP1 PUSH4 0x18160DDD EQ PUSH2 0xF1 JUMPI DUP1 PUSH4 0x1D43CC98 EQ PUSH2 0x10F JUMPI DUP1 PUSH4 0x23B872DD EQ PUSH2 0x12B JUMPI JUMPDEST PUSH1 0x0 DUP1 REVERT JUMPDEST PUSH2 0xAB PUSH2 0x227 JUMP JUMPDEST PUSH1 0x40 MLOAD PUSH2 0xB8 SWAP2 SWAP1 PUSH2 0xC62 JUMP JUMPDEST PUSH1 0x40 MLOAD DUP1 SWAP2 SUB SWAP1 RETURN JUMPDEST PUSH2 0xDB PUSH1 0x4 DUP1 CALLDATASIZE SUB DUP2 ADD SWAP1 PUSH2 0xD6 SWAP2 SWAP1 PUSH2 0xB74 JUMP JUMPDEST PUSH2 0x260 JUMP JUMPDEST PUSH1 0x40 MLOAD PUSH2 0xE8 SWAP2 SWAP1 PUSH2 0xC47 JUMP JUMPDEST PUSH1 0x40 MLOAD DUP1 SWAP2 SUB SWAP1 RETURN JUMPDEST PUSH2 0xF9 PUSH2 0x352 JUMP JUMPDEST PUSH1 0x40 MLOAD PUSH2 0x106 SWAP2 SWAP1 PUSH2 0xC84 JUMP JUMPDEST PUSH1 0x40 MLOAD DUP1 SWAP2 SUB SWAP1 RETURN JUMPDEST PUSH2 0x129 PUSH1 0x4 DUP1 CALLDATASIZE SUB DUP2 ADD SWAP1 PUSH2 0x124 SWAP2 SWAP1 PUSH2 0xBB4 JUMP JUMPDEST PUSH2 0x35C JUMP JUMPDEST STOP JUMPDEST PUSH2 0x145 PUSH1 0x4 DUP1 CALLDATASIZE SUB DUP2 ADD SWAP1 PUSH2 0x140 SWAP2 SWAP1 PUSH2 0xB21 JUMP JUMPDEST PUSH2 0x3CD JUMP JUMPDEST PUSH1 0x40 MLOAD PUSH2 0x152 SWAP2 SWAP1 PUSH2 0xC47 JUMP JUMPDEST PUSH1 0x40 MLOAD DUP1 SWAP2 SUB SWAP1 RETURN JUMPDEST PUSH2 0x163 PUSH2 0x748 JUMP JUMPDEST PUSH1 0x40 MLOAD PUSH2 0x170 SWAP2 SWAP1 PUSH2 0xC9F JUMP JUMPDEST PUSH1 0x40 MLOAD DUP1 SWAP2 SUB SWAP1 RETURN JUMPDEST PUSH2 0x193 PUSH1 0x4 DUP1 CALLDATASIZE SUB DUP2 ADD SWAP1 PUSH2 0x18E SWAP2 SWAP1 PUSH2 0xAB4 JUMP JUMPDEST PUSH2 0x74D JUMP JUMPDEST PUSH1 0x40 MLOAD PUSH2 0x1A0 SWAP2 SWAP1 PUSH2 0xC84 JUMP JUMPDEST PUSH1 0x40 MLOAD DUP1 SWAP2 SUB SWAP1 RETURN JUMPDEST PUSH2 0x1B1 PUSH2 0x795 JUMP JUMPDEST PUSH1 0x40 MLOAD PUSH2 0x1BE SWAP2 SWAP1 PUSH2 0xC62 JUMP JUMPDEST PUSH1 0x40 MLOAD DUP1 SWAP2 SUB SWAP1 RETURN JUMPDEST PUSH2 0x1E1 PUSH1 0x4 DUP1 CALLDATASIZE SUB DUP2 ADD SWAP1 PUSH2 0x1DC SWAP2 SWAP1 PUSH2 0xB74 JUMP JUMPDEST PUSH2 0x7CE JUMP JUMPDEST PUSH1 0x40 MLOAD PUSH2 0x1EE SWAP2 SWAP1 PUSH2 0xC47 JUMP JUMPDEST PUSH1 0x40 MLOAD DUP1 SWAP2 SUB SWAP1 RETURN JUMPDEST PUSH2 0x211 PUSH1 0x4 DUP1 CALLDATASIZE SUB DUP2 ADD SWAP1 PUSH2 0x20C SWAP2 SWAP1 PUSH2 0xAE1 JUMP JUMPDEST PUSH2 0x9B0 JUMP JUMPDEST PUSH1 0x40 MLOAD PUSH2 0x21E SWAP2 SWAP1 PUSH2 0xC84 JUMP JUMPDEST PUSH1 0x40 MLOAD DUP1 SWAP2 SUB SWAP1 RETURN JUMPDEST PUSH1 0x40 MLOAD DUP1 PUSH1 0x40 ADD PUSH1 0x40 MSTORE DUP1 PUSH1 0x11 DUP2 MSTORE PUSH1 0x20 ADD PUSH32 0x4552433230426C6F636B636861696E415A000000000000000000000000000000 DUP2 MSTORE POP DUP2 JUMP JUMPDEST PUSH1 0x0 DUP2 PUSH1 0x1 PUSH1 0x0 CALLER PUSH20 0xFFFFFFFFFFFFFFFFFFFFFFFFFFFFFFFFFFFFFFFF AND PUSH20 0xFFFFFFFFFFFFFFFFFFFFFFFFFFFFFFFFFFFFFFFF AND DUP2 MSTORE PUSH1 0x20 ADD SWAP1 DUP2 MSTORE PUSH1 0x20 ADD PUSH1 0x0 KECCAK256 PUSH1 0x0 DUP6 PUSH20 0xFFFFFFFFFFFFFFFFFFFFFFFFFFFFFFFFFFFFFFFF AND PUSH20 0xFFFFFFFFFFFFFFFFFFFFFFFFFFFFFFFFFFFFFFFF AND DUP2 MSTORE PUSH1 0x20 ADD SWAP1 DUP2 MSTORE PUSH1 0x20 ADD PUSH1 0x0 KECCAK256 DUP2 SWAP1 SSTORE POP DUP3 PUSH20 0xFFFFFFFFFFFFFFFFFFFFFFFFFFFFFFFFFFFFFFFF AND CALLER PUSH20 0xFFFFFFFFFFFFFFFFFFFFFFFFFFFFFFFFFFFFFFFF AND PUSH32 0x8C5BE1E5EBEC7D5BD14F71427D1E84F3DD0314C0F7B2291E5B200AC8C7C3B925 DUP5 PUSH1 0x40 MLOAD PUSH2 0x340 SWAP2 SWAP1 PUSH2 0xC84 JUMP JUMPDEST PUSH1 0x40 MLOAD DUP1 SWAP2 SUB SWAP1 LOG3 PUSH1 0x1 SWAP1 POP SWAP3 SWAP2 POP POP JUMP JUMPDEST PUSH1 0x0 PUSH1 0x2 SLOAD SWAP1 POP SWAP1 JUMP JUMPDEST DUP1 PUSH1 0x2 PUSH1 0x0 DUP3 DUP3 SLOAD PUSH2 0x36E SWAP2 SWAP1 PUSH2 0xCD6 JUMP JUMPDEST SWAP3 POP POP DUP2 SWAP1 SSTORE POP DUP1 PUSH1 0x0 DUP1 CALLER PUSH20 0xFFFFFFFFFFFFFFFFFFFFFFFFFFFFFFFFFFFFFFFF AND PUSH20 0xFFFFFFFFFFFFFFFFFFFFFFFFFFFFFFFFFFFFFFFF AND DUP2 MSTORE PUSH1 0x20 ADD SWAP1 DUP2 MSTORE PUSH1 0x20 ADD PUSH1 0x0 KECCAK256 PUSH1 0x0 DUP3 DUP3 SLOAD PUSH2 0x3C3 SWAP2 SWAP1 PUSH2 0xCD6 JUMP JUMPDEST SWAP3 POP POP DUP2 SWAP1 SSTORE POP POP JUMP JUMPDEST PUSH1 0x0 DUP1 PUSH1 0x0 DUP6 PUSH20 0xFFFFFFFFFFFFFFFFFFFFFFFFFFFFFFFFFFFFFFFF AND PUSH20 0xFFFFFFFFFFFFFFFFFFFFFFFFFFFFFFFFFFFFFFFF AND DUP2 MSTORE PUSH1 0x20 ADD SWAP1 DUP2 MSTORE PUSH1 0x20 ADD PUSH1 0x0 KECCAK256 SLOAD DUP3 GT ISZERO PUSH2 0x41A JUMPI PUSH1 0x0 DUP1 REVERT JUMPDEST PUSH1 0x1 PUSH1 0x0 DUP6 PUSH20 0xFFFFFFFFFFFFFFFFFFFFFFFFFFFFFFFFFFFFFFFF AND PUSH20 0xFFFFFFFFFFFFFFFFFFFFFFFFFFFFFFFFFFFFFFFF AND DUP2 MSTORE PUSH1 0x20 ADD SWAP1 DUP2 MSTORE PUSH1 0x20 ADD PUSH1 0x0 KECCAK256 PUSH1 0x0 CALLER PUSH20 0xFFFFFFFFFFFFFFFFFFFFFFFFFFFFFFFFFFFFFFFF AND PUSH20 0xFFFFFFFFFFFFFFFFFFFFFFFFFFFFFFFFFFFFFFFF AND DUP2 MSTORE PUSH1 0x20 ADD SWAP1 DUP2 MSTORE PUSH1 0x20 ADD PUSH1 0x0 KECCAK256 SLOAD DUP3 GT ISZERO PUSH2 0x4A3 JUMPI PUSH1 0x0 DUP1 REVERT JUMPDEST PUSH2 0x4F4 DUP3 PUSH1 0x0 DUP1 DUP8 PUSH20 0xFFFFFFFFFFFFFFFFFFFFFFFFFFFFFFFFFFFFFFFF AND PUSH20 0xFFFFFFFFFFFFFFFFFFFFFFFFFFFFFFFFFFFFFFFF AND DUP2 MSTORE PUSH1 0x20 ADD SWAP1 DUP2 MSTORE PUSH1 0x20 ADD PUSH1 0x0 KECCAK256 SLOAD PUSH2 0xA37 SWAP1 SWAP2 SWAP1 PUSH4 0xFFFFFFFF AND JUMP JUMPDEST PUSH1 0x0 DUP1 DUP7 PUSH20 0xFFFFFFFFFFFFFFFFFFFFFFFFFFFFFFFFFFFFFFFF AND PUSH20 0xFFFFFFFFFFFFFFFFFFFFFFFFFFFFFFFFFFFFFFFF AND DUP2 MSTORE PUSH1 0x20 ADD SWAP1 DUP2 MSTORE PUSH1 0x20 ADD PUSH1 0x0 KECCAK256 DUP2 SWAP1 SSTORE POP PUSH2 0x5C5 DUP3 PUSH1 0x1 PUSH1 0x0 DUP8 PUSH20 0xFFFFFFFFFFFFFFFFFFFFFFFFFFFFFFFFFFFFFFFF AND PUSH20 0xFFFFFFFFFFFFFFFFFFFFFFFFFFFFFFFFFFFFFFFF AND DUP2 MSTORE PUSH1 0x20 ADD SWAP1 DUP2 MSTORE PUSH1 0x20 ADD PUSH1 0x0 KECCAK256 PUSH1 0x0 CALLER PUSH20 0xFFFFFFFFFFFFFFFFFFFFFFFFFFFFFFFFFFFFFFFF AND PUSH20 0xFFFFFFFFFFFFFFFFFFFFFFFFFFFFFFFFFFFFFFFF AND DUP2 MSTORE PUSH1 0x20 ADD SWAP1 DUP2 MSTORE PUSH1 0x20 ADD PUSH1 0x0 KECCAK256 SLOAD PUSH2 0xA37 SWAP1 SWAP2 SWAP1 PUSH4 0xFFFFFFFF AND JUMP JUMPDEST PUSH1 0x1 PUSH1 0x0 DUP7 PUSH20 0xFFFFFFFFFFFFFFFFFFFFFFFFFFFFFFFFFFFFFFFF AND PUSH20 0xFFFFFFFFFFFFFFFFFFFFFFFFFFFFFFFFFFFFFFFF AND DUP2 MSTORE PUSH1 0x20 ADD SWAP1 DUP2 MSTORE PUSH1 0x20 ADD PUSH1 0x0 KECCAK256 PUSH1 0x0 CALLER PUSH20 0xFFFFFFFFFFFFFFFFFFFFFFFFFFFFFFFFFFFFFFFF AND PUSH20 0xFFFFFFFFFFFFFFFFFFFFFFFFFFFFFFFFFFFFFFFF AND DUP2 MSTORE PUSH1 0x20 ADD SWAP1 DUP2 MSTORE PUSH1 0x20 ADD PUSH1 0x0 KECCAK256 DUP2 SWAP1 SSTORE POP PUSH2 0x696 DUP3 PUSH1 0x0 DUP1 DUP7 PUSH20 0xFFFFFFFFFFFFFFFFFFFFFFFFFFFFFFFFFFFFFFFF AND PUSH20 0xFFFFFFFFFFFFFFFFFFFFFFFFFFFFFFFFFFFFFFFF AND DUP2 MSTORE PUSH1 0x20 ADD SWAP1 DUP2 MSTORE PUSH1 0x20 ADD PUSH1 0x0 KECCAK256 SLOAD PUSH2 0xA5E SWAP1 SWAP2 SWAP1 PUSH4 0xFFFFFFFF AND JUMP JUMPDEST PUSH1 0x0 DUP1 DUP6 PUSH20 0xFFFFFFFFFFFFFFFFFFFFFFFFFFFFFFFFFFFFFFFF AND PUSH20 0xFFFFFFFFFFFFFFFFFFFFFFFFFFFFFFFFFFFFFFFF AND DUP2 MSTORE PUSH1 0x20 ADD SWAP1 DUP2 MSTORE PUSH1 0x20 ADD PUSH1 0x0 KECCAK256 DUP2 SWAP1 SSTORE POP DUP3 PUSH20 0xFFFFFFFFFFFFFFFFFFFFFFFFFFFFFFFFFFFFFFFF AND DUP5 PUSH20 0xFFFFFFFFFFFFFFFFFFFFFFFFFFFFFFFFFFFFFFFF AND PUSH32 0xDDF252AD1BE2C89B69C2B068FC378DAA952BA7F163C4A11628F55A4DF523B3EF DUP5 PUSH1 0x40 MLOAD PUSH2 0x735 SWAP2 SWAP1 PUSH2 0xC84 JUMP JUMPDEST PUSH1 0x40 MLOAD DUP1 SWAP2 SUB SWAP1 LOG3 PUSH1 0x1 SWAP1 POP SWAP4 SWAP3 POP POP POP JUMP JUMPDEST PUSH1 0x2 DUP2 JUMP JUMPDEST PUSH1 0x0 DUP1 PUSH1 0x0 DUP4 PUSH20 0xFFFFFFFFFFFFFFFFFFFFFFFFFFFFFFFFFFFFFFFF AND PUSH20 0xFFFFFFFFFFFFFFFFFFFFFFFFFFFFFFFFFFFFFFFF AND DUP2 MSTORE PUSH1 0x20 ADD SWAP1 DUP2 MSTORE PUSH1 0x20 ADD PUSH1 0x0 KECCAK256 SLOAD SWAP1 POP SWAP2 SWAP1 POP JUMP JUMPDEST PUSH1 0x40 MLOAD DUP1 PUSH1 0x40 ADD PUSH1 0x40 MSTORE DUP1 PUSH1 0x3 DUP2 MSTORE PUSH1 0x20 ADD PUSH32 0x4552430000000000000000000000000000000000000000000000000000000000 DUP2 MSTORE POP DUP2 JUMP JUMPDEST PUSH1 0x0 DUP1 PUSH1 0x0 CALLER PUSH20 0xFFFFFFFFFFFFFFFFFFFFFFFFFFFFFFFFFFFFFFFF AND PUSH20 0xFFFFFFFFFFFFFFFFFFFFFFFFFFFFFFFFFFFFFFFF AND DUP2 MSTORE PUSH1 0x20 ADD SWAP1 DUP2 MSTORE PUSH1 0x20 ADD PUSH1 0x0 KECCAK256 SLOAD DUP3 GT ISZERO PUSH2 0x81B JUMPI PUSH1 0x0 DUP1 REVERT JUMPDEST PUSH2 0x86C DUP3 PUSH1 0x0 DUP1 CALLER PUSH20 0xFFFFFFFFFFFFFFFFFFFFFFFFFFFFFFFFFFFFFFFF AND PUSH20 0xFFFFFFFFFFFFFFFFFFFFFFFFFFFFFFFFFFFFFFFF AND DUP2 MSTORE PUSH1 0x20 ADD SWAP1 DUP2 MSTORE PUSH1 0x20 ADD PUSH1 0x0 KECCAK256 SLOAD PUSH2 0xA37 SWAP1 SWAP2 SWAP1 PUSH4 0xFFFFFFFF AND JUMP JUMPDEST PUSH1 0x0 DUP1 CALLER PUSH20 0xFFFFFFFFFFFFFFFFFFFFFFFFFFFFFFFFFFFFFFFF AND PUSH20 0xFFFFFFFFFFFFFFFFFFFFFFFFFFFFFFFFFFFFFFFF AND DUP2 MSTORE PUSH1 0x20 ADD SWAP1 DUP2 MSTORE PUSH1 0x20 ADD PUSH1 0x0 KECCAK256 DUP2 SWAP1 SSTORE POP PUSH2 0x8FF DUP3 PUSH1 0x0 DUP1 DUP7 PUSH20 0xFFFFFFFFFFFFFFFFFFFFFFFFFFFFFFFFFFFFFFFF AND PUSH20 0xFFFFFFFFFFFFFFFFFFFFFFFFFFFFFFFFFFFFFFFF AND DUP2 MSTORE PUSH1 0x20 ADD SWAP1 DUP2 MSTORE PUSH1 0x20 ADD PUSH1 0x0 KECCAK256 SLOAD PUSH2 0xA5E SWAP1 SWAP2 SWAP1 PUSH4 0xFFFFFFFF AND JUMP JUMPDEST PUSH1 0x0 DUP1 DUP6 PUSH20 0xFFFFFFFFFFFFFFFFFFFFFFFFFFFFFFFFFFFFFFFF AND PUSH20 0xFFFFFFFFFFFFFFFFFFFFFFFFFFFFFFFFFFFFFFFF AND DUP2 MSTORE PUSH1 0x20 ADD SWAP1 DUP2 MSTORE PUSH1 0x20 ADD PUSH1 0x0 KECCAK256 DUP2 SWAP1 SSTORE POP DUP3 PUSH20 0xFFFFFFFFFFFFFFFFFFFFFFFFFFFFFFFFFFFFFFFF AND CALLER PUSH20 0xFFFFFFFFFFFFFFFFFFFFFFFFFFFFFFFFFFFFFFFF AND PUSH32 0xDDF252AD1BE2C89B69C2B068FC378DAA952BA7F163C4A11628F55A4DF523B3EF DUP5 PUSH1 0x40 MLOAD PUSH2 0x99E SWAP2 SWAP1 PUSH2 0xC84 JUMP JUMPDEST PUSH1 0x40 MLOAD DUP1 SWAP2 SUB SWAP1 LOG3 PUSH1 0x1 SWAP1 POP SWAP3 SWAP2 POP POP JUMP JUMPDEST PUSH1 0x0 PUSH1 0x1 PUSH1 0x0 DUP5 PUSH20 0xFFFFFFFFFFFFFFFFFFFFFFFFFFFFFFFFFFFFFFFF AND PUSH20 0xFFFFFFFFFFFFFFFFFFFFFFFFFFFFFFFFFFFFFFFF AND DUP2 MSTORE PUSH1 0x20 ADD SWAP1 DUP2 MSTORE PUSH1 0x20 ADD PUSH1 0x0 KECCAK256 PUSH1 0x0 DUP4 PUSH20 0xFFFFFFFFFFFFFFFFFFFFFFFFFFFFFFFFFFFFFFFF AND PUSH20 0xFFFFFFFFFFFFFFFFFFFFFFFFFFFFFFFFFFFFFFFF AND DUP2 MSTORE PUSH1 0x20 ADD SWAP1 DUP2 MSTORE PUSH1 0x20 ADD PUSH1 0x0 KECCAK256 SLOAD SWAP1 POP SWAP3 SWAP2 POP POP JUMP JUMPDEST PUSH1 0x0 DUP3 DUP3 GT ISZERO PUSH2 0xA4A JUMPI PUSH2 0xA49 PUSH2 0xDE8 JUMP JUMPDEST JUMPDEST DUP2 DUP4 PUSH2 0xA56 SWAP2 SWAP1 PUSH2 0xD2C JUMP JUMPDEST SWAP1 POP SWAP3 SWAP2 POP POP JUMP JUMPDEST PUSH1 0x0 DUP1 DUP3 DUP5 PUSH2 0xA6D SWAP2 SWAP1 PUSH2 0xCD6 JUMP JUMPDEST SWAP1 POP DUP4 DUP2 LT ISZERO PUSH2 0xA80 JUMPI PUSH2 0xA7F PUSH2 0xDE8 JUMP JUMPDEST JUMPDEST DUP1 SWAP2 POP POP SWAP3 SWAP2 POP POP JUMP JUMPDEST PUSH1 0x0 DUP2 CALLDATALOAD SWAP1 POP PUSH2 0xA99 DUP2 PUSH2 0xE5C JUMP JUMPDEST SWAP3 SWAP2 POP POP JUMP JUMPDEST PUSH1 0x0 DUP2 CALLDATALOAD SWAP1 POP PUSH2 0xAAE DUP2 PUSH2 0xE73 JUMP JUMPDEST SWAP3 SWAP2 POP POP JUMP JUMPDEST PUSH1 0x0 PUSH1 0x20 DUP3 DUP5 SUB SLT ISZERO PUSH2 0xACA JUMPI PUSH2 0xAC9 PUSH2 0xE46 JUMP JUMPDEST JUMPDEST PUSH1 0x0 PUSH2 0xAD8 DUP5 DUP3 DUP6 ADD PUSH2 0xA8A JUMP JUMPDEST SWAP2 POP POP SWAP3 SWAP2 POP POP JUMP JUMPDEST PUSH1 0x0 DUP1 PUSH1 0x40 DUP4 DUP6 SUB SLT ISZERO PUSH2 0xAF8 JUMPI PUSH2 0xAF7 PUSH2 0xE46 JUMP JUMPDEST JUMPDEST PUSH1 0x0 PUSH2 0xB06 DUP6 DUP3 DUP7 ADD PUSH2 0xA8A JUMP JUMPDEST SWAP3 POP POP PUSH1 0x20 PUSH2 0xB17 DUP6 DUP3 DUP7 ADD PUSH2 0xA8A JUMP JUMPDEST SWAP2 POP POP SWAP3 POP SWAP3 SWAP1 POP JUMP JUMPDEST PUSH1 0x0 DUP1 PUSH1 0x0 PUSH1 0x60 DUP5 DUP7 SUB SLT ISZERO PUSH2 0xB3A JUMPI PUSH2 0xB39 PUSH2 0xE46 JUMP JUMPDEST JUMPDEST PUSH1 0x0 PUSH2 0xB48 DUP7 DUP3 DUP8 ADD PUSH2 0xA8A JUMP JUMPDEST SWAP4 POP POP PUSH1 0x20 PUSH2 0xB59 DUP7 DUP3 DUP8 ADD PUSH2 0xA8A JUMP JUMPDEST SWAP3 POP POP PUSH1 0x40 PUSH2 0xB6A DUP7 DUP3 DUP8 ADD PUSH2 0xA9F JUMP JUMPDEST SWAP2 POP POP SWAP3 POP SWAP3 POP SWAP3 JUMP JUMPDEST PUSH1 0x0 DUP1 PUSH1 0x40 DUP4 DUP6 SUB SLT ISZERO PUSH2 0xB8B JUMPI PUSH2 0xB8A PUSH2 0xE46 JUMP JUMPDEST JUMPDEST PUSH1 0x0 PUSH2 0xB99 DUP6 DUP3 DUP7 ADD PUSH2 0xA8A JUMP JUMPDEST SWAP3 POP POP PUSH1 0x20 PUSH2 0xBAA DUP6 DUP3 DUP7 ADD PUSH2 0xA9F JUMP JUMPDEST SWAP2 POP POP SWAP3 POP SWAP3 SWAP1 POP JUMP JUMPDEST PUSH1 0x0 PUSH1 0x20 DUP3 DUP5 SUB SLT ISZERO PUSH2 0xBCA JUMPI PUSH2 0xBC9 PUSH2 0xE46 JUMP JUMPDEST JUMPDEST PUSH1 0x0 PUSH2 0xBD8 DUP5 DUP3 DUP6 ADD PUSH2 0xA9F JUMP JUMPDEST SWAP2 POP POP SWAP3 SWAP2 POP POP JUMP JUMPDEST PUSH2 0xBEA DUP2 PUSH2 0xD72 JUMP JUMPDEST DUP3 MSTORE POP POP JUMP JUMPDEST PUSH1 0x0 PUSH2 0xBFB DUP3 PUSH2 0xCBA JUMP JUMPDEST PUSH2 0xC05 DUP2 DUP6 PUSH2 0xCC5 JUMP JUMPDEST SWAP4 POP PUSH2 0xC15 DUP2 DUP6 PUSH1 0x20 DUP7 ADD PUSH2 0xDB5 JUMP JUMPDEST PUSH2 0xC1E DUP2 PUSH2 0xE4B JUMP JUMPDEST DUP5 ADD SWAP2 POP POP SWAP3 SWAP2 POP POP JUMP JUMPDEST PUSH2 0xC32 DUP2 PUSH2 0xD9E JUMP JUMPDEST DUP3 MSTORE POP POP JUMP JUMPDEST PUSH2 0xC41 DUP2 PUSH2 0xDA8 JUMP JUMPDEST DUP3 MSTORE POP POP JUMP JUMPDEST PUSH1 0x0 PUSH1 0x20 DUP3 ADD SWAP1 POP PUSH2 0xC5C PUSH1 0x0 DUP4 ADD DUP5 PUSH2 0xBE1 JUMP JUMPDEST SWAP3 SWAP2 POP POP JUMP JUMPDEST PUSH1 0x0 PUSH1 0x20 DUP3 ADD SWAP1 POP DUP2 DUP2 SUB PUSH1 0x0 DUP4 ADD MSTORE PUSH2 0xC7C DUP2 DUP5 PUSH2 0xBF0 JUMP JUMPDEST SWAP1 POP SWAP3 SWAP2 POP POP JUMP JUMPDEST PUSH1 0x0 PUSH1 0x20 DUP3 ADD SWAP1 POP PUSH2 0xC99 PUSH1 0x0 DUP4 ADD DUP5 PUSH2 0xC29 JUMP JUMPDEST SWAP3 SWAP2 POP POP JUMP JUMPDEST PUSH1 0x0 PUSH1 0x20 DUP3 ADD SWAP1 POP PUSH2 0xCB4 PUSH1 0x0 DUP4 ADD DUP5 PUSH2 0xC38 JUMP JUMPDEST SWAP3 SWAP2 POP POP JUMP JUMPDEST PUSH1 0x0 DUP2 MLOAD SWAP1 POP SWAP2 SWAP1 POP JUMP JUMPDEST PUSH1 0x0 DUP3 DUP3 MSTORE PUSH1 0x20 DUP3 ADD SWAP1 POP SWAP3 SWAP2 POP POP JUMP JUMPDEST PUSH1 0x0 PUSH2 0xCE1 DUP3 PUSH2 0xD9E JUMP JUMPDEST SWAP2 POP PUSH2 0xCEC DUP4 PUSH2 0xD9E JUMP JUMPDEST SWAP3 POP DUP3 PUSH32 0xFFFFFFFFFFFFFFFFFFFFFFFFFFFFFFFFFFFFFFFFFFFFFFFFFFFFFFFFFFFFFFFF SUB DUP3 GT ISZERO PUSH2 0xD21 JUMPI PUSH2 0xD20 PUSH2 0xE17 JUMP JUMPDEST JUMPDEST DUP3 DUP3 ADD SWAP1 POP SWAP3 SWAP2 POP POP JUMP JUMPDEST PUSH1 0x0 PUSH2 0xD37 DUP3 PUSH2 0xD9E JUMP JUMPDEST SWAP2 POP PUSH2 0xD42 DUP4 PUSH2 0xD9E JUMP JUMPDEST SWAP3 POP DUP3 DUP3 LT ISZERO PUSH2 0xD55 JUMPI PUSH2 0xD54 PUSH2 0xE17 JUMP JUMPDEST JUMPDEST DUP3 DUP3 SUB SWAP1 POP SWAP3 SWAP2 POP POP JUMP JUMPDEST PUSH1 0x0 PUSH2 0xD6B DUP3 PUSH2 0xD7E JUMP JUMPDEST SWAP1 POP SWAP2 SWAP1 POP JUMP JUMPDEST PUSH1 0x0 DUP2 ISZERO ISZERO SWAP1 POP SWAP2 SWAP1 POP JUMP JUMPDEST PUSH1 0x0 PUSH20 0xFFFFFFFFFFFFFFFFFFFFFFFFFFFFFFFFFFFFFFFF DUP3 AND SWAP1 POP SWAP2 SWAP1 POP JUMP JUMPDEST PUSH1 0x0 DUP2 SWAP1 POP SWAP2 SWAP1 POP JUMP JUMPDEST PUSH1 0x0 PUSH1 0xFF DUP3 AND SWAP1 POP SWAP2 SWAP1 POP JUMP JUMPDEST PUSH1 0x0 JUMPDEST DUP4 DUP2 LT ISZERO PUSH2 0xDD3 JUMPI DUP1 DUP3 ADD MLOAD DUP2 DUP5 ADD MSTORE PUSH1 0x20 DUP2 ADD SWAP1 POP PUSH2 0xDB8 JUMP JUMPDEST DUP4 DUP2 GT ISZERO PUSH2 0xDE2 JUMPI PUSH1 0x0 DUP5 DUP5 ADD MSTORE JUMPDEST POP POP POP POP JUMP JUMPDEST PUSH32 0x4E487B7100000000000000000000000000000000000000000000000000000000 PUSH1 0x0 MSTORE PUSH1 0x1 PUSH1 0x4 MSTORE PUSH1 0x24 PUSH1 0x0 REVERT JUMPDEST PUSH32 0x4E487B7100000000000000000000000000000000000000000000000000000000 PUSH1 0x0 MSTORE PUSH1 0x11 PUSH1 0x4 MSTORE PUSH1 0x24 PUSH1 0x0 REVERT JUMPDEST PUSH1 0x0 DUP1 REVERT JUMPDEST PUSH1 0x0 PUSH1 0x1F NOT PUSH1 0x1F DUP4 ADD AND SWAP1 POP SWAP2 SWAP1 POP JUMP JUMPDEST PUSH2 0xE65 DUP2 PUSH2 0xD60 JUMP JUMPDEST DUP2 EQ PUSH2 0xE70 JUMPI PUSH1 0x0 DUP1 REVERT JUMPDEST POP JUMP JUMPDEST PUSH2 0xE7C DUP2 PUSH2 0xD9E JUMP JUMPDEST DUP2 EQ PUSH2 0xE87 JUMPI PUSH1 0x0 DUP1 REVERT JUMPDEST POP JUMP INVALID LOG2 PUSH5 0x6970667358 0x22 SLT KECCAK256 CODESIZE 0xB3 0xB6 0x29 0x22 0xF PUSH28 0xB9B58ABD7142DA7E1995C26E1FA1CE23BECE24CCE293B055DC64736F PUSH13 0x63430008070033000000000000 "
				},
				"gasEstimates": {
					"creation": {
						"codeDepositCost": "1028200",
						"executionCost": "infinite",
						"totalCost": "infinite"
					},
					"external": {
						"BajaAtraccion(string)": "infinite",
						"Clientes(address)": "2894",
						"CompraToken(uint256)": "infinite",
						"GeneraToken(uint256)": "infinite",
						"MappingAtracciones(string)": "infinite",
						"MisToken()": "infinite",
						"NuevaAtraccion(string,uint256)": "infinite",
						"balanceOf()": "infinite",
						"owner()": "2581"
					},
					"internal": {
						"PrecioToken(uint256)": "infinite"
					}
				},
				"methodIdentifiers": {
					"BajaAtraccion(string)": "c66dca40",
					"Clientes(address)": "ce8f2f38",
					"CompraToken(uint256)": "48ba0838",
					"GeneraToken(uint256)": "ba2d17fe",
					"MappingAtracciones(string)": "d00df296",
					"MisToken()": "ce6dd8c4",
					"NuevaAtraccion(string,uint256)": "2076b56c",
					"balanceOf()": "722713f7",
					"owner()": "8da5cb5b"
				}
			},
			"storageLayout": {
				"storage": [
					{
						"astId": 420,
						"contract": "Dinsey/dinsey.sol:Dinsey",
						"label": "token",
						"offset": 0,
						"slot": "0",
						"type": "t_contract(ERC20Basic)331"
					},
					{
						"astId": 422,
						"contract": "Dinsey/dinsey.sol:Dinsey",
						"label": "owner",
						"offset": 0,
						"slot": "1",
						"type": "t_address_payable"
					},
					{
						"astId": 453,
						"contract": "Dinsey/dinsey.sol:Dinsey",
						"label": "Clientes",
						"offset": 0,
						"slot": "2",
						"type": "t_mapping(t_address,t_struct(cliente)448_storage)"
					},
					{
						"astId": 611,
						"contract": "Dinsey/dinsey.sol:Dinsey",
						"label": "MappingAtracciones",
						"offset": 0,
						"slot": "3",
						"type": "t_mapping(t_string_memory_ptr,t_struct(atraccion)606_storage)"
					},
					{
						"astId": 614,
						"contract": "Dinsey/dinsey.sol:Dinsey",
						"label": "Atracciones",
						"offset": 0,
						"slot": "4",
						"type": "t_array(t_string_storage)dyn_storage"
					},
					{
						"astId": 619,
						"contract": "Dinsey/dinsey.sol:Dinsey",
						"label": "HistorialAtracciones",
						"offset": 0,
						"slot": "5",
						"type": "t_mapping(t_address,t_array(t_string_storage)dyn_storage)"
					}
				],
				"types": {
					"t_address": {
						"encoding": "inplace",
						"label": "address",
						"numberOfBytes": "20"
					},
					"t_address_payable": {
						"encoding": "inplace",
						"label": "address payable",
						"numberOfBytes": "20"
					},
					"t_array(t_string_storage)dyn_storage": {
						"base": "t_string_storage",
						"encoding": "dynamic_array",
						"label": "string[]",
						"numberOfBytes": "32"
					},
					"t_bool": {
						"encoding": "inplace",
						"label": "bool",
						"numberOfBytes": "1"
					},
					"t_contract(ERC20Basic)331": {
						"encoding": "inplace",
						"label": "contract ERC20Basic",
						"numberOfBytes": "20"
					},
					"t_mapping(t_address,t_array(t_string_storage)dyn_storage)": {
						"encoding": "mapping",
						"key": "t_address",
						"label": "mapping(address => string[])",
						"numberOfBytes": "32",
						"value": "t_array(t_string_storage)dyn_storage"
					},
					"t_mapping(t_address,t_struct(cliente)448_storage)": {
						"encoding": "mapping",
						"key": "t_address",
						"label": "mapping(address => struct Dinsey.cliente)",
						"numberOfBytes": "32",
						"value": "t_struct(cliente)448_storage"
					},
					"t_mapping(t_string_memory_ptr,t_struct(atraccion)606_storage)": {
						"encoding": "mapping",
						"key": "t_string_memory_ptr",
						"label": "mapping(string => struct Dinsey.atraccion)",
						"numberOfBytes": "32",
						"value": "t_struct(atraccion)606_storage"
					},
					"t_string_memory_ptr": {
						"encoding": "bytes",
						"label": "string",
						"numberOfBytes": "32"
					},
					"t_string_storage": {
						"encoding": "bytes",
						"label": "string",
						"numberOfBytes": "32"
					},
					"t_struct(atraccion)606_storage": {
						"encoding": "inplace",
						"label": "struct Dinsey.atraccion",
						"members": [
							{
								"astId": 601,
								"contract": "Dinsey/dinsey.sol:Dinsey",
								"label": "nombre_atraccion",
								"offset": 0,
								"slot": "0",
								"type": "t_string_storage"
							},
							{
								"astId": 603,
								"contract": "Dinsey/dinsey.sol:Dinsey",
								"label": "precio_atraccion",
								"offset": 0,
								"slot": "1",
								"type": "t_uint256"
							},
							{
								"astId": 605,
								"contract": "Dinsey/dinsey.sol:Dinsey",
								"label": "estado_atraccion",
								"offset": 0,
								"slot": "2",
								"type": "t_bool"
							}
						],
						"numberOfBytes": "96"
					},
					"t_struct(cliente)448_storage": {
						"encoding": "inplace",
						"label": "struct Dinsey.cliente",
						"members": [
							{
								"astId": 444,
								"contract": "Dinsey/dinsey.sol:Dinsey",
								"label": "tokens_comprados",
								"offset": 0,
								"slot": "0",
								"type": "t_uint256"
							},
							{
								"astId": 447,
								"contract": "Dinsey/dinsey.sol:Dinsey",
								"label": "atracciones_disfrutadas",
								"offset": 0,
								"slot": "1",
								"type": "t_array(t_string_storage)dyn_storage"
							}
						],
						"numberOfBytes": "64"
					},
					"t_uint256": {
						"encoding": "inplace",
						"label": "uint256",
						"numberOfBytes": "32"
					}
				}
			},
			"userdoc": {
				"kind": "user",
				"methods": {},
				"version": 1
			}
		}
	}
}