{
	"Dinsey/dinsey.sol": {
		"Dinsey": {
			"abi": [
				{
					"inputs": [],
					"stateMutability": "nonpayable",
					"type": "constructor"
				},
				{
					"anonymous": false,
					"inputs": [
						{
							"indexed": false,
							"internalType": "string",
							"name": "",
							"type": "string"
						}
					],
					"name": "baja_atraccion",
					"type": "event"
				},
				{
					"anonymous": false,
					"inputs": [
						{
							"indexed": false,
							"internalType": "string",
							"name": "",
							"type": "string"
						}
					],
					"name": "disfruta_attracciones",
					"type": "event"
				},
				{
					"anonymous": false,
					"inputs": [
						{
							"indexed": false,
							"internalType": "string",
							"name": "",
							"type": "string"
						},
						{
							"indexed": false,
							"internalType": "uint256",
							"name": "",
							"type": "uint256"
						}
					],
					"name": "nueva_atraccion",
					"type": "event"
				},
				{
					"inputs": [],
					"name": "AtraccionesDisponibles",
					"outputs": [
						{
							"internalType": "string[]",
							"name": "",
							"type": "string[]"
						}
					],
					"stateMutability": "view",
					"type": "function"
				},
				{
					"inputs": [
						{
							"internalType": "string",
							"name": "_nombreAtraccion",
							"type": "string"
						}
					],
					"name": "BajaAtraccion",
					"outputs": [],
					"stateMutability": "nonpayable",
					"type": "function"
				},
				{
					"inputs": [
						{
							"internalType": "address",
							"name": "",
							"type": "address"
						}
					],
					"name": "Clientes",
					"outputs": [
						{
							"internalType": "uint256",
							"name": "tokens_comprados",
							"type": "uint256"
						}
					],
					"stateMutability": "view",
					"type": "function"
				},
				{
					"inputs": [
						{
							"internalType": "uint256",
							"name": "_numToken",
							"type": "uint256"
						}
					],
					"name": "CompraToken",
					"outputs": [],
					"stateMutability": "payable",
					"type": "function"
				},
				{
					"inputs": [
						{
							"internalType": "uint256",
							"name": "_numTokens",
							"type": "uint256"
						}
					],
					"name": "GeneraToken",
					"outputs": [],
					"stateMutability": "nonpayable",
					"type": "function"
				},
				{
					"inputs": [
						{
							"internalType": "string",
							"name": "",
							"type": "string"
						}
					],
					"name": "MappingAtracciones",
					"outputs": [
						{
							"internalType": "string",
							"name": "nombre_atraccion",
							"type": "string"
						},
						{
							"internalType": "uint256",
							"name": "precio_atraccion",
							"type": "uint256"
						},
						{
							"internalType": "bool",
							"name": "estado_atraccion",
							"type": "bool"
						}
					],
					"stateMutability": "view",
					"type": "function"
				},
				{
					"inputs": [],
					"name": "MisToken",
					"outputs": [
						{
							"internalType": "uint256",
							"name": "",
							"type": "uint256"
						}
					],
					"stateMutability": "view",
					"type": "function"
				},
				{
					"inputs": [
						{
							"internalType": "string",
							"name": "_nombreAtraccion",
							"type": "string"
						},
						{
							"internalType": "uint256",
							"name": "_precio",
							"type": "uint256"
						}
					],
					"name": "NuevaAtraccion",
					"outputs": [],
					"stateMutability": "nonpayable",
					"type": "function"
				},
				{
					"inputs": [],
					"name": "balanceOf",
					"outputs": [
						{
							"internalType": "uint256",
							"name": "",
							"type": "uint256"
						}
					],
					"stateMutability": "view",
					"type": "function"
				},
				{
					"inputs": [],
					"name": "owner",
					"outputs": [
						{
							"internalType": "address payable",
							"name": "",
							"type": "address"
						}
					],
					"stateMutability": "view",
					"type": "function"
				}
			],
			"devdoc": {
				"kind": "dev",
				"methods": {},
				"version": 1
			},
			"evm": {
				"assembly": "    /* \"Dinsey/dinsey.sol\":126:6013  contract Dinsey{\r... */\n  mstore(0x40, 0x80)\n    /* \"Dinsey/dinsey.sol\":361:469  constructor () public {\r... */\n  callvalue\n  dup1\n  iszero\n  tag_1\n  jumpi\n  0x00\n  dup1\n  revert\ntag_1:\n  pop\n    /* \"Dinsey/dinsey.sol\":417:422  10000 */\n  0x2710\n    /* \"Dinsey/dinsey.sol\":402:423  new ERC20Basic(10000) */\n  mload(0x40)\n  tag_4\n  swap1\n  tag_5\n  jump\t// in\ntag_4:\n  tag_6\n  swap2\n  swap1\n  tag_7\n  jump\t// in\ntag_6:\n  mload(0x40)\n  dup1\n  swap2\n  sub\n  swap1\n  0x00\n  create\n  dup1\n  iszero\n  dup1\n  iszero\n  tag_8\n  jumpi\n  returndatasize\n  0x00\n  dup1\n  returndatacopy\n  revert(0x00, returndatasize)\ntag_8:\n  pop\n    /* \"Dinsey/dinsey.sol\":394:399  token */\n  0x00\n  dup1\n    /* \"Dinsey/dinsey.sol\":394:423  token = new ERC20Basic(10000) */\n  0x0100\n  exp\n  dup2\n  sload\n  dup2\n  0xffffffffffffffffffffffffffffffffffffffff\n  mul\n  not\n  and\n  swap1\n  dup4\n  0xffffffffffffffffffffffffffffffffffffffff\n  and\n  mul\n  or\n  swap1\n  sstore\n  pop\n    /* \"Dinsey/dinsey.sol\":450:460  msg.sender */\n  caller\n    /* \"Dinsey/dinsey.sol\":434:439  owner */\n  0x01\n  0x00\n    /* \"Dinsey/dinsey.sol\":434:461  owner = payable(msg.sender) */\n  0x0100\n  exp\n  dup2\n  sload\n  dup2\n  0xffffffffffffffffffffffffffffffffffffffff\n  mul\n  not\n  and\n  swap1\n  dup4\n  0xffffffffffffffffffffffffffffffffffffffff\n  and\n  mul\n  or\n  swap1\n  sstore\n  pop\n    /* \"Dinsey/dinsey.sol\":126:6013  contract Dinsey{\r... */\n  jump(tag_9)\ntag_5:\n  dataSize(sub_1)\n  dup1\n  dataOffset(sub_1)\n  dup4\n  codecopy\n  add\n  swap1\n  jump\t// out\n    /* \"#utility.yul\":7:162   */\ntag_11:\n    /* \"#utility.yul\":106:155   */\n  tag_13\n    /* \"#utility.yul\":149:154   */\n  dup2\n    /* \"#utility.yul\":106:155   */\n  tag_14\n  jump\t// in\ntag_13:\n    /* \"#utility.yul\":101:104   */\n  dup3\n    /* \"#utility.yul\":94:156   */\n  mstore\n    /* \"#utility.yul\":7:162   */\n  pop\n  pop\n  jump\t// out\n    /* \"#utility.yul\":168:414   */\ntag_7:\n    /* \"#utility.yul\":273:277   */\n  0x00\n    /* \"#utility.yul\":311:313   */\n  0x20\n    /* \"#utility.yul\":300:309   */\n  dup3\n    /* \"#utility.yul\":296:314   */\n  add\n    /* \"#utility.yul\":288:314   */\n  swap1\n  pop\n    /* \"#utility.yul\":324:407   */\n  tag_16\n    /* \"#utility.yul\":404:405   */\n  0x00\n    /* \"#utility.yul\":393:402   */\n  dup4\n    /* \"#utility.yul\":389:406   */\n  add\n    /* \"#utility.yul\":380:386   */\n  dup5\n    /* \"#utility.yul\":324:407   */\n  tag_11\n  jump\t// in\ntag_16:\n    /* \"#utility.yul\":168:414   */\n  swap3\n  swap2\n  pop\n  pop\n  jump\t// out\n    /* \"#utility.yul\":420:497   */\ntag_17:\n    /* \"#utility.yul\":457:464   */\n  0x00\n    /* \"#utility.yul\":486:491   */\n  dup2\n    /* \"#utility.yul\":475:491   */\n  swap1\n  pop\n    /* \"#utility.yul\":420:497   */\n  swap2\n  swap1\n  pop\n  jump\t// out\n    /* \"#utility.yul\":503:628   */\ntag_14:\n    /* \"#utility.yul\":565:574   */\n  0x00\n    /* \"#utility.yul\":598:622   */\n  tag_20\n    /* \"#utility.yul\":616:621   */\n  dup3\n    /* \"#utility.yul\":598:622   */\n  tag_17\n  jump\t// in\ntag_20:\n    /* \"#utility.yul\":585:622   */\n  swap1\n  pop\n    /* \"#utility.yul\":503:628   */\n  swap2\n  swap1\n  pop\n  jump\t// out\n    /* \"Dinsey/dinsey.sol\":126:6013  contract Dinsey{\r... */\ntag_9:\n  dataSize(sub_0)\n  dup1\n  dataOffset(sub_0)\n  0x00\n  codecopy\n  0x00\n  return\nstop\n\nsub_0: assembly {\n        /* \"Dinsey/dinsey.sol\":126:6013  contract Dinsey{\r... */\n      mstore(0x40, 0x80)\n      jumpi(tag_1, lt(calldatasize, 0x04))\n      shr(0xe0, calldataload(0x00))\n      dup1\n      0xba2d17fe\n      gt\n      tag_12\n      jumpi\n      dup1\n      0xba2d17fe\n      eq\n      tag_7\n      jumpi\n      dup1\n      0xc66dca40\n      eq\n      tag_8\n      jumpi\n      dup1\n      0xce6dd8c4\n      eq\n      tag_9\n      jumpi\n      dup1\n      0xce8f2f38\n      eq\n      tag_10\n      jumpi\n      dup1\n      0xd00df296\n      eq\n      tag_11\n      jumpi\n      jump(tag_1)\n    tag_12:\n      dup1\n      0x1fccb33c\n      eq\n      tag_2\n      jumpi\n      dup1\n      0x2076b56c\n      eq\n      tag_3\n      jumpi\n      dup1\n      0x48ba0838\n      eq\n      tag_4\n      jumpi\n      dup1\n      0x722713f7\n      eq\n      tag_5\n      jumpi\n      dup1\n      0x8da5cb5b\n      eq\n      tag_6\n      jumpi\n    tag_1:\n      0x00\n      dup1\n      revert\n        /* \"Dinsey/dinsey.sol\":5426:5534  function AtraccionesDisponibles() public view returns(string [] memory){\r... */\n    tag_2:\n      callvalue\n      dup1\n      iszero\n      tag_13\n      jumpi\n      0x00\n      dup1\n      revert\n    tag_13:\n      pop\n      tag_14\n      tag_15\n      jump\t// in\n    tag_14:\n      mload(0x40)\n      tag_16\n      swap2\n      swap1\n      tag_17\n      jump\t// in\n    tag_16:\n      mload(0x40)\n      dup1\n      swap2\n      sub\n      swap1\n      return\n        /* \"Dinsey/dinsey.sol\":3575:4038  function NuevaAtraccion(string memory _nombreAtraccion, uint _precio) public Unicamente(msg.sender){\r... */\n    tag_3:\n      callvalue\n      dup1\n      iszero\n      tag_18\n      jumpi\n      0x00\n      dup1\n      revert\n    tag_18:\n      pop\n      tag_19\n      0x04\n      dup1\n      calldatasize\n      sub\n      dup2\n      add\n      swap1\n      tag_20\n      swap2\n      swap1\n      tag_21\n      jump\t// in\n    tag_20:\n      tag_22\n      jump\t// in\n    tag_19:\n      stop\n        /* \"Dinsey/dinsey.sol\":1090:1977  function CompraToken(uint _numToken) public payable{\r... */\n    tag_4:\n      tag_23\n      0x04\n      dup1\n      calldatasize\n      sub\n      dup2\n      add\n      swap1\n      tag_24\n      swap2\n      swap1\n      tag_25\n      jump\t// in\n    tag_24:\n      tag_26\n      jump\t// in\n    tag_23:\n      stop\n        /* \"Dinsey/dinsey.sol\":2031:2134  function balanceOf() public view returns (uint){\r... */\n    tag_5:\n      callvalue\n      dup1\n      iszero\n      tag_27\n      jumpi\n      0x00\n      dup1\n      revert\n    tag_27:\n      pop\n      tag_28\n      tag_29\n      jump\t// in\n    tag_28:\n      mload(0x40)\n      tag_30\n      swap2\n      swap1\n      tag_31\n      jump\t// in\n    tag_30:\n      mload(0x40)\n      dup1\n      swap2\n      sub\n      swap1\n      return\n        /* \"Dinsey/dinsey.sol\":324:352  address payable public owner */\n    tag_6:\n      callvalue\n      dup1\n      iszero\n      tag_32\n      jumpi\n      0x00\n      dup1\n      revert\n    tag_32:\n      pop\n      tag_33\n      tag_34\n      jump\t// in\n    tag_33:\n      mload(0x40)\n      tag_35\n      swap2\n      swap1\n      tag_36\n      jump\t// in\n    tag_35:\n      mload(0x40)\n      dup1\n      swap2\n      sub\n      swap1\n      return\n        /* \"Dinsey/dinsey.sol\":2357:2480  function GeneraToken(uint _numTokens) public Unicamente(msg.sender){\r... */\n    tag_7:\n      callvalue\n      dup1\n      iszero\n      tag_37\n      jumpi\n      0x00\n      dup1\n      revert\n    tag_37:\n      pop\n      tag_38\n      0x04\n      dup1\n      calldatasize\n      sub\n      dup2\n      add\n      swap1\n      tag_39\n      swap2\n      swap1\n      tag_25\n      jump\t// in\n    tag_39:\n      tag_40\n      jump\t// in\n    tag_38:\n      stop\n        /* \"Dinsey/dinsey.sol\":4160:4510  function BajaAtraccion(string memory _nombreAtraccion) public Unicamente(msg.sender) AtraccionCorrecta(_nombreAtraccion){\r... */\n    tag_8:\n      callvalue\n      dup1\n      iszero\n      tag_41\n      jumpi\n      0x00\n      dup1\n      revert\n    tag_41:\n      pop\n      tag_42\n      0x04\n      dup1\n      calldatasize\n      sub\n      dup2\n      add\n      swap1\n      tag_43\n      swap2\n      swap1\n      tag_44\n      jump\t// in\n    tag_43:\n      tag_45\n      jump\t// in\n    tag_42:\n      stop\n        /* \"Dinsey/dinsey.sol\":2211:2309  function MisToken() public view returns(uint){\r... */\n    tag_9:\n      callvalue\n      dup1\n      iszero\n      tag_46\n      jumpi\n      0x00\n      dup1\n      revert\n    tag_46:\n      pop\n      tag_47\n      tag_48\n      jump\t// in\n    tag_47:\n      mload(0x40)\n      tag_49\n      swap2\n      swap1\n      tag_31\n      jump\t// in\n    tag_49:\n      mload(0x40)\n      dup1\n      swap2\n      sub\n      swap1\n      return\n        /* \"Dinsey/dinsey.sol\":693:737  mapping (address => cliente) public Clientes */\n    tag_10:\n      callvalue\n      dup1\n      iszero\n      tag_50\n      jumpi\n      0x00\n      dup1\n      revert\n    tag_50:\n      pop\n      tag_51\n      0x04\n      dup1\n      calldatasize\n      sub\n      dup2\n      add\n      swap1\n      tag_52\n      swap2\n      swap1\n      tag_53\n      jump\t// in\n    tag_52:\n      tag_54\n      jump\t// in\n    tag_51:\n      mload(0x40)\n      tag_55\n      swap2\n      swap1\n      tag_31\n      jump\t// in\n    tag_55:\n      mload(0x40)\n      dup1\n      swap2\n      sub\n      swap1\n      return\n        /* \"Dinsey/dinsey.sol\":3193:3248  mapping (string => atraccion) public MappingAtracciones */\n    tag_11:\n      callvalue\n      dup1\n      iszero\n      tag_56\n      jumpi\n      0x00\n      dup1\n      revert\n    tag_56:\n      pop\n      tag_57\n      0x04\n      dup1\n      calldatasize\n      sub\n      dup2\n      add\n      swap1\n      tag_58\n      swap2\n      swap1\n      tag_44\n      jump\t// in\n    tag_58:\n      tag_59\n      jump\t// in\n    tag_57:\n      mload(0x40)\n      tag_60\n      swap4\n      swap3\n      swap2\n      swap1\n      tag_61\n      jump\t// in\n    tag_60:\n      mload(0x40)\n      dup1\n      swap2\n      sub\n      swap1\n      return\n        /* \"Dinsey/dinsey.sol\":5426:5534  function AtraccionesDisponibles() public view returns(string [] memory){\r... */\n    tag_15:\n        /* \"Dinsey/dinsey.sol\":5480:5496  string [] memory */\n      0x60\n        /* \"Dinsey/dinsey.sol\":5515:5526  Atracciones */\n      0x04\n        /* \"Dinsey/dinsey.sol\":5508:5526  return Atracciones */\n      dup1\n      sload\n      dup1\n      0x20\n      mul\n      0x20\n      add\n      mload(0x40)\n      swap1\n      dup2\n      add\n      0x40\n      mstore\n      dup1\n      swap3\n      swap2\n      swap1\n      dup2\n      dup2\n      mstore\n      0x20\n      add\n      0x00\n      swap1\n    tag_63:\n      dup3\n      dup3\n      lt\n      iszero\n      tag_64\n      jumpi\n      dup4\n      dup3\n      swap1\n      0x00\n      mstore\n      keccak256(0x00, 0x20)\n      add\n      dup1\n      sload\n      tag_66\n      swap1\n      tag_67\n      jump\t// in\n    tag_66:\n      dup1\n      0x1f\n      add\n      0x20\n      dup1\n      swap2\n      div\n      mul\n      0x20\n      add\n      mload(0x40)\n      swap1\n      dup2\n      add\n      0x40\n      mstore\n      dup1\n      swap3\n      swap2\n      swap1\n      dup2\n      dup2\n      mstore\n      0x20\n      add\n      dup3\n      dup1\n      sload\n      tag_68\n      swap1\n      tag_67\n      jump\t// in\n    tag_68:\n      dup1\n      iszero\n      tag_69\n      jumpi\n      dup1\n      0x1f\n      lt\n      tag_70\n      jumpi\n      0x0100\n      dup1\n      dup4\n      sload\n      div\n      mul\n      dup4\n      mstore\n      swap2\n      0x20\n      add\n      swap2\n      jump(tag_69)\n    tag_70:\n      dup3\n      add\n      swap2\n      swap1\n      0x00\n      mstore\n      keccak256(0x00, 0x20)\n      swap1\n    tag_71:\n      dup2\n      sload\n      dup2\n      mstore\n      swap1\n      0x01\n      add\n      swap1\n      0x20\n      add\n      dup1\n      dup4\n      gt\n      tag_71\n      jumpi\n      dup3\n      swap1\n      sub\n      0x1f\n      and\n      dup3\n      add\n      swap2\n    tag_69:\n      pop\n      pop\n      pop\n      pop\n      pop\n      dup2\n      mstore\n      0x20\n      add\n      swap1\n      0x01\n      add\n      swap1\n      jump(tag_63)\n    tag_64:\n      pop\n      pop\n      pop\n      pop\n      swap1\n      pop\n        /* \"Dinsey/dinsey.sol\":5426:5534  function AtraccionesDisponibles() public view returns(string [] memory){\r... */\n      swap1\n      jump\t// out\n        /* \"Dinsey/dinsey.sol\":3575:4038  function NuevaAtraccion(string memory _nombreAtraccion, uint _precio) public Unicamente(msg.sender){\r... */\n    tag_22:\n        /* \"Dinsey/dinsey.sol\":3663:3673  msg.sender */\n      caller\n        /* \"Dinsey/dinsey.sol\":2631:2636  owner */\n      0x01\n      0x00\n      swap1\n      sload\n      swap1\n      0x0100\n      exp\n      swap1\n      div\n      0xffffffffffffffffffffffffffffffffffffffff\n      and\n        /* \"Dinsey/dinsey.sol\":2617:2636  _direccion == owner */\n      0xffffffffffffffffffffffffffffffffffffffff\n      and\n        /* \"Dinsey/dinsey.sol\":2617:2627  _direccion */\n      dup2\n        /* \"Dinsey/dinsey.sol\":2617:2636  _direccion == owner */\n      0xffffffffffffffffffffffffffffffffffffffff\n      and\n      eq\n        /* \"Dinsey/dinsey.sol\":2609:2686  require(_direccion == owner, \"No tienes permisos para ejecutar esta funcion\") */\n      tag_73\n      jumpi\n      mload(0x40)\n      0x08c379a000000000000000000000000000000000000000000000000000000000\n      dup2\n      mstore\n      0x04\n      add\n      tag_74\n      swap1\n      tag_75\n      jump\t// in\n    tag_74:\n      mload(0x40)\n      dup1\n      swap2\n      sub\n      swap1\n      revert\n    tag_73:\n        /* \"Dinsey/dinsey.sol\":3772:3814  atraccion(_nombreAtraccion, _precio, true) */\n      mload(0x40)\n      dup1\n      0x60\n      add\n      0x40\n      mstore\n      dup1\n        /* \"Dinsey/dinsey.sol\":3782:3798  _nombreAtraccion */\n      dup5\n        /* \"Dinsey/dinsey.sol\":3772:3814  atraccion(_nombreAtraccion, _precio, true) */\n      dup2\n      mstore\n      0x20\n      add\n        /* \"Dinsey/dinsey.sol\":3800:3807  _precio */\n      dup4\n        /* \"Dinsey/dinsey.sol\":3772:3814  atraccion(_nombreAtraccion, _precio, true) */\n      dup2\n      mstore\n      0x20\n      add\n        /* \"Dinsey/dinsey.sol\":3809:3813  true */\n      0x01\n        /* \"Dinsey/dinsey.sol\":3772:3814  atraccion(_nombreAtraccion, _precio, true) */\n      iszero\n      iszero\n      dup2\n      mstore\n      pop\n        /* \"Dinsey/dinsey.sol\":3733:3751  MappingAtracciones */\n      0x03\n        /* \"Dinsey/dinsey.sol\":3752:3768  _nombreAtraccion */\n      dup5\n        /* \"Dinsey/dinsey.sol\":3733:3769  MappingAtracciones[_nombreAtraccion] */\n      mload(0x40)\n      tag_77\n      swap2\n      swap1\n      tag_78\n      jump\t// in\n    tag_77:\n      swap1\n      dup2\n      mstore\n      0x20\n      add\n      mload(0x40)\n      dup1\n      swap2\n      sub\n      swap1\n      keccak256\n        /* \"Dinsey/dinsey.sol\":3733:3814  MappingAtracciones[_nombreAtraccion] = atraccion(_nombreAtraccion, _precio, true) */\n      0x00\n      dup3\n      add\n      mload\n      dup2\n      0x00\n      add\n      swap1\n      dup1\n      mload\n      swap1\n      0x20\n      add\n      swap1\n      tag_79\n      swap3\n      swap2\n      swap1\n      tag_80\n      jump\t// in\n    tag_79:\n      pop\n      0x20\n      dup3\n      add\n      mload\n      dup2\n      0x01\n      add\n      sstore\n      0x40\n      dup3\n      add\n      mload\n      dup2\n      0x02\n      add\n      exp(0x0100, 0x00)\n      dup2\n      sload\n      dup2\n      0xff\n      mul\n      not\n      and\n      swap1\n      dup4\n      iszero\n      iszero\n      mul\n      or\n      swap1\n      sstore\n      pop\n      swap1\n      pop\n      pop\n        /* \"Dinsey/dinsey.sol\":3884:3895  Atracciones */\n      0x04\n        /* \"Dinsey/dinsey.sol\":3901:3917  _nombreAtraccion */\n      dup4\n        /* \"Dinsey/dinsey.sol\":3884:3918  Atracciones.push(_nombreAtraccion) */\n      swap1\n      dup1\n      0x01\n      dup2\n      sload\n      add\n      dup1\n      dup3\n      sstore\n      dup1\n      swap2\n      pop\n      pop\n      0x01\n      swap1\n      sub\n      swap1\n      0x00\n      mstore\n      keccak256(0x00, 0x20)\n      add\n      0x00\n      swap1\n      swap2\n      swap1\n      swap2\n      swap1\n      swap2\n      pop\n      swap1\n      dup1\n      mload\n      swap1\n      0x20\n      add\n      swap1\n      tag_82\n      swap3\n      swap2\n      swap1\n      tag_80\n      jump\t// in\n    tag_82:\n      pop\n        /* \"Dinsey/dinsey.sol\":3988:4030  nueva_atraccion(_nombreAtraccion, _precio) */\n      0xfc9ecd7a6c2ca96d38526a0b9cc22f2474ff8e596dd348edaab06be905ebe378\n        /* \"Dinsey/dinsey.sol\":4004:4020  _nombreAtraccion */\n      dup4\n        /* \"Dinsey/dinsey.sol\":4022:4029  _precio */\n      dup4\n        /* \"Dinsey/dinsey.sol\":3988:4030  nueva_atraccion(_nombreAtraccion, _precio) */\n      mload(0x40)\n      tag_83\n      swap3\n      swap2\n      swap1\n      tag_84\n      jump\t// in\n    tag_83:\n      mload(0x40)\n      dup1\n      swap2\n      sub\n      swap1\n      log1\n        /* \"Dinsey/dinsey.sol\":3575:4038  function NuevaAtraccion(string memory _nombreAtraccion, uint _precio) public Unicamente(msg.sender){\r... */\n      pop\n      pop\n      pop\n      jump\t// out\n        /* \"Dinsey/dinsey.sol\":1090:1977  function CompraToken(uint _numToken) public payable{\r... */\n    tag_26:\n        /* \"Dinsey/dinsey.sol\":1197:1207  uint coste */\n      0x00\n        /* \"Dinsey/dinsey.sol\":1210:1232  PrecioToken(_numToken) */\n      tag_86\n        /* \"Dinsey/dinsey.sol\":1222:1231  _numToken */\n      dup3\n        /* \"Dinsey/dinsey.sol\":1210:1221  PrecioToken */\n      tag_87\n        /* \"Dinsey/dinsey.sol\":1210:1232  PrecioToken(_numToken) */\n      jump\t// in\n    tag_86:\n        /* \"Dinsey/dinsey.sol\":1197:1232  uint coste = PrecioToken(_numToken) */\n      swap1\n      pop\n        /* \"Dinsey/dinsey.sol\":1332:1337  coste */\n      dup1\n        /* \"Dinsey/dinsey.sol\":1319:1328  msg.value */\n      callvalue\n        /* \"Dinsey/dinsey.sol\":1319:1337  msg.value >= coste */\n      lt\n      iszero\n        /* \"Dinsey/dinsey.sol\":1310:1384  require (msg.value >= coste, \"Compra menos Tokens o paga con mas ethers.\") */\n      tag_88\n      jumpi\n      mload(0x40)\n      0x08c379a000000000000000000000000000000000000000000000000000000000\n      dup2\n      mstore\n      0x04\n      add\n      tag_89\n      swap1\n      tag_90\n      jump\t// in\n    tag_89:\n      mload(0x40)\n      dup1\n      swap2\n      sub\n      swap1\n      revert\n    tag_88:\n        /* \"Dinsey/dinsey.sol\":1444:1460  uint returnValue */\n      0x00\n        /* \"Dinsey/dinsey.sol\":1475:1480  coste */\n      dup2\n        /* \"Dinsey/dinsey.sol\":1463:1472  msg.value */\n      callvalue\n        /* \"Dinsey/dinsey.sol\":1463:1480  msg.value - coste */\n      tag_91\n      swap2\n      swap1\n      tag_92\n      jump\t// in\n    tag_91:\n        /* \"Dinsey/dinsey.sol\":1444:1480  uint returnValue = msg.value - coste */\n      swap1\n      pop\n        /* \"Dinsey/dinsey.sol\":1558:1568  msg.sender */\n      caller\n        /* \"Dinsey/dinsey.sol\":1550:1578  payable(msg.sender).transfer */\n      0xffffffffffffffffffffffffffffffffffffffff\n      and\n        /* \"Dinsey/dinsey.sol\":1550:1591  payable(msg.sender).transfer(returnValue) */\n      0x08fc\n        /* \"Dinsey/dinsey.sol\":1579:1590  returnValue */\n      dup3\n        /* \"Dinsey/dinsey.sol\":1550:1591  payable(msg.sender).transfer(returnValue) */\n      swap1\n      dup2\n      iszero\n      mul\n      swap1\n      mload(0x40)\n      0x00\n      mload(0x40)\n      dup1\n      dup4\n      sub\n      dup2\n      dup6\n      dup9\n      dup9\n      call\n      swap4\n      pop\n      pop\n      pop\n      pop\n      iszero\n      dup1\n      iszero\n      tag_94\n      jumpi\n      returndatasize\n      0x00\n      dup1\n      returndatacopy\n      revert(0x00, returndatasize)\n    tag_94:\n      pop\n        /* \"Dinsey/dinsey.sol\":1655:1667  uint Balance */\n      0x00\n        /* \"Dinsey/dinsey.sol\":1670:1681  balanceOf() */\n      tag_95\n        /* \"Dinsey/dinsey.sol\":1670:1679  balanceOf */\n      tag_29\n        /* \"Dinsey/dinsey.sol\":1670:1681  balanceOf() */\n      jump\t// in\n    tag_95:\n        /* \"Dinsey/dinsey.sol\":1655:1681  uint Balance = balanceOf() */\n      swap1\n      pop\n        /* \"Dinsey/dinsey.sol\":1713:1720  Balance */\n      dup1\n        /* \"Dinsey/dinsey.sol\":1700:1709  _numToken */\n      dup5\n        /* \"Dinsey/dinsey.sol\":1700:1720  _numToken <= Balance */\n      gt\n      iszero\n        /* \"Dinsey/dinsey.sol\":1692:1757  require(_numToken <= Balance, \"Compra un numero menor de Tokens\") */\n      tag_96\n      jumpi\n      mload(0x40)\n      0x08c379a000000000000000000000000000000000000000000000000000000000\n      dup2\n      mstore\n      0x04\n      add\n      tag_97\n      swap1\n      tag_98\n      jump\t// in\n    tag_97:\n      mload(0x40)\n      dup1\n      swap2\n      sub\n      swap1\n      revert\n    tag_96:\n        /* \"Dinsey/dinsey.sol\":1825:1830  token */\n      0x00\n      dup1\n      sload\n      swap1\n      0x0100\n      exp\n      swap1\n      div\n      0xffffffffffffffffffffffffffffffffffffffff\n      and\n        /* \"Dinsey/dinsey.sol\":1825:1839  token.transfer */\n      0xffffffffffffffffffffffffffffffffffffffff\n      and\n      0xa9059cbb\n        /* \"Dinsey/dinsey.sol\":1840:1850  msg.sender */\n      caller\n        /* \"Dinsey/dinsey.sol\":1852:1861  _numToken */\n      dup7\n        /* \"Dinsey/dinsey.sol\":1825:1862  token.transfer(msg.sender, _numToken) */\n      mload(0x40)\n      dup4\n      0xffffffff\n      and\n      0xe0\n      shl\n      dup2\n      mstore\n      0x04\n      add\n      tag_99\n      swap3\n      swap2\n      swap1\n      tag_100\n      jump\t// in\n    tag_99:\n      0x20\n      mload(0x40)\n      dup1\n      dup4\n      sub\n      dup2\n      0x00\n      dup8\n      dup1\n      extcodesize\n      iszero\n      dup1\n      iszero\n      tag_101\n      jumpi\n      0x00\n      dup1\n      revert\n    tag_101:\n      pop\n      gas\n      call\n      iszero\n      dup1\n      iszero\n      tag_103\n      jumpi\n      returndatasize\n      0x00\n      dup1\n      returndatacopy\n      revert(0x00, returndatasize)\n    tag_103:\n      pop\n      pop\n      pop\n      pop\n      mload(0x40)\n      returndatasize\n      not(0x1f)\n      0x1f\n      dup3\n      add\n      and\n      dup3\n      add\n      dup1\n      0x40\n      mstore\n      pop\n      dup2\n      add\n      swap1\n      tag_104\n      swap2\n      swap1\n      tag_105\n      jump\t// in\n    tag_104:\n      pop\n        /* \"Dinsey/dinsey.sol\":1960:1969  _numToken */\n      dup4\n        /* \"Dinsey/dinsey.sol\":1919:1927  Clientes */\n      0x02\n        /* \"Dinsey/dinsey.sol\":1919:1939  Clientes[msg.sender] */\n      0x00\n        /* \"Dinsey/dinsey.sol\":1928:1938  msg.sender */\n      caller\n        /* \"Dinsey/dinsey.sol\":1919:1939  Clientes[msg.sender] */\n      0xffffffffffffffffffffffffffffffffffffffff\n      and\n      0xffffffffffffffffffffffffffffffffffffffff\n      and\n      dup2\n      mstore\n      0x20\n      add\n      swap1\n      dup2\n      mstore\n      0x20\n      add\n      0x00\n      keccak256\n        /* \"Dinsey/dinsey.sol\":1919:1956  Clientes[msg.sender].tokens_comprados */\n      0x00\n      add\n      0x00\n        /* \"Dinsey/dinsey.sol\":1919:1969  Clientes[msg.sender].tokens_comprados += _numToken */\n      dup3\n      dup3\n      sload\n      tag_106\n      swap2\n      swap1\n      tag_107\n      jump\t// in\n    tag_106:\n      swap3\n      pop\n      pop\n      dup2\n      swap1\n      sstore\n      pop\n        /* \"Dinsey/dinsey.sol\":1141:1977  {\r... */\n      pop\n      pop\n      pop\n        /* \"Dinsey/dinsey.sol\":1090:1977  function CompraToken(uint _numToken) public payable{\r... */\n      pop\n      jump\t// out\n        /* \"Dinsey/dinsey.sol\":2031:2134  function balanceOf() public view returns (uint){\r... */\n    tag_29:\n        /* \"Dinsey/dinsey.sol\":2073:2077  uint */\n      0x00\n        /* \"Dinsey/dinsey.sol\":2096:2101  token */\n      dup1\n      0x00\n      swap1\n      sload\n      swap1\n      0x0100\n      exp\n      swap1\n      div\n      0xffffffffffffffffffffffffffffffffffffffff\n      and\n        /* \"Dinsey/dinsey.sol\":2096:2111  token.balanceOf */\n      0xffffffffffffffffffffffffffffffffffffffff\n      and\n      0x70a08231\n        /* \"Dinsey/dinsey.sol\":2120:2124  this */\n      address\n        /* \"Dinsey/dinsey.sol\":2096:2126  token.balanceOf(address(this)) */\n      mload(0x40)\n      dup3\n      0xffffffff\n      and\n      0xe0\n      shl\n      dup2\n      mstore\n      0x04\n      add\n      tag_109\n      swap2\n      swap1\n      tag_110\n      jump\t// in\n    tag_109:\n      0x20\n      mload(0x40)\n      dup1\n      dup4\n      sub\n      dup2\n      dup7\n      dup1\n      extcodesize\n      iszero\n      dup1\n      iszero\n      tag_111\n      jumpi\n      0x00\n      dup1\n      revert\n    tag_111:\n      pop\n      gas\n      staticcall\n      iszero\n      dup1\n      iszero\n      tag_113\n      jumpi\n      returndatasize\n      0x00\n      dup1\n      returndatacopy\n      revert(0x00, returndatasize)\n    tag_113:\n      pop\n      pop\n      pop\n      pop\n      mload(0x40)\n      returndatasize\n      not(0x1f)\n      0x1f\n      dup3\n      add\n      and\n      dup3\n      add\n      dup1\n      0x40\n      mstore\n      pop\n      dup2\n      add\n      swap1\n      tag_114\n      swap2\n      swap1\n      tag_115\n      jump\t// in\n    tag_114:\n        /* \"Dinsey/dinsey.sol\":2089:2126  return token.balanceOf(address(this)) */\n      swap1\n      pop\n        /* \"Dinsey/dinsey.sol\":2031:2134  function balanceOf() public view returns (uint){\r... */\n      swap1\n      jump\t// out\n        /* \"Dinsey/dinsey.sol\":324:352  address payable public owner */\n    tag_34:\n      0x01\n      0x00\n      swap1\n      sload\n      swap1\n      0x0100\n      exp\n      swap1\n      div\n      0xffffffffffffffffffffffffffffffffffffffff\n      and\n      dup2\n      jump\t// out\n        /* \"Dinsey/dinsey.sol\":2357:2480  function GeneraToken(uint _numTokens) public Unicamente(msg.sender){\r... */\n    tag_40:\n        /* \"Dinsey/dinsey.sol\":2413:2423  msg.sender */\n      caller\n        /* \"Dinsey/dinsey.sol\":2631:2636  owner */\n      0x01\n      0x00\n      swap1\n      sload\n      swap1\n      0x0100\n      exp\n      swap1\n      div\n      0xffffffffffffffffffffffffffffffffffffffff\n      and\n        /* \"Dinsey/dinsey.sol\":2617:2636  _direccion == owner */\n      0xffffffffffffffffffffffffffffffffffffffff\n      and\n        /* \"Dinsey/dinsey.sol\":2617:2627  _direccion */\n      dup2\n        /* \"Dinsey/dinsey.sol\":2617:2636  _direccion == owner */\n      0xffffffffffffffffffffffffffffffffffffffff\n      and\n      eq\n        /* \"Dinsey/dinsey.sol\":2609:2686  require(_direccion == owner, \"No tienes permisos para ejecutar esta funcion\") */\n      tag_117\n      jumpi\n      mload(0x40)\n      0x08c379a000000000000000000000000000000000000000000000000000000000\n      dup2\n      mstore\n      0x04\n      add\n      tag_118\n      swap1\n      tag_75\n      jump\t// in\n    tag_118:\n      mload(0x40)\n      dup1\n      swap2\n      sub\n      swap1\n      revert\n    tag_117:\n        /* \"Dinsey/dinsey.sol\":2435:2440  token */\n      0x00\n      dup1\n      sload\n      swap1\n      0x0100\n      exp\n      swap1\n      div\n      0xffffffffffffffffffffffffffffffffffffffff\n      and\n        /* \"Dinsey/dinsey.sol\":2435:2460  token.increaseTotalSupply */\n      0xffffffffffffffffffffffffffffffffffffffff\n      and\n      0x1d43cc98\n        /* \"Dinsey/dinsey.sol\":2461:2471  _numTokens */\n      dup4\n        /* \"Dinsey/dinsey.sol\":2435:2472  token.increaseTotalSupply(_numTokens) */\n      mload(0x40)\n      dup3\n      0xffffffff\n      and\n      0xe0\n      shl\n      dup2\n      mstore\n      0x04\n      add\n      tag_120\n      swap2\n      swap1\n      tag_31\n      jump\t// in\n    tag_120:\n      0x00\n      mload(0x40)\n      dup1\n      dup4\n      sub\n      dup2\n      0x00\n      dup8\n      dup1\n      extcodesize\n      iszero\n      dup1\n      iszero\n      tag_121\n      jumpi\n      0x00\n      dup1\n      revert\n    tag_121:\n      pop\n      gas\n      call\n      iszero\n      dup1\n      iszero\n      tag_123\n      jumpi\n      returndatasize\n      0x00\n      dup1\n      returndatacopy\n      revert(0x00, returndatasize)\n    tag_123:\n      pop\n      pop\n      pop\n      pop\n        /* \"Dinsey/dinsey.sol\":2357:2480  function GeneraToken(uint _numTokens) public Unicamente(msg.sender){\r... */\n      pop\n      pop\n      jump\t// out\n        /* \"Dinsey/dinsey.sol\":4160:4510  function BajaAtraccion(string memory _nombreAtraccion) public Unicamente(msg.sender) AtraccionCorrecta(_nombreAtraccion){\r... */\n    tag_45:\n        /* \"Dinsey/dinsey.sol\":4233:4243  msg.sender */\n      caller\n        /* \"Dinsey/dinsey.sol\":2631:2636  owner */\n      0x01\n      0x00\n      swap1\n      sload\n      swap1\n      0x0100\n      exp\n      swap1\n      div\n      0xffffffffffffffffffffffffffffffffffffffff\n      and\n        /* \"Dinsey/dinsey.sol\":2617:2636  _direccion == owner */\n      0xffffffffffffffffffffffffffffffffffffffff\n      and\n        /* \"Dinsey/dinsey.sol\":2617:2627  _direccion */\n      dup2\n        /* \"Dinsey/dinsey.sol\":2617:2636  _direccion == owner */\n      0xffffffffffffffffffffffffffffffffffffffff\n      and\n      eq\n        /* \"Dinsey/dinsey.sol\":2609:2686  require(_direccion == owner, \"No tienes permisos para ejecutar esta funcion\") */\n      tag_125\n      jumpi\n      mload(0x40)\n      0x08c379a000000000000000000000000000000000000000000000000000000000\n      dup2\n      mstore\n      0x04\n      add\n      tag_126\n      swap1\n      tag_75\n      jump\t// in\n    tag_126:\n      mload(0x40)\n      dup1\n      swap2\n      sub\n      swap1\n      revert\n    tag_125:\n        /* \"Dinsey/dinsey.sol\":4263:4279  _nombreAtraccion */\n      dup2\n        /* \"Dinsey/dinsey.sol\":4674:4696  bytes32 hash_Atraccion */\n      0x00\n        /* \"Dinsey/dinsey.sol\":4726:4733  _nombre */\n      dup2\n        /* \"Dinsey/dinsey.sol\":4709:4734  abi.encodePacked(_nombre) */\n      add(0x20, mload(0x40))\n      tag_128\n      swap2\n      swap1\n      tag_78\n      jump\t// in\n    tag_128:\n      mload(0x40)\n      0x20\n      dup2\n      dup4\n      sub\n      sub\n      dup2\n      mstore\n      swap1\n      0x40\n      mstore\n        /* \"Dinsey/dinsey.sol\":4699:4735  keccak256(abi.encodePacked(_nombre)) */\n      dup1\n      mload\n      swap1\n      0x20\n      add\n      keccak256\n        /* \"Dinsey/dinsey.sol\":4674:4735  bytes32 hash_Atraccion = keccak256(abi.encodePacked(_nombre)) */\n      swap1\n      pop\n        /* \"Dinsey/dinsey.sol\":4788:4812  bool atraccionEncontrada */\n      0x00\n        /* \"Dinsey/dinsey.sol\":4926:4932  uint i */\n      dup1\n        /* \"Dinsey/dinsey.sol\":4922:5213  for(uint i=0; i<Atracciones.length; i++){\r... */\n    tag_129:\n        /* \"Dinsey/dinsey.sol\":4938:4949  Atracciones */\n      0x04\n        /* \"Dinsey/dinsey.sol\":4938:4956  Atracciones.length */\n      dup1\n      sload\n      swap1\n      pop\n        /* \"Dinsey/dinsey.sol\":4936:4937  i */\n      dup2\n        /* \"Dinsey/dinsey.sol\":4936:4956  i<Atracciones.length */\n      lt\n        /* \"Dinsey/dinsey.sol\":4922:5213  for(uint i=0; i<Atracciones.length; i++){\r... */\n      iszero\n      tag_130\n      jumpi\n        /* \"Dinsey/dinsey.sol\":5126:5140  hash_Atraccion */\n      dup3\n        /* \"Dinsey/dinsey.sol\":5106:5117  Atracciones */\n      0x04\n        /* \"Dinsey/dinsey.sol\":5118:5119  i */\n      dup3\n        /* \"Dinsey/dinsey.sol\":5106:5120  Atracciones[i] */\n      dup2\n      sload\n      dup2\n      lt\n      tag_132\n      jumpi\n      tag_133\n      tag_134\n      jump\t// in\n    tag_133:\n    tag_132:\n      swap1\n      0x00\n      mstore\n      keccak256(0x00, 0x20)\n      add\n        /* \"Dinsey/dinsey.sol\":5089:5121  abi.encodePacked(Atracciones[i]) */\n      add(0x20, mload(0x40))\n      tag_136\n      swap2\n      swap1\n      tag_137\n      jump\t// in\n    tag_136:\n      mload(0x40)\n      0x20\n      dup2\n      dup4\n      sub\n      sub\n      dup2\n      mstore\n      swap1\n      0x40\n      mstore\n        /* \"Dinsey/dinsey.sol\":5079:5122  keccak256(abi.encodePacked(Atracciones[i])) */\n      dup1\n      mload\n      swap1\n      0x20\n      add\n      keccak256\n        /* \"Dinsey/dinsey.sol\":5079:5140  keccak256(abi.encodePacked(Atracciones[i])) == hash_Atraccion */\n      eq\n        /* \"Dinsey/dinsey.sol\":5076:5202  if(keccak256(abi.encodePacked(Atracciones[i])) == hash_Atraccion){\r... */\n      iszero\n      tag_138\n      jumpi\n        /* \"Dinsey/dinsey.sol\":5182:5186  true */\n      0x01\n        /* \"Dinsey/dinsey.sol\":5160:5186  atraccionEncontrada = true */\n      swap2\n      pop\n        /* \"Dinsey/dinsey.sol\":5076:5202  if(keccak256(abi.encodePacked(Atracciones[i])) == hash_Atraccion){\r... */\n    tag_138:\n        /* \"Dinsey/dinsey.sol\":4958:4961  i++ */\n      dup1\n      dup1\n      tag_139\n      swap1\n      tag_140\n      jump\t// in\n    tag_139:\n      swap2\n      pop\n      pop\n        /* \"Dinsey/dinsey.sol\":4922:5213  for(uint i=0; i<Atracciones.length; i++){\r... */\n      jump(tag_129)\n    tag_130:\n      pop\n        /* \"Dinsey/dinsey.sol\":5302:5321  atraccionEncontrada */\n      dup1\n        /* \"Dinsey/dinsey.sol\":5294:5354  require(atraccionEncontrada, \"No se encuentra la atraccion\") */\n      tag_141\n      jumpi\n      mload(0x40)\n      0x08c379a000000000000000000000000000000000000000000000000000000000\n      dup2\n      mstore\n      0x04\n      add\n      tag_142\n      swap1\n      tag_143\n      jump\t// in\n    tag_142:\n      mload(0x40)\n      dup1\n      swap2\n      sub\n      swap1\n      revert\n    tag_141:\n        /* \"Dinsey/dinsey.sol\":4398:4403  false */\n      0x00\n        /* \"Dinsey/dinsey.sol\":4342:4360  MappingAtracciones */\n      0x03\n        /* \"Dinsey/dinsey.sol\":4361:4377  _nombreAtraccion */\n      dup7\n        /* \"Dinsey/dinsey.sol\":4342:4378  MappingAtracciones[_nombreAtraccion] */\n      mload(0x40)\n      tag_145\n      swap2\n      swap1\n      tag_78\n      jump\t// in\n    tag_145:\n      swap1\n      dup2\n      mstore\n      0x20\n      add\n      mload(0x40)\n      dup1\n      swap2\n      sub\n      swap1\n      keccak256\n        /* \"Dinsey/dinsey.sol\":4342:4395  MappingAtracciones[_nombreAtraccion].estado_atraccion */\n      0x02\n      add\n      0x00\n        /* \"Dinsey/dinsey.sol\":4342:4403  MappingAtracciones[_nombreAtraccion].estado_atraccion = false */\n      0x0100\n      exp\n      dup2\n      sload\n      dup2\n      0xff\n      mul\n      not\n      and\n      swap1\n      dup4\n      iszero\n      iszero\n      mul\n      or\n      swap1\n      sstore\n      pop\n        /* \"Dinsey/dinsey.sol\":4470:4502  baja_atraccion(_nombreAtraccion) */\n      0x24ba6c881728980191398db8dcfd8ed4f6aeb1c08df349d63f3b85075f3e86dd\n        /* \"Dinsey/dinsey.sol\":4485:4501  _nombreAtraccion */\n      dup6\n        /* \"Dinsey/dinsey.sol\":4470:4502  baja_atraccion(_nombreAtraccion) */\n      mload(0x40)\n      tag_146\n      swap2\n      swap1\n      tag_147\n      jump\t// in\n    tag_146:\n      mload(0x40)\n      dup1\n      swap2\n      sub\n      swap1\n      log1\n        /* \"Dinsey/dinsey.sol\":4617:5374  {\r... */\n      pop\n      pop\n        /* \"Dinsey/dinsey.sol\":2697:2698  _ */\n      pop\n        /* \"Dinsey/dinsey.sol\":4160:4510  function BajaAtraccion(string memory _nombreAtraccion) public Unicamente(msg.sender) AtraccionCorrecta(_nombreAtraccion){\r... */\n      pop\n      pop\n      jump\t// out\n        /* \"Dinsey/dinsey.sol\":2211:2309  function MisToken() public view returns(uint){\r... */\n    tag_48:\n        /* \"Dinsey/dinsey.sol\":2251:2255  uint */\n      0x00\n        /* \"Dinsey/dinsey.sol\":2274:2279  token */\n      dup1\n      0x00\n      swap1\n      sload\n      swap1\n      0x0100\n      exp\n      swap1\n      div\n      0xffffffffffffffffffffffffffffffffffffffff\n      and\n        /* \"Dinsey/dinsey.sol\":2274:2289  token.balanceOf */\n      0xffffffffffffffffffffffffffffffffffffffff\n      and\n      0x70a08231\n        /* \"Dinsey/dinsey.sol\":2290:2300  msg.sender */\n      caller\n        /* \"Dinsey/dinsey.sol\":2274:2301  token.balanceOf(msg.sender) */\n      mload(0x40)\n      dup3\n      0xffffffff\n      and\n      0xe0\n      shl\n      dup2\n      mstore\n      0x04\n      add\n      tag_149\n      swap2\n      swap1\n      tag_110\n      jump\t// in\n    tag_149:\n      0x20\n      mload(0x40)\n      dup1\n      dup4\n      sub\n      dup2\n      dup7\n      dup1\n      extcodesize\n      iszero\n      dup1\n      iszero\n      tag_150\n      jumpi\n      0x00\n      dup1\n      revert\n    tag_150:\n      pop\n      gas\n      staticcall\n      iszero\n      dup1\n      iszero\n      tag_152\n      jumpi\n      returndatasize\n      0x00\n      dup1\n      returndatacopy\n      revert(0x00, returndatasize)\n    tag_152:\n      pop\n      pop\n      pop\n      pop\n      mload(0x40)\n      returndatasize\n      not(0x1f)\n      0x1f\n      dup3\n      add\n      and\n      dup3\n      add\n      dup1\n      0x40\n      mstore\n      pop\n      dup2\n      add\n      swap1\n      tag_153\n      swap2\n      swap1\n      tag_115\n      jump\t// in\n    tag_153:\n        /* \"Dinsey/dinsey.sol\":2267:2301  return token.balanceOf(msg.sender) */\n      swap1\n      pop\n        /* \"Dinsey/dinsey.sol\":2211:2309  function MisToken() public view returns(uint){\r... */\n      swap1\n      jump\t// out\n        /* \"Dinsey/dinsey.sol\":693:737  mapping (address => cliente) public Clientes */\n    tag_54:\n      mstore(0x20, 0x02)\n      dup1\n      0x00\n      mstore\n      keccak256(0x00, 0x40)\n      0x00\n      swap2\n      pop\n      swap1\n      pop\n      dup1\n      0x00\n      add\n      sload\n      swap1\n      pop\n      dup2\n      jump\t// out\n        /* \"Dinsey/dinsey.sol\":3193:3248  mapping (string => atraccion) public MappingAtracciones */\n    tag_59:\n      0x03\n      dup2\n      dup1\n      mload\n      0x20\n      dup2\n      add\n      dup3\n      add\n      dup1\n      mload\n      dup5\n      dup3\n      mstore\n      0x20\n      dup4\n      add\n      0x20\n      dup6\n      add\n      keccak256\n      dup2\n      dup4\n      mstore\n      dup1\n      swap6\n      pop\n      pop\n      pop\n      pop\n      pop\n      pop\n      0x00\n      swap2\n      pop\n      swap1\n      pop\n      dup1\n      0x00\n      add\n      dup1\n      sload\n      tag_154\n      swap1\n      tag_67\n      jump\t// in\n    tag_154:\n      dup1\n      0x1f\n      add\n      0x20\n      dup1\n      swap2\n      div\n      mul\n      0x20\n      add\n      mload(0x40)\n      swap1\n      dup2\n      add\n      0x40\n      mstore\n      dup1\n      swap3\n      swap2\n      swap1\n      dup2\n      dup2\n      mstore\n      0x20\n      add\n      dup3\n      dup1\n      sload\n      tag_155\n      swap1\n      tag_67\n      jump\t// in\n    tag_155:\n      dup1\n      iszero\n      tag_156\n      jumpi\n      dup1\n      0x1f\n      lt\n      tag_157\n      jumpi\n      0x0100\n      dup1\n      dup4\n      sload\n      div\n      mul\n      dup4\n      mstore\n      swap2\n      0x20\n      add\n      swap2\n      jump(tag_156)\n    tag_157:\n      dup3\n      add\n      swap2\n      swap1\n      0x00\n      mstore\n      keccak256(0x00, 0x20)\n      swap1\n    tag_158:\n      dup2\n      sload\n      dup2\n      mstore\n      swap1\n      0x01\n      add\n      swap1\n      0x20\n      add\n      dup1\n      dup4\n      gt\n      tag_158\n      jumpi\n      dup3\n      swap1\n      sub\n      0x1f\n      and\n      dup3\n      add\n      swap2\n    tag_156:\n      pop\n      pop\n      pop\n      pop\n      pop\n      swap1\n      dup1\n      0x01\n      add\n      sload\n      swap1\n      dup1\n      0x02\n      add\n      0x00\n      swap1\n      sload\n      swap1\n      0x0100\n      exp\n      swap1\n      div\n      0xff\n      and\n      swap1\n      pop\n      dup4\n      jump\t// out\n        /* \"Dinsey/dinsey.sol\":868:1047  function PrecioToken(uint _numToken) internal pure returns(uint){\r... */\n    tag_87:\n        /* \"Dinsey/dinsey.sol\":927:931  uint */\n      0x00\n        /* \"Dinsey/dinsey.sol\":1031:1038  1 ether */\n      0x0de0b6b3a7640000\n        /* \"Dinsey/dinsey.sol\":1018:1027  _numToken */\n      dup3\n        /* \"Dinsey/dinsey.sol\":1018:1039  _numToken * (1 ether) */\n      tag_160\n      swap2\n      swap1\n      tag_161\n      jump\t// in\n    tag_160:\n        /* \"Dinsey/dinsey.sol\":1011:1039  return _numToken * (1 ether) */\n      swap1\n      pop\n        /* \"Dinsey/dinsey.sol\":868:1047  function PrecioToken(uint _numToken) internal pure returns(uint){\r... */\n      swap2\n      swap1\n      pop\n      jump\t// out\n    tag_80:\n      dup3\n      dup1\n      sload\n      tag_162\n      swap1\n      tag_67\n      jump\t// in\n    tag_162:\n      swap1\n      0x00\n      mstore\n      keccak256(0x00, 0x20)\n      swap1\n      0x1f\n      add\n      0x20\n      swap1\n      div\n      dup2\n      add\n      swap3\n      dup3\n      tag_164\n      jumpi\n      0x00\n      dup6\n      sstore\n      jump(tag_163)\n    tag_164:\n      dup3\n      0x1f\n      lt\n      tag_165\n      jumpi\n      dup1\n      mload\n      not(0xff)\n      and\n      dup4\n      dup1\n      add\n      or\n      dup6\n      sstore\n      jump(tag_163)\n    tag_165:\n      dup3\n      dup1\n      add\n      0x01\n      add\n      dup6\n      sstore\n      dup3\n      iszero\n      tag_163\n      jumpi\n      swap2\n      dup3\n      add\n    tag_166:\n      dup3\n      dup2\n      gt\n      iszero\n      tag_167\n      jumpi\n      dup3\n      mload\n      dup3\n      sstore\n      swap2\n      0x20\n      add\n      swap2\n      swap1\n      0x01\n      add\n      swap1\n      jump(tag_166)\n    tag_167:\n    tag_163:\n      pop\n      swap1\n      pop\n      tag_168\n      swap2\n      swap1\n      tag_169\n      jump\t// in\n    tag_168:\n      pop\n      swap1\n      jump\t// out\n    tag_169:\n    tag_170:\n      dup1\n      dup3\n      gt\n      iszero\n      tag_171\n      jumpi\n      0x00\n      dup2\n      0x00\n      swap1\n      sstore\n      pop\n      0x01\n      add\n      jump(tag_170)\n    tag_171:\n      pop\n      swap1\n      jump\t// out\n        /* \"#utility.yul\":7:419   */\n    tag_173:\n        /* \"#utility.yul\":85:90   */\n      0x00\n        /* \"#utility.yul\":110:176   */\n      tag_175\n        /* \"#utility.yul\":126:175   */\n      tag_176\n        /* \"#utility.yul\":168:174   */\n      dup5\n        /* \"#utility.yul\":126:175   */\n      tag_177\n      jump\t// in\n    tag_176:\n        /* \"#utility.yul\":110:176   */\n      tag_178\n      jump\t// in\n    tag_175:\n        /* \"#utility.yul\":101:176   */\n      swap1\n      pop\n        /* \"#utility.yul\":199:205   */\n      dup3\n        /* \"#utility.yul\":192:197   */\n      dup2\n        /* \"#utility.yul\":185:206   */\n      mstore\n        /* \"#utility.yul\":237:241   */\n      0x20\n        /* \"#utility.yul\":230:235   */\n      dup2\n        /* \"#utility.yul\":226:242   */\n      add\n        /* \"#utility.yul\":275:278   */\n      dup5\n        /* \"#utility.yul\":266:272   */\n      dup5\n        /* \"#utility.yul\":261:264   */\n      dup5\n        /* \"#utility.yul\":257:273   */\n      add\n        /* \"#utility.yul\":254:279   */\n      gt\n        /* \"#utility.yul\":251:363   */\n      iszero\n      tag_179\n      jumpi\n        /* \"#utility.yul\":282:361   */\n      tag_180\n      tag_181\n      jump\t// in\n    tag_180:\n        /* \"#utility.yul\":251:363   */\n    tag_179:\n        /* \"#utility.yul\":372:413   */\n      tag_182\n        /* \"#utility.yul\":406:412   */\n      dup5\n        /* \"#utility.yul\":401:404   */\n      dup3\n        /* \"#utility.yul\":396:399   */\n      dup6\n        /* \"#utility.yul\":372:413   */\n      tag_183\n      jump\t// in\n    tag_182:\n        /* \"#utility.yul\":91:419   */\n      pop\n        /* \"#utility.yul\":7:419   */\n      swap4\n      swap3\n      pop\n      pop\n      pop\n      jump\t// out\n        /* \"#utility.yul\":425:564   */\n    tag_184:\n        /* \"#utility.yul\":471:476   */\n      0x00\n        /* \"#utility.yul\":509:515   */\n      dup2\n        /* \"#utility.yul\":496:516   */\n      calldataload\n        /* \"#utility.yul\":487:516   */\n      swap1\n      pop\n        /* \"#utility.yul\":525:558   */\n      tag_186\n        /* \"#utility.yul\":552:557   */\n      dup2\n        /* \"#utility.yul\":525:558   */\n      tag_187\n      jump\t// in\n    tag_186:\n        /* \"#utility.yul\":425:564   */\n      swap3\n      swap2\n      pop\n      pop\n      jump\t// out\n        /* \"#utility.yul\":570:707   */\n    tag_188:\n        /* \"#utility.yul\":624:629   */\n      0x00\n        /* \"#utility.yul\":655:661   */\n      dup2\n        /* \"#utility.yul\":649:662   */\n      mload\n        /* \"#utility.yul\":640:662   */\n      swap1\n      pop\n        /* \"#utility.yul\":671:701   */\n      tag_190\n        /* \"#utility.yul\":695:700   */\n      dup2\n        /* \"#utility.yul\":671:701   */\n      tag_191\n      jump\t// in\n    tag_190:\n        /* \"#utility.yul\":570:707   */\n      swap3\n      swap2\n      pop\n      pop\n      jump\t// out\n        /* \"#utility.yul\":727:1067   */\n    tag_192:\n        /* \"#utility.yul\":783:788   */\n      0x00\n        /* \"#utility.yul\":832:835   */\n      dup3\n        /* \"#utility.yul\":825:829   */\n      0x1f\n        /* \"#utility.yul\":817:823   */\n      dup4\n        /* \"#utility.yul\":813:830   */\n      add\n        /* \"#utility.yul\":809:836   */\n      slt\n        /* \"#utility.yul\":799:921   */\n      tag_194\n      jumpi\n        /* \"#utility.yul\":840:919   */\n      tag_195\n      tag_196\n      jump\t// in\n    tag_195:\n        /* \"#utility.yul\":799:921   */\n    tag_194:\n        /* \"#utility.yul\":957:963   */\n      dup2\n        /* \"#utility.yul\":944:964   */\n      calldataload\n        /* \"#utility.yul\":982:1061   */\n      tag_197\n        /* \"#utility.yul\":1057:1060   */\n      dup5\n        /* \"#utility.yul\":1049:1055   */\n      dup3\n        /* \"#utility.yul\":1042:1046   */\n      0x20\n        /* \"#utility.yul\":1034:1040   */\n      dup7\n        /* \"#utility.yul\":1030:1047   */\n      add\n        /* \"#utility.yul\":982:1061   */\n      tag_173\n      jump\t// in\n    tag_197:\n        /* \"#utility.yul\":973:1061   */\n      swap2\n      pop\n        /* \"#utility.yul\":789:1067   */\n      pop\n        /* \"#utility.yul\":727:1067   */\n      swap3\n      swap2\n      pop\n      pop\n      jump\t// out\n        /* \"#utility.yul\":1073:1212   */\n    tag_198:\n        /* \"#utility.yul\":1119:1124   */\n      0x00\n        /* \"#utility.yul\":1157:1163   */\n      dup2\n        /* \"#utility.yul\":1144:1164   */\n      calldataload\n        /* \"#utility.yul\":1135:1164   */\n      swap1\n      pop\n        /* \"#utility.yul\":1173:1206   */\n      tag_200\n        /* \"#utility.yul\":1200:1205   */\n      dup2\n        /* \"#utility.yul\":1173:1206   */\n      tag_201\n      jump\t// in\n    tag_200:\n        /* \"#utility.yul\":1073:1212   */\n      swap3\n      swap2\n      pop\n      pop\n      jump\t// out\n        /* \"#utility.yul\":1218:1361   */\n    tag_202:\n        /* \"#utility.yul\":1275:1280   */\n      0x00\n        /* \"#utility.yul\":1306:1312   */\n      dup2\n        /* \"#utility.yul\":1300:1313   */\n      mload\n        /* \"#utility.yul\":1291:1313   */\n      swap1\n      pop\n        /* \"#utility.yul\":1322:1355   */\n      tag_204\n        /* \"#utility.yul\":1349:1354   */\n      dup2\n        /* \"#utility.yul\":1322:1355   */\n      tag_201\n      jump\t// in\n    tag_204:\n        /* \"#utility.yul\":1218:1361   */\n      swap3\n      swap2\n      pop\n      pop\n      jump\t// out\n        /* \"#utility.yul\":1367:1696   */\n    tag_53:\n        /* \"#utility.yul\":1426:1432   */\n      0x00\n        /* \"#utility.yul\":1475:1477   */\n      0x20\n        /* \"#utility.yul\":1463:1472   */\n      dup3\n        /* \"#utility.yul\":1454:1461   */\n      dup5\n        /* \"#utility.yul\":1450:1473   */\n      sub\n        /* \"#utility.yul\":1446:1478   */\n      slt\n        /* \"#utility.yul\":1443:1562   */\n      iszero\n      tag_206\n      jumpi\n        /* \"#utility.yul\":1481:1560   */\n      tag_207\n      tag_208\n      jump\t// in\n    tag_207:\n        /* \"#utility.yul\":1443:1562   */\n    tag_206:\n        /* \"#utility.yul\":1601:1602   */\n      0x00\n        /* \"#utility.yul\":1626:1679   */\n      tag_209\n        /* \"#utility.yul\":1671:1678   */\n      dup5\n        /* \"#utility.yul\":1662:1668   */\n      dup3\n        /* \"#utility.yul\":1651:1660   */\n      dup6\n        /* \"#utility.yul\":1647:1669   */\n      add\n        /* \"#utility.yul\":1626:1679   */\n      tag_184\n      jump\t// in\n    tag_209:\n        /* \"#utility.yul\":1616:1679   */\n      swap2\n      pop\n        /* \"#utility.yul\":1572:1689   */\n      pop\n        /* \"#utility.yul\":1367:1696   */\n      swap3\n      swap2\n      pop\n      pop\n      jump\t// out\n        /* \"#utility.yul\":1702:2047   */\n    tag_105:\n        /* \"#utility.yul\":1769:1775   */\n      0x00\n        /* \"#utility.yul\":1818:1820   */\n      0x20\n        /* \"#utility.yul\":1806:1815   */\n      dup3\n        /* \"#utility.yul\":1797:1804   */\n      dup5\n        /* \"#utility.yul\":1793:1816   */\n      sub\n        /* \"#utility.yul\":1789:1821   */\n      slt\n        /* \"#utility.yul\":1786:1905   */\n      iszero\n      tag_211\n      jumpi\n        /* \"#utility.yul\":1824:1903   */\n      tag_212\n      tag_208\n      jump\t// in\n    tag_212:\n        /* \"#utility.yul\":1786:1905   */\n    tag_211:\n        /* \"#utility.yul\":1944:1945   */\n      0x00\n        /* \"#utility.yul\":1969:2030   */\n      tag_213\n        /* \"#utility.yul\":2022:2029   */\n      dup5\n        /* \"#utility.yul\":2013:2019   */\n      dup3\n        /* \"#utility.yul\":2002:2011   */\n      dup6\n        /* \"#utility.yul\":1998:2020   */\n      add\n        /* \"#utility.yul\":1969:2030   */\n      tag_188\n      jump\t// in\n    tag_213:\n        /* \"#utility.yul\":1959:2030   */\n      swap2\n      pop\n        /* \"#utility.yul\":1915:2040   */\n      pop\n        /* \"#utility.yul\":1702:2047   */\n      swap3\n      swap2\n      pop\n      pop\n      jump\t// out\n        /* \"#utility.yul\":2053:2562   */\n    tag_44:\n        /* \"#utility.yul\":2122:2128   */\n      0x00\n        /* \"#utility.yul\":2171:2173   */\n      0x20\n        /* \"#utility.yul\":2159:2168   */\n      dup3\n        /* \"#utility.yul\":2150:2157   */\n      dup5\n        /* \"#utility.yul\":2146:2169   */\n      sub\n        /* \"#utility.yul\":2142:2174   */\n      slt\n        /* \"#utility.yul\":2139:2258   */\n      iszero\n      tag_215\n      jumpi\n        /* \"#utility.yul\":2177:2256   */\n      tag_216\n      tag_208\n      jump\t// in\n    tag_216:\n        /* \"#utility.yul\":2139:2258   */\n    tag_215:\n        /* \"#utility.yul\":2325:2326   */\n      0x00\n        /* \"#utility.yul\":2314:2323   */\n      dup3\n        /* \"#utility.yul\":2310:2327   */\n      add\n        /* \"#utility.yul\":2297:2328   */\n      calldataload\n        /* \"#utility.yul\":2355:2373   */\n      0xffffffffffffffff\n        /* \"#utility.yul\":2347:2353   */\n      dup2\n        /* \"#utility.yul\":2344:2374   */\n      gt\n        /* \"#utility.yul\":2341:2458   */\n      iszero\n      tag_217\n      jumpi\n        /* \"#utility.yul\":2377:2456   */\n      tag_218\n      tag_219\n      jump\t// in\n    tag_218:\n        /* \"#utility.yul\":2341:2458   */\n    tag_217:\n        /* \"#utility.yul\":2482:2545   */\n      tag_220\n        /* \"#utility.yul\":2537:2544   */\n      dup5\n        /* \"#utility.yul\":2528:2534   */\n      dup3\n        /* \"#utility.yul\":2517:2526   */\n      dup6\n        /* \"#utility.yul\":2513:2535   */\n      add\n        /* \"#utility.yul\":2482:2545   */\n      tag_192\n      jump\t// in\n    tag_220:\n        /* \"#utility.yul\":2472:2545   */\n      swap2\n      pop\n        /* \"#utility.yul\":2268:2555   */\n      pop\n        /* \"#utility.yul\":2053:2562   */\n      swap3\n      swap2\n      pop\n      pop\n      jump\t// out\n        /* \"#utility.yul\":2568:3222   */\n    tag_21:\n        /* \"#utility.yul\":2646:2652   */\n      0x00\n        /* \"#utility.yul\":2654:2660   */\n      dup1\n        /* \"#utility.yul\":2703:2705   */\n      0x40\n        /* \"#utility.yul\":2691:2700   */\n      dup4\n        /* \"#utility.yul\":2682:2689   */\n      dup6\n        /* \"#utility.yul\":2678:2701   */\n      sub\n        /* \"#utility.yul\":2674:2706   */\n      slt\n        /* \"#utility.yul\":2671:2790   */\n      iszero\n      tag_222\n      jumpi\n        /* \"#utility.yul\":2709:2788   */\n      tag_223\n      tag_208\n      jump\t// in\n    tag_223:\n        /* \"#utility.yul\":2671:2790   */\n    tag_222:\n        /* \"#utility.yul\":2857:2858   */\n      0x00\n        /* \"#utility.yul\":2846:2855   */\n      dup4\n        /* \"#utility.yul\":2842:2859   */\n      add\n        /* \"#utility.yul\":2829:2860   */\n      calldataload\n        /* \"#utility.yul\":2887:2905   */\n      0xffffffffffffffff\n        /* \"#utility.yul\":2879:2885   */\n      dup2\n        /* \"#utility.yul\":2876:2906   */\n      gt\n        /* \"#utility.yul\":2873:2990   */\n      iszero\n      tag_224\n      jumpi\n        /* \"#utility.yul\":2909:2988   */\n      tag_225\n      tag_219\n      jump\t// in\n    tag_225:\n        /* \"#utility.yul\":2873:2990   */\n    tag_224:\n        /* \"#utility.yul\":3014:3077   */\n      tag_226\n        /* \"#utility.yul\":3069:3076   */\n      dup6\n        /* \"#utility.yul\":3060:3066   */\n      dup3\n        /* \"#utility.yul\":3049:3058   */\n      dup7\n        /* \"#utility.yul\":3045:3067   */\n      add\n        /* \"#utility.yul\":3014:3077   */\n      tag_192\n      jump\t// in\n    tag_226:\n        /* \"#utility.yul\":3004:3077   */\n      swap3\n      pop\n        /* \"#utility.yul\":2800:3087   */\n      pop\n        /* \"#utility.yul\":3126:3128   */\n      0x20\n        /* \"#utility.yul\":3152:3205   */\n      tag_227\n        /* \"#utility.yul\":3197:3204   */\n      dup6\n        /* \"#utility.yul\":3188:3194   */\n      dup3\n        /* \"#utility.yul\":3177:3186   */\n      dup7\n        /* \"#utility.yul\":3173:3195   */\n      add\n        /* \"#utility.yul\":3152:3205   */\n      tag_198\n      jump\t// in\n    tag_227:\n        /* \"#utility.yul\":3142:3205   */\n      swap2\n      pop\n        /* \"#utility.yul\":3097:3215   */\n      pop\n        /* \"#utility.yul\":2568:3222   */\n      swap3\n      pop\n      swap3\n      swap1\n      pop\n      jump\t// out\n        /* \"#utility.yul\":3228:3557   */\n    tag_25:\n        /* \"#utility.yul\":3287:3293   */\n      0x00\n        /* \"#utility.yul\":3336:3338   */\n      0x20\n        /* \"#utility.yul\":3324:3333   */\n      dup3\n        /* \"#utility.yul\":3315:3322   */\n      dup5\n        /* \"#utility.yul\":3311:3334   */\n      sub\n        /* \"#utility.yul\":3307:3339   */\n      slt\n        /* \"#utility.yul\":3304:3423   */\n      iszero\n      tag_229\n      jumpi\n        /* \"#utility.yul\":3342:3421   */\n      tag_230\n      tag_208\n      jump\t// in\n    tag_230:\n        /* \"#utility.yul\":3304:3423   */\n    tag_229:\n        /* \"#utility.yul\":3462:3463   */\n      0x00\n        /* \"#utility.yul\":3487:3540   */\n      tag_231\n        /* \"#utility.yul\":3532:3539   */\n      dup5\n        /* \"#utility.yul\":3523:3529   */\n      dup3\n        /* \"#utility.yul\":3512:3521   */\n      dup6\n        /* \"#utility.yul\":3508:3530   */\n      add\n        /* \"#utility.yul\":3487:3540   */\n      tag_198\n      jump\t// in\n    tag_231:\n        /* \"#utility.yul\":3477:3540   */\n      swap2\n      pop\n        /* \"#utility.yul\":3433:3550   */\n      pop\n        /* \"#utility.yul\":3228:3557   */\n      swap3\n      swap2\n      pop\n      pop\n      jump\t// out\n        /* \"#utility.yul\":3563:3914   */\n    tag_115:\n        /* \"#utility.yul\":3633:3639   */\n      0x00\n        /* \"#utility.yul\":3682:3684   */\n      0x20\n        /* \"#utility.yul\":3670:3679   */\n      dup3\n        /* \"#utility.yul\":3661:3668   */\n      dup5\n        /* \"#utility.yul\":3657:3680   */\n      sub\n        /* \"#utility.yul\":3653:3685   */\n      slt\n        /* \"#utility.yul\":3650:3769   */\n      iszero\n      tag_233\n      jumpi\n        /* \"#utility.yul\":3688:3767   */\n      tag_234\n      tag_208\n      jump\t// in\n    tag_234:\n        /* \"#utility.yul\":3650:3769   */\n    tag_233:\n        /* \"#utility.yul\":3808:3809   */\n      0x00\n        /* \"#utility.yul\":3833:3897   */\n      tag_235\n        /* \"#utility.yul\":3889:3896   */\n      dup5\n        /* \"#utility.yul\":3880:3886   */\n      dup3\n        /* \"#utility.yul\":3869:3878   */\n      dup6\n        /* \"#utility.yul\":3865:3887   */\n      add\n        /* \"#utility.yul\":3833:3897   */\n      tag_202\n      jump\t// in\n    tag_235:\n        /* \"#utility.yul\":3823:3897   */\n      swap2\n      pop\n        /* \"#utility.yul\":3779:3907   */\n      pop\n        /* \"#utility.yul\":3563:3914   */\n      swap3\n      swap2\n      pop\n      pop\n      jump\t// out\n        /* \"#utility.yul\":3920:4116   */\n    tag_236:\n        /* \"#utility.yul\":4009:4019   */\n      0x00\n        /* \"#utility.yul\":4044:4110   */\n      tag_238\n        /* \"#utility.yul\":4106:4109   */\n      dup4\n        /* \"#utility.yul\":4098:4104   */\n      dup4\n        /* \"#utility.yul\":4044:4110   */\n      tag_239\n      jump\t// in\n    tag_238:\n        /* \"#utility.yul\":4030:4110   */\n      swap1\n      pop\n        /* \"#utility.yul\":3920:4116   */\n      swap3\n      swap2\n      pop\n      pop\n      jump\t// out\n        /* \"#utility.yul\":4122:4264   */\n    tag_240:\n        /* \"#utility.yul\":4225:4257   */\n      tag_242\n        /* \"#utility.yul\":4251:4256   */\n      dup2\n        /* \"#utility.yul\":4225:4257   */\n      tag_243\n      jump\t// in\n    tag_242:\n        /* \"#utility.yul\":4220:4223   */\n      dup3\n        /* \"#utility.yul\":4213:4258   */\n      mstore\n        /* \"#utility.yul\":4122:4264   */\n      pop\n      pop\n      jump\t// out\n        /* \"#utility.yul\":4270:4388   */\n    tag_244:\n        /* \"#utility.yul\":4357:4381   */\n      tag_246\n        /* \"#utility.yul\":4375:4380   */\n      dup2\n        /* \"#utility.yul\":4357:4381   */\n      tag_247\n      jump\t// in\n    tag_246:\n        /* \"#utility.yul\":4352:4355   */\n      dup3\n        /* \"#utility.yul\":4345:4382   */\n      mstore\n        /* \"#utility.yul\":4270:4388   */\n      pop\n      pop\n      jump\t// out\n        /* \"#utility.yul\":4422:5413   */\n    tag_248:\n        /* \"#utility.yul\":4561:4564   */\n      0x00\n        /* \"#utility.yul\":4590:4654   */\n      tag_250\n        /* \"#utility.yul\":4648:4653   */\n      dup3\n        /* \"#utility.yul\":4590:4654   */\n      tag_251\n      jump\t// in\n    tag_250:\n        /* \"#utility.yul\":4670:4766   */\n      tag_252\n        /* \"#utility.yul\":4759:4765   */\n      dup2\n        /* \"#utility.yul\":4754:4757   */\n      dup6\n        /* \"#utility.yul\":4670:4766   */\n      tag_253\n      jump\t// in\n    tag_252:\n        /* \"#utility.yul\":4663:4766   */\n      swap4\n      pop\n        /* \"#utility.yul\":4792:4795   */\n      dup4\n        /* \"#utility.yul\":4837:4841   */\n      0x20\n        /* \"#utility.yul\":4829:4835   */\n      dup3\n        /* \"#utility.yul\":4825:4842   */\n      mul\n        /* \"#utility.yul\":4820:4823   */\n      dup6\n        /* \"#utility.yul\":4816:4843   */\n      add\n        /* \"#utility.yul\":4867:4933   */\n      tag_254\n        /* \"#utility.yul\":4927:4932   */\n      dup6\n        /* \"#utility.yul\":4867:4933   */\n      tag_255\n      jump\t// in\n    tag_254:\n        /* \"#utility.yul\":4956:4963   */\n      dup1\n        /* \"#utility.yul\":4987:4988   */\n      0x00\n        /* \"#utility.yul\":4972:5368   */\n    tag_256:\n        /* \"#utility.yul\":4997:5003   */\n      dup6\n        /* \"#utility.yul\":4994:4995   */\n      dup2\n        /* \"#utility.yul\":4991:5004   */\n      lt\n        /* \"#utility.yul\":4972:5368   */\n      iszero\n      tag_258\n      jumpi\n        /* \"#utility.yul\":5068:5077   */\n      dup5\n        /* \"#utility.yul\":5062:5066   */\n      dup5\n        /* \"#utility.yul\":5058:5078   */\n      sub\n        /* \"#utility.yul\":5053:5056   */\n      dup10\n        /* \"#utility.yul\":5046:5079   */\n      mstore\n        /* \"#utility.yul\":5119:5125   */\n      dup2\n        /* \"#utility.yul\":5113:5126   */\n      mload\n        /* \"#utility.yul\":5147:5231   */\n      tag_259\n        /* \"#utility.yul\":5226:5230   */\n      dup6\n        /* \"#utility.yul\":5211:5224   */\n      dup3\n        /* \"#utility.yul\":5147:5231   */\n      tag_236\n      jump\t// in\n    tag_259:\n        /* \"#utility.yul\":5139:5231   */\n      swap5\n      pop\n        /* \"#utility.yul\":5254:5324   */\n      tag_260\n        /* \"#utility.yul\":5317:5323   */\n      dup4\n        /* \"#utility.yul\":5254:5324   */\n      tag_261\n      jump\t// in\n    tag_260:\n        /* \"#utility.yul\":5244:5324   */\n      swap3\n      pop\n        /* \"#utility.yul\":5353:5357   */\n      0x20\n        /* \"#utility.yul\":5348:5351   */\n      dup11\n        /* \"#utility.yul\":5344:5358   */\n      add\n        /* \"#utility.yul\":5337:5358   */\n      swap10\n      pop\n        /* \"#utility.yul\":5032:5368   */\n      pop\n        /* \"#utility.yul\":5019:5020   */\n      0x01\n        /* \"#utility.yul\":5016:5017   */\n      dup2\n        /* \"#utility.yul\":5012:5021   */\n      add\n        /* \"#utility.yul\":5007:5021   */\n      swap1\n      pop\n        /* \"#utility.yul\":4972:5368   */\n      jump(tag_256)\n    tag_258:\n        /* \"#utility.yul\":4976:4990   */\n      pop\n        /* \"#utility.yul\":5384:5388   */\n      dup3\n        /* \"#utility.yul\":5377:5388   */\n      swap8\n      pop\n        /* \"#utility.yul\":5404:5407   */\n      dup8\n        /* \"#utility.yul\":5397:5407   */\n      swap6\n      pop\n        /* \"#utility.yul\":4566:5413   */\n      pop\n      pop\n      pop\n      pop\n      pop\n        /* \"#utility.yul\":4422:5413   */\n      swap3\n      swap2\n      pop\n      pop\n      jump\t// out\n        /* \"#utility.yul\":5419:5528   */\n    tag_262:\n        /* \"#utility.yul\":5500:5521   */\n      tag_264\n        /* \"#utility.yul\":5515:5520   */\n      dup2\n        /* \"#utility.yul\":5500:5521   */\n      tag_265\n      jump\t// in\n    tag_264:\n        /* \"#utility.yul\":5495:5498   */\n      dup3\n        /* \"#utility.yul\":5488:5522   */\n      mstore\n        /* \"#utility.yul\":5419:5528   */\n      pop\n      pop\n      jump\t// out\n        /* \"#utility.yul\":5534:5878   */\n    tag_239:\n        /* \"#utility.yul\":5612:5615   */\n      0x00\n        /* \"#utility.yul\":5640:5679   */\n      tag_267\n        /* \"#utility.yul\":5673:5678   */\n      dup3\n        /* \"#utility.yul\":5640:5679   */\n      tag_268\n      jump\t// in\n    tag_267:\n        /* \"#utility.yul\":5695:5756   */\n      tag_269\n        /* \"#utility.yul\":5749:5755   */\n      dup2\n        /* \"#utility.yul\":5744:5747   */\n      dup6\n        /* \"#utility.yul\":5695:5756   */\n      tag_270\n      jump\t// in\n    tag_269:\n        /* \"#utility.yul\":5688:5756   */\n      swap4\n      pop\n        /* \"#utility.yul\":5765:5817   */\n      tag_271\n        /* \"#utility.yul\":5810:5816   */\n      dup2\n        /* \"#utility.yul\":5805:5808   */\n      dup6\n        /* \"#utility.yul\":5798:5802   */\n      0x20\n        /* \"#utility.yul\":5791:5796   */\n      dup7\n        /* \"#utility.yul\":5787:5803   */\n      add\n        /* \"#utility.yul\":5765:5817   */\n      tag_272\n      jump\t// in\n    tag_271:\n        /* \"#utility.yul\":5842:5871   */\n      tag_273\n        /* \"#utility.yul\":5864:5870   */\n      dup2\n        /* \"#utility.yul\":5842:5871   */\n      tag_274\n      jump\t// in\n    tag_273:\n        /* \"#utility.yul\":5837:5840   */\n      dup5\n        /* \"#utility.yul\":5833:5872   */\n      add\n        /* \"#utility.yul\":5826:5872   */\n      swap2\n      pop\n        /* \"#utility.yul\":5616:5878   */\n      pop\n        /* \"#utility.yul\":5534:5878   */\n      swap3\n      swap2\n      pop\n      pop\n      jump\t// out\n        /* \"#utility.yul\":5884:6248   */\n    tag_275:\n        /* \"#utility.yul\":5972:5975   */\n      0x00\n        /* \"#utility.yul\":6000:6039   */\n      tag_277\n        /* \"#utility.yul\":6033:6038   */\n      dup3\n        /* \"#utility.yul\":6000:6039   */\n      tag_268\n      jump\t// in\n    tag_277:\n        /* \"#utility.yul\":6055:6126   */\n      tag_278\n        /* \"#utility.yul\":6119:6125   */\n      dup2\n        /* \"#utility.yul\":6114:6117   */\n      dup6\n        /* \"#utility.yul\":6055:6126   */\n      tag_279\n      jump\t// in\n    tag_278:\n        /* \"#utility.yul\":6048:6126   */\n      swap4\n      pop\n        /* \"#utility.yul\":6135:6187   */\n      tag_280\n        /* \"#utility.yul\":6180:6186   */\n      dup2\n        /* \"#utility.yul\":6175:6178   */\n      dup6\n        /* \"#utility.yul\":6168:6172   */\n      0x20\n        /* \"#utility.yul\":6161:6166   */\n      dup7\n        /* \"#utility.yul\":6157:6173   */\n      add\n        /* \"#utility.yul\":6135:6187   */\n      tag_272\n      jump\t// in\n    tag_280:\n        /* \"#utility.yul\":6212:6241   */\n      tag_281\n        /* \"#utility.yul\":6234:6240   */\n      dup2\n        /* \"#utility.yul\":6212:6241   */\n      tag_274\n      jump\t// in\n    tag_281:\n        /* \"#utility.yul\":6207:6210   */\n      dup5\n        /* \"#utility.yul\":6203:6242   */\n      add\n        /* \"#utility.yul\":6196:6242   */\n      swap2\n      pop\n        /* \"#utility.yul\":5976:6248   */\n      pop\n        /* \"#utility.yul\":5884:6248   */\n      swap3\n      swap2\n      pop\n      pop\n      jump\t// out\n        /* \"#utility.yul\":6254:6631   */\n    tag_282:\n        /* \"#utility.yul\":6360:6363   */\n      0x00\n        /* \"#utility.yul\":6388:6427   */\n      tag_284\n        /* \"#utility.yul\":6421:6426   */\n      dup3\n        /* \"#utility.yul\":6388:6427   */\n      tag_268\n      jump\t// in\n    tag_284:\n        /* \"#utility.yul\":6443:6532   */\n      tag_285\n        /* \"#utility.yul\":6525:6531   */\n      dup2\n        /* \"#utility.yul\":6520:6523   */\n      dup6\n        /* \"#utility.yul\":6443:6532   */\n      tag_286\n      jump\t// in\n    tag_285:\n        /* \"#utility.yul\":6436:6532   */\n      swap4\n      pop\n        /* \"#utility.yul\":6541:6593   */\n      tag_287\n        /* \"#utility.yul\":6586:6592   */\n      dup2\n        /* \"#utility.yul\":6581:6584   */\n      dup6\n        /* \"#utility.yul\":6574:6578   */\n      0x20\n        /* \"#utility.yul\":6567:6572   */\n      dup7\n        /* \"#utility.yul\":6563:6579   */\n      add\n        /* \"#utility.yul\":6541:6593   */\n      tag_272\n      jump\t// in\n    tag_287:\n        /* \"#utility.yul\":6618:6624   */\n      dup1\n        /* \"#utility.yul\":6613:6616   */\n      dup5\n        /* \"#utility.yul\":6609:6625   */\n      add\n        /* \"#utility.yul\":6602:6625   */\n      swap2\n      pop\n        /* \"#utility.yul\":6364:6631   */\n      pop\n        /* \"#utility.yul\":6254:6631   */\n      swap3\n      swap2\n      pop\n      pop\n      jump\t// out\n        /* \"#utility.yul\":6661:7506   */\n    tag_288:\n        /* \"#utility.yul\":6764:6767   */\n      0x00\n        /* \"#utility.yul\":6801:6806   */\n      dup2\n        /* \"#utility.yul\":6795:6807   */\n      sload\n        /* \"#utility.yul\":6830:6866   */\n      tag_290\n        /* \"#utility.yul\":6856:6865   */\n      dup2\n        /* \"#utility.yul\":6830:6866   */\n      tag_67\n      jump\t// in\n    tag_290:\n        /* \"#utility.yul\":6882:6971   */\n      tag_291\n        /* \"#utility.yul\":6964:6970   */\n      dup2\n        /* \"#utility.yul\":6959:6962   */\n      dup7\n        /* \"#utility.yul\":6882:6971   */\n      tag_286\n      jump\t// in\n    tag_291:\n        /* \"#utility.yul\":6875:6971   */\n      swap5\n      pop\n        /* \"#utility.yul\":7002:7003   */\n      0x01\n        /* \"#utility.yul\":6991:7000   */\n      dup3\n        /* \"#utility.yul\":6987:7004   */\n      and\n        /* \"#utility.yul\":7018:7019   */\n      0x00\n        /* \"#utility.yul\":7013:7150   */\n      dup2\n      eq\n      tag_293\n      jumpi\n        /* \"#utility.yul\":7164:7165   */\n      0x01\n        /* \"#utility.yul\":7159:7500   */\n      dup2\n      eq\n      tag_294\n      jumpi\n        /* \"#utility.yul\":6980:7500   */\n      jump(tag_292)\n        /* \"#utility.yul\":7013:7150   */\n    tag_293:\n        /* \"#utility.yul\":7097:7101   */\n      0xff\n        /* \"#utility.yul\":7093:7102   */\n      not\n        /* \"#utility.yul\":7082:7091   */\n      dup4\n        /* \"#utility.yul\":7078:7103   */\n      and\n        /* \"#utility.yul\":7073:7076   */\n      dup7\n        /* \"#utility.yul\":7066:7104   */\n      mstore\n        /* \"#utility.yul\":7133:7139   */\n      dup2\n        /* \"#utility.yul\":7128:7131   */\n      dup7\n        /* \"#utility.yul\":7124:7140   */\n      add\n        /* \"#utility.yul\":7117:7140   */\n      swap4\n      pop\n        /* \"#utility.yul\":7013:7150   */\n      jump(tag_292)\n        /* \"#utility.yul\":7159:7500   */\n    tag_294:\n        /* \"#utility.yul\":7226:7264   */\n      tag_295\n        /* \"#utility.yul\":7258:7263   */\n      dup6\n        /* \"#utility.yul\":7226:7264   */\n      tag_296\n      jump\t// in\n    tag_295:\n        /* \"#utility.yul\":7286:7287   */\n      0x00\n        /* \"#utility.yul\":7300:7454   */\n    tag_297:\n        /* \"#utility.yul\":7314:7320   */\n      dup4\n        /* \"#utility.yul\":7311:7312   */\n      dup2\n        /* \"#utility.yul\":7308:7321   */\n      lt\n        /* \"#utility.yul\":7300:7454   */\n      iszero\n      tag_299\n      jumpi\n        /* \"#utility.yul\":7388:7395   */\n      dup2\n        /* \"#utility.yul\":7382:7396   */\n      sload\n        /* \"#utility.yul\":7378:7379   */\n      dup2\n        /* \"#utility.yul\":7373:7376   */\n      dup10\n        /* \"#utility.yul\":7369:7380   */\n      add\n        /* \"#utility.yul\":7362:7397   */\n      mstore\n        /* \"#utility.yul\":7438:7439   */\n      0x01\n        /* \"#utility.yul\":7429:7436   */\n      dup3\n        /* \"#utility.yul\":7425:7440   */\n      add\n        /* \"#utility.yul\":7414:7440   */\n      swap2\n      pop\n        /* \"#utility.yul\":7336:7340   */\n      0x20\n        /* \"#utility.yul\":7333:7334   */\n      dup2\n        /* \"#utility.yul\":7329:7341   */\n      add\n        /* \"#utility.yul\":7324:7341   */\n      swap1\n      pop\n        /* \"#utility.yul\":7300:7454   */\n      jump(tag_297)\n    tag_299:\n        /* \"#utility.yul\":7483:7489   */\n      dup4\n        /* \"#utility.yul\":7478:7481   */\n      dup9\n        /* \"#utility.yul\":7474:7490   */\n      add\n        /* \"#utility.yul\":7467:7490   */\n      swap6\n      pop\n        /* \"#utility.yul\":7166:7500   */\n      pop\n      pop\n        /* \"#utility.yul\":6980:7500   */\n    tag_292:\n      pop\n        /* \"#utility.yul\":6768:7506   */\n      pop\n      pop\n        /* \"#utility.yul\":6661:7506   */\n      swap3\n      swap2\n      pop\n      pop\n      jump\t// out\n        /* \"#utility.yul\":7512:7878   */\n    tag_300:\n        /* \"#utility.yul\":7654:7657   */\n      0x00\n        /* \"#utility.yul\":7675:7742   */\n      tag_302\n        /* \"#utility.yul\":7739:7741   */\n      0x1c\n        /* \"#utility.yul\":7734:7737   */\n      dup4\n        /* \"#utility.yul\":7675:7742   */\n      tag_279\n      jump\t// in\n    tag_302:\n        /* \"#utility.yul\":7668:7742   */\n      swap2\n      pop\n        /* \"#utility.yul\":7751:7844   */\n      tag_303\n        /* \"#utility.yul\":7840:7843   */\n      dup3\n        /* \"#utility.yul\":7751:7844   */\n      tag_304\n      jump\t// in\n    tag_303:\n        /* \"#utility.yul\":7869:7871   */\n      0x20\n        /* \"#utility.yul\":7864:7867   */\n      dup3\n        /* \"#utility.yul\":7860:7872   */\n      add\n        /* \"#utility.yul\":7853:7872   */\n      swap1\n      pop\n        /* \"#utility.yul\":7512:7878   */\n      swap2\n      swap1\n      pop\n      jump\t// out\n        /* \"#utility.yul\":7884:8250   */\n    tag_305:\n        /* \"#utility.yul\":8026:8029   */\n      0x00\n        /* \"#utility.yul\":8047:8114   */\n      tag_307\n        /* \"#utility.yul\":8111:8113   */\n      0x2d\n        /* \"#utility.yul\":8106:8109   */\n      dup4\n        /* \"#utility.yul\":8047:8114   */\n      tag_279\n      jump\t// in\n    tag_307:\n        /* \"#utility.yul\":8040:8114   */\n      swap2\n      pop\n        /* \"#utility.yul\":8123:8216   */\n      tag_308\n        /* \"#utility.yul\":8212:8215   */\n      dup3\n        /* \"#utility.yul\":8123:8216   */\n      tag_309\n      jump\t// in\n    tag_308:\n        /* \"#utility.yul\":8241:8243   */\n      0x40\n        /* \"#utility.yul\":8236:8239   */\n      dup3\n        /* \"#utility.yul\":8232:8244   */\n      add\n        /* \"#utility.yul\":8225:8244   */\n      swap1\n      pop\n        /* \"#utility.yul\":7884:8250   */\n      swap2\n      swap1\n      pop\n      jump\t// out\n        /* \"#utility.yul\":8256:8622   */\n    tag_310:\n        /* \"#utility.yul\":8398:8401   */\n      0x00\n        /* \"#utility.yul\":8419:8486   */\n      tag_312\n        /* \"#utility.yul\":8483:8485   */\n      0x2a\n        /* \"#utility.yul\":8478:8481   */\n      dup4\n        /* \"#utility.yul\":8419:8486   */\n      tag_279\n      jump\t// in\n    tag_312:\n        /* \"#utility.yul\":8412:8486   */\n      swap2\n      pop\n        /* \"#utility.yul\":8495:8588   */\n      tag_313\n        /* \"#utility.yul\":8584:8587   */\n      dup3\n        /* \"#utility.yul\":8495:8588   */\n      tag_314\n      jump\t// in\n    tag_313:\n        /* \"#utility.yul\":8613:8615   */\n      0x40\n        /* \"#utility.yul\":8608:8611   */\n      dup3\n        /* \"#utility.yul\":8604:8616   */\n      add\n        /* \"#utility.yul\":8597:8616   */\n      swap1\n      pop\n        /* \"#utility.yul\":8256:8622   */\n      swap2\n      swap1\n      pop\n      jump\t// out\n        /* \"#utility.yul\":8628:8994   */\n    tag_315:\n        /* \"#utility.yul\":8770:8773   */\n      0x00\n        /* \"#utility.yul\":8791:8858   */\n      tag_317\n        /* \"#utility.yul\":8855:8857   */\n      0x20\n        /* \"#utility.yul\":8850:8853   */\n      dup4\n        /* \"#utility.yul\":8791:8858   */\n      tag_279\n      jump\t// in\n    tag_317:\n        /* \"#utility.yul\":8784:8858   */\n      swap2\n      pop\n        /* \"#utility.yul\":8867:8960   */\n      tag_318\n        /* \"#utility.yul\":8956:8959   */\n      dup3\n        /* \"#utility.yul\":8867:8960   */\n      tag_319\n      jump\t// in\n    tag_318:\n        /* \"#utility.yul\":8985:8987   */\n      0x20\n        /* \"#utility.yul\":8980:8983   */\n      dup3\n        /* \"#utility.yul\":8976:8988   */\n      add\n        /* \"#utility.yul\":8969:8988   */\n      swap1\n      pop\n        /* \"#utility.yul\":8628:8994   */\n      swap2\n      swap1\n      pop\n      jump\t// out\n        /* \"#utility.yul\":9000:9118   */\n    tag_320:\n        /* \"#utility.yul\":9087:9111   */\n      tag_322\n        /* \"#utility.yul\":9105:9110   */\n      dup2\n        /* \"#utility.yul\":9087:9111   */\n      tag_323\n      jump\t// in\n    tag_322:\n        /* \"#utility.yul\":9082:9085   */\n      dup3\n        /* \"#utility.yul\":9075:9112   */\n      mstore\n        /* \"#utility.yul\":9000:9118   */\n      pop\n      pop\n      jump\t// out\n        /* \"#utility.yul\":9124:9399   */\n    tag_78:\n        /* \"#utility.yul\":9256:9259   */\n      0x00\n        /* \"#utility.yul\":9278:9373   */\n      tag_325\n        /* \"#utility.yul\":9369:9372   */\n      dup3\n        /* \"#utility.yul\":9360:9366   */\n      dup5\n        /* \"#utility.yul\":9278:9373   */\n      tag_282\n      jump\t// in\n    tag_325:\n        /* \"#utility.yul\":9271:9373   */\n      swap2\n      pop\n        /* \"#utility.yul\":9390:9393   */\n      dup2\n        /* \"#utility.yul\":9383:9393   */\n      swap1\n      pop\n        /* \"#utility.yul\":9124:9399   */\n      swap3\n      swap2\n      pop\n      pop\n      jump\t// out\n        /* \"#utility.yul\":9405:9674   */\n    tag_137:\n        /* \"#utility.yul\":9534:9537   */\n      0x00\n        /* \"#utility.yul\":9556:9648   */\n      tag_327\n        /* \"#utility.yul\":9644:9647   */\n      dup3\n        /* \"#utility.yul\":9635:9641   */\n      dup5\n        /* \"#utility.yul\":9556:9648   */\n      tag_288\n      jump\t// in\n    tag_327:\n        /* \"#utility.yul\":9549:9648   */\n      swap2\n      pop\n        /* \"#utility.yul\":9665:9668   */\n      dup2\n        /* \"#utility.yul\":9658:9668   */\n      swap1\n      pop\n        /* \"#utility.yul\":9405:9674   */\n      swap3\n      swap2\n      pop\n      pop\n      jump\t// out\n        /* \"#utility.yul\":9680:9902   */\n    tag_110:\n        /* \"#utility.yul\":9773:9777   */\n      0x00\n        /* \"#utility.yul\":9811:9813   */\n      0x20\n        /* \"#utility.yul\":9800:9809   */\n      dup3\n        /* \"#utility.yul\":9796:9814   */\n      add\n        /* \"#utility.yul\":9788:9814   */\n      swap1\n      pop\n        /* \"#utility.yul\":9824:9895   */\n      tag_329\n        /* \"#utility.yul\":9892:9893   */\n      0x00\n        /* \"#utility.yul\":9881:9890   */\n      dup4\n        /* \"#utility.yul\":9877:9894   */\n      add\n        /* \"#utility.yul\":9868:9874   */\n      dup5\n        /* \"#utility.yul\":9824:9895   */\n      tag_244\n      jump\t// in\n    tag_329:\n        /* \"#utility.yul\":9680:9902   */\n      swap3\n      swap2\n      pop\n      pop\n      jump\t// out\n        /* \"#utility.yul\":9908:10162   */\n    tag_36:\n        /* \"#utility.yul\":10017:10021   */\n      0x00\n        /* \"#utility.yul\":10055:10057   */\n      0x20\n        /* \"#utility.yul\":10044:10053   */\n      dup3\n        /* \"#utility.yul\":10040:10058   */\n      add\n        /* \"#utility.yul\":10032:10058   */\n      swap1\n      pop\n        /* \"#utility.yul\":10068:10155   */\n      tag_331\n        /* \"#utility.yul\":10152:10153   */\n      0x00\n        /* \"#utility.yul\":10141:10150   */\n      dup4\n        /* \"#utility.yul\":10137:10154   */\n      add\n        /* \"#utility.yul\":10128:10134   */\n      dup5\n        /* \"#utility.yul\":10068:10155   */\n      tag_240\n      jump\t// in\n    tag_331:\n        /* \"#utility.yul\":9908:10162   */\n      swap3\n      swap2\n      pop\n      pop\n      jump\t// out\n        /* \"#utility.yul\":10168:10500   */\n    tag_100:\n        /* \"#utility.yul\":10289:10293   */\n      0x00\n        /* \"#utility.yul\":10327:10329   */\n      0x40\n        /* \"#utility.yul\":10316:10325   */\n      dup3\n        /* \"#utility.yul\":10312:10330   */\n      add\n        /* \"#utility.yul\":10304:10330   */\n      swap1\n      pop\n        /* \"#utility.yul\":10340:10411   */\n      tag_333\n        /* \"#utility.yul\":10408:10409   */\n      0x00\n        /* \"#utility.yul\":10397:10406   */\n      dup4\n        /* \"#utility.yul\":10393:10410   */\n      add\n        /* \"#utility.yul\":10384:10390   */\n      dup6\n        /* \"#utility.yul\":10340:10411   */\n      tag_244\n      jump\t// in\n    tag_333:\n        /* \"#utility.yul\":10421:10493   */\n      tag_334\n        /* \"#utility.yul\":10489:10491   */\n      0x20\n        /* \"#utility.yul\":10478:10487   */\n      dup4\n        /* \"#utility.yul\":10474:10492   */\n      add\n        /* \"#utility.yul\":10465:10471   */\n      dup5\n        /* \"#utility.yul\":10421:10493   */\n      tag_320\n      jump\t// in\n    tag_334:\n        /* \"#utility.yul\":10168:10500   */\n      swap4\n      swap3\n      pop\n      pop\n      pop\n      jump\t// out\n        /* \"#utility.yul\":10506:10919   */\n    tag_17:\n        /* \"#utility.yul\":10669:10673   */\n      0x00\n        /* \"#utility.yul\":10707:10709   */\n      0x20\n        /* \"#utility.yul\":10696:10705   */\n      dup3\n        /* \"#utility.yul\":10692:10710   */\n      add\n        /* \"#utility.yul\":10684:10710   */\n      swap1\n      pop\n        /* \"#utility.yul\":10756:10765   */\n      dup2\n        /* \"#utility.yul\":10750:10754   */\n      dup2\n        /* \"#utility.yul\":10746:10766   */\n      sub\n        /* \"#utility.yul\":10742:10743   */\n      0x00\n        /* \"#utility.yul\":10731:10740   */\n      dup4\n        /* \"#utility.yul\":10727:10744   */\n      add\n        /* \"#utility.yul\":10720:10767   */\n      mstore\n        /* \"#utility.yul\":10784:10912   */\n      tag_336\n        /* \"#utility.yul\":10907:10911   */\n      dup2\n        /* \"#utility.yul\":10898:10904   */\n      dup5\n        /* \"#utility.yul\":10784:10912   */\n      tag_248\n      jump\t// in\n    tag_336:\n        /* \"#utility.yul\":10776:10912   */\n      swap1\n      pop\n        /* \"#utility.yul\":10506:10919   */\n      swap3\n      swap2\n      pop\n      pop\n      jump\t// out\n        /* \"#utility.yul\":10925:11238   */\n    tag_147:\n        /* \"#utility.yul\":11038:11042   */\n      0x00\n        /* \"#utility.yul\":11076:11078   */\n      0x20\n        /* \"#utility.yul\":11065:11074   */\n      dup3\n        /* \"#utility.yul\":11061:11079   */\n      add\n        /* \"#utility.yul\":11053:11079   */\n      swap1\n      pop\n        /* \"#utility.yul\":11125:11134   */\n      dup2\n        /* \"#utility.yul\":11119:11123   */\n      dup2\n        /* \"#utility.yul\":11115:11135   */\n      sub\n        /* \"#utility.yul\":11111:11112   */\n      0x00\n        /* \"#utility.yul\":11100:11109   */\n      dup4\n        /* \"#utility.yul\":11096:11113   */\n      add\n        /* \"#utility.yul\":11089:11136   */\n      mstore\n        /* \"#utility.yul\":11153:11231   */\n      tag_338\n        /* \"#utility.yul\":11226:11230   */\n      dup2\n        /* \"#utility.yul\":11217:11223   */\n      dup5\n        /* \"#utility.yul\":11153:11231   */\n      tag_275\n      jump\t// in\n    tag_338:\n        /* \"#utility.yul\":11145:11231   */\n      swap1\n      pop\n        /* \"#utility.yul\":10925:11238   */\n      swap3\n      swap2\n      pop\n      pop\n      jump\t// out\n        /* \"#utility.yul\":11244:11667   */\n    tag_84:\n        /* \"#utility.yul\":11385:11389   */\n      0x00\n        /* \"#utility.yul\":11423:11425   */\n      0x40\n        /* \"#utility.yul\":11412:11421   */\n      dup3\n        /* \"#utility.yul\":11408:11426   */\n      add\n        /* \"#utility.yul\":11400:11426   */\n      swap1\n      pop\n        /* \"#utility.yul\":11472:11481   */\n      dup2\n        /* \"#utility.yul\":11466:11470   */\n      dup2\n        /* \"#utility.yul\":11462:11482   */\n      sub\n        /* \"#utility.yul\":11458:11459   */\n      0x00\n        /* \"#utility.yul\":11447:11456   */\n      dup4\n        /* \"#utility.yul\":11443:11460   */\n      add\n        /* \"#utility.yul\":11436:11483   */\n      mstore\n        /* \"#utility.yul\":11500:11578   */\n      tag_340\n        /* \"#utility.yul\":11573:11577   */\n      dup2\n        /* \"#utility.yul\":11564:11570   */\n      dup6\n        /* \"#utility.yul\":11500:11578   */\n      tag_275\n      jump\t// in\n    tag_340:\n        /* \"#utility.yul\":11492:11578   */\n      swap1\n      pop\n        /* \"#utility.yul\":11588:11660   */\n      tag_341\n        /* \"#utility.yul\":11656:11658   */\n      0x20\n        /* \"#utility.yul\":11645:11654   */\n      dup4\n        /* \"#utility.yul\":11641:11659   */\n      add\n        /* \"#utility.yul\":11632:11638   */\n      dup5\n        /* \"#utility.yul\":11588:11660   */\n      tag_320\n      jump\t// in\n    tag_341:\n        /* \"#utility.yul\":11244:11667   */\n      swap4\n      swap3\n      pop\n      pop\n      pop\n      jump\t// out\n        /* \"#utility.yul\":11673:12194   */\n    tag_61:\n        /* \"#utility.yul\":11836:11840   */\n      0x00\n        /* \"#utility.yul\":11874:11876   */\n      0x60\n        /* \"#utility.yul\":11863:11872   */\n      dup3\n        /* \"#utility.yul\":11859:11877   */\n      add\n        /* \"#utility.yul\":11851:11877   */\n      swap1\n      pop\n        /* \"#utility.yul\":11923:11932   */\n      dup2\n        /* \"#utility.yul\":11917:11921   */\n      dup2\n        /* \"#utility.yul\":11913:11933   */\n      sub\n        /* \"#utility.yul\":11909:11910   */\n      0x00\n        /* \"#utility.yul\":11898:11907   */\n      dup4\n        /* \"#utility.yul\":11894:11911   */\n      add\n        /* \"#utility.yul\":11887:11934   */\n      mstore\n        /* \"#utility.yul\":11951:12029   */\n      tag_343\n        /* \"#utility.yul\":12024:12028   */\n      dup2\n        /* \"#utility.yul\":12015:12021   */\n      dup7\n        /* \"#utility.yul\":11951:12029   */\n      tag_275\n      jump\t// in\n    tag_343:\n        /* \"#utility.yul\":11943:12029   */\n      swap1\n      pop\n        /* \"#utility.yul\":12039:12111   */\n      tag_344\n        /* \"#utility.yul\":12107:12109   */\n      0x20\n        /* \"#utility.yul\":12096:12105   */\n      dup4\n        /* \"#utility.yul\":12092:12110   */\n      add\n        /* \"#utility.yul\":12083:12089   */\n      dup6\n        /* \"#utility.yul\":12039:12111   */\n      tag_320\n      jump\t// in\n    tag_344:\n        /* \"#utility.yul\":12121:12187   */\n      tag_345\n        /* \"#utility.yul\":12183:12185   */\n      0x40\n        /* \"#utility.yul\":12172:12181   */\n      dup4\n        /* \"#utility.yul\":12168:12186   */\n      add\n        /* \"#utility.yul\":12159:12165   */\n      dup5\n        /* \"#utility.yul\":12121:12187   */\n      tag_262\n      jump\t// in\n    tag_345:\n        /* \"#utility.yul\":11673:12194   */\n      swap5\n      swap4\n      pop\n      pop\n      pop\n      pop\n      jump\t// out\n        /* \"#utility.yul\":12200:12619   */\n    tag_143:\n        /* \"#utility.yul\":12366:12370   */\n      0x00\n        /* \"#utility.yul\":12404:12406   */\n      0x20\n        /* \"#utility.yul\":12393:12402   */\n      dup3\n        /* \"#utility.yul\":12389:12407   */\n      add\n        /* \"#utility.yul\":12381:12407   */\n      swap1\n      pop\n        /* \"#utility.yul\":12453:12462   */\n      dup2\n        /* \"#utility.yul\":12447:12451   */\n      dup2\n        /* \"#utility.yul\":12443:12463   */\n      sub\n        /* \"#utility.yul\":12439:12440   */\n      0x00\n        /* \"#utility.yul\":12428:12437   */\n      dup4\n        /* \"#utility.yul\":12424:12441   */\n      add\n        /* \"#utility.yul\":12417:12464   */\n      mstore\n        /* \"#utility.yul\":12481:12612   */\n      tag_347\n        /* \"#utility.yul\":12607:12611   */\n      dup2\n        /* \"#utility.yul\":12481:12612   */\n      tag_300\n      jump\t// in\n    tag_347:\n        /* \"#utility.yul\":12473:12612   */\n      swap1\n      pop\n        /* \"#utility.yul\":12200:12619   */\n      swap2\n      swap1\n      pop\n      jump\t// out\n        /* \"#utility.yul\":12625:13044   */\n    tag_75:\n        /* \"#utility.yul\":12791:12795   */\n      0x00\n        /* \"#utility.yul\":12829:12831   */\n      0x20\n        /* \"#utility.yul\":12818:12827   */\n      dup3\n        /* \"#utility.yul\":12814:12832   */\n      add\n        /* \"#utility.yul\":12806:12832   */\n      swap1\n      pop\n        /* \"#utility.yul\":12878:12887   */\n      dup2\n        /* \"#utility.yul\":12872:12876   */\n      dup2\n        /* \"#utility.yul\":12868:12888   */\n      sub\n        /* \"#utility.yul\":12864:12865   */\n      0x00\n        /* \"#utility.yul\":12853:12862   */\n      dup4\n        /* \"#utility.yul\":12849:12866   */\n      add\n        /* \"#utility.yul\":12842:12889   */\n      mstore\n        /* \"#utility.yul\":12906:13037   */\n      tag_349\n        /* \"#utility.yul\":13032:13036   */\n      dup2\n        /* \"#utility.yul\":12906:13037   */\n      tag_305\n      jump\t// in\n    tag_349:\n        /* \"#utility.yul\":12898:13037   */\n      swap1\n      pop\n        /* \"#utility.yul\":12625:13044   */\n      swap2\n      swap1\n      pop\n      jump\t// out\n        /* \"#utility.yul\":13050:13469   */\n    tag_90:\n        /* \"#utility.yul\":13216:13220   */\n      0x00\n        /* \"#utility.yul\":13254:13256   */\n      0x20\n        /* \"#utility.yul\":13243:13252   */\n      dup3\n        /* \"#utility.yul\":13239:13257   */\n      add\n        /* \"#utility.yul\":13231:13257   */\n      swap1\n      pop\n        /* \"#utility.yul\":13303:13312   */\n      dup2\n        /* \"#utility.yul\":13297:13301   */\n      dup2\n        /* \"#utility.yul\":13293:13313   */\n      sub\n        /* \"#utility.yul\":13289:13290   */\n      0x00\n        /* \"#utility.yul\":13278:13287   */\n      dup4\n        /* \"#utility.yul\":13274:13291   */\n      add\n        /* \"#utility.yul\":13267:13314   */\n      mstore\n        /* \"#utility.yul\":13331:13462   */\n      tag_351\n        /* \"#utility.yul\":13457:13461   */\n      dup2\n        /* \"#utility.yul\":13331:13462   */\n      tag_310\n      jump\t// in\n    tag_351:\n        /* \"#utility.yul\":13323:13462   */\n      swap1\n      pop\n        /* \"#utility.yul\":13050:13469   */\n      swap2\n      swap1\n      pop\n      jump\t// out\n        /* \"#utility.yul\":13475:13894   */\n    tag_98:\n        /* \"#utility.yul\":13641:13645   */\n      0x00\n        /* \"#utility.yul\":13679:13681   */\n      0x20\n        /* \"#utility.yul\":13668:13677   */\n      dup3\n        /* \"#utility.yul\":13664:13682   */\n      add\n        /* \"#utility.yul\":13656:13682   */\n      swap1\n      pop\n        /* \"#utility.yul\":13728:13737   */\n      dup2\n        /* \"#utility.yul\":13722:13726   */\n      dup2\n        /* \"#utility.yul\":13718:13738   */\n      sub\n        /* \"#utility.yul\":13714:13715   */\n      0x00\n        /* \"#utility.yul\":13703:13712   */\n      dup4\n        /* \"#utility.yul\":13699:13716   */\n      add\n        /* \"#utility.yul\":13692:13739   */\n      mstore\n        /* \"#utility.yul\":13756:13887   */\n      tag_353\n        /* \"#utility.yul\":13882:13886   */\n      dup2\n        /* \"#utility.yul\":13756:13887   */\n      tag_315\n      jump\t// in\n    tag_353:\n        /* \"#utility.yul\":13748:13887   */\n      swap1\n      pop\n        /* \"#utility.yul\":13475:13894   */\n      swap2\n      swap1\n      pop\n      jump\t// out\n        /* \"#utility.yul\":13900:14122   */\n    tag_31:\n        /* \"#utility.yul\":13993:13997   */\n      0x00\n        /* \"#utility.yul\":14031:14033   */\n      0x20\n        /* \"#utility.yul\":14020:14029   */\n      dup3\n        /* \"#utility.yul\":14016:14034   */\n      add\n        /* \"#utility.yul\":14008:14034   */\n      swap1\n      pop\n        /* \"#utility.yul\":14044:14115   */\n      tag_355\n        /* \"#utility.yul\":14112:14113   */\n      0x00\n        /* \"#utility.yul\":14101:14110   */\n      dup4\n        /* \"#utility.yul\":14097:14114   */\n      add\n        /* \"#utility.yul\":14088:14094   */\n      dup5\n        /* \"#utility.yul\":14044:14115   */\n      tag_320\n      jump\t// in\n    tag_355:\n        /* \"#utility.yul\":13900:14122   */\n      swap3\n      swap2\n      pop\n      pop\n      jump\t// out\n        /* \"#utility.yul\":14128:14257   */\n    tag_178:\n        /* \"#utility.yul\":14162:14168   */\n      0x00\n        /* \"#utility.yul\":14189:14209   */\n      tag_357\n      tag_358\n      jump\t// in\n    tag_357:\n        /* \"#utility.yul\":14179:14209   */\n      swap1\n      pop\n        /* \"#utility.yul\":14218:14251   */\n      tag_359\n        /* \"#utility.yul\":14246:14250   */\n      dup3\n        /* \"#utility.yul\":14238:14244   */\n      dup3\n        /* \"#utility.yul\":14218:14251   */\n      tag_360\n      jump\t// in\n    tag_359:\n        /* \"#utility.yul\":14128:14257   */\n      swap2\n      swap1\n      pop\n      jump\t// out\n        /* \"#utility.yul\":14263:14338   */\n    tag_358:\n        /* \"#utility.yul\":14296:14302   */\n      0x00\n        /* \"#utility.yul\":14329:14331   */\n      0x40\n        /* \"#utility.yul\":14323:14332   */\n      mload\n        /* \"#utility.yul\":14313:14332   */\n      swap1\n      pop\n        /* \"#utility.yul\":14263:14338   */\n      swap1\n      jump\t// out\n        /* \"#utility.yul\":14344:14652   */\n    tag_177:\n        /* \"#utility.yul\":14406:14410   */\n      0x00\n        /* \"#utility.yul\":14496:14514   */\n      0xffffffffffffffff\n        /* \"#utility.yul\":14488:14494   */\n      dup3\n        /* \"#utility.yul\":14485:14515   */\n      gt\n        /* \"#utility.yul\":14482:14538   */\n      iszero\n      tag_363\n      jumpi\n        /* \"#utility.yul\":14518:14536   */\n      tag_364\n      tag_365\n      jump\t// in\n    tag_364:\n        /* \"#utility.yul\":14482:14538   */\n    tag_363:\n        /* \"#utility.yul\":14556:14585   */\n      tag_366\n        /* \"#utility.yul\":14578:14584   */\n      dup3\n        /* \"#utility.yul\":14556:14585   */\n      tag_274\n      jump\t// in\n    tag_366:\n        /* \"#utility.yul\":14548:14585   */\n      swap1\n      pop\n        /* \"#utility.yul\":14640:14644   */\n      0x20\n        /* \"#utility.yul\":14634:14638   */\n      dup2\n        /* \"#utility.yul\":14630:14645   */\n      add\n        /* \"#utility.yul\":14622:14645   */\n      swap1\n      pop\n        /* \"#utility.yul\":14344:14652   */\n      swap2\n      swap1\n      pop\n      jump\t// out\n        /* \"#utility.yul\":14658:14800   */\n    tag_255:\n        /* \"#utility.yul\":14735:14739   */\n      0x00\n        /* \"#utility.yul\":14758:14761   */\n      dup2\n        /* \"#utility.yul\":14750:14761   */\n      swap1\n      pop\n        /* \"#utility.yul\":14788:14792   */\n      0x20\n        /* \"#utility.yul\":14783:14786   */\n      dup3\n        /* \"#utility.yul\":14779:14793   */\n      add\n        /* \"#utility.yul\":14771:14793   */\n      swap1\n      pop\n        /* \"#utility.yul\":14658:14800   */\n      swap2\n      swap1\n      pop\n      jump\t// out\n        /* \"#utility.yul\":14806:14947   */\n    tag_296:\n        /* \"#utility.yul\":14855:14859   */\n      0x00\n        /* \"#utility.yul\":14878:14881   */\n      dup2\n        /* \"#utility.yul\":14870:14881   */\n      swap1\n      pop\n        /* \"#utility.yul\":14901:14904   */\n      dup2\n        /* \"#utility.yul\":14898:14899   */\n      0x00\n        /* \"#utility.yul\":14891:14905   */\n      mstore\n        /* \"#utility.yul\":14935:14939   */\n      0x20\n        /* \"#utility.yul\":14932:14933   */\n      0x00\n        /* \"#utility.yul\":14922:14940   */\n      keccak256\n        /* \"#utility.yul\":14914:14940   */\n      swap1\n      pop\n        /* \"#utility.yul\":14806:14947   */\n      swap2\n      swap1\n      pop\n      jump\t// out\n        /* \"#utility.yul\":14953:15077   */\n    tag_251:\n        /* \"#utility.yul\":15030:15036   */\n      0x00\n        /* \"#utility.yul\":15064:15069   */\n      dup2\n        /* \"#utility.yul\":15058:15070   */\n      mload\n        /* \"#utility.yul\":15048:15070   */\n      swap1\n      pop\n        /* \"#utility.yul\":14953:15077   */\n      swap2\n      swap1\n      pop\n      jump\t// out\n        /* \"#utility.yul\":15083:15182   */\n    tag_268:\n        /* \"#utility.yul\":15135:15141   */\n      0x00\n        /* \"#utility.yul\":15169:15174   */\n      dup2\n        /* \"#utility.yul\":15163:15175   */\n      mload\n        /* \"#utility.yul\":15153:15175   */\n      swap1\n      pop\n        /* \"#utility.yul\":15083:15182   */\n      swap2\n      swap1\n      pop\n      jump\t// out\n        /* \"#utility.yul\":15188:15311   */\n    tag_261:\n        /* \"#utility.yul\":15268:15272   */\n      0x00\n        /* \"#utility.yul\":15300:15304   */\n      0x20\n        /* \"#utility.yul\":15295:15298   */\n      dup3\n        /* \"#utility.yul\":15291:15305   */\n      add\n        /* \"#utility.yul\":15283:15305   */\n      swap1\n      pop\n        /* \"#utility.yul\":15188:15311   */\n      swap2\n      swap1\n      pop\n      jump\t// out\n        /* \"#utility.yul\":15317:15511   */\n    tag_253:\n        /* \"#utility.yul\":15426:15437   */\n      0x00\n        /* \"#utility.yul\":15460:15466   */\n      dup3\n        /* \"#utility.yul\":15455:15458   */\n      dup3\n        /* \"#utility.yul\":15448:15467   */\n      mstore\n        /* \"#utility.yul\":15500:15504   */\n      0x20\n        /* \"#utility.yul\":15495:15498   */\n      dup3\n        /* \"#utility.yul\":15491:15505   */\n      add\n        /* \"#utility.yul\":15476:15505   */\n      swap1\n      pop\n        /* \"#utility.yul\":15317:15511   */\n      swap3\n      swap2\n      pop\n      pop\n      jump\t// out\n        /* \"#utility.yul\":15517:15676   */\n    tag_270:\n        /* \"#utility.yul\":15591:15602   */\n      0x00\n        /* \"#utility.yul\":15625:15631   */\n      dup3\n        /* \"#utility.yul\":15620:15623   */\n      dup3\n        /* \"#utility.yul\":15613:15632   */\n      mstore\n        /* \"#utility.yul\":15665:15669   */\n      0x20\n        /* \"#utility.yul\":15660:15663   */\n      dup3\n        /* \"#utility.yul\":15656:15670   */\n      add\n        /* \"#utility.yul\":15641:15670   */\n      swap1\n      pop\n        /* \"#utility.yul\":15517:15676   */\n      swap3\n      swap2\n      pop\n      pop\n      jump\t// out\n        /* \"#utility.yul\":15682:15851   */\n    tag_279:\n        /* \"#utility.yul\":15766:15777   */\n      0x00\n        /* \"#utility.yul\":15800:15806   */\n      dup3\n        /* \"#utility.yul\":15795:15798   */\n      dup3\n        /* \"#utility.yul\":15788:15807   */\n      mstore\n        /* \"#utility.yul\":15840:15844   */\n      0x20\n        /* \"#utility.yul\":15835:15838   */\n      dup3\n        /* \"#utility.yul\":15831:15845   */\n      add\n        /* \"#utility.yul\":15816:15845   */\n      swap1\n      pop\n        /* \"#utility.yul\":15682:15851   */\n      swap3\n      swap2\n      pop\n      pop\n      jump\t// out\n        /* \"#utility.yul\":15857:16005   */\n    tag_286:\n        /* \"#utility.yul\":15959:15970   */\n      0x00\n        /* \"#utility.yul\":15996:15999   */\n      dup2\n        /* \"#utility.yul\":15981:15999   */\n      swap1\n      pop\n        /* \"#utility.yul\":15857:16005   */\n      swap3\n      swap2\n      pop\n      pop\n      jump\t// out\n        /* \"#utility.yul\":16011:16316   */\n    tag_107:\n        /* \"#utility.yul\":16051:16054   */\n      0x00\n        /* \"#utility.yul\":16070:16090   */\n      tag_377\n        /* \"#utility.yul\":16088:16089   */\n      dup3\n        /* \"#utility.yul\":16070:16090   */\n      tag_323\n      jump\t// in\n    tag_377:\n        /* \"#utility.yul\":16065:16090   */\n      swap2\n      pop\n        /* \"#utility.yul\":16104:16124   */\n      tag_378\n        /* \"#utility.yul\":16122:16123   */\n      dup4\n        /* \"#utility.yul\":16104:16124   */\n      tag_323\n      jump\t// in\n    tag_378:\n        /* \"#utility.yul\":16099:16124   */\n      swap3\n      pop\n        /* \"#utility.yul\":16258:16259   */\n      dup3\n        /* \"#utility.yul\":16190:16256   */\n      0xffffffffffffffffffffffffffffffffffffffffffffffffffffffffffffffff\n        /* \"#utility.yul\":16186:16260   */\n      sub\n        /* \"#utility.yul\":16183:16184   */\n      dup3\n        /* \"#utility.yul\":16180:16261   */\n      gt\n        /* \"#utility.yul\":16177:16284   */\n      iszero\n      tag_379\n      jumpi\n        /* \"#utility.yul\":16264:16282   */\n      tag_380\n      tag_381\n      jump\t// in\n    tag_380:\n        /* \"#utility.yul\":16177:16284   */\n    tag_379:\n        /* \"#utility.yul\":16308:16309   */\n      dup3\n        /* \"#utility.yul\":16305:16306   */\n      dup3\n        /* \"#utility.yul\":16301:16310   */\n      add\n        /* \"#utility.yul\":16294:16310   */\n      swap1\n      pop\n        /* \"#utility.yul\":16011:16316   */\n      swap3\n      swap2\n      pop\n      pop\n      jump\t// out\n        /* \"#utility.yul\":16322:16670   */\n    tag_161:\n        /* \"#utility.yul\":16362:16369   */\n      0x00\n        /* \"#utility.yul\":16385:16405   */\n      tag_383\n        /* \"#utility.yul\":16403:16404   */\n      dup3\n        /* \"#utility.yul\":16385:16405   */\n      tag_323\n      jump\t// in\n    tag_383:\n        /* \"#utility.yul\":16380:16405   */\n      swap2\n      pop\n        /* \"#utility.yul\":16419:16439   */\n      tag_384\n        /* \"#utility.yul\":16437:16438   */\n      dup4\n        /* \"#utility.yul\":16419:16439   */\n      tag_323\n      jump\t// in\n    tag_384:\n        /* \"#utility.yul\":16414:16439   */\n      swap3\n      pop\n        /* \"#utility.yul\":16607:16608   */\n      dup2\n        /* \"#utility.yul\":16539:16605   */\n      0xffffffffffffffffffffffffffffffffffffffffffffffffffffffffffffffff\n        /* \"#utility.yul\":16535:16609   */\n      div\n        /* \"#utility.yul\":16532:16533   */\n      dup4\n        /* \"#utility.yul\":16529:16610   */\n      gt\n        /* \"#utility.yul\":16524:16525   */\n      dup3\n        /* \"#utility.yul\":16517:16526   */\n      iszero\n        /* \"#utility.yul\":16510:16527   */\n      iszero\n        /* \"#utility.yul\":16506:16611   */\n      and\n        /* \"#utility.yul\":16503:16634   */\n      iszero\n      tag_385\n      jumpi\n        /* \"#utility.yul\":16614:16632   */\n      tag_386\n      tag_381\n      jump\t// in\n    tag_386:\n        /* \"#utility.yul\":16503:16634   */\n    tag_385:\n        /* \"#utility.yul\":16662:16663   */\n      dup3\n        /* \"#utility.yul\":16659:16660   */\n      dup3\n        /* \"#utility.yul\":16655:16664   */\n      mul\n        /* \"#utility.yul\":16644:16664   */\n      swap1\n      pop\n        /* \"#utility.yul\":16322:16670   */\n      swap3\n      swap2\n      pop\n      pop\n      jump\t// out\n        /* \"#utility.yul\":16676:16867   */\n    tag_92:\n        /* \"#utility.yul\":16716:16720   */\n      0x00\n        /* \"#utility.yul\":16736:16756   */\n      tag_388\n        /* \"#utility.yul\":16754:16755   */\n      dup3\n        /* \"#utility.yul\":16736:16756   */\n      tag_323\n      jump\t// in\n    tag_388:\n        /* \"#utility.yul\":16731:16756   */\n      swap2\n      pop\n        /* \"#utility.yul\":16770:16790   */\n      tag_389\n        /* \"#utility.yul\":16788:16789   */\n      dup4\n        /* \"#utility.yul\":16770:16790   */\n      tag_323\n      jump\t// in\n    tag_389:\n        /* \"#utility.yul\":16765:16790   */\n      swap3\n      pop\n        /* \"#utility.yul\":16809:16810   */\n      dup3\n        /* \"#utility.yul\":16806:16807   */\n      dup3\n        /* \"#utility.yul\":16803:16811   */\n      lt\n        /* \"#utility.yul\":16800:16834   */\n      iszero\n      tag_390\n      jumpi\n        /* \"#utility.yul\":16814:16832   */\n      tag_391\n      tag_381\n      jump\t// in\n    tag_391:\n        /* \"#utility.yul\":16800:16834   */\n    tag_390:\n        /* \"#utility.yul\":16859:16860   */\n      dup3\n        /* \"#utility.yul\":16856:16857   */\n      dup3\n        /* \"#utility.yul\":16852:16861   */\n      sub\n        /* \"#utility.yul\":16844:16861   */\n      swap1\n      pop\n        /* \"#utility.yul\":16676:16867   */\n      swap3\n      swap2\n      pop\n      pop\n      jump\t// out\n        /* \"#utility.yul\":16873:16969   */\n    tag_247:\n        /* \"#utility.yul\":16910:16917   */\n      0x00\n        /* \"#utility.yul\":16939:16963   */\n      tag_393\n        /* \"#utility.yul\":16957:16962   */\n      dup3\n        /* \"#utility.yul\":16939:16963   */\n      tag_394\n      jump\t// in\n    tag_393:\n        /* \"#utility.yul\":16928:16963   */\n      swap1\n      pop\n        /* \"#utility.yul\":16873:16969   */\n      swap2\n      swap1\n      pop\n      jump\t// out\n        /* \"#utility.yul\":16975:17079   */\n    tag_243:\n        /* \"#utility.yul\":17020:17027   */\n      0x00\n        /* \"#utility.yul\":17049:17073   */\n      tag_396\n        /* \"#utility.yul\":17067:17072   */\n      dup3\n        /* \"#utility.yul\":17049:17073   */\n      tag_394\n      jump\t// in\n    tag_396:\n        /* \"#utility.yul\":17038:17073   */\n      swap1\n      pop\n        /* \"#utility.yul\":16975:17079   */\n      swap2\n      swap1\n      pop\n      jump\t// out\n        /* \"#utility.yul\":17085:17175   */\n    tag_265:\n        /* \"#utility.yul\":17119:17126   */\n      0x00\n        /* \"#utility.yul\":17162:17167   */\n      dup2\n        /* \"#utility.yul\":17155:17168   */\n      iszero\n        /* \"#utility.yul\":17148:17169   */\n      iszero\n        /* \"#utility.yul\":17137:17169   */\n      swap1\n      pop\n        /* \"#utility.yul\":17085:17175   */\n      swap2\n      swap1\n      pop\n      jump\t// out\n        /* \"#utility.yul\":17181:17307   */\n    tag_394:\n        /* \"#utility.yul\":17218:17225   */\n      0x00\n        /* \"#utility.yul\":17258:17300   */\n      0xffffffffffffffffffffffffffffffffffffffff\n        /* \"#utility.yul\":17251:17256   */\n      dup3\n        /* \"#utility.yul\":17247:17301   */\n      and\n        /* \"#utility.yul\":17236:17301   */\n      swap1\n      pop\n        /* \"#utility.yul\":17181:17307   */\n      swap2\n      swap1\n      pop\n      jump\t// out\n        /* \"#utility.yul\":17313:17390   */\n    tag_323:\n        /* \"#utility.yul\":17350:17357   */\n      0x00\n        /* \"#utility.yul\":17379:17384   */\n      dup2\n        /* \"#utility.yul\":17368:17384   */\n      swap1\n      pop\n        /* \"#utility.yul\":17313:17390   */\n      swap2\n      swap1\n      pop\n      jump\t// out\n        /* \"#utility.yul\":17396:17550   */\n    tag_183:\n        /* \"#utility.yul\":17480:17486   */\n      dup3\n        /* \"#utility.yul\":17475:17478   */\n      dup2\n        /* \"#utility.yul\":17470:17473   */\n      dup4\n        /* \"#utility.yul\":17457:17487   */\n      calldatacopy\n        /* \"#utility.yul\":17542:17543   */\n      0x00\n        /* \"#utility.yul\":17533:17539   */\n      dup4\n        /* \"#utility.yul\":17528:17531   */\n      dup4\n        /* \"#utility.yul\":17524:17540   */\n      add\n        /* \"#utility.yul\":17517:17544   */\n      mstore\n        /* \"#utility.yul\":17396:17550   */\n      pop\n      pop\n      pop\n      jump\t// out\n        /* \"#utility.yul\":17556:17863   */\n    tag_272:\n        /* \"#utility.yul\":17624:17625   */\n      0x00\n        /* \"#utility.yul\":17634:17747   */\n    tag_402:\n        /* \"#utility.yul\":17648:17654   */\n      dup4\n        /* \"#utility.yul\":17645:17646   */\n      dup2\n        /* \"#utility.yul\":17642:17655   */\n      lt\n        /* \"#utility.yul\":17634:17747   */\n      iszero\n      tag_404\n      jumpi\n        /* \"#utility.yul\":17733:17734   */\n      dup1\n        /* \"#utility.yul\":17728:17731   */\n      dup3\n        /* \"#utility.yul\":17724:17735   */\n      add\n        /* \"#utility.yul\":17718:17736   */\n      mload\n        /* \"#utility.yul\":17714:17715   */\n      dup2\n        /* \"#utility.yul\":17709:17712   */\n      dup5\n        /* \"#utility.yul\":17705:17716   */\n      add\n        /* \"#utility.yul\":17698:17737   */\n      mstore\n        /* \"#utility.yul\":17670:17672   */\n      0x20\n        /* \"#utility.yul\":17667:17668   */\n      dup2\n        /* \"#utility.yul\":17663:17673   */\n      add\n        /* \"#utility.yul\":17658:17673   */\n      swap1\n      pop\n        /* \"#utility.yul\":17634:17747   */\n      jump(tag_402)\n    tag_404:\n        /* \"#utility.yul\":17765:17771   */\n      dup4\n        /* \"#utility.yul\":17762:17763   */\n      dup2\n        /* \"#utility.yul\":17759:17772   */\n      gt\n        /* \"#utility.yul\":17756:17857   */\n      iszero\n      tag_405\n      jumpi\n        /* \"#utility.yul\":17845:17846   */\n      0x00\n        /* \"#utility.yul\":17836:17842   */\n      dup5\n        /* \"#utility.yul\":17831:17834   */\n      dup5\n        /* \"#utility.yul\":17827:17843   */\n      add\n        /* \"#utility.yul\":17820:17847   */\n      mstore\n        /* \"#utility.yul\":17756:17857   */\n    tag_405:\n        /* \"#utility.yul\":17605:17863   */\n      pop\n        /* \"#utility.yul\":17556:17863   */\n      pop\n      pop\n      pop\n      jump\t// out\n        /* \"#utility.yul\":17869:18189   */\n    tag_67:\n        /* \"#utility.yul\":17913:17919   */\n      0x00\n        /* \"#utility.yul\":17950:17951   */\n      0x02\n        /* \"#utility.yul\":17944:17948   */\n      dup3\n        /* \"#utility.yul\":17940:17952   */\n      div\n        /* \"#utility.yul\":17930:17952   */\n      swap1\n      pop\n        /* \"#utility.yul\":17997:17998   */\n      0x01\n        /* \"#utility.yul\":17991:17995   */\n      dup3\n        /* \"#utility.yul\":17987:17999   */\n      and\n        /* \"#utility.yul\":18018:18036   */\n      dup1\n        /* \"#utility.yul\":18008:18089   */\n      tag_407\n      jumpi\n        /* \"#utility.yul\":18074:18078   */\n      0x7f\n        /* \"#utility.yul\":18066:18072   */\n      dup3\n        /* \"#utility.yul\":18062:18079   */\n      and\n        /* \"#utility.yul\":18052:18079   */\n      swap2\n      pop\n        /* \"#utility.yul\":18008:18089   */\n    tag_407:\n        /* \"#utility.yul\":18136:18138   */\n      0x20\n        /* \"#utility.yul\":18128:18134   */\n      dup3\n        /* \"#utility.yul\":18125:18139   */\n      lt\n        /* \"#utility.yul\":18105:18123   */\n      dup2\n        /* \"#utility.yul\":18102:18140   */\n      eq\n        /* \"#utility.yul\":18099:18183   */\n      iszero\n      tag_408\n      jumpi\n        /* \"#utility.yul\":18155:18173   */\n      tag_409\n      tag_410\n      jump\t// in\n    tag_409:\n        /* \"#utility.yul\":18099:18183   */\n    tag_408:\n        /* \"#utility.yul\":17920:18189   */\n      pop\n        /* \"#utility.yul\":17869:18189   */\n      swap2\n      swap1\n      pop\n      jump\t// out\n        /* \"#utility.yul\":18195:18476   */\n    tag_360:\n        /* \"#utility.yul\":18278:18305   */\n      tag_412\n        /* \"#utility.yul\":18300:18304   */\n      dup3\n        /* \"#utility.yul\":18278:18305   */\n      tag_274\n      jump\t// in\n    tag_412:\n        /* \"#utility.yul\":18270:18276   */\n      dup2\n        /* \"#utility.yul\":18266:18306   */\n      add\n        /* \"#utility.yul\":18408:18414   */\n      dup2\n        /* \"#utility.yul\":18396:18406   */\n      dup2\n        /* \"#utility.yul\":18393:18415   */\n      lt\n        /* \"#utility.yul\":18372:18390   */\n      0xffffffffffffffff\n        /* \"#utility.yul\":18360:18370   */\n      dup3\n        /* \"#utility.yul\":18357:18391   */\n      gt\n        /* \"#utility.yul\":18354:18416   */\n      or\n        /* \"#utility.yul\":18351:18439   */\n      iszero\n      tag_413\n      jumpi\n        /* \"#utility.yul\":18419:18437   */\n      tag_414\n      tag_365\n      jump\t// in\n    tag_414:\n        /* \"#utility.yul\":18351:18439   */\n    tag_413:\n        /* \"#utility.yul\":18459:18469   */\n      dup1\n        /* \"#utility.yul\":18455:18457   */\n      0x40\n        /* \"#utility.yul\":18448:18470   */\n      mstore\n        /* \"#utility.yul\":18238:18476   */\n      pop\n        /* \"#utility.yul\":18195:18476   */\n      pop\n      pop\n      jump\t// out\n        /* \"#utility.yul\":18482:18715   */\n    tag_140:\n        /* \"#utility.yul\":18521:18524   */\n      0x00\n        /* \"#utility.yul\":18544:18568   */\n      tag_416\n        /* \"#utility.yul\":18562:18567   */\n      dup3\n        /* \"#utility.yul\":18544:18568   */\n      tag_323\n      jump\t// in\n    tag_416:\n        /* \"#utility.yul\":18535:18568   */\n      swap2\n      pop\n        /* \"#utility.yul\":18590:18656   */\n      0xffffffffffffffffffffffffffffffffffffffffffffffffffffffffffffffff\n        /* \"#utility.yul\":18583:18588   */\n      dup3\n        /* \"#utility.yul\":18580:18657   */\n      eq\n        /* \"#utility.yul\":18577:18680   */\n      iszero\n      tag_417\n      jumpi\n        /* \"#utility.yul\":18660:18678   */\n      tag_418\n      tag_381\n      jump\t// in\n    tag_418:\n        /* \"#utility.yul\":18577:18680   */\n    tag_417:\n        /* \"#utility.yul\":18707:18708   */\n      0x01\n        /* \"#utility.yul\":18700:18705   */\n      dup3\n        /* \"#utility.yul\":18696:18709   */\n      add\n        /* \"#utility.yul\":18689:18709   */\n      swap1\n      pop\n        /* \"#utility.yul\":18482:18715   */\n      swap2\n      swap1\n      pop\n      jump\t// out\n        /* \"#utility.yul\":18721:18901   */\n    tag_381:\n        /* \"#utility.yul\":18769:18846   */\n      0x4e487b7100000000000000000000000000000000000000000000000000000000\n        /* \"#utility.yul\":18766:18767   */\n      0x00\n        /* \"#utility.yul\":18759:18847   */\n      mstore\n        /* \"#utility.yul\":18866:18870   */\n      0x11\n        /* \"#utility.yul\":18863:18864   */\n      0x04\n        /* \"#utility.yul\":18856:18871   */\n      mstore\n        /* \"#utility.yul\":18890:18894   */\n      0x24\n        /* \"#utility.yul\":18887:18888   */\n      0x00\n        /* \"#utility.yul\":18880:18895   */\n      revert\n        /* \"#utility.yul\":18907:19087   */\n    tag_410:\n        /* \"#utility.yul\":18955:19032   */\n      0x4e487b7100000000000000000000000000000000000000000000000000000000\n        /* \"#utility.yul\":18952:18953   */\n      0x00\n        /* \"#utility.yul\":18945:19033   */\n      mstore\n        /* \"#utility.yul\":19052:19056   */\n      0x22\n        /* \"#utility.yul\":19049:19050   */\n      0x04\n        /* \"#utility.yul\":19042:19057   */\n      mstore\n        /* \"#utility.yul\":19076:19080   */\n      0x24\n        /* \"#utility.yul\":19073:19074   */\n      0x00\n        /* \"#utility.yul\":19066:19081   */\n      revert\n        /* \"#utility.yul\":19093:19273   */\n    tag_134:\n        /* \"#utility.yul\":19141:19218   */\n      0x4e487b7100000000000000000000000000000000000000000000000000000000\n        /* \"#utility.yul\":19138:19139   */\n      0x00\n        /* \"#utility.yul\":19131:19219   */\n      mstore\n        /* \"#utility.yul\":19238:19242   */\n      0x32\n        /* \"#utility.yul\":19235:19236   */\n      0x04\n        /* \"#utility.yul\":19228:19243   */\n      mstore\n        /* \"#utility.yul\":19262:19266   */\n      0x24\n        /* \"#utility.yul\":19259:19260   */\n      0x00\n        /* \"#utility.yul\":19252:19267   */\n      revert\n        /* \"#utility.yul\":19279:19459   */\n    tag_365:\n        /* \"#utility.yul\":19327:19404   */\n      0x4e487b7100000000000000000000000000000000000000000000000000000000\n        /* \"#utility.yul\":19324:19325   */\n      0x00\n        /* \"#utility.yul\":19317:19405   */\n      mstore\n        /* \"#utility.yul\":19424:19428   */\n      0x41\n        /* \"#utility.yul\":19421:19422   */\n      0x04\n        /* \"#utility.yul\":19414:19429   */\n      mstore\n        /* \"#utility.yul\":19448:19452   */\n      0x24\n        /* \"#utility.yul\":19445:19446   */\n      0x00\n        /* \"#utility.yul\":19438:19453   */\n      revert\n        /* \"#utility.yul\":19465:19582   */\n    tag_196:\n        /* \"#utility.yul\":19574:19575   */\n      0x00\n        /* \"#utility.yul\":19571:19572   */\n      dup1\n        /* \"#utility.yul\":19564:19576   */\n      revert\n        /* \"#utility.yul\":19588:19705   */\n    tag_181:\n        /* \"#utility.yul\":19697:19698   */\n      0x00\n        /* \"#utility.yul\":19694:19695   */\n      dup1\n        /* \"#utility.yul\":19687:19699   */\n      revert\n        /* \"#utility.yul\":19711:19828   */\n    tag_219:\n        /* \"#utility.yul\":19820:19821   */\n      0x00\n        /* \"#utility.yul\":19817:19818   */\n      dup1\n        /* \"#utility.yul\":19810:19822   */\n      revert\n        /* \"#utility.yul\":19834:19951   */\n    tag_208:\n        /* \"#utility.yul\":19943:19944   */\n      0x00\n        /* \"#utility.yul\":19940:19941   */\n      dup1\n        /* \"#utility.yul\":19933:19945   */\n      revert\n        /* \"#utility.yul\":19957:20059   */\n    tag_274:\n        /* \"#utility.yul\":19998:20004   */\n      0x00\n        /* \"#utility.yul\":20049:20051   */\n      0x1f\n        /* \"#utility.yul\":20045:20052   */\n      not\n        /* \"#utility.yul\":20040:20042   */\n      0x1f\n        /* \"#utility.yul\":20033:20038   */\n      dup4\n        /* \"#utility.yul\":20029:20043   */\n      add\n        /* \"#utility.yul\":20025:20053   */\n      and\n        /* \"#utility.yul\":20015:20053   */\n      swap1\n      pop\n        /* \"#utility.yul\":19957:20059   */\n      swap2\n      swap1\n      pop\n      jump\t// out\n        /* \"#utility.yul\":20065:20243   */\n    tag_304:\n        /* \"#utility.yul\":20205:20235   */\n      0x4e6f20736520656e6375656e747261206c6120617472616363696f6e00000000\n        /* \"#utility.yul\":20201:20202   */\n      0x00\n        /* \"#utility.yul\":20193:20199   */\n      dup3\n        /* \"#utility.yul\":20189:20203   */\n      add\n        /* \"#utility.yul\":20182:20236   */\n      mstore\n        /* \"#utility.yul\":20065:20243   */\n      pop\n      jump\t// out\n        /* \"#utility.yul\":20249:20481   */\n    tag_309:\n        /* \"#utility.yul\":20389:20423   */\n      0x4e6f207469656e6573207065726d69736f73207061726120656a656375746172\n        /* \"#utility.yul\":20385:20386   */\n      0x00\n        /* \"#utility.yul\":20377:20383   */\n      dup3\n        /* \"#utility.yul\":20373:20387   */\n      add\n        /* \"#utility.yul\":20366:20424   */\n      mstore\n        /* \"#utility.yul\":20458:20473   */\n      0x20657374612066756e63696f6e00000000000000000000000000000000000000\n        /* \"#utility.yul\":20453:20455   */\n      0x20\n        /* \"#utility.yul\":20445:20451   */\n      dup3\n        /* \"#utility.yul\":20441:20456   */\n      add\n        /* \"#utility.yul\":20434:20474   */\n      mstore\n        /* \"#utility.yul\":20249:20481   */\n      pop\n      jump\t// out\n        /* \"#utility.yul\":20487:20716   */\n    tag_314:\n        /* \"#utility.yul\":20627:20661   */\n      0x436f6d707261206d656e6f7320546f6b656e73206f207061676120636f6e206d\n        /* \"#utility.yul\":20623:20624   */\n      0x00\n        /* \"#utility.yul\":20615:20621   */\n      dup3\n        /* \"#utility.yul\":20611:20625   */\n      add\n        /* \"#utility.yul\":20604:20662   */\n      mstore\n        /* \"#utility.yul\":20696:20708   */\n      0x6173206574686572732e00000000000000000000000000000000000000000000\n        /* \"#utility.yul\":20691:20693   */\n      0x20\n        /* \"#utility.yul\":20683:20689   */\n      dup3\n        /* \"#utility.yul\":20679:20694   */\n      add\n        /* \"#utility.yul\":20672:20709   */\n      mstore\n        /* \"#utility.yul\":20487:20716   */\n      pop\n      jump\t// out\n        /* \"#utility.yul\":20722:20904   */\n    tag_319:\n        /* \"#utility.yul\":20862:20896   */\n      0x436f6d70726120756e206e756d65726f206d656e6f7220646520546f6b656e73\n        /* \"#utility.yul\":20858:20859   */\n      0x00\n        /* \"#utility.yul\":20850:20856   */\n      dup3\n        /* \"#utility.yul\":20846:20860   */\n      add\n        /* \"#utility.yul\":20839:20897   */\n      mstore\n        /* \"#utility.yul\":20722:20904   */\n      pop\n      jump\t// out\n        /* \"#utility.yul\":20910:21032   */\n    tag_187:\n        /* \"#utility.yul\":20983:21007   */\n      tag_433\n        /* \"#utility.yul\":21001:21006   */\n      dup2\n        /* \"#utility.yul\":20983:21007   */\n      tag_247\n      jump\t// in\n    tag_433:\n        /* \"#utility.yul\":20976:20981   */\n      dup2\n        /* \"#utility.yul\":20973:21008   */\n      eq\n        /* \"#utility.yul\":20963:21026   */\n      tag_434\n      jumpi\n        /* \"#utility.yul\":21022:21023   */\n      0x00\n        /* \"#utility.yul\":21019:21020   */\n      dup1\n        /* \"#utility.yul\":21012:21024   */\n      revert\n        /* \"#utility.yul\":20963:21026   */\n    tag_434:\n        /* \"#utility.yul\":20910:21032   */\n      pop\n      jump\t// out\n        /* \"#utility.yul\":21038:21154   */\n    tag_191:\n        /* \"#utility.yul\":21108:21129   */\n      tag_436\n        /* \"#utility.yul\":21123:21128   */\n      dup2\n        /* \"#utility.yul\":21108:21129   */\n      tag_265\n      jump\t// in\n    tag_436:\n        /* \"#utility.yul\":21101:21106   */\n      dup2\n        /* \"#utility.yul\":21098:21130   */\n      eq\n        /* \"#utility.yul\":21088:21148   */\n      tag_437\n      jumpi\n        /* \"#utility.yul\":21144:21145   */\n      0x00\n        /* \"#utility.yul\":21141:21142   */\n      dup1\n        /* \"#utility.yul\":21134:21146   */\n      revert\n        /* \"#utility.yul\":21088:21148   */\n    tag_437:\n        /* \"#utility.yul\":21038:21154   */\n      pop\n      jump\t// out\n        /* \"#utility.yul\":21160:21282   */\n    tag_201:\n        /* \"#utility.yul\":21233:21257   */\n      tag_439\n        /* \"#utility.yul\":21251:21256   */\n      dup2\n        /* \"#utility.yul\":21233:21257   */\n      tag_323\n      jump\t// in\n    tag_439:\n        /* \"#utility.yul\":21226:21231   */\n      dup2\n        /* \"#utility.yul\":21223:21258   */\n      eq\n        /* \"#utility.yul\":21213:21276   */\n      tag_440\n      jumpi\n        /* \"#utility.yul\":21272:21273   */\n      0x00\n        /* \"#utility.yul\":21269:21270   */\n      dup1\n        /* \"#utility.yul\":21262:21274   */\n      revert\n        /* \"#utility.yul\":21213:21276   */\n    tag_440:\n        /* \"#utility.yul\":21160:21282   */\n      pop\n      jump\t// out\n\n    auxdata: 0xa2646970667358221220d740cf24c14fdde4041c44923493be3bd61b2bb49548c9b62c3e05508039569564736f6c63430008070033\n}\n\nsub_1: assembly {\n        /* \"Dinsey/ERC20.sol\":1767:4072  contract ERC20Basic is IERC20{\r... */\n      mstore(0x40, 0x80)\n        /* \"Dinsey/ERC20.sol\":2284:2419  constructor (uint256 initialSupply) public{\r... */\n      callvalue\n      dup1\n      iszero\n      tag_1\n      jumpi\n      0x00\n      dup1\n      revert\n    tag_1:\n      pop\n      mload(0x40)\n      sub(codesize, bytecodeSize)\n      dup1\n      bytecodeSize\n      dup4\n      codecopy\n      dup2\n      dup2\n      add\n      0x40\n      mstore\n      dup2\n      add\n      swap1\n      tag_2\n      swap2\n      swap1\n      tag_3\n      jump\t// in\n    tag_2:\n        /* \"Dinsey/ERC20.sol\":2352:2365  initialSupply */\n      dup1\n        /* \"Dinsey/ERC20.sol\":2337:2349  totalSupply_ */\n      0x02\n        /* \"Dinsey/ERC20.sol\":2337:2365  totalSupply_ = initialSupply */\n      dup2\n      swap1\n      sstore\n      pop\n        /* \"Dinsey/ERC20.sol\":2399:2411  totalSupply_ */\n      sload(0x02)\n        /* \"Dinsey/ERC20.sol\":2376:2384  balances */\n      0x00\n        /* \"Dinsey/ERC20.sol\":2376:2396  balances[msg.sender] */\n      dup1\n        /* \"Dinsey/ERC20.sol\":2385:2395  msg.sender */\n      caller\n        /* \"Dinsey/ERC20.sol\":2376:2396  balances[msg.sender] */\n      0xffffffffffffffffffffffffffffffffffffffff\n      and\n      0xffffffffffffffffffffffffffffffffffffffff\n      and\n      dup2\n      mstore\n      0x20\n      add\n      swap1\n      dup2\n      mstore\n      0x20\n      add\n      0x00\n      keccak256\n        /* \"Dinsey/ERC20.sol\":2376:2411  balances[msg.sender] = totalSupply_ */\n      dup2\n      swap1\n      sstore\n      pop\n        /* \"Dinsey/ERC20.sol\":2284:2419  constructor (uint256 initialSupply) public{\r... */\n      pop\n        /* \"Dinsey/ERC20.sol\":1767:4072  contract ERC20Basic is IERC20{\r... */\n      jump(tag_6)\n        /* \"#utility.yul\":7:150   */\n    tag_8:\n        /* \"#utility.yul\":64:69   */\n      0x00\n        /* \"#utility.yul\":95:101   */\n      dup2\n        /* \"#utility.yul\":89:102   */\n      mload\n        /* \"#utility.yul\":80:102   */\n      swap1\n      pop\n        /* \"#utility.yul\":111:144   */\n      tag_10\n        /* \"#utility.yul\":138:143   */\n      dup2\n        /* \"#utility.yul\":111:144   */\n      tag_11\n      jump\t// in\n    tag_10:\n        /* \"#utility.yul\":7:150   */\n      swap3\n      swap2\n      pop\n      pop\n      jump\t// out\n        /* \"#utility.yul\":156:507   */\n    tag_3:\n        /* \"#utility.yul\":226:232   */\n      0x00\n        /* \"#utility.yul\":275:277   */\n      0x20\n        /* \"#utility.yul\":263:272   */\n      dup3\n        /* \"#utility.yul\":254:261   */\n      dup5\n        /* \"#utility.yul\":250:273   */\n      sub\n        /* \"#utility.yul\":246:278   */\n      slt\n        /* \"#utility.yul\":243:362   */\n      iszero\n      tag_13\n      jumpi\n        /* \"#utility.yul\":281:360   */\n      tag_14\n      tag_15\n      jump\t// in\n    tag_14:\n        /* \"#utility.yul\":243:362   */\n    tag_13:\n        /* \"#utility.yul\":401:402   */\n      0x00\n        /* \"#utility.yul\":426:490   */\n      tag_16\n        /* \"#utility.yul\":482:489   */\n      dup5\n        /* \"#utility.yul\":473:479   */\n      dup3\n        /* \"#utility.yul\":462:471   */\n      dup6\n        /* \"#utility.yul\":458:480   */\n      add\n        /* \"#utility.yul\":426:490   */\n      tag_8\n      jump\t// in\n    tag_16:\n        /* \"#utility.yul\":416:490   */\n      swap2\n      pop\n        /* \"#utility.yul\":372:500   */\n      pop\n        /* \"#utility.yul\":156:507   */\n      swap3\n      swap2\n      pop\n      pop\n      jump\t// out\n        /* \"#utility.yul\":594:671   */\n    tag_19:\n        /* \"#utility.yul\":631:638   */\n      0x00\n        /* \"#utility.yul\":660:665   */\n      dup2\n        /* \"#utility.yul\":649:665   */\n      swap1\n      pop\n        /* \"#utility.yul\":594:671   */\n      swap2\n      swap1\n      pop\n      jump\t// out\n        /* \"#utility.yul\":800:917   */\n    tag_15:\n        /* \"#utility.yul\":909:910   */\n      0x00\n        /* \"#utility.yul\":906:907   */\n      dup1\n        /* \"#utility.yul\":899:911   */\n      revert\n        /* \"#utility.yul\":923:1045   */\n    tag_11:\n        /* \"#utility.yul\":996:1020   */\n      tag_25\n        /* \"#utility.yul\":1014:1019   */\n      dup2\n        /* \"#utility.yul\":996:1020   */\n      tag_19\n      jump\t// in\n    tag_25:\n        /* \"#utility.yul\":989:994   */\n      dup2\n        /* \"#utility.yul\":986:1021   */\n      eq\n        /* \"#utility.yul\":976:1039   */\n      tag_26\n      jumpi\n        /* \"#utility.yul\":1035:1036   */\n      0x00\n        /* \"#utility.yul\":1032:1033   */\n      dup1\n        /* \"#utility.yul\":1025:1037   */\n      revert\n        /* \"#utility.yul\":976:1039   */\n    tag_26:\n        /* \"#utility.yul\":923:1045   */\n      pop\n      jump\t// out\n        /* \"Dinsey/ERC20.sol\":1767:4072  contract ERC20Basic is IERC20{\r... */\n    tag_6:\n      dataSize(sub_0)\n      dup1\n      dataOffset(sub_0)\n      0x00\n      codecopy\n      0x00\n      return\n    stop\n\n    sub_0: assembly {\n            /* \"Dinsey/ERC20.sol\":1767:4072  contract ERC20Basic is IERC20{\r... */\n          mstore(0x40, 0x80)\n          callvalue\n          dup1\n          iszero\n          tag_1\n          jumpi\n          0x00\n          dup1\n          revert\n        tag_1:\n          pop\n          jumpi(tag_2, lt(calldatasize, 0x04))\n          shr(0xe0, calldataload(0x00))\n          dup1\n          0x313ce567\n          gt\n          tag_13\n          jumpi\n          dup1\n          0x313ce567\n          eq\n          tag_8\n          jumpi\n          dup1\n          0x70a08231\n          eq\n          tag_9\n          jumpi\n          dup1\n          0x95d89b41\n          eq\n          tag_10\n          jumpi\n          dup1\n          0xa9059cbb\n          eq\n          tag_11\n          jumpi\n          dup1\n          0xdd62ed3e\n          eq\n          tag_12\n          jumpi\n          jump(tag_2)\n        tag_13:\n          dup1\n          0x06fdde03\n          eq\n          tag_3\n          jumpi\n          dup1\n          0x095ea7b3\n          eq\n          tag_4\n          jumpi\n          dup1\n          0x18160ddd\n          eq\n          tag_5\n          jumpi\n          dup1\n          0x1d43cc98\n          eq\n          tag_6\n          jumpi\n          dup1\n          0x23b872dd\n          eq\n          tag_7\n          jumpi\n        tag_2:\n          0x00\n          dup1\n          revert\n            /* \"Dinsey/ERC20.sol\":1805:1854  string public constant name = \"ERC20BlockchainAZ\" */\n        tag_3:\n          tag_14\n          tag_15\n          jump\t// in\n        tag_14:\n          mload(0x40)\n          tag_16\n          swap2\n          swap1\n          tag_17\n          jump\t// in\n        tag_16:\n          mload(0x40)\n          dup1\n          swap2\n          sub\n          swap1\n          return\n            /* \"Dinsey/ERC20.sol\":3347:3571  function approve(address delegate, uint256 numTokens) public override returns(bool){\r... */\n        tag_4:\n          tag_18\n          0x04\n          dup1\n          calldatasize\n          sub\n          dup2\n          add\n          swap1\n          tag_19\n          swap2\n          swap1\n          tag_20\n          jump\t// in\n        tag_19:\n          tag_21\n          jump\t// in\n        tag_18:\n          mload(0x40)\n          tag_22\n          swap2\n          swap1\n          tag_23\n          jump\t// in\n        tag_22:\n          mload(0x40)\n          dup1\n          swap2\n          sub\n          swap1\n          return\n            /* \"Dinsey/ERC20.sol\":2427:2525  function totalSupply() public override view returns(uint256){\r... */\n        tag_5:\n          tag_24\n          tag_25\n          jump\t// in\n        tag_24:\n          mload(0x40)\n          tag_26\n          swap2\n          swap1\n          tag_27\n          jump\t// in\n        tag_26:\n          mload(0x40)\n          dup1\n          swap2\n          sub\n          swap1\n          return\n            /* \"Dinsey/ERC20.sol\":2533:2691  function increaseTotalSupply(uint newTokensAmount) public {\r... */\n        tag_6:\n          tag_28\n          0x04\n          dup1\n          calldatasize\n          sub\n          dup2\n          add\n          swap1\n          tag_29\n          swap2\n          swap1\n          tag_30\n          jump\t// in\n        tag_29:\n          tag_31\n          jump\t// in\n        tag_28:\n          stop\n            /* \"Dinsey/ERC20.sol\":3579:4067  function transferFrom(address owner, address buyer, uint256 numTokens) public override returns(bool){\r... */\n        tag_7:\n          tag_32\n          0x04\n          dup1\n          calldatasize\n          sub\n          dup2\n          add\n          swap1\n          tag_33\n          swap2\n          swap1\n          tag_34\n          jump\t// in\n        tag_33:\n          tag_35\n          jump\t// in\n        tag_32:\n          mload(0x40)\n          tag_36\n          swap2\n          swap1\n          tag_23\n          jump\t// in\n        tag_36:\n          mload(0x40)\n          dup1\n          swap2\n          sub\n          swap1\n          return\n            /* \"Dinsey/ERC20.sol\":1905:1939  uint8 public constant decimals = 2 */\n        tag_8:\n          tag_37\n          tag_38\n          jump\t// in\n        tag_37:\n          mload(0x40)\n          tag_39\n          swap2\n          swap1\n          tag_40\n          jump\t// in\n        tag_39:\n          mload(0x40)\n          dup1\n          swap2\n          sub\n          swap1\n          return\n            /* \"Dinsey/ERC20.sol\":2699:2821  function balanceOf(address tokenOwner) public override view returns(uint256){\r... */\n        tag_9:\n          tag_41\n          0x04\n          dup1\n          calldatasize\n          sub\n          dup2\n          add\n          swap1\n          tag_42\n          swap2\n          swap1\n          tag_43\n          jump\t// in\n        tag_42:\n          tag_44\n          jump\t// in\n        tag_41:\n          mload(0x40)\n          tag_45\n          swap2\n          swap1\n          tag_27\n          jump\t// in\n        tag_45:\n          mload(0x40)\n          dup1\n          swap2\n          sub\n          swap1\n          return\n            /* \"Dinsey/ERC20.sol\":1861:1898  string public constant symbol = \"ERC\" */\n        tag_10:\n          tag_46\n          tag_47\n          jump\t// in\n        tag_46:\n          mload(0x40)\n          tag_48\n          swap2\n          swap1\n          tag_17\n          jump\t// in\n        tag_48:\n          mload(0x40)\n          dup1\n          swap2\n          sub\n          swap1\n          return\n            /* \"Dinsey/ERC20.sol\":2976:3339  function transfer( address recipient, uint256 numTokens) public override returns(bool){\r... */\n        tag_11:\n          tag_49\n          0x04\n          dup1\n          calldatasize\n          sub\n          dup2\n          add\n          swap1\n          tag_50\n          swap2\n          swap1\n          tag_20\n          jump\t// in\n        tag_50:\n          tag_51\n          jump\t// in\n        tag_49:\n          mload(0x40)\n          tag_52\n          swap2\n          swap1\n          tag_23\n          jump\t// in\n        tag_52:\n          mload(0x40)\n          dup1\n          swap2\n          sub\n          swap1\n          return\n            /* \"Dinsey/ERC20.sol\":2829:2968  function allowance(address owner, address delegate) public override view returns(uint256){\r... */\n        tag_12:\n          tag_53\n          0x04\n          dup1\n          calldatasize\n          sub\n          dup2\n          add\n          swap1\n          tag_54\n          swap2\n          swap1\n          tag_55\n          jump\t// in\n        tag_54:\n          tag_56\n          jump\t// in\n        tag_53:\n          mload(0x40)\n          tag_57\n          swap2\n          swap1\n          tag_27\n          jump\t// in\n        tag_57:\n          mload(0x40)\n          dup1\n          swap2\n          sub\n          swap1\n          return\n            /* \"Dinsey/ERC20.sol\":1805:1854  string public constant name = \"ERC20BlockchainAZ\" */\n        tag_15:\n          mload(0x40)\n          dup1\n          0x40\n          add\n          0x40\n          mstore\n          dup1\n          0x11\n          dup2\n          mstore\n          0x20\n          add\n          0x4552433230426c6f636b636861696e415a000000000000000000000000000000\n          dup2\n          mstore\n          pop\n          dup2\n          jump\t// out\n            /* \"Dinsey/ERC20.sol\":3347:3571  function approve(address delegate, uint256 numTokens) public override returns(bool){\r... */\n        tag_21:\n            /* \"Dinsey/ERC20.sol\":3425:3429  bool */\n          0x00\n            /* \"Dinsey/ERC20.sol\":3473:3482  numTokens */\n          dup2\n            /* \"Dinsey/ERC20.sol\":3441:3448  allowed */\n          0x01\n            /* \"Dinsey/ERC20.sol\":3441:3460  allowed[msg.sender] */\n          0x00\n            /* \"Dinsey/ERC20.sol\":3449:3459  msg.sender */\n          caller\n            /* \"Dinsey/ERC20.sol\":3441:3460  allowed[msg.sender] */\n          0xffffffffffffffffffffffffffffffffffffffff\n          and\n          0xffffffffffffffffffffffffffffffffffffffff\n          and\n          dup2\n          mstore\n          0x20\n          add\n          swap1\n          dup2\n          mstore\n          0x20\n          add\n          0x00\n          keccak256\n            /* \"Dinsey/ERC20.sol\":3441:3470  allowed[msg.sender][delegate] */\n          0x00\n            /* \"Dinsey/ERC20.sol\":3461:3469  delegate */\n          dup6\n            /* \"Dinsey/ERC20.sol\":3441:3470  allowed[msg.sender][delegate] */\n          0xffffffffffffffffffffffffffffffffffffffff\n          and\n          0xffffffffffffffffffffffffffffffffffffffff\n          and\n          dup2\n          mstore\n          0x20\n          add\n          swap1\n          dup2\n          mstore\n          0x20\n          add\n          0x00\n          keccak256\n            /* \"Dinsey/ERC20.sol\":3441:3482  allowed[msg.sender][delegate] = numTokens */\n          dup2\n          swap1\n          sstore\n          pop\n            /* \"Dinsey/ERC20.sol\":3519:3527  delegate */\n          dup3\n            /* \"Dinsey/ERC20.sol\":3498:3539  Approval(msg.sender, delegate, numTokens) */\n          0xffffffffffffffffffffffffffffffffffffffff\n          and\n            /* \"Dinsey/ERC20.sol\":3507:3517  msg.sender */\n          caller\n            /* \"Dinsey/ERC20.sol\":3498:3539  Approval(msg.sender, delegate, numTokens) */\n          0xffffffffffffffffffffffffffffffffffffffff\n          and\n          0x8c5be1e5ebec7d5bd14f71427d1e84f3dd0314c0f7b2291e5b200ac8c7c3b925\n            /* \"Dinsey/ERC20.sol\":3529:3538  numTokens */\n          dup5\n            /* \"Dinsey/ERC20.sol\":3498:3539  Approval(msg.sender, delegate, numTokens) */\n          mload(0x40)\n          tag_59\n          swap2\n          swap1\n          tag_27\n          jump\t// in\n        tag_59:\n          mload(0x40)\n          dup1\n          swap2\n          sub\n          swap1\n          log3\n            /* \"Dinsey/ERC20.sol\":3559:3563  true */\n          0x01\n            /* \"Dinsey/ERC20.sol\":3552:3563  return true */\n          swap1\n          pop\n            /* \"Dinsey/ERC20.sol\":3347:3571  function approve(address delegate, uint256 numTokens) public override returns(bool){\r... */\n          swap3\n          swap2\n          pop\n          pop\n          jump\t// out\n            /* \"Dinsey/ERC20.sol\":2427:2525  function totalSupply() public override view returns(uint256){\r... */\n        tag_25:\n            /* \"Dinsey/ERC20.sol\":2479:2486  uint256 */\n          0x00\n            /* \"Dinsey/ERC20.sol\":2505:2517  totalSupply_ */\n          sload(0x02)\n            /* \"Dinsey/ERC20.sol\":2498:2517  return totalSupply_ */\n          swap1\n          pop\n            /* \"Dinsey/ERC20.sol\":2427:2525  function totalSupply() public override view returns(uint256){\r... */\n          swap1\n          jump\t// out\n            /* \"Dinsey/ERC20.sol\":2533:2691  function increaseTotalSupply(uint newTokensAmount) public {\r... */\n        tag_31:\n            /* \"Dinsey/ERC20.sol\":2618:2633  newTokensAmount */\n          dup1\n            /* \"Dinsey/ERC20.sol\":2602:2614  totalSupply_ */\n          0x02\n          0x00\n            /* \"Dinsey/ERC20.sol\":2602:2633  totalSupply_ += newTokensAmount */\n          dup3\n          dup3\n          sload\n          tag_62\n          swap2\n          swap1\n          tag_63\n          jump\t// in\n        tag_62:\n          swap3\n          pop\n          pop\n          dup2\n          swap1\n          sstore\n          pop\n            /* \"Dinsey/ERC20.sol\":2668:2683  newTokensAmount */\n          dup1\n            /* \"Dinsey/ERC20.sol\":2644:2652  balances */\n          0x00\n            /* \"Dinsey/ERC20.sol\":2644:2664  balances[msg.sender] */\n          dup1\n            /* \"Dinsey/ERC20.sol\":2653:2663  msg.sender */\n          caller\n            /* \"Dinsey/ERC20.sol\":2644:2664  balances[msg.sender] */\n          0xffffffffffffffffffffffffffffffffffffffff\n          and\n          0xffffffffffffffffffffffffffffffffffffffff\n          and\n          dup2\n          mstore\n          0x20\n          add\n          swap1\n          dup2\n          mstore\n          0x20\n          add\n          0x00\n          keccak256\n          0x00\n            /* \"Dinsey/ERC20.sol\":2644:2683  balances[msg.sender] += newTokensAmount */\n          dup3\n          dup3\n          sload\n          tag_64\n          swap2\n          swap1\n          tag_63\n          jump\t// in\n        tag_64:\n          swap3\n          pop\n          pop\n          dup2\n          swap1\n          sstore\n          pop\n            /* \"Dinsey/ERC20.sol\":2533:2691  function increaseTotalSupply(uint newTokensAmount) public {\r... */\n          pop\n          jump\t// out\n            /* \"Dinsey/ERC20.sol\":3579:4067  function transferFrom(address owner, address buyer, uint256 numTokens) public override returns(bool){\r... */\n        tag_35:\n            /* \"Dinsey/ERC20.sol\":3674:3678  bool */\n          0x00\n            /* \"Dinsey/ERC20.sol\":3712:3720  balances */\n          dup1\n            /* \"Dinsey/ERC20.sol\":3712:3727  balances[owner] */\n          0x00\n            /* \"Dinsey/ERC20.sol\":3721:3726  owner */\n          dup6\n            /* \"Dinsey/ERC20.sol\":3712:3727  balances[owner] */\n          0xffffffffffffffffffffffffffffffffffffffff\n          and\n          0xffffffffffffffffffffffffffffffffffffffff\n          and\n          dup2\n          mstore\n          0x20\n          add\n          swap1\n          dup2\n          mstore\n          0x20\n          add\n          0x00\n          keccak256\n          sload\n            /* \"Dinsey/ERC20.sol\":3699:3708  numTokens */\n          dup3\n            /* \"Dinsey/ERC20.sol\":3699:3727  numTokens <= balances[owner] */\n          gt\n          iszero\n            /* \"Dinsey/ERC20.sol\":3690:3728  require( numTokens <= balances[owner]) */\n          tag_66\n          jumpi\n          0x00\n          dup1\n          revert\n        tag_66:\n            /* \"Dinsey/ERC20.sol\":3760:3767  allowed */\n          0x01\n            /* \"Dinsey/ERC20.sol\":3760:3774  allowed[owner] */\n          0x00\n            /* \"Dinsey/ERC20.sol\":3768:3773  owner */\n          dup6\n            /* \"Dinsey/ERC20.sol\":3760:3774  allowed[owner] */\n          0xffffffffffffffffffffffffffffffffffffffff\n          and\n          0xffffffffffffffffffffffffffffffffffffffff\n          and\n          dup2\n          mstore\n          0x20\n          add\n          swap1\n          dup2\n          mstore\n          0x20\n          add\n          0x00\n          keccak256\n            /* \"Dinsey/ERC20.sol\":3760:3786  allowed[owner][msg.sender] */\n          0x00\n            /* \"Dinsey/ERC20.sol\":3775:3785  msg.sender */\n          caller\n            /* \"Dinsey/ERC20.sol\":3760:3786  allowed[owner][msg.sender] */\n          0xffffffffffffffffffffffffffffffffffffffff\n          and\n          0xffffffffffffffffffffffffffffffffffffffff\n          and\n          dup2\n          mstore\n          0x20\n          add\n          swap1\n          dup2\n          mstore\n          0x20\n          add\n          0x00\n          keccak256\n          sload\n            /* \"Dinsey/ERC20.sol\":3747:3756  numTokens */\n          dup3\n            /* \"Dinsey/ERC20.sol\":3747:3786  numTokens <= allowed[owner][msg.sender] */\n          gt\n          iszero\n            /* \"Dinsey/ERC20.sol\":3739:3787  require(numTokens <= allowed[owner][msg.sender]) */\n          tag_67\n          jumpi\n          0x00\n          dup1\n          revert\n        tag_67:\n            /* \"Dinsey/ERC20.sol\":3818:3848  balances[owner].sub(numTokens) */\n          tag_68\n            /* \"Dinsey/ERC20.sol\":3838:3847  numTokens */\n          dup3\n            /* \"Dinsey/ERC20.sol\":3818:3826  balances */\n          0x00\n            /* \"Dinsey/ERC20.sol\":3818:3833  balances[owner] */\n          dup1\n            /* \"Dinsey/ERC20.sol\":3827:3832  owner */\n          dup8\n            /* \"Dinsey/ERC20.sol\":3818:3833  balances[owner] */\n          0xffffffffffffffffffffffffffffffffffffffff\n          and\n          0xffffffffffffffffffffffffffffffffffffffff\n          and\n          dup2\n          mstore\n          0x20\n          add\n          swap1\n          dup2\n          mstore\n          0x20\n          add\n          0x00\n          keccak256\n          sload\n            /* \"Dinsey/ERC20.sol\":3818:3837  balances[owner].sub */\n          tag_69\n          swap1\n            /* \"Dinsey/ERC20.sol\":3818:3848  balances[owner].sub(numTokens) */\n          swap2\n          swap1\n          0xffffffff\n          and\n          jump\t// in\n        tag_68:\n            /* \"Dinsey/ERC20.sol\":3800:3808  balances */\n          0x00\n            /* \"Dinsey/ERC20.sol\":3800:3815  balances[owner] */\n          dup1\n            /* \"Dinsey/ERC20.sol\":3809:3814  owner */\n          dup7\n            /* \"Dinsey/ERC20.sol\":3800:3815  balances[owner] */\n          0xffffffffffffffffffffffffffffffffffffffff\n          and\n          0xffffffffffffffffffffffffffffffffffffffff\n          and\n          dup2\n          mstore\n          0x20\n          add\n          swap1\n          dup2\n          mstore\n          0x20\n          add\n          0x00\n          keccak256\n            /* \"Dinsey/ERC20.sol\":3800:3848  balances[owner] = balances[owner].sub(numTokens) */\n          dup2\n          swap1\n          sstore\n          pop\n            /* \"Dinsey/ERC20.sol\":3888:3929  allowed[owner][msg.sender].sub(numTokens) */\n          tag_70\n            /* \"Dinsey/ERC20.sol\":3919:3928  numTokens */\n          dup3\n            /* \"Dinsey/ERC20.sol\":3888:3895  allowed */\n          0x01\n            /* \"Dinsey/ERC20.sol\":3888:3902  allowed[owner] */\n          0x00\n            /* \"Dinsey/ERC20.sol\":3896:3901  owner */\n          dup8\n            /* \"Dinsey/ERC20.sol\":3888:3902  allowed[owner] */\n          0xffffffffffffffffffffffffffffffffffffffff\n          and\n          0xffffffffffffffffffffffffffffffffffffffff\n          and\n          dup2\n          mstore\n          0x20\n          add\n          swap1\n          dup2\n          mstore\n          0x20\n          add\n          0x00\n          keccak256\n            /* \"Dinsey/ERC20.sol\":3888:3914  allowed[owner][msg.sender] */\n          0x00\n            /* \"Dinsey/ERC20.sol\":3903:3913  msg.sender */\n          caller\n            /* \"Dinsey/ERC20.sol\":3888:3914  allowed[owner][msg.sender] */\n          0xffffffffffffffffffffffffffffffffffffffff\n          and\n          0xffffffffffffffffffffffffffffffffffffffff\n          and\n          dup2\n          mstore\n          0x20\n          add\n          swap1\n          dup2\n          mstore\n          0x20\n          add\n          0x00\n          keccak256\n          sload\n            /* \"Dinsey/ERC20.sol\":3888:3918  allowed[owner][msg.sender].sub */\n          tag_69\n          swap1\n            /* \"Dinsey/ERC20.sol\":3888:3929  allowed[owner][msg.sender].sub(numTokens) */\n          swap2\n          swap1\n          0xffffffff\n          and\n          jump\t// in\n        tag_70:\n            /* \"Dinsey/ERC20.sol\":3859:3866  allowed */\n          0x01\n            /* \"Dinsey/ERC20.sol\":3859:3873  allowed[owner] */\n          0x00\n            /* \"Dinsey/ERC20.sol\":3867:3872  owner */\n          dup7\n            /* \"Dinsey/ERC20.sol\":3859:3873  allowed[owner] */\n          0xffffffffffffffffffffffffffffffffffffffff\n          and\n          0xffffffffffffffffffffffffffffffffffffffff\n          and\n          dup2\n          mstore\n          0x20\n          add\n          swap1\n          dup2\n          mstore\n          0x20\n          add\n          0x00\n          keccak256\n            /* \"Dinsey/ERC20.sol\":3859:3885  allowed[owner][msg.sender] */\n          0x00\n            /* \"Dinsey/ERC20.sol\":3874:3884  msg.sender */\n          caller\n            /* \"Dinsey/ERC20.sol\":3859:3885  allowed[owner][msg.sender] */\n          0xffffffffffffffffffffffffffffffffffffffff\n          and\n          0xffffffffffffffffffffffffffffffffffffffff\n          and\n          dup2\n          mstore\n          0x20\n          add\n          swap1\n          dup2\n          mstore\n          0x20\n          add\n          0x00\n          keccak256\n            /* \"Dinsey/ERC20.sol\":3859:3929  allowed[owner][msg.sender] = allowed[owner][msg.sender].sub(numTokens) */\n          dup2\n          swap1\n          sstore\n          pop\n            /* \"Dinsey/ERC20.sol\":3958:3988  balances[buyer].add(numTokens) */\n          tag_71\n            /* \"Dinsey/ERC20.sol\":3978:3987  numTokens */\n          dup3\n            /* \"Dinsey/ERC20.sol\":3958:3966  balances */\n          0x00\n            /* \"Dinsey/ERC20.sol\":3958:3973  balances[buyer] */\n          dup1\n            /* \"Dinsey/ERC20.sol\":3967:3972  buyer */\n          dup7\n            /* \"Dinsey/ERC20.sol\":3958:3973  balances[buyer] */\n          0xffffffffffffffffffffffffffffffffffffffff\n          and\n          0xffffffffffffffffffffffffffffffffffffffff\n          and\n          dup2\n          mstore\n          0x20\n          add\n          swap1\n          dup2\n          mstore\n          0x20\n          add\n          0x00\n          keccak256\n          sload\n            /* \"Dinsey/ERC20.sol\":3958:3977  balances[buyer].add */\n          tag_72\n          swap1\n            /* \"Dinsey/ERC20.sol\":3958:3988  balances[buyer].add(numTokens) */\n          swap2\n          swap1\n          0xffffffff\n          and\n          jump\t// in\n        tag_71:\n            /* \"Dinsey/ERC20.sol\":3940:3948  balances */\n          0x00\n            /* \"Dinsey/ERC20.sol\":3940:3955  balances[buyer] */\n          dup1\n            /* \"Dinsey/ERC20.sol\":3949:3954  buyer */\n          dup6\n            /* \"Dinsey/ERC20.sol\":3940:3955  balances[buyer] */\n          0xffffffffffffffffffffffffffffffffffffffff\n          and\n          0xffffffffffffffffffffffffffffffffffffffff\n          and\n          dup2\n          mstore\n          0x20\n          add\n          swap1\n          dup2\n          mstore\n          0x20\n          add\n          0x00\n          keccak256\n            /* \"Dinsey/ERC20.sol\":3940:3988  balances[buyer] = balances[buyer].add(numTokens) */\n          dup2\n          swap1\n          sstore\n          pop\n            /* \"Dinsey/ERC20.sol\":4020:4025  buyer */\n          dup3\n            /* \"Dinsey/ERC20.sol\":4004:4037  Transfer(owner, buyer, numTokens) */\n          0xffffffffffffffffffffffffffffffffffffffff\n          and\n            /* \"Dinsey/ERC20.sol\":4013:4018  owner */\n          dup5\n            /* \"Dinsey/ERC20.sol\":4004:4037  Transfer(owner, buyer, numTokens) */\n          0xffffffffffffffffffffffffffffffffffffffff\n          and\n          0xddf252ad1be2c89b69c2b068fc378daa952ba7f163c4a11628f55a4df523b3ef\n            /* \"Dinsey/ERC20.sol\":4027:4036  numTokens */\n          dup5\n            /* \"Dinsey/ERC20.sol\":4004:4037  Transfer(owner, buyer, numTokens) */\n          mload(0x40)\n          tag_73\n          swap2\n          swap1\n          tag_27\n          jump\t// in\n        tag_73:\n          mload(0x40)\n          dup1\n          swap2\n          sub\n          swap1\n          log3\n            /* \"Dinsey/ERC20.sol\":4055:4059  true */\n          0x01\n            /* \"Dinsey/ERC20.sol\":4048:4059  return true */\n          swap1\n          pop\n            /* \"Dinsey/ERC20.sol\":3579:4067  function transferFrom(address owner, address buyer, uint256 numTokens) public override returns(bool){\r... */\n          swap4\n          swap3\n          pop\n          pop\n          pop\n          jump\t// out\n            /* \"Dinsey/ERC20.sol\":1905:1939  uint8 public constant decimals = 2 */\n        tag_38:\n            /* \"Dinsey/ERC20.sol\":1938:1939  2 */\n          0x02\n            /* \"Dinsey/ERC20.sol\":1905:1939  uint8 public constant decimals = 2 */\n          dup2\n          jump\t// out\n            /* \"Dinsey/ERC20.sol\":2699:2821  function balanceOf(address tokenOwner) public override view returns(uint256){\r... */\n        tag_44:\n            /* \"Dinsey/ERC20.sol\":2767:2774  uint256 */\n          0x00\n            /* \"Dinsey/ERC20.sol\":2793:2801  balances */\n          dup1\n            /* \"Dinsey/ERC20.sol\":2793:2813  balances[tokenOwner] */\n          0x00\n            /* \"Dinsey/ERC20.sol\":2802:2812  tokenOwner */\n          dup4\n            /* \"Dinsey/ERC20.sol\":2793:2813  balances[tokenOwner] */\n          0xffffffffffffffffffffffffffffffffffffffff\n          and\n          0xffffffffffffffffffffffffffffffffffffffff\n          and\n          dup2\n          mstore\n          0x20\n          add\n          swap1\n          dup2\n          mstore\n          0x20\n          add\n          0x00\n          keccak256\n          sload\n            /* \"Dinsey/ERC20.sol\":2786:2813  return balances[tokenOwner] */\n          swap1\n          pop\n            /* \"Dinsey/ERC20.sol\":2699:2821  function balanceOf(address tokenOwner) public override view returns(uint256){\r... */\n          swap2\n          swap1\n          pop\n          jump\t// out\n            /* \"Dinsey/ERC20.sol\":1861:1898  string public constant symbol = \"ERC\" */\n        tag_47:\n          mload(0x40)\n          dup1\n          0x40\n          add\n          0x40\n          mstore\n          dup1\n          0x03\n          dup2\n          mstore\n          0x20\n          add\n          0x4552430000000000000000000000000000000000000000000000000000000000\n          dup2\n          mstore\n          pop\n          dup2\n          jump\t// out\n            /* \"Dinsey/ERC20.sol\":2976:3339  function transfer( address recipient, uint256 numTokens) public override returns(bool){\r... */\n        tag_51:\n            /* \"Dinsey/ERC20.sol\":3057:3061  bool */\n          0x00\n            /* \"Dinsey/ERC20.sol\":3094:3102  balances */\n          dup1\n            /* \"Dinsey/ERC20.sol\":3094:3114  balances[msg.sender] */\n          0x00\n            /* \"Dinsey/ERC20.sol\":3103:3113  msg.sender */\n          caller\n            /* \"Dinsey/ERC20.sol\":3094:3114  balances[msg.sender] */\n          0xffffffffffffffffffffffffffffffffffffffff\n          and\n          0xffffffffffffffffffffffffffffffffffffffff\n          and\n          dup2\n          mstore\n          0x20\n          add\n          swap1\n          dup2\n          mstore\n          0x20\n          add\n          0x00\n          keccak256\n          sload\n            /* \"Dinsey/ERC20.sol\":3081:3090  numTokens */\n          dup3\n            /* \"Dinsey/ERC20.sol\":3081:3114  numTokens <= balances[msg.sender] */\n          gt\n          iszero\n            /* \"Dinsey/ERC20.sol\":3073:3115  require(numTokens <= balances[msg.sender]) */\n          tag_76\n          jumpi\n          0x00\n          dup1\n          revert\n        tag_76:\n            /* \"Dinsey/ERC20.sol\":3149:3184  balances[msg.sender].sub(numTokens) */\n          tag_77\n            /* \"Dinsey/ERC20.sol\":3174:3183  numTokens */\n          dup3\n            /* \"Dinsey/ERC20.sol\":3149:3157  balances */\n          0x00\n            /* \"Dinsey/ERC20.sol\":3149:3169  balances[msg.sender] */\n          dup1\n            /* \"Dinsey/ERC20.sol\":3158:3168  msg.sender */\n          caller\n            /* \"Dinsey/ERC20.sol\":3149:3169  balances[msg.sender] */\n          0xffffffffffffffffffffffffffffffffffffffff\n          and\n          0xffffffffffffffffffffffffffffffffffffffff\n          and\n          dup2\n          mstore\n          0x20\n          add\n          swap1\n          dup2\n          mstore\n          0x20\n          add\n          0x00\n          keccak256\n          sload\n            /* \"Dinsey/ERC20.sol\":3149:3173  balances[msg.sender].sub */\n          tag_69\n          swap1\n            /* \"Dinsey/ERC20.sol\":3149:3184  balances[msg.sender].sub(numTokens) */\n          swap2\n          swap1\n          0xffffffff\n          and\n          jump\t// in\n        tag_77:\n            /* \"Dinsey/ERC20.sol\":3126:3134  balances */\n          0x00\n            /* \"Dinsey/ERC20.sol\":3126:3146  balances[msg.sender] */\n          dup1\n            /* \"Dinsey/ERC20.sol\":3135:3145  msg.sender */\n          caller\n            /* \"Dinsey/ERC20.sol\":3126:3146  balances[msg.sender] */\n          0xffffffffffffffffffffffffffffffffffffffff\n          and\n          0xffffffffffffffffffffffffffffffffffffffff\n          and\n          dup2\n          mstore\n          0x20\n          add\n          swap1\n          dup2\n          mstore\n          0x20\n          add\n          0x00\n          keccak256\n            /* \"Dinsey/ERC20.sol\":3126:3184  balances[msg.sender] = balances[msg.sender].sub(numTokens) */\n          dup2\n          swap1\n          sstore\n          pop\n            /* \"Dinsey/ERC20.sol\":3217:3251  balances[recipient].add(numTokens) */\n          tag_78\n            /* \"Dinsey/ERC20.sol\":3241:3250  numTokens */\n          dup3\n            /* \"Dinsey/ERC20.sol\":3217:3225  balances */\n          0x00\n            /* \"Dinsey/ERC20.sol\":3217:3236  balances[recipient] */\n          dup1\n            /* \"Dinsey/ERC20.sol\":3226:3235  recipient */\n          dup7\n            /* \"Dinsey/ERC20.sol\":3217:3236  balances[recipient] */\n          0xffffffffffffffffffffffffffffffffffffffff\n          and\n          0xffffffffffffffffffffffffffffffffffffffff\n          and\n          dup2\n          mstore\n          0x20\n          add\n          swap1\n          dup2\n          mstore\n          0x20\n          add\n          0x00\n          keccak256\n          sload\n            /* \"Dinsey/ERC20.sol\":3217:3240  balances[recipient].add */\n          tag_72\n          swap1\n            /* \"Dinsey/ERC20.sol\":3217:3251  balances[recipient].add(numTokens) */\n          swap2\n          swap1\n          0xffffffff\n          and\n          jump\t// in\n        tag_78:\n            /* \"Dinsey/ERC20.sol\":3195:3203  balances */\n          0x00\n            /* \"Dinsey/ERC20.sol\":3195:3214  balances[recipient] */\n          dup1\n            /* \"Dinsey/ERC20.sol\":3204:3213  recipient */\n          dup6\n            /* \"Dinsey/ERC20.sol\":3195:3214  balances[recipient] */\n          0xffffffffffffffffffffffffffffffffffffffff\n          and\n          0xffffffffffffffffffffffffffffffffffffffff\n          and\n          dup2\n          mstore\n          0x20\n          add\n          swap1\n          dup2\n          mstore\n          0x20\n          add\n          0x00\n          keccak256\n            /* \"Dinsey/ERC20.sol\":3195:3251  balances[recipient] = balances[recipient].add(numTokens) */\n          dup2\n          swap1\n          sstore\n          pop\n            /* \"Dinsey/ERC20.sol\":3288:3297  recipient */\n          dup3\n            /* \"Dinsey/ERC20.sol\":3267:3309  Transfer(msg.sender, recipient, numTokens) */\n          0xffffffffffffffffffffffffffffffffffffffff\n          and\n            /* \"Dinsey/ERC20.sol\":3276:3286  msg.sender */\n          caller\n            /* \"Dinsey/ERC20.sol\":3267:3309  Transfer(msg.sender, recipient, numTokens) */\n          0xffffffffffffffffffffffffffffffffffffffff\n          and\n          0xddf252ad1be2c89b69c2b068fc378daa952ba7f163c4a11628f55a4df523b3ef\n            /* \"Dinsey/ERC20.sol\":3299:3308  numTokens */\n          dup5\n            /* \"Dinsey/ERC20.sol\":3267:3309  Transfer(msg.sender, recipient, numTokens) */\n          mload(0x40)\n          tag_79\n          swap2\n          swap1\n          tag_27\n          jump\t// in\n        tag_79:\n          mload(0x40)\n          dup1\n          swap2\n          sub\n          swap1\n          log3\n            /* \"Dinsey/ERC20.sol\":3327:3331  true */\n          0x01\n            /* \"Dinsey/ERC20.sol\":3320:3331  return true */\n          swap1\n          pop\n            /* \"Dinsey/ERC20.sol\":2976:3339  function transfer( address recipient, uint256 numTokens) public override returns(bool){\r... */\n          swap3\n          swap2\n          pop\n          pop\n          jump\t// out\n            /* \"Dinsey/ERC20.sol\":2829:2968  function allowance(address owner, address delegate) public override view returns(uint256){\r... */\n        tag_56:\n            /* \"Dinsey/ERC20.sol\":2910:2917  uint256 */\n          0x00\n            /* \"Dinsey/ERC20.sol\":2936:2943  allowed */\n          0x01\n            /* \"Dinsey/ERC20.sol\":2936:2950  allowed[owner] */\n          0x00\n            /* \"Dinsey/ERC20.sol\":2944:2949  owner */\n          dup5\n            /* \"Dinsey/ERC20.sol\":2936:2950  allowed[owner] */\n          0xffffffffffffffffffffffffffffffffffffffff\n          and\n          0xffffffffffffffffffffffffffffffffffffffff\n          and\n          dup2\n          mstore\n          0x20\n          add\n          swap1\n          dup2\n          mstore\n          0x20\n          add\n          0x00\n          keccak256\n            /* \"Dinsey/ERC20.sol\":2936:2960  allowed[owner][delegate] */\n          0x00\n            /* \"Dinsey/ERC20.sol\":2951:2959  delegate */\n          dup4\n            /* \"Dinsey/ERC20.sol\":2936:2960  allowed[owner][delegate] */\n          0xffffffffffffffffffffffffffffffffffffffff\n          and\n          0xffffffffffffffffffffffffffffffffffffffff\n          and\n          dup2\n          mstore\n          0x20\n          add\n          swap1\n          dup2\n          mstore\n          0x20\n          add\n          0x00\n          keccak256\n          sload\n            /* \"Dinsey/ERC20.sol\":2929:2960  return allowed[owner][delegate] */\n          swap1\n          pop\n            /* \"Dinsey/ERC20.sol\":2829:2968  function allowance(address owner, address delegate) public override view returns(uint256){\r... */\n          swap3\n          swap2\n          pop\n          pop\n          jump\t// out\n            /* \"Dinsey/SafeMath.sol\":318:437  function sub(uint256 a, uint256 b) internal pure returns (uint256) {\r... */\n        tag_69:\n            /* \"Dinsey/SafeMath.sol\":376:383  uint256 */\n          0x00\n            /* \"Dinsey/SafeMath.sol\":406:407  a */\n          dup3\n            /* \"Dinsey/SafeMath.sol\":401:402  b */\n          dup3\n            /* \"Dinsey/SafeMath.sol\":401:407  b <= a */\n          gt\n          iszero\n            /* \"Dinsey/SafeMath.sol\":394:408  assert(b <= a) */\n          tag_82\n          jumpi\n          tag_83\n          tag_84\n          jump\t// in\n        tag_83:\n        tag_82:\n            /* \"Dinsey/SafeMath.sol\":428:429  b */\n          dup2\n            /* \"Dinsey/SafeMath.sol\":424:425  a */\n          dup4\n            /* \"Dinsey/SafeMath.sol\":424:429  a - b */\n          tag_85\n          swap2\n          swap1\n          tag_86\n          jump\t// in\n        tag_85:\n            /* \"Dinsey/SafeMath.sol\":417:429  return a - b */\n          swap1\n          pop\n            /* \"Dinsey/SafeMath.sol\":318:437  function sub(uint256 a, uint256 b) internal pure returns (uint256) {\r... */\n          swap3\n          swap2\n          pop\n          pop\n          jump\t// out\n            /* \"Dinsey/SafeMath.sol\":463:604  function add(uint256 a, uint256 b) internal pure returns (uint256) {\r... */\n        tag_72:\n            /* \"Dinsey/SafeMath.sol\":521:528  uint256 */\n          0x00\n            /* \"Dinsey/SafeMath.sol\":539:548  uint256 c */\n          dup1\n            /* \"Dinsey/SafeMath.sol\":555:556  b */\n          dup3\n            /* \"Dinsey/SafeMath.sol\":551:552  a */\n          dup5\n            /* \"Dinsey/SafeMath.sol\":551:556  a + b */\n          tag_88\n          swap2\n          swap1\n          tag_63\n          jump\t// in\n        tag_88:\n            /* \"Dinsey/SafeMath.sol\":539:556  uint256 c = a + b */\n          swap1\n          pop\n            /* \"Dinsey/SafeMath.sol\":577:578  a */\n          dup4\n            /* \"Dinsey/SafeMath.sol\":572:573  c */\n          dup2\n            /* \"Dinsey/SafeMath.sol\":572:578  c >= a */\n          lt\n          iszero\n            /* \"Dinsey/SafeMath.sol\":565:579  assert(c >= a) */\n          tag_89\n          jumpi\n          tag_90\n          tag_84\n          jump\t// in\n        tag_90:\n        tag_89:\n            /* \"Dinsey/SafeMath.sol\":595:596  c */\n          dup1\n            /* \"Dinsey/SafeMath.sol\":588:596  return c */\n          swap2\n          pop\n          pop\n            /* \"Dinsey/SafeMath.sol\":463:604  function add(uint256 a, uint256 b) internal pure returns (uint256) {\r... */\n          swap3\n          swap2\n          pop\n          pop\n          jump\t// out\n            /* \"#utility.yul\":7:146   */\n        tag_92:\n            /* \"#utility.yul\":53:58   */\n          0x00\n            /* \"#utility.yul\":91:97   */\n          dup2\n            /* \"#utility.yul\":78:98   */\n          calldataload\n            /* \"#utility.yul\":69:98   */\n          swap1\n          pop\n            /* \"#utility.yul\":107:140   */\n          tag_94\n            /* \"#utility.yul\":134:139   */\n          dup2\n            /* \"#utility.yul\":107:140   */\n          tag_95\n          jump\t// in\n        tag_94:\n            /* \"#utility.yul\":7:146   */\n          swap3\n          swap2\n          pop\n          pop\n          jump\t// out\n            /* \"#utility.yul\":152:291   */\n        tag_96:\n            /* \"#utility.yul\":198:203   */\n          0x00\n            /* \"#utility.yul\":236:242   */\n          dup2\n            /* \"#utility.yul\":223:243   */\n          calldataload\n            /* \"#utility.yul\":214:243   */\n          swap1\n          pop\n            /* \"#utility.yul\":252:285   */\n          tag_98\n            /* \"#utility.yul\":279:284   */\n          dup2\n            /* \"#utility.yul\":252:285   */\n          tag_99\n          jump\t// in\n        tag_98:\n            /* \"#utility.yul\":152:291   */\n          swap3\n          swap2\n          pop\n          pop\n          jump\t// out\n            /* \"#utility.yul\":297:626   */\n        tag_43:\n            /* \"#utility.yul\":356:362   */\n          0x00\n            /* \"#utility.yul\":405:407   */\n          0x20\n            /* \"#utility.yul\":393:402   */\n          dup3\n            /* \"#utility.yul\":384:391   */\n          dup5\n            /* \"#utility.yul\":380:403   */\n          sub\n            /* \"#utility.yul\":376:408   */\n          slt\n            /* \"#utility.yul\":373:492   */\n          iszero\n          tag_101\n          jumpi\n            /* \"#utility.yul\":411:490   */\n          tag_102\n          tag_103\n          jump\t// in\n        tag_102:\n            /* \"#utility.yul\":373:492   */\n        tag_101:\n            /* \"#utility.yul\":531:532   */\n          0x00\n            /* \"#utility.yul\":556:609   */\n          tag_104\n            /* \"#utility.yul\":601:608   */\n          dup5\n            /* \"#utility.yul\":592:598   */\n          dup3\n            /* \"#utility.yul\":581:590   */\n          dup6\n            /* \"#utility.yul\":577:599   */\n          add\n            /* \"#utility.yul\":556:609   */\n          tag_92\n          jump\t// in\n        tag_104:\n            /* \"#utility.yul\":546:609   */\n          swap2\n          pop\n            /* \"#utility.yul\":502:619   */\n          pop\n            /* \"#utility.yul\":297:626   */\n          swap3\n          swap2\n          pop\n          pop\n          jump\t// out\n            /* \"#utility.yul\":632:1106   */\n        tag_55:\n            /* \"#utility.yul\":700:706   */\n          0x00\n            /* \"#utility.yul\":708:714   */\n          dup1\n            /* \"#utility.yul\":757:759   */\n          0x40\n            /* \"#utility.yul\":745:754   */\n          dup4\n            /* \"#utility.yul\":736:743   */\n          dup6\n            /* \"#utility.yul\":732:755   */\n          sub\n            /* \"#utility.yul\":728:760   */\n          slt\n            /* \"#utility.yul\":725:844   */\n          iszero\n          tag_106\n          jumpi\n            /* \"#utility.yul\":763:842   */\n          tag_107\n          tag_103\n          jump\t// in\n        tag_107:\n            /* \"#utility.yul\":725:844   */\n        tag_106:\n            /* \"#utility.yul\":883:884   */\n          0x00\n            /* \"#utility.yul\":908:961   */\n          tag_108\n            /* \"#utility.yul\":953:960   */\n          dup6\n            /* \"#utility.yul\":944:950   */\n          dup3\n            /* \"#utility.yul\":933:942   */\n          dup7\n            /* \"#utility.yul\":929:951   */\n          add\n            /* \"#utility.yul\":908:961   */\n          tag_92\n          jump\t// in\n        tag_108:\n            /* \"#utility.yul\":898:961   */\n          swap3\n          pop\n            /* \"#utility.yul\":854:971   */\n          pop\n            /* \"#utility.yul\":1010:1012   */\n          0x20\n            /* \"#utility.yul\":1036:1089   */\n          tag_109\n            /* \"#utility.yul\":1081:1088   */\n          dup6\n            /* \"#utility.yul\":1072:1078   */\n          dup3\n            /* \"#utility.yul\":1061:1070   */\n          dup7\n            /* \"#utility.yul\":1057:1079   */\n          add\n            /* \"#utility.yul\":1036:1089   */\n          tag_92\n          jump\t// in\n        tag_109:\n            /* \"#utility.yul\":1026:1089   */\n          swap2\n          pop\n            /* \"#utility.yul\":981:1099   */\n          pop\n            /* \"#utility.yul\":632:1106   */\n          swap3\n          pop\n          swap3\n          swap1\n          pop\n          jump\t// out\n            /* \"#utility.yul\":1112:1731   */\n        tag_34:\n            /* \"#utility.yul\":1189:1195   */\n          0x00\n            /* \"#utility.yul\":1197:1203   */\n          dup1\n            /* \"#utility.yul\":1205:1211   */\n          0x00\n            /* \"#utility.yul\":1254:1256   */\n          0x60\n            /* \"#utility.yul\":1242:1251   */\n          dup5\n            /* \"#utility.yul\":1233:1240   */\n          dup7\n            /* \"#utility.yul\":1229:1252   */\n          sub\n            /* \"#utility.yul\":1225:1257   */\n          slt\n            /* \"#utility.yul\":1222:1341   */\n          iszero\n          tag_111\n          jumpi\n            /* \"#utility.yul\":1260:1339   */\n          tag_112\n          tag_103\n          jump\t// in\n        tag_112:\n            /* \"#utility.yul\":1222:1341   */\n        tag_111:\n            /* \"#utility.yul\":1380:1381   */\n          0x00\n            /* \"#utility.yul\":1405:1458   */\n          tag_113\n            /* \"#utility.yul\":1450:1457   */\n          dup7\n            /* \"#utility.yul\":1441:1447   */\n          dup3\n            /* \"#utility.yul\":1430:1439   */\n          dup8\n            /* \"#utility.yul\":1426:1448   */\n          add\n            /* \"#utility.yul\":1405:1458   */\n          tag_92\n          jump\t// in\n        tag_113:\n            /* \"#utility.yul\":1395:1458   */\n          swap4\n          pop\n            /* \"#utility.yul\":1351:1468   */\n          pop\n            /* \"#utility.yul\":1507:1509   */\n          0x20\n            /* \"#utility.yul\":1533:1586   */\n          tag_114\n            /* \"#utility.yul\":1578:1585   */\n          dup7\n            /* \"#utility.yul\":1569:1575   */\n          dup3\n            /* \"#utility.yul\":1558:1567   */\n          dup8\n            /* \"#utility.yul\":1554:1576   */\n          add\n            /* \"#utility.yul\":1533:1586   */\n          tag_92\n          jump\t// in\n        tag_114:\n            /* \"#utility.yul\":1523:1586   */\n          swap3\n          pop\n            /* \"#utility.yul\":1478:1596   */\n          pop\n            /* \"#utility.yul\":1635:1637   */\n          0x40\n            /* \"#utility.yul\":1661:1714   */\n          tag_115\n            /* \"#utility.yul\":1706:1713   */\n          dup7\n            /* \"#utility.yul\":1697:1703   */\n          dup3\n            /* \"#utility.yul\":1686:1695   */\n          dup8\n            /* \"#utility.yul\":1682:1704   */\n          add\n            /* \"#utility.yul\":1661:1714   */\n          tag_96\n          jump\t// in\n        tag_115:\n            /* \"#utility.yul\":1651:1714   */\n          swap2\n          pop\n            /* \"#utility.yul\":1606:1724   */\n          pop\n            /* \"#utility.yul\":1112:1731   */\n          swap3\n          pop\n          swap3\n          pop\n          swap3\n          jump\t// out\n            /* \"#utility.yul\":1737:2211   */\n        tag_20:\n            /* \"#utility.yul\":1805:1811   */\n          0x00\n            /* \"#utility.yul\":1813:1819   */\n          dup1\n            /* \"#utility.yul\":1862:1864   */\n          0x40\n            /* \"#utility.yul\":1850:1859   */\n          dup4\n            /* \"#utility.yul\":1841:1848   */\n          dup6\n            /* \"#utility.yul\":1837:1860   */\n          sub\n            /* \"#utility.yul\":1833:1865   */\n          slt\n            /* \"#utility.yul\":1830:1949   */\n          iszero\n          tag_117\n          jumpi\n            /* \"#utility.yul\":1868:1947   */\n          tag_118\n          tag_103\n          jump\t// in\n        tag_118:\n            /* \"#utility.yul\":1830:1949   */\n        tag_117:\n            /* \"#utility.yul\":1988:1989   */\n          0x00\n            /* \"#utility.yul\":2013:2066   */\n          tag_119\n            /* \"#utility.yul\":2058:2065   */\n          dup6\n            /* \"#utility.yul\":2049:2055   */\n          dup3\n            /* \"#utility.yul\":2038:2047   */\n          dup7\n            /* \"#utility.yul\":2034:2056   */\n          add\n            /* \"#utility.yul\":2013:2066   */\n          tag_92\n          jump\t// in\n        tag_119:\n            /* \"#utility.yul\":2003:2066   */\n          swap3\n          pop\n            /* \"#utility.yul\":1959:2076   */\n          pop\n            /* \"#utility.yul\":2115:2117   */\n          0x20\n            /* \"#utility.yul\":2141:2194   */\n          tag_120\n            /* \"#utility.yul\":2186:2193   */\n          dup6\n            /* \"#utility.yul\":2177:2183   */\n          dup3\n            /* \"#utility.yul\":2166:2175   */\n          dup7\n            /* \"#utility.yul\":2162:2184   */\n          add\n            /* \"#utility.yul\":2141:2194   */\n          tag_96\n          jump\t// in\n        tag_120:\n            /* \"#utility.yul\":2131:2194   */\n          swap2\n          pop\n            /* \"#utility.yul\":2086:2204   */\n          pop\n            /* \"#utility.yul\":1737:2211   */\n          swap3\n          pop\n          swap3\n          swap1\n          pop\n          jump\t// out\n            /* \"#utility.yul\":2217:2546   */\n        tag_30:\n            /* \"#utility.yul\":2276:2282   */\n          0x00\n            /* \"#utility.yul\":2325:2327   */\n          0x20\n            /* \"#utility.yul\":2313:2322   */\n          dup3\n            /* \"#utility.yul\":2304:2311   */\n          dup5\n            /* \"#utility.yul\":2300:2323   */\n          sub\n            /* \"#utility.yul\":2296:2328   */\n          slt\n            /* \"#utility.yul\":2293:2412   */\n          iszero\n          tag_122\n          jumpi\n            /* \"#utility.yul\":2331:2410   */\n          tag_123\n          tag_103\n          jump\t// in\n        tag_123:\n            /* \"#utility.yul\":2293:2412   */\n        tag_122:\n            /* \"#utility.yul\":2451:2452   */\n          0x00\n            /* \"#utility.yul\":2476:2529   */\n          tag_124\n            /* \"#utility.yul\":2521:2528   */\n          dup5\n            /* \"#utility.yul\":2512:2518   */\n          dup3\n            /* \"#utility.yul\":2501:2510   */\n          dup6\n            /* \"#utility.yul\":2497:2519   */\n          add\n            /* \"#utility.yul\":2476:2529   */\n          tag_96\n          jump\t// in\n        tag_124:\n            /* \"#utility.yul\":2466:2529   */\n          swap2\n          pop\n            /* \"#utility.yul\":2422:2539   */\n          pop\n            /* \"#utility.yul\":2217:2546   */\n          swap3\n          swap2\n          pop\n          pop\n          jump\t// out\n            /* \"#utility.yul\":2552:2661   */\n        tag_125:\n            /* \"#utility.yul\":2633:2654   */\n          tag_127\n            /* \"#utility.yul\":2648:2653   */\n          dup2\n            /* \"#utility.yul\":2633:2654   */\n          tag_128\n          jump\t// in\n        tag_127:\n            /* \"#utility.yul\":2628:2631   */\n          dup3\n            /* \"#utility.yul\":2621:2655   */\n          mstore\n            /* \"#utility.yul\":2552:2661   */\n          pop\n          pop\n          jump\t// out\n            /* \"#utility.yul\":2667:3031   */\n        tag_129:\n            /* \"#utility.yul\":2755:2758   */\n          0x00\n            /* \"#utility.yul\":2783:2822   */\n          tag_131\n            /* \"#utility.yul\":2816:2821   */\n          dup3\n            /* \"#utility.yul\":2783:2822   */\n          tag_132\n          jump\t// in\n        tag_131:\n            /* \"#utility.yul\":2838:2909   */\n          tag_133\n            /* \"#utility.yul\":2902:2908   */\n          dup2\n            /* \"#utility.yul\":2897:2900   */\n          dup6\n            /* \"#utility.yul\":2838:2909   */\n          tag_134\n          jump\t// in\n        tag_133:\n            /* \"#utility.yul\":2831:2909   */\n          swap4\n          pop\n            /* \"#utility.yul\":2918:2970   */\n          tag_135\n            /* \"#utility.yul\":2963:2969   */\n          dup2\n            /* \"#utility.yul\":2958:2961   */\n          dup6\n            /* \"#utility.yul\":2951:2955   */\n          0x20\n            /* \"#utility.yul\":2944:2949   */\n          dup7\n            /* \"#utility.yul\":2940:2956   */\n          add\n            /* \"#utility.yul\":2918:2970   */\n          tag_136\n          jump\t// in\n        tag_135:\n            /* \"#utility.yul\":2995:3024   */\n          tag_137\n            /* \"#utility.yul\":3017:3023   */\n          dup2\n            /* \"#utility.yul\":2995:3024   */\n          tag_138\n          jump\t// in\n        tag_137:\n            /* \"#utility.yul\":2990:2993   */\n          dup5\n            /* \"#utility.yul\":2986:3025   */\n          add\n            /* \"#utility.yul\":2979:3025   */\n          swap2\n          pop\n            /* \"#utility.yul\":2759:3031   */\n          pop\n            /* \"#utility.yul\":2667:3031   */\n          swap3\n          swap2\n          pop\n          pop\n          jump\t// out\n            /* \"#utility.yul\":3037:3155   */\n        tag_139:\n            /* \"#utility.yul\":3124:3148   */\n          tag_141\n            /* \"#utility.yul\":3142:3147   */\n          dup2\n            /* \"#utility.yul\":3124:3148   */\n          tag_142\n          jump\t// in\n        tag_141:\n            /* \"#utility.yul\":3119:3122   */\n          dup3\n            /* \"#utility.yul\":3112:3149   */\n          mstore\n            /* \"#utility.yul\":3037:3155   */\n          pop\n          pop\n          jump\t// out\n            /* \"#utility.yul\":3161:3273   */\n        tag_143:\n            /* \"#utility.yul\":3244:3266   */\n          tag_145\n            /* \"#utility.yul\":3260:3265   */\n          dup2\n            /* \"#utility.yul\":3244:3266   */\n          tag_146\n          jump\t// in\n        tag_145:\n            /* \"#utility.yul\":3239:3242   */\n          dup3\n            /* \"#utility.yul\":3232:3267   */\n          mstore\n            /* \"#utility.yul\":3161:3273   */\n          pop\n          pop\n          jump\t// out\n            /* \"#utility.yul\":3279:3489   */\n        tag_23:\n            /* \"#utility.yul\":3366:3370   */\n          0x00\n            /* \"#utility.yul\":3404:3406   */\n          0x20\n            /* \"#utility.yul\":3393:3402   */\n          dup3\n            /* \"#utility.yul\":3389:3407   */\n          add\n            /* \"#utility.yul\":3381:3407   */\n          swap1\n          pop\n            /* \"#utility.yul\":3417:3482   */\n          tag_148\n            /* \"#utility.yul\":3479:3480   */\n          0x00\n            /* \"#utility.yul\":3468:3477   */\n          dup4\n            /* \"#utility.yul\":3464:3481   */\n          add\n            /* \"#utility.yul\":3455:3461   */\n          dup5\n            /* \"#utility.yul\":3417:3482   */\n          tag_125\n          jump\t// in\n        tag_148:\n            /* \"#utility.yul\":3279:3489   */\n          swap3\n          swap2\n          pop\n          pop\n          jump\t// out\n            /* \"#utility.yul\":3495:3808   */\n        tag_17:\n            /* \"#utility.yul\":3608:3612   */\n          0x00\n            /* \"#utility.yul\":3646:3648   */\n          0x20\n            /* \"#utility.yul\":3635:3644   */\n          dup3\n            /* \"#utility.yul\":3631:3649   */\n          add\n            /* \"#utility.yul\":3623:3649   */\n          swap1\n          pop\n            /* \"#utility.yul\":3695:3704   */\n          dup2\n            /* \"#utility.yul\":3689:3693   */\n          dup2\n            /* \"#utility.yul\":3685:3705   */\n          sub\n            /* \"#utility.yul\":3681:3682   */\n          0x00\n            /* \"#utility.yul\":3670:3679   */\n          dup4\n            /* \"#utility.yul\":3666:3683   */\n          add\n            /* \"#utility.yul\":3659:3706   */\n          mstore\n            /* \"#utility.yul\":3723:3801   */\n          tag_150\n            /* \"#utility.yul\":3796:3800   */\n          dup2\n            /* \"#utility.yul\":3787:3793   */\n          dup5\n            /* \"#utility.yul\":3723:3801   */\n          tag_129\n          jump\t// in\n        tag_150:\n            /* \"#utility.yul\":3715:3801   */\n          swap1\n          pop\n            /* \"#utility.yul\":3495:3808   */\n          swap3\n          swap2\n          pop\n          pop\n          jump\t// out\n            /* \"#utility.yul\":3814:4036   */\n        tag_27:\n            /* \"#utility.yul\":3907:3911   */\n          0x00\n            /* \"#utility.yul\":3945:3947   */\n          0x20\n            /* \"#utility.yul\":3934:3943   */\n          dup3\n            /* \"#utility.yul\":3930:3948   */\n          add\n            /* \"#utility.yul\":3922:3948   */\n          swap1\n          pop\n            /* \"#utility.yul\":3958:4029   */\n          tag_152\n            /* \"#utility.yul\":4026:4027   */\n          0x00\n            /* \"#utility.yul\":4015:4024   */\n          dup4\n            /* \"#utility.yul\":4011:4028   */\n          add\n            /* \"#utility.yul\":4002:4008   */\n          dup5\n            /* \"#utility.yul\":3958:4029   */\n          tag_139\n          jump\t// in\n        tag_152:\n            /* \"#utility.yul\":3814:4036   */\n          swap3\n          swap2\n          pop\n          pop\n          jump\t// out\n            /* \"#utility.yul\":4042:4256   */\n        tag_40:\n            /* \"#utility.yul\":4131:4135   */\n          0x00\n            /* \"#utility.yul\":4169:4171   */\n          0x20\n            /* \"#utility.yul\":4158:4167   */\n          dup3\n            /* \"#utility.yul\":4154:4172   */\n          add\n            /* \"#utility.yul\":4146:4172   */\n          swap1\n          pop\n            /* \"#utility.yul\":4182:4249   */\n          tag_154\n            /* \"#utility.yul\":4246:4247   */\n          0x00\n            /* \"#utility.yul\":4235:4244   */\n          dup4\n            /* \"#utility.yul\":4231:4248   */\n          add\n            /* \"#utility.yul\":4222:4228   */\n          dup5\n            /* \"#utility.yul\":4182:4249   */\n          tag_143\n          jump\t// in\n        tag_154:\n            /* \"#utility.yul\":4042:4256   */\n          swap3\n          swap2\n          pop\n          pop\n          jump\t// out\n            /* \"#utility.yul\":4343:4442   */\n        tag_132:\n            /* \"#utility.yul\":4395:4401   */\n          0x00\n            /* \"#utility.yul\":4429:4434   */\n          dup2\n            /* \"#utility.yul\":4423:4435   */\n          mload\n            /* \"#utility.yul\":4413:4435   */\n          swap1\n          pop\n            /* \"#utility.yul\":4343:4442   */\n          swap2\n          swap1\n          pop\n          jump\t// out\n            /* \"#utility.yul\":4448:4617   */\n        tag_134:\n            /* \"#utility.yul\":4532:4543   */\n          0x00\n            /* \"#utility.yul\":4566:4572   */\n          dup3\n            /* \"#utility.yul\":4561:4564   */\n          dup3\n            /* \"#utility.yul\":4554:4573   */\n          mstore\n            /* \"#utility.yul\":4606:4610   */\n          0x20\n            /* \"#utility.yul\":4601:4604   */\n          dup3\n            /* \"#utility.yul\":4597:4611   */\n          add\n            /* \"#utility.yul\":4582:4611   */\n          swap1\n          pop\n            /* \"#utility.yul\":4448:4617   */\n          swap3\n          swap2\n          pop\n          pop\n          jump\t// out\n            /* \"#utility.yul\":4623:4928   */\n        tag_63:\n            /* \"#utility.yul\":4663:4666   */\n          0x00\n            /* \"#utility.yul\":4682:4702   */\n          tag_160\n            /* \"#utility.yul\":4700:4701   */\n          dup3\n            /* \"#utility.yul\":4682:4702   */\n          tag_142\n          jump\t// in\n        tag_160:\n            /* \"#utility.yul\":4677:4702   */\n          swap2\n          pop\n            /* \"#utility.yul\":4716:4736   */\n          tag_161\n            /* \"#utility.yul\":4734:4735   */\n          dup4\n            /* \"#utility.yul\":4716:4736   */\n          tag_142\n          jump\t// in\n        tag_161:\n            /* \"#utility.yul\":4711:4736   */\n          swap3\n          pop\n            /* \"#utility.yul\":4870:4871   */\n          dup3\n            /* \"#utility.yul\":4802:4868   */\n          0xffffffffffffffffffffffffffffffffffffffffffffffffffffffffffffffff\n            /* \"#utility.yul\":4798:4872   */\n          sub\n            /* \"#utility.yul\":4795:4796   */\n          dup3\n            /* \"#utility.yul\":4792:4873   */\n          gt\n            /* \"#utility.yul\":4789:4896   */\n          iszero\n          tag_162\n          jumpi\n            /* \"#utility.yul\":4876:4894   */\n          tag_163\n          tag_164\n          jump\t// in\n        tag_163:\n            /* \"#utility.yul\":4789:4896   */\n        tag_162:\n            /* \"#utility.yul\":4920:4921   */\n          dup3\n            /* \"#utility.yul\":4917:4918   */\n          dup3\n            /* \"#utility.yul\":4913:4922   */\n          add\n            /* \"#utility.yul\":4906:4922   */\n          swap1\n          pop\n            /* \"#utility.yul\":4623:4928   */\n          swap3\n          swap2\n          pop\n          pop\n          jump\t// out\n            /* \"#utility.yul\":4934:5125   */\n        tag_86:\n            /* \"#utility.yul\":4974:4978   */\n          0x00\n            /* \"#utility.yul\":4994:5014   */\n          tag_166\n            /* \"#utility.yul\":5012:5013   */\n          dup3\n            /* \"#utility.yul\":4994:5014   */\n          tag_142\n          jump\t// in\n        tag_166:\n            /* \"#utility.yul\":4989:5014   */\n          swap2\n          pop\n            /* \"#utility.yul\":5028:5048   */\n          tag_167\n            /* \"#utility.yul\":5046:5047   */\n          dup4\n            /* \"#utility.yul\":5028:5048   */\n          tag_142\n          jump\t// in\n        tag_167:\n            /* \"#utility.yul\":5023:5048   */\n          swap3\n          pop\n            /* \"#utility.yul\":5067:5068   */\n          dup3\n            /* \"#utility.yul\":5064:5065   */\n          dup3\n            /* \"#utility.yul\":5061:5069   */\n          lt\n            /* \"#utility.yul\":5058:5092   */\n          iszero\n          tag_168\n          jumpi\n            /* \"#utility.yul\":5072:5090   */\n          tag_169\n          tag_164\n          jump\t// in\n        tag_169:\n            /* \"#utility.yul\":5058:5092   */\n        tag_168:\n            /* \"#utility.yul\":5117:5118   */\n          dup3\n            /* \"#utility.yul\":5114:5115   */\n          dup3\n            /* \"#utility.yul\":5110:5119   */\n          sub\n            /* \"#utility.yul\":5102:5119   */\n          swap1\n          pop\n            /* \"#utility.yul\":4934:5125   */\n          swap3\n          swap2\n          pop\n          pop\n          jump\t// out\n            /* \"#utility.yul\":5131:5227   */\n        tag_170:\n            /* \"#utility.yul\":5168:5175   */\n          0x00\n            /* \"#utility.yul\":5197:5221   */\n          tag_172\n            /* \"#utility.yul\":5215:5220   */\n          dup3\n            /* \"#utility.yul\":5197:5221   */\n          tag_173\n          jump\t// in\n        tag_172:\n            /* \"#utility.yul\":5186:5221   */\n          swap1\n          pop\n            /* \"#utility.yul\":5131:5227   */\n          swap2\n          swap1\n          pop\n          jump\t// out\n            /* \"#utility.yul\":5233:5323   */\n        tag_128:\n            /* \"#utility.yul\":5267:5274   */\n          0x00\n            /* \"#utility.yul\":5310:5315   */\n          dup2\n            /* \"#utility.yul\":5303:5316   */\n          iszero\n            /* \"#utility.yul\":5296:5317   */\n          iszero\n            /* \"#utility.yul\":5285:5317   */\n          swap1\n          pop\n            /* \"#utility.yul\":5233:5323   */\n          swap2\n          swap1\n          pop\n          jump\t// out\n            /* \"#utility.yul\":5329:5455   */\n        tag_173:\n            /* \"#utility.yul\":5366:5373   */\n          0x00\n            /* \"#utility.yul\":5406:5448   */\n          0xffffffffffffffffffffffffffffffffffffffff\n            /* \"#utility.yul\":5399:5404   */\n          dup3\n            /* \"#utility.yul\":5395:5449   */\n          and\n            /* \"#utility.yul\":5384:5449   */\n          swap1\n          pop\n            /* \"#utility.yul\":5329:5455   */\n          swap2\n          swap1\n          pop\n          jump\t// out\n            /* \"#utility.yul\":5461:5538   */\n        tag_142:\n            /* \"#utility.yul\":5498:5505   */\n          0x00\n            /* \"#utility.yul\":5527:5532   */\n          dup2\n            /* \"#utility.yul\":5516:5532   */\n          swap1\n          pop\n            /* \"#utility.yul\":5461:5538   */\n          swap2\n          swap1\n          pop\n          jump\t// out\n            /* \"#utility.yul\":5544:5630   */\n        tag_146:\n            /* \"#utility.yul\":5579:5586   */\n          0x00\n            /* \"#utility.yul\":5619:5623   */\n          0xff\n            /* \"#utility.yul\":5612:5617   */\n          dup3\n            /* \"#utility.yul\":5608:5624   */\n          and\n            /* \"#utility.yul\":5597:5624   */\n          swap1\n          pop\n            /* \"#utility.yul\":5544:5630   */\n          swap2\n          swap1\n          pop\n          jump\t// out\n            /* \"#utility.yul\":5636:5943   */\n        tag_136:\n            /* \"#utility.yul\":5704:5705   */\n          0x00\n            /* \"#utility.yul\":5714:5827   */\n        tag_179:\n            /* \"#utility.yul\":5728:5734   */\n          dup4\n            /* \"#utility.yul\":5725:5726   */\n          dup2\n            /* \"#utility.yul\":5722:5735   */\n          lt\n            /* \"#utility.yul\":5714:5827   */\n          iszero\n          tag_181\n          jumpi\n            /* \"#utility.yul\":5813:5814   */\n          dup1\n            /* \"#utility.yul\":5808:5811   */\n          dup3\n            /* \"#utility.yul\":5804:5815   */\n          add\n            /* \"#utility.yul\":5798:5816   */\n          mload\n            /* \"#utility.yul\":5794:5795   */\n          dup2\n            /* \"#utility.yul\":5789:5792   */\n          dup5\n            /* \"#utility.yul\":5785:5796   */\n          add\n            /* \"#utility.yul\":5778:5817   */\n          mstore\n            /* \"#utility.yul\":5750:5752   */\n          0x20\n            /* \"#utility.yul\":5747:5748   */\n          dup2\n            /* \"#utility.yul\":5743:5753   */\n          add\n            /* \"#utility.yul\":5738:5753   */\n          swap1\n          pop\n            /* \"#utility.yul\":5714:5827   */\n          jump(tag_179)\n        tag_181:\n            /* \"#utility.yul\":5845:5851   */\n          dup4\n            /* \"#utility.yul\":5842:5843   */\n          dup2\n            /* \"#utility.yul\":5839:5852   */\n          gt\n            /* \"#utility.yul\":5836:5937   */\n          iszero\n          tag_182\n          jumpi\n            /* \"#utility.yul\":5925:5926   */\n          0x00\n            /* \"#utility.yul\":5916:5922   */\n          dup5\n            /* \"#utility.yul\":5911:5914   */\n          dup5\n            /* \"#utility.yul\":5907:5923   */\n          add\n            /* \"#utility.yul\":5900:5927   */\n          mstore\n            /* \"#utility.yul\":5836:5937   */\n        tag_182:\n            /* \"#utility.yul\":5685:5943   */\n          pop\n            /* \"#utility.yul\":5636:5943   */\n          pop\n          pop\n          pop\n          jump\t// out\n            /* \"#utility.yul\":5949:6129   */\n        tag_84:\n            /* \"#utility.yul\":5997:6074   */\n          0x4e487b7100000000000000000000000000000000000000000000000000000000\n            /* \"#utility.yul\":5994:5995   */\n          0x00\n            /* \"#utility.yul\":5987:6075   */\n          mstore\n            /* \"#utility.yul\":6094:6098   */\n          0x01\n            /* \"#utility.yul\":6091:6092   */\n          0x04\n            /* \"#utility.yul\":6084:6099   */\n          mstore\n            /* \"#utility.yul\":6118:6122   */\n          0x24\n            /* \"#utility.yul\":6115:6116   */\n          0x00\n            /* \"#utility.yul\":6108:6123   */\n          revert\n            /* \"#utility.yul\":6135:6315   */\n        tag_164:\n            /* \"#utility.yul\":6183:6260   */\n          0x4e487b7100000000000000000000000000000000000000000000000000000000\n            /* \"#utility.yul\":6180:6181   */\n          0x00\n            /* \"#utility.yul\":6173:6261   */\n          mstore\n            /* \"#utility.yul\":6280:6284   */\n          0x11\n            /* \"#utility.yul\":6277:6278   */\n          0x04\n            /* \"#utility.yul\":6270:6285   */\n          mstore\n            /* \"#utility.yul\":6304:6308   */\n          0x24\n            /* \"#utility.yul\":6301:6302   */\n          0x00\n            /* \"#utility.yul\":6294:6309   */\n          revert\n            /* \"#utility.yul\":6444:6561   */\n        tag_103:\n            /* \"#utility.yul\":6553:6554   */\n          0x00\n            /* \"#utility.yul\":6550:6551   */\n          dup1\n            /* \"#utility.yul\":6543:6555   */\n          revert\n            /* \"#utility.yul\":6567:6669   */\n        tag_138:\n            /* \"#utility.yul\":6608:6614   */\n          0x00\n            /* \"#utility.yul\":6659:6661   */\n          0x1f\n            /* \"#utility.yul\":6655:6662   */\n          not\n            /* \"#utility.yul\":6650:6652   */\n          0x1f\n            /* \"#utility.yul\":6643:6648   */\n          dup4\n            /* \"#utility.yul\":6639:6653   */\n          add\n            /* \"#utility.yul\":6635:6663   */\n          and\n            /* \"#utility.yul\":6625:6663   */\n          swap1\n          pop\n            /* \"#utility.yul\":6567:6669   */\n          swap2\n          swap1\n          pop\n          jump\t// out\n            /* \"#utility.yul\":6675:6797   */\n        tag_95:\n            /* \"#utility.yul\":6748:6772   */\n          tag_190\n            /* \"#utility.yul\":6766:6771   */\n          dup2\n            /* \"#utility.yul\":6748:6772   */\n          tag_170\n          jump\t// in\n        tag_190:\n            /* \"#utility.yul\":6741:6746   */\n          dup2\n            /* \"#utility.yul\":6738:6773   */\n          eq\n            /* \"#utility.yul\":6728:6791   */\n          tag_191\n          jumpi\n            /* \"#utility.yul\":6787:6788   */\n          0x00\n            /* \"#utility.yul\":6784:6785   */\n          dup1\n            /* \"#utility.yul\":6777:6789   */\n          revert\n            /* \"#utility.yul\":6728:6791   */\n        tag_191:\n            /* \"#utility.yul\":6675:6797   */\n          pop\n          jump\t// out\n            /* \"#utility.yul\":6803:6925   */\n        tag_99:\n            /* \"#utility.yul\":6876:6900   */\n          tag_193\n            /* \"#utility.yul\":6894:6899   */\n          dup2\n            /* \"#utility.yul\":6876:6900   */\n          tag_142\n          jump\t// in\n        tag_193:\n            /* \"#utility.yul\":6869:6874   */\n          dup2\n            /* \"#utility.yul\":6866:6901   */\n          eq\n            /* \"#utility.yul\":6856:6919   */\n          tag_194\n          jumpi\n            /* \"#utility.yul\":6915:6916   */\n          0x00\n            /* \"#utility.yul\":6912:6913   */\n          dup1\n            /* \"#utility.yul\":6905:6917   */\n          revert\n            /* \"#utility.yul\":6856:6919   */\n        tag_194:\n            /* \"#utility.yul\":6803:6925   */\n          pop\n          jump\t// out\n\n        auxdata: 0xa264697066735822122038b3b629220f7bb9b58abd7142da7e1995c26e1fa1ce23bece24cce293b055dc64736f6c63430008070033\n    }\n}\n",
				"bytecode": {
					"linkReferences": {},
					"object": "60806040523480156200001157600080fd5b506127106040516200002390620000d3565b6200002f9190620000f2565b604051809103906000f0801580156200004c573d6000803e3d6000fd5b506000806101000a81548173ffffffffffffffffffffffffffffffffffffffff021916908373ffffffffffffffffffffffffffffffffffffffff16021790555033600160006101000a81548173ffffffffffffffffffffffffffffffffffffffff021916908373ffffffffffffffffffffffffffffffffffffffff1602179055506200012d565b610fbb8062001a0283390190565b620000ec8162000119565b82525050565b6000602082019050620001096000830184620000e1565b92915050565b6000819050919050565b600062000126826200010f565b9050919050565b6118c5806200013d6000396000f3fe6080604052600436106100915760003560e01c8063ba2d17fe11610059578063ba2d17fe1461015c578063c66dca4014610185578063ce6dd8c4146101ae578063ce8f2f38146101d9578063d00df2961461021657610091565b80631fccb33c146100965780632076b56c146100c157806348ba0838146100ea578063722713f7146101065780638da5cb5b14610131575b600080fd5b3480156100a257600080fd5b506100ab610255565b6040516100b89190611224565b60405180910390f35b3480156100cd57600080fd5b506100e860048036038101906100e39190610e6e565b61032e565b005b61010460048036038101906100ff9190610eca565b6104bf565b005b34801561011257600080fd5b5061011b6106c2565b6040516101289190611356565b60405180910390f35b34801561013d57600080fd5b50610146610773565b60405161015391906111e0565b60405180910390f35b34801561016857600080fd5b50610183600480360381019061017e9190610eca565b610799565b005b34801561019157600080fd5b506101ac60048036038101906101a79190610e25565b6108b9565b005b3480156101ba57600080fd5b506101c3610aa3565b6040516101d09190611356565b60405180910390f35b3480156101e557600080fd5b5061020060048036038101906101fb9190610dcb565b610b54565b60405161020d9190611356565b60405180910390f35b34801561022257600080fd5b5061023d60048036038101906102389190610e25565b610b72565b60405161024c93929190611298565b60405180910390f35b60606004805480602002602001604051908101604052809291908181526020016000905b82821015610325578382906000526020600020018054610298906115cd565b80601f01602080910402602001604051908101604052809291908181526020018280546102c4906115cd565b80156103115780601f106102e657610100808354040283529160200191610311565b820191906000526020600020905b8154815290600101906020018083116102f457829003601f168201915b505050505081526020019060010190610279565b50505050905090565b33600160009054906101000a900473ffffffffffffffffffffffffffffffffffffffff1673ffffffffffffffffffffffffffffffffffffffff168173ffffffffffffffffffffffffffffffffffffffff16146103bf576040517f08c379a00000000000000000000000000000000000000000000000000000000081526004016103b6906112f6565b60405180910390fd5b6040518060600160405280848152602001838152602001600115158152506003846040516103ed9190611197565b90815260200160405180910390206000820151816000019080519060200190610417929190610c64565b506020820151816001015560408201518160020160006101000a81548160ff021916908315150217905550905050600483908060018154018082558091505060019003906000526020600020016000909190919091509080519060200190610480929190610c64565b507ffc9ecd7a6c2ca96d38526a0b9cc22f2474ff8e596dd348edaab06be905ebe37883836040516104b2929190611268565b60405180910390a1505050565b60006104ca82610c47565b90508034101561050f576040517f08c379a000000000000000000000000000000000000000000000000000000000815260040161050690611316565b60405180910390fd5b6000813461051d91906114fd565b90503373ffffffffffffffffffffffffffffffffffffffff166108fc829081150290604051600060405180830381858888f19350505050158015610565573d6000803e3d6000fd5b5060006105706106c2565b9050808411156105b5576040517f08c379a00000000000000000000000000000000000000000000000000000000081526004016105ac90611336565b60405180910390fd5b60008054906101000a900473ffffffffffffffffffffffffffffffffffffffff1673ffffffffffffffffffffffffffffffffffffffff1663a9059cbb33866040518363ffffffff1660e01b81526004016106109291906111fb565b602060405180830381600087803b15801561062a57600080fd5b505af115801561063e573d6000803e3d6000fd5b505050506040513d601f19601f820116820180604052508101906106629190610df8565b5083600260003373ffffffffffffffffffffffffffffffffffffffff1673ffffffffffffffffffffffffffffffffffffffff16815260200190815260200160002060000160008282546106b5919061144d565b9250508190555050505050565b60008060009054906101000a900473ffffffffffffffffffffffffffffffffffffffff1673ffffffffffffffffffffffffffffffffffffffff166370a08231306040518263ffffffff1660e01b815260040161071e91906111c5565b60206040518083038186803b15801561073657600080fd5b505afa15801561074a573d6000803e3d6000fd5b505050506040513d601f19601f8201168201806040525081019061076e9190610ef7565b905090565b600160009054906101000a900473ffffffffffffffffffffffffffffffffffffffff1681565b33600160009054906101000a900473ffffffffffffffffffffffffffffffffffffffff1673ffffffffffffffffffffffffffffffffffffffff168173ffffffffffffffffffffffffffffffffffffffff161461082a576040517f08c379a0000000000000000000000000000000000000000000000000000000008152600401610821906112f6565b60405180910390fd5b60008054906101000a900473ffffffffffffffffffffffffffffffffffffffff1673ffffffffffffffffffffffffffffffffffffffff16631d43cc98836040518263ffffffff1660e01b81526004016108839190611356565b600060405180830381600087803b15801561089d57600080fd5b505af11580156108b1573d6000803e3d6000fd5b505050505050565b33600160009054906101000a900473ffffffffffffffffffffffffffffffffffffffff1673ffffffffffffffffffffffffffffffffffffffff168173ffffffffffffffffffffffffffffffffffffffff161461094a576040517f08c379a0000000000000000000000000000000000000000000000000000000008152600401610941906112f6565b60405180910390fd5b8160008160405160200161095e9190611197565b6040516020818303038152906040528051906020012090506000805b6004805490508110156109ea57826004828154811061099c5761099b6116d7565b5b906000526020600020016040516020016109b691906111ae565b6040516020818303038152906040528051906020012014156109d757600191505b80806109e290611630565b91505061097a565b5080610a2b576040517f08c379a0000000000000000000000000000000000000000000000000000000008152600401610a22906112d6565b60405180910390fd5b6000600386604051610a3d9190611197565b908152602001604051809103902060020160006101000a81548160ff0219169083151502179055507f24ba6c881728980191398db8dcfd8ed4f6aeb1c08df349d63f3b85075f3e86dd85604051610a949190611246565b60405180910390a15050505050565b60008060009054906101000a900473ffffffffffffffffffffffffffffffffffffffff1673ffffffffffffffffffffffffffffffffffffffff166370a08231336040518263ffffffff1660e01b8152600401610aff91906111c5565b60206040518083038186803b158015610b1757600080fd5b505afa158015610b2b573d6000803e3d6000fd5b505050506040513d601f19601f82011682018060405250810190610b4f9190610ef7565b905090565b60026020528060005260406000206000915090508060000154905081565b600381805160208101820180518482526020830160208501208183528095505050505050600091509050806000018054610bab906115cd565b80601f0160208091040260200160405190810160405280929190818152602001828054610bd7906115cd565b8015610c245780601f10610bf957610100808354040283529160200191610c24565b820191906000526020600020905b815481529060010190602001808311610c0757829003601f168201915b5050505050908060010154908060020160009054906101000a900460ff16905083565b6000670de0b6b3a764000082610c5d91906114a3565b9050919050565b828054610c70906115cd565b90600052602060002090601f016020900481019282610c925760008555610cd9565b82601f10610cab57805160ff1916838001178555610cd9565b82800160010185558215610cd9579182015b82811115610cd8578251825591602001919060010190610cbd565b5b509050610ce69190610cea565b5090565b5b80821115610d03576000816000905550600101610ceb565b5090565b6000610d1a610d1584611396565b611371565b905082815260208101848484011115610d3657610d3561173a565b5b610d4184828561158b565b509392505050565b600081359050610d588161184a565b92915050565b600081519050610d6d81611861565b92915050565b600082601f830112610d8857610d87611735565b5b8135610d98848260208601610d07565b91505092915050565b600081359050610db081611878565b92915050565b600081519050610dc581611878565b92915050565b600060208284031215610de157610de0611744565b5b6000610def84828501610d49565b91505092915050565b600060208284031215610e0e57610e0d611744565b5b6000610e1c84828501610d5e565b91505092915050565b600060208284031215610e3b57610e3a611744565b5b600082013567ffffffffffffffff811115610e5957610e5861173f565b5b610e6584828501610d73565b91505092915050565b60008060408385031215610e8557610e84611744565b5b600083013567ffffffffffffffff811115610ea357610ea261173f565b5b610eaf85828601610d73565b9250506020610ec085828601610da1565b9150509250929050565b600060208284031215610ee057610edf611744565b5b6000610eee84828501610da1565b91505092915050565b600060208284031215610f0d57610f0c611744565b5b6000610f1b84828501610db6565b91505092915050565b6000610f308383610fda565b905092915050565b610f4181611543565b82525050565b610f5081611531565b82525050565b6000610f61826113ec565b610f6b818561140f565b935083602082028501610f7d856113c7565b8060005b85811015610fb95784840389528151610f9a8582610f24565b9450610fa583611402565b925060208a01995050600181019050610f81565b50829750879550505050505092915050565b610fd481611555565b82525050565b6000610fe5826113f7565b610fef8185611420565b9350610fff81856020860161159a565b61100881611749565b840191505092915050565b600061101e826113f7565b6110288185611431565b935061103881856020860161159a565b61104181611749565b840191505092915050565b6000611057826113f7565b6110618185611442565b935061107181856020860161159a565b80840191505092915050565b6000815461108a816115cd565b6110948186611442565b945060018216600081146110af57600181146110c0576110f3565b60ff198316865281860193506110f3565b6110c9856113d7565b60005b838110156110eb578154818901526001820191506020810190506110cc565b838801955050505b50505092915050565b6000611109601c83611431565b91506111148261175a565b602082019050919050565b600061112c602d83611431565b915061113782611783565b604082019050919050565b600061114f602a83611431565b915061115a826117d2565b604082019050919050565b6000611172602083611431565b915061117d82611821565b602082019050919050565b61119181611581565b82525050565b60006111a3828461104c565b915081905092915050565b60006111ba828461107d565b915081905092915050565b60006020820190506111da6000830184610f47565b92915050565b60006020820190506111f56000830184610f38565b92915050565b60006040820190506112106000830185610f47565b61121d6020830184611188565b9392505050565b6000602082019050818103600083015261123e8184610f56565b905092915050565b600060208201905081810360008301526112608184611013565b905092915050565b600060408201905081810360008301526112828185611013565b90506112916020830184611188565b9392505050565b600060608201905081810360008301526112b28186611013565b90506112c16020830185611188565b6112ce6040830184610fcb565b949350505050565b600060208201905081810360008301526112ef816110fc565b9050919050565b6000602082019050818103600083015261130f8161111f565b9050919050565b6000602082019050818103600083015261132f81611142565b9050919050565b6000602082019050818103600083015261134f81611165565b9050919050565b600060208201905061136b6000830184611188565b92915050565b600061137b61138c565b905061138782826115ff565b919050565b6000604051905090565b600067ffffffffffffffff8211156113b1576113b0611706565b5b6113ba82611749565b9050602081019050919050565b6000819050602082019050919050565b60008190508160005260206000209050919050565b600081519050919050565b600081519050919050565b6000602082019050919050565b600082825260208201905092915050565b600082825260208201905092915050565b600082825260208201905092915050565b600081905092915050565b600061145882611581565b915061146383611581565b9250827fffffffffffffffffffffffffffffffffffffffffffffffffffffffffffffffff0382111561149857611497611679565b5b828201905092915050565b60006114ae82611581565b91506114b983611581565b9250817fffffffffffffffffffffffffffffffffffffffffffffffffffffffffffffffff04831182151516156114f2576114f1611679565b5b828202905092915050565b600061150882611581565b915061151383611581565b92508282101561152657611525611679565b5b828203905092915050565b600061153c82611561565b9050919050565b600061154e82611561565b9050919050565b60008115159050919050565b600073ffffffffffffffffffffffffffffffffffffffff82169050919050565b6000819050919050565b82818337600083830152505050565b60005b838110156115b857808201518184015260208101905061159d565b838111156115c7576000848401525b50505050565b600060028204905060018216806115e557607f821691505b602082108114156115f9576115f86116a8565b5b50919050565b61160882611749565b810181811067ffffffffffffffff8211171561162757611626611706565b5b80604052505050565b600061163b82611581565b91507fffffffffffffffffffffffffffffffffffffffffffffffffffffffffffffffff82141561166e5761166d611679565b5b600182019050919050565b7f4e487b7100000000000000000000000000000000000000000000000000000000600052601160045260246000fd5b7f4e487b7100000000000000000000000000000000000000000000000000000000600052602260045260246000fd5b7f4e487b7100000000000000000000000000000000000000000000000000000000600052603260045260246000fd5b7f4e487b7100000000000000000000000000000000000000000000000000000000600052604160045260246000fd5b600080fd5b600080fd5b600080fd5b600080fd5b6000601f19601f8301169050919050565b7f4e6f20736520656e6375656e747261206c6120617472616363696f6e00000000600082015250565b7f4e6f207469656e6573207065726d69736f73207061726120656a65637574617260008201527f20657374612066756e63696f6e00000000000000000000000000000000000000602082015250565b7f436f6d707261206d656e6f7320546f6b656e73206f207061676120636f6e206d60008201527f6173206574686572732e00000000000000000000000000000000000000000000602082015250565b7f436f6d70726120756e206e756d65726f206d656e6f7220646520546f6b656e73600082015250565b61185381611531565b811461185e57600080fd5b50565b61186a81611555565b811461187557600080fd5b50565b61188181611581565b811461188c57600080fd5b5056fea2646970667358221220d740cf24c14fdde4041c44923493be3bd61b2bb49548c9b62c3e05508039569564736f6c63430008070033608060405234801561001057600080fd5b50604051610fbb380380610fbb83398181016040528101906100329190610099565b806002819055506002546000803373ffffffffffffffffffffffffffffffffffffffff1673ffffffffffffffffffffffffffffffffffffffff16815260200190815260200160002081905550506100ec565b600081519050610093816100d5565b92915050565b6000602082840312156100af576100ae6100d0565b5b60006100bd84828501610084565b91505092915050565b6000819050919050565b600080fd5b6100de816100c6565b81146100e957600080fd5b50565b610ec0806100fb6000396000f3fe608060405234801561001057600080fd5b506004361061009e5760003560e01c8063313ce56711610066578063313ce5671461015b57806370a082311461017957806395d89b41146101a9578063a9059cbb146101c7578063dd62ed3e146101f75761009e565b806306fdde03146100a3578063095ea7b3146100c157806318160ddd146100f15780631d43cc981461010f57806323b872dd1461012b575b600080fd5b6100ab610227565b6040516100b89190610c62565b60405180910390f35b6100db60048036038101906100d69190610b74565b610260565b6040516100e89190610c47565b60405180910390f35b6100f9610352565b6040516101069190610c84565b60405180910390f35b61012960048036038101906101249190610bb4565b61035c565b005b61014560048036038101906101409190610b21565b6103cd565b6040516101529190610c47565b60405180910390f35b610163610748565b6040516101709190610c9f565b60405180910390f35b610193600480360381019061018e9190610ab4565b61074d565b6040516101a09190610c84565b60405180910390f35b6101b1610795565b6040516101be9190610c62565b60405180910390f35b6101e160048036038101906101dc9190610b74565b6107ce565b6040516101ee9190610c47565b60405180910390f35b610211600480360381019061020c9190610ae1565b6109b0565b60405161021e9190610c84565b60405180910390f35b6040518060400160405280601181526020017f4552433230426c6f636b636861696e415a00000000000000000000000000000081525081565b600081600160003373ffffffffffffffffffffffffffffffffffffffff1673ffffffffffffffffffffffffffffffffffffffff16815260200190815260200160002060008573ffffffffffffffffffffffffffffffffffffffff1673ffffffffffffffffffffffffffffffffffffffff168152602001908152602001600020819055508273ffffffffffffffffffffffffffffffffffffffff163373ffffffffffffffffffffffffffffffffffffffff167f8c5be1e5ebec7d5bd14f71427d1e84f3dd0314c0f7b2291e5b200ac8c7c3b925846040516103409190610c84565b60405180910390a36001905092915050565b6000600254905090565b806002600082825461036e9190610cd6565b92505081905550806000803373ffffffffffffffffffffffffffffffffffffffff1673ffffffffffffffffffffffffffffffffffffffff16815260200190815260200160002060008282546103c39190610cd6565b9250508190555050565b60008060008573ffffffffffffffffffffffffffffffffffffffff1673ffffffffffffffffffffffffffffffffffffffff1681526020019081526020016000205482111561041a57600080fd5b600160008573ffffffffffffffffffffffffffffffffffffffff1673ffffffffffffffffffffffffffffffffffffffff16815260200190815260200160002060003373ffffffffffffffffffffffffffffffffffffffff1673ffffffffffffffffffffffffffffffffffffffff168152602001908152602001600020548211156104a357600080fd5b6104f4826000808773ffffffffffffffffffffffffffffffffffffffff1673ffffffffffffffffffffffffffffffffffffffff16815260200190815260200160002054610a3790919063ffffffff16565b6000808673ffffffffffffffffffffffffffffffffffffffff1673ffffffffffffffffffffffffffffffffffffffff168152602001908152602001600020819055506105c582600160008773ffffffffffffffffffffffffffffffffffffffff1673ffffffffffffffffffffffffffffffffffffffff16815260200190815260200160002060003373ffffffffffffffffffffffffffffffffffffffff1673ffffffffffffffffffffffffffffffffffffffff16815260200190815260200160002054610a3790919063ffffffff16565b600160008673ffffffffffffffffffffffffffffffffffffffff1673ffffffffffffffffffffffffffffffffffffffff16815260200190815260200160002060003373ffffffffffffffffffffffffffffffffffffffff1673ffffffffffffffffffffffffffffffffffffffff16815260200190815260200160002081905550610696826000808673ffffffffffffffffffffffffffffffffffffffff1673ffffffffffffffffffffffffffffffffffffffff16815260200190815260200160002054610a5e90919063ffffffff16565b6000808573ffffffffffffffffffffffffffffffffffffffff1673ffffffffffffffffffffffffffffffffffffffff168152602001908152602001600020819055508273ffffffffffffffffffffffffffffffffffffffff168473ffffffffffffffffffffffffffffffffffffffff167fddf252ad1be2c89b69c2b068fc378daa952ba7f163c4a11628f55a4df523b3ef846040516107359190610c84565b60405180910390a3600190509392505050565b600281565b60008060008373ffffffffffffffffffffffffffffffffffffffff1673ffffffffffffffffffffffffffffffffffffffff168152602001908152602001600020549050919050565b6040518060400160405280600381526020017f455243000000000000000000000000000000000000000000000000000000000081525081565b60008060003373ffffffffffffffffffffffffffffffffffffffff1673ffffffffffffffffffffffffffffffffffffffff1681526020019081526020016000205482111561081b57600080fd5b61086c826000803373ffffffffffffffffffffffffffffffffffffffff1673ffffffffffffffffffffffffffffffffffffffff16815260200190815260200160002054610a3790919063ffffffff16565b6000803373ffffffffffffffffffffffffffffffffffffffff1673ffffffffffffffffffffffffffffffffffffffff168152602001908152602001600020819055506108ff826000808673ffffffffffffffffffffffffffffffffffffffff1673ffffffffffffffffffffffffffffffffffffffff16815260200190815260200160002054610a5e90919063ffffffff16565b6000808573ffffffffffffffffffffffffffffffffffffffff1673ffffffffffffffffffffffffffffffffffffffff168152602001908152602001600020819055508273ffffffffffffffffffffffffffffffffffffffff163373ffffffffffffffffffffffffffffffffffffffff167fddf252ad1be2c89b69c2b068fc378daa952ba7f163c4a11628f55a4df523b3ef8460405161099e9190610c84565b60405180910390a36001905092915050565b6000600160008473ffffffffffffffffffffffffffffffffffffffff1673ffffffffffffffffffffffffffffffffffffffff16815260200190815260200160002060008373ffffffffffffffffffffffffffffffffffffffff1673ffffffffffffffffffffffffffffffffffffffff16815260200190815260200160002054905092915050565b600082821115610a4a57610a49610de8565b5b8183610a569190610d2c565b905092915050565b6000808284610a6d9190610cd6565b905083811015610a8057610a7f610de8565b5b8091505092915050565b600081359050610a9981610e5c565b92915050565b600081359050610aae81610e73565b92915050565b600060208284031215610aca57610ac9610e46565b5b6000610ad884828501610a8a565b91505092915050565b60008060408385031215610af857610af7610e46565b5b6000610b0685828601610a8a565b9250506020610b1785828601610a8a565b9150509250929050565b600080600060608486031215610b3a57610b39610e46565b5b6000610b4886828701610a8a565b9350506020610b5986828701610a8a565b9250506040610b6a86828701610a9f565b9150509250925092565b60008060408385031215610b8b57610b8a610e46565b5b6000610b9985828601610a8a565b9250506020610baa85828601610a9f565b9150509250929050565b600060208284031215610bca57610bc9610e46565b5b6000610bd884828501610a9f565b91505092915050565b610bea81610d72565b82525050565b6000610bfb82610cba565b610c058185610cc5565b9350610c15818560208601610db5565b610c1e81610e4b565b840191505092915050565b610c3281610d9e565b82525050565b610c4181610da8565b82525050565b6000602082019050610c5c6000830184610be1565b92915050565b60006020820190508181036000830152610c7c8184610bf0565b905092915050565b6000602082019050610c996000830184610c29565b92915050565b6000602082019050610cb46000830184610c38565b92915050565b600081519050919050565b600082825260208201905092915050565b6000610ce182610d9e565b9150610cec83610d9e565b9250827fffffffffffffffffffffffffffffffffffffffffffffffffffffffffffffffff03821115610d2157610d20610e17565b5b828201905092915050565b6000610d3782610d9e565b9150610d4283610d9e565b925082821015610d5557610d54610e17565b5b828203905092915050565b6000610d6b82610d7e565b9050919050565b60008115159050919050565b600073ffffffffffffffffffffffffffffffffffffffff82169050919050565b6000819050919050565b600060ff82169050919050565b60005b83811015610dd3578082015181840152602081019050610db8565b83811115610de2576000848401525b50505050565b7f4e487b7100000000000000000000000000000000000000000000000000000000600052600160045260246000fd5b7f4e487b7100000000000000000000000000000000000000000000000000000000600052601160045260246000fd5b600080fd5b6000601f19601f8301169050919050565b610e6581610d60565b8114610e7057600080fd5b50565b610e7c81610d9e565b8114610e8757600080fd5b5056fea264697066735822122038b3b629220f7bb9b58abd7142da7e1995c26e1fa1ce23bece24cce293b055dc64736f6c63430008070033",
					"opcodes": "PUSH1 0x80 PUSH1 0x40 MSTORE CALLVALUE DUP1 ISZERO PUSH3 0x11 JUMPI PUSH1 0x0 DUP1 REVERT JUMPDEST POP PUSH2 0x2710 PUSH1 0x40 MLOAD PUSH3 0x23 SWAP1 PUSH3 0xD3 JUMP JUMPDEST PUSH3 0x2F SWAP2 SWAP1 PUSH3 0xF2 JUMP JUMPDEST PUSH1 0x40 MLOAD DUP1 SWAP2 SUB SWAP1 PUSH1 0x0 CREATE DUP1 ISZERO DUP1 ISZERO PUSH3 0x4C JUMPI RETURNDATASIZE PUSH1 0x0 DUP1 RETURNDATACOPY RETURNDATASIZE PUSH1 0x0 REVERT JUMPDEST POP PUSH1 0x0 DUP1 PUSH2 0x100 EXP DUP2 SLOAD DUP2 PUSH20 0xFFFFFFFFFFFFFFFFFFFFFFFFFFFFFFFFFFFFFFFF MUL NOT AND SWAP1 DUP4 PUSH20 0xFFFFFFFFFFFFFFFFFFFFFFFFFFFFFFFFFFFFFFFF AND MUL OR SWAP1 SSTORE POP CALLER PUSH1 0x1 PUSH1 0x0 PUSH2 0x100 EXP DUP2 SLOAD DUP2 PUSH20 0xFFFFFFFFFFFFFFFFFFFFFFFFFFFFFFFFFFFFFFFF MUL NOT AND SWAP1 DUP4 PUSH20 0xFFFFFFFFFFFFFFFFFFFFFFFFFFFFFFFFFFFFFFFF AND MUL OR SWAP1 SSTORE POP PUSH3 0x12D JUMP JUMPDEST PUSH2 0xFBB DUP1 PUSH3 0x1A02 DUP4 CODECOPY ADD SWAP1 JUMP JUMPDEST PUSH3 0xEC DUP2 PUSH3 0x119 JUMP JUMPDEST DUP3 MSTORE POP POP JUMP JUMPDEST PUSH1 0x0 PUSH1 0x20 DUP3 ADD SWAP1 POP PUSH3 0x109 PUSH1 0x0 DUP4 ADD DUP5 PUSH3 0xE1 JUMP JUMPDEST SWAP3 SWAP2 POP POP JUMP JUMPDEST PUSH1 0x0 DUP2 SWAP1 POP SWAP2 SWAP1 POP JUMP JUMPDEST PUSH1 0x0 PUSH3 0x126 DUP3 PUSH3 0x10F JUMP JUMPDEST SWAP1 POP SWAP2 SWAP1 POP JUMP JUMPDEST PUSH2 0x18C5 DUP1 PUSH3 0x13D PUSH1 0x0 CODECOPY PUSH1 0x0 RETURN INVALID PUSH1 0x80 PUSH1 0x40 MSTORE PUSH1 0x4 CALLDATASIZE LT PUSH2 0x91 JUMPI PUSH1 0x0 CALLDATALOAD PUSH1 0xE0 SHR DUP1 PUSH4 0xBA2D17FE GT PUSH2 0x59 JUMPI DUP1 PUSH4 0xBA2D17FE EQ PUSH2 0x15C JUMPI DUP1 PUSH4 0xC66DCA40 EQ PUSH2 0x185 JUMPI DUP1 PUSH4 0xCE6DD8C4 EQ PUSH2 0x1AE JUMPI DUP1 PUSH4 0xCE8F2F38 EQ PUSH2 0x1D9 JUMPI DUP1 PUSH4 0xD00DF296 EQ PUSH2 0x216 JUMPI PUSH2 0x91 JUMP JUMPDEST DUP1 PUSH4 0x1FCCB33C EQ PUSH2 0x96 JUMPI DUP1 PUSH4 0x2076B56C EQ PUSH2 0xC1 JUMPI DUP1 PUSH4 0x48BA0838 EQ PUSH2 0xEA JUMPI DUP1 PUSH4 0x722713F7 EQ PUSH2 0x106 JUMPI DUP1 PUSH4 0x8DA5CB5B EQ PUSH2 0x131 JUMPI JUMPDEST PUSH1 0x0 DUP1 REVERT JUMPDEST CALLVALUE DUP1 ISZERO PUSH2 0xA2 JUMPI PUSH1 0x0 DUP1 REVERT JUMPDEST POP PUSH2 0xAB PUSH2 0x255 JUMP JUMPDEST PUSH1 0x40 MLOAD PUSH2 0xB8 SWAP2 SWAP1 PUSH2 0x1224 JUMP JUMPDEST PUSH1 0x40 MLOAD DUP1 SWAP2 SUB SWAP1 RETURN JUMPDEST CALLVALUE DUP1 ISZERO PUSH2 0xCD JUMPI PUSH1 0x0 DUP1 REVERT JUMPDEST POP PUSH2 0xE8 PUSH1 0x4 DUP1 CALLDATASIZE SUB DUP2 ADD SWAP1 PUSH2 0xE3 SWAP2 SWAP1 PUSH2 0xE6E JUMP JUMPDEST PUSH2 0x32E JUMP JUMPDEST STOP JUMPDEST PUSH2 0x104 PUSH1 0x4 DUP1 CALLDATASIZE SUB DUP2 ADD SWAP1 PUSH2 0xFF SWAP2 SWAP1 PUSH2 0xECA JUMP JUMPDEST PUSH2 0x4BF JUMP JUMPDEST STOP JUMPDEST CALLVALUE DUP1 ISZERO PUSH2 0x112 JUMPI PUSH1 0x0 DUP1 REVERT JUMPDEST POP PUSH2 0x11B PUSH2 0x6C2 JUMP JUMPDEST PUSH1 0x40 MLOAD PUSH2 0x128 SWAP2 SWAP1 PUSH2 0x1356 JUMP JUMPDEST PUSH1 0x40 MLOAD DUP1 SWAP2 SUB SWAP1 RETURN JUMPDEST CALLVALUE DUP1 ISZERO PUSH2 0x13D JUMPI PUSH1 0x0 DUP1 REVERT JUMPDEST POP PUSH2 0x146 PUSH2 0x773 JUMP JUMPDEST PUSH1 0x40 MLOAD PUSH2 0x153 SWAP2 SWAP1 PUSH2 0x11E0 JUMP JUMPDEST PUSH1 0x40 MLOAD DUP1 SWAP2 SUB SWAP1 RETURN JUMPDEST CALLVALUE DUP1 ISZERO PUSH2 0x168 JUMPI PUSH1 0x0 DUP1 REVERT JUMPDEST POP PUSH2 0x183 PUSH1 0x4 DUP1 CALLDATASIZE SUB DUP2 ADD SWAP1 PUSH2 0x17E SWAP2 SWAP1 PUSH2 0xECA JUMP JUMPDEST PUSH2 0x799 JUMP JUMPDEST STOP JUMPDEST CALLVALUE DUP1 ISZERO PUSH2 0x191 JUMPI PUSH1 0x0 DUP1 REVERT JUMPDEST POP PUSH2 0x1AC PUSH1 0x4 DUP1 CALLDATASIZE SUB DUP2 ADD SWAP1 PUSH2 0x1A7 SWAP2 SWAP1 PUSH2 0xE25 JUMP JUMPDEST PUSH2 0x8B9 JUMP JUMPDEST STOP JUMPDEST CALLVALUE DUP1 ISZERO PUSH2 0x1BA JUMPI PUSH1 0x0 DUP1 REVERT JUMPDEST POP PUSH2 0x1C3 PUSH2 0xAA3 JUMP JUMPDEST PUSH1 0x40 MLOAD PUSH2 0x1D0 SWAP2 SWAP1 PUSH2 0x1356 JUMP JUMPDEST PUSH1 0x40 MLOAD DUP1 SWAP2 SUB SWAP1 RETURN JUMPDEST CALLVALUE DUP1 ISZERO PUSH2 0x1E5 JUMPI PUSH1 0x0 DUP1 REVERT JUMPDEST POP PUSH2 0x200 PUSH1 0x4 DUP1 CALLDATASIZE SUB DUP2 ADD SWAP1 PUSH2 0x1FB SWAP2 SWAP1 PUSH2 0xDCB JUMP JUMPDEST PUSH2 0xB54 JUMP JUMPDEST PUSH1 0x40 MLOAD PUSH2 0x20D SWAP2 SWAP1 PUSH2 0x1356 JUMP JUMPDEST PUSH1 0x40 MLOAD DUP1 SWAP2 SUB SWAP1 RETURN JUMPDEST CALLVALUE DUP1 ISZERO PUSH2 0x222 JUMPI PUSH1 0x0 DUP1 REVERT JUMPDEST POP PUSH2 0x23D PUSH1 0x4 DUP1 CALLDATASIZE SUB DUP2 ADD SWAP1 PUSH2 0x238 SWAP2 SWAP1 PUSH2 0xE25 JUMP JUMPDEST PUSH2 0xB72 JUMP JUMPDEST PUSH1 0x40 MLOAD PUSH2 0x24C SWAP4 SWAP3 SWAP2 SWAP1 PUSH2 0x1298 JUMP JUMPDEST PUSH1 0x40 MLOAD DUP1 SWAP2 SUB SWAP1 RETURN JUMPDEST PUSH1 0x60 PUSH1 0x4 DUP1 SLOAD DUP1 PUSH1 0x20 MUL PUSH1 0x20 ADD PUSH1 0x40 MLOAD SWAP1 DUP2 ADD PUSH1 0x40 MSTORE DUP1 SWAP3 SWAP2 SWAP1 DUP2 DUP2 MSTORE PUSH1 0x20 ADD PUSH1 0x0 SWAP1 JUMPDEST DUP3 DUP3 LT ISZERO PUSH2 0x325 JUMPI DUP4 DUP3 SWAP1 PUSH1 0x0 MSTORE PUSH1 0x20 PUSH1 0x0 KECCAK256 ADD DUP1 SLOAD PUSH2 0x298 SWAP1 PUSH2 0x15CD JUMP JUMPDEST DUP1 PUSH1 0x1F ADD PUSH1 0x20 DUP1 SWAP2 DIV MUL PUSH1 0x20 ADD PUSH1 0x40 MLOAD SWAP1 DUP2 ADD PUSH1 0x40 MSTORE DUP1 SWAP3 SWAP2 SWAP1 DUP2 DUP2 MSTORE PUSH1 0x20 ADD DUP3 DUP1 SLOAD PUSH2 0x2C4 SWAP1 PUSH2 0x15CD JUMP JUMPDEST DUP1 ISZERO PUSH2 0x311 JUMPI DUP1 PUSH1 0x1F LT PUSH2 0x2E6 JUMPI PUSH2 0x100 DUP1 DUP4 SLOAD DIV MUL DUP4 MSTORE SWAP2 PUSH1 0x20 ADD SWAP2 PUSH2 0x311 JUMP JUMPDEST DUP3 ADD SWAP2 SWAP1 PUSH1 0x0 MSTORE PUSH1 0x20 PUSH1 0x0 KECCAK256 SWAP1 JUMPDEST DUP2 SLOAD DUP2 MSTORE SWAP1 PUSH1 0x1 ADD SWAP1 PUSH1 0x20 ADD DUP1 DUP4 GT PUSH2 0x2F4 JUMPI DUP3 SWAP1 SUB PUSH1 0x1F AND DUP3 ADD SWAP2 JUMPDEST POP POP POP POP POP DUP2 MSTORE PUSH1 0x20 ADD SWAP1 PUSH1 0x1 ADD SWAP1 PUSH2 0x279 JUMP JUMPDEST POP POP POP POP SWAP1 POP SWAP1 JUMP JUMPDEST CALLER PUSH1 0x1 PUSH1 0x0 SWAP1 SLOAD SWAP1 PUSH2 0x100 EXP SWAP1 DIV PUSH20 0xFFFFFFFFFFFFFFFFFFFFFFFFFFFFFFFFFFFFFFFF AND PUSH20 0xFFFFFFFFFFFFFFFFFFFFFFFFFFFFFFFFFFFFFFFF AND DUP2 PUSH20 0xFFFFFFFFFFFFFFFFFFFFFFFFFFFFFFFFFFFFFFFF AND EQ PUSH2 0x3BF JUMPI PUSH1 0x40 MLOAD PUSH32 0x8C379A000000000000000000000000000000000000000000000000000000000 DUP2 MSTORE PUSH1 0x4 ADD PUSH2 0x3B6 SWAP1 PUSH2 0x12F6 JUMP JUMPDEST PUSH1 0x40 MLOAD DUP1 SWAP2 SUB SWAP1 REVERT JUMPDEST PUSH1 0x40 MLOAD DUP1 PUSH1 0x60 ADD PUSH1 0x40 MSTORE DUP1 DUP5 DUP2 MSTORE PUSH1 0x20 ADD DUP4 DUP2 MSTORE PUSH1 0x20 ADD PUSH1 0x1 ISZERO ISZERO DUP2 MSTORE POP PUSH1 0x3 DUP5 PUSH1 0x40 MLOAD PUSH2 0x3ED SWAP2 SWAP1 PUSH2 0x1197 JUMP JUMPDEST SWAP1 DUP2 MSTORE PUSH1 0x20 ADD PUSH1 0x40 MLOAD DUP1 SWAP2 SUB SWAP1 KECCAK256 PUSH1 0x0 DUP3 ADD MLOAD DUP2 PUSH1 0x0 ADD SWAP1 DUP1 MLOAD SWAP1 PUSH1 0x20 ADD SWAP1 PUSH2 0x417 SWAP3 SWAP2 SWAP1 PUSH2 0xC64 JUMP JUMPDEST POP PUSH1 0x20 DUP3 ADD MLOAD DUP2 PUSH1 0x1 ADD SSTORE PUSH1 0x40 DUP3 ADD MLOAD DUP2 PUSH1 0x2 ADD PUSH1 0x0 PUSH2 0x100 EXP DUP2 SLOAD DUP2 PUSH1 0xFF MUL NOT AND SWAP1 DUP4 ISZERO ISZERO MUL OR SWAP1 SSTORE POP SWAP1 POP POP PUSH1 0x4 DUP4 SWAP1 DUP1 PUSH1 0x1 DUP2 SLOAD ADD DUP1 DUP3 SSTORE DUP1 SWAP2 POP POP PUSH1 0x1 SWAP1 SUB SWAP1 PUSH1 0x0 MSTORE PUSH1 0x20 PUSH1 0x0 KECCAK256 ADD PUSH1 0x0 SWAP1 SWAP2 SWAP1 SWAP2 SWAP1 SWAP2 POP SWAP1 DUP1 MLOAD SWAP1 PUSH1 0x20 ADD SWAP1 PUSH2 0x480 SWAP3 SWAP2 SWAP1 PUSH2 0xC64 JUMP JUMPDEST POP PUSH32 0xFC9ECD7A6C2CA96D38526A0B9CC22F2474FF8E596DD348EDAAB06BE905EBE378 DUP4 DUP4 PUSH1 0x40 MLOAD PUSH2 0x4B2 SWAP3 SWAP2 SWAP1 PUSH2 0x1268 JUMP JUMPDEST PUSH1 0x40 MLOAD DUP1 SWAP2 SUB SWAP1 LOG1 POP POP POP JUMP JUMPDEST PUSH1 0x0 PUSH2 0x4CA DUP3 PUSH2 0xC47 JUMP JUMPDEST SWAP1 POP DUP1 CALLVALUE LT ISZERO PUSH2 0x50F JUMPI PUSH1 0x40 MLOAD PUSH32 0x8C379A000000000000000000000000000000000000000000000000000000000 DUP2 MSTORE PUSH1 0x4 ADD PUSH2 0x506 SWAP1 PUSH2 0x1316 JUMP JUMPDEST PUSH1 0x40 MLOAD DUP1 SWAP2 SUB SWAP1 REVERT JUMPDEST PUSH1 0x0 DUP2 CALLVALUE PUSH2 0x51D SWAP2 SWAP1 PUSH2 0x14FD JUMP JUMPDEST SWAP1 POP CALLER PUSH20 0xFFFFFFFFFFFFFFFFFFFFFFFFFFFFFFFFFFFFFFFF AND PUSH2 0x8FC DUP3 SWAP1 DUP2 ISZERO MUL SWAP1 PUSH1 0x40 MLOAD PUSH1 0x0 PUSH1 0x40 MLOAD DUP1 DUP4 SUB DUP2 DUP6 DUP9 DUP9 CALL SWAP4 POP POP POP POP ISZERO DUP1 ISZERO PUSH2 0x565 JUMPI RETURNDATASIZE PUSH1 0x0 DUP1 RETURNDATACOPY RETURNDATASIZE PUSH1 0x0 REVERT JUMPDEST POP PUSH1 0x0 PUSH2 0x570 PUSH2 0x6C2 JUMP JUMPDEST SWAP1 POP DUP1 DUP5 GT ISZERO PUSH2 0x5B5 JUMPI PUSH1 0x40 MLOAD PUSH32 0x8C379A000000000000000000000000000000000000000000000000000000000 DUP2 MSTORE PUSH1 0x4 ADD PUSH2 0x5AC SWAP1 PUSH2 0x1336 JUMP JUMPDEST PUSH1 0x40 MLOAD DUP1 SWAP2 SUB SWAP1 REVERT JUMPDEST PUSH1 0x0 DUP1 SLOAD SWAP1 PUSH2 0x100 EXP SWAP1 DIV PUSH20 0xFFFFFFFFFFFFFFFFFFFFFFFFFFFFFFFFFFFFFFFF AND PUSH20 0xFFFFFFFFFFFFFFFFFFFFFFFFFFFFFFFFFFFFFFFF AND PUSH4 0xA9059CBB CALLER DUP7 PUSH1 0x40 MLOAD DUP4 PUSH4 0xFFFFFFFF AND PUSH1 0xE0 SHL DUP2 MSTORE PUSH1 0x4 ADD PUSH2 0x610 SWAP3 SWAP2 SWAP1 PUSH2 0x11FB JUMP JUMPDEST PUSH1 0x20 PUSH1 0x40 MLOAD DUP1 DUP4 SUB DUP2 PUSH1 0x0 DUP8 DUP1 EXTCODESIZE ISZERO DUP1 ISZERO PUSH2 0x62A JUMPI PUSH1 0x0 DUP1 REVERT JUMPDEST POP GAS CALL ISZERO DUP1 ISZERO PUSH2 0x63E JUMPI RETURNDATASIZE PUSH1 0x0 DUP1 RETURNDATACOPY RETURNDATASIZE PUSH1 0x0 REVERT JUMPDEST POP POP POP POP PUSH1 0x40 MLOAD RETURNDATASIZE PUSH1 0x1F NOT PUSH1 0x1F DUP3 ADD AND DUP3 ADD DUP1 PUSH1 0x40 MSTORE POP DUP2 ADD SWAP1 PUSH2 0x662 SWAP2 SWAP1 PUSH2 0xDF8 JUMP JUMPDEST POP DUP4 PUSH1 0x2 PUSH1 0x0 CALLER PUSH20 0xFFFFFFFFFFFFFFFFFFFFFFFFFFFFFFFFFFFFFFFF AND PUSH20 0xFFFFFFFFFFFFFFFFFFFFFFFFFFFFFFFFFFFFFFFF AND DUP2 MSTORE PUSH1 0x20 ADD SWAP1 DUP2 MSTORE PUSH1 0x20 ADD PUSH1 0x0 KECCAK256 PUSH1 0x0 ADD PUSH1 0x0 DUP3 DUP3 SLOAD PUSH2 0x6B5 SWAP2 SWAP1 PUSH2 0x144D JUMP JUMPDEST SWAP3 POP POP DUP2 SWAP1 SSTORE POP POP POP POP POP JUMP JUMPDEST PUSH1 0x0 DUP1 PUSH1 0x0 SWAP1 SLOAD SWAP1 PUSH2 0x100 EXP SWAP1 DIV PUSH20 0xFFFFFFFFFFFFFFFFFFFFFFFFFFFFFFFFFFFFFFFF AND PUSH20 0xFFFFFFFFFFFFFFFFFFFFFFFFFFFFFFFFFFFFFFFF AND PUSH4 0x70A08231 ADDRESS PUSH1 0x40 MLOAD DUP3 PUSH4 0xFFFFFFFF AND PUSH1 0xE0 SHL DUP2 MSTORE PUSH1 0x4 ADD PUSH2 0x71E SWAP2 SWAP1 PUSH2 0x11C5 JUMP JUMPDEST PUSH1 0x20 PUSH1 0x40 MLOAD DUP1 DUP4 SUB DUP2 DUP7 DUP1 EXTCODESIZE ISZERO DUP1 ISZERO PUSH2 0x736 JUMPI PUSH1 0x0 DUP1 REVERT JUMPDEST POP GAS STATICCALL ISZERO DUP1 ISZERO PUSH2 0x74A JUMPI RETURNDATASIZE PUSH1 0x0 DUP1 RETURNDATACOPY RETURNDATASIZE PUSH1 0x0 REVERT JUMPDEST POP POP POP POP PUSH1 0x40 MLOAD RETURNDATASIZE PUSH1 0x1F NOT PUSH1 0x1F DUP3 ADD AND DUP3 ADD DUP1 PUSH1 0x40 MSTORE POP DUP2 ADD SWAP1 PUSH2 0x76E SWAP2 SWAP1 PUSH2 0xEF7 JUMP JUMPDEST SWAP1 POP SWAP1 JUMP JUMPDEST PUSH1 0x1 PUSH1 0x0 SWAP1 SLOAD SWAP1 PUSH2 0x100 EXP SWAP1 DIV PUSH20 0xFFFFFFFFFFFFFFFFFFFFFFFFFFFFFFFFFFFFFFFF AND DUP2 JUMP JUMPDEST CALLER PUSH1 0x1 PUSH1 0x0 SWAP1 SLOAD SWAP1 PUSH2 0x100 EXP SWAP1 DIV PUSH20 0xFFFFFFFFFFFFFFFFFFFFFFFFFFFFFFFFFFFFFFFF AND PUSH20 0xFFFFFFFFFFFFFFFFFFFFFFFFFFFFFFFFFFFFFFFF AND DUP2 PUSH20 0xFFFFFFFFFFFFFFFFFFFFFFFFFFFFFFFFFFFFFFFF AND EQ PUSH2 0x82A JUMPI PUSH1 0x40 MLOAD PUSH32 0x8C379A000000000000000000000000000000000000000000000000000000000 DUP2 MSTORE PUSH1 0x4 ADD PUSH2 0x821 SWAP1 PUSH2 0x12F6 JUMP JUMPDEST PUSH1 0x40 MLOAD DUP1 SWAP2 SUB SWAP1 REVERT JUMPDEST PUSH1 0x0 DUP1 SLOAD SWAP1 PUSH2 0x100 EXP SWAP1 DIV PUSH20 0xFFFFFFFFFFFFFFFFFFFFFFFFFFFFFFFFFFFFFFFF AND PUSH20 0xFFFFFFFFFFFFFFFFFFFFFFFFFFFFFFFFFFFFFFFF AND PUSH4 0x1D43CC98 DUP4 PUSH1 0x40 MLOAD DUP3 PUSH4 0xFFFFFFFF AND PUSH1 0xE0 SHL DUP2 MSTORE PUSH1 0x4 ADD PUSH2 0x883 SWAP2 SWAP1 PUSH2 0x1356 JUMP JUMPDEST PUSH1 0x0 PUSH1 0x40 MLOAD DUP1 DUP4 SUB DUP2 PUSH1 0x0 DUP8 DUP1 EXTCODESIZE ISZERO DUP1 ISZERO PUSH2 0x89D JUMPI PUSH1 0x0 DUP1 REVERT JUMPDEST POP GAS CALL ISZERO DUP1 ISZERO PUSH2 0x8B1 JUMPI RETURNDATASIZE PUSH1 0x0 DUP1 RETURNDATACOPY RETURNDATASIZE PUSH1 0x0 REVERT JUMPDEST POP POP POP POP POP POP JUMP JUMPDEST CALLER PUSH1 0x1 PUSH1 0x0 SWAP1 SLOAD SWAP1 PUSH2 0x100 EXP SWAP1 DIV PUSH20 0xFFFFFFFFFFFFFFFFFFFFFFFFFFFFFFFFFFFFFFFF AND PUSH20 0xFFFFFFFFFFFFFFFFFFFFFFFFFFFFFFFFFFFFFFFF AND DUP2 PUSH20 0xFFFFFFFFFFFFFFFFFFFFFFFFFFFFFFFFFFFFFFFF AND EQ PUSH2 0x94A JUMPI PUSH1 0x40 MLOAD PUSH32 0x8C379A000000000000000000000000000000000000000000000000000000000 DUP2 MSTORE PUSH1 0x4 ADD PUSH2 0x941 SWAP1 PUSH2 0x12F6 JUMP JUMPDEST PUSH1 0x40 MLOAD DUP1 SWAP2 SUB SWAP1 REVERT JUMPDEST DUP2 PUSH1 0x0 DUP2 PUSH1 0x40 MLOAD PUSH1 0x20 ADD PUSH2 0x95E SWAP2 SWAP1 PUSH2 0x1197 JUMP JUMPDEST PUSH1 0x40 MLOAD PUSH1 0x20 DUP2 DUP4 SUB SUB DUP2 MSTORE SWAP1 PUSH1 0x40 MSTORE DUP1 MLOAD SWAP1 PUSH1 0x20 ADD KECCAK256 SWAP1 POP PUSH1 0x0 DUP1 JUMPDEST PUSH1 0x4 DUP1 SLOAD SWAP1 POP DUP2 LT ISZERO PUSH2 0x9EA JUMPI DUP3 PUSH1 0x4 DUP3 DUP2 SLOAD DUP2 LT PUSH2 0x99C JUMPI PUSH2 0x99B PUSH2 0x16D7 JUMP JUMPDEST JUMPDEST SWAP1 PUSH1 0x0 MSTORE PUSH1 0x20 PUSH1 0x0 KECCAK256 ADD PUSH1 0x40 MLOAD PUSH1 0x20 ADD PUSH2 0x9B6 SWAP2 SWAP1 PUSH2 0x11AE JUMP JUMPDEST PUSH1 0x40 MLOAD PUSH1 0x20 DUP2 DUP4 SUB SUB DUP2 MSTORE SWAP1 PUSH1 0x40 MSTORE DUP1 MLOAD SWAP1 PUSH1 0x20 ADD KECCAK256 EQ ISZERO PUSH2 0x9D7 JUMPI PUSH1 0x1 SWAP2 POP JUMPDEST DUP1 DUP1 PUSH2 0x9E2 SWAP1 PUSH2 0x1630 JUMP JUMPDEST SWAP2 POP POP PUSH2 0x97A JUMP JUMPDEST POP DUP1 PUSH2 0xA2B JUMPI PUSH1 0x40 MLOAD PUSH32 0x8C379A000000000000000000000000000000000000000000000000000000000 DUP2 MSTORE PUSH1 0x4 ADD PUSH2 0xA22 SWAP1 PUSH2 0x12D6 JUMP JUMPDEST PUSH1 0x40 MLOAD DUP1 SWAP2 SUB SWAP1 REVERT JUMPDEST PUSH1 0x0 PUSH1 0x3 DUP7 PUSH1 0x40 MLOAD PUSH2 0xA3D SWAP2 SWAP1 PUSH2 0x1197 JUMP JUMPDEST SWAP1 DUP2 MSTORE PUSH1 0x20 ADD PUSH1 0x40 MLOAD DUP1 SWAP2 SUB SWAP1 KECCAK256 PUSH1 0x2 ADD PUSH1 0x0 PUSH2 0x100 EXP DUP2 SLOAD DUP2 PUSH1 0xFF MUL NOT AND SWAP1 DUP4 ISZERO ISZERO MUL OR SWAP1 SSTORE POP PUSH32 0x24BA6C881728980191398DB8DCFD8ED4F6AEB1C08DF349D63F3B85075F3E86DD DUP6 PUSH1 0x40 MLOAD PUSH2 0xA94 SWAP2 SWAP1 PUSH2 0x1246 JUMP JUMPDEST PUSH1 0x40 MLOAD DUP1 SWAP2 SUB SWAP1 LOG1 POP POP POP POP POP JUMP JUMPDEST PUSH1 0x0 DUP1 PUSH1 0x0 SWAP1 SLOAD SWAP1 PUSH2 0x100 EXP SWAP1 DIV PUSH20 0xFFFFFFFFFFFFFFFFFFFFFFFFFFFFFFFFFFFFFFFF AND PUSH20 0xFFFFFFFFFFFFFFFFFFFFFFFFFFFFFFFFFFFFFFFF AND PUSH4 0x70A08231 CALLER PUSH1 0x40 MLOAD DUP3 PUSH4 0xFFFFFFFF AND PUSH1 0xE0 SHL DUP2 MSTORE PUSH1 0x4 ADD PUSH2 0xAFF SWAP2 SWAP1 PUSH2 0x11C5 JUMP JUMPDEST PUSH1 0x20 PUSH1 0x40 MLOAD DUP1 DUP4 SUB DUP2 DUP7 DUP1 EXTCODESIZE ISZERO DUP1 ISZERO PUSH2 0xB17 JUMPI PUSH1 0x0 DUP1 REVERT JUMPDEST POP GAS STATICCALL ISZERO DUP1 ISZERO PUSH2 0xB2B JUMPI RETURNDATASIZE PUSH1 0x0 DUP1 RETURNDATACOPY RETURNDATASIZE PUSH1 0x0 REVERT JUMPDEST POP POP POP POP PUSH1 0x40 MLOAD RETURNDATASIZE PUSH1 0x1F NOT PUSH1 0x1F DUP3 ADD AND DUP3 ADD DUP1 PUSH1 0x40 MSTORE POP DUP2 ADD SWAP1 PUSH2 0xB4F SWAP2 SWAP1 PUSH2 0xEF7 JUMP JUMPDEST SWAP1 POP SWAP1 JUMP JUMPDEST PUSH1 0x2 PUSH1 0x20 MSTORE DUP1 PUSH1 0x0 MSTORE PUSH1 0x40 PUSH1 0x0 KECCAK256 PUSH1 0x0 SWAP2 POP SWAP1 POP DUP1 PUSH1 0x0 ADD SLOAD SWAP1 POP DUP2 JUMP JUMPDEST PUSH1 0x3 DUP2 DUP1 MLOAD PUSH1 0x20 DUP2 ADD DUP3 ADD DUP1 MLOAD DUP5 DUP3 MSTORE PUSH1 0x20 DUP4 ADD PUSH1 0x20 DUP6 ADD KECCAK256 DUP2 DUP4 MSTORE DUP1 SWAP6 POP POP POP POP POP POP PUSH1 0x0 SWAP2 POP SWAP1 POP DUP1 PUSH1 0x0 ADD DUP1 SLOAD PUSH2 0xBAB SWAP1 PUSH2 0x15CD JUMP JUMPDEST DUP1 PUSH1 0x1F ADD PUSH1 0x20 DUP1 SWAP2 DIV MUL PUSH1 0x20 ADD PUSH1 0x40 MLOAD SWAP1 DUP2 ADD PUSH1 0x40 MSTORE DUP1 SWAP3 SWAP2 SWAP1 DUP2 DUP2 MSTORE PUSH1 0x20 ADD DUP3 DUP1 SLOAD PUSH2 0xBD7 SWAP1 PUSH2 0x15CD JUMP JUMPDEST DUP1 ISZERO PUSH2 0xC24 JUMPI DUP1 PUSH1 0x1F LT PUSH2 0xBF9 JUMPI PUSH2 0x100 DUP1 DUP4 SLOAD DIV MUL DUP4 MSTORE SWAP2 PUSH1 0x20 ADD SWAP2 PUSH2 0xC24 JUMP JUMPDEST DUP3 ADD SWAP2 SWAP1 PUSH1 0x0 MSTORE PUSH1 0x20 PUSH1 0x0 KECCAK256 SWAP1 JUMPDEST DUP2 SLOAD DUP2 MSTORE SWAP1 PUSH1 0x1 ADD SWAP1 PUSH1 0x20 ADD DUP1 DUP4 GT PUSH2 0xC07 JUMPI DUP3 SWAP1 SUB PUSH1 0x1F AND DUP3 ADD SWAP2 JUMPDEST POP POP POP POP POP SWAP1 DUP1 PUSH1 0x1 ADD SLOAD SWAP1 DUP1 PUSH1 0x2 ADD PUSH1 0x0 SWAP1 SLOAD SWAP1 PUSH2 0x100 EXP SWAP1 DIV PUSH1 0xFF AND SWAP1 POP DUP4 JUMP JUMPDEST PUSH1 0x0 PUSH8 0xDE0B6B3A7640000 DUP3 PUSH2 0xC5D SWAP2 SWAP1 PUSH2 0x14A3 JUMP JUMPDEST SWAP1 POP SWAP2 SWAP1 POP JUMP JUMPDEST DUP3 DUP1 SLOAD PUSH2 0xC70 SWAP1 PUSH2 0x15CD JUMP JUMPDEST SWAP1 PUSH1 0x0 MSTORE PUSH1 0x20 PUSH1 0x0 KECCAK256 SWAP1 PUSH1 0x1F ADD PUSH1 0x20 SWAP1 DIV DUP2 ADD SWAP3 DUP3 PUSH2 0xC92 JUMPI PUSH1 0x0 DUP6 SSTORE PUSH2 0xCD9 JUMP JUMPDEST DUP3 PUSH1 0x1F LT PUSH2 0xCAB JUMPI DUP1 MLOAD PUSH1 0xFF NOT AND DUP4 DUP1 ADD OR DUP6 SSTORE PUSH2 0xCD9 JUMP JUMPDEST DUP3 DUP1 ADD PUSH1 0x1 ADD DUP6 SSTORE DUP3 ISZERO PUSH2 0xCD9 JUMPI SWAP2 DUP3 ADD JUMPDEST DUP3 DUP2 GT ISZERO PUSH2 0xCD8 JUMPI DUP3 MLOAD DUP3 SSTORE SWAP2 PUSH1 0x20 ADD SWAP2 SWAP1 PUSH1 0x1 ADD SWAP1 PUSH2 0xCBD JUMP JUMPDEST JUMPDEST POP SWAP1 POP PUSH2 0xCE6 SWAP2 SWAP1 PUSH2 0xCEA JUMP JUMPDEST POP SWAP1 JUMP JUMPDEST JUMPDEST DUP1 DUP3 GT ISZERO PUSH2 0xD03 JUMPI PUSH1 0x0 DUP2 PUSH1 0x0 SWAP1 SSTORE POP PUSH1 0x1 ADD PUSH2 0xCEB JUMP JUMPDEST POP SWAP1 JUMP JUMPDEST PUSH1 0x0 PUSH2 0xD1A PUSH2 0xD15 DUP5 PUSH2 0x1396 JUMP JUMPDEST PUSH2 0x1371 JUMP JUMPDEST SWAP1 POP DUP3 DUP2 MSTORE PUSH1 0x20 DUP2 ADD DUP5 DUP5 DUP5 ADD GT ISZERO PUSH2 0xD36 JUMPI PUSH2 0xD35 PUSH2 0x173A JUMP JUMPDEST JUMPDEST PUSH2 0xD41 DUP5 DUP3 DUP6 PUSH2 0x158B JUMP JUMPDEST POP SWAP4 SWAP3 POP POP POP JUMP JUMPDEST PUSH1 0x0 DUP2 CALLDATALOAD SWAP1 POP PUSH2 0xD58 DUP2 PUSH2 0x184A JUMP JUMPDEST SWAP3 SWAP2 POP POP JUMP JUMPDEST PUSH1 0x0 DUP2 MLOAD SWAP1 POP PUSH2 0xD6D DUP2 PUSH2 0x1861 JUMP JUMPDEST SWAP3 SWAP2 POP POP JUMP JUMPDEST PUSH1 0x0 DUP3 PUSH1 0x1F DUP4 ADD SLT PUSH2 0xD88 JUMPI PUSH2 0xD87 PUSH2 0x1735 JUMP JUMPDEST JUMPDEST DUP2 CALLDATALOAD PUSH2 0xD98 DUP5 DUP3 PUSH1 0x20 DUP7 ADD PUSH2 0xD07 JUMP JUMPDEST SWAP2 POP POP SWAP3 SWAP2 POP POP JUMP JUMPDEST PUSH1 0x0 DUP2 CALLDATALOAD SWAP1 POP PUSH2 0xDB0 DUP2 PUSH2 0x1878 JUMP JUMPDEST SWAP3 SWAP2 POP POP JUMP JUMPDEST PUSH1 0x0 DUP2 MLOAD SWAP1 POP PUSH2 0xDC5 DUP2 PUSH2 0x1878 JUMP JUMPDEST SWAP3 SWAP2 POP POP JUMP JUMPDEST PUSH1 0x0 PUSH1 0x20 DUP3 DUP5 SUB SLT ISZERO PUSH2 0xDE1 JUMPI PUSH2 0xDE0 PUSH2 0x1744 JUMP JUMPDEST JUMPDEST PUSH1 0x0 PUSH2 0xDEF DUP5 DUP3 DUP6 ADD PUSH2 0xD49 JUMP JUMPDEST SWAP2 POP POP SWAP3 SWAP2 POP POP JUMP JUMPDEST PUSH1 0x0 PUSH1 0x20 DUP3 DUP5 SUB SLT ISZERO PUSH2 0xE0E JUMPI PUSH2 0xE0D PUSH2 0x1744 JUMP JUMPDEST JUMPDEST PUSH1 0x0 PUSH2 0xE1C DUP5 DUP3 DUP6 ADD PUSH2 0xD5E JUMP JUMPDEST SWAP2 POP POP SWAP3 SWAP2 POP POP JUMP JUMPDEST PUSH1 0x0 PUSH1 0x20 DUP3 DUP5 SUB SLT ISZERO PUSH2 0xE3B JUMPI PUSH2 0xE3A PUSH2 0x1744 JUMP JUMPDEST JUMPDEST PUSH1 0x0 DUP3 ADD CALLDATALOAD PUSH8 0xFFFFFFFFFFFFFFFF DUP2 GT ISZERO PUSH2 0xE59 JUMPI PUSH2 0xE58 PUSH2 0x173F JUMP JUMPDEST JUMPDEST PUSH2 0xE65 DUP5 DUP3 DUP6 ADD PUSH2 0xD73 JUMP JUMPDEST SWAP2 POP POP SWAP3 SWAP2 POP POP JUMP JUMPDEST PUSH1 0x0 DUP1 PUSH1 0x40 DUP4 DUP6 SUB SLT ISZERO PUSH2 0xE85 JUMPI PUSH2 0xE84 PUSH2 0x1744 JUMP JUMPDEST JUMPDEST PUSH1 0x0 DUP4 ADD CALLDATALOAD PUSH8 0xFFFFFFFFFFFFFFFF DUP2 GT ISZERO PUSH2 0xEA3 JUMPI PUSH2 0xEA2 PUSH2 0x173F JUMP JUMPDEST JUMPDEST PUSH2 0xEAF DUP6 DUP3 DUP7 ADD PUSH2 0xD73 JUMP JUMPDEST SWAP3 POP POP PUSH1 0x20 PUSH2 0xEC0 DUP6 DUP3 DUP7 ADD PUSH2 0xDA1 JUMP JUMPDEST SWAP2 POP POP SWAP3 POP SWAP3 SWAP1 POP JUMP JUMPDEST PUSH1 0x0 PUSH1 0x20 DUP3 DUP5 SUB SLT ISZERO PUSH2 0xEE0 JUMPI PUSH2 0xEDF PUSH2 0x1744 JUMP JUMPDEST JUMPDEST PUSH1 0x0 PUSH2 0xEEE DUP5 DUP3 DUP6 ADD PUSH2 0xDA1 JUMP JUMPDEST SWAP2 POP POP SWAP3 SWAP2 POP POP JUMP JUMPDEST PUSH1 0x0 PUSH1 0x20 DUP3 DUP5 SUB SLT ISZERO PUSH2 0xF0D JUMPI PUSH2 0xF0C PUSH2 0x1744 JUMP JUMPDEST JUMPDEST PUSH1 0x0 PUSH2 0xF1B DUP5 DUP3 DUP6 ADD PUSH2 0xDB6 JUMP JUMPDEST SWAP2 POP POP SWAP3 SWAP2 POP POP JUMP JUMPDEST PUSH1 0x0 PUSH2 0xF30 DUP4 DUP4 PUSH2 0xFDA JUMP JUMPDEST SWAP1 POP SWAP3 SWAP2 POP POP JUMP JUMPDEST PUSH2 0xF41 DUP2 PUSH2 0x1543 JUMP JUMPDEST DUP3 MSTORE POP POP JUMP JUMPDEST PUSH2 0xF50 DUP2 PUSH2 0x1531 JUMP JUMPDEST DUP3 MSTORE POP POP JUMP JUMPDEST PUSH1 0x0 PUSH2 0xF61 DUP3 PUSH2 0x13EC JUMP JUMPDEST PUSH2 0xF6B DUP2 DUP6 PUSH2 0x140F JUMP JUMPDEST SWAP4 POP DUP4 PUSH1 0x20 DUP3 MUL DUP6 ADD PUSH2 0xF7D DUP6 PUSH2 0x13C7 JUMP JUMPDEST DUP1 PUSH1 0x0 JUMPDEST DUP6 DUP2 LT ISZERO PUSH2 0xFB9 JUMPI DUP5 DUP5 SUB DUP10 MSTORE DUP2 MLOAD PUSH2 0xF9A DUP6 DUP3 PUSH2 0xF24 JUMP JUMPDEST SWAP5 POP PUSH2 0xFA5 DUP4 PUSH2 0x1402 JUMP JUMPDEST SWAP3 POP PUSH1 0x20 DUP11 ADD SWAP10 POP POP PUSH1 0x1 DUP2 ADD SWAP1 POP PUSH2 0xF81 JUMP JUMPDEST POP DUP3 SWAP8 POP DUP8 SWAP6 POP POP POP POP POP POP SWAP3 SWAP2 POP POP JUMP JUMPDEST PUSH2 0xFD4 DUP2 PUSH2 0x1555 JUMP JUMPDEST DUP3 MSTORE POP POP JUMP JUMPDEST PUSH1 0x0 PUSH2 0xFE5 DUP3 PUSH2 0x13F7 JUMP JUMPDEST PUSH2 0xFEF DUP2 DUP6 PUSH2 0x1420 JUMP JUMPDEST SWAP4 POP PUSH2 0xFFF DUP2 DUP6 PUSH1 0x20 DUP7 ADD PUSH2 0x159A JUMP JUMPDEST PUSH2 0x1008 DUP2 PUSH2 0x1749 JUMP JUMPDEST DUP5 ADD SWAP2 POP POP SWAP3 SWAP2 POP POP JUMP JUMPDEST PUSH1 0x0 PUSH2 0x101E DUP3 PUSH2 0x13F7 JUMP JUMPDEST PUSH2 0x1028 DUP2 DUP6 PUSH2 0x1431 JUMP JUMPDEST SWAP4 POP PUSH2 0x1038 DUP2 DUP6 PUSH1 0x20 DUP7 ADD PUSH2 0x159A JUMP JUMPDEST PUSH2 0x1041 DUP2 PUSH2 0x1749 JUMP JUMPDEST DUP5 ADD SWAP2 POP POP SWAP3 SWAP2 POP POP JUMP JUMPDEST PUSH1 0x0 PUSH2 0x1057 DUP3 PUSH2 0x13F7 JUMP JUMPDEST PUSH2 0x1061 DUP2 DUP6 PUSH2 0x1442 JUMP JUMPDEST SWAP4 POP PUSH2 0x1071 DUP2 DUP6 PUSH1 0x20 DUP7 ADD PUSH2 0x159A JUMP JUMPDEST DUP1 DUP5 ADD SWAP2 POP POP SWAP3 SWAP2 POP POP JUMP JUMPDEST PUSH1 0x0 DUP2 SLOAD PUSH2 0x108A DUP2 PUSH2 0x15CD JUMP JUMPDEST PUSH2 0x1094 DUP2 DUP7 PUSH2 0x1442 JUMP JUMPDEST SWAP5 POP PUSH1 0x1 DUP3 AND PUSH1 0x0 DUP2 EQ PUSH2 0x10AF JUMPI PUSH1 0x1 DUP2 EQ PUSH2 0x10C0 JUMPI PUSH2 0x10F3 JUMP JUMPDEST PUSH1 0xFF NOT DUP4 AND DUP7 MSTORE DUP2 DUP7 ADD SWAP4 POP PUSH2 0x10F3 JUMP JUMPDEST PUSH2 0x10C9 DUP6 PUSH2 0x13D7 JUMP JUMPDEST PUSH1 0x0 JUMPDEST DUP4 DUP2 LT ISZERO PUSH2 0x10EB JUMPI DUP2 SLOAD DUP2 DUP10 ADD MSTORE PUSH1 0x1 DUP3 ADD SWAP2 POP PUSH1 0x20 DUP2 ADD SWAP1 POP PUSH2 0x10CC JUMP JUMPDEST DUP4 DUP9 ADD SWAP6 POP POP POP JUMPDEST POP POP POP SWAP3 SWAP2 POP POP JUMP JUMPDEST PUSH1 0x0 PUSH2 0x1109 PUSH1 0x1C DUP4 PUSH2 0x1431 JUMP JUMPDEST SWAP2 POP PUSH2 0x1114 DUP3 PUSH2 0x175A JUMP JUMPDEST PUSH1 0x20 DUP3 ADD SWAP1 POP SWAP2 SWAP1 POP JUMP JUMPDEST PUSH1 0x0 PUSH2 0x112C PUSH1 0x2D DUP4 PUSH2 0x1431 JUMP JUMPDEST SWAP2 POP PUSH2 0x1137 DUP3 PUSH2 0x1783 JUMP JUMPDEST PUSH1 0x40 DUP3 ADD SWAP1 POP SWAP2 SWAP1 POP JUMP JUMPDEST PUSH1 0x0 PUSH2 0x114F PUSH1 0x2A DUP4 PUSH2 0x1431 JUMP JUMPDEST SWAP2 POP PUSH2 0x115A DUP3 PUSH2 0x17D2 JUMP JUMPDEST PUSH1 0x40 DUP3 ADD SWAP1 POP SWAP2 SWAP1 POP JUMP JUMPDEST PUSH1 0x0 PUSH2 0x1172 PUSH1 0x20 DUP4 PUSH2 0x1431 JUMP JUMPDEST SWAP2 POP PUSH2 0x117D DUP3 PUSH2 0x1821 JUMP JUMPDEST PUSH1 0x20 DUP3 ADD SWAP1 POP SWAP2 SWAP1 POP JUMP JUMPDEST PUSH2 0x1191 DUP2 PUSH2 0x1581 JUMP JUMPDEST DUP3 MSTORE POP POP JUMP JUMPDEST PUSH1 0x0 PUSH2 0x11A3 DUP3 DUP5 PUSH2 0x104C JUMP JUMPDEST SWAP2 POP DUP2 SWAP1 POP SWAP3 SWAP2 POP POP JUMP JUMPDEST PUSH1 0x0 PUSH2 0x11BA DUP3 DUP5 PUSH2 0x107D JUMP JUMPDEST SWAP2 POP DUP2 SWAP1 POP SWAP3 SWAP2 POP POP JUMP JUMPDEST PUSH1 0x0 PUSH1 0x20 DUP3 ADD SWAP1 POP PUSH2 0x11DA PUSH1 0x0 DUP4 ADD DUP5 PUSH2 0xF47 JUMP JUMPDEST SWAP3 SWAP2 POP POP JUMP JUMPDEST PUSH1 0x0 PUSH1 0x20 DUP3 ADD SWAP1 POP PUSH2 0x11F5 PUSH1 0x0 DUP4 ADD DUP5 PUSH2 0xF38 JUMP JUMPDEST SWAP3 SWAP2 POP POP JUMP JUMPDEST PUSH1 0x0 PUSH1 0x40 DUP3 ADD SWAP1 POP PUSH2 0x1210 PUSH1 0x0 DUP4 ADD DUP6 PUSH2 0xF47 JUMP JUMPDEST PUSH2 0x121D PUSH1 0x20 DUP4 ADD DUP5 PUSH2 0x1188 JUMP JUMPDEST SWAP4 SWAP3 POP POP POP JUMP JUMPDEST PUSH1 0x0 PUSH1 0x20 DUP3 ADD SWAP1 POP DUP2 DUP2 SUB PUSH1 0x0 DUP4 ADD MSTORE PUSH2 0x123E DUP2 DUP5 PUSH2 0xF56 JUMP JUMPDEST SWAP1 POP SWAP3 SWAP2 POP POP JUMP JUMPDEST PUSH1 0x0 PUSH1 0x20 DUP3 ADD SWAP1 POP DUP2 DUP2 SUB PUSH1 0x0 DUP4 ADD MSTORE PUSH2 0x1260 DUP2 DUP5 PUSH2 0x1013 JUMP JUMPDEST SWAP1 POP SWAP3 SWAP2 POP POP JUMP JUMPDEST PUSH1 0x0 PUSH1 0x40 DUP3 ADD SWAP1 POP DUP2 DUP2 SUB PUSH1 0x0 DUP4 ADD MSTORE PUSH2 0x1282 DUP2 DUP6 PUSH2 0x1013 JUMP JUMPDEST SWAP1 POP PUSH2 0x1291 PUSH1 0x20 DUP4 ADD DUP5 PUSH2 0x1188 JUMP JUMPDEST SWAP4 SWAP3 POP POP POP JUMP JUMPDEST PUSH1 0x0 PUSH1 0x60 DUP3 ADD SWAP1 POP DUP2 DUP2 SUB PUSH1 0x0 DUP4 ADD MSTORE PUSH2 0x12B2 DUP2 DUP7 PUSH2 0x1013 JUMP JUMPDEST SWAP1 POP PUSH2 0x12C1 PUSH1 0x20 DUP4 ADD DUP6 PUSH2 0x1188 JUMP JUMPDEST PUSH2 0x12CE PUSH1 0x40 DUP4 ADD DUP5 PUSH2 0xFCB JUMP JUMPDEST SWAP5 SWAP4 POP POP POP POP JUMP JUMPDEST PUSH1 0x0 PUSH1 0x20 DUP3 ADD SWAP1 POP DUP2 DUP2 SUB PUSH1 0x0 DUP4 ADD MSTORE PUSH2 0x12EF DUP2 PUSH2 0x10FC JUMP JUMPDEST SWAP1 POP SWAP2 SWAP1 POP JUMP JUMPDEST PUSH1 0x0 PUSH1 0x20 DUP3 ADD SWAP1 POP DUP2 DUP2 SUB PUSH1 0x0 DUP4 ADD MSTORE PUSH2 0x130F DUP2 PUSH2 0x111F JUMP JUMPDEST SWAP1 POP SWAP2 SWAP1 POP JUMP JUMPDEST PUSH1 0x0 PUSH1 0x20 DUP3 ADD SWAP1 POP DUP2 DUP2 SUB PUSH1 0x0 DUP4 ADD MSTORE PUSH2 0x132F DUP2 PUSH2 0x1142 JUMP JUMPDEST SWAP1 POP SWAP2 SWAP1 POP JUMP JUMPDEST PUSH1 0x0 PUSH1 0x20 DUP3 ADD SWAP1 POP DUP2 DUP2 SUB PUSH1 0x0 DUP4 ADD MSTORE PUSH2 0x134F DUP2 PUSH2 0x1165 JUMP JUMPDEST SWAP1 POP SWAP2 SWAP1 POP JUMP JUMPDEST PUSH1 0x0 PUSH1 0x20 DUP3 ADD SWAP1 POP PUSH2 0x136B PUSH1 0x0 DUP4 ADD DUP5 PUSH2 0x1188 JUMP JUMPDEST SWAP3 SWAP2 POP POP JUMP JUMPDEST PUSH1 0x0 PUSH2 0x137B PUSH2 0x138C JUMP JUMPDEST SWAP1 POP PUSH2 0x1387 DUP3 DUP3 PUSH2 0x15FF JUMP JUMPDEST SWAP2 SWAP1 POP JUMP JUMPDEST PUSH1 0x0 PUSH1 0x40 MLOAD SWAP1 POP SWAP1 JUMP JUMPDEST PUSH1 0x0 PUSH8 0xFFFFFFFFFFFFFFFF DUP3 GT ISZERO PUSH2 0x13B1 JUMPI PUSH2 0x13B0 PUSH2 0x1706 JUMP JUMPDEST JUMPDEST PUSH2 0x13BA DUP3 PUSH2 0x1749 JUMP JUMPDEST SWAP1 POP PUSH1 0x20 DUP2 ADD SWAP1 POP SWAP2 SWAP1 POP JUMP JUMPDEST PUSH1 0x0 DUP2 SWAP1 POP PUSH1 0x20 DUP3 ADD SWAP1 POP SWAP2 SWAP1 POP JUMP JUMPDEST PUSH1 0x0 DUP2 SWAP1 POP DUP2 PUSH1 0x0 MSTORE PUSH1 0x20 PUSH1 0x0 KECCAK256 SWAP1 POP SWAP2 SWAP1 POP JUMP JUMPDEST PUSH1 0x0 DUP2 MLOAD SWAP1 POP SWAP2 SWAP1 POP JUMP JUMPDEST PUSH1 0x0 DUP2 MLOAD SWAP1 POP SWAP2 SWAP1 POP JUMP JUMPDEST PUSH1 0x0 PUSH1 0x20 DUP3 ADD SWAP1 POP SWAP2 SWAP1 POP JUMP JUMPDEST PUSH1 0x0 DUP3 DUP3 MSTORE PUSH1 0x20 DUP3 ADD SWAP1 POP SWAP3 SWAP2 POP POP JUMP JUMPDEST PUSH1 0x0 DUP3 DUP3 MSTORE PUSH1 0x20 DUP3 ADD SWAP1 POP SWAP3 SWAP2 POP POP JUMP JUMPDEST PUSH1 0x0 DUP3 DUP3 MSTORE PUSH1 0x20 DUP3 ADD SWAP1 POP SWAP3 SWAP2 POP POP JUMP JUMPDEST PUSH1 0x0 DUP2 SWAP1 POP SWAP3 SWAP2 POP POP JUMP JUMPDEST PUSH1 0x0 PUSH2 0x1458 DUP3 PUSH2 0x1581 JUMP JUMPDEST SWAP2 POP PUSH2 0x1463 DUP4 PUSH2 0x1581 JUMP JUMPDEST SWAP3 POP DUP3 PUSH32 0xFFFFFFFFFFFFFFFFFFFFFFFFFFFFFFFFFFFFFFFFFFFFFFFFFFFFFFFFFFFFFFFF SUB DUP3 GT ISZERO PUSH2 0x1498 JUMPI PUSH2 0x1497 PUSH2 0x1679 JUMP JUMPDEST JUMPDEST DUP3 DUP3 ADD SWAP1 POP SWAP3 SWAP2 POP POP JUMP JUMPDEST PUSH1 0x0 PUSH2 0x14AE DUP3 PUSH2 0x1581 JUMP JUMPDEST SWAP2 POP PUSH2 0x14B9 DUP4 PUSH2 0x1581 JUMP JUMPDEST SWAP3 POP DUP2 PUSH32 0xFFFFFFFFFFFFFFFFFFFFFFFFFFFFFFFFFFFFFFFFFFFFFFFFFFFFFFFFFFFFFFFF DIV DUP4 GT DUP3 ISZERO ISZERO AND ISZERO PUSH2 0x14F2 JUMPI PUSH2 0x14F1 PUSH2 0x1679 JUMP JUMPDEST JUMPDEST DUP3 DUP3 MUL SWAP1 POP SWAP3 SWAP2 POP POP JUMP JUMPDEST PUSH1 0x0 PUSH2 0x1508 DUP3 PUSH2 0x1581 JUMP JUMPDEST SWAP2 POP PUSH2 0x1513 DUP4 PUSH2 0x1581 JUMP JUMPDEST SWAP3 POP DUP3 DUP3 LT ISZERO PUSH2 0x1526 JUMPI PUSH2 0x1525 PUSH2 0x1679 JUMP JUMPDEST JUMPDEST DUP3 DUP3 SUB SWAP1 POP SWAP3 SWAP2 POP POP JUMP JUMPDEST PUSH1 0x0 PUSH2 0x153C DUP3 PUSH2 0x1561 JUMP JUMPDEST SWAP1 POP SWAP2 SWAP1 POP JUMP JUMPDEST PUSH1 0x0 PUSH2 0x154E DUP3 PUSH2 0x1561 JUMP JUMPDEST SWAP1 POP SWAP2 SWAP1 POP JUMP JUMPDEST PUSH1 0x0 DUP2 ISZERO ISZERO SWAP1 POP SWAP2 SWAP1 POP JUMP JUMPDEST PUSH1 0x0 PUSH20 0xFFFFFFFFFFFFFFFFFFFFFFFFFFFFFFFFFFFFFFFF DUP3 AND SWAP1 POP SWAP2 SWAP1 POP JUMP JUMPDEST PUSH1 0x0 DUP2 SWAP1 POP SWAP2 SWAP1 POP JUMP JUMPDEST DUP3 DUP2 DUP4 CALLDATACOPY PUSH1 0x0 DUP4 DUP4 ADD MSTORE POP POP POP JUMP JUMPDEST PUSH1 0x0 JUMPDEST DUP4 DUP2 LT ISZERO PUSH2 0x15B8 JUMPI DUP1 DUP3 ADD MLOAD DUP2 DUP5 ADD MSTORE PUSH1 0x20 DUP2 ADD SWAP1 POP PUSH2 0x159D JUMP JUMPDEST DUP4 DUP2 GT ISZERO PUSH2 0x15C7 JUMPI PUSH1 0x0 DUP5 DUP5 ADD MSTORE JUMPDEST POP POP POP POP JUMP JUMPDEST PUSH1 0x0 PUSH1 0x2 DUP3 DIV SWAP1 POP PUSH1 0x1 DUP3 AND DUP1 PUSH2 0x15E5 JUMPI PUSH1 0x7F DUP3 AND SWAP2 POP JUMPDEST PUSH1 0x20 DUP3 LT DUP2 EQ ISZERO PUSH2 0x15F9 JUMPI PUSH2 0x15F8 PUSH2 0x16A8 JUMP JUMPDEST JUMPDEST POP SWAP2 SWAP1 POP JUMP JUMPDEST PUSH2 0x1608 DUP3 PUSH2 0x1749 JUMP JUMPDEST DUP2 ADD DUP2 DUP2 LT PUSH8 0xFFFFFFFFFFFFFFFF DUP3 GT OR ISZERO PUSH2 0x1627 JUMPI PUSH2 0x1626 PUSH2 0x1706 JUMP JUMPDEST JUMPDEST DUP1 PUSH1 0x40 MSTORE POP POP POP JUMP JUMPDEST PUSH1 0x0 PUSH2 0x163B DUP3 PUSH2 0x1581 JUMP JUMPDEST SWAP2 POP PUSH32 0xFFFFFFFFFFFFFFFFFFFFFFFFFFFFFFFFFFFFFFFFFFFFFFFFFFFFFFFFFFFFFFFF DUP3 EQ ISZERO PUSH2 0x166E JUMPI PUSH2 0x166D PUSH2 0x1679 JUMP JUMPDEST JUMPDEST PUSH1 0x1 DUP3 ADD SWAP1 POP SWAP2 SWAP1 POP JUMP JUMPDEST PUSH32 0x4E487B7100000000000000000000000000000000000000000000000000000000 PUSH1 0x0 MSTORE PUSH1 0x11 PUSH1 0x4 MSTORE PUSH1 0x24 PUSH1 0x0 REVERT JUMPDEST PUSH32 0x4E487B7100000000000000000000000000000000000000000000000000000000 PUSH1 0x0 MSTORE PUSH1 0x22 PUSH1 0x4 MSTORE PUSH1 0x24 PUSH1 0x0 REVERT JUMPDEST PUSH32 0x4E487B7100000000000000000000000000000000000000000000000000000000 PUSH1 0x0 MSTORE PUSH1 0x32 PUSH1 0x4 MSTORE PUSH1 0x24 PUSH1 0x0 REVERT JUMPDEST PUSH32 0x4E487B7100000000000000000000000000000000000000000000000000000000 PUSH1 0x0 MSTORE PUSH1 0x41 PUSH1 0x4 MSTORE PUSH1 0x24 PUSH1 0x0 REVERT JUMPDEST PUSH1 0x0 DUP1 REVERT JUMPDEST PUSH1 0x0 DUP1 REVERT JUMPDEST PUSH1 0x0 DUP1 REVERT JUMPDEST PUSH1 0x0 DUP1 REVERT JUMPDEST PUSH1 0x0 PUSH1 0x1F NOT PUSH1 0x1F DUP4 ADD AND SWAP1 POP SWAP2 SWAP1 POP JUMP JUMPDEST PUSH32 0x4E6F20736520656E6375656E747261206C6120617472616363696F6E00000000 PUSH1 0x0 DUP3 ADD MSTORE POP JUMP JUMPDEST PUSH32 0x4E6F207469656E6573207065726D69736F73207061726120656A656375746172 PUSH1 0x0 DUP3 ADD MSTORE PUSH32 0x20657374612066756E63696F6E00000000000000000000000000000000000000 PUSH1 0x20 DUP3 ADD MSTORE POP JUMP JUMPDEST PUSH32 0x436F6D707261206D656E6F7320546F6B656E73206F207061676120636F6E206D PUSH1 0x0 DUP3 ADD MSTORE PUSH32 0x6173206574686572732E00000000000000000000000000000000000000000000 PUSH1 0x20 DUP3 ADD MSTORE POP JUMP JUMPDEST PUSH32 0x436F6D70726120756E206E756D65726F206D656E6F7220646520546F6B656E73 PUSH1 0x0 DUP3 ADD MSTORE POP JUMP JUMPDEST PUSH2 0x1853 DUP2 PUSH2 0x1531 JUMP JUMPDEST DUP2 EQ PUSH2 0x185E JUMPI PUSH1 0x0 DUP1 REVERT JUMPDEST POP JUMP JUMPDEST PUSH2 0x186A DUP2 PUSH2 0x1555 JUMP JUMPDEST DUP2 EQ PUSH2 0x1875 JUMPI PUSH1 0x0 DUP1 REVERT JUMPDEST POP JUMP JUMPDEST PUSH2 0x1881 DUP2 PUSH2 0x1581 JUMP JUMPDEST DUP2 EQ PUSH2 0x188C JUMPI PUSH1 0x0 DUP1 REVERT JUMPDEST POP JUMP INVALID LOG2 PUSH5 0x6970667358 0x22 SLT KECCAK256 0xD7 BLOCKHASH 0xCF 0x24 0xC1 0x4F 0xDD 0xE4 DIV SHR DIFFICULTY SWAP3 CALLVALUE SWAP4 0xBE EXTCODESIZE 0xD6 SHL 0x2B 0xB4 SWAP6 BASEFEE 0xC9 0xB6 0x2C RETURNDATACOPY SDIV POP DUP1 CODECOPY JUMP SWAP6 PUSH5 0x736F6C6343 STOP ADDMOD SMOD STOP CALLER PUSH1 0x80 PUSH1 0x40 MSTORE CALLVALUE DUP1 ISZERO PUSH2 0x10 JUMPI PUSH1 0x0 DUP1 REVERT JUMPDEST POP PUSH1 0x40 MLOAD PUSH2 0xFBB CODESIZE SUB DUP1 PUSH2 0xFBB DUP4 CODECOPY DUP2 DUP2 ADD PUSH1 0x40 MSTORE DUP2 ADD SWAP1 PUSH2 0x32 SWAP2 SWAP1 PUSH2 0x99 JUMP JUMPDEST DUP1 PUSH1 0x2 DUP2 SWAP1 SSTORE POP PUSH1 0x2 SLOAD PUSH1 0x0 DUP1 CALLER PUSH20 0xFFFFFFFFFFFFFFFFFFFFFFFFFFFFFFFFFFFFFFFF AND PUSH20 0xFFFFFFFFFFFFFFFFFFFFFFFFFFFFFFFFFFFFFFFF AND DUP2 MSTORE PUSH1 0x20 ADD SWAP1 DUP2 MSTORE PUSH1 0x20 ADD PUSH1 0x0 KECCAK256 DUP2 SWAP1 SSTORE POP POP PUSH2 0xEC JUMP JUMPDEST PUSH1 0x0 DUP2 MLOAD SWAP1 POP PUSH2 0x93 DUP2 PUSH2 0xD5 JUMP JUMPDEST SWAP3 SWAP2 POP POP JUMP JUMPDEST PUSH1 0x0 PUSH1 0x20 DUP3 DUP5 SUB SLT ISZERO PUSH2 0xAF JUMPI PUSH2 0xAE PUSH2 0xD0 JUMP JUMPDEST JUMPDEST PUSH1 0x0 PUSH2 0xBD DUP5 DUP3 DUP6 ADD PUSH2 0x84 JUMP JUMPDEST SWAP2 POP POP SWAP3 SWAP2 POP POP JUMP JUMPDEST PUSH1 0x0 DUP2 SWAP1 POP SWAP2 SWAP1 POP JUMP JUMPDEST PUSH1 0x0 DUP1 REVERT JUMPDEST PUSH2 0xDE DUP2 PUSH2 0xC6 JUMP JUMPDEST DUP2 EQ PUSH2 0xE9 JUMPI PUSH1 0x0 DUP1 REVERT JUMPDEST POP JUMP JUMPDEST PUSH2 0xEC0 DUP1 PUSH2 0xFB PUSH1 0x0 CODECOPY PUSH1 0x0 RETURN INVALID PUSH1 0x80 PUSH1 0x40 MSTORE CALLVALUE DUP1 ISZERO PUSH2 0x10 JUMPI PUSH1 0x0 DUP1 REVERT JUMPDEST POP PUSH1 0x4 CALLDATASIZE LT PUSH2 0x9E JUMPI PUSH1 0x0 CALLDATALOAD PUSH1 0xE0 SHR DUP1 PUSH4 0x313CE567 GT PUSH2 0x66 JUMPI DUP1 PUSH4 0x313CE567 EQ PUSH2 0x15B JUMPI DUP1 PUSH4 0x70A08231 EQ PUSH2 0x179 JUMPI DUP1 PUSH4 0x95D89B41 EQ PUSH2 0x1A9 JUMPI DUP1 PUSH4 0xA9059CBB EQ PUSH2 0x1C7 JUMPI DUP1 PUSH4 0xDD62ED3E EQ PUSH2 0x1F7 JUMPI PUSH2 0x9E JUMP JUMPDEST DUP1 PUSH4 0x6FDDE03 EQ PUSH2 0xA3 JUMPI DUP1 PUSH4 0x95EA7B3 EQ PUSH2 0xC1 JUMPI DUP1 PUSH4 0x18160DDD EQ PUSH2 0xF1 JUMPI DUP1 PUSH4 0x1D43CC98 EQ PUSH2 0x10F JUMPI DUP1 PUSH4 0x23B872DD EQ PUSH2 0x12B JUMPI JUMPDEST PUSH1 0x0 DUP1 REVERT JUMPDEST PUSH2 0xAB PUSH2 0x227 JUMP JUMPDEST PUSH1 0x40 MLOAD PUSH2 0xB8 SWAP2 SWAP1 PUSH2 0xC62 JUMP JUMPDEST PUSH1 0x40 MLOAD DUP1 SWAP2 SUB SWAP1 RETURN JUMPDEST PUSH2 0xDB PUSH1 0x4 DUP1 CALLDATASIZE SUB DUP2 ADD SWAP1 PUSH2 0xD6 SWAP2 SWAP1 PUSH2 0xB74 JUMP JUMPDEST PUSH2 0x260 JUMP JUMPDEST PUSH1 0x40 MLOAD PUSH2 0xE8 SWAP2 SWAP1 PUSH2 0xC47 JUMP JUMPDEST PUSH1 0x40 MLOAD DUP1 SWAP2 SUB SWAP1 RETURN JUMPDEST PUSH2 0xF9 PUSH2 0x352 JUMP JUMPDEST PUSH1 0x40 MLOAD PUSH2 0x106 SWAP2 SWAP1 PUSH2 0xC84 JUMP JUMPDEST PUSH1 0x40 MLOAD DUP1 SWAP2 SUB SWAP1 RETURN JUMPDEST PUSH2 0x129 PUSH1 0x4 DUP1 CALLDATASIZE SUB DUP2 ADD SWAP1 PUSH2 0x124 SWAP2 SWAP1 PUSH2 0xBB4 JUMP JUMPDEST PUSH2 0x35C JUMP JUMPDEST STOP JUMPDEST PUSH2 0x145 PUSH1 0x4 DUP1 CALLDATASIZE SUB DUP2 ADD SWAP1 PUSH2 0x140 SWAP2 SWAP1 PUSH2 0xB21 JUMP JUMPDEST PUSH2 0x3CD JUMP JUMPDEST PUSH1 0x40 MLOAD PUSH2 0x152 SWAP2 SWAP1 PUSH2 0xC47 JUMP JUMPDEST PUSH1 0x40 MLOAD DUP1 SWAP2 SUB SWAP1 RETURN JUMPDEST PUSH2 0x163 PUSH2 0x748 JUMP JUMPDEST PUSH1 0x40 MLOAD PUSH2 0x170 SWAP2 SWAP1 PUSH2 0xC9F JUMP JUMPDEST PUSH1 0x40 MLOAD DUP1 SWAP2 SUB SWAP1 RETURN JUMPDEST PUSH2 0x193 PUSH1 0x4 DUP1 CALLDATASIZE SUB DUP2 ADD SWAP1 PUSH2 0x18E SWAP2 SWAP1 PUSH2 0xAB4 JUMP JUMPDEST PUSH2 0x74D JUMP JUMPDEST PUSH1 0x40 MLOAD PUSH2 0x1A0 SWAP2 SWAP1 PUSH2 0xC84 JUMP JUMPDEST PUSH1 0x40 MLOAD DUP1 SWAP2 SUB SWAP1 RETURN JUMPDEST PUSH2 0x1B1 PUSH2 0x795 JUMP JUMPDEST PUSH1 0x40 MLOAD PUSH2 0x1BE SWAP2 SWAP1 PUSH2 0xC62 JUMP JUMPDEST PUSH1 0x40 MLOAD DUP1 SWAP2 SUB SWAP1 RETURN JUMPDEST PUSH2 0x1E1 PUSH1 0x4 DUP1 CALLDATASIZE SUB DUP2 ADD SWAP1 PUSH2 0x1DC SWAP2 SWAP1 PUSH2 0xB74 JUMP JUMPDEST PUSH2 0x7CE JUMP JUMPDEST PUSH1 0x40 MLOAD PUSH2 0x1EE SWAP2 SWAP1 PUSH2 0xC47 JUMP JUMPDEST PUSH1 0x40 MLOAD DUP1 SWAP2 SUB SWAP1 RETURN JUMPDEST PUSH2 0x211 PUSH1 0x4 DUP1 CALLDATASIZE SUB DUP2 ADD SWAP1 PUSH2 0x20C SWAP2 SWAP1 PUSH2 0xAE1 JUMP JUMPDEST PUSH2 0x9B0 JUMP JUMPDEST PUSH1 0x40 MLOAD PUSH2 0x21E SWAP2 SWAP1 PUSH2 0xC84 JUMP JUMPDEST PUSH1 0x40 MLOAD DUP1 SWAP2 SUB SWAP1 RETURN JUMPDEST PUSH1 0x40 MLOAD DUP1 PUSH1 0x40 ADD PUSH1 0x40 MSTORE DUP1 PUSH1 0x11 DUP2 MSTORE PUSH1 0x20 ADD PUSH32 0x4552433230426C6F636B636861696E415A000000000000000000000000000000 DUP2 MSTORE POP DUP2 JUMP JUMPDEST PUSH1 0x0 DUP2 PUSH1 0x1 PUSH1 0x0 CALLER PUSH20 0xFFFFFFFFFFFFFFFFFFFFFFFFFFFFFFFFFFFFFFFF AND PUSH20 0xFFFFFFFFFFFFFFFFFFFFFFFFFFFFFFFFFFFFFFFF AND DUP2 MSTORE PUSH1 0x20 ADD SWAP1 DUP2 MSTORE PUSH1 0x20 ADD PUSH1 0x0 KECCAK256 PUSH1 0x0 DUP6 PUSH20 0xFFFFFFFFFFFFFFFFFFFFFFFFFFFFFFFFFFFFFFFF AND PUSH20 0xFFFFFFFFFFFFFFFFFFFFFFFFFFFFFFFFFFFFFFFF AND DUP2 MSTORE PUSH1 0x20 ADD SWAP1 DUP2 MSTORE PUSH1 0x20 ADD PUSH1 0x0 KECCAK256 DUP2 SWAP1 SSTORE POP DUP3 PUSH20 0xFFFFFFFFFFFFFFFFFFFFFFFFFFFFFFFFFFFFFFFF AND CALLER PUSH20 0xFFFFFFFFFFFFFFFFFFFFFFFFFFFFFFFFFFFFFFFF AND PUSH32 0x8C5BE1E5EBEC7D5BD14F71427D1E84F3DD0314C0F7B2291E5B200AC8C7C3B925 DUP5 PUSH1 0x40 MLOAD PUSH2 0x340 SWAP2 SWAP1 PUSH2 0xC84 JUMP JUMPDEST PUSH1 0x40 MLOAD DUP1 SWAP2 SUB SWAP1 LOG3 PUSH1 0x1 SWAP1 POP SWAP3 SWAP2 POP POP JUMP JUMPDEST PUSH1 0x0 PUSH1 0x2 SLOAD SWAP1 POP SWAP1 JUMP JUMPDEST DUP1 PUSH1 0x2 PUSH1 0x0 DUP3 DUP3 SLOAD PUSH2 0x36E SWAP2 SWAP1 PUSH2 0xCD6 JUMP JUMPDEST SWAP3 POP POP DUP2 SWAP1 SSTORE POP DUP1 PUSH1 0x0 DUP1 CALLER PUSH20 0xFFFFFFFFFFFFFFFFFFFFFFFFFFFFFFFFFFFFFFFF AND PUSH20 0xFFFFFFFFFFFFFFFFFFFFFFFFFFFFFFFFFFFFFFFF AND DUP2 MSTORE PUSH1 0x20 ADD SWAP1 DUP2 MSTORE PUSH1 0x20 ADD PUSH1 0x0 KECCAK256 PUSH1 0x0 DUP3 DUP3 SLOAD PUSH2 0x3C3 SWAP2 SWAP1 PUSH2 0xCD6 JUMP JUMPDEST SWAP3 POP POP DUP2 SWAP1 SSTORE POP POP JUMP JUMPDEST PUSH1 0x0 DUP1 PUSH1 0x0 DUP6 PUSH20 0xFFFFFFFFFFFFFFFFFFFFFFFFFFFFFFFFFFFFFFFF AND PUSH20 0xFFFFFFFFFFFFFFFFFFFFFFFFFFFFFFFFFFFFFFFF AND DUP2 MSTORE PUSH1 0x20 ADD SWAP1 DUP2 MSTORE PUSH1 0x20 ADD PUSH1 0x0 KECCAK256 SLOAD DUP3 GT ISZERO PUSH2 0x41A JUMPI PUSH1 0x0 DUP1 REVERT JUMPDEST PUSH1 0x1 PUSH1 0x0 DUP6 PUSH20 0xFFFFFFFFFFFFFFFFFFFFFFFFFFFFFFFFFFFFFFFF AND PUSH20 0xFFFFFFFFFFFFFFFFFFFFFFFFFFFFFFFFFFFFFFFF AND DUP2 MSTORE PUSH1 0x20 ADD SWAP1 DUP2 MSTORE PUSH1 0x20 ADD PUSH1 0x0 KECCAK256 PUSH1 0x0 CALLER PUSH20 0xFFFFFFFFFFFFFFFFFFFFFFFFFFFFFFFFFFFFFFFF AND PUSH20 0xFFFFFFFFFFFFFFFFFFFFFFFFFFFFFFFFFFFFFFFF AND DUP2 MSTORE PUSH1 0x20 ADD SWAP1 DUP2 MSTORE PUSH1 0x20 ADD PUSH1 0x0 KECCAK256 SLOAD DUP3 GT ISZERO PUSH2 0x4A3 JUMPI PUSH1 0x0 DUP1 REVERT JUMPDEST PUSH2 0x4F4 DUP3 PUSH1 0x0 DUP1 DUP8 PUSH20 0xFFFFFFFFFFFFFFFFFFFFFFFFFFFFFFFFFFFFFFFF AND PUSH20 0xFFFFFFFFFFFFFFFFFFFFFFFFFFFFFFFFFFFFFFFF AND DUP2 MSTORE PUSH1 0x20 ADD SWAP1 DUP2 MSTORE PUSH1 0x20 ADD PUSH1 0x0 KECCAK256 SLOAD PUSH2 0xA37 SWAP1 SWAP2 SWAP1 PUSH4 0xFFFFFFFF AND JUMP JUMPDEST PUSH1 0x0 DUP1 DUP7 PUSH20 0xFFFFFFFFFFFFFFFFFFFFFFFFFFFFFFFFFFFFFFFF AND PUSH20 0xFFFFFFFFFFFFFFFFFFFFFFFFFFFFFFFFFFFFFFFF AND DUP2 MSTORE PUSH1 0x20 ADD SWAP1 DUP2 MSTORE PUSH1 0x20 ADD PUSH1 0x0 KECCAK256 DUP2 SWAP1 SSTORE POP PUSH2 0x5C5 DUP3 PUSH1 0x1 PUSH1 0x0 DUP8 PUSH20 0xFFFFFFFFFFFFFFFFFFFFFFFFFFFFFFFFFFFFFFFF AND PUSH20 0xFFFFFFFFFFFFFFFFFFFFFFFFFFFFFFFFFFFFFFFF AND DUP2 MSTORE PUSH1 0x20 ADD SWAP1 DUP2 MSTORE PUSH1 0x20 ADD PUSH1 0x0 KECCAK256 PUSH1 0x0 CALLER PUSH20 0xFFFFFFFFFFFFFFFFFFFFFFFFFFFFFFFFFFFFFFFF AND PUSH20 0xFFFFFFFFFFFFFFFFFFFFFFFFFFFFFFFFFFFFFFFF AND DUP2 MSTORE PUSH1 0x20 ADD SWAP1 DUP2 MSTORE PUSH1 0x20 ADD PUSH1 0x0 KECCAK256 SLOAD PUSH2 0xA37 SWAP1 SWAP2 SWAP1 PUSH4 0xFFFFFFFF AND JUMP JUMPDEST PUSH1 0x1 PUSH1 0x0 DUP7 PUSH20 0xFFFFFFFFFFFFFFFFFFFFFFFFFFFFFFFFFFFFFFFF AND PUSH20 0xFFFFFFFFFFFFFFFFFFFFFFFFFFFFFFFFFFFFFFFF AND DUP2 MSTORE PUSH1 0x20 ADD SWAP1 DUP2 MSTORE PUSH1 0x20 ADD PUSH1 0x0 KECCAK256 PUSH1 0x0 CALLER PUSH20 0xFFFFFFFFFFFFFFFFFFFFFFFFFFFFFFFFFFFFFFFF AND PUSH20 0xFFFFFFFFFFFFFFFFFFFFFFFFFFFFFFFFFFFFFFFF AND DUP2 MSTORE PUSH1 0x20 ADD SWAP1 DUP2 MSTORE PUSH1 0x20 ADD PUSH1 0x0 KECCAK256 DUP2 SWAP1 SSTORE POP PUSH2 0x696 DUP3 PUSH1 0x0 DUP1 DUP7 PUSH20 0xFFFFFFFFFFFFFFFFFFFFFFFFFFFFFFFFFFFFFFFF AND PUSH20 0xFFFFFFFFFFFFFFFFFFFFFFFFFFFFFFFFFFFFFFFF AND DUP2 MSTORE PUSH1 0x20 ADD SWAP1 DUP2 MSTORE PUSH1 0x20 ADD PUSH1 0x0 KECCAK256 SLOAD PUSH2 0xA5E SWAP1 SWAP2 SWAP1 PUSH4 0xFFFFFFFF AND JUMP JUMPDEST PUSH1 0x0 DUP1 DUP6 PUSH20 0xFFFFFFFFFFFFFFFFFFFFFFFFFFFFFFFFFFFFFFFF AND PUSH20 0xFFFFFFFFFFFFFFFFFFFFFFFFFFFFFFFFFFFFFFFF AND DUP2 MSTORE PUSH1 0x20 ADD SWAP1 DUP2 MSTORE PUSH1 0x20 ADD PUSH1 0x0 KECCAK256 DUP2 SWAP1 SSTORE POP DUP3 PUSH20 0xFFFFFFFFFFFFFFFFFFFFFFFFFFFFFFFFFFFFFFFF AND DUP5 PUSH20 0xFFFFFFFFFFFFFFFFFFFFFFFFFFFFFFFFFFFFFFFF AND PUSH32 0xDDF252AD1BE2C89B69C2B068FC378DAA952BA7F163C4A11628F55A4DF523B3EF DUP5 PUSH1 0x40 MLOAD PUSH2 0x735 SWAP2 SWAP1 PUSH2 0xC84 JUMP JUMPDEST PUSH1 0x40 MLOAD DUP1 SWAP2 SUB SWAP1 LOG3 PUSH1 0x1 SWAP1 POP SWAP4 SWAP3 POP POP POP JUMP JUMPDEST PUSH1 0x2 DUP2 JUMP JUMPDEST PUSH1 0x0 DUP1 PUSH1 0x0 DUP4 PUSH20 0xFFFFFFFFFFFFFFFFFFFFFFFFFFFFFFFFFFFFFFFF AND PUSH20 0xFFFFFFFFFFFFFFFFFFFFFFFFFFFFFFFFFFFFFFFF AND DUP2 MSTORE PUSH1 0x20 ADD SWAP1 DUP2 MSTORE PUSH1 0x20 ADD PUSH1 0x0 KECCAK256 SLOAD SWAP1 POP SWAP2 SWAP1 POP JUMP JUMPDEST PUSH1 0x40 MLOAD DUP1 PUSH1 0x40 ADD PUSH1 0x40 MSTORE DUP1 PUSH1 0x3 DUP2 MSTORE PUSH1 0x20 ADD PUSH32 0x4552430000000000000000000000000000000000000000000000000000000000 DUP2 MSTORE POP DUP2 JUMP JUMPDEST PUSH1 0x0 DUP1 PUSH1 0x0 CALLER PUSH20 0xFFFFFFFFFFFFFFFFFFFFFFFFFFFFFFFFFFFFFFFF AND PUSH20 0xFFFFFFFFFFFFFFFFFFFFFFFFFFFFFFFFFFFFFFFF AND DUP2 MSTORE PUSH1 0x20 ADD SWAP1 DUP2 MSTORE PUSH1 0x20 ADD PUSH1 0x0 KECCAK256 SLOAD DUP3 GT ISZERO PUSH2 0x81B JUMPI PUSH1 0x0 DUP1 REVERT JUMPDEST PUSH2 0x86C DUP3 PUSH1 0x0 DUP1 CALLER PUSH20 0xFFFFFFFFFFFFFFFFFFFFFFFFFFFFFFFFFFFFFFFF AND PUSH20 0xFFFFFFFFFFFFFFFFFFFFFFFFFFFFFFFFFFFFFFFF AND DUP2 MSTORE PUSH1 0x20 ADD SWAP1 DUP2 MSTORE PUSH1 0x20 ADD PUSH1 0x0 KECCAK256 SLOAD PUSH2 0xA37 SWAP1 SWAP2 SWAP1 PUSH4 0xFFFFFFFF AND JUMP JUMPDEST PUSH1 0x0 DUP1 CALLER PUSH20 0xFFFFFFFFFFFFFFFFFFFFFFFFFFFFFFFFFFFFFFFF AND PUSH20 0xFFFFFFFFFFFFFFFFFFFFFFFFFFFFFFFFFFFFFFFF AND DUP2 MSTORE PUSH1 0x20 ADD SWAP1 DUP2 MSTORE PUSH1 0x20 ADD PUSH1 0x0 KECCAK256 DUP2 SWAP1 SSTORE POP PUSH2 0x8FF DUP3 PUSH1 0x0 DUP1 DUP7 PUSH20 0xFFFFFFFFFFFFFFFFFFFFFFFFFFFFFFFFFFFFFFFF AND PUSH20 0xFFFFFFFFFFFFFFFFFFFFFFFFFFFFFFFFFFFFFFFF AND DUP2 MSTORE PUSH1 0x20 ADD SWAP1 DUP2 MSTORE PUSH1 0x20 ADD PUSH1 0x0 KECCAK256 SLOAD PUSH2 0xA5E SWAP1 SWAP2 SWAP1 PUSH4 0xFFFFFFFF AND JUMP JUMPDEST PUSH1 0x0 DUP1 DUP6 PUSH20 0xFFFFFFFFFFFFFFFFFFFFFFFFFFFFFFFFFFFFFFFF AND PUSH20 0xFFFFFFFFFFFFFFFFFFFFFFFFFFFFFFFFFFFFFFFF AND DUP2 MSTORE PUSH1 0x20 ADD SWAP1 DUP2 MSTORE PUSH1 0x20 ADD PUSH1 0x0 KECCAK256 DUP2 SWAP1 SSTORE POP DUP3 PUSH20 0xFFFFFFFFFFFFFFFFFFFFFFFFFFFFFFFFFFFFFFFF AND CALLER PUSH20 0xFFFFFFFFFFFFFFFFFFFFFFFFFFFFFFFFFFFFFFFF AND PUSH32 0xDDF252AD1BE2C89B69C2B068FC378DAA952BA7F163C4A11628F55A4DF523B3EF DUP5 PUSH1 0x40 MLOAD PUSH2 0x99E SWAP2 SWAP1 PUSH2 0xC84 JUMP JUMPDEST PUSH1 0x40 MLOAD DUP1 SWAP2 SUB SWAP1 LOG3 PUSH1 0x1 SWAP1 POP SWAP3 SWAP2 POP POP JUMP JUMPDEST PUSH1 0x0 PUSH1 0x1 PUSH1 0x0 DUP5 PUSH20 0xFFFFFFFFFFFFFFFFFFFFFFFFFFFFFFFFFFFFFFFF AND PUSH20 0xFFFFFFFFFFFFFFFFFFFFFFFFFFFFFFFFFFFFFFFF AND DUP2 MSTORE PUSH1 0x20 ADD SWAP1 DUP2 MSTORE PUSH1 0x20 ADD PUSH1 0x0 KECCAK256 PUSH1 0x0 DUP4 PUSH20 0xFFFFFFFFFFFFFFFFFFFFFFFFFFFFFFFFFFFFFFFF AND PUSH20 0xFFFFFFFFFFFFFFFFFFFFFFFFFFFFFFFFFFFFFFFF AND DUP2 MSTORE PUSH1 0x20 ADD SWAP1 DUP2 MSTORE PUSH1 0x20 ADD PUSH1 0x0 KECCAK256 SLOAD SWAP1 POP SWAP3 SWAP2 POP POP JUMP JUMPDEST PUSH1 0x0 DUP3 DUP3 GT ISZERO PUSH2 0xA4A JUMPI PUSH2 0xA49 PUSH2 0xDE8 JUMP JUMPDEST JUMPDEST DUP2 DUP4 PUSH2 0xA56 SWAP2 SWAP1 PUSH2 0xD2C JUMP JUMPDEST SWAP1 POP SWAP3 SWAP2 POP POP JUMP JUMPDEST PUSH1 0x0 DUP1 DUP3 DUP5 PUSH2 0xA6D SWAP2 SWAP1 PUSH2 0xCD6 JUMP JUMPDEST SWAP1 POP DUP4 DUP2 LT ISZERO PUSH2 0xA80 JUMPI PUSH2 0xA7F PUSH2 0xDE8 JUMP JUMPDEST JUMPDEST DUP1 SWAP2 POP POP SWAP3 SWAP2 POP POP JUMP JUMPDEST PUSH1 0x0 DUP2 CALLDATALOAD SWAP1 POP PUSH2 0xA99 DUP2 PUSH2 0xE5C JUMP JUMPDEST SWAP3 SWAP2 POP POP JUMP JUMPDEST PUSH1 0x0 DUP2 CALLDATALOAD SWAP1 POP PUSH2 0xAAE DUP2 PUSH2 0xE73 JUMP JUMPDEST SWAP3 SWAP2 POP POP JUMP JUMPDEST PUSH1 0x0 PUSH1 0x20 DUP3 DUP5 SUB SLT ISZERO PUSH2 0xACA JUMPI PUSH2 0xAC9 PUSH2 0xE46 JUMP JUMPDEST JUMPDEST PUSH1 0x0 PUSH2 0xAD8 DUP5 DUP3 DUP6 ADD PUSH2 0xA8A JUMP JUMPDEST SWAP2 POP POP SWAP3 SWAP2 POP POP JUMP JUMPDEST PUSH1 0x0 DUP1 PUSH1 0x40 DUP4 DUP6 SUB SLT ISZERO PUSH2 0xAF8 JUMPI PUSH2 0xAF7 PUSH2 0xE46 JUMP JUMPDEST JUMPDEST PUSH1 0x0 PUSH2 0xB06 DUP6 DUP3 DUP7 ADD PUSH2 0xA8A JUMP JUMPDEST SWAP3 POP POP PUSH1 0x20 PUSH2 0xB17 DUP6 DUP3 DUP7 ADD PUSH2 0xA8A JUMP JUMPDEST SWAP2 POP POP SWAP3 POP SWAP3 SWAP1 POP JUMP JUMPDEST PUSH1 0x0 DUP1 PUSH1 0x0 PUSH1 0x60 DUP5 DUP7 SUB SLT ISZERO PUSH2 0xB3A JUMPI PUSH2 0xB39 PUSH2 0xE46 JUMP JUMPDEST JUMPDEST PUSH1 0x0 PUSH2 0xB48 DUP7 DUP3 DUP8 ADD PUSH2 0xA8A JUMP JUMPDEST SWAP4 POP POP PUSH1 0x20 PUSH2 0xB59 DUP7 DUP3 DUP8 ADD PUSH2 0xA8A JUMP JUMPDEST SWAP3 POP POP PUSH1 0x40 PUSH2 0xB6A DUP7 DUP3 DUP8 ADD PUSH2 0xA9F JUMP JUMPDEST SWAP2 POP POP SWAP3 POP SWAP3 POP SWAP3 JUMP JUMPDEST PUSH1 0x0 DUP1 PUSH1 0x40 DUP4 DUP6 SUB SLT ISZERO PUSH2 0xB8B JUMPI PUSH2 0xB8A PUSH2 0xE46 JUMP JUMPDEST JUMPDEST PUSH1 0x0 PUSH2 0xB99 DUP6 DUP3 DUP7 ADD PUSH2 0xA8A JUMP JUMPDEST SWAP3 POP POP PUSH1 0x20 PUSH2 0xBAA DUP6 DUP3 DUP7 ADD PUSH2 0xA9F JUMP JUMPDEST SWAP2 POP POP SWAP3 POP SWAP3 SWAP1 POP JUMP JUMPDEST PUSH1 0x0 PUSH1 0x20 DUP3 DUP5 SUB SLT ISZERO PUSH2 0xBCA JUMPI PUSH2 0xBC9 PUSH2 0xE46 JUMP JUMPDEST JUMPDEST PUSH1 0x0 PUSH2 0xBD8 DUP5 DUP3 DUP6 ADD PUSH2 0xA9F JUMP JUMPDEST SWAP2 POP POP SWAP3 SWAP2 POP POP JUMP JUMPDEST PUSH2 0xBEA DUP2 PUSH2 0xD72 JUMP JUMPDEST DUP3 MSTORE POP POP JUMP JUMPDEST PUSH1 0x0 PUSH2 0xBFB DUP3 PUSH2 0xCBA JUMP JUMPDEST PUSH2 0xC05 DUP2 DUP6 PUSH2 0xCC5 JUMP JUMPDEST SWAP4 POP PUSH2 0xC15 DUP2 DUP6 PUSH1 0x20 DUP7 ADD PUSH2 0xDB5 JUMP JUMPDEST PUSH2 0xC1E DUP2 PUSH2 0xE4B JUMP JUMPDEST DUP5 ADD SWAP2 POP POP SWAP3 SWAP2 POP POP JUMP JUMPDEST PUSH2 0xC32 DUP2 PUSH2 0xD9E JUMP JUMPDEST DUP3 MSTORE POP POP JUMP JUMPDEST PUSH2 0xC41 DUP2 PUSH2 0xDA8 JUMP JUMPDEST DUP3 MSTORE POP POP JUMP JUMPDEST PUSH1 0x0 PUSH1 0x20 DUP3 ADD SWAP1 POP PUSH2 0xC5C PUSH1 0x0 DUP4 ADD DUP5 PUSH2 0xBE1 JUMP JUMPDEST SWAP3 SWAP2 POP POP JUMP JUMPDEST PUSH1 0x0 PUSH1 0x20 DUP3 ADD SWAP1 POP DUP2 DUP2 SUB PUSH1 0x0 DUP4 ADD MSTORE PUSH2 0xC7C DUP2 DUP5 PUSH2 0xBF0 JUMP JUMPDEST SWAP1 POP SWAP3 SWAP2 POP POP JUMP JUMPDEST PUSH1 0x0 PUSH1 0x20 DUP3 ADD SWAP1 POP PUSH2 0xC99 PUSH1 0x0 DUP4 ADD DUP5 PUSH2 0xC29 JUMP JUMPDEST SWAP3 SWAP2 POP POP JUMP JUMPDEST PUSH1 0x0 PUSH1 0x20 DUP3 ADD SWAP1 POP PUSH2 0xCB4 PUSH1 0x0 DUP4 ADD DUP5 PUSH2 0xC38 JUMP JUMPDEST SWAP3 SWAP2 POP POP JUMP JUMPDEST PUSH1 0x0 DUP2 MLOAD SWAP1 POP SWAP2 SWAP1 POP JUMP JUMPDEST PUSH1 0x0 DUP3 DUP3 MSTORE PUSH1 0x20 DUP3 ADD SWAP1 POP SWAP3 SWAP2 POP POP JUMP JUMPDEST PUSH1 0x0 PUSH2 0xCE1 DUP3 PUSH2 0xD9E JUMP JUMPDEST SWAP2 POP PUSH2 0xCEC DUP4 PUSH2 0xD9E JUMP JUMPDEST SWAP3 POP DUP3 PUSH32 0xFFFFFFFFFFFFFFFFFFFFFFFFFFFFFFFFFFFFFFFFFFFFFFFFFFFFFFFFFFFFFFFF SUB DUP3 GT ISZERO PUSH2 0xD21 JUMPI PUSH2 0xD20 PUSH2 0xE17 JUMP JUMPDEST JUMPDEST DUP3 DUP3 ADD SWAP1 POP SWAP3 SWAP2 POP POP JUMP JUMPDEST PUSH1 0x0 PUSH2 0xD37 DUP3 PUSH2 0xD9E JUMP JUMPDEST SWAP2 POP PUSH2 0xD42 DUP4 PUSH2 0xD9E JUMP JUMPDEST SWAP3 POP DUP3 DUP3 LT ISZERO PUSH2 0xD55 JUMPI PUSH2 0xD54 PUSH2 0xE17 JUMP JUMPDEST JUMPDEST DUP3 DUP3 SUB SWAP1 POP SWAP3 SWAP2 POP POP JUMP JUMPDEST PUSH1 0x0 PUSH2 0xD6B DUP3 PUSH2 0xD7E JUMP JUMPDEST SWAP1 POP SWAP2 SWAP1 POP JUMP JUMPDEST PUSH1 0x0 DUP2 ISZERO ISZERO SWAP1 POP SWAP2 SWAP1 POP JUMP JUMPDEST PUSH1 0x0 PUSH20 0xFFFFFFFFFFFFFFFFFFFFFFFFFFFFFFFFFFFFFFFF DUP3 AND SWAP1 POP SWAP2 SWAP1 POP JUMP JUMPDEST PUSH1 0x0 DUP2 SWAP1 POP SWAP2 SWAP1 POP JUMP JUMPDEST PUSH1 0x0 PUSH1 0xFF DUP3 AND SWAP1 POP SWAP2 SWAP1 POP JUMP JUMPDEST PUSH1 0x0 JUMPDEST DUP4 DUP2 LT ISZERO PUSH2 0xDD3 JUMPI DUP1 DUP3 ADD MLOAD DUP2 DUP5 ADD MSTORE PUSH1 0x20 DUP2 ADD SWAP1 POP PUSH2 0xDB8 JUMP JUMPDEST DUP4 DUP2 GT ISZERO PUSH2 0xDE2 JUMPI PUSH1 0x0 DUP5 DUP5 ADD MSTORE JUMPDEST POP POP POP POP JUMP JUMPDEST PUSH32 0x4E487B7100000000000000000000000000000000000000000000000000000000 PUSH1 0x0 MSTORE PUSH1 0x1 PUSH1 0x4 MSTORE PUSH1 0x24 PUSH1 0x0 REVERT JUMPDEST PUSH32 0x4E487B7100000000000000000000000000000000000000000000000000000000 PUSH1 0x0 MSTORE PUSH1 0x11 PUSH1 0x4 MSTORE PUSH1 0x24 PUSH1 0x0 REVERT JUMPDEST PUSH1 0x0 DUP1 REVERT JUMPDEST PUSH1 0x0 PUSH1 0x1F NOT PUSH1 0x1F DUP4 ADD AND SWAP1 POP SWAP2 SWAP1 POP JUMP JUMPDEST PUSH2 0xE65 DUP2 PUSH2 0xD60 JUMP JUMPDEST DUP2 EQ PUSH2 0xE70 JUMPI PUSH1 0x0 DUP1 REVERT JUMPDEST POP JUMP JUMPDEST PUSH2 0xE7C DUP2 PUSH2 0xD9E JUMP JUMPDEST DUP2 EQ PUSH2 0xE87 JUMPI PUSH1 0x0 DUP1 REVERT JUMPDEST POP JUMP INVALID LOG2 PUSH5 0x6970667358 0x22 SLT KECCAK256 CODESIZE 0xB3 0xB6 0x29 0x22 0xF PUSH28 0xB9B58ABD7142DA7E1995C26E1FA1CE23BECE24CCE293B055DC64736F PUSH13 0x63430008070033000000000000 "
				},
				"gasEstimates": {
					"creation": {
						"codeDepositCost": "1268200",
						"executionCost": "infinite",
						"totalCost": "infinite"
					},
					"external": {
						"AtraccionesDisponibles()": "infinite",
						"BajaAtraccion(string)": "infinite",
						"Clientes(address)": "2894",
						"CompraToken(uint256)": "infinite",
						"GeneraToken(uint256)": "infinite",
						"MappingAtracciones(string)": "infinite",
						"MisToken()": "infinite",
						"NuevaAtraccion(string,uint256)": "infinite",
						"balanceOf()": "infinite",
						"owner()": "2603"
					},
					"internal": {
						"PrecioToken(uint256)": "infinite"
					}
				},
				"methodIdentifiers": {
					"AtraccionesDisponibles()": "1fccb33c",
					"BajaAtraccion(string)": "c66dca40",
					"Clientes(address)": "ce8f2f38",
					"CompraToken(uint256)": "48ba0838",
					"GeneraToken(uint256)": "ba2d17fe",
					"MappingAtracciones(string)": "d00df296",
					"MisToken()": "ce6dd8c4",
					"NuevaAtraccion(string,uint256)": "2076b56c",
					"balanceOf()": "722713f7",
					"owner()": "8da5cb5b"
				}
			},
			"storageLayout": {
				"storage": [
					{
						"astId": 420,
						"contract": "Dinsey/dinsey.sol:Dinsey",
						"label": "token",
						"offset": 0,
						"slot": "0",
						"type": "t_contract(ERC20Basic)331"
					},
					{
						"astId": 422,
						"contract": "Dinsey/dinsey.sol:Dinsey",
						"label": "owner",
						"offset": 0,
						"slot": "1",
						"type": "t_address_payable"
					},
					{
						"astId": 453,
						"contract": "Dinsey/dinsey.sol:Dinsey",
						"label": "Clientes",
						"offset": 0,
						"slot": "2",
						"type": "t_mapping(t_address,t_struct(cliente)448_storage)"
					},
					{
						"astId": 611,
						"contract": "Dinsey/dinsey.sol:Dinsey",
						"label": "MappingAtracciones",
						"offset": 0,
						"slot": "3",
						"type": "t_mapping(t_string_memory_ptr,t_struct(atraccion)606_storage)"
					},
					{
						"astId": 614,
						"contract": "Dinsey/dinsey.sol:Dinsey",
						"label": "Atracciones",
						"offset": 0,
						"slot": "4",
						"type": "t_array(t_string_storage)dyn_storage"
					},
					{
						"astId": 619,
						"contract": "Dinsey/dinsey.sol:Dinsey",
						"label": "HistorialAtracciones",
						"offset": 0,
						"slot": "5",
						"type": "t_mapping(t_address,t_array(t_string_storage)dyn_storage)"
					}
				],
				"types": {
					"t_address": {
						"encoding": "inplace",
						"label": "address",
						"numberOfBytes": "20"
					},
					"t_address_payable": {
						"encoding": "inplace",
						"label": "address payable",
						"numberOfBytes": "20"
					},
					"t_array(t_string_storage)dyn_storage": {
						"base": "t_string_storage",
						"encoding": "dynamic_array",
						"label": "string[]",
						"numberOfBytes": "32"
					},
					"t_bool": {
						"encoding": "inplace",
						"label": "bool",
						"numberOfBytes": "1"
					},
					"t_contract(ERC20Basic)331": {
						"encoding": "inplace",
						"label": "contract ERC20Basic",
						"numberOfBytes": "20"
					},
					"t_mapping(t_address,t_array(t_string_storage)dyn_storage)": {
						"encoding": "mapping",
						"key": "t_address",
						"label": "mapping(address => string[])",
						"numberOfBytes": "32",
						"value": "t_array(t_string_storage)dyn_storage"
					},
					"t_mapping(t_address,t_struct(cliente)448_storage)": {
						"encoding": "mapping",
						"key": "t_address",
						"label": "mapping(address => struct Dinsey.cliente)",
						"numberOfBytes": "32",
						"value": "t_struct(cliente)448_storage"
					},
					"t_mapping(t_string_memory_ptr,t_struct(atraccion)606_storage)": {
						"encoding": "mapping",
						"key": "t_string_memory_ptr",
						"label": "mapping(string => struct Dinsey.atraccion)",
						"numberOfBytes": "32",
						"value": "t_struct(atraccion)606_storage"
					},
					"t_string_memory_ptr": {
						"encoding": "bytes",
						"label": "string",
						"numberOfBytes": "32"
					},
					"t_string_storage": {
						"encoding": "bytes",
						"label": "string",
						"numberOfBytes": "32"
					},
					"t_struct(atraccion)606_storage": {
						"encoding": "inplace",
						"label": "struct Dinsey.atraccion",
						"members": [
							{
								"astId": 601,
								"contract": "Dinsey/dinsey.sol:Dinsey",
								"label": "nombre_atraccion",
								"offset": 0,
								"slot": "0",
								"type": "t_string_storage"
							},
							{
								"astId": 603,
								"contract": "Dinsey/dinsey.sol:Dinsey",
								"label": "precio_atraccion",
								"offset": 0,
								"slot": "1",
								"type": "t_uint256"
							},
							{
								"astId": 605,
								"contract": "Dinsey/dinsey.sol:Dinsey",
								"label": "estado_atraccion",
								"offset": 0,
								"slot": "2",
								"type": "t_bool"
							}
						],
						"numberOfBytes": "96"
					},
					"t_struct(cliente)448_storage": {
						"encoding": "inplace",
						"label": "struct Dinsey.cliente",
						"members": [
							{
								"astId": 444,
								"contract": "Dinsey/dinsey.sol:Dinsey",
								"label": "tokens_comprados",
								"offset": 0,
								"slot": "0",
								"type": "t_uint256"
							},
							{
								"astId": 447,
								"contract": "Dinsey/dinsey.sol:Dinsey",
								"label": "atracciones_disfrutadas",
								"offset": 0,
								"slot": "1",
								"type": "t_array(t_string_storage)dyn_storage"
							}
						],
						"numberOfBytes": "64"
					},
					"t_uint256": {
						"encoding": "inplace",
						"label": "uint256",
						"numberOfBytes": "32"
					}
				}
			},
			"userdoc": {
				"kind": "user",
				"methods": {},
				"version": 1
			}
		}
	}
}